{
  "_format": "hh-sol-artifact-1",
  "contractName": "Biz",
  "sourceName": "contracts/Biz.sol",
  "abi": [
    {
      "inputs": [
        {
          "internalType": "address",
          "name": "bizWalletAddress",
          "type": "address"
        }
      ],
      "stateMutability": "nonpayable",
      "type": "constructor"
    },
    {
      "inputs": [
        {
          "internalType": "address",
          "name": "turtleMinterContract",
          "type": "address"
        },
        {
          "internalType": "uint256",
          "name": "tokenId",
          "type": "uint256"
        }
      ],
      "name": "createTurtle",
      "outputs": [],
      "stateMutability": "payable",
      "type": "function"
    },
    {
      "inputs": [],
      "name": "getPriceToMint",
      "outputs": [
        {
          "internalType": "uint256",
          "name": "",
          "type": "uint256"
        }
      ],
      "stateMutability": "view",
      "type": "function"
    }
  ],
  "bytecode": "0x608060405266b1a2bc2ec5000060055534801561001b57600080fd5b506040516106f03803806106f0833981810160405281019061003d91906100e2565b600160008190555033600460006101000a81548173ffffffffffffffffffffffffffffffffffffffff021916908373ffffffffffffffffffffffffffffffffffffffff16021790555080600360006101000a81548173ffffffffffffffffffffffffffffffffffffffff021916908373ffffffffffffffffffffffffffffffffffffffff16021790555050610154565b6000815190506100dc8161013d565b92915050565b6000602082840312156100f457600080fd5b6000610102848285016100cd565b91505092915050565b60006101168261011d565b9050919050565b600073ffffffffffffffffffffffffffffffffffffffff82169050919050565b6101468161010b565b811461015157600080fd5b50565b61058d806101636000396000f3fe6080604052600436106100295760003560e01c80639e1e79521461002e578063c884f86a14610059575b600080fd5b34801561003a57600080fd5b50610043610075565b6040516100509190610449565b60405180910390f35b610073600480360381019061006e9190610378565b61007f565b005b6000600554905090565b600260005414156100c5576040517f08c379a00000000000000000000000000000000000000000000000000000000081526004016100bc90610429565b60405180910390fd5b60026000819055506005543414610111576040517f08c379a000000000000000000000000000000000000000000000000000000000815260040161010890610409565b60405180910390fd5b61011b600161032a565b60006101276001610340565b90506040518060a001604052808281526020018473ffffffffffffffffffffffffffffffffffffffff168152602001838152602001600460009054906101000a900473ffffffffffffffffffffffffffffffffffffffff1673ffffffffffffffffffffffffffffffffffffffff16815260200160001515815250600660008381526020019081526020016000206000820151816000015560208201518160010160006101000a81548173ffffffffffffffffffffffffffffffffffffffff021916908373ffffffffffffffffffffffffffffffffffffffff1602179055506040820151816002015560608201518160030160006101000a81548173ffffffffffffffffffffffffffffffffffffffff021916908373ffffffffffffffffffffffffffffffffffffffff16021790555060808201518160030160146101000a81548160ff02191690831515021790555090505060016006600083815260200190815260200160002060030160146101000a81548160ff0219169083151502179055506102b2600261032a565b600360009054906101000a900473ffffffffffffffffffffffffffffffffffffffff1673ffffffffffffffffffffffffffffffffffffffff166108fc6005549081150290604051600060405180830381858888f1935050505015801561031c573d6000803e3d6000fd5b505060016000819055505050565b6001816000016000828254019250508190555050565b600081600001549050919050565b60008135905061035d81610529565b92915050565b60008135905061037281610540565b92915050565b6000806040838503121561038b57600080fd5b60006103998582860161034e565b92505060206103aa85828601610363565b9150509250929050565b60006103c1602483610464565b91506103cc826104b1565b604082019050919050565b60006103e4601f83610464565b91506103ef82610500565b602082019050919050565b610403816104a7565b82525050565b60006020820190508181036000830152610422816103b4565b9050919050565b60006020820190508181036000830152610442816103d7565b9050919050565b600060208201905061045e60008301846103fa565b92915050565b600082825260208201905092915050565b600061048082610487565b9050919050565b600073ffffffffffffffffffffffffffffffffffffffff82169050919050565b6000819050919050565b7f5072696365206d75737420626520657175616c20746f20707269636520746f2060008201527f6d696e7400000000000000000000000000000000000000000000000000000000602082015250565b7f5265656e7472616e637947756172643a207265656e7472616e742063616c6c00600082015250565b61053281610475565b811461053d57600080fd5b50565b610549816104a7565b811461055457600080fd5b5056fea2646970667358221220c768a965f3649634b1cf36e04c2f7472f3eafe217a202daf3ba3d1a28b35ab2164736f6c63430008040033",
  "linkReferences": {},
  "deployedLinkReferences": {}
}