{
  "_format": "hh-sol-artifact-1",
  "contractName": "Biz",
  "sourceName": "contracts/Biz.sol",
  "abi": [
    {
      "inputs": [
        {
          "internalType": "address",
          "name": "bizWalletAddress",
          "type": "address"
        }
      ],
      "stateMutability": "nonpayable",
      "type": "constructor"
    },
    {
      "anonymous": false,
      "inputs": [
        {
          "indexed": true,
          "internalType": "uint256",
          "name": "itemId",
          "type": "uint256"
        },
        {
          "indexed": true,
          "internalType": "address",
          "name": "nftContract",
          "type": "address"
        },
        {
          "indexed": true,
          "internalType": "uint256",
          "name": "tokenId",
          "type": "uint256"
        },
        {
          "indexed": false,
          "internalType": "address",
          "name": "owner",
          "type": "address"
        },
        {
          "indexed": false,
          "internalType": "bool",
          "name": "sold",
          "type": "bool"
        }
      ],
      "name": "TurtleCreated",
      "type": "event"
    },
    {
      "inputs": [
        {
          "internalType": "address",
          "name": "turtleMinterContract",
          "type": "address"
        },
        {
          "internalType": "uint256",
          "name": "tokenId",
          "type": "uint256"
        }
      ],
      "name": "createTurtle",
      "outputs": [],
      "stateMutability": "payable",
      "type": "function"
    },
    {
      "inputs": [],
      "name": "fetchTurtlesSold",
      "outputs": [
        {
          "components": [
            {
              "internalType": "uint256",
              "name": "itemId",
              "type": "uint256"
            },
            {
              "internalType": "address",
              "name": "turtleMinterContract",
              "type": "address"
            },
            {
              "internalType": "uint256",
              "name": "tokenId",
              "type": "uint256"
            },
            {
              "internalType": "address",
              "name": "owner",
              "type": "address"
            },
            {
              "internalType": "bool",
              "name": "sold",
              "type": "bool"
            }
          ],
          "internalType": "struct Biz.Turtle[]",
          "name": "",
          "type": "tuple[]"
        }
      ],
      "stateMutability": "view",
      "type": "function"
    },
    {
      "inputs": [],
      "name": "getPriceToMint",
      "outputs": [
        {
          "internalType": "uint256",
          "name": "",
          "type": "uint256"
        }
      ],
      "stateMutability": "view",
      "type": "function"
    }
  ],
  "bytecode": "0x608060405266b1a2bc2ec5000060055534801561001b57600080fd5b50604051610d62380380610d62833981810160405281019061003d91906100e2565b600160008190555033600460006101000a81548173ffffffffffffffffffffffffffffffffffffffff021916908373ffffffffffffffffffffffffffffffffffffffff16021790555080600360006101000a81548173ffffffffffffffffffffffffffffffffffffffff021916908373ffffffffffffffffffffffffffffffffffffffff16021790555050610154565b6000815190506100dc8161013d565b92915050565b6000602082840312156100f457600080fd5b6000610102848285016100cd565b91505092915050565b60006101168261011d565b9050919050565b600073ffffffffffffffffffffffffffffffffffffffff82169050919050565b6101468161010b565b811461015157600080fd5b50565b610bff806101636000396000f3fe6080604052600436106100345760003560e01c80636e71488e146100395780639e1e795214610064578063c884f86a1461008f575b600080fd5b34801561004557600080fd5b5061004e6100ab565b60405161005b919061099c565b60405180910390f35b34801561007057600080fd5b506100796102cf565b60405161008691906109fe565b60405180910390f35b6100a960048036038101906100a49190610782565b6102d9565b005b606060006100b960026106d7565b90506000808267ffffffffffffffff8111156100fe577f4e487b7100000000000000000000000000000000000000000000000000000000600052604160045260246000fd5b60405190808252806020026020018201604052801561013757816020015b6101246106fb565b81526020019060019003908161011c5790505b50905060005b838110156102c5576000600660008381526020019081526020016000206000015490506000600660008381526020019081526020016000209050806040518060a0016040529081600082015481526020016001820160009054906101000a900473ffffffffffffffffffffffffffffffffffffffff1673ffffffffffffffffffffffffffffffffffffffff1673ffffffffffffffffffffffffffffffffffffffff168152602001600282015481526020016003820160009054906101000a900473ffffffffffffffffffffffffffffffffffffffff1673ffffffffffffffffffffffffffffffffffffffff1673ffffffffffffffffffffffffffffffffffffffff1681526020016003820160149054906101000a900460ff161515151581525050848681518110610297577f4e487b7100000000000000000000000000000000000000000000000000000000600052603260045260246000fd5b602002602001018190525084806102ad90610aab565b955050505080806102bd90610aab565b91505061013d565b5080935050505090565b6000600554905090565b6002600054141561031f576040517f08c379a0000000000000000000000000000000000000000000000000000000008152600401610316906109de565b60405180910390fd5b6002600081905550600554341461036b576040517f08c379a0000000000000000000000000000000000000000000000000000000008152600401610362906109be565b60405180910390fd5b61037560016106e5565b600061038160016106d7565b90506040518060a001604052808281526020018473ffffffffffffffffffffffffffffffffffffffff168152602001838152602001600460009054906101000a900473ffffffffffffffffffffffffffffffffffffffff1673ffffffffffffffffffffffffffffffffffffffff16815260200160001515815250600660008381526020019081526020016000206000820151816000015560208201518160010160006101000a81548173ffffffffffffffffffffffffffffffffffffffff021916908373ffffffffffffffffffffffffffffffffffffffff1602179055506040820151816002015560608201518160030160006101000a81548173ffffffffffffffffffffffffffffffffffffffff021916908373ffffffffffffffffffffffffffffffffffffffff16021790555060808201518160030160146101000a81548160ff0219169083151502179055509050508273ffffffffffffffffffffffffffffffffffffffff166323b872dd3330856040518463ffffffff1660e01b81526004016105109392919061093c565b600060405180830381600087803b15801561052a57600080fd5b505af115801561053e573d6000803e3d6000fd5b50505050818373ffffffffffffffffffffffffffffffffffffffff16827f56fba7d7b1572118bf239fe93dee9cb7966602ac97fa663ce0fc68148f3f22af33600060405161058d929190610973565b60405180910390a48273ffffffffffffffffffffffffffffffffffffffff166323b872dd30600460009054906101000a900473ffffffffffffffffffffffffffffffffffffffff16856040518463ffffffff1660e01b81526004016105f49392919061093c565b600060405180830381600087803b15801561060e57600080fd5b505af1158015610622573d6000803e3d6000fd5b5050505060016006600083815260200190815260200160002060030160146101000a81548160ff02191690831515021790555061065f60026106e5565b600360009054906101000a900473ffffffffffffffffffffffffffffffffffffffff1673ffffffffffffffffffffffffffffffffffffffff166108fc6005549081150290604051600060405180830381858888f193505050501580156106c9573d6000803e3d6000fd5b505060016000819055505050565b600081600001549050919050565b6001816000016000828254019250508190555050565b6040518060a0016040528060008152602001600073ffffffffffffffffffffffffffffffffffffffff16815260200160008152602001600073ffffffffffffffffffffffffffffffffffffffff1681526020016000151581525090565b60008135905061076781610b9b565b92915050565b60008135905061077c81610bb2565b92915050565b6000806040838503121561079557600080fd5b60006107a385828601610758565b92505060206107b48582860161076d565b9150509250929050565b60006107ca83836108b6565b60a08301905092915050565b6107df81610a63565b82525050565b6107ee81610a63565b82525050565b60006107ff82610a29565b6108098185610a41565b935061081483610a19565b8060005b8381101561084557815161082c88826107be565b975061083783610a34565b925050600181019050610818565b5085935050505092915050565b61085b81610a75565b82525050565b61086a81610a75565b82525050565b600061087d602483610a52565b915061088882610b23565b604082019050919050565b60006108a0601f83610a52565b91506108ab82610b72565b602082019050919050565b60a0820160008201516108cc600085018261091e565b5060208201516108df60208501826107d6565b5060408201516108f2604085018261091e565b50606082015161090560608501826107d6565b5060808201516109186080850182610852565b50505050565b61092781610aa1565b82525050565b61093681610aa1565b82525050565b600060608201905061095160008301866107e5565b61095e60208301856107e5565b61096b604083018461092d565b949350505050565b600060408201905061098860008301856107e5565b6109956020830184610861565b9392505050565b600060208201905081810360008301526109b681846107f4565b905092915050565b600060208201905081810360008301526109d781610870565b9050919050565b600060208201905081810360008301526109f781610893565b9050919050565b6000602082019050610a13600083018461092d565b92915050565b6000819050602082019050919050565b600081519050919050565b6000602082019050919050565b600082825260208201905092915050565b600082825260208201905092915050565b6000610a6e82610a81565b9050919050565b60008115159050919050565b600073ffffffffffffffffffffffffffffffffffffffff82169050919050565b6000819050919050565b6000610ab682610aa1565b91507fffffffffffffffffffffffffffffffffffffffffffffffffffffffffffffffff821415610ae957610ae8610af4565b5b600182019050919050565b7f4e487b7100000000000000000000000000000000000000000000000000000000600052601160045260246000fd5b7f5072696365206d75737420626520657175616c20746f20707269636520746f2060008201527f6d696e7400000000000000000000000000000000000000000000000000000000602082015250565b7f5265656e7472616e637947756172643a207265656e7472616e742063616c6c00600082015250565b610ba481610a63565b8114610baf57600080fd5b50565b610bbb81610aa1565b8114610bc657600080fd5b5056fea2646970667358221220fb4dc6eb7605a09fd6ce4d31604239567ae41b2513ea2871e7bd26d0c36076ad64736f6c63430008040033",
  "linkReferences": {},
  "deployedLinkReferences": {}
}