{
  "_format": "hh-sol-artifact-1",
  "contractName": "Biz",
  "sourceName": "contracts/Biz.sol",
  "abi": [
    {
      "inputs": [
        {
          "internalType": "address",
          "name": "bizWalletAddress",
          "type": "address"
        }
      ],
      "stateMutability": "nonpayable",
      "type": "constructor"
    },
    {
      "anonymous": false,
      "inputs": [
        {
          "indexed": true,
          "internalType": "uint256",
          "name": "itemId",
          "type": "uint256"
        },
        {
          "indexed": true,
          "internalType": "address",
          "name": "turtleMinterContract",
          "type": "address"
        },
        {
          "indexed": true,
          "internalType": "uint256",
          "name": "tokenId",
          "type": "uint256"
        },
        {
          "indexed": false,
          "internalType": "address",
          "name": "owner",
          "type": "address"
        },
        {
          "indexed": false,
          "internalType": "bool",
          "name": "sold",
          "type": "bool"
        }
      ],
      "name": "TurtleCreated",
      "type": "event"
    },
    {
      "inputs": [
        {
          "internalType": "address",
          "name": "turtleMinterContract",
          "type": "address"
        },
        {
          "internalType": "uint256",
          "name": "tokenId",
          "type": "uint256"
        }
      ],
      "name": "createTurtle",
      "outputs": [],
      "stateMutability": "payable",
      "type": "function"
    },
    {
      "inputs": [],
      "name": "getPriceToMint",
      "outputs": [
        {
          "internalType": "uint256",
          "name": "",
          "type": "uint256"
        }
      ],
      "stateMutability": "view",
      "type": "function"
    }
  ],
  "bytecode": "0x608060405266b1a2bc2ec5000060055534801561001b57600080fd5b50604051610766380380610766833981810160405281019061003d91906100e2565b600160008190555033600460006101000a81548173ffffffffffffffffffffffffffffffffffffffff021916908373ffffffffffffffffffffffffffffffffffffffff16021790555080600360006101000a81548173ffffffffffffffffffffffffffffffffffffffff021916908373ffffffffffffffffffffffffffffffffffffffff16021790555050610154565b6000815190506100dc8161013d565b92915050565b6000602082840312156100f457600080fd5b6000610102848285016100cd565b91505092915050565b60006101168261011d565b9050919050565b600073ffffffffffffffffffffffffffffffffffffffff82169050919050565b6101468161010b565b811461015157600080fd5b50565b610603806101636000396000f3fe6080604052600436106100295760003560e01c80639e1e79521461002e578063c884f86a14610059575b600080fd5b34801561003a57600080fd5b50610043610075565b6040516100509190610502565b60405180910390f35b610073600480360381019061006e91906103f6565b61007f565b005b6000600554905090565b600260005414156100c5576040517f08c379a00000000000000000000000000000000000000000000000000000000081526004016100bc906104e2565b60405180910390fd5b60026000819055506100d760016103a8565b60006100e360016103be565b90506040518060a001604052808281526020018473ffffffffffffffffffffffffffffffffffffffff168152602001838152602001600460009054906101000a900473ffffffffffffffffffffffffffffffffffffffff1673ffffffffffffffffffffffffffffffffffffffff16815260200160001515815250600660008381526020019081526020016000206000820151816000015560208201518160010160006101000a81548173ffffffffffffffffffffffffffffffffffffffff021916908373ffffffffffffffffffffffffffffffffffffffff1602179055506040820151816002015560608201518160030160006101000a81548173ffffffffffffffffffffffffffffffffffffffff021916908373ffffffffffffffffffffffffffffffffffffffff16021790555060808201518160030160146101000a81548160ff0219169083151502179055509050508273ffffffffffffffffffffffffffffffffffffffff166323b872dd3330856040518463ffffffff1660e01b815260040161027293929190610482565b600060405180830381600087803b15801561028c57600080fd5b505af11580156102a0573d6000803e3d6000fd5b5050505060016006600083815260200190815260200160002060030160146101000a81548160ff0219169083151502179055506102dd60026103a8565b600360009054906101000a900473ffffffffffffffffffffffffffffffffffffffff1673ffffffffffffffffffffffffffffffffffffffff166108fc6005549081150290604051600060405180830381858888f19350505050158015610347573d6000803e3d6000fd5b50818373ffffffffffffffffffffffffffffffffffffffff16827f56fba7d7b1572118bf239fe93dee9cb7966602ac97fa663ce0fc68148f3f22af6000806040516103939291906104b9565b60405180910390a45060016000819055505050565b6001816000016000828254019250508190555050565b600081600001549050919050565b6000813590506103db8161059f565b92915050565b6000813590506103f0816105b6565b92915050565b6000806040838503121561040957600080fd5b6000610417858286016103cc565b9250506020610428858286016103e1565b9150509250929050565b61043b8161052e565b82525050565b61044a81610540565b82525050565b600061045d601f8361051d565b915061046882610576565b602082019050919050565b61047c8161056c565b82525050565b60006060820190506104976000830186610432565b6104a46020830185610432565b6104b16040830184610473565b949350505050565b60006040820190506104ce6000830185610432565b6104db6020830184610441565b9392505050565b600060208201905081810360008301526104fb81610450565b9050919050565b60006020820190506105176000830184610473565b92915050565b600082825260208201905092915050565b60006105398261054c565b9050919050565b60008115159050919050565b600073ffffffffffffffffffffffffffffffffffffffff82169050919050565b6000819050919050565b7f5265656e7472616e637947756172643a207265656e7472616e742063616c6c00600082015250565b6105a88161052e565b81146105b357600080fd5b50565b6105bf8161056c565b81146105ca57600080fd5b5056fea26469706673582212200215f133abd3f5fc03572a972fb605fe15cb14294c55c196e171fab62a16e9a464736f6c63430008040033",
  "linkReferences": {},
  "deployedLinkReferences": {}
}