{
  "_format": "hh-sol-artifact-1",
  "contractName": "Turtleverse",
  "sourceName": "contracts/Turtleverse.sol",
  "abi": [
    {
      "inputs": [
        {
          "internalType": "string",
          "name": "name_",
          "type": "string"
        },
        {
          "internalType": "string",
          "name": "symbol_",
          "type": "string"
        },
        {
          "internalType": "string",
          "name": "baseURI_",
          "type": "string"
        },
        {
          "internalType": "uint8",
          "name": "presaleLimit_",
          "type": "uint8"
        },
        {
          "internalType": "address payable",
          "name": "payout_",
          "type": "address"
        },
        {
          "internalType": "uint256",
          "name": "maxWithdrawal_",
          "type": "uint256"
        }
      ],
      "stateMutability": "nonpayable",
      "type": "constructor"
    },
    {
      "anonymous": false,
      "inputs": [
        {
          "indexed": true,
          "internalType": "address",
          "name": "_address",
          "type": "address"
        }
      ],
      "name": "AddedToWhitelist",
      "type": "event"
    },
    {
      "anonymous": false,
      "inputs": [
        {
          "indexed": true,
          "internalType": "address",
          "name": "owner",
          "type": "address"
        },
        {
          "indexed": true,
          "internalType": "address",
          "name": "approved",
          "type": "address"
        },
        {
          "indexed": true,
          "internalType": "uint256",
          "name": "tokenId",
          "type": "uint256"
        }
      ],
      "name": "Approval",
      "type": "event"
    },
    {
      "anonymous": false,
      "inputs": [
        {
          "indexed": true,
          "internalType": "address",
          "name": "owner",
          "type": "address"
        },
        {
          "indexed": true,
          "internalType": "address",
          "name": "operator",
          "type": "address"
        },
        {
          "indexed": false,
          "internalType": "bool",
          "name": "approved",
          "type": "bool"
        }
      ],
      "name": "ApprovalForAll",
      "type": "event"
    },
    {
      "anonymous": false,
      "inputs": [
        {
          "indexed": true,
          "internalType": "uint256",
          "name": "_giveawayStopTime",
          "type": "uint256"
        }
      ],
      "name": "GiveawayPaused",
      "type": "event"
    },
    {
      "anonymous": false,
      "inputs": [
        {
          "indexed": true,
          "internalType": "uint256",
          "name": "_giveawayStartTime",
          "type": "uint256"
        }
      ],
      "name": "GiveawayStart",
      "type": "event"
    },
    {
      "anonymous": false,
      "inputs": [
        {
          "indexed": true,
          "internalType": "address",
          "name": "previousOwner",
          "type": "address"
        },
        {
          "indexed": true,
          "internalType": "address",
          "name": "newOwner",
          "type": "address"
        }
      ],
      "name": "OwnershipTransferred",
      "type": "event"
    },
    {
      "anonymous": false,
      "inputs": [
        {
          "indexed": true,
          "internalType": "uint256",
          "name": "_presaleStopTime",
          "type": "uint256"
        }
      ],
      "name": "PresalePaused",
      "type": "event"
    },
    {
      "anonymous": false,
      "inputs": [
        {
          "indexed": true,
          "internalType": "uint256",
          "name": "_presaleStartTime",
          "type": "uint256"
        }
      ],
      "name": "PresaleStart",
      "type": "event"
    },
    {
      "anonymous": false,
      "inputs": [
        {
          "indexed": true,
          "internalType": "address",
          "name": "_address",
          "type": "address"
        }
      ],
      "name": "RemovedFromWhitelist",
      "type": "event"
    },
    {
      "anonymous": false,
      "inputs": [
        {
          "indexed": true,
          "internalType": "uint256",
          "name": "_saleStopTime",
          "type": "uint256"
        }
      ],
      "name": "SalePaused",
      "type": "event"
    },
    {
      "anonymous": false,
      "inputs": [
        {
          "indexed": true,
          "internalType": "uint256",
          "name": "_saleStartTime",
          "type": "uint256"
        }
      ],
      "name": "SaleStart",
      "type": "event"
    },
    {
      "anonymous": false,
      "inputs": [
        {
          "indexed": true,
          "internalType": "address",
          "name": "from",
          "type": "address"
        },
        {
          "indexed": true,
          "internalType": "address",
          "name": "to",
          "type": "address"
        },
        {
          "indexed": true,
          "internalType": "uint256",
          "name": "tokenId",
          "type": "uint256"
        }
      ],
      "name": "Transfer",
      "type": "event"
    },
    {
      "inputs": [
        {
          "internalType": "address[]",
          "name": "addresses",
          "type": "address[]"
        }
      ],
      "name": "addToWhitelist",
      "outputs": [],
      "stateMutability": "nonpayable",
      "type": "function"
    },
    {
      "inputs": [
        {
          "internalType": "address",
          "name": "to",
          "type": "address"
        },
        {
          "internalType": "uint256",
          "name": "tokenId",
          "type": "uint256"
        }
      ],
      "name": "approve",
      "outputs": [],
      "stateMutability": "nonpayable",
      "type": "function"
    },
    {
      "inputs": [
        {
          "internalType": "address",
          "name": "owner",
          "type": "address"
        }
      ],
      "name": "balanceOf",
      "outputs": [
        {
          "internalType": "uint256",
          "name": "",
          "type": "uint256"
        }
      ],
      "stateMutability": "view",
      "type": "function"
    },
    {
      "inputs": [
        {
          "internalType": "uint256",
          "name": "tokenId",
          "type": "uint256"
        }
      ],
      "name": "getApproved",
      "outputs": [
        {
          "internalType": "address",
          "name": "",
          "type": "address"
        }
      ],
      "stateMutability": "view",
      "type": "function"
    },
    {
      "inputs": [],
      "name": "giveawayActive",
      "outputs": [
        {
          "internalType": "bool",
          "name": "",
          "type": "bool"
        }
      ],
      "stateMutability": "view",
      "type": "function"
    },
    {
      "inputs": [],
      "name": "giveawayPriceToMint",
      "outputs": [
        {
          "internalType": "uint256",
          "name": "",
          "type": "uint256"
        }
      ],
      "stateMutability": "view",
      "type": "function"
    },
    {
      "inputs": [
        {
          "internalType": "address",
          "name": "owner",
          "type": "address"
        },
        {
          "internalType": "address",
          "name": "operator",
          "type": "address"
        }
      ],
      "name": "isApprovedForAll",
      "outputs": [
        {
          "internalType": "bool",
          "name": "",
          "type": "bool"
        }
      ],
      "stateMutability": "view",
      "type": "function"
    },
    {
      "inputs": [
        {
          "internalType": "uint256",
          "name": "tokensAmount",
          "type": "uint256"
        }
      ],
      "name": "mintTokens",
      "outputs": [
        {
          "internalType": "uint256[]",
          "name": "",
          "type": "uint256[]"
        }
      ],
      "stateMutability": "payable",
      "type": "function"
    },
    {
      "inputs": [],
      "name": "name",
      "outputs": [
        {
          "internalType": "string",
          "name": "",
          "type": "string"
        }
      ],
      "stateMutability": "view",
      "type": "function"
    },
    {
      "inputs": [],
      "name": "owner",
      "outputs": [
        {
          "internalType": "address",
          "name": "",
          "type": "address"
        }
      ],
      "stateMutability": "view",
      "type": "function"
    },
    {
      "inputs": [
        {
          "internalType": "uint256",
          "name": "tokenId",
          "type": "uint256"
        }
      ],
      "name": "ownerOf",
      "outputs": [
        {
          "internalType": "address",
          "name": "",
          "type": "address"
        }
      ],
      "stateMutability": "view",
      "type": "function"
    },
    {
      "inputs": [],
      "name": "pauseGiveaway",
      "outputs": [],
      "stateMutability": "nonpayable",
      "type": "function"
    },
    {
      "inputs": [],
      "name": "pausePresale",
      "outputs": [],
      "stateMutability": "nonpayable",
      "type": "function"
    },
    {
      "inputs": [],
      "name": "pausePublicSale",
      "outputs": [],
      "stateMutability": "nonpayable",
      "type": "function"
    },
    {
      "inputs": [],
      "name": "presaleActive",
      "outputs": [
        {
          "internalType": "bool",
          "name": "",
          "type": "bool"
        }
      ],
      "stateMutability": "view",
      "type": "function"
    },
    {
      "inputs": [],
      "name": "presalePriceToMint",
      "outputs": [
        {
          "internalType": "uint256",
          "name": "",
          "type": "uint256"
        }
      ],
      "stateMutability": "view",
      "type": "function"
    },
    {
      "inputs": [],
      "name": "price",
      "outputs": [
        {
          "internalType": "uint256",
          "name": "",
          "type": "uint256"
        }
      ],
      "stateMutability": "view",
      "type": "function"
    },
    {
      "inputs": [],
      "name": "priceToMint",
      "outputs": [
        {
          "internalType": "uint256",
          "name": "",
          "type": "uint256"
        }
      ],
      "stateMutability": "view",
      "type": "function"
    },
    {
      "inputs": [
        {
          "internalType": "address",
          "name": "",
          "type": "address"
        }
      ],
      "name": "purchasedAmount",
      "outputs": [
        {
          "internalType": "uint256",
          "name": "",
          "type": "uint256"
        }
      ],
      "stateMutability": "view",
      "type": "function"
    },
    {
      "inputs": [
        {
          "internalType": "address[]",
          "name": "addresses",
          "type": "address[]"
        }
      ],
      "name": "removeFromWhitelist",
      "outputs": [],
      "stateMutability": "nonpayable",
      "type": "function"
    },
    {
      "inputs": [],
      "name": "renounceOwnership",
      "outputs": [],
      "stateMutability": "nonpayable",
      "type": "function"
    },
    {
      "inputs": [
        {
          "internalType": "uint256",
          "name": "_tokenId",
          "type": "uint256"
        },
        {
          "internalType": "uint256",
          "name": "_salePrice",
          "type": "uint256"
        }
      ],
      "name": "royaltyInfo",
      "outputs": [
        {
          "internalType": "address",
          "name": "receiver",
          "type": "address"
        },
        {
          "internalType": "uint256",
          "name": "royaltyAmount",
          "type": "uint256"
        }
      ],
      "stateMutability": "view",
      "type": "function"
    },
    {
      "inputs": [
        {
          "internalType": "address",
          "name": "from",
          "type": "address"
        },
        {
          "internalType": "address",
          "name": "to",
          "type": "address"
        },
        {
          "internalType": "uint256",
          "name": "tokenId",
          "type": "uint256"
        }
      ],
      "name": "safeTransferFrom",
      "outputs": [],
      "stateMutability": "nonpayable",
      "type": "function"
    },
    {
      "inputs": [
        {
          "internalType": "address",
          "name": "from",
          "type": "address"
        },
        {
          "internalType": "address",
          "name": "to",
          "type": "address"
        },
        {
          "internalType": "uint256",
          "name": "tokenId",
          "type": "uint256"
        },
        {
          "internalType": "bytes",
          "name": "_data",
          "type": "bytes"
        }
      ],
      "name": "safeTransferFrom",
      "outputs": [],
      "stateMutability": "nonpayable",
      "type": "function"
    },
    {
      "inputs": [],
      "name": "saleActive",
      "outputs": [
        {
          "internalType": "bool",
          "name": "",
          "type": "bool"
        }
      ],
      "stateMutability": "view",
      "type": "function"
    },
    {
      "inputs": [
        {
          "internalType": "address",
          "name": "operator",
          "type": "address"
        },
        {
          "internalType": "bool",
          "name": "approved",
          "type": "bool"
        }
      ],
      "name": "setApprovalForAll",
      "outputs": [],
      "stateMutability": "nonpayable",
      "type": "function"
    },
    {
      "inputs": [
        {
          "internalType": "string",
          "name": "baseURI_",
          "type": "string"
        }
      ],
      "name": "setBaseURI",
      "outputs": [],
      "stateMutability": "nonpayable",
      "type": "function"
    },
    {
      "inputs": [
        {
          "internalType": "uint256",
          "name": "amount",
          "type": "uint256"
        }
      ],
      "name": "setMaxWithdrawal",
      "outputs": [],
      "stateMutability": "nonpayable",
      "type": "function"
    },
    {
      "inputs": [],
      "name": "startGiveaway",
      "outputs": [],
      "stateMutability": "nonpayable",
      "type": "function"
    },
    {
      "inputs": [],
      "name": "startPresale",
      "outputs": [],
      "stateMutability": "nonpayable",
      "type": "function"
    },
    {
      "inputs": [],
      "name": "startPublicSale",
      "outputs": [],
      "stateMutability": "nonpayable",
      "type": "function"
    },
    {
      "inputs": [
        {
          "internalType": "bytes4",
          "name": "interfaceId",
          "type": "bytes4"
        }
      ],
      "name": "supportsInterface",
      "outputs": [
        {
          "internalType": "bool",
          "name": "",
          "type": "bool"
        }
      ],
      "stateMutability": "view",
      "type": "function"
    },
    {
      "inputs": [],
      "name": "symbol",
      "outputs": [
        {
          "internalType": "string",
          "name": "",
          "type": "string"
        }
      ],
      "stateMutability": "view",
      "type": "function"
    },
    {
      "inputs": [
        {
          "internalType": "uint256",
          "name": "tokenId",
          "type": "uint256"
        }
      ],
      "name": "tokenURI",
      "outputs": [
        {
          "internalType": "string",
          "name": "",
          "type": "string"
        }
      ],
      "stateMutability": "view",
      "type": "function"
    },
    {
      "inputs": [],
      "name": "totalSupply",
      "outputs": [
        {
          "internalType": "uint256",
          "name": "",
          "type": "uint256"
        }
      ],
      "stateMutability": "view",
      "type": "function"
    },
    {
      "inputs": [
        {
          "internalType": "address",
          "name": "from",
          "type": "address"
        },
        {
          "internalType": "address",
          "name": "to",
          "type": "address"
        },
        {
          "internalType": "uint256",
          "name": "tokenId",
          "type": "uint256"
        }
      ],
      "name": "transferFrom",
      "outputs": [],
      "stateMutability": "nonpayable",
      "type": "function"
    },
    {
      "inputs": [
        {
          "internalType": "address",
          "name": "newOwner",
          "type": "address"
        }
      ],
      "name": "transferOwnership",
      "outputs": [],
      "stateMutability": "nonpayable",
      "type": "function"
    },
    {
      "inputs": [],
      "name": "withdraw",
      "outputs": [],
      "stateMutability": "nonpayable",
      "type": "function"
    }
  ],
  "bytecode": "0x60806040526000600f556658d15e1762800060105566b1a2bc2ec500006011553480156200002c57600080fd5b50604051620062483803806200624883398181016040528101906200005291906200036d565b858581600090805190602001906200006c92919062000206565b5080600190805190602001906200008592919062000206565b505050620000a86200009c6200013860201b60201c565b6200014060201b60201c565b600160078190555083600b9080519060200190620000c892919062000206565b5082600d60006101000a81548160ff021916908360ff16021790555081600d60016101000a81548173ffffffffffffffffffffffffffffffffffffffff021916908373ffffffffffffffffffffffffffffffffffffffff16021790555080600c8190555050505050505062000657565b600033905090565b6000600660009054906101000a900473ffffffffffffffffffffffffffffffffffffffff16905081600660006101000a81548173ffffffffffffffffffffffffffffffffffffffff021916908373ffffffffffffffffffffffffffffffffffffffff1602179055508173ffffffffffffffffffffffffffffffffffffffff168173ffffffffffffffffffffffffffffffffffffffff167f8be0079c531659141344cd1fd0a4f28419497f9722a3daafe3b4186f6b6457e060405160405180910390a35050565b82805462000214906200052e565b90600052602060002090601f01602090048101928262000238576000855562000284565b82601f106200025357805160ff191683800117855562000284565b8280016001018555821562000284579182015b828111156200028357825182559160200191906001019062000266565b5b50905062000293919062000297565b5090565b5b80821115620002b257600081600090555060010162000298565b5090565b6000620002cd620002c78462000477565b6200044e565b905082815260208101848484011115620002e657600080fd5b620002f3848285620004f8565b509392505050565b6000815190506200030c8162000609565b92915050565b600082601f8301126200032457600080fd5b815162000336848260208601620002b6565b91505092915050565b600081519050620003508162000623565b92915050565b60008151905062000367816200063d565b92915050565b60008060008060008060c087890312156200038757600080fd5b600087015167ffffffffffffffff811115620003a257600080fd5b620003b089828a0162000312565b965050602087015167ffffffffffffffff811115620003ce57600080fd5b620003dc89828a0162000312565b955050604087015167ffffffffffffffff811115620003fa57600080fd5b6200040889828a0162000312565b94505060606200041b89828a0162000356565b93505060806200042e89828a01620002fb565b92505060a06200044189828a016200033f565b9150509295509295509295565b60006200045a6200046d565b905062000468828262000564565b919050565b6000604051905090565b600067ffffffffffffffff821115620004955762000494620005c9565b5b620004a082620005f8565b9050602081019050919050565b6000620004ba82620004c1565b9050919050565b600073ffffffffffffffffffffffffffffffffffffffff82169050919050565b6000819050919050565b600060ff82169050919050565b60005b8381101562000518578082015181840152602081019050620004fb565b8381111562000528576000848401525b50505050565b600060028204905060018216806200054757607f821691505b602082108114156200055e576200055d6200059a565b5b50919050565b6200056f82620005f8565b810181811067ffffffffffffffff82111715620005915762000590620005c9565b5b80604052505050565b7f4e487b7100000000000000000000000000000000000000000000000000000000600052602260045260246000fd5b7f4e487b7100000000000000000000000000000000000000000000000000000000600052604160045260246000fd5b6000601f19601f8301169050919050565b6200061481620004ad565b81146200062057600080fd5b50565b6200062e81620004e1565b81146200063a57600080fd5b50565b6200064881620004eb565b81146200065457600080fd5b50565b615be180620006676000396000f3fe6080604052600436106102255760003560e01c806353135ca0116101235780638da5cb5b116100ab578063b88d4fde1161006f578063b88d4fde14610777578063c87b56dd146107a0578063dc9403a6146107dd578063e985e9c514610808578063f2fde38b1461084557610225565b80638da5cb5b1461069d57806395d89b41146106c857806397304ced146106f3578063a035b1fe14610723578063a22cb4651461074e57610225565b806368428a1b116100f257806368428a1b146105de57806370a0823114610609578063715018a6146106465780637c0f8aa01461065d5780637f6497831461067457610225565b806353135ca014610524578063548db1741461054f57806355f804b3146105785780636352211e146105a157610225565b806318160ddd116101b15780633ccfd60b116101755780633ccfd60b1461045157806342842e0e1461046857806344c4dcc1146104915780634616d4b2146104ce5780634dc1dbec146104f957610225565b806318160ddd1461036b57806323b872dd146103965780632a55205a146103bf5780632b3f4d92146103fd5780633926384d1461042857610225565b8063070f5c09116101f8578063070f5c09146102c0578063081812fc146102d7578063095ea7b3146103145780630c1c972a1461033d5780630c41f4971461035457610225565b806301ffc9a71461022a57806304c98b2b1461026757806305e4e88a1461027e57806306fdde0314610295575b600080fd5b34801561023657600080fd5b50610251600480360381019061024c9190613fbe565b61086e565b60405161025e9190614813565b60405180910390f35b34801561027357600080fd5b5061027c610950565b005b34801561028a57600080fd5b50610293610b06565b005b3480156102a157600080fd5b506102aa610cbc565b6040516102b7919061482e565b60405180910390f35b3480156102cc57600080fd5b506102d5610d4e565b005b3480156102e357600080fd5b506102fe60048036038101906102f99190614051565b610f03565b60405161030b9190614761565b60405180910390f35b34801561032057600080fd5b5061033b60048036038101906103369190613f41565b610f88565b005b34801561034957600080fd5b506103526110a0565b005b34801561036057600080fd5b50610369611256565b005b34801561037757600080fd5b5061038061140b565b60405161038d9190614d10565b60405180910390f35b3480156103a257600080fd5b506103bd60048036038101906103b89190613e3b565b61141c565b005b3480156103cb57600080fd5b506103e660048036038101906103e1919061407a565b61147c565b6040516103f49291906147c8565b60405180910390f35b34801561040957600080fd5b5061041261156c565b60405161041f9190614d10565b60405180910390f35b34801561043457600080fd5b5061044f600480360381019061044a9190614051565b611572565b005b34801561045d57600080fd5b5061046661163b565b005b34801561047457600080fd5b5061048f600480360381019061048a9190613e3b565b611864565b005b34801561049d57600080fd5b506104b860048036038101906104b39190613dd6565b611884565b6040516104c59190614d10565b60405180910390f35b3480156104da57600080fd5b506104e361189c565b6040516104f09190614813565b60405180910390f35b34801561050557600080fd5b5061050e6118af565b60405161051b9190614d10565b60405180910390f35b34801561053057600080fd5b506105396118b5565b6040516105469190614813565b60405180910390f35b34801561055b57600080fd5b5061057660048036038101906105719190613f7d565b6118c8565b005b34801561058457600080fd5b5061059f600480360381019061059a9190614010565b611acf565b005b3480156105ad57600080fd5b506105c860048036038101906105c39190614051565b611b65565b6040516105d59190614761565b60405180910390f35b3480156105ea57600080fd5b506105f3611c17565b6040516106009190614813565b60405180910390f35b34801561061557600080fd5b50610630600480360381019061062b9190613dd6565b611c2a565b60405161063d9190614d10565b60405180910390f35b34801561065257600080fd5b5061065b611ce2565b005b34801561066957600080fd5b50610672611d6a565b005b34801561068057600080fd5b5061069b60048036038101906106969190613f7d565b611f1f565b005b3480156106a957600080fd5b506106b2612126565b6040516106bf9190614761565b60405180910390f35b3480156106d457600080fd5b506106dd612150565b6040516106ea919061482e565b60405180910390f35b61070d60048036038101906107089190614051565b6121e2565b60405161071a91906147f1565b60405180910390f35b34801561072f57600080fd5b5061073861242d565b6040516107459190614d10565b60405180910390f35b34801561075a57600080fd5b5061077560048036038101906107709190613f05565b6124f3565b005b34801561078357600080fd5b5061079e60048036038101906107999190613e8a565b612509565b005b3480156107ac57600080fd5b506107c760048036038101906107c29190614051565b61256b565b6040516107d4919061482e565b60405180910390f35b3480156107e957600080fd5b506107f2612612565b6040516107ff9190614d10565b60405180910390f35b34801561081457600080fd5b5061082f600480360381019061082a9190613dff565b612618565b60405161083c9190614813565b60405180910390f35b34801561085157600080fd5b5061086c60048036038101906108679190613dd6565b6126ac565b005b60007f80ac58cd000000000000000000000000000000000000000000000000000000007bffffffffffffffffffffffffffffffffffffffffffffffffffffffff1916827bffffffffffffffffffffffffffffffffffffffffffffffffffffffff1916148061093957507f5b5e139f000000000000000000000000000000000000000000000000000000007bffffffffffffffffffffffffffffffffffffffffffffffffffffffff1916827bffffffffffffffffffffffffffffffffffffffffffffffffffffffff1916145b806109495750610948826127a4565b5b9050919050565b61095861280e565b73ffffffffffffffffffffffffffffffffffffffff16610976612126565b73ffffffffffffffffffffffffffffffffffffffff16146109cc576040517f08c379a00000000000000000000000000000000000000000000000000000000081526004016109c390614b10565b60405180910390fd5b601260009054906101000a900460ff1615610a1c576040517f08c379a0000000000000000000000000000000000000000000000000000000008152600401610a1390614cd0565b60405180910390fd5b601260019054906101000a900460ff1615610a6c576040517f08c379a0000000000000000000000000000000000000000000000000000000008152600401610a6390614ad0565b60405180910390fd5b601260029054906101000a900460ff1615610abc576040517f08c379a0000000000000000000000000000000000000000000000000000000008152600401610ab390614990565b60405180910390fd5b6001601260016101000a81548160ff021916908315150217905550427f0ab3861e918916d082a16babf84acd725febc223f0833c5c03d8b14ec900174360405160405180910390a2565b610b0e61280e565b73ffffffffffffffffffffffffffffffffffffffff16610b2c612126565b73ffffffffffffffffffffffffffffffffffffffff1614610b82576040517f08c379a0000000000000000000000000000000000000000000000000000000008152600401610b7990614b10565b60405180910390fd5b601260009054906101000a900460ff1615610bd2576040517f08c379a0000000000000000000000000000000000000000000000000000000008152600401610bc990614cd0565b60405180910390fd5b601260019054906101000a900460ff1615610c22576040517f08c379a0000000000000000000000000000000000000000000000000000000008152600401610c1990614ad0565b60405180910390fd5b601260029054906101000a900460ff1615610c72576040517f08c379a0000000000000000000000000000000000000000000000000000000008152600401610c6990614990565b60405180910390fd5b6001601260006101000a81548160ff021916908315150217905550427fea160f4a1725183ff307b55e355bb04139d56298efc5853e17f99ade82e2f38960405160405180910390a2565b606060008054610ccb90615025565b80601f0160208091040260200160405190810160405280929190818152602001828054610cf790615025565b8015610d445780601f10610d1957610100808354040283529160200191610d44565b820191906000526020600020905b815481529060010190602001808311610d2757829003601f168201915b5050505050905090565b610d5661280e565b73ffffffffffffffffffffffffffffffffffffffff16610d74612126565b73ffffffffffffffffffffffffffffffffffffffff1614610dca576040517f08c379a0000000000000000000000000000000000000000000000000000000008152600401610dc190614b10565b60405180910390fd5b601260009054906101000a900460ff1615610e1a576040517f08c379a0000000000000000000000000000000000000000000000000000000008152600401610e1190614cd0565b60405180910390fd5b601260029054906101000a900460ff1615610e6a576040517f08c379a0000000000000000000000000000000000000000000000000000000008152600401610e6190614990565b60405180910390fd5b601260019054906101000a900460ff16610eb9576040517f08c379a0000000000000000000000000000000000000000000000000000000008152600401610eb090614c30565b60405180910390fd5b6000601260016101000a81548160ff021916908315150217905550427fbbda50ff3083b4adfffcd3c2e8042a8b354ca16013534ab9367661c5a4cb7b2360405160405180910390a2565b6000610f0e82612816565b610f4d576040517f08c379a0000000000000000000000000000000000000000000000000000000008152600401610f4490614af0565b60405180910390fd5b6004600083815260200190815260200160002060009054906101000a900473ffffffffffffffffffffffffffffffffffffffff169050919050565b6000610f9382611b65565b90508073ffffffffffffffffffffffffffffffffffffffff168373ffffffffffffffffffffffffffffffffffffffff161415611004576040517f08c379a0000000000000000000000000000000000000000000000000000000008152600401610ffb90614bb0565b60405180910390fd5b8073ffffffffffffffffffffffffffffffffffffffff1661102361280e565b73ffffffffffffffffffffffffffffffffffffffff16148061105257506110518161104c61280e565b612618565b5b611091576040517f08c379a000000000000000000000000000000000000000000000000000000000815260040161108890614a10565b60405180910390fd5b61109b8383612882565b505050565b6110a861280e565b73ffffffffffffffffffffffffffffffffffffffff166110c6612126565b73ffffffffffffffffffffffffffffffffffffffff161461111c576040517f08c379a000000000000000000000000000000000000000000000000000000000815260040161111390614b10565b60405180910390fd5b601260009054906101000a900460ff161561116c576040517f08c379a000000000000000000000000000000000000000000000000000000000815260040161116390614cd0565b60405180910390fd5b601260019054906101000a900460ff16156111bc576040517f08c379a00000000000000000000000000000000000000000000000000000000081526004016111b390614ad0565b60405180910390fd5b601260029054906101000a900460ff161561120c576040517f08c379a000000000000000000000000000000000000000000000000000000000815260040161120390614990565b60405180910390fd5b6001601260026101000a81548160ff021916908315150217905550427feeae71454a2a58ac8d7c3a2ac3db1f29f81cbd0024aae4292a55139dd9d3560a60405160405180910390a2565b61125e61280e565b73ffffffffffffffffffffffffffffffffffffffff1661127c612126565b73ffffffffffffffffffffffffffffffffffffffff16146112d2576040517f08c379a00000000000000000000000000000000000000000000000000000000081526004016112c990614b10565b60405180910390fd5b601260009054906101000a900460ff1615611322576040517f08c379a000000000000000000000000000000000000000000000000000000000815260040161131990614cd0565b60405180910390fd5b601260019054906101000a900460ff1615611372576040517f08c379a000000000000000000000000000000000000000000000000000000000815260040161136990614ad0565b60405180910390fd5b601260029054906101000a900460ff166113c1576040517f08c379a00000000000000000000000000000000000000000000000000000000081526004016113b890614970565b60405180910390fd5b6000601260026101000a81548160ff021916908315150217905550427f4616a0782e5635981b28be1cd36934a60655b462c370d8bd8092c969abc990d060405160405180910390a2565b6000611417600861293b565b905090565b61142d61142761280e565b82612949565b61146c576040517f08c379a000000000000000000000000000000000000000000000000000000000815260040161146390614c10565b60405180910390fd5b611477838383612a27565b505050565b60008061148884612816565b6114c7576040517f08c379a00000000000000000000000000000000000000000000000000000000081526004016114be90614bd0565b60405180910390fd5b600073ffffffffffffffffffffffffffffffffffffffff16600d60019054906101000a900473ffffffffffffffffffffffffffffffffffffffff1673ffffffffffffffffffffffffffffffffffffffff16141561152357600080fd5b600d60019054906101000a900473ffffffffffffffffffffffffffffffffffffffff166127106103e8856115579190614ee1565b6115619190614eb0565b915091509250929050565b600f5481565b61157a61280e565b73ffffffffffffffffffffffffffffffffffffffff16611598612126565b73ffffffffffffffffffffffffffffffffffffffff16146115ee576040517f08c379a00000000000000000000000000000000000000000000000000000000081526004016115e590614b10565b60405180910390fd5b60008111611631576040517f08c379a000000000000000000000000000000000000000000000000000000000815260040161162890614b50565b60405180910390fd5b80600c8190555050565b61164361280e565b73ffffffffffffffffffffffffffffffffffffffff16611661612126565b73ffffffffffffffffffffffffffffffffffffffff16146116b7576040517f08c379a00000000000000000000000000000000000000000000000000000000081526004016116ae90614b10565b60405180910390fd5b600260075414156116fd576040517f08c379a00000000000000000000000000000000000000000000000000000000081526004016116f490614c90565b60405180910390fd5b600260078190555060004711611748576040517f08c379a000000000000000000000000000000000000000000000000000000000815260040161173f90614950565b60405180910390fd5b6706f05b59d3b20000471015611793576040517f08c379a000000000000000000000000000000000000000000000000000000000815260040161178a906149f0565b60405180910390fd5b600073ffffffffffffffffffffffffffffffffffffffff16600d60019054906101000a900473ffffffffffffffffffffffffffffffffffffffff1673ffffffffffffffffffffffffffffffffffffffff1614156117ef57600080fd5b600d60019054906101000a900473ffffffffffffffffffffffffffffffffffffffff1673ffffffffffffffffffffffffffffffffffffffff166108fc600c549081150290604051600060405180830381858888f19350505050158015611859573d6000803e3d6000fd5b506001600781905550565b61187f83838360405180602001604052806000815250612509565b505050565b600e6020528060005260406000206000915090505481565b601260009054906101000a900460ff1681565b60115481565b601260019054906101000a900460ff1681565b6118d061280e565b73ffffffffffffffffffffffffffffffffffffffff166118ee612126565b73ffffffffffffffffffffffffffffffffffffffff1614611944576040517f08c379a000000000000000000000000000000000000000000000000000000000815260040161193b90614b10565b60405180910390fd5b6000815111611988576040517f08c379a000000000000000000000000000000000000000000000000000000000815260040161197f90614a90565b60405180910390fd5b6107d0815111156119ce576040517f08c379a00000000000000000000000000000000000000000000000000000000081526004016119c590614a30565b60405180910390fd5b60005b8151811015611acb57611a2e828281518110611a16577f4e487b7100000000000000000000000000000000000000000000000000000000600052603260045260246000fd5b60200260200101516009612c8390919063ffffffff16565b15611ab757818181518110611a6c577f4e487b7100000000000000000000000000000000000000000000000000000000600052603260045260246000fd5b602002602001015173ffffffffffffffffffffffffffffffffffffffff167fcdd2e9b91a56913d370075169cefa1602ba36be5301664f752192bb1709df75760405160405180910390a25b600181611ac49190614e5a565b90506119d1565b5050565b611ad761280e565b73ffffffffffffffffffffffffffffffffffffffff16611af5612126565b73ffffffffffffffffffffffffffffffffffffffff1614611b4b576040517f08c379a0000000000000000000000000000000000000000000000000000000008152600401611b4290614b10565b60405180910390fd5b80600b9080519060200190611b61929190613b64565b5050565b6000806002600084815260200190815260200160002060009054906101000a900473ffffffffffffffffffffffffffffffffffffffff169050600073ffffffffffffffffffffffffffffffffffffffff168173ffffffffffffffffffffffffffffffffffffffff161415611c0e576040517f08c379a0000000000000000000000000000000000000000000000000000000008152600401611c0590614a70565b60405180910390fd5b80915050919050565b601260029054906101000a900460ff1681565b60008073ffffffffffffffffffffffffffffffffffffffff168273ffffffffffffffffffffffffffffffffffffffff161415611c9b576040517f08c379a0000000000000000000000000000000000000000000000000000000008152600401611c9290614a50565b60405180910390fd5b600360008373ffffffffffffffffffffffffffffffffffffffff1673ffffffffffffffffffffffffffffffffffffffff168152602001908152602001600020549050919050565b611cea61280e565b73ffffffffffffffffffffffffffffffffffffffff16611d08612126565b73ffffffffffffffffffffffffffffffffffffffff1614611d5e576040517f08c379a0000000000000000000000000000000000000000000000000000000008152600401611d5590614b10565b60405180910390fd5b611d686000612cb3565b565b611d7261280e565b73ffffffffffffffffffffffffffffffffffffffff16611d90612126565b73ffffffffffffffffffffffffffffffffffffffff1614611de6576040517f08c379a0000000000000000000000000000000000000000000000000000000008152600401611ddd90614b10565b60405180910390fd5b601260019054906101000a900460ff1615611e36576040517f08c379a0000000000000000000000000000000000000000000000000000000008152600401611e2d90614ad0565b60405180910390fd5b601260029054906101000a900460ff1615611e86576040517f08c379a0000000000000000000000000000000000000000000000000000000008152600401611e7d90614990565b60405180910390fd5b601260009054906101000a900460ff16611ed5576040517f08c379a0000000000000000000000000000000000000000000000000000000008152600401611ecc90614bf0565b60405180910390fd5b6000601260006101000a81548160ff021916908315150217905550427f71fbf9de7004f7d16da327d0c26b8f8b29e6efeaa59d67d1b76d6cc71fe47aae60405160405180910390a2565b611f2761280e565b73ffffffffffffffffffffffffffffffffffffffff16611f45612126565b73ffffffffffffffffffffffffffffffffffffffff1614611f9b576040517f08c379a0000000000000000000000000000000000000000000000000000000008152600401611f9290614b10565b60405180910390fd5b6000815111611fdf576040517f08c379a0000000000000000000000000000000000000000000000000000000008152600401611fd690614890565b60405180910390fd5b6107d081511115612025576040517f08c379a000000000000000000000000000000000000000000000000000000000815260040161201c90614a30565b60405180910390fd5b60005b81518110156121225761208582828151811061206d577f4e487b7100000000000000000000000000000000000000000000000000000000600052603260045260246000fd5b60200260200101516009612d7990919063ffffffff16565b1561210e578181815181106120c3577f4e487b7100000000000000000000000000000000000000000000000000000000600052603260045260246000fd5b602002602001015173ffffffffffffffffffffffffffffffffffffffff167fa850ae9193f515cbae8d35e8925bd2be26627fc91bce650b8652ed254e9cab0360405160405180910390a25b60018161211b9190614e5a565b9050612028565b5050565b6000600660009054906101000a900473ffffffffffffffffffffffffffffffffffffffff16905090565b60606001805461215f90615025565b80601f016020809104026020016040519081016040528092919081815260200182805461218b90615025565b80156121d85780601f106121ad576101008083540402835291602001916121d8565b820191906000526020600020905b8154815290600101906020018083116121bb57829003601f168201915b5050505050905090565b6060601260009054906101000a900460ff168061220b5750601260019054906101000a900460ff165b806122225750601260029054906101000a900460ff165b612261576040517f08c379a000000000000000000000000000000000000000000000000000000000815260040161225890614850565b60405180910390fd5b600260075414156122a7576040517f08c379a000000000000000000000000000000000000000000000000000000000815260040161229e90614c90565b60405180910390fd5b60026007819055506122b882612da9565b60008267ffffffffffffffff8111156122fa577f4e487b7100000000000000000000000000000000000000000000000000000000600052604160045260246000fd5b6040519080825280602002602001820160405280156123285781602001602082028036833780820191505090505b50905060005b838110156123985761233f336130bd565b828281518110612378577f4e487b7100000000000000000000000000000000000000000000000000000000600052603260045260246000fd5b6020026020010181815250506001816123919190614e5a565b905061232e565b50601260019054906101000a900460ff16806123c05750601260029054906101000a900460ff165b1561241c5782600e60003373ffffffffffffffffffffffffffffffffffffffff1673ffffffffffffffffffffffffffffffffffffffff16815260200190815260200160002060008282546124149190614e5a565b925050819055505b809150506001600781905550919050565b6000601260009054906101000a900460ff16806124565750601260019054906101000a900460ff165b8061246d5750601260029054906101000a900460ff165b6124ac576040517f08c379a00000000000000000000000000000000000000000000000000000000081526004016124a390614850565b60405180910390fd5b601260009054906101000a900460ff16156124cb57600f5490506124f0565b601260019054906101000a900460ff16156124ea5760105490506124f0565b60115490505b90565b6125056124fe61280e565b83836130ea565b5050565b61251a61251461280e565b83612949565b612559576040517f08c379a000000000000000000000000000000000000000000000000000000000815260040161255090614c10565b60405180910390fd5b61256584848484613257565b50505050565b606061257682612816565b6125b5576040517f08c379a00000000000000000000000000000000000000000000000000000000081526004016125ac90614b70565b60405180910390fd5b60006125bf6132b3565b905060008151116125df576040518060200160405280600081525061260a565b806125e984613345565b6040516020016125fa92919061473d565b6040516020818303038152906040525b915050919050565b60105481565b6000600560008473ffffffffffffffffffffffffffffffffffffffff1673ffffffffffffffffffffffffffffffffffffffff16815260200190815260200160002060008373ffffffffffffffffffffffffffffffffffffffff1673ffffffffffffffffffffffffffffffffffffffff16815260200190815260200160002060009054906101000a900460ff16905092915050565b6126b461280e565b73ffffffffffffffffffffffffffffffffffffffff166126d2612126565b73ffffffffffffffffffffffffffffffffffffffff1614612728576040517f08c379a000000000000000000000000000000000000000000000000000000000815260040161271f90614b10565b60405180910390fd5b600073ffffffffffffffffffffffffffffffffffffffff168173ffffffffffffffffffffffffffffffffffffffff161415612798576040517f08c379a000000000000000000000000000000000000000000000000000000000815260040161278f906148d0565b60405180910390fd5b6127a181612cb3565b50565b60007f01ffc9a7000000000000000000000000000000000000000000000000000000007bffffffffffffffffffffffffffffffffffffffffffffffffffffffff1916827bffffffffffffffffffffffffffffffffffffffffffffffffffffffff1916149050919050565b600033905090565b60008073ffffffffffffffffffffffffffffffffffffffff166002600084815260200190815260200160002060009054906101000a900473ffffffffffffffffffffffffffffffffffffffff1673ffffffffffffffffffffffffffffffffffffffff1614159050919050565b816004600083815260200190815260200160002060006101000a81548173ffffffffffffffffffffffffffffffffffffffff021916908373ffffffffffffffffffffffffffffffffffffffff160217905550808273ffffffffffffffffffffffffffffffffffffffff166128f583611b65565b73ffffffffffffffffffffffffffffffffffffffff167f8c5be1e5ebec7d5bd14f71427d1e84f3dd0314c0f7b2291e5b200ac8c7c3b92560405160405180910390a45050565b600081600001549050919050565b600061295482612816565b612993576040517f08c379a000000000000000000000000000000000000000000000000000000000815260040161298a906149d0565b60405180910390fd5b600061299e83611b65565b90508073ffffffffffffffffffffffffffffffffffffffff168473ffffffffffffffffffffffffffffffffffffffff161480612a0d57508373ffffffffffffffffffffffffffffffffffffffff166129f584610f03565b73ffffffffffffffffffffffffffffffffffffffff16145b80612a1e5750612a1d8185612618565b5b91505092915050565b8273ffffffffffffffffffffffffffffffffffffffff16612a4782611b65565b73ffffffffffffffffffffffffffffffffffffffff1614612a9d576040517f08c379a0000000000000000000000000000000000000000000000000000000008152600401612a9490614b30565b60405180910390fd5b600073ffffffffffffffffffffffffffffffffffffffff168273ffffffffffffffffffffffffffffffffffffffff161415612b0d576040517f08c379a0000000000000000000000000000000000000000000000000000000008152600401612b0490614910565b60405180910390fd5b612b188383836134f2565b612b23600082612882565b6001600360008573ffffffffffffffffffffffffffffffffffffffff1673ffffffffffffffffffffffffffffffffffffffff1681526020019081526020016000206000828254612b739190614f3b565b925050819055506001600360008473ffffffffffffffffffffffffffffffffffffffff1673ffffffffffffffffffffffffffffffffffffffff1681526020019081526020016000206000828254612bca9190614e5a565b92505081905550816002600083815260200190815260200160002060006101000a81548173ffffffffffffffffffffffffffffffffffffffff021916908373ffffffffffffffffffffffffffffffffffffffff160217905550808273ffffffffffffffffffffffffffffffffffffffff168473ffffffffffffffffffffffffffffffffffffffff167fddf252ad1be2c89b69c2b068fc378daa952ba7f163c4a11628f55a4df523b3ef60405160405180910390a4505050565b6000612cab836000018373ffffffffffffffffffffffffffffffffffffffff1660001b6134f7565b905092915050565b6000600660009054906101000a900473ffffffffffffffffffffffffffffffffffffffff16905081600660006101000a81548173ffffffffffffffffffffffffffffffffffffffff021916908373ffffffffffffffffffffffffffffffffffffffff1602179055508173ffffffffffffffffffffffffffffffffffffffff168173ffffffffffffffffffffffffffffffffffffffff167f8be0079c531659141344cd1fd0a4f28419497f9722a3daafe3b4186f6b6457e060405160405180910390a35050565b6000612da1836000018373ffffffffffffffffffffffffffffffffffffffff1660001b61367d565b905092915050565b600073ffffffffffffffffffffffffffffffffffffffff163373ffffffffffffffffffffffffffffffffffffffff161415612de357600080fd5b612710612dee61140b565b10612e2e576040517f08c379a0000000000000000000000000000000000000000000000000000000008152600401612e2590614cf0565b60405180910390fd5b60008111612e71576040517f08c379a0000000000000000000000000000000000000000000000000000000008152600401612e6890614b90565b60405180910390fd5b6004811115612eb5576040517f08c379a0000000000000000000000000000000000000000000000000000000008152600401612eac906149b0565b60405180910390fd5b601260009054906101000a900460ff1615612f1757612ed3336136ed565b612f12576040517f08c379a0000000000000000000000000000000000000000000000000000000008152600401612f0990614870565b60405180910390fd5b6130ba565b601260019054906101000a900460ff161561306857612f35336136ed565b612f74576040517f08c379a0000000000000000000000000000000000000000000000000000000008152600401612f6b90614870565b60405180910390fd5b600d60009054906101000a900460ff1660ff16600e60003373ffffffffffffffffffffffffffffffffffffffff1673ffffffffffffffffffffffffffffffffffffffff1681526020019081526020016000205482612fd29190614e5a565b1115613013576040517f08c379a000000000000000000000000000000000000000000000000000000000815260040161300a90614cb0565b60405180910390fd5b34816010546130229190614ee1565b1115613063576040517f08c379a000000000000000000000000000000000000000000000000000000000815260040161305a90614c70565b60405180910390fd5b6130b9565b34816011546130779190614ee1565b11156130b8576040517f08c379a00000000000000000000000000000000000000000000000000000000081526004016130af90614c50565b60405180910390fd5b5b5b50565b60006130c9600861370a565b60006130d5600861293b565b90506130e18382613720565b80915050919050565b8173ffffffffffffffffffffffffffffffffffffffff168373ffffffffffffffffffffffffffffffffffffffff161415613159576040517f08c379a000000000000000000000000000000000000000000000000000000000815260040161315090614930565b60405180910390fd5b80600560008573ffffffffffffffffffffffffffffffffffffffff1673ffffffffffffffffffffffffffffffffffffffff16815260200190815260200160002060008473ffffffffffffffffffffffffffffffffffffffff1673ffffffffffffffffffffffffffffffffffffffff16815260200190815260200160002060006101000a81548160ff0219169083151502179055508173ffffffffffffffffffffffffffffffffffffffff168373ffffffffffffffffffffffffffffffffffffffff167f17307eab39ab6107e8899845ad3d59bd9653f200f220920489ca2b5937696c318360405161324a9190614813565b60405180910390a3505050565b613262848484612a27565b61326e8484848461373e565b6132ad576040517f08c379a00000000000000000000000000000000000000000000000000000000081526004016132a4906148b0565b60405180910390fd5b50505050565b6060600b80546132c290615025565b80601f01602080910402602001604051908101604052809291908181526020018280546132ee90615025565b801561333b5780601f106133105761010080835404028352916020019161333b565b820191906000526020600020905b81548152906001019060200180831161331e57829003601f168201915b5050505050905090565b6060600082141561338d576040518060400160405280600181526020017f300000000000000000000000000000000000000000000000000000000000000081525090506134ed565b600082905060005b600082146133bf5780806133a890615088565b915050600a826133b89190614eb0565b9150613395565b60008167ffffffffffffffff811115613401577f4e487b7100000000000000000000000000000000000000000000000000000000600052604160045260246000fd5b6040519080825280601f01601f1916602001820160405280156134335781602001600182028036833780820191505090505b5090505b600085146134e65760018261344c9190614f3b565b9150600a8561345b91906150d1565b60306134679190614e5a565b60f81b8183815181106134a3577f4e487b7100000000000000000000000000000000000000000000000000000000600052603260045260246000fd5b60200101907effffffffffffffffffffffffffffffffffffffffffffffffffffffffffffff1916908160001a905350600a856134df9190614eb0565b9450613437565b8093505050505b919050565b505050565b600080836001016000848152602001908152602001600020549050600081146136715760006001826135299190614f3b565b90506000600186600001805490506135419190614f3b565b90508181146135fc576000866000018281548110613588577f4e487b7100000000000000000000000000000000000000000000000000000000600052603260045260246000fd5b90600052602060002001549050808760000184815481106135d2577f4e487b7100000000000000000000000000000000000000000000000000000000600052603260045260246000fd5b90600052602060002001819055508387600101600083815260200190815260200160002081905550505b85600001805480613636577f4e487b7100000000000000000000000000000000000000000000000000000000600052603160045260246000fd5b600190038181906000526020600020016000905590558560010160008681526020019081526020016000206000905560019350505050613677565b60009150505b92915050565b600061368983836138d5565b6136e25782600001829080600181540180825580915050600190039060005260206000200160009091909190915055826000018054905083600101600084815260200190815260200160002081905550600190506136e7565b600090505b92915050565b60006137038260096138f890919063ffffffff16565b9050919050565b6001816000016000828254019250508190555050565b61373a828260405180602001604052806000815250613928565b5050565b600061375f8473ffffffffffffffffffffffffffffffffffffffff16613983565b156138c8578373ffffffffffffffffffffffffffffffffffffffff1663150b7a0261378861280e565b8786866040518563ffffffff1660e01b81526004016137aa949392919061477c565b602060405180830381600087803b1580156137c457600080fd5b505af19250505080156137f557506040513d601f19601f820116820180604052508101906137f29190613fe7565b60015b613878573d8060008114613825576040519150601f19603f3d011682016040523d82523d6000602084013e61382a565b606091505b50600081511415613870576040517f08c379a0000000000000000000000000000000000000000000000000000000008152600401613867906148b0565b60405180910390fd5b805181602001fd5b63150b7a0260e01b7bffffffffffffffffffffffffffffffffffffffffffffffffffffffff1916817bffffffffffffffffffffffffffffffffffffffffffffffffffffffff1916149150506138cd565b600190505b949350505050565b600080836001016000848152602001908152602001600020541415905092915050565b6000613920836000018373ffffffffffffffffffffffffffffffffffffffff1660001b6138d5565b905092915050565b6139328383613996565b61393f600084848461373e565b61397e576040517f08c379a0000000000000000000000000000000000000000000000000000000008152600401613975906148b0565b60405180910390fd5b505050565b600080823b905060008111915050919050565b600073ffffffffffffffffffffffffffffffffffffffff168273ffffffffffffffffffffffffffffffffffffffff161415613a06576040517f08c379a00000000000000000000000000000000000000000000000000000000081526004016139fd90614ab0565b60405180910390fd5b613a0f81612816565b15613a4f576040517f08c379a0000000000000000000000000000000000000000000000000000000008152600401613a46906148f0565b60405180910390fd5b613a5b600083836134f2565b6001600360008473ffffffffffffffffffffffffffffffffffffffff1673ffffffffffffffffffffffffffffffffffffffff1681526020019081526020016000206000828254613aab9190614e5a565b92505081905550816002600083815260200190815260200160002060006101000a81548173ffffffffffffffffffffffffffffffffffffffff021916908373ffffffffffffffffffffffffffffffffffffffff160217905550808273ffffffffffffffffffffffffffffffffffffffff16600073ffffffffffffffffffffffffffffffffffffffff167fddf252ad1be2c89b69c2b068fc378daa952ba7f163c4a11628f55a4df523b3ef60405160405180910390a45050565b828054613b7090615025565b90600052602060002090601f016020900481019282613b925760008555613bd9565b82601f10613bab57805160ff1916838001178555613bd9565b82800160010185558215613bd9579182015b82811115613bd8578251825591602001919060010190613bbd565b5b509050613be69190613bea565b5090565b5b80821115613c03576000816000905550600101613beb565b5090565b6000613c1a613c1584614d50565b614d2b565b90508083825260208201905082856020860282011115613c3957600080fd5b60005b85811015613c695781613c4f8882613cef565b845260208401935060208301925050600181019050613c3c565b5050509392505050565b6000613c86613c8184614d7c565b614d2b565b905082815260208101848484011115613c9e57600080fd5b613ca9848285614fe3565b509392505050565b6000613cc4613cbf84614dad565b614d2b565b905082815260208101848484011115613cdc57600080fd5b613ce7848285614fe3565b509392505050565b600081359050613cfe81615b4f565b92915050565b600082601f830112613d1557600080fd5b8135613d25848260208601613c07565b91505092915050565b600081359050613d3d81615b66565b92915050565b600081359050613d5281615b7d565b92915050565b600081519050613d6781615b7d565b92915050565b600082601f830112613d7e57600080fd5b8135613d8e848260208601613c73565b91505092915050565b600082601f830112613da857600080fd5b8135613db8848260208601613cb1565b91505092915050565b600081359050613dd081615b94565b92915050565b600060208284031215613de857600080fd5b6000613df684828501613cef565b91505092915050565b60008060408385031215613e1257600080fd5b6000613e2085828601613cef565b9250506020613e3185828601613cef565b9150509250929050565b600080600060608486031215613e5057600080fd5b6000613e5e86828701613cef565b9350506020613e6f86828701613cef565b9250506040613e8086828701613dc1565b9150509250925092565b60008060008060808587031215613ea057600080fd5b6000613eae87828801613cef565b9450506020613ebf87828801613cef565b9350506040613ed087828801613dc1565b925050606085013567ffffffffffffffff811115613eed57600080fd5b613ef987828801613d6d565b91505092959194509250565b60008060408385031215613f1857600080fd5b6000613f2685828601613cef565b9250506020613f3785828601613d2e565b9150509250929050565b60008060408385031215613f5457600080fd5b6000613f6285828601613cef565b9250506020613f7385828601613dc1565b9150509250929050565b600060208284031215613f8f57600080fd5b600082013567ffffffffffffffff811115613fa957600080fd5b613fb584828501613d04565b91505092915050565b600060208284031215613fd057600080fd5b6000613fde84828501613d43565b91505092915050565b600060208284031215613ff957600080fd5b600061400784828501613d58565b91505092915050565b60006020828403121561402257600080fd5b600082013567ffffffffffffffff81111561403c57600080fd5b61404884828501613d97565b91505092915050565b60006020828403121561406357600080fd5b600061407184828501613dc1565b91505092915050565b6000806040838503121561408d57600080fd5b600061409b85828601613dc1565b92505060206140ac85828601613dc1565b9150509250929050565b60006140c2838361471f565b60208301905092915050565b6140d781614f6f565b82525050565b60006140e882614dee565b6140f28185614e1c565b93506140fd83614dde565b8060005b8381101561412e57815161411588826140b6565b975061412083614e0f565b925050600181019050614101565b5085935050505092915050565b61414481614f81565b82525050565b600061415582614df9565b61415f8185614e2d565b935061416f818560208601614ff2565b614178816151be565b840191505092915050565b600061418e82614e04565b6141988185614e3e565b93506141a8818560208601614ff2565b6141b1816151be565b840191505092915050565b60006141c782614e04565b6141d18185614e4f565b93506141e1818560208601614ff2565b80840191505092915050565b60006141fa602083614e3e565b9150614205826151cf565b602082019050919050565b600061421d602b83614e3e565b9150614228826151f8565b604082019050919050565b6000614240602c83614e3e565b915061424b82615247565b604082019050919050565b6000614263603283614e3e565b915061426e82615296565b604082019050919050565b6000614286602683614e3e565b9150614291826152e5565b604082019050919050565b60006142a9601c83614e3e565b91506142b482615334565b602082019050919050565b60006142cc602483614e3e565b91506142d78261535d565b604082019050919050565b60006142ef601983614e3e565b91506142fa826153ac565b602082019050919050565b6000614312601483614e3e565b915061431d826153d5565b602082019050919050565b6000614335601283614e3e565b9150614340826153fe565b602082019050919050565b6000614358601283614e3e565b915061436382615427565b602082019050919050565b600061437b602883614e3e565b915061438682615450565b604082019050919050565b600061439e602c83614e3e565b91506143a98261549f565b604082019050919050565b60006143c1603083614e3e565b91506143cc826154ee565b604082019050919050565b60006143e4603883614e3e565b91506143ef8261553d565b604082019050919050565b6000614407601c83614e3e565b91506144128261558c565b602082019050919050565b600061442a602a83614e3e565b9150614435826155b5565b604082019050919050565b600061444d602983614e3e565b915061445882615604565b604082019050919050565b6000614470603883614e3e565b915061447b82615653565b604082019050919050565b6000614493602083614e3e565b915061449e826156a2565b602082019050919050565b60006144b6601583614e3e565b91506144c1826156cb565b602082019050919050565b60006144d9602c83614e3e565b91506144e4826156f4565b604082019050919050565b60006144fc602083614e3e565b915061450782615743565b602082019050919050565b600061451f602983614e3e565b915061452a8261576c565b604082019050919050565b6000614542602883614e3e565b915061454d826157bb565b604082019050919050565b6000614565602f83614e3e565b91506145708261580a565b604082019050919050565b6000614588601c83614e3e565b915061459382615859565b602082019050919050565b60006145ab602183614e3e565b91506145b682615882565b604082019050919050565b60006145ce602583614e3e565b91506145d9826158d1565b604082019050919050565b60006145f1601383614e3e565b91506145fc82615920565b602082019050919050565b6000614614603183614e3e565b915061461f82615949565b604082019050919050565b6000614637601583614e3e565b915061464282615998565b602082019050919050565b600061465a604183614e3e565b9150614665826159c1565b606082019050919050565b600061467d603d83614e3e565b915061468882615a36565b604082019050919050565b60006146a0601f83614e3e565b91506146ab82615a85565b602082019050919050565b60006146c3602683614e3e565b91506146ce82615aae565b604082019050919050565b60006146e6601383614e3e565b91506146f182615afd565b602082019050919050565b6000614709600f83614e3e565b915061471482615b26565b602082019050919050565b61472881614fd9565b82525050565b61473781614fd9565b82525050565b600061474982856141bc565b915061475582846141bc565b91508190509392505050565b600060208201905061477660008301846140ce565b92915050565b600060808201905061479160008301876140ce565b61479e60208301866140ce565b6147ab604083018561472e565b81810360608301526147bd818461414a565b905095945050505050565b60006040820190506147dd60008301856140ce565b6147ea602083018461472e565b9392505050565b6000602082019050818103600083015261480b81846140dd565b905092915050565b6000602082019050614828600083018461413b565b92915050565b600060208201905081810360008301526148488184614183565b905092915050565b60006020820190508181036000830152614869816141ed565b9050919050565b6000602082019050818103600083015261488981614210565b9050919050565b600060208201905081810360008301526148a981614233565b9050919050565b600060208201905081810360008301526148c981614256565b9050919050565b600060208201905081810360008301526148e981614279565b9050919050565b600060208201905081810360008301526149098161429c565b9050919050565b60006020820190508181036000830152614929816142bf565b9050919050565b60006020820190508181036000830152614949816142e2565b9050919050565b6000602082019050818103600083015261496981614305565b9050919050565b6000602082019050818103600083015261498981614328565b9050919050565b600060208201905081810360008301526149a98161434b565b9050919050565b600060208201905081810360008301526149c98161436e565b9050919050565b600060208201905081810360008301526149e981614391565b9050919050565b60006020820190508181036000830152614a09816143b4565b9050919050565b60006020820190508181036000830152614a29816143d7565b9050919050565b60006020820190508181036000830152614a49816143fa565b9050919050565b60006020820190508181036000830152614a698161441d565b9050919050565b60006020820190508181036000830152614a8981614440565b9050919050565b60006020820190508181036000830152614aa981614463565b9050919050565b60006020820190508181036000830152614ac981614486565b9050919050565b60006020820190508181036000830152614ae9816144a9565b9050919050565b60006020820190508181036000830152614b09816144cc565b9050919050565b60006020820190508181036000830152614b29816144ef565b9050919050565b60006020820190508181036000830152614b4981614512565b9050919050565b60006020820190508181036000830152614b6981614535565b9050919050565b60006020820190508181036000830152614b8981614558565b9050919050565b60006020820190508181036000830152614ba98161457b565b9050919050565b60006020820190508181036000830152614bc98161459e565b9050919050565b60006020820190508181036000830152614be9816145c1565b9050919050565b60006020820190508181036000830152614c09816145e4565b9050919050565b60006020820190508181036000830152614c2981614607565b9050919050565b60006020820190508181036000830152614c498161462a565b9050919050565b60006020820190508181036000830152614c698161464d565b9050919050565b60006020820190508181036000830152614c8981614670565b9050919050565b60006020820190508181036000830152614ca981614693565b9050919050565b60006020820190508181036000830152614cc9816146b6565b9050919050565b60006020820190508181036000830152614ce9816146d9565b9050919050565b60006020820190508181036000830152614d09816146fc565b9050919050565b6000602082019050614d25600083018461472e565b92915050565b6000614d35614d46565b9050614d418282615057565b919050565b6000604051905090565b600067ffffffffffffffff821115614d6b57614d6a61518f565b5b602082029050602081019050919050565b600067ffffffffffffffff821115614d9757614d9661518f565b5b614da0826151be565b9050602081019050919050565b600067ffffffffffffffff821115614dc857614dc761518f565b5b614dd1826151be565b9050602081019050919050565b6000819050602082019050919050565b600081519050919050565b600081519050919050565b600081519050919050565b6000602082019050919050565b600082825260208201905092915050565b600082825260208201905092915050565b600082825260208201905092915050565b600081905092915050565b6000614e6582614fd9565b9150614e7083614fd9565b9250827fffffffffffffffffffffffffffffffffffffffffffffffffffffffffffffffff03821115614ea557614ea4615102565b5b828201905092915050565b6000614ebb82614fd9565b9150614ec683614fd9565b925082614ed657614ed5615131565b5b828204905092915050565b6000614eec82614fd9565b9150614ef783614fd9565b9250817fffffffffffffffffffffffffffffffffffffffffffffffffffffffffffffffff0483118215151615614f3057614f2f615102565b5b828202905092915050565b6000614f4682614fd9565b9150614f5183614fd9565b925082821015614f6457614f63615102565b5b828203905092915050565b6000614f7a82614fb9565b9050919050565b60008115159050919050565b60007fffffffff0000000000000000000000000000000000000000000000000000000082169050919050565b600073ffffffffffffffffffffffffffffffffffffffff82169050919050565b6000819050919050565b82818337600083830152505050565b60005b83811015615010578082015181840152602081019050614ff5565b8381111561501f576000848401525b50505050565b6000600282049050600182168061503d57607f821691505b6020821081141561505157615050615160565b5b50919050565b615060826151be565b810181811067ffffffffffffffff8211171561507f5761507e61518f565b5b80604052505050565b600061509382614fd9565b91507fffffffffffffffffffffffffffffffffffffffffffffffffffffffffffffffff8214156150c6576150c5615102565b5b600182019050919050565b60006150dc82614fd9565b91506150e783614fd9565b9250826150f7576150f6615131565b5b828206905092915050565b7f4e487b7100000000000000000000000000000000000000000000000000000000600052601160045260246000fd5b7f4e487b7100000000000000000000000000000000000000000000000000000000600052601260045260246000fd5b7f4e487b7100000000000000000000000000000000000000000000000000000000600052602260045260246000fd5b7f4e487b7100000000000000000000000000000000000000000000000000000000600052604160045260246000fd5b6000601f19601f8301169050919050565b7f546865726520617265206e6f2073616c657320617420746869732074696d652e600082015250565b7f576527726520736f7272792c20796f757220616464726573732069736e27742060008201527f77686974656c6973746564000000000000000000000000000000000000000000602082015250565b7f4d7573742073656e6420616e206172726179206f66206164647265737365732060008201527f746f2077686974656c6973740000000000000000000000000000000000000000602082015250565b7f4552433732313a207472616e7366657220746f206e6f6e20455243373231526560008201527f63656976657220696d706c656d656e7465720000000000000000000000000000602082015250565b7f4f776e61626c653a206e6577206f776e657220697320746865207a65726f206160008201527f6464726573730000000000000000000000000000000000000000000000000000602082015250565b7f4552433732313a20746f6b656e20616c7265616479206d696e74656400000000600082015250565b7f4552433732313a207472616e7366657220746f20746865207a65726f2061646460008201527f7265737300000000000000000000000000000000000000000000000000000000602082015250565b7f4552433732313a20617070726f766520746f2063616c6c657200000000000000600082015250565b7f4e6f7468696e6720746f2077697468647261772e000000000000000000000000600082015250565b7f53616c65206973206e6f74206163746976650000000000000000000000000000600082015250565b7f53616c65206973206e6f74207061757365640000000000000000000000000000600082015250565b7f43616e6e6f74206d696e74206d6f7265207468616e203420746f6b656e73206160008201527f7420612074696d65000000000000000000000000000000000000000000000000602082015250565b7f4552433732313a206f70657261746f7220717565727920666f72206e6f6e657860008201527f697374656e7420746f6b656e0000000000000000000000000000000000000000602082015250565b7f42616c616e6365206d757374206265202e35206574686572206f72206772656160008201527f74657220746f2077697468647261772e00000000000000000000000000000000602082015250565b7f4552433732313a20617070726f76652063616c6c6572206973206e6f74206f7760008201527f6e6572206e6f7220617070726f76656420666f7220616c6c0000000000000000602082015250565b7f57686974656c6973742063616e6e6f7420657863656564203230303000000000600082015250565b7f4552433732313a2062616c616e636520717565727920666f7220746865207a6560008201527f726f206164647265737300000000000000000000000000000000000000000000602082015250565b7f4552433732313a206f776e657220717565727920666f72206e6f6e657869737460008201527f656e7420746f6b656e0000000000000000000000000000000000000000000000602082015250565b7f4d7573742073656e6420616e206172726179206f66206164647265737365732060008201527f746f2072656d6f76652066726f6d2077686974656c6973740000000000000000602082015250565b7f4552433732313a206d696e7420746f20746865207a65726f2061646472657373600082015250565b7f50726573616c65206973206e6f74207061757365640000000000000000000000600082015250565b7f4552433732313a20617070726f76656420717565727920666f72206e6f6e657860008201527f697374656e7420746f6b656e0000000000000000000000000000000000000000602082015250565b7f4f776e61626c653a2063616c6c6572206973206e6f7420746865206f776e6572600082015250565b7f4552433732313a207472616e73666572206f6620746f6b656e2074686174206960008201527f73206e6f74206f776e0000000000000000000000000000000000000000000000602082015250565b7f5769746864726177616c20616d6f756e74206d7573742062652067726561746560008201527f72207468616e2030000000000000000000000000000000000000000000000000602082015250565b7f4552433732314d657461646174613a2055524920717565727920666f72206e6f60008201527f6e6578697374656e7420746f6b656e0000000000000000000000000000000000602082015250565b7f4d757374206d696e74206174206c65617374206f6e6520746f6b656e00000000600082015250565b7f4552433732313a20617070726f76616c20746f2063757272656e74206f776e6560008201527f7200000000000000000000000000000000000000000000000000000000000000602082015250565b7f4e6f6e6578697374656e7420746f6b656e20666f7220726f79616c747920706160008201527f796d656e74000000000000000000000000000000000000000000000000000000602082015250565b7f4769766561776179206e6f742061637469766500000000000000000000000000600082015250565b7f4552433732313a207472616e736665722063616c6c6572206973206e6f74206f60008201527f776e6572206e6f7220617070726f766564000000000000000000000000000000602082015250565b7f50726573616c65206973206e6f74206163746976650000000000000000000000600082015250565b7f496e73756666696369656e742066756e64733a2045746865722076616c75652060008201527f646f6573206e6f74206d61746368207075626c69632073616c6520707269636560208201527f2e00000000000000000000000000000000000000000000000000000000000000604082015250565b7f496e73756666696369656e742066756e64733a2045746865722076616c75652060008201527f646f6573206e6f74206d617463682070726573616c652070726963652e000000602082015250565b7f5265656e7472616e637947756172643a207265656e7472616e742063616c6c00600082015250565b7f43616e6e6f74206d696e74206d6f7265207468616e203420746f6b656e73207060008201527f726573616c650000000000000000000000000000000000000000000000000000602082015250565b7f4769766561776179206e6f742070617573656400000000000000000000000000600082015250565b7f4e6f20746f6b656e73206c656674210000000000000000000000000000000000600082015250565b615b5881614f6f565b8114615b6357600080fd5b50565b615b6f81614f81565b8114615b7a57600080fd5b50565b615b8681614f8d565b8114615b9157600080fd5b50565b615b9d81614fd9565b8114615ba857600080fd5b5056fea26469706673582212208d072b669e631f61c601b632ca51c3216e7fde4854bbdaae9e5803526e81d4f864736f6c63430008040033",
  "linkReferences": {},
  "deployedLinkReferences": {}
}