{
  "_format": "hh-sol-artifact-1",
  "contractName": "Turtleverse",
  "sourceName": "contracts/Turtleverse.sol",
  "abi": [
    {
      "inputs": [
        {
          "internalType": "string",
          "name": "name_",
          "type": "string"
        },
        {
          "internalType": "string",
          "name": "symbol_",
          "type": "string"
        },
        {
          "internalType": "string",
          "name": "baseURI_",
          "type": "string"
        },
        {
          "internalType": "uint256",
          "name": "maxSupply_",
          "type": "uint256"
        },
        {
          "internalType": "uint256",
          "name": "maxWithdrawal_",
          "type": "uint256"
        },
        {
          "internalType": "uint8",
          "name": "presaleLimit_",
          "type": "uint8"
        },
        {
          "internalType": "uint8",
          "name": "saleLimit_",
          "type": "uint8"
        },
        {
          "internalType": "address payable",
          "name": "payout_",
          "type": "address"
        }
      ],
      "stateMutability": "nonpayable",
      "type": "constructor"
    },
    {
      "anonymous": false,
      "inputs": [
        {
          "indexed": true,
          "internalType": "address",
          "name": "_address",
          "type": "address"
        }
      ],
      "name": "AddedToGiveawayList",
      "type": "event"
    },
    {
      "anonymous": false,
      "inputs": [
        {
          "indexed": true,
          "internalType": "address",
          "name": "_address",
          "type": "address"
        }
      ],
      "name": "AddedToWhitelist",
      "type": "event"
    },
    {
      "anonymous": false,
      "inputs": [
        {
          "indexed": true,
          "internalType": "address",
          "name": "owner",
          "type": "address"
        },
        {
          "indexed": true,
          "internalType": "address",
          "name": "approved",
          "type": "address"
        },
        {
          "indexed": true,
          "internalType": "uint256",
          "name": "tokenId",
          "type": "uint256"
        }
      ],
      "name": "Approval",
      "type": "event"
    },
    {
      "anonymous": false,
      "inputs": [
        {
          "indexed": true,
          "internalType": "address",
          "name": "owner",
          "type": "address"
        },
        {
          "indexed": true,
          "internalType": "address",
          "name": "operator",
          "type": "address"
        },
        {
          "indexed": false,
          "internalType": "bool",
          "name": "approved",
          "type": "bool"
        }
      ],
      "name": "ApprovalForAll",
      "type": "event"
    },
    {
      "anonymous": false,
      "inputs": [
        {
          "indexed": true,
          "internalType": "uint256",
          "name": "_giveawayStopTime",
          "type": "uint256"
        }
      ],
      "name": "GiveawayPaused",
      "type": "event"
    },
    {
      "anonymous": false,
      "inputs": [
        {
          "indexed": true,
          "internalType": "uint256",
          "name": "_giveawayStartTime",
          "type": "uint256"
        }
      ],
      "name": "GiveawayStart",
      "type": "event"
    },
    {
      "anonymous": false,
      "inputs": [
        {
          "indexed": true,
          "internalType": "address",
          "name": "previousOwner",
          "type": "address"
        },
        {
          "indexed": true,
          "internalType": "address",
          "name": "newOwner",
          "type": "address"
        }
      ],
      "name": "OwnershipTransferred",
      "type": "event"
    },
    {
      "anonymous": false,
      "inputs": [
        {
          "indexed": true,
          "internalType": "uint256",
          "name": "_presaleStopTime",
          "type": "uint256"
        }
      ],
      "name": "PresalePaused",
      "type": "event"
    },
    {
      "anonymous": false,
      "inputs": [
        {
          "indexed": true,
          "internalType": "uint256",
          "name": "_presaleStartTime",
          "type": "uint256"
        }
      ],
      "name": "PresaleStart",
      "type": "event"
    },
    {
      "anonymous": false,
      "inputs": [
        {
          "indexed": true,
          "internalType": "address",
          "name": "_address",
          "type": "address"
        }
      ],
      "name": "RemovedFromWhitelist",
      "type": "event"
    },
    {
      "anonymous": false,
      "inputs": [
        {
          "indexed": true,
          "internalType": "uint256",
          "name": "_saleStopTime",
          "type": "uint256"
        }
      ],
      "name": "SalePaused",
      "type": "event"
    },
    {
      "anonymous": false,
      "inputs": [
        {
          "indexed": true,
          "internalType": "uint256",
          "name": "_saleStartTime",
          "type": "uint256"
        }
      ],
      "name": "SaleStart",
      "type": "event"
    },
    {
      "anonymous": false,
      "inputs": [
        {
          "indexed": true,
          "internalType": "address",
          "name": "from",
          "type": "address"
        },
        {
          "indexed": true,
          "internalType": "address",
          "name": "to",
          "type": "address"
        },
        {
          "indexed": true,
          "internalType": "uint256",
          "name": "tokenId",
          "type": "uint256"
        }
      ],
      "name": "Transfer",
      "type": "event"
    },
    {
      "inputs": [
        {
          "internalType": "address[]",
          "name": "addresses",
          "type": "address[]"
        }
      ],
      "name": "addToGiveawayList",
      "outputs": [],
      "stateMutability": "nonpayable",
      "type": "function"
    },
    {
      "inputs": [
        {
          "internalType": "address[]",
          "name": "addresses",
          "type": "address[]"
        }
      ],
      "name": "addToWhitelist",
      "outputs": [],
      "stateMutability": "nonpayable",
      "type": "function"
    },
    {
      "inputs": [
        {
          "internalType": "address",
          "name": "to",
          "type": "address"
        },
        {
          "internalType": "uint256",
          "name": "tokenId",
          "type": "uint256"
        }
      ],
      "name": "approve",
      "outputs": [],
      "stateMutability": "nonpayable",
      "type": "function"
    },
    {
      "inputs": [
        {
          "internalType": "address",
          "name": "owner",
          "type": "address"
        }
      ],
      "name": "balanceOf",
      "outputs": [
        {
          "internalType": "uint256",
          "name": "",
          "type": "uint256"
        }
      ],
      "stateMutability": "view",
      "type": "function"
    },
    {
      "inputs": [
        {
          "internalType": "uint256",
          "name": "tokenId",
          "type": "uint256"
        }
      ],
      "name": "getApproved",
      "outputs": [
        {
          "internalType": "address",
          "name": "",
          "type": "address"
        }
      ],
      "stateMutability": "view",
      "type": "function"
    },
    {
      "inputs": [],
      "name": "giveawayActive",
      "outputs": [
        {
          "internalType": "bool",
          "name": "",
          "type": "bool"
        }
      ],
      "stateMutability": "view",
      "type": "function"
    },
    {
      "inputs": [],
      "name": "giveawayPriceToMint",
      "outputs": [
        {
          "internalType": "uint256",
          "name": "",
          "type": "uint256"
        }
      ],
      "stateMutability": "view",
      "type": "function"
    },
    {
      "inputs": [
        {
          "internalType": "address",
          "name": "owner",
          "type": "address"
        },
        {
          "internalType": "address",
          "name": "operator",
          "type": "address"
        }
      ],
      "name": "isApprovedForAll",
      "outputs": [
        {
          "internalType": "bool",
          "name": "",
          "type": "bool"
        }
      ],
      "stateMutability": "view",
      "type": "function"
    },
    {
      "inputs": [
        {
          "internalType": "uint256",
          "name": "tokensAmount",
          "type": "uint256"
        },
        {
          "internalType": "string[]",
          "name": "tokenHashes",
          "type": "string[]"
        }
      ],
      "name": "mintTokens",
      "outputs": [
        {
          "internalType": "uint256[]",
          "name": "",
          "type": "uint256[]"
        }
      ],
      "stateMutability": "payable",
      "type": "function"
    },
    {
      "inputs": [],
      "name": "name",
      "outputs": [
        {
          "internalType": "string",
          "name": "",
          "type": "string"
        }
      ],
      "stateMutability": "view",
      "type": "function"
    },
    {
      "inputs": [],
      "name": "owner",
      "outputs": [
        {
          "internalType": "address",
          "name": "",
          "type": "address"
        }
      ],
      "stateMutability": "view",
      "type": "function"
    },
    {
      "inputs": [
        {
          "internalType": "uint256",
          "name": "tokenId",
          "type": "uint256"
        }
      ],
      "name": "ownerOf",
      "outputs": [
        {
          "internalType": "address",
          "name": "",
          "type": "address"
        }
      ],
      "stateMutability": "view",
      "type": "function"
    },
    {
      "inputs": [],
      "name": "pauseGiveaway",
      "outputs": [],
      "stateMutability": "nonpayable",
      "type": "function"
    },
    {
      "inputs": [],
      "name": "pausePresale",
      "outputs": [],
      "stateMutability": "nonpayable",
      "type": "function"
    },
    {
      "inputs": [],
      "name": "pausePublicSale",
      "outputs": [],
      "stateMutability": "nonpayable",
      "type": "function"
    },
    {
      "inputs": [],
      "name": "presaleActive",
      "outputs": [
        {
          "internalType": "bool",
          "name": "",
          "type": "bool"
        }
      ],
      "stateMutability": "view",
      "type": "function"
    },
    {
      "inputs": [],
      "name": "presalePriceToMint",
      "outputs": [
        {
          "internalType": "uint256",
          "name": "",
          "type": "uint256"
        }
      ],
      "stateMutability": "view",
      "type": "function"
    },
    {
      "inputs": [
        {
          "internalType": "address",
          "name": "",
          "type": "address"
        }
      ],
      "name": "presalePurchasedAmount",
      "outputs": [
        {
          "internalType": "uint256",
          "name": "",
          "type": "uint256"
        }
      ],
      "stateMutability": "view",
      "type": "function"
    },
    {
      "inputs": [],
      "name": "price",
      "outputs": [
        {
          "internalType": "uint256",
          "name": "",
          "type": "uint256"
        }
      ],
      "stateMutability": "view",
      "type": "function"
    },
    {
      "inputs": [],
      "name": "priceToMint",
      "outputs": [
        {
          "internalType": "uint256",
          "name": "",
          "type": "uint256"
        }
      ],
      "stateMutability": "view",
      "type": "function"
    },
    {
      "inputs": [
        {
          "internalType": "address[]",
          "name": "addresses",
          "type": "address[]"
        }
      ],
      "name": "removeFromWhitelist",
      "outputs": [],
      "stateMutability": "nonpayable",
      "type": "function"
    },
    {
      "inputs": [],
      "name": "renounceOwnership",
      "outputs": [],
      "stateMutability": "nonpayable",
      "type": "function"
    },
    {
      "inputs": [
        {
          "internalType": "uint256",
          "name": "_tokenId",
          "type": "uint256"
        },
        {
          "internalType": "uint256",
          "name": "_salePrice",
          "type": "uint256"
        }
      ],
      "name": "royaltyInfo",
      "outputs": [
        {
          "internalType": "address",
          "name": "receiver",
          "type": "address"
        },
        {
          "internalType": "uint256",
          "name": "royaltyAmount",
          "type": "uint256"
        }
      ],
      "stateMutability": "view",
      "type": "function"
    },
    {
      "inputs": [
        {
          "internalType": "address",
          "name": "from",
          "type": "address"
        },
        {
          "internalType": "address",
          "name": "to",
          "type": "address"
        },
        {
          "internalType": "uint256",
          "name": "tokenId",
          "type": "uint256"
        }
      ],
      "name": "safeTransferFrom",
      "outputs": [],
      "stateMutability": "nonpayable",
      "type": "function"
    },
    {
      "inputs": [
        {
          "internalType": "address",
          "name": "from",
          "type": "address"
        },
        {
          "internalType": "address",
          "name": "to",
          "type": "address"
        },
        {
          "internalType": "uint256",
          "name": "tokenId",
          "type": "uint256"
        },
        {
          "internalType": "bytes",
          "name": "_data",
          "type": "bytes"
        }
      ],
      "name": "safeTransferFrom",
      "outputs": [],
      "stateMutability": "nonpayable",
      "type": "function"
    },
    {
      "inputs": [],
      "name": "saleActive",
      "outputs": [
        {
          "internalType": "bool",
          "name": "",
          "type": "bool"
        }
      ],
      "stateMutability": "view",
      "type": "function"
    },
    {
      "inputs": [
        {
          "internalType": "address",
          "name": "",
          "type": "address"
        }
      ],
      "name": "salePurchasedAmount",
      "outputs": [
        {
          "internalType": "uint256",
          "name": "",
          "type": "uint256"
        }
      ],
      "stateMutability": "view",
      "type": "function"
    },
    {
      "inputs": [
        {
          "internalType": "address",
          "name": "operator",
          "type": "address"
        },
        {
          "internalType": "bool",
          "name": "approved",
          "type": "bool"
        }
      ],
      "name": "setApprovalForAll",
      "outputs": [],
      "stateMutability": "nonpayable",
      "type": "function"
    },
    {
      "inputs": [],
      "name": "startGiveaway",
      "outputs": [],
      "stateMutability": "nonpayable",
      "type": "function"
    },
    {
      "inputs": [],
      "name": "startPresale",
      "outputs": [],
      "stateMutability": "nonpayable",
      "type": "function"
    },
    {
      "inputs": [],
      "name": "startPublicSale",
      "outputs": [],
      "stateMutability": "nonpayable",
      "type": "function"
    },
    {
      "inputs": [
        {
          "internalType": "bytes4",
          "name": "interfaceId",
          "type": "bytes4"
        }
      ],
      "name": "supportsInterface",
      "outputs": [
        {
          "internalType": "bool",
          "name": "",
          "type": "bool"
        }
      ],
      "stateMutability": "view",
      "type": "function"
    },
    {
      "inputs": [],
      "name": "symbol",
      "outputs": [
        {
          "internalType": "string",
          "name": "",
          "type": "string"
        }
      ],
      "stateMutability": "view",
      "type": "function"
    },
    {
      "inputs": [
        {
          "internalType": "uint256",
          "name": "tokenId",
          "type": "uint256"
        }
      ],
      "name": "tokenURI",
      "outputs": [
        {
          "internalType": "string",
          "name": "",
          "type": "string"
        }
      ],
      "stateMutability": "view",
      "type": "function"
    },
    {
      "inputs": [
        {
          "internalType": "address",
          "name": "from",
          "type": "address"
        },
        {
          "internalType": "address",
          "name": "to",
          "type": "address"
        },
        {
          "internalType": "uint256",
          "name": "tokenId",
          "type": "uint256"
        }
      ],
      "name": "transferFrom",
      "outputs": [],
      "stateMutability": "nonpayable",
      "type": "function"
    },
    {
      "inputs": [
        {
          "internalType": "address",
          "name": "newOwner",
          "type": "address"
        }
      ],
      "name": "transferOwnership",
      "outputs": [],
      "stateMutability": "nonpayable",
      "type": "function"
    },
    {
      "inputs": [],
      "name": "withdraw",
      "outputs": [],
      "stateMutability": "nonpayable",
      "type": "function"
    }
  ],
  "bytecode": "0x608060405260006016556658d15e1762800060175566b1a2bc2ec500006018553480156200002c57600080fd5b506040516200615938038062006159833981810160405281019062000052919062000391565b878781600090805190602001906200006c9291906200022a565b508060019080519060200190620000859291906200022a565b505050620000a86200009c6200015c60201b60201c565b6200016460201b60201c565b60016007819055508560089080519060200190620000c89291906200022a565b508460098190555083600a8190555082600b60006101000a81548160ff021916908360ff16021790555081600d60006101000a81548160ff021916908360ff16021790555080600f60006101000a81548173ffffffffffffffffffffffffffffffffffffffff021916908373ffffffffffffffffffffffffffffffffffffffff1602179055505050505050505050620006a8565b600033905090565b6000600660009054906101000a900473ffffffffffffffffffffffffffffffffffffffff16905081600660006101000a81548173ffffffffffffffffffffffffffffffffffffffff021916908373ffffffffffffffffffffffffffffffffffffffff1602179055508173ffffffffffffffffffffffffffffffffffffffff168173ffffffffffffffffffffffffffffffffffffffff167f8be0079c531659141344cd1fd0a4f28419497f9722a3daafe3b4186f6b6457e060405160405180910390a35050565b82805462000238906200057f565b90600052602060002090601f0160209004810192826200025c5760008555620002a8565b82601f106200027757805160ff1916838001178555620002a8565b82800160010185558215620002a8579182015b82811115620002a75782518255916020019190600101906200028a565b5b509050620002b79190620002bb565b5090565b5b80821115620002d6576000816000905550600101620002bc565b5090565b6000620002f1620002eb84620004c8565b6200049f565b9050828152602081018484840111156200030a57600080fd5b6200031784828562000549565b509392505050565b60008151905062000330816200065a565b92915050565b600082601f8301126200034857600080fd5b81516200035a848260208601620002da565b91505092915050565b600081519050620003748162000674565b92915050565b6000815190506200038b816200068e565b92915050565b600080600080600080600080610100898b031215620003af57600080fd5b600089015167ffffffffffffffff811115620003ca57600080fd5b620003d88b828c0162000336565b985050602089015167ffffffffffffffff811115620003f657600080fd5b620004048b828c0162000336565b975050604089015167ffffffffffffffff8111156200042257600080fd5b620004308b828c0162000336565b9650506060620004438b828c0162000363565b9550506080620004568b828c0162000363565b94505060a0620004698b828c016200037a565b93505060c06200047c8b828c016200037a565b92505060e06200048f8b828c016200031f565b9150509295985092959890939650565b6000620004ab620004be565b9050620004b98282620005b5565b919050565b6000604051905090565b600067ffffffffffffffff821115620004e657620004e56200061a565b5b620004f18262000649565b9050602081019050919050565b60006200050b8262000512565b9050919050565b600073ffffffffffffffffffffffffffffffffffffffff82169050919050565b6000819050919050565b600060ff82169050919050565b60005b83811015620005695780820151818401526020810190506200054c565b8381111562000579576000848401525b50505050565b600060028204905060018216806200059857607f821691505b60208210811415620005af57620005ae620005eb565b5b50919050565b620005c08262000649565b810181811067ffffffffffffffff82111715620005e257620005e16200061a565b5b80604052505050565b7f4e487b7100000000000000000000000000000000000000000000000000000000600052602260045260246000fd5b7f4e487b7100000000000000000000000000000000000000000000000000000000600052604160045260246000fd5b6000601f19601f8301169050919050565b6200066581620004fe565b81146200067157600080fd5b50565b6200067f8162000532565b81146200068b57600080fd5b50565b62000699816200053c565b8114620006a557600080fd5b50565b615aa180620006b86000396000f3fe60806040526004361061021a5760003560e01c8063548db1741161012357806395d89b41116100ab578063c87b56dd1161006f578063c87b56dd14610741578063dc9403a61461077e578063df9ffc2d146107a9578063e985e9c5146107e6578063f2fde38b146108235761021a565b806395d89b4114610669578063a035b1fe14610694578063a22cb465146106bf578063b88d4fde146106e8578063c0f98e33146107115761021a565b806370a08231116100f257806370a08231146105aa578063715018a6146105e75780637c0f8aa0146105fe5780637f649783146106155780638da5cb5b1461063e5761021a565b8063548db174146104f05780636352211e146105195780636739f1431461055657806368428a1b1461057f5761021a565b806323b872dd116101a65780633ccfd60b116101755780633ccfd60b1461042f57806342842e0e146104465780634616d4b21461046f5780634dc1dbec1461049a57806353135ca0146104c55761021a565b806323b872dd146103605780632a55205a146103895780632b3f4d92146103c757806337573876146103f25761021a565b8063070f5c09116101ed578063070f5c09146102b5578063081812fc146102cc578063095ea7b3146103095780630c1c972a146103325780630c41f497146103495761021a565b806301ffc9a71461021f57806304c98b2b1461025c57806305e4e88a1461027357806306fdde031461028a575b600080fd5b34801561022b57600080fd5b5061024660048036038101906102419190614043565b61084c565b6040516102539190614846565b60405180910390f35b34801561026857600080fd5b5061027161092e565b005b34801561027f57600080fd5b50610288610ae4565b005b34801561029657600080fd5b5061029f610c9a565b6040516102ac9190614861565b60405180910390f35b3480156102c157600080fd5b506102ca610d2c565b005b3480156102d857600080fd5b506102f360048036038101906102ee9190614095565b610ee1565b6040516103009190614794565b60405180910390f35b34801561031557600080fd5b50610330600480360381019061032b9190613fc6565b610f66565b005b34801561033e57600080fd5b5061034761107e565b005b34801561035557600080fd5b5061035e611234565b005b34801561036c57600080fd5b5061038760048036038101906103829190613ec0565b6113e9565b005b34801561039557600080fd5b506103b060048036038101906103ab9190614116565b611449565b6040516103be9291906147fb565b60405180910390f35b3480156103d357600080fd5b506103dc6114bb565b6040516103e99190614ce3565b60405180910390f35b3480156103fe57600080fd5b5061041960048036038101906104149190613e5b565b6114c1565b6040516104269190614ce3565b60405180910390f35b34801561043b57600080fd5b506104446114d9565b005b34801561045257600080fd5b5061046d60048036038101906104689190613ec0565b611607565b005b34801561047b57600080fd5b50610484611627565b6040516104919190614846565b60405180910390f35b3480156104a657600080fd5b506104af61163a565b6040516104bc9190614ce3565b60405180910390f35b3480156104d157600080fd5b506104da611640565b6040516104e79190614846565b60405180910390f35b3480156104fc57600080fd5b5061051760048036038101906105129190614002565b611653565b005b34801561052557600080fd5b50610540600480360381019061053b9190614095565b611816565b60405161054d9190614794565b60405180910390f35b34801561056257600080fd5b5061057d60048036038101906105789190614002565b6118c8565b005b34801561058b57600080fd5b50610594611a45565b6040516105a19190614846565b60405180910390f35b3480156105b657600080fd5b506105d160048036038101906105cc9190613e5b565b611a58565b6040516105de9190614ce3565b60405180910390f35b3480156105f357600080fd5b506105fc611b10565b005b34801561060a57600080fd5b50610613611b98565b005b34801561062157600080fd5b5061063c60048036038101906106379190614002565b611d4d565b005b34801561064a57600080fd5b50610653611f10565b6040516106609190614794565b60405180910390f35b34801561067557600080fd5b5061067e611f3a565b60405161068b9190614861565b60405180910390f35b3480156106a057600080fd5b506106a9611fcc565b6040516106b69190614ce3565b60405180910390f35b3480156106cb57600080fd5b506106e660048036038101906106e19190613f8a565b612092565b005b3480156106f457600080fd5b5061070f600480360381019061070a9190613f0f565b6120a8565b005b61072b600480360381019061072691906140be565b61210a565b6040516107389190614824565b60405180910390f35b34801561074d57600080fd5b5061076860048036038101906107639190614095565b61243f565b6040516107759190614861565b60405180910390f35b34801561078a57600080fd5b50610793612635565b6040516107a09190614ce3565b60405180910390f35b3480156107b557600080fd5b506107d060048036038101906107cb9190613e5b565b61263b565b6040516107dd9190614ce3565b60405180910390f35b3480156107f257600080fd5b5061080d60048036038101906108089190613e84565b612653565b60405161081a9190614846565b60405180910390f35b34801561082f57600080fd5b5061084a60048036038101906108459190613e5b565b6126e7565b005b60007f80ac58cd000000000000000000000000000000000000000000000000000000007bffffffffffffffffffffffffffffffffffffffffffffffffffffffff1916827bffffffffffffffffffffffffffffffffffffffffffffffffffffffff1916148061091757507f5b5e139f000000000000000000000000000000000000000000000000000000007bffffffffffffffffffffffffffffffffffffffffffffffffffffffff1916827bffffffffffffffffffffffffffffffffffffffffffffffffffffffff1916145b806109275750610926826127df565b5b9050919050565b610936612849565b73ffffffffffffffffffffffffffffffffffffffff16610954611f10565b73ffffffffffffffffffffffffffffffffffffffff16146109aa576040517f08c379a00000000000000000000000000000000000000000000000000000000081526004016109a190614ae3565b60405180910390fd5b601960009054906101000a900460ff16156109fa576040517f08c379a00000000000000000000000000000000000000000000000000000000081526004016109f190614ca3565b60405180910390fd5b601960019054906101000a900460ff1615610a4a576040517f08c379a0000000000000000000000000000000000000000000000000000000008152600401610a4190614a63565b60405180910390fd5b601960029054906101000a900460ff1615610a9a576040517f08c379a0000000000000000000000000000000000000000000000000000000008152600401610a9190614963565b60405180910390fd5b6001601960016101000a81548160ff021916908315150217905550427f0ab3861e918916d082a16babf84acd725febc223f0833c5c03d8b14ec900174360405160405180910390a2565b610aec612849565b73ffffffffffffffffffffffffffffffffffffffff16610b0a611f10565b73ffffffffffffffffffffffffffffffffffffffff1614610b60576040517f08c379a0000000000000000000000000000000000000000000000000000000008152600401610b5790614ae3565b60405180910390fd5b601960009054906101000a900460ff1615610bb0576040517f08c379a0000000000000000000000000000000000000000000000000000000008152600401610ba790614ca3565b60405180910390fd5b601960019054906101000a900460ff1615610c00576040517f08c379a0000000000000000000000000000000000000000000000000000000008152600401610bf790614a63565b60405180910390fd5b601960029054906101000a900460ff1615610c50576040517f08c379a0000000000000000000000000000000000000000000000000000000008152600401610c4790614963565b60405180910390fd5b6001601960006101000a81548160ff021916908315150217905550427fea160f4a1725183ff307b55e355bb04139d56298efc5853e17f99ade82e2f38960405160405180910390a2565b606060008054610ca99061501e565b80601f0160208091040260200160405190810160405280929190818152602001828054610cd59061501e565b8015610d225780601f10610cf757610100808354040283529160200191610d22565b820191906000526020600020905b815481529060010190602001808311610d0557829003601f168201915b5050505050905090565b610d34612849565b73ffffffffffffffffffffffffffffffffffffffff16610d52611f10565b73ffffffffffffffffffffffffffffffffffffffff1614610da8576040517f08c379a0000000000000000000000000000000000000000000000000000000008152600401610d9f90614ae3565b60405180910390fd5b601960009054906101000a900460ff1615610df8576040517f08c379a0000000000000000000000000000000000000000000000000000000008152600401610def90614ca3565b60405180910390fd5b601960029054906101000a900460ff1615610e48576040517f08c379a0000000000000000000000000000000000000000000000000000000008152600401610e3f90614963565b60405180910390fd5b601960019054906101000a900460ff16610e97576040517f08c379a0000000000000000000000000000000000000000000000000000000008152600401610e8e90614c63565b60405180910390fd5b6000601960016101000a81548160ff021916908315150217905550427fbbda50ff3083b4adfffcd3c2e8042a8b354ca16013534ab9367661c5a4cb7b2360405160405180910390a2565b6000610eec82612851565b610f2b576040517f08c379a0000000000000000000000000000000000000000000000000000000008152600401610f2290614a83565b60405180910390fd5b6004600083815260200190815260200160002060009054906101000a900473ffffffffffffffffffffffffffffffffffffffff169050919050565b6000610f7182611816565b90508073ffffffffffffffffffffffffffffffffffffffff168373ffffffffffffffffffffffffffffffffffffffff161415610fe2576040517f08c379a0000000000000000000000000000000000000000000000000000000008152600401610fd990614ba3565b60405180910390fd5b8073ffffffffffffffffffffffffffffffffffffffff16611001612849565b73ffffffffffffffffffffffffffffffffffffffff161480611030575061102f8161102a612849565b612653565b5b61106f576040517f08c379a0000000000000000000000000000000000000000000000000000000008152600401611066906149c3565b60405180910390fd5b61107983836128bd565b505050565b611086612849565b73ffffffffffffffffffffffffffffffffffffffff166110a4611f10565b73ffffffffffffffffffffffffffffffffffffffff16146110fa576040517f08c379a00000000000000000000000000000000000000000000000000000000081526004016110f190614ae3565b60405180910390fd5b601960009054906101000a900460ff161561114a576040517f08c379a000000000000000000000000000000000000000000000000000000000815260040161114190614ca3565b60405180910390fd5b601960019054906101000a900460ff161561119a576040517f08c379a000000000000000000000000000000000000000000000000000000000815260040161119190614a63565b60405180910390fd5b601960029054906101000a900460ff16156111ea576040517f08c379a00000000000000000000000000000000000000000000000000000000081526004016111e190614963565b60405180910390fd5b6001601960026101000a81548160ff021916908315150217905550427feeae71454a2a58ac8d7c3a2ac3db1f29f81cbd0024aae4292a55139dd9d3560a60405160405180910390a2565b61123c612849565b73ffffffffffffffffffffffffffffffffffffffff1661125a611f10565b73ffffffffffffffffffffffffffffffffffffffff16146112b0576040517f08c379a00000000000000000000000000000000000000000000000000000000081526004016112a790614ae3565b60405180910390fd5b601960009054906101000a900460ff1615611300576040517f08c379a00000000000000000000000000000000000000000000000000000000081526004016112f790614ca3565b60405180910390fd5b601960019054906101000a900460ff1615611350576040517f08c379a000000000000000000000000000000000000000000000000000000000815260040161134790614a63565b60405180910390fd5b601960029054906101000a900460ff1661139f576040517f08c379a000000000000000000000000000000000000000000000000000000000815260040161139690614943565b60405180910390fd5b6000601960026101000a81548160ff021916908315150217905550427f4616a0782e5635981b28be1cd36934a60655b462c370d8bd8092c969abc990d060405160405180910390a2565b6113fa6113f4612849565b82612976565b611439576040517f08c379a000000000000000000000000000000000000000000000000000000000815260040161143090614c43565b60405180910390fd5b611444838383612a54565b505050565b60008061145584612851565b611494576040517f08c379a000000000000000000000000000000000000000000000000000000000815260040161148b90614be3565b60405180910390fd5b306127106103e8856114a69190614eda565b6114b09190614ea9565b915091509250929050565b60165481565b600e6020528060005260406000206000915090505481565b6114e1612849565b73ffffffffffffffffffffffffffffffffffffffff166114ff611f10565b73ffffffffffffffffffffffffffffffffffffffff1614611555576040517f08c379a000000000000000000000000000000000000000000000000000000000815260040161154c90614ae3565b60405180910390fd5b47600a54111561159a576040517f08c379a000000000000000000000000000000000000000000000000000000000815260040161159190614bc3565b60405180910390fd5b600f60009054906101000a900473ffffffffffffffffffffffffffffffffffffffff1673ffffffffffffffffffffffffffffffffffffffff166108fc600a549081150290604051600060405180830381858888f19350505050158015611604573d6000803e3d6000fd5b50565b611622838383604051806020016040528060008152506120a8565b505050565b601960009054906101000a900460ff1681565b60185481565b601960019054906101000a900460ff1681565b61165b612849565b73ffffffffffffffffffffffffffffffffffffffff16611679611f10565b73ffffffffffffffffffffffffffffffffffffffff16146116cf576040517f08c379a00000000000000000000000000000000000000000000000000000000081526004016116c690614ae3565b60405180910390fd5b6107d081511115611715576040517f08c379a000000000000000000000000000000000000000000000000000000000815260040161170c906149e3565b60405180910390fd5b60005b81518110156118125761177582828151811061175d577f4e487b7100000000000000000000000000000000000000000000000000000000600052603260045260246000fd5b60200260200101516014612cb090919063ffffffff16565b156117fe578181815181106117b3577f4e487b7100000000000000000000000000000000000000000000000000000000600052603260045260246000fd5b602002602001015173ffffffffffffffffffffffffffffffffffffffff167fcdd2e9b91a56913d370075169cefa1602ba36be5301664f752192bb1709df75760405160405180910390a25b60018161180b9190614e53565b9050611718565b5050565b6000806002600084815260200190815260200160002060009054906101000a900473ffffffffffffffffffffffffffffffffffffffff169050600073ffffffffffffffffffffffffffffffffffffffff168173ffffffffffffffffffffffffffffffffffffffff1614156118bf576040517f08c379a00000000000000000000000000000000000000000000000000000000081526004016118b690614a23565b60405180910390fd5b80915050919050565b6118d0612849565b73ffffffffffffffffffffffffffffffffffffffff166118ee611f10565b73ffffffffffffffffffffffffffffffffffffffff1614611944576040517f08c379a000000000000000000000000000000000000000000000000000000000815260040161193b90614ae3565b60405180910390fd5b60005b8151811015611a41576119a482828151811061198c577f4e487b7100000000000000000000000000000000000000000000000000000000600052603260045260246000fd5b60200260200101516012612ce090919063ffffffff16565b15611a2d578181815181106119e2577f4e487b7100000000000000000000000000000000000000000000000000000000600052603260045260246000fd5b602002602001015173ffffffffffffffffffffffffffffffffffffffff167fffbd2575fe2e4e63d9838a8ecda40fcd0b19fce153bc5d6fe10157c938086af960405160405180910390a25b600181611a3a9190614e53565b9050611947565b5050565b601960029054906101000a900460ff1681565b60008073ffffffffffffffffffffffffffffffffffffffff168273ffffffffffffffffffffffffffffffffffffffff161415611ac9576040517f08c379a0000000000000000000000000000000000000000000000000000000008152600401611ac090614a03565b60405180910390fd5b600360008373ffffffffffffffffffffffffffffffffffffffff1673ffffffffffffffffffffffffffffffffffffffff168152602001908152602001600020549050919050565b611b18612849565b73ffffffffffffffffffffffffffffffffffffffff16611b36611f10565b73ffffffffffffffffffffffffffffffffffffffff1614611b8c576040517f08c379a0000000000000000000000000000000000000000000000000000000008152600401611b8390614ae3565b60405180910390fd5b611b966000612d10565b565b611ba0612849565b73ffffffffffffffffffffffffffffffffffffffff16611bbe611f10565b73ffffffffffffffffffffffffffffffffffffffff1614611c14576040517f08c379a0000000000000000000000000000000000000000000000000000000008152600401611c0b90614ae3565b60405180910390fd5b601960019054906101000a900460ff1615611c64576040517f08c379a0000000000000000000000000000000000000000000000000000000008152600401611c5b90614a63565b60405180910390fd5b601960029054906101000a900460ff1615611cb4576040517f08c379a0000000000000000000000000000000000000000000000000000000008152600401611cab90614963565b60405180910390fd5b601960009054906101000a900460ff16611d03576040517f08c379a0000000000000000000000000000000000000000000000000000000008152600401611cfa90614c23565b60405180910390fd5b6000601960006101000a81548160ff021916908315150217905550427f71fbf9de7004f7d16da327d0c26b8f8b29e6efeaa59d67d1b76d6cc71fe47aae60405160405180910390a2565b611d55612849565b73ffffffffffffffffffffffffffffffffffffffff16611d73611f10565b73ffffffffffffffffffffffffffffffffffffffff1614611dc9576040517f08c379a0000000000000000000000000000000000000000000000000000000008152600401611dc090614ae3565b60405180910390fd5b6107d081511115611e0f576040517f08c379a0000000000000000000000000000000000000000000000000000000008152600401611e06906149e3565b60405180910390fd5b60005b8151811015611f0c57611e6f828281518110611e57577f4e487b7100000000000000000000000000000000000000000000000000000000600052603260045260246000fd5b60200260200101516014612ce090919063ffffffff16565b15611ef857818181518110611ead577f4e487b7100000000000000000000000000000000000000000000000000000000600052603260045260246000fd5b602002602001015173ffffffffffffffffffffffffffffffffffffffff167fa850ae9193f515cbae8d35e8925bd2be26627fc91bce650b8652ed254e9cab0360405160405180910390a25b600181611f059190614e53565b9050611e12565b5050565b6000600660009054906101000a900473ffffffffffffffffffffffffffffffffffffffff16905090565b606060018054611f499061501e565b80601f0160208091040260200160405190810160405280929190818152602001828054611f759061501e565b8015611fc25780601f10611f9757610100808354040283529160200191611fc2565b820191906000526020600020905b815481529060010190602001808311611fa557829003601f168201915b5050505050905090565b6000601960009054906101000a900460ff1680611ff55750601960019054906101000a900460ff165b8061200c5750601960029054906101000a900460ff165b61204b576040517f08c379a000000000000000000000000000000000000000000000000000000000815260040161204290614aa3565b60405180910390fd5b601960009054906101000a900460ff161561206a57601654905061208f565b601960019054906101000a900460ff161561208957601754905061208f565b60185490505b90565b6120a461209d612849565b8383612dd6565b5050565b6120b96120b3612849565b83612976565b6120f8576040517f08c379a00000000000000000000000000000000000000000000000000000000081526004016120ef90614c43565b60405180910390fd5b61210484848484612f43565b50505050565b6060601960009054906101000a900460ff16806121335750601960019054906101000a900460ff165b8061214a5750601960029054906101000a900460ff165b612189576040517f08c379a000000000000000000000000000000000000000000000000000000000815260040161218090614aa3565b60405180910390fd5b600260075414156121cf576040517f08c379a00000000000000000000000000000000000000000000000000000000081526004016121c690614c83565b60405180910390fd5b60026007819055506121e084612f9f565b60008467ffffffffffffffff811115612222577f4e487b7100000000000000000000000000000000000000000000000000000000600052604160045260246000fd5b6040519080825280602002602001820160405280156122505781602001602082028036833780820191505090505b50905060005b8581101561234e576122f53386868481811061229b577f4e487b7100000000000000000000000000000000000000000000000000000000600052603260045260246000fd5b90506020028101906122ad9190614cfe565b8080601f016020809104026020016040519081016040528093929190818152602001838380828437600081840152601f19601f82011690508083019250505050505050613311565b82828151811061232e577f4e487b7100000000000000000000000000000000000000000000000000000000600052603260045260246000fd5b6020026020010181815250506001816123479190614e53565b9050612256565b50601960019054906101000a900460ff16156123bf5784600c60003373ffffffffffffffffffffffffffffffffffffffff1673ffffffffffffffffffffffffffffffffffffffff16815260200190815260200160002060008282546123b39190614e53565b9250508190555061242c565b601960029054906101000a900460ff161561242b5784600e60003373ffffffffffffffffffffffffffffffffffffffff1673ffffffffffffffffffffffffffffffffffffffff16815260200190815260200160002060008282546124239190614e53565b925050819055505b5b8091505060016007819055509392505050565b606061244a82612851565b612489576040517f08c379a000000000000000000000000000000000000000000000000000000000815260040161248090614b43565b60405180910390fd5b60006010600084815260200190815260200160002080546124a99061501e565b80601f01602080910402602001604051908101604052809291908181526020018280546124d59061501e565b80156125225780601f106124f757610100808354040283529160200191612522565b820191906000526020600020905b81548152906001019060200180831161250557829003601f168201915b505050505090506000600880546125389061501e565b80601f01602080910402602001604051908101604052809291908181526020018280546125649061501e565b80156125b15780601f10612586576101008083540402835291602001916125b1565b820191906000526020600020905b81548152906001019060200180831161259457829003601f168201915b505050505090506000815114156125cc578192505050612630565b6000825111156126015780826040516020016125e9929190614770565b60405160208183030381529060405292505050612630565b8061260b85613349565b60405160200161261c929190614770565b604051602081830303815290604052925050505b919050565b60175481565b600c6020528060005260406000206000915090505481565b6000600560008473ffffffffffffffffffffffffffffffffffffffff1673ffffffffffffffffffffffffffffffffffffffff16815260200190815260200160002060008373ffffffffffffffffffffffffffffffffffffffff1673ffffffffffffffffffffffffffffffffffffffff16815260200190815260200160002060009054906101000a900460ff16905092915050565b6126ef612849565b73ffffffffffffffffffffffffffffffffffffffff1661270d611f10565b73ffffffffffffffffffffffffffffffffffffffff1614612763576040517f08c379a000000000000000000000000000000000000000000000000000000000815260040161275a90614ae3565b60405180910390fd5b600073ffffffffffffffffffffffffffffffffffffffff168173ffffffffffffffffffffffffffffffffffffffff1614156127d3576040517f08c379a00000000000000000000000000000000000000000000000000000000081526004016127ca906148c3565b60405180910390fd5b6127dc81612d10565b50565b60007f01ffc9a7000000000000000000000000000000000000000000000000000000007bffffffffffffffffffffffffffffffffffffffffffffffffffffffff1916827bffffffffffffffffffffffffffffffffffffffffffffffffffffffff1916149050919050565b600033905090565b60008073ffffffffffffffffffffffffffffffffffffffff166002600084815260200190815260200160002060009054906101000a900473ffffffffffffffffffffffffffffffffffffffff1673ffffffffffffffffffffffffffffffffffffffff1614159050919050565b816004600083815260200190815260200160002060006101000a81548173ffffffffffffffffffffffffffffffffffffffff021916908373ffffffffffffffffffffffffffffffffffffffff160217905550808273ffffffffffffffffffffffffffffffffffffffff1661293083611816565b73ffffffffffffffffffffffffffffffffffffffff167f8c5be1e5ebec7d5bd14f71427d1e84f3dd0314c0f7b2291e5b200ac8c7c3b92560405160405180910390a45050565b600061298182612851565b6129c0576040517f08c379a00000000000000000000000000000000000000000000000000000000081526004016129b790614983565b60405180910390fd5b60006129cb83611816565b90508073ffffffffffffffffffffffffffffffffffffffff168473ffffffffffffffffffffffffffffffffffffffff161480612a3a57508373ffffffffffffffffffffffffffffffffffffffff16612a2284610ee1565b73ffffffffffffffffffffffffffffffffffffffff16145b80612a4b5750612a4a8185612653565b5b91505092915050565b8273ffffffffffffffffffffffffffffffffffffffff16612a7482611816565b73ffffffffffffffffffffffffffffffffffffffff1614612aca576040517f08c379a0000000000000000000000000000000000000000000000000000000008152600401612ac190614b03565b60405180910390fd5b600073ffffffffffffffffffffffffffffffffffffffff168273ffffffffffffffffffffffffffffffffffffffff161415612b3a576040517f08c379a0000000000000000000000000000000000000000000000000000000008152600401612b3190614903565b60405180910390fd5b612b458383836134f6565b612b506000826128bd565b6001600360008573ffffffffffffffffffffffffffffffffffffffff1673ffffffffffffffffffffffffffffffffffffffff1681526020019081526020016000206000828254612ba09190614f34565b925050819055506001600360008473ffffffffffffffffffffffffffffffffffffffff1673ffffffffffffffffffffffffffffffffffffffff1681526020019081526020016000206000828254612bf79190614e53565b92505081905550816002600083815260200190815260200160002060006101000a81548173ffffffffffffffffffffffffffffffffffffffff021916908373ffffffffffffffffffffffffffffffffffffffff160217905550808273ffffffffffffffffffffffffffffffffffffffff168473ffffffffffffffffffffffffffffffffffffffff167fddf252ad1be2c89b69c2b068fc378daa952ba7f163c4a11628f55a4df523b3ef60405160405180910390a4505050565b6000612cd8836000018373ffffffffffffffffffffffffffffffffffffffff1660001b6134fb565b905092915050565b6000612d08836000018373ffffffffffffffffffffffffffffffffffffffff1660001b613681565b905092915050565b6000600660009054906101000a900473ffffffffffffffffffffffffffffffffffffffff16905081600660006101000a81548173ffffffffffffffffffffffffffffffffffffffff021916908373ffffffffffffffffffffffffffffffffffffffff1602179055508173ffffffffffffffffffffffffffffffffffffffff168173ffffffffffffffffffffffffffffffffffffffff167f8be0079c531659141344cd1fd0a4f28419497f9722a3daafe3b4186f6b6457e060405160405180910390a35050565b8173ffffffffffffffffffffffffffffffffffffffff168373ffffffffffffffffffffffffffffffffffffffff161415612e45576040517f08c379a0000000000000000000000000000000000000000000000000000000008152600401612e3c90614923565b60405180910390fd5b80600560008573ffffffffffffffffffffffffffffffffffffffff1673ffffffffffffffffffffffffffffffffffffffff16815260200190815260200160002060008473ffffffffffffffffffffffffffffffffffffffff1673ffffffffffffffffffffffffffffffffffffffff16815260200190815260200160002060006101000a81548160ff0219169083151502179055508173ffffffffffffffffffffffffffffffffffffffff168373ffffffffffffffffffffffffffffffffffffffff167f17307eab39ab6107e8899845ad3d59bd9653f200f220920489ca2b5937696c3183604051612f369190614846565b60405180910390a3505050565b612f4e848484612a54565b612f5a848484846136f1565b612f99576040517f08c379a0000000000000000000000000000000000000000000000000000000008152600401612f90906148a3565b60405180910390fd5b50505050565b600073ffffffffffffffffffffffffffffffffffffffff163373ffffffffffffffffffffffffffffffffffffffff161415612fd957600080fd5b600954612fe66011613888565b1115613027576040517f08c379a000000000000000000000000000000000000000000000000000000000815260040161301e90614cc3565b60405180910390fd5b6000811161306a576040517f08c379a000000000000000000000000000000000000000000000000000000000815260040161306190614b83565b60405180910390fd5b601960009054906101000a900460ff16156130cc5761308833613896565b6130c7576040517f08c379a00000000000000000000000000000000000000000000000000000000081526004016130be90614b23565b60405180910390fd5b61330e565b601960019054906101000a900460ff161561321d576130ea336138b3565b613129576040517f08c379a000000000000000000000000000000000000000000000000000000000815260040161312090614883565b60405180910390fd5b600b60009054906101000a900460ff1660ff16600c60003373ffffffffffffffffffffffffffffffffffffffff1673ffffffffffffffffffffffffffffffffffffffff16815260200190815260200160002054826131879190614e53565b11156131c8576040517f08c379a00000000000000000000000000000000000000000000000000000000081526004016131bf90614c03565b60405180910390fd5b34816017546131d79190614eda565b1115613218576040517f08c379a000000000000000000000000000000000000000000000000000000000815260040161320f906149a3565b60405180910390fd5b61330d565b600d60009054906101000a900460ff1660ff16600e60003373ffffffffffffffffffffffffffffffffffffffff1673ffffffffffffffffffffffffffffffffffffffff168152602001908152602001600020548261327b9190614e53565b11156132bc576040517f08c379a00000000000000000000000000000000000000000000000000000000081526004016132b390614b63565b60405180910390fd5b34816018546132cb9190614eda565b111561330c576040517f08c379a0000000000000000000000000000000000000000000000000000000008152600401613303906149a3565b60405180910390fd5b5b5b50565b600061331d60116138d0565b60006133296011613888565b905061333584826138e6565b61333f8184613904565b8091505092915050565b60606000821415613391576040518060400160405280600181526020017f300000000000000000000000000000000000000000000000000000000000000081525090506134f1565b600082905060005b600082146133c35780806133ac90615081565b915050600a826133bc9190614ea9565b9150613399565b60008167ffffffffffffffff811115613405577f4e487b7100000000000000000000000000000000000000000000000000000000600052604160045260246000fd5b6040519080825280601f01601f1916602001820160405280156134375781602001600182028036833780820191505090505b5090505b600085146134ea576001826134509190614f34565b9150600a8561345f91906150ca565b603061346b9190614e53565b60f81b8183815181106134a7577f4e487b7100000000000000000000000000000000000000000000000000000000600052603260045260246000fd5b60200101907effffffffffffffffffffffffffffffffffffffffffffffffffffffffffffff1916908160001a905350600a856134e39190614ea9565b945061343b565b8093505050505b919050565b505050565b6000808360010160008481526020019081526020016000205490506000811461367557600060018261352d9190614f34565b90506000600186600001805490506135459190614f34565b905081811461360057600086600001828154811061358c577f4e487b7100000000000000000000000000000000000000000000000000000000600052603260045260246000fd5b90600052602060002001549050808760000184815481106135d6577f4e487b7100000000000000000000000000000000000000000000000000000000600052603260045260246000fd5b90600052602060002001819055508387600101600083815260200190815260200160002081905550505b8560000180548061363a577f4e487b7100000000000000000000000000000000000000000000000000000000600052603160045260246000fd5b60019003818190600052602060002001600090559055856001016000868152602001908152602001600020600090556001935050505061367b565b60009150505b92915050565b600061368d8383613978565b6136e65782600001829080600181540180825580915050600190039060005260206000200160009091909190915055826000018054905083600101600084815260200190815260200160002081905550600190506136eb565b600090505b92915050565b60006137128473ffffffffffffffffffffffffffffffffffffffff1661399b565b1561387b578373ffffffffffffffffffffffffffffffffffffffff1663150b7a0261373b612849565b8786866040518563ffffffff1660e01b815260040161375d94939291906147af565b602060405180830381600087803b15801561377757600080fd5b505af19250505080156137a857506040513d601f19601f820116820180604052508101906137a5919061406c565b60015b61382b573d80600081146137d8576040519150601f19603f3d011682016040523d82523d6000602084013e6137dd565b606091505b50600081511415613823576040517f08c379a000000000000000000000000000000000000000000000000000000000815260040161381a906148a3565b60405180910390fd5b805181602001fd5b63150b7a0260e01b7bffffffffffffffffffffffffffffffffffffffffffffffffffffffff1916817bffffffffffffffffffffffffffffffffffffffffffffffffffffffff191614915050613880565b600190505b949350505050565b600081600001549050919050565b60006138ac8260126139ae90919063ffffffff16565b9050919050565b60006138c98260146139ae90919063ffffffff16565b9050919050565b6001816000016000828254019250508190555050565b6139008282604051806020016040528060008152506139de565b5050565b61390d82612851565b61394c576040517f08c379a000000000000000000000000000000000000000000000000000000000815260040161394390614ac3565b60405180910390fd5b80601060008481526020019081526020016000209080519060200190613973929190613c07565b505050565b600080836001016000848152602001908152602001600020541415905092915050565b600080823b905060008111915050919050565b60006139d6836000018373ffffffffffffffffffffffffffffffffffffffff1660001b613978565b905092915050565b6139e88383613a39565b6139f560008484846136f1565b613a34576040517f08c379a0000000000000000000000000000000000000000000000000000000008152600401613a2b906148a3565b60405180910390fd5b505050565b600073ffffffffffffffffffffffffffffffffffffffff168273ffffffffffffffffffffffffffffffffffffffff161415613aa9576040517f08c379a0000000000000000000000000000000000000000000000000000000008152600401613aa090614a43565b60405180910390fd5b613ab281612851565b15613af2576040517f08c379a0000000000000000000000000000000000000000000000000000000008152600401613ae9906148e3565b60405180910390fd5b613afe600083836134f6565b6001600360008473ffffffffffffffffffffffffffffffffffffffff1673ffffffffffffffffffffffffffffffffffffffff1681526020019081526020016000206000828254613b4e9190614e53565b92505081905550816002600083815260200190815260200160002060006101000a81548173ffffffffffffffffffffffffffffffffffffffff021916908373ffffffffffffffffffffffffffffffffffffffff160217905550808273ffffffffffffffffffffffffffffffffffffffff16600073ffffffffffffffffffffffffffffffffffffffff167fddf252ad1be2c89b69c2b068fc378daa952ba7f163c4a11628f55a4df523b3ef60405160405180910390a45050565b828054613c139061501e565b90600052602060002090601f016020900481019282613c355760008555613c7c565b82601f10613c4e57805160ff1916838001178555613c7c565b82800160010185558215613c7c579182015b82811115613c7b578251825591602001919060010190613c60565b5b509050613c899190613c8d565b5090565b5b80821115613ca6576000816000905550600101613c8e565b5090565b6000613cbd613cb884614d7a565b614d55565b90508083825260208201905082856020860282011115613cdc57600080fd5b60005b85811015613d0c5781613cf28882613d54565b845260208401935060208301925050600181019050613cdf565b5050509392505050565b6000613d29613d2484614da6565b614d55565b905082815260208101848484011115613d4157600080fd5b613d4c848285614fdc565b509392505050565b600081359050613d6381615a0f565b92915050565b600082601f830112613d7a57600080fd5b8135613d8a848260208601613caa565b91505092915050565b60008083601f840112613da557600080fd5b8235905067ffffffffffffffff811115613dbe57600080fd5b602083019150836020820283011115613dd657600080fd5b9250929050565b600081359050613dec81615a26565b92915050565b600081359050613e0181615a3d565b92915050565b600081519050613e1681615a3d565b92915050565b600082601f830112613e2d57600080fd5b8135613e3d848260208601613d16565b91505092915050565b600081359050613e5581615a54565b92915050565b600060208284031215613e6d57600080fd5b6000613e7b84828501613d54565b91505092915050565b60008060408385031215613e9757600080fd5b6000613ea585828601613d54565b9250506020613eb685828601613d54565b9150509250929050565b600080600060608486031215613ed557600080fd5b6000613ee386828701613d54565b9350506020613ef486828701613d54565b9250506040613f0586828701613e46565b9150509250925092565b60008060008060808587031215613f2557600080fd5b6000613f3387828801613d54565b9450506020613f4487828801613d54565b9350506040613f5587828801613e46565b925050606085013567ffffffffffffffff811115613f7257600080fd5b613f7e87828801613e1c565b91505092959194509250565b60008060408385031215613f9d57600080fd5b6000613fab85828601613d54565b9250506020613fbc85828601613ddd565b9150509250929050565b60008060408385031215613fd957600080fd5b6000613fe785828601613d54565b9250506020613ff885828601613e46565b9150509250929050565b60006020828403121561401457600080fd5b600082013567ffffffffffffffff81111561402e57600080fd5b61403a84828501613d69565b91505092915050565b60006020828403121561405557600080fd5b600061406384828501613df2565b91505092915050565b60006020828403121561407e57600080fd5b600061408c84828501613e07565b91505092915050565b6000602082840312156140a757600080fd5b60006140b584828501613e46565b91505092915050565b6000806000604084860312156140d357600080fd5b60006140e186828701613e46565b935050602084013567ffffffffffffffff8111156140fe57600080fd5b61410a86828701613d93565b92509250509250925092565b6000806040838503121561412957600080fd5b600061413785828601613e46565b925050602061414885828601613e46565b9150509250929050565b600061415e8383614752565b60208301905092915050565b61417381614f68565b82525050565b600061418482614de7565b61418e8185614e15565b935061419983614dd7565b8060005b838110156141ca5781516141b18882614152565b97506141bc83614e08565b92505060018101905061419d565b5085935050505092915050565b6141e081614f7a565b82525050565b60006141f182614df2565b6141fb8185614e26565b935061420b818560208601614feb565b614214816151b7565b840191505092915050565b600061422a82614dfd565b6142348185614e37565b9350614244818560208601614feb565b61424d816151b7565b840191505092915050565b600061426382614dfd565b61426d8185614e48565b935061427d818560208601614feb565b80840191505092915050565b6000614296602b83614e37565b91506142a1826151c8565b604082019050919050565b60006142b9603283614e37565b91506142c482615217565b604082019050919050565b60006142dc602683614e37565b91506142e782615266565b604082019050919050565b60006142ff601c83614e37565b915061430a826152b5565b602082019050919050565b6000614322602483614e37565b915061432d826152de565b604082019050919050565b6000614345601983614e37565b91506143508261532d565b602082019050919050565b6000614368601283614e37565b915061437382615356565b602082019050919050565b600061438b601283614e37565b91506143968261537f565b602082019050919050565b60006143ae602c83614e37565b91506143b9826153a8565b604082019050919050565b60006143d1601283614e37565b91506143dc826153f7565b602082019050919050565b60006143f4603883614e37565b91506143ff82615420565b604082019050919050565b6000614417601c83614e37565b91506144228261546f565b602082019050919050565b600061443a602a83614e37565b915061444582615498565b604082019050919050565b600061445d602983614e37565b9150614468826154e7565b604082019050919050565b6000614480602083614e37565b915061448b82615536565b602082019050919050565b60006144a3601583614e37565b91506144ae8261555f565b602082019050919050565b60006144c6602c83614e37565b91506144d182615588565b604082019050919050565b60006144e9602583614e37565b91506144f4826155d7565b604082019050919050565b600061450c602c83614e37565b915061451782615626565b604082019050919050565b600061452f602083614e37565b915061453a82615675565b602082019050919050565b6000614552602983614e37565b915061455d8261569e565b604082019050919050565b6000614575602b83614e37565b9150614580826156ed565b604082019050919050565b6000614598602f83614e37565b91506145a38261573c565b604082019050919050565b60006145bb601f83614e37565b91506145c68261578b565b602082019050919050565b60006145de601c83614e37565b91506145e9826157b4565b602082019050919050565b6000614601602183614e37565b915061460c826157dd565b604082019050919050565b6000614624601b83614e37565b915061462f8261582c565b602082019050919050565b6000614647602583614e37565b915061465282615855565b604082019050919050565b600061466a602183614e37565b9150614675826158a4565b604082019050919050565b600061468d601383614e37565b9150614698826158f3565b602082019050919050565b60006146b0603183614e37565b91506146bb8261591c565b604082019050919050565b60006146d3601583614e37565b91506146de8261596b565b602082019050919050565b60006146f6601f83614e37565b915061470182615994565b602082019050919050565b6000614719601383614e37565b9150614724826159bd565b602082019050919050565b600061473c600f83614e37565b9150614747826159e6565b602082019050919050565b61475b81614fd2565b82525050565b61476a81614fd2565b82525050565b600061477c8285614258565b91506147888284614258565b91508190509392505050565b60006020820190506147a9600083018461416a565b92915050565b60006080820190506147c4600083018761416a565b6147d1602083018661416a565b6147de6040830185614761565b81810360608301526147f081846141e6565b905095945050505050565b6000604082019050614810600083018561416a565b61481d6020830184614761565b9392505050565b6000602082019050818103600083015261483e8184614179565b905092915050565b600060208201905061485b60008301846141d7565b92915050565b6000602082019050818103600083015261487b818461421f565b905092915050565b6000602082019050818103600083015261489c81614289565b9050919050565b600060208201905081810360008301526148bc816142ac565b9050919050565b600060208201905081810360008301526148dc816142cf565b9050919050565b600060208201905081810360008301526148fc816142f2565b9050919050565b6000602082019050818103600083015261491c81614315565b9050919050565b6000602082019050818103600083015261493c81614338565b9050919050565b6000602082019050818103600083015261495c8161435b565b9050919050565b6000602082019050818103600083015261497c8161437e565b9050919050565b6000602082019050818103600083015261499c816143a1565b9050919050565b600060208201905081810360008301526149bc816143c4565b9050919050565b600060208201905081810360008301526149dc816143e7565b9050919050565b600060208201905081810360008301526149fc8161440a565b9050919050565b60006020820190508181036000830152614a1c8161442d565b9050919050565b60006020820190508181036000830152614a3c81614450565b9050919050565b60006020820190508181036000830152614a5c81614473565b9050919050565b60006020820190508181036000830152614a7c81614496565b9050919050565b60006020820190508181036000830152614a9c816144b9565b9050919050565b60006020820190508181036000830152614abc816144dc565b9050919050565b60006020820190508181036000830152614adc816144ff565b9050919050565b60006020820190508181036000830152614afc81614522565b9050919050565b60006020820190508181036000830152614b1c81614545565b9050919050565b60006020820190508181036000830152614b3c81614568565b9050919050565b60006020820190508181036000830152614b5c8161458b565b9050919050565b60006020820190508181036000830152614b7c816145ae565b9050919050565b60006020820190508181036000830152614b9c816145d1565b9050919050565b60006020820190508181036000830152614bbc816145f4565b9050919050565b60006020820190508181036000830152614bdc81614617565b9050919050565b60006020820190508181036000830152614bfc8161463a565b9050919050565b60006020820190508181036000830152614c1c8161465d565b9050919050565b60006020820190508181036000830152614c3c81614680565b9050919050565b60006020820190508181036000830152614c5c816146a3565b9050919050565b60006020820190508181036000830152614c7c816146c6565b9050919050565b60006020820190508181036000830152614c9c816146e9565b9050919050565b60006020820190508181036000830152614cbc8161470c565b9050919050565b60006020820190508181036000830152614cdc8161472f565b9050919050565b6000602082019050614cf86000830184614761565b92915050565b60008083356001602003843603038112614d1757600080fd5b80840192508235915067ffffffffffffffff821115614d3557600080fd5b602083019250600182023603831315614d4d57600080fd5b509250929050565b6000614d5f614d70565b9050614d6b8282615050565b919050565b6000604051905090565b600067ffffffffffffffff821115614d9557614d94615188565b5b602082029050602081019050919050565b600067ffffffffffffffff821115614dc157614dc0615188565b5b614dca826151b7565b9050602081019050919050565b6000819050602082019050919050565b600081519050919050565b600081519050919050565b600081519050919050565b6000602082019050919050565b600082825260208201905092915050565b600082825260208201905092915050565b600082825260208201905092915050565b600081905092915050565b6000614e5e82614fd2565b9150614e6983614fd2565b9250827fffffffffffffffffffffffffffffffffffffffffffffffffffffffffffffffff03821115614e9e57614e9d6150fb565b5b828201905092915050565b6000614eb482614fd2565b9150614ebf83614fd2565b925082614ecf57614ece61512a565b5b828204905092915050565b6000614ee582614fd2565b9150614ef083614fd2565b9250817fffffffffffffffffffffffffffffffffffffffffffffffffffffffffffffffff0483118215151615614f2957614f286150fb565b5b828202905092915050565b6000614f3f82614fd2565b9150614f4a83614fd2565b925082821015614f5d57614f5c6150fb565b5b828203905092915050565b6000614f7382614fb2565b9050919050565b60008115159050919050565b60007fffffffff0000000000000000000000000000000000000000000000000000000082169050919050565b600073ffffffffffffffffffffffffffffffffffffffff82169050919050565b6000819050919050565b82818337600083830152505050565b60005b83811015615009578082015181840152602081019050614fee565b83811115615018576000848401525b50505050565b6000600282049050600182168061503657607f821691505b6020821081141561504a57615049615159565b5b50919050565b615059826151b7565b810181811067ffffffffffffffff8211171561507857615077615188565b5b80604052505050565b600061508c82614fd2565b91507fffffffffffffffffffffffffffffffffffffffffffffffffffffffffffffffff8214156150bf576150be6150fb565b5b600182019050919050565b60006150d582614fd2565b91506150e083614fd2565b9250826150f0576150ef61512a565b5b828206905092915050565b7f4e487b7100000000000000000000000000000000000000000000000000000000600052601160045260246000fd5b7f4e487b7100000000000000000000000000000000000000000000000000000000600052601260045260246000fd5b7f4e487b7100000000000000000000000000000000000000000000000000000000600052602260045260246000fd5b7f4e487b7100000000000000000000000000000000000000000000000000000000600052604160045260246000fd5b6000601f19601f8301169050919050565b7f576527726520736f7272792c20796f757220616464726573732069736e27742060008201527f77686974656c6973746564000000000000000000000000000000000000000000602082015250565b7f4552433732313a207472616e7366657220746f206e6f6e20455243373231526560008201527f63656976657220696d706c656d656e7465720000000000000000000000000000602082015250565b7f4f776e61626c653a206e6577206f776e657220697320746865207a65726f206160008201527f6464726573730000000000000000000000000000000000000000000000000000602082015250565b7f4552433732313a20746f6b656e20616c7265616479206d696e74656400000000600082015250565b7f4552433732313a207472616e7366657220746f20746865207a65726f2061646460008201527f7265737300000000000000000000000000000000000000000000000000000000602082015250565b7f4552433732313a20617070726f766520746f2063616c6c657200000000000000600082015250565b7f53616c65206973206e6f74206163746976650000000000000000000000000000600082015250565b7f53616c65206973206e6f74207061757365640000000000000000000000000000600082015250565b7f4552433732313a206f70657261746f7220717565727920666f72206e6f6e657860008201527f697374656e7420746f6b656e0000000000000000000000000000000000000000602082015250565b7f496e73756666696369656e742066756e64730000000000000000000000000000600082015250565b7f4552433732313a20617070726f76652063616c6c6572206973206e6f74206f7760008201527f6e6572206e6f7220617070726f76656420666f7220616c6c0000000000000000602082015250565b7f57686974656c6973742063616e6e6f7420657863656564203230303000000000600082015250565b7f4552433732313a2062616c616e636520717565727920666f7220746865207a6560008201527f726f206164647265737300000000000000000000000000000000000000000000602082015250565b7f4552433732313a206f776e657220717565727920666f72206e6f6e657869737460008201527f656e7420746f6b656e0000000000000000000000000000000000000000000000602082015250565b7f4552433732313a206d696e7420746f20746865207a65726f2061646472657373600082015250565b7f50726573616c65206973206e6f74207061757365640000000000000000000000600082015250565b7f4552433732313a20617070726f76656420717565727920666f72206e6f6e657860008201527f697374656e7420746f6b656e0000000000000000000000000000000000000000602082015250565b7f546865726520617265206e6f2073616c65732061742074686973207465726d6960008201527f6e61746564000000000000000000000000000000000000000000000000000000602082015250565b7f4552433732314d657461646174613a2055524920736574206f66206e6f6e657860008201527f697374656e7420746f6b656e0000000000000000000000000000000000000000602082015250565b7f4f776e61626c653a2063616c6c6572206973206e6f7420746865206f776e6572600082015250565b7f4552433732313a207472616e73666572206f6620746f6b656e2074686174206960008201527f73206e6f74206f776e0000000000000000000000000000000000000000000000602082015250565b7f576527726520736f7272792c20796f7520617265206e6f74206120676976656160008201527f7761792061646472657373000000000000000000000000000000000000000000602082015250565b7f4552433732314d657461646174613a2055524920717565727920666f72206e6f60008201527f6e6578697374656e7420746f6b656e0000000000000000000000000000000000602082015250565b7f43616e6e6f74206d696e74206d6f7265207468616e20323520746f6b656e7300600082015250565b7f4d757374206d696e74206174206c65617374206f6e6520746f6b656e00000000600082015250565b7f4552433732313a20617070726f76616c20746f2063757272656e74206f776e6560008201527f7200000000000000000000000000000000000000000000000000000000000000602082015250565b7f42616c616e6365206973206c657373207468616e202e31206574680000000000600082015250565b7f4e6f6e6578697374656e7420746f6b656e20666f7220726f79616c747920706160008201527f796d656e74000000000000000000000000000000000000000000000000000000602082015250565b7f50726573616c652c206c696d6974656420616d6f756e74206f6620746f6b656e60008201527f7300000000000000000000000000000000000000000000000000000000000000602082015250565b7f4769766561776179206e6f742061637469766500000000000000000000000000600082015250565b7f4552433732313a207472616e736665722063616c6c6572206973206e6f74206f60008201527f776e6572206e6f7220617070726f766564000000000000000000000000000000602082015250565b7f50726573616c65206973206e6f74206163746976650000000000000000000000600082015250565b7f5265656e7472616e637947756172643a207265656e7472616e742063616c6c00600082015250565b7f4769766561776179206e6f742070617573656400000000000000000000000000600082015250565b7f4e6f20746f6b656e73206c656674210000000000000000000000000000000000600082015250565b615a1881614f68565b8114615a2357600080fd5b50565b615a2f81614f7a565b8114615a3a57600080fd5b50565b615a4681614f86565b8114615a5157600080fd5b50565b615a5d81614fd2565b8114615a6857600080fd5b5056fea2646970667358221220e1d8ecae9f0db8ece026e7b759e34ffcf165cf8d630f99bde516d9374ef181c664736f6c63430008040033",
  "linkReferences": {},
  "deployedLinkReferences": {}
}