{
  "_format": "hh-sol-artifact-1",
  "contractName": "Turtleverse",
  "sourceName": "contracts/Turtleverse.sol",
  "abi": [
    {
      "inputs": [
        {
          "internalType": "string",
          "name": "name_",
          "type": "string"
        },
        {
          "internalType": "string",
          "name": "symbol_",
          "type": "string"
        },
        {
          "internalType": "string",
          "name": "baseURI_",
          "type": "string"
        },
        {
          "internalType": "uint256",
          "name": "maxSupply_",
          "type": "uint256"
        },
        {
          "internalType": "uint256",
          "name": "maxWithdrawal_",
          "type": "uint256"
        },
        {
          "internalType": "uint8",
          "name": "presaleLimit_",
          "type": "uint8"
        },
        {
          "internalType": "uint8",
          "name": "saleLimit_",
          "type": "uint8"
        },
        {
          "internalType": "address payable",
          "name": "payout_",
          "type": "address"
        }
      ],
      "stateMutability": "nonpayable",
      "type": "constructor"
    },
    {
      "anonymous": false,
      "inputs": [
        {
          "indexed": true,
          "internalType": "address",
          "name": "_address",
          "type": "address"
        }
      ],
      "name": "AddedToWhitelist",
      "type": "event"
    },
    {
      "anonymous": false,
      "inputs": [
        {
          "indexed": true,
          "internalType": "address",
          "name": "owner",
          "type": "address"
        },
        {
          "indexed": true,
          "internalType": "address",
          "name": "approved",
          "type": "address"
        },
        {
          "indexed": true,
          "internalType": "uint256",
          "name": "tokenId",
          "type": "uint256"
        }
      ],
      "name": "Approval",
      "type": "event"
    },
    {
      "anonymous": false,
      "inputs": [
        {
          "indexed": true,
          "internalType": "address",
          "name": "owner",
          "type": "address"
        },
        {
          "indexed": true,
          "internalType": "address",
          "name": "operator",
          "type": "address"
        },
        {
          "indexed": false,
          "internalType": "bool",
          "name": "approved",
          "type": "bool"
        }
      ],
      "name": "ApprovalForAll",
      "type": "event"
    },
    {
      "anonymous": false,
      "inputs": [
        {
          "indexed": true,
          "internalType": "uint256",
          "name": "_giveawayStopTime",
          "type": "uint256"
        }
      ],
      "name": "GiveawayPaused",
      "type": "event"
    },
    {
      "anonymous": false,
      "inputs": [
        {
          "indexed": true,
          "internalType": "uint256",
          "name": "_giveawayStartTime",
          "type": "uint256"
        }
      ],
      "name": "GiveawayStart",
      "type": "event"
    },
    {
      "anonymous": false,
      "inputs": [
        {
          "indexed": true,
          "internalType": "address",
          "name": "previousOwner",
          "type": "address"
        },
        {
          "indexed": true,
          "internalType": "address",
          "name": "newOwner",
          "type": "address"
        }
      ],
      "name": "OwnershipTransferred",
      "type": "event"
    },
    {
      "anonymous": false,
      "inputs": [
        {
          "indexed": true,
          "internalType": "uint256",
          "name": "_presaleStopTime",
          "type": "uint256"
        }
      ],
      "name": "PresalePaused",
      "type": "event"
    },
    {
      "anonymous": false,
      "inputs": [
        {
          "indexed": true,
          "internalType": "uint256",
          "name": "_presaleStartTime",
          "type": "uint256"
        }
      ],
      "name": "PresaleStart",
      "type": "event"
    },
    {
      "anonymous": false,
      "inputs": [
        {
          "indexed": true,
          "internalType": "address",
          "name": "_address",
          "type": "address"
        }
      ],
      "name": "RemovedFromWhitelist",
      "type": "event"
    },
    {
      "anonymous": false,
      "inputs": [
        {
          "indexed": true,
          "internalType": "uint256",
          "name": "_saleStopTime",
          "type": "uint256"
        }
      ],
      "name": "SalePaused",
      "type": "event"
    },
    {
      "anonymous": false,
      "inputs": [
        {
          "indexed": true,
          "internalType": "uint256",
          "name": "_saleStartTime",
          "type": "uint256"
        }
      ],
      "name": "SaleStart",
      "type": "event"
    },
    {
      "anonymous": false,
      "inputs": [
        {
          "indexed": true,
          "internalType": "address",
          "name": "from",
          "type": "address"
        },
        {
          "indexed": true,
          "internalType": "address",
          "name": "to",
          "type": "address"
        },
        {
          "indexed": true,
          "internalType": "uint256",
          "name": "tokenId",
          "type": "uint256"
        }
      ],
      "name": "Transfer",
      "type": "event"
    },
    {
      "inputs": [
        {
          "internalType": "address[]",
          "name": "addresses",
          "type": "address[]"
        }
      ],
      "name": "addToWhitelist",
      "outputs": [],
      "stateMutability": "nonpayable",
      "type": "function"
    },
    {
      "inputs": [
        {
          "internalType": "address",
          "name": "to",
          "type": "address"
        },
        {
          "internalType": "uint256",
          "name": "tokenId",
          "type": "uint256"
        }
      ],
      "name": "approve",
      "outputs": [],
      "stateMutability": "nonpayable",
      "type": "function"
    },
    {
      "inputs": [
        {
          "internalType": "address",
          "name": "owner",
          "type": "address"
        }
      ],
      "name": "balanceOf",
      "outputs": [
        {
          "internalType": "uint256",
          "name": "",
          "type": "uint256"
        }
      ],
      "stateMutability": "view",
      "type": "function"
    },
    {
      "inputs": [
        {
          "internalType": "uint256",
          "name": "tokenId",
          "type": "uint256"
        }
      ],
      "name": "getApproved",
      "outputs": [
        {
          "internalType": "address",
          "name": "",
          "type": "address"
        }
      ],
      "stateMutability": "view",
      "type": "function"
    },
    {
      "inputs": [],
      "name": "giveawayActive",
      "outputs": [
        {
          "internalType": "bool",
          "name": "",
          "type": "bool"
        }
      ],
      "stateMutability": "view",
      "type": "function"
    },
    {
      "inputs": [],
      "name": "giveawayPriceToMint",
      "outputs": [
        {
          "internalType": "uint256",
          "name": "",
          "type": "uint256"
        }
      ],
      "stateMutability": "view",
      "type": "function"
    },
    {
      "inputs": [
        {
          "internalType": "address",
          "name": "owner",
          "type": "address"
        },
        {
          "internalType": "address",
          "name": "operator",
          "type": "address"
        }
      ],
      "name": "isApprovedForAll",
      "outputs": [
        {
          "internalType": "bool",
          "name": "",
          "type": "bool"
        }
      ],
      "stateMutability": "view",
      "type": "function"
    },
    {
      "inputs": [
        {
          "internalType": "uint256",
          "name": "tokensAmount",
          "type": "uint256"
        },
        {
          "internalType": "string[]",
          "name": "tokenHashes",
          "type": "string[]"
        }
      ],
      "name": "mintTokens",
      "outputs": [
        {
          "internalType": "uint256[]",
          "name": "",
          "type": "uint256[]"
        }
      ],
      "stateMutability": "payable",
      "type": "function"
    },
    {
      "inputs": [],
      "name": "name",
      "outputs": [
        {
          "internalType": "string",
          "name": "",
          "type": "string"
        }
      ],
      "stateMutability": "view",
      "type": "function"
    },
    {
      "inputs": [],
      "name": "owner",
      "outputs": [
        {
          "internalType": "address",
          "name": "",
          "type": "address"
        }
      ],
      "stateMutability": "view",
      "type": "function"
    },
    {
      "inputs": [
        {
          "internalType": "uint256",
          "name": "tokenId",
          "type": "uint256"
        }
      ],
      "name": "ownerOf",
      "outputs": [
        {
          "internalType": "address",
          "name": "",
          "type": "address"
        }
      ],
      "stateMutability": "view",
      "type": "function"
    },
    {
      "inputs": [],
      "name": "pauseGiveaway",
      "outputs": [],
      "stateMutability": "nonpayable",
      "type": "function"
    },
    {
      "inputs": [],
      "name": "pausePresale",
      "outputs": [],
      "stateMutability": "nonpayable",
      "type": "function"
    },
    {
      "inputs": [],
      "name": "pausePublicSale",
      "outputs": [],
      "stateMutability": "nonpayable",
      "type": "function"
    },
    {
      "inputs": [],
      "name": "presaleActive",
      "outputs": [
        {
          "internalType": "bool",
          "name": "",
          "type": "bool"
        }
      ],
      "stateMutability": "view",
      "type": "function"
    },
    {
      "inputs": [],
      "name": "presalePriceToMint",
      "outputs": [
        {
          "internalType": "uint256",
          "name": "",
          "type": "uint256"
        }
      ],
      "stateMutability": "view",
      "type": "function"
    },
    {
      "inputs": [
        {
          "internalType": "address",
          "name": "",
          "type": "address"
        }
      ],
      "name": "presalePurchasedAmount",
      "outputs": [
        {
          "internalType": "uint256",
          "name": "",
          "type": "uint256"
        }
      ],
      "stateMutability": "view",
      "type": "function"
    },
    {
      "inputs": [],
      "name": "price",
      "outputs": [
        {
          "internalType": "uint256",
          "name": "",
          "type": "uint256"
        }
      ],
      "stateMutability": "view",
      "type": "function"
    },
    {
      "inputs": [],
      "name": "priceToMint",
      "outputs": [
        {
          "internalType": "uint256",
          "name": "",
          "type": "uint256"
        }
      ],
      "stateMutability": "view",
      "type": "function"
    },
    {
      "inputs": [
        {
          "internalType": "address[]",
          "name": "addresses",
          "type": "address[]"
        }
      ],
      "name": "removeFromWhitelist",
      "outputs": [],
      "stateMutability": "nonpayable",
      "type": "function"
    },
    {
      "inputs": [],
      "name": "renounceOwnership",
      "outputs": [],
      "stateMutability": "nonpayable",
      "type": "function"
    },
    {
      "inputs": [
        {
          "internalType": "uint256",
          "name": "_tokenId",
          "type": "uint256"
        },
        {
          "internalType": "uint256",
          "name": "_salePrice",
          "type": "uint256"
        }
      ],
      "name": "royaltyInfo",
      "outputs": [
        {
          "internalType": "address",
          "name": "receiver",
          "type": "address"
        },
        {
          "internalType": "uint256",
          "name": "royaltyAmount",
          "type": "uint256"
        }
      ],
      "stateMutability": "view",
      "type": "function"
    },
    {
      "inputs": [
        {
          "internalType": "address",
          "name": "from",
          "type": "address"
        },
        {
          "internalType": "address",
          "name": "to",
          "type": "address"
        },
        {
          "internalType": "uint256",
          "name": "tokenId",
          "type": "uint256"
        }
      ],
      "name": "safeTransferFrom",
      "outputs": [],
      "stateMutability": "nonpayable",
      "type": "function"
    },
    {
      "inputs": [
        {
          "internalType": "address",
          "name": "from",
          "type": "address"
        },
        {
          "internalType": "address",
          "name": "to",
          "type": "address"
        },
        {
          "internalType": "uint256",
          "name": "tokenId",
          "type": "uint256"
        },
        {
          "internalType": "bytes",
          "name": "_data",
          "type": "bytes"
        }
      ],
      "name": "safeTransferFrom",
      "outputs": [],
      "stateMutability": "nonpayable",
      "type": "function"
    },
    {
      "inputs": [],
      "name": "saleActive",
      "outputs": [
        {
          "internalType": "bool",
          "name": "",
          "type": "bool"
        }
      ],
      "stateMutability": "view",
      "type": "function"
    },
    {
      "inputs": [
        {
          "internalType": "address",
          "name": "",
          "type": "address"
        }
      ],
      "name": "salePurchasedAmount",
      "outputs": [
        {
          "internalType": "uint256",
          "name": "",
          "type": "uint256"
        }
      ],
      "stateMutability": "view",
      "type": "function"
    },
    {
      "inputs": [
        {
          "internalType": "address",
          "name": "operator",
          "type": "address"
        },
        {
          "internalType": "bool",
          "name": "approved",
          "type": "bool"
        }
      ],
      "name": "setApprovalForAll",
      "outputs": [],
      "stateMutability": "nonpayable",
      "type": "function"
    },
    {
      "inputs": [],
      "name": "startGiveaway",
      "outputs": [],
      "stateMutability": "nonpayable",
      "type": "function"
    },
    {
      "inputs": [],
      "name": "startPresale",
      "outputs": [],
      "stateMutability": "nonpayable",
      "type": "function"
    },
    {
      "inputs": [],
      "name": "startPublicSale",
      "outputs": [],
      "stateMutability": "nonpayable",
      "type": "function"
    },
    {
      "inputs": [
        {
          "internalType": "bytes4",
          "name": "interfaceId",
          "type": "bytes4"
        }
      ],
      "name": "supportsInterface",
      "outputs": [
        {
          "internalType": "bool",
          "name": "",
          "type": "bool"
        }
      ],
      "stateMutability": "view",
      "type": "function"
    },
    {
      "inputs": [],
      "name": "symbol",
      "outputs": [
        {
          "internalType": "string",
          "name": "",
          "type": "string"
        }
      ],
      "stateMutability": "view",
      "type": "function"
    },
    {
      "inputs": [
        {
          "internalType": "uint256",
          "name": "tokenId",
          "type": "uint256"
        }
      ],
      "name": "tokenURI",
      "outputs": [
        {
          "internalType": "string",
          "name": "",
          "type": "string"
        }
      ],
      "stateMutability": "view",
      "type": "function"
    },
    {
      "inputs": [
        {
          "internalType": "address",
          "name": "from",
          "type": "address"
        },
        {
          "internalType": "address",
          "name": "to",
          "type": "address"
        },
        {
          "internalType": "uint256",
          "name": "tokenId",
          "type": "uint256"
        }
      ],
      "name": "transferFrom",
      "outputs": [],
      "stateMutability": "nonpayable",
      "type": "function"
    },
    {
      "inputs": [
        {
          "internalType": "address",
          "name": "newOwner",
          "type": "address"
        }
      ],
      "name": "transferOwnership",
      "outputs": [],
      "stateMutability": "nonpayable",
      "type": "function"
    },
    {
      "inputs": [],
      "name": "withdraw",
      "outputs": [],
      "stateMutability": "nonpayable",
      "type": "function"
    }
  ],
  "bytecode": "0x608060405260006014556658d15e1762800060155566b1a2bc2ec500006016553480156200002c57600080fd5b506040516200603438038062006034833981810160405281019062000052919062000391565b878781600090805190602001906200006c9291906200022a565b508060019080519060200190620000859291906200022a565b505050620000a86200009c6200015c60201b60201c565b6200016460201b60201c565b60016007819055508560089080519060200190620000c89291906200022a565b508460098190555083600a8190555082600b60006101000a81548160ff021916908360ff16021790555081600d60006101000a81548160ff021916908360ff16021790555080600f60006101000a81548173ffffffffffffffffffffffffffffffffffffffff021916908373ffffffffffffffffffffffffffffffffffffffff1602179055505050505050505050620006a8565b600033905090565b6000600660009054906101000a900473ffffffffffffffffffffffffffffffffffffffff16905081600660006101000a81548173ffffffffffffffffffffffffffffffffffffffff021916908373ffffffffffffffffffffffffffffffffffffffff1602179055508173ffffffffffffffffffffffffffffffffffffffff168173ffffffffffffffffffffffffffffffffffffffff167f8be0079c531659141344cd1fd0a4f28419497f9722a3daafe3b4186f6b6457e060405160405180910390a35050565b82805462000238906200057f565b90600052602060002090601f0160209004810192826200025c5760008555620002a8565b82601f106200027757805160ff1916838001178555620002a8565b82800160010185558215620002a8579182015b82811115620002a75782518255916020019190600101906200028a565b5b509050620002b79190620002bb565b5090565b5b80821115620002d6576000816000905550600101620002bc565b5090565b6000620002f1620002eb84620004c8565b6200049f565b9050828152602081018484840111156200030a57600080fd5b6200031784828562000549565b509392505050565b60008151905062000330816200065a565b92915050565b600082601f8301126200034857600080fd5b81516200035a848260208601620002da565b91505092915050565b600081519050620003748162000674565b92915050565b6000815190506200038b816200068e565b92915050565b600080600080600080600080610100898b031215620003af57600080fd5b600089015167ffffffffffffffff811115620003ca57600080fd5b620003d88b828c0162000336565b985050602089015167ffffffffffffffff811115620003f657600080fd5b620004048b828c0162000336565b975050604089015167ffffffffffffffff8111156200042257600080fd5b620004308b828c0162000336565b9650506060620004438b828c0162000363565b9550506080620004568b828c0162000363565b94505060a0620004698b828c016200037a565b93505060c06200047c8b828c016200037a565b92505060e06200048f8b828c016200031f565b9150509295985092959890939650565b6000620004ab620004be565b9050620004b98282620005b5565b919050565b6000604051905090565b600067ffffffffffffffff821115620004e657620004e56200061a565b5b620004f18262000649565b9050602081019050919050565b60006200050b8262000512565b9050919050565b600073ffffffffffffffffffffffffffffffffffffffff82169050919050565b6000819050919050565b600060ff82169050919050565b60005b83811015620005695780820151818401526020810190506200054c565b8381111562000579576000848401525b50505050565b600060028204905060018216806200059857607f821691505b60208210811415620005af57620005ae620005eb565b5b50919050565b620005c08262000649565b810181811067ffffffffffffffff82111715620005e257620005e16200061a565b5b80604052505050565b7f4e487b7100000000000000000000000000000000000000000000000000000000600052602260045260246000fd5b7f4e487b7100000000000000000000000000000000000000000000000000000000600052604160045260246000fd5b6000601f19601f8301169050919050565b6200066581620004fe565b81146200067157600080fd5b50565b6200067f8162000532565b81146200068b57600080fd5b50565b62000699816200053c565b8114620006a557600080fd5b50565b61597c80620006b86000396000f3fe60806040526004361061020f5760003560e01c8063548db17411610118578063a035b1fe116100a0578063c87b56dd1161006f578063c87b56dd1461070d578063dc9403a61461074a578063df9ffc2d14610775578063e985e9c5146107b2578063f2fde38b146107ef5761020f565b8063a035b1fe14610660578063a22cb4651461068b578063b88d4fde146106b4578063c0f98e33146106dd5761020f565b8063715018a6116100e7578063715018a6146105b35780637c0f8aa0146105ca5780637f649783146105e15780638da5cb5b1461060a57806395d89b41146106355761020f565b8063548db174146104e55780636352211e1461050e57806368428a1b1461054b57806370a08231146105765761020f565b806323b872dd1161019b5780633ccfd60b1161016a5780633ccfd60b1461042457806342842e0e1461043b5780634616d4b2146104645780634dc1dbec1461048f57806353135ca0146104ba5761020f565b806323b872dd146103555780632a55205a1461037e5780632b3f4d92146103bc57806337573876146103e75761020f565b8063070f5c09116101e2578063070f5c09146102aa578063081812fc146102c1578063095ea7b3146102fe5780630c1c972a146103275780630c41f4971461033e5761020f565b806301ffc9a71461021457806304c98b2b1461025157806305e4e88a1461026857806306fdde031461027f575b600080fd5b34801561022057600080fd5b5061023b60048036038101906102369190613ed2565b610818565b60405161024891906146d5565b60405180910390f35b34801561025d57600080fd5b506102666108fa565b005b34801561027457600080fd5b5061027d610ab0565b005b34801561028b57600080fd5b50610294610c66565b6040516102a191906146f0565b60405180910390f35b3480156102b657600080fd5b506102bf610cf8565b005b3480156102cd57600080fd5b506102e860048036038101906102e39190613f24565b610ead565b6040516102f59190614623565b60405180910390f35b34801561030a57600080fd5b5061032560048036038101906103209190613e55565b610f32565b005b34801561033357600080fd5b5061033c61104a565b005b34801561034a57600080fd5b50610353611200565b005b34801561036157600080fd5b5061037c60048036038101906103779190613d4f565b6113b5565b005b34801561038a57600080fd5b506103a560048036038101906103a09190613fa5565b611415565b6040516103b392919061468a565b60405180910390f35b3480156103c857600080fd5b506103d1611487565b6040516103de9190614b72565b60405180910390f35b3480156103f357600080fd5b5061040e60048036038101906104099190613cea565b61148d565b60405161041b9190614b72565b60405180910390f35b34801561043057600080fd5b506104396114a5565b005b34801561044757600080fd5b50610462600480360381019061045d9190613d4f565b6115d3565b005b34801561047057600080fd5b506104796115f3565b60405161048691906146d5565b60405180910390f35b34801561049b57600080fd5b506104a4611606565b6040516104b19190614b72565b60405180910390f35b3480156104c657600080fd5b506104cf61160c565b6040516104dc91906146d5565b60405180910390f35b3480156104f157600080fd5b5061050c60048036038101906105079190613e91565b61161f565b005b34801561051a57600080fd5b5061053560048036038101906105309190613f24565b6117e2565b6040516105429190614623565b60405180910390f35b34801561055757600080fd5b50610560611894565b60405161056d91906146d5565b60405180910390f35b34801561058257600080fd5b5061059d60048036038101906105989190613cea565b6118a7565b6040516105aa9190614b72565b60405180910390f35b3480156105bf57600080fd5b506105c861195f565b005b3480156105d657600080fd5b506105df6119e7565b005b3480156105ed57600080fd5b5061060860048036038101906106039190613e91565b611b9c565b005b34801561061657600080fd5b5061061f611d5f565b60405161062c9190614623565b60405180910390f35b34801561064157600080fd5b5061064a611d89565b60405161065791906146f0565b60405180910390f35b34801561066c57600080fd5b50610675611e1b565b6040516106829190614b72565b60405180910390f35b34801561069757600080fd5b506106b260048036038101906106ad9190613e19565b611ee1565b005b3480156106c057600080fd5b506106db60048036038101906106d69190613d9e565b611ef7565b005b6106f760048036038101906106f29190613f4d565b611f59565b60405161070491906146b3565b60405180910390f35b34801561071957600080fd5b50610734600480360381019061072f9190613f24565b6122f7565b60405161074191906146f0565b60405180910390f35b34801561075657600080fd5b5061075f6124ed565b60405161076c9190614b72565b60405180910390f35b34801561078157600080fd5b5061079c60048036038101906107979190613cea565b6124f3565b6040516107a99190614b72565b60405180910390f35b3480156107be57600080fd5b506107d960048036038101906107d49190613d13565b61250b565b6040516107e691906146d5565b60405180910390f35b3480156107fb57600080fd5b5061081660048036038101906108119190613cea565b61259f565b005b60007f80ac58cd000000000000000000000000000000000000000000000000000000007bffffffffffffffffffffffffffffffffffffffffffffffffffffffff1916827bffffffffffffffffffffffffffffffffffffffffffffffffffffffff191614806108e357507f5b5e139f000000000000000000000000000000000000000000000000000000007bffffffffffffffffffffffffffffffffffffffffffffffffffffffff1916827bffffffffffffffffffffffffffffffffffffffffffffffffffffffff1916145b806108f357506108f282612697565b5b9050919050565b610902612701565b73ffffffffffffffffffffffffffffffffffffffff16610920611d5f565b73ffffffffffffffffffffffffffffffffffffffff1614610976576040517f08c379a000000000000000000000000000000000000000000000000000000000815260040161096d90614952565b60405180910390fd5b601760009054906101000a900460ff16156109c6576040517f08c379a00000000000000000000000000000000000000000000000000000000081526004016109bd90614b32565b60405180910390fd5b601760019054906101000a900460ff1615610a16576040517f08c379a0000000000000000000000000000000000000000000000000000000008152600401610a0d906148d2565b60405180910390fd5b601760029054906101000a900460ff1615610a66576040517f08c379a0000000000000000000000000000000000000000000000000000000008152600401610a5d906147f2565b60405180910390fd5b6001601760016101000a81548160ff021916908315150217905550427f0ab3861e918916d082a16babf84acd725febc223f0833c5c03d8b14ec900174360405160405180910390a2565b610ab8612701565b73ffffffffffffffffffffffffffffffffffffffff16610ad6611d5f565b73ffffffffffffffffffffffffffffffffffffffff1614610b2c576040517f08c379a0000000000000000000000000000000000000000000000000000000008152600401610b2390614952565b60405180910390fd5b601760009054906101000a900460ff1615610b7c576040517f08c379a0000000000000000000000000000000000000000000000000000000008152600401610b7390614b32565b60405180910390fd5b601760019054906101000a900460ff1615610bcc576040517f08c379a0000000000000000000000000000000000000000000000000000000008152600401610bc3906148d2565b60405180910390fd5b601760029054906101000a900460ff1615610c1c576040517f08c379a0000000000000000000000000000000000000000000000000000000008152600401610c13906147f2565b60405180910390fd5b6001601760006101000a81548160ff021916908315150217905550427fea160f4a1725183ff307b55e355bb04139d56298efc5853e17f99ade82e2f38960405160405180910390a2565b606060008054610c7590614ead565b80601f0160208091040260200160405190810160405280929190818152602001828054610ca190614ead565b8015610cee5780601f10610cc357610100808354040283529160200191610cee565b820191906000526020600020905b815481529060010190602001808311610cd157829003601f168201915b5050505050905090565b610d00612701565b73ffffffffffffffffffffffffffffffffffffffff16610d1e611d5f565b73ffffffffffffffffffffffffffffffffffffffff1614610d74576040517f08c379a0000000000000000000000000000000000000000000000000000000008152600401610d6b90614952565b60405180910390fd5b601760009054906101000a900460ff1615610dc4576040517f08c379a0000000000000000000000000000000000000000000000000000000008152600401610dbb90614b32565b60405180910390fd5b601760029054906101000a900460ff1615610e14576040517f08c379a0000000000000000000000000000000000000000000000000000000008152600401610e0b906147f2565b60405180910390fd5b601760019054906101000a900460ff16610e63576040517f08c379a0000000000000000000000000000000000000000000000000000000008152600401610e5a90614ab2565b60405180910390fd5b6000601760016101000a81548160ff021916908315150217905550427fbbda50ff3083b4adfffcd3c2e8042a8b354ca16013534ab9367661c5a4cb7b2360405160405180910390a2565b6000610eb882612709565b610ef7576040517f08c379a0000000000000000000000000000000000000000000000000000000008152600401610eee906148f2565b60405180910390fd5b6004600083815260200190815260200160002060009054906101000a900473ffffffffffffffffffffffffffffffffffffffff169050919050565b6000610f3d826117e2565b90508073ffffffffffffffffffffffffffffffffffffffff168373ffffffffffffffffffffffffffffffffffffffff161415610fae576040517f08c379a0000000000000000000000000000000000000000000000000000000008152600401610fa5906149f2565b60405180910390fd5b8073ffffffffffffffffffffffffffffffffffffffff16610fcd612701565b73ffffffffffffffffffffffffffffffffffffffff161480610ffc5750610ffb81610ff6612701565b61250b565b5b61103b576040517f08c379a000000000000000000000000000000000000000000000000000000000815260040161103290614832565b60405180910390fd5b6110458383612775565b505050565b611052612701565b73ffffffffffffffffffffffffffffffffffffffff16611070611d5f565b73ffffffffffffffffffffffffffffffffffffffff16146110c6576040517f08c379a00000000000000000000000000000000000000000000000000000000081526004016110bd90614952565b60405180910390fd5b601760009054906101000a900460ff1615611116576040517f08c379a000000000000000000000000000000000000000000000000000000000815260040161110d90614b32565b60405180910390fd5b601760019054906101000a900460ff1615611166576040517f08c379a000000000000000000000000000000000000000000000000000000000815260040161115d906148d2565b60405180910390fd5b601760029054906101000a900460ff16156111b6576040517f08c379a00000000000000000000000000000000000000000000000000000000081526004016111ad906147f2565b60405180910390fd5b6001601760026101000a81548160ff021916908315150217905550427feeae71454a2a58ac8d7c3a2ac3db1f29f81cbd0024aae4292a55139dd9d3560a60405160405180910390a2565b611208612701565b73ffffffffffffffffffffffffffffffffffffffff16611226611d5f565b73ffffffffffffffffffffffffffffffffffffffff161461127c576040517f08c379a000000000000000000000000000000000000000000000000000000000815260040161127390614952565b60405180910390fd5b601760009054906101000a900460ff16156112cc576040517f08c379a00000000000000000000000000000000000000000000000000000000081526004016112c390614b32565b60405180910390fd5b601760019054906101000a900460ff161561131c576040517f08c379a0000000000000000000000000000000000000000000000000000000008152600401611313906148d2565b60405180910390fd5b601760029054906101000a900460ff1661136b576040517f08c379a0000000000000000000000000000000000000000000000000000000008152600401611362906147d2565b60405180910390fd5b6000601760026101000a81548160ff021916908315150217905550427f4616a0782e5635981b28be1cd36934a60655b462c370d8bd8092c969abc990d060405160405180910390a2565b6113c66113c0612701565b8261282e565b611405576040517f08c379a00000000000000000000000000000000000000000000000000000000081526004016113fc90614a92565b60405180910390fd5b61141083838361290c565b505050565b60008061142184612709565b611460576040517f08c379a000000000000000000000000000000000000000000000000000000000815260040161145790614a32565b60405180910390fd5b306127106103e8856114729190614d69565b61147c9190614d38565b915091509250929050565b60145481565b600e6020528060005260406000206000915090505481565b6114ad612701565b73ffffffffffffffffffffffffffffffffffffffff166114cb611d5f565b73ffffffffffffffffffffffffffffffffffffffff1614611521576040517f08c379a000000000000000000000000000000000000000000000000000000000815260040161151890614952565b60405180910390fd5b47600a541115611566576040517f08c379a000000000000000000000000000000000000000000000000000000000815260040161155d90614a12565b60405180910390fd5b600f60009054906101000a900473ffffffffffffffffffffffffffffffffffffffff1673ffffffffffffffffffffffffffffffffffffffff166108fc600a549081150290604051600060405180830381858888f193505050501580156115d0573d6000803e3d6000fd5b50565b6115ee83838360405180602001604052806000815250611ef7565b505050565b601760009054906101000a900460ff1681565b60165481565b601760019054906101000a900460ff1681565b611627612701565b73ffffffffffffffffffffffffffffffffffffffff16611645611d5f565b73ffffffffffffffffffffffffffffffffffffffff161461169b576040517f08c379a000000000000000000000000000000000000000000000000000000000815260040161169290614952565b60405180910390fd5b6107d0815111156116e1576040517f08c379a00000000000000000000000000000000000000000000000000000000081526004016116d890614852565b60405180910390fd5b60005b81518110156117de57611741828281518110611729577f4e487b7100000000000000000000000000000000000000000000000000000000600052603260045260246000fd5b60200260200101516012612b6890919063ffffffff16565b156117ca5781818151811061177f577f4e487b7100000000000000000000000000000000000000000000000000000000600052603260045260246000fd5b602002602001015173ffffffffffffffffffffffffffffffffffffffff167fcdd2e9b91a56913d370075169cefa1602ba36be5301664f752192bb1709df75760405160405180910390a25b6001816117d79190614ce2565b90506116e4565b5050565b6000806002600084815260200190815260200160002060009054906101000a900473ffffffffffffffffffffffffffffffffffffffff169050600073ffffffffffffffffffffffffffffffffffffffff168173ffffffffffffffffffffffffffffffffffffffff16141561188b576040517f08c379a000000000000000000000000000000000000000000000000000000000815260040161188290614892565b60405180910390fd5b80915050919050565b601760029054906101000a900460ff1681565b60008073ffffffffffffffffffffffffffffffffffffffff168273ffffffffffffffffffffffffffffffffffffffff161415611918576040517f08c379a000000000000000000000000000000000000000000000000000000000815260040161190f90614872565b60405180910390fd5b600360008373ffffffffffffffffffffffffffffffffffffffff1673ffffffffffffffffffffffffffffffffffffffff168152602001908152602001600020549050919050565b611967612701565b73ffffffffffffffffffffffffffffffffffffffff16611985611d5f565b73ffffffffffffffffffffffffffffffffffffffff16146119db576040517f08c379a00000000000000000000000000000000000000000000000000000000081526004016119d290614952565b60405180910390fd5b6119e56000612b98565b565b6119ef612701565b73ffffffffffffffffffffffffffffffffffffffff16611a0d611d5f565b73ffffffffffffffffffffffffffffffffffffffff1614611a63576040517f08c379a0000000000000000000000000000000000000000000000000000000008152600401611a5a90614952565b60405180910390fd5b601760019054906101000a900460ff1615611ab3576040517f08c379a0000000000000000000000000000000000000000000000000000000008152600401611aaa906148d2565b60405180910390fd5b601760029054906101000a900460ff1615611b03576040517f08c379a0000000000000000000000000000000000000000000000000000000008152600401611afa906147f2565b60405180910390fd5b601760009054906101000a900460ff16611b52576040517f08c379a0000000000000000000000000000000000000000000000000000000008152600401611b4990614a72565b60405180910390fd5b6000601760006101000a81548160ff021916908315150217905550427f71fbf9de7004f7d16da327d0c26b8f8b29e6efeaa59d67d1b76d6cc71fe47aae60405160405180910390a2565b611ba4612701565b73ffffffffffffffffffffffffffffffffffffffff16611bc2611d5f565b73ffffffffffffffffffffffffffffffffffffffff1614611c18576040517f08c379a0000000000000000000000000000000000000000000000000000000008152600401611c0f90614952565b60405180910390fd5b6107d081511115611c5e576040517f08c379a0000000000000000000000000000000000000000000000000000000008152600401611c5590614852565b60405180910390fd5b60005b8151811015611d5b57611cbe828281518110611ca6577f4e487b7100000000000000000000000000000000000000000000000000000000600052603260045260246000fd5b60200260200101516012612c5e90919063ffffffff16565b15611d4757818181518110611cfc577f4e487b7100000000000000000000000000000000000000000000000000000000600052603260045260246000fd5b602002602001015173ffffffffffffffffffffffffffffffffffffffff167fa850ae9193f515cbae8d35e8925bd2be26627fc91bce650b8652ed254e9cab0360405160405180910390a25b600181611d549190614ce2565b9050611c61565b5050565b6000600660009054906101000a900473ffffffffffffffffffffffffffffffffffffffff16905090565b606060018054611d9890614ead565b80601f0160208091040260200160405190810160405280929190818152602001828054611dc490614ead565b8015611e115780601f10611de657610100808354040283529160200191611e11565b820191906000526020600020905b815481529060010190602001808311611df457829003601f168201915b5050505050905090565b6000601760009054906101000a900460ff1680611e445750601760019054906101000a900460ff165b80611e5b5750601760029054906101000a900460ff165b611e9a576040517f08c379a0000000000000000000000000000000000000000000000000000000008152600401611e9190614912565b60405180910390fd5b601760009054906101000a900460ff1615611eb9576014549050611ede565b601760019054906101000a900460ff1615611ed8576015549050611ede565b60165490505b90565b611ef3611eec612701565b8383612c8e565b5050565b611f08611f02612701565b8361282e565b611f47576040517f08c379a0000000000000000000000000000000000000000000000000000000008152600401611f3e90614a92565b60405180910390fd5b611f5384848484612dfb565b50505050565b6060601760009054906101000a900460ff1680611f825750601760019054906101000a900460ff165b80611f995750601760029054906101000a900460ff165b611fd8576040517f08c379a0000000000000000000000000000000000000000000000000000000008152600401611fcf90614912565b60405180910390fd5b6002600754141561201e576040517f08c379a000000000000000000000000000000000000000000000000000000000815260040161201590614b12565b60405180910390fd5b600260078190555061202f84612e57565b60008467ffffffffffffffff811115612071577f4e487b7100000000000000000000000000000000000000000000000000000000600052604160045260246000fd5b60405190808252806020026020018201604052801561209f5781602001602082028036833780820191505090505b50905060005b8581101561210f576120b6336131c8565b8282815181106120ef577f4e487b7100000000000000000000000000000000000000000000000000000000600052603260045260246000fd5b6020026020010181815250506001816121089190614ce2565b90506120a5565b5060005b85811015612206576121f2828281518110612157577f4e487b7100000000000000000000000000000000000000000000000000000000600052603260045260246000fd5b6020026020010151868684818110612198577f4e487b7100000000000000000000000000000000000000000000000000000000600052603260045260246000fd5b90506020028101906121aa9190614b8d565b8080601f016020809104026020016040519081016040528093929190818152602001838380828437600081840152601f19601f820116905080830192505050505050506131f5565b6001816121ff9190614ce2565b9050612113565b50601760019054906101000a900460ff16156122775784600c60003373ffffffffffffffffffffffffffffffffffffffff1673ffffffffffffffffffffffffffffffffffffffff168152602001908152602001600020600082825461226b9190614ce2565b925050819055506122e4565b601760029054906101000a900460ff16156122e35784600e60003373ffffffffffffffffffffffffffffffffffffffff1673ffffffffffffffffffffffffffffffffffffffff16815260200190815260200160002060008282546122db9190614ce2565b925050819055505b5b8091505060016007819055509392505050565b606061230282612709565b612341576040517f08c379a000000000000000000000000000000000000000000000000000000000815260040161233890614992565b60405180910390fd5b600060106000848152602001908152602001600020805461236190614ead565b80601f016020809104026020016040519081016040528092919081815260200182805461238d90614ead565b80156123da5780601f106123af576101008083540402835291602001916123da565b820191906000526020600020905b8154815290600101906020018083116123bd57829003601f168201915b505050505090506000600880546123f090614ead565b80601f016020809104026020016040519081016040528092919081815260200182805461241c90614ead565b80156124695780601f1061243e57610100808354040283529160200191612469565b820191906000526020600020905b81548152906001019060200180831161244c57829003601f168201915b505050505090506000815114156124845781925050506124e8565b6000825111156124b95780826040516020016124a19291906145ff565b604051602081830303815290604052925050506124e8565b806124c385613269565b6040516020016124d49291906145ff565b604051602081830303815290604052925050505b919050565b60155481565b600c6020528060005260406000206000915090505481565b6000600560008473ffffffffffffffffffffffffffffffffffffffff1673ffffffffffffffffffffffffffffffffffffffff16815260200190815260200160002060008373ffffffffffffffffffffffffffffffffffffffff1673ffffffffffffffffffffffffffffffffffffffff16815260200190815260200160002060009054906101000a900460ff16905092915050565b6125a7612701565b73ffffffffffffffffffffffffffffffffffffffff166125c5611d5f565b73ffffffffffffffffffffffffffffffffffffffff161461261b576040517f08c379a000000000000000000000000000000000000000000000000000000000815260040161261290614952565b60405180910390fd5b600073ffffffffffffffffffffffffffffffffffffffff168173ffffffffffffffffffffffffffffffffffffffff16141561268b576040517f08c379a000000000000000000000000000000000000000000000000000000000815260040161268290614752565b60405180910390fd5b61269481612b98565b50565b60007f01ffc9a7000000000000000000000000000000000000000000000000000000007bffffffffffffffffffffffffffffffffffffffffffffffffffffffff1916827bffffffffffffffffffffffffffffffffffffffffffffffffffffffff1916149050919050565b600033905090565b60008073ffffffffffffffffffffffffffffffffffffffff166002600084815260200190815260200160002060009054906101000a900473ffffffffffffffffffffffffffffffffffffffff1673ffffffffffffffffffffffffffffffffffffffff1614159050919050565b816004600083815260200190815260200160002060006101000a81548173ffffffffffffffffffffffffffffffffffffffff021916908373ffffffffffffffffffffffffffffffffffffffff160217905550808273ffffffffffffffffffffffffffffffffffffffff166127e8836117e2565b73ffffffffffffffffffffffffffffffffffffffff167f8c5be1e5ebec7d5bd14f71427d1e84f3dd0314c0f7b2291e5b200ac8c7c3b92560405160405180910390a45050565b600061283982612709565b612878576040517f08c379a000000000000000000000000000000000000000000000000000000000815260040161286f90614812565b60405180910390fd5b6000612883836117e2565b90508073ffffffffffffffffffffffffffffffffffffffff168473ffffffffffffffffffffffffffffffffffffffff1614806128f257508373ffffffffffffffffffffffffffffffffffffffff166128da84610ead565b73ffffffffffffffffffffffffffffffffffffffff16145b806129035750612902818561250b565b5b91505092915050565b8273ffffffffffffffffffffffffffffffffffffffff1661292c826117e2565b73ffffffffffffffffffffffffffffffffffffffff1614612982576040517f08c379a000000000000000000000000000000000000000000000000000000000815260040161297990614972565b60405180910390fd5b600073ffffffffffffffffffffffffffffffffffffffff168273ffffffffffffffffffffffffffffffffffffffff1614156129f2576040517f08c379a00000000000000000000000000000000000000000000000000000000081526004016129e990614792565b60405180910390fd5b6129fd838383613416565b612a08600082612775565b6001600360008573ffffffffffffffffffffffffffffffffffffffff1673ffffffffffffffffffffffffffffffffffffffff1681526020019081526020016000206000828254612a589190614dc3565b925050819055506001600360008473ffffffffffffffffffffffffffffffffffffffff1673ffffffffffffffffffffffffffffffffffffffff1681526020019081526020016000206000828254612aaf9190614ce2565b92505081905550816002600083815260200190815260200160002060006101000a81548173ffffffffffffffffffffffffffffffffffffffff021916908373ffffffffffffffffffffffffffffffffffffffff160217905550808273ffffffffffffffffffffffffffffffffffffffff168473ffffffffffffffffffffffffffffffffffffffff167fddf252ad1be2c89b69c2b068fc378daa952ba7f163c4a11628f55a4df523b3ef60405160405180910390a4505050565b6000612b90836000018373ffffffffffffffffffffffffffffffffffffffff1660001b61341b565b905092915050565b6000600660009054906101000a900473ffffffffffffffffffffffffffffffffffffffff16905081600660006101000a81548173ffffffffffffffffffffffffffffffffffffffff021916908373ffffffffffffffffffffffffffffffffffffffff1602179055508173ffffffffffffffffffffffffffffffffffffffff168173ffffffffffffffffffffffffffffffffffffffff167f8be0079c531659141344cd1fd0a4f28419497f9722a3daafe3b4186f6b6457e060405160405180910390a35050565b6000612c86836000018373ffffffffffffffffffffffffffffffffffffffff1660001b6135a1565b905092915050565b8173ffffffffffffffffffffffffffffffffffffffff168373ffffffffffffffffffffffffffffffffffffffff161415612cfd576040517f08c379a0000000000000000000000000000000000000000000000000000000008152600401612cf4906147b2565b60405180910390fd5b80600560008573ffffffffffffffffffffffffffffffffffffffff1673ffffffffffffffffffffffffffffffffffffffff16815260200190815260200160002060008473ffffffffffffffffffffffffffffffffffffffff1673ffffffffffffffffffffffffffffffffffffffff16815260200190815260200160002060006101000a81548160ff0219169083151502179055508173ffffffffffffffffffffffffffffffffffffffff168373ffffffffffffffffffffffffffffffffffffffff167f17307eab39ab6107e8899845ad3d59bd9653f200f220920489ca2b5937696c3183604051612dee91906146d5565b60405180910390a3505050565b612e0684848461290c565b612e1284848484613611565b612e51576040517f08c379a0000000000000000000000000000000000000000000000000000000008152600401612e4890614732565b60405180910390fd5b50505050565b600073ffffffffffffffffffffffffffffffffffffffff163373ffffffffffffffffffffffffffffffffffffffff161415612e9157600080fd5b600954612e9e60116137a8565b10612ede576040517f08c379a0000000000000000000000000000000000000000000000000000000008152600401612ed590614b52565b60405180910390fd5b60008111612f21576040517f08c379a0000000000000000000000000000000000000000000000000000000008152600401612f18906149d2565b60405180910390fd5b601760009054906101000a900460ff1615612f8357612f3f336137b6565b612f7e576040517f08c379a0000000000000000000000000000000000000000000000000000000008152600401612f7590614712565b60405180910390fd5b6131c5565b601760019054906101000a900460ff16156130d457612fa1336137b6565b612fe0576040517f08c379a0000000000000000000000000000000000000000000000000000000008152600401612fd790614712565b60405180910390fd5b600b60009054906101000a900460ff1660ff16600c60003373ffffffffffffffffffffffffffffffffffffffff1673ffffffffffffffffffffffffffffffffffffffff168152602001908152602001600020548261303e9190614ce2565b111561307f576040517f08c379a000000000000000000000000000000000000000000000000000000000815260040161307690614a52565b60405180910390fd5b348160155461308e9190614d69565b11156130cf576040517f08c379a00000000000000000000000000000000000000000000000000000000081526004016130c690614af2565b60405180910390fd5b6131c4565b600d60009054906101000a900460ff1660ff16600e60003373ffffffffffffffffffffffffffffffffffffffff1673ffffffffffffffffffffffffffffffffffffffff16815260200190815260200160002054826131329190614ce2565b1115613173576040517f08c379a000000000000000000000000000000000000000000000000000000000815260040161316a906149b2565b60405180910390fd5b34816016546131829190614d69565b11156131c3576040517f08c379a00000000000000000000000000000000000000000000000000000000081526004016131ba90614ad2565b60405180910390fd5b5b5b50565b60006131d460116137d3565b60006131e060116137a8565b90506131ec83826137e9565b80915050919050565b6131fe82612709565b61323d576040517f08c379a000000000000000000000000000000000000000000000000000000000815260040161323490614932565b60405180910390fd5b80601060008481526020019081526020016000209080519060200190613264929190613a96565b505050565b606060008214156132b1576040518060400160405280600181526020017f30000000000000000000000000000000000000000000000000000000000000008152509050613411565b600082905060005b600082146132e35780806132cc90614f10565b915050600a826132dc9190614d38565b91506132b9565b60008167ffffffffffffffff811115613325577f4e487b7100000000000000000000000000000000000000000000000000000000600052604160045260246000fd5b6040519080825280601f01601f1916602001820160405280156133575781602001600182028036833780820191505090505b5090505b6000851461340a576001826133709190614dc3565b9150600a8561337f9190614f59565b603061338b9190614ce2565b60f81b8183815181106133c7577f4e487b7100000000000000000000000000000000000000000000000000000000600052603260045260246000fd5b60200101907effffffffffffffffffffffffffffffffffffffffffffffffffffffffffffff1916908160001a905350600a856134039190614d38565b945061335b565b8093505050505b919050565b505050565b6000808360010160008481526020019081526020016000205490506000811461359557600060018261344d9190614dc3565b90506000600186600001805490506134659190614dc3565b90508181146135205760008660000182815481106134ac577f4e487b7100000000000000000000000000000000000000000000000000000000600052603260045260246000fd5b90600052602060002001549050808760000184815481106134f6577f4e487b7100000000000000000000000000000000000000000000000000000000600052603260045260246000fd5b90600052602060002001819055508387600101600083815260200190815260200160002081905550505b8560000180548061355a577f4e487b7100000000000000000000000000000000000000000000000000000000600052603160045260246000fd5b60019003818190600052602060002001600090559055856001016000868152602001908152602001600020600090556001935050505061359b565b60009150505b92915050565b60006135ad8383613807565b61360657826000018290806001815401808255809150506001900390600052602060002001600090919091909150558260000180549050836001016000848152602001908152602001600020819055506001905061360b565b600090505b92915050565b60006136328473ffffffffffffffffffffffffffffffffffffffff1661382a565b1561379b578373ffffffffffffffffffffffffffffffffffffffff1663150b7a0261365b612701565b8786866040518563ffffffff1660e01b815260040161367d949392919061463e565b602060405180830381600087803b15801561369757600080fd5b505af19250505080156136c857506040513d601f19601f820116820180604052508101906136c59190613efb565b60015b61374b573d80600081146136f8576040519150601f19603f3d011682016040523d82523d6000602084013e6136fd565b606091505b50600081511415613743576040517f08c379a000000000000000000000000000000000000000000000000000000000815260040161373a90614732565b60405180910390fd5b805181602001fd5b63150b7a0260e01b7bffffffffffffffffffffffffffffffffffffffffffffffffffffffff1916817bffffffffffffffffffffffffffffffffffffffffffffffffffffffff1916149150506137a0565b600190505b949350505050565b600081600001549050919050565b60006137cc82601261383d90919063ffffffff16565b9050919050565b6001816000016000828254019250508190555050565b61380382826040518060200160405280600081525061386d565b5050565b600080836001016000848152602001908152602001600020541415905092915050565b600080823b905060008111915050919050565b6000613865836000018373ffffffffffffffffffffffffffffffffffffffff1660001b613807565b905092915050565b61387783836138c8565b6138846000848484613611565b6138c3576040517f08c379a00000000000000000000000000000000000000000000000000000000081526004016138ba90614732565b60405180910390fd5b505050565b600073ffffffffffffffffffffffffffffffffffffffff168273ffffffffffffffffffffffffffffffffffffffff161415613938576040517f08c379a000000000000000000000000000000000000000000000000000000000815260040161392f906148b2565b60405180910390fd5b61394181612709565b15613981576040517f08c379a000000000000000000000000000000000000000000000000000000000815260040161397890614772565b60405180910390fd5b61398d60008383613416565b6001600360008473ffffffffffffffffffffffffffffffffffffffff1673ffffffffffffffffffffffffffffffffffffffff16815260200190815260200160002060008282546139dd9190614ce2565b92505081905550816002600083815260200190815260200160002060006101000a81548173ffffffffffffffffffffffffffffffffffffffff021916908373ffffffffffffffffffffffffffffffffffffffff160217905550808273ffffffffffffffffffffffffffffffffffffffff16600073ffffffffffffffffffffffffffffffffffffffff167fddf252ad1be2c89b69c2b068fc378daa952ba7f163c4a11628f55a4df523b3ef60405160405180910390a45050565b828054613aa290614ead565b90600052602060002090601f016020900481019282613ac45760008555613b0b565b82601f10613add57805160ff1916838001178555613b0b565b82800160010185558215613b0b579182015b82811115613b0a578251825591602001919060010190613aef565b5b509050613b189190613b1c565b5090565b5b80821115613b35576000816000905550600101613b1d565b5090565b6000613b4c613b4784614c09565b614be4565b90508083825260208201905082856020860282011115613b6b57600080fd5b60005b85811015613b9b5781613b818882613be3565b845260208401935060208301925050600181019050613b6e565b5050509392505050565b6000613bb8613bb384614c35565b614be4565b905082815260208101848484011115613bd057600080fd5b613bdb848285614e6b565b509392505050565b600081359050613bf2816158ea565b92915050565b600082601f830112613c0957600080fd5b8135613c19848260208601613b39565b91505092915050565b60008083601f840112613c3457600080fd5b8235905067ffffffffffffffff811115613c4d57600080fd5b602083019150836020820283011115613c6557600080fd5b9250929050565b600081359050613c7b81615901565b92915050565b600081359050613c9081615918565b92915050565b600081519050613ca581615918565b92915050565b600082601f830112613cbc57600080fd5b8135613ccc848260208601613ba5565b91505092915050565b600081359050613ce48161592f565b92915050565b600060208284031215613cfc57600080fd5b6000613d0a84828501613be3565b91505092915050565b60008060408385031215613d2657600080fd5b6000613d3485828601613be3565b9250506020613d4585828601613be3565b9150509250929050565b600080600060608486031215613d6457600080fd5b6000613d7286828701613be3565b9350506020613d8386828701613be3565b9250506040613d9486828701613cd5565b9150509250925092565b60008060008060808587031215613db457600080fd5b6000613dc287828801613be3565b9450506020613dd387828801613be3565b9350506040613de487828801613cd5565b925050606085013567ffffffffffffffff811115613e0157600080fd5b613e0d87828801613cab565b91505092959194509250565b60008060408385031215613e2c57600080fd5b6000613e3a85828601613be3565b9250506020613e4b85828601613c6c565b9150509250929050565b60008060408385031215613e6857600080fd5b6000613e7685828601613be3565b9250506020613e8785828601613cd5565b9150509250929050565b600060208284031215613ea357600080fd5b600082013567ffffffffffffffff811115613ebd57600080fd5b613ec984828501613bf8565b91505092915050565b600060208284031215613ee457600080fd5b6000613ef284828501613c81565b91505092915050565b600060208284031215613f0d57600080fd5b6000613f1b84828501613c96565b91505092915050565b600060208284031215613f3657600080fd5b6000613f4484828501613cd5565b91505092915050565b600080600060408486031215613f6257600080fd5b6000613f7086828701613cd5565b935050602084013567ffffffffffffffff811115613f8d57600080fd5b613f9986828701613c22565b92509250509250925092565b60008060408385031215613fb857600080fd5b6000613fc685828601613cd5565b9250506020613fd785828601613cd5565b9150509250929050565b6000613fed83836145e1565b60208301905092915050565b61400281614df7565b82525050565b600061401382614c76565b61401d8185614ca4565b935061402883614c66565b8060005b838110156140595781516140408882613fe1565b975061404b83614c97565b92505060018101905061402c565b5085935050505092915050565b61406f81614e09565b82525050565b600061408082614c81565b61408a8185614cb5565b935061409a818560208601614e7a565b6140a381615046565b840191505092915050565b60006140b982614c8c565b6140c38185614cc6565b93506140d3818560208601614e7a565b6140dc81615046565b840191505092915050565b60006140f282614c8c565b6140fc8185614cd7565b935061410c818560208601614e7a565b80840191505092915050565b6000614125602b83614cc6565b915061413082615057565b604082019050919050565b6000614148603283614cc6565b9150614153826150a6565b604082019050919050565b600061416b602683614cc6565b9150614176826150f5565b604082019050919050565b600061418e601c83614cc6565b915061419982615144565b602082019050919050565b60006141b1602483614cc6565b91506141bc8261516d565b604082019050919050565b60006141d4601983614cc6565b91506141df826151bc565b602082019050919050565b60006141f7601283614cc6565b9150614202826151e5565b602082019050919050565b600061421a601283614cc6565b91506142258261520e565b602082019050919050565b600061423d602c83614cc6565b915061424882615237565b604082019050919050565b6000614260603883614cc6565b915061426b82615286565b604082019050919050565b6000614283601c83614cc6565b915061428e826152d5565b602082019050919050565b60006142a6602a83614cc6565b91506142b1826152fe565b604082019050919050565b60006142c9602983614cc6565b91506142d48261534d565b604082019050919050565b60006142ec602083614cc6565b91506142f78261539c565b602082019050919050565b600061430f601583614cc6565b915061431a826153c5565b602082019050919050565b6000614332602c83614cc6565b915061433d826153ee565b604082019050919050565b6000614355602583614cc6565b91506143608261543d565b604082019050919050565b6000614378602c83614cc6565b91506143838261548c565b604082019050919050565b600061439b602083614cc6565b91506143a6826154db565b602082019050919050565b60006143be602983614cc6565b91506143c982615504565b604082019050919050565b60006143e1602f83614cc6565b91506143ec82615553565b604082019050919050565b6000614404601f83614cc6565b915061440f826155a2565b602082019050919050565b6000614427601c83614cc6565b9150614432826155cb565b602082019050919050565b600061444a602183614cc6565b9150614455826155f4565b604082019050919050565b600061446d601b83614cc6565b915061447882615643565b602082019050919050565b6000614490602583614cc6565b915061449b8261566c565b604082019050919050565b60006144b3602183614cc6565b91506144be826156bb565b604082019050919050565b60006144d6601383614cc6565b91506144e18261570a565b602082019050919050565b60006144f9603183614cc6565b915061450482615733565b604082019050919050565b600061451c601583614cc6565b915061452782615782565b602082019050919050565b600061453f604183614cc6565b915061454a826157ab565b606082019050919050565b6000614562603d83614cc6565b915061456d82615820565b604082019050919050565b6000614585601f83614cc6565b91506145908261586f565b602082019050919050565b60006145a8601383614cc6565b91506145b382615898565b602082019050919050565b60006145cb600f83614cc6565b91506145d6826158c1565b602082019050919050565b6145ea81614e61565b82525050565b6145f981614e61565b82525050565b600061460b82856140e7565b915061461782846140e7565b91508190509392505050565b60006020820190506146386000830184613ff9565b92915050565b60006080820190506146536000830187613ff9565b6146606020830186613ff9565b61466d60408301856145f0565b818103606083015261467f8184614075565b905095945050505050565b600060408201905061469f6000830185613ff9565b6146ac60208301846145f0565b9392505050565b600060208201905081810360008301526146cd8184614008565b905092915050565b60006020820190506146ea6000830184614066565b92915050565b6000602082019050818103600083015261470a81846140ae565b905092915050565b6000602082019050818103600083015261472b81614118565b9050919050565b6000602082019050818103600083015261474b8161413b565b9050919050565b6000602082019050818103600083015261476b8161415e565b9050919050565b6000602082019050818103600083015261478b81614181565b9050919050565b600060208201905081810360008301526147ab816141a4565b9050919050565b600060208201905081810360008301526147cb816141c7565b9050919050565b600060208201905081810360008301526147eb816141ea565b9050919050565b6000602082019050818103600083015261480b8161420d565b9050919050565b6000602082019050818103600083015261482b81614230565b9050919050565b6000602082019050818103600083015261484b81614253565b9050919050565b6000602082019050818103600083015261486b81614276565b9050919050565b6000602082019050818103600083015261488b81614299565b9050919050565b600060208201905081810360008301526148ab816142bc565b9050919050565b600060208201905081810360008301526148cb816142df565b9050919050565b600060208201905081810360008301526148eb81614302565b9050919050565b6000602082019050818103600083015261490b81614325565b9050919050565b6000602082019050818103600083015261492b81614348565b9050919050565b6000602082019050818103600083015261494b8161436b565b9050919050565b6000602082019050818103600083015261496b8161438e565b9050919050565b6000602082019050818103600083015261498b816143b1565b9050919050565b600060208201905081810360008301526149ab816143d4565b9050919050565b600060208201905081810360008301526149cb816143f7565b9050919050565b600060208201905081810360008301526149eb8161441a565b9050919050565b60006020820190508181036000830152614a0b8161443d565b9050919050565b60006020820190508181036000830152614a2b81614460565b9050919050565b60006020820190508181036000830152614a4b81614483565b9050919050565b60006020820190508181036000830152614a6b816144a6565b9050919050565b60006020820190508181036000830152614a8b816144c9565b9050919050565b60006020820190508181036000830152614aab816144ec565b9050919050565b60006020820190508181036000830152614acb8161450f565b9050919050565b60006020820190508181036000830152614aeb81614532565b9050919050565b60006020820190508181036000830152614b0b81614555565b9050919050565b60006020820190508181036000830152614b2b81614578565b9050919050565b60006020820190508181036000830152614b4b8161459b565b9050919050565b60006020820190508181036000830152614b6b816145be565b9050919050565b6000602082019050614b8760008301846145f0565b92915050565b60008083356001602003843603038112614ba657600080fd5b80840192508235915067ffffffffffffffff821115614bc457600080fd5b602083019250600182023603831315614bdc57600080fd5b509250929050565b6000614bee614bff565b9050614bfa8282614edf565b919050565b6000604051905090565b600067ffffffffffffffff821115614c2457614c23615017565b5b602082029050602081019050919050565b600067ffffffffffffffff821115614c5057614c4f615017565b5b614c5982615046565b9050602081019050919050565b6000819050602082019050919050565b600081519050919050565b600081519050919050565b600081519050919050565b6000602082019050919050565b600082825260208201905092915050565b600082825260208201905092915050565b600082825260208201905092915050565b600081905092915050565b6000614ced82614e61565b9150614cf883614e61565b9250827fffffffffffffffffffffffffffffffffffffffffffffffffffffffffffffffff03821115614d2d57614d2c614f8a565b5b828201905092915050565b6000614d4382614e61565b9150614d4e83614e61565b925082614d5e57614d5d614fb9565b5b828204905092915050565b6000614d7482614e61565b9150614d7f83614e61565b9250817fffffffffffffffffffffffffffffffffffffffffffffffffffffffffffffffff0483118215151615614db857614db7614f8a565b5b828202905092915050565b6000614dce82614e61565b9150614dd983614e61565b925082821015614dec57614deb614f8a565b5b828203905092915050565b6000614e0282614e41565b9050919050565b60008115159050919050565b60007fffffffff0000000000000000000000000000000000000000000000000000000082169050919050565b600073ffffffffffffffffffffffffffffffffffffffff82169050919050565b6000819050919050565b82818337600083830152505050565b60005b83811015614e98578082015181840152602081019050614e7d565b83811115614ea7576000848401525b50505050565b60006002820490506001821680614ec557607f821691505b60208210811415614ed957614ed8614fe8565b5b50919050565b614ee882615046565b810181811067ffffffffffffffff82111715614f0757614f06615017565b5b80604052505050565b6000614f1b82614e61565b91507fffffffffffffffffffffffffffffffffffffffffffffffffffffffffffffffff821415614f4e57614f4d614f8a565b5b600182019050919050565b6000614f6482614e61565b9150614f6f83614e61565b925082614f7f57614f7e614fb9565b5b828206905092915050565b7f4e487b7100000000000000000000000000000000000000000000000000000000600052601160045260246000fd5b7f4e487b7100000000000000000000000000000000000000000000000000000000600052601260045260246000fd5b7f4e487b7100000000000000000000000000000000000000000000000000000000600052602260045260246000fd5b7f4e487b7100000000000000000000000000000000000000000000000000000000600052604160045260246000fd5b6000601f19601f8301169050919050565b7f576527726520736f7272792c20796f757220616464726573732069736e27742060008201527f77686974656c6973746564000000000000000000000000000000000000000000602082015250565b7f4552433732313a207472616e7366657220746f206e6f6e20455243373231526560008201527f63656976657220696d706c656d656e7465720000000000000000000000000000602082015250565b7f4f776e61626c653a206e6577206f776e657220697320746865207a65726f206160008201527f6464726573730000000000000000000000000000000000000000000000000000602082015250565b7f4552433732313a20746f6b656e20616c7265616479206d696e74656400000000600082015250565b7f4552433732313a207472616e7366657220746f20746865207a65726f2061646460008201527f7265737300000000000000000000000000000000000000000000000000000000602082015250565b7f4552433732313a20617070726f766520746f2063616c6c657200000000000000600082015250565b7f53616c65206973206e6f74206163746976650000000000000000000000000000600082015250565b7f53616c65206973206e6f74207061757365640000000000000000000000000000600082015250565b7f4552433732313a206f70657261746f7220717565727920666f72206e6f6e657860008201527f697374656e7420746f6b656e0000000000000000000000000000000000000000602082015250565b7f4552433732313a20617070726f76652063616c6c6572206973206e6f74206f7760008201527f6e6572206e6f7220617070726f76656420666f7220616c6c0000000000000000602082015250565b7f57686974656c6973742063616e6e6f7420657863656564203230303000000000600082015250565b7f4552433732313a2062616c616e636520717565727920666f7220746865207a6560008201527f726f206164647265737300000000000000000000000000000000000000000000602082015250565b7f4552433732313a206f776e657220717565727920666f72206e6f6e657869737460008201527f656e7420746f6b656e0000000000000000000000000000000000000000000000602082015250565b7f4552433732313a206d696e7420746f20746865207a65726f2061646472657373600082015250565b7f50726573616c65206973206e6f74207061757365640000000000000000000000600082015250565b7f4552433732313a20617070726f76656420717565727920666f72206e6f6e657860008201527f697374656e7420746f6b656e0000000000000000000000000000000000000000602082015250565b7f546865726520617265206e6f2073616c65732061742074686973207465726d6960008201527f6e61746564000000000000000000000000000000000000000000000000000000602082015250565b7f4552433732314d657461646174613a2055524920736574206f66206e6f6e657860008201527f697374656e7420746f6b656e0000000000000000000000000000000000000000602082015250565b7f4f776e61626c653a2063616c6c6572206973206e6f7420746865206f776e6572600082015250565b7f4552433732313a207472616e73666572206f6620746f6b656e2074686174206960008201527f73206e6f74206f776e0000000000000000000000000000000000000000000000602082015250565b7f4552433732314d657461646174613a2055524920717565727920666f72206e6f60008201527f6e6578697374656e7420746f6b656e0000000000000000000000000000000000602082015250565b7f43616e6e6f74206d696e74206d6f7265207468616e20323520746f6b656e7300600082015250565b7f4d757374206d696e74206174206c65617374206f6e6520746f6b656e00000000600082015250565b7f4552433732313a20617070726f76616c20746f2063757272656e74206f776e6560008201527f7200000000000000000000000000000000000000000000000000000000000000602082015250565b7f42616c616e6365206973206c657373207468616e202e31206574680000000000600082015250565b7f4e6f6e6578697374656e7420746f6b656e20666f7220726f79616c747920706160008201527f796d656e74000000000000000000000000000000000000000000000000000000602082015250565b7f50726573616c652c206c696d6974656420616d6f756e74206f6620746f6b656e60008201527f7300000000000000000000000000000000000000000000000000000000000000602082015250565b7f4769766561776179206e6f742061637469766500000000000000000000000000600082015250565b7f4552433732313a207472616e736665722063616c6c6572206973206e6f74206f60008201527f776e6572206e6f7220617070726f766564000000000000000000000000000000602082015250565b7f50726573616c65206973206e6f74206163746976650000000000000000000000600082015250565b7f496e73756666696369656e742066756e64733a2045746865722076616c75652060008201527f646f6573206e6f74206d61746368207075626c69632073616c6520707269636560208201527f2e00000000000000000000000000000000000000000000000000000000000000604082015250565b7f496e73756666696369656e742066756e64733a2045746865722076616c75652060008201527f646f6573206e6f74206d617463682070726573616c652070726963652e000000602082015250565b7f5265656e7472616e637947756172643a207265656e7472616e742063616c6c00600082015250565b7f4769766561776179206e6f742070617573656400000000000000000000000000600082015250565b7f4e6f20746f6b656e73206c656674210000000000000000000000000000000000600082015250565b6158f381614df7565b81146158fe57600080fd5b50565b61590a81614e09565b811461591557600080fd5b50565b61592181614e15565b811461592c57600080fd5b50565b61593881614e61565b811461594357600080fd5b5056fea26469706673582212203b0f512df071c18c59a93f90b8812fc9ba1aa05094c4f521ebea9297c315357664736f6c63430008040033",
  "linkReferences": {},
  "deployedLinkReferences": {}
}