{
  "_format": "hh-sol-artifact-1",
  "contractName": "Turtleverse",
  "sourceName": "contracts/Turtleverse.sol",
  "abi": [
    {
      "inputs": [
        {
          "internalType": "string",
          "name": "name_",
          "type": "string"
        },
        {
          "internalType": "string",
          "name": "symbol_",
          "type": "string"
        },
        {
          "internalType": "string",
          "name": "baseURI_",
          "type": "string"
        },
        {
          "internalType": "uint256",
          "name": "maxSupply_",
          "type": "uint256"
        },
        {
          "internalType": "uint256",
          "name": "maxWithdrawal_",
          "type": "uint256"
        },
        {
          "internalType": "uint8",
          "name": "presaleLimit_",
          "type": "uint8"
        },
        {
          "internalType": "uint8",
          "name": "saleLimit_",
          "type": "uint8"
        },
        {
          "internalType": "address payable",
          "name": "payout_",
          "type": "address"
        }
      ],
      "stateMutability": "nonpayable",
      "type": "constructor"
    },
    {
      "anonymous": false,
      "inputs": [
        {
          "indexed": true,
          "internalType": "address",
          "name": "_address",
          "type": "address"
        }
      ],
      "name": "AddedToWhitelist",
      "type": "event"
    },
    {
      "anonymous": false,
      "inputs": [
        {
          "indexed": true,
          "internalType": "address",
          "name": "owner",
          "type": "address"
        },
        {
          "indexed": true,
          "internalType": "address",
          "name": "approved",
          "type": "address"
        },
        {
          "indexed": true,
          "internalType": "uint256",
          "name": "tokenId",
          "type": "uint256"
        }
      ],
      "name": "Approval",
      "type": "event"
    },
    {
      "anonymous": false,
      "inputs": [
        {
          "indexed": true,
          "internalType": "address",
          "name": "owner",
          "type": "address"
        },
        {
          "indexed": true,
          "internalType": "address",
          "name": "operator",
          "type": "address"
        },
        {
          "indexed": false,
          "internalType": "bool",
          "name": "approved",
          "type": "bool"
        }
      ],
      "name": "ApprovalForAll",
      "type": "event"
    },
    {
      "anonymous": false,
      "inputs": [
        {
          "indexed": true,
          "internalType": "uint256",
          "name": "_giveawayStopTime",
          "type": "uint256"
        }
      ],
      "name": "GiveawayPaused",
      "type": "event"
    },
    {
      "anonymous": false,
      "inputs": [
        {
          "indexed": true,
          "internalType": "uint256",
          "name": "_giveawayStartTime",
          "type": "uint256"
        }
      ],
      "name": "GiveawayStart",
      "type": "event"
    },
    {
      "anonymous": false,
      "inputs": [
        {
          "indexed": true,
          "internalType": "address",
          "name": "previousOwner",
          "type": "address"
        },
        {
          "indexed": true,
          "internalType": "address",
          "name": "newOwner",
          "type": "address"
        }
      ],
      "name": "OwnershipTransferred",
      "type": "event"
    },
    {
      "anonymous": false,
      "inputs": [
        {
          "indexed": true,
          "internalType": "uint256",
          "name": "_presaleStopTime",
          "type": "uint256"
        }
      ],
      "name": "PresalePaused",
      "type": "event"
    },
    {
      "anonymous": false,
      "inputs": [
        {
          "indexed": true,
          "internalType": "uint256",
          "name": "_presaleStartTime",
          "type": "uint256"
        }
      ],
      "name": "PresaleStart",
      "type": "event"
    },
    {
      "anonymous": false,
      "inputs": [
        {
          "indexed": true,
          "internalType": "address",
          "name": "_address",
          "type": "address"
        }
      ],
      "name": "RemovedFromWhitelist",
      "type": "event"
    },
    {
      "anonymous": false,
      "inputs": [
        {
          "indexed": true,
          "internalType": "uint256",
          "name": "_saleStopTime",
          "type": "uint256"
        }
      ],
      "name": "SalePaused",
      "type": "event"
    },
    {
      "anonymous": false,
      "inputs": [
        {
          "indexed": true,
          "internalType": "uint256",
          "name": "_saleStartTime",
          "type": "uint256"
        }
      ],
      "name": "SaleStart",
      "type": "event"
    },
    {
      "anonymous": false,
      "inputs": [
        {
          "indexed": true,
          "internalType": "address",
          "name": "from",
          "type": "address"
        },
        {
          "indexed": true,
          "internalType": "address",
          "name": "to",
          "type": "address"
        },
        {
          "indexed": true,
          "internalType": "uint256",
          "name": "tokenId",
          "type": "uint256"
        }
      ],
      "name": "Transfer",
      "type": "event"
    },
    {
      "inputs": [
        {
          "internalType": "address[]",
          "name": "addresses",
          "type": "address[]"
        }
      ],
      "name": "addToWhitelist",
      "outputs": [],
      "stateMutability": "nonpayable",
      "type": "function"
    },
    {
      "inputs": [
        {
          "internalType": "address",
          "name": "to",
          "type": "address"
        },
        {
          "internalType": "uint256",
          "name": "tokenId",
          "type": "uint256"
        }
      ],
      "name": "approve",
      "outputs": [],
      "stateMutability": "nonpayable",
      "type": "function"
    },
    {
      "inputs": [
        {
          "internalType": "address",
          "name": "owner",
          "type": "address"
        }
      ],
      "name": "balanceOf",
      "outputs": [
        {
          "internalType": "uint256",
          "name": "",
          "type": "uint256"
        }
      ],
      "stateMutability": "view",
      "type": "function"
    },
    {
      "inputs": [
        {
          "internalType": "uint256",
          "name": "tokenId",
          "type": "uint256"
        }
      ],
      "name": "getApproved",
      "outputs": [
        {
          "internalType": "address",
          "name": "",
          "type": "address"
        }
      ],
      "stateMutability": "view",
      "type": "function"
    },
    {
      "inputs": [],
      "name": "giveawayActive",
      "outputs": [
        {
          "internalType": "bool",
          "name": "",
          "type": "bool"
        }
      ],
      "stateMutability": "view",
      "type": "function"
    },
    {
      "inputs": [],
      "name": "giveawayPriceToMint",
      "outputs": [
        {
          "internalType": "uint256",
          "name": "",
          "type": "uint256"
        }
      ],
      "stateMutability": "view",
      "type": "function"
    },
    {
      "inputs": [
        {
          "internalType": "address",
          "name": "owner",
          "type": "address"
        },
        {
          "internalType": "address",
          "name": "operator",
          "type": "address"
        }
      ],
      "name": "isApprovedForAll",
      "outputs": [
        {
          "internalType": "bool",
          "name": "",
          "type": "bool"
        }
      ],
      "stateMutability": "view",
      "type": "function"
    },
    {
      "inputs": [
        {
          "internalType": "uint256",
          "name": "tokensAmount",
          "type": "uint256"
        },
        {
          "internalType": "string[]",
          "name": "tokenHashes",
          "type": "string[]"
        }
      ],
      "name": "mintTokens",
      "outputs": [
        {
          "internalType": "uint256[]",
          "name": "",
          "type": "uint256[]"
        }
      ],
      "stateMutability": "payable",
      "type": "function"
    },
    {
      "inputs": [],
      "name": "name",
      "outputs": [
        {
          "internalType": "string",
          "name": "",
          "type": "string"
        }
      ],
      "stateMutability": "view",
      "type": "function"
    },
    {
      "inputs": [],
      "name": "owner",
      "outputs": [
        {
          "internalType": "address",
          "name": "",
          "type": "address"
        }
      ],
      "stateMutability": "view",
      "type": "function"
    },
    {
      "inputs": [
        {
          "internalType": "uint256",
          "name": "tokenId",
          "type": "uint256"
        }
      ],
      "name": "ownerOf",
      "outputs": [
        {
          "internalType": "address",
          "name": "",
          "type": "address"
        }
      ],
      "stateMutability": "view",
      "type": "function"
    },
    {
      "inputs": [],
      "name": "pauseGiveaway",
      "outputs": [],
      "stateMutability": "nonpayable",
      "type": "function"
    },
    {
      "inputs": [],
      "name": "pausePresale",
      "outputs": [],
      "stateMutability": "nonpayable",
      "type": "function"
    },
    {
      "inputs": [],
      "name": "pausePublicSale",
      "outputs": [],
      "stateMutability": "nonpayable",
      "type": "function"
    },
    {
      "inputs": [],
      "name": "presaleActive",
      "outputs": [
        {
          "internalType": "bool",
          "name": "",
          "type": "bool"
        }
      ],
      "stateMutability": "view",
      "type": "function"
    },
    {
      "inputs": [],
      "name": "presalePriceToMint",
      "outputs": [
        {
          "internalType": "uint256",
          "name": "",
          "type": "uint256"
        }
      ],
      "stateMutability": "view",
      "type": "function"
    },
    {
      "inputs": [],
      "name": "price",
      "outputs": [
        {
          "internalType": "uint256",
          "name": "",
          "type": "uint256"
        }
      ],
      "stateMutability": "view",
      "type": "function"
    },
    {
      "inputs": [],
      "name": "priceToMint",
      "outputs": [
        {
          "internalType": "uint256",
          "name": "",
          "type": "uint256"
        }
      ],
      "stateMutability": "view",
      "type": "function"
    },
    {
      "inputs": [
        {
          "internalType": "address",
          "name": "",
          "type": "address"
        }
      ],
      "name": "purchasedAmount",
      "outputs": [
        {
          "internalType": "uint256",
          "name": "",
          "type": "uint256"
        }
      ],
      "stateMutability": "view",
      "type": "function"
    },
    {
      "inputs": [
        {
          "internalType": "address[]",
          "name": "addresses",
          "type": "address[]"
        }
      ],
      "name": "removeFromWhitelist",
      "outputs": [],
      "stateMutability": "nonpayable",
      "type": "function"
    },
    {
      "inputs": [],
      "name": "renounceOwnership",
      "outputs": [],
      "stateMutability": "nonpayable",
      "type": "function"
    },
    {
      "inputs": [
        {
          "internalType": "uint256",
          "name": "_tokenId",
          "type": "uint256"
        },
        {
          "internalType": "uint256",
          "name": "_salePrice",
          "type": "uint256"
        }
      ],
      "name": "royaltyInfo",
      "outputs": [
        {
          "internalType": "address",
          "name": "receiver",
          "type": "address"
        },
        {
          "internalType": "uint256",
          "name": "royaltyAmount",
          "type": "uint256"
        }
      ],
      "stateMutability": "view",
      "type": "function"
    },
    {
      "inputs": [
        {
          "internalType": "address",
          "name": "from",
          "type": "address"
        },
        {
          "internalType": "address",
          "name": "to",
          "type": "address"
        },
        {
          "internalType": "uint256",
          "name": "tokenId",
          "type": "uint256"
        }
      ],
      "name": "safeTransferFrom",
      "outputs": [],
      "stateMutability": "nonpayable",
      "type": "function"
    },
    {
      "inputs": [
        {
          "internalType": "address",
          "name": "from",
          "type": "address"
        },
        {
          "internalType": "address",
          "name": "to",
          "type": "address"
        },
        {
          "internalType": "uint256",
          "name": "tokenId",
          "type": "uint256"
        },
        {
          "internalType": "bytes",
          "name": "_data",
          "type": "bytes"
        }
      ],
      "name": "safeTransferFrom",
      "outputs": [],
      "stateMutability": "nonpayable",
      "type": "function"
    },
    {
      "inputs": [],
      "name": "saleActive",
      "outputs": [
        {
          "internalType": "bool",
          "name": "",
          "type": "bool"
        }
      ],
      "stateMutability": "view",
      "type": "function"
    },
    {
      "inputs": [
        {
          "internalType": "address",
          "name": "operator",
          "type": "address"
        },
        {
          "internalType": "bool",
          "name": "approved",
          "type": "bool"
        }
      ],
      "name": "setApprovalForAll",
      "outputs": [],
      "stateMutability": "nonpayable",
      "type": "function"
    },
    {
      "inputs": [],
      "name": "startGiveaway",
      "outputs": [],
      "stateMutability": "nonpayable",
      "type": "function"
    },
    {
      "inputs": [],
      "name": "startPresale",
      "outputs": [],
      "stateMutability": "nonpayable",
      "type": "function"
    },
    {
      "inputs": [],
      "name": "startPublicSale",
      "outputs": [],
      "stateMutability": "nonpayable",
      "type": "function"
    },
    {
      "inputs": [
        {
          "internalType": "bytes4",
          "name": "interfaceId",
          "type": "bytes4"
        }
      ],
      "name": "supportsInterface",
      "outputs": [
        {
          "internalType": "bool",
          "name": "",
          "type": "bool"
        }
      ],
      "stateMutability": "view",
      "type": "function"
    },
    {
      "inputs": [],
      "name": "symbol",
      "outputs": [
        {
          "internalType": "string",
          "name": "",
          "type": "string"
        }
      ],
      "stateMutability": "view",
      "type": "function"
    },
    {
      "inputs": [
        {
          "internalType": "uint256",
          "name": "tokenId",
          "type": "uint256"
        }
      ],
      "name": "tokenURI",
      "outputs": [
        {
          "internalType": "string",
          "name": "",
          "type": "string"
        }
      ],
      "stateMutability": "view",
      "type": "function"
    },
    {
      "inputs": [
        {
          "internalType": "address",
          "name": "from",
          "type": "address"
        },
        {
          "internalType": "address",
          "name": "to",
          "type": "address"
        },
        {
          "internalType": "uint256",
          "name": "tokenId",
          "type": "uint256"
        }
      ],
      "name": "transferFrom",
      "outputs": [],
      "stateMutability": "nonpayable",
      "type": "function"
    },
    {
      "inputs": [
        {
          "internalType": "address",
          "name": "newOwner",
          "type": "address"
        }
      ],
      "name": "transferOwnership",
      "outputs": [],
      "stateMutability": "nonpayable",
      "type": "function"
    },
    {
      "inputs": [],
      "name": "withdraw",
      "outputs": [],
      "stateMutability": "nonpayable",
      "type": "function"
    }
  ],
  "bytecode": "0x608060405260006011556658d15e1762800060125566b1a2bc2ec500006013553480156200002c57600080fd5b506040516200625b3803806200625b833981810160405281019062000052919062000391565b878781600090805190602001906200006c9291906200022a565b508060019080519060200190620000859291906200022a565b505050620000a86200009c6200015c60201b60201c565b6200016460201b60201c565b600160078190555085600c9080519060200190620000c89291906200022a565b5084600d8190555083600e8190555082600f60006101000a81548160ff021916908360ff16021790555081600f60016101000a81548160ff021916908360ff16021790555080600f60026101000a81548173ffffffffffffffffffffffffffffffffffffffff021916908373ffffffffffffffffffffffffffffffffffffffff1602179055505050505050505050620006a8565b600033905090565b6000600660009054906101000a900473ffffffffffffffffffffffffffffffffffffffff16905081600660006101000a81548173ffffffffffffffffffffffffffffffffffffffff021916908373ffffffffffffffffffffffffffffffffffffffff1602179055508173ffffffffffffffffffffffffffffffffffffffff168173ffffffffffffffffffffffffffffffffffffffff167f8be0079c531659141344cd1fd0a4f28419497f9722a3daafe3b4186f6b6457e060405160405180910390a35050565b82805462000238906200057f565b90600052602060002090601f0160209004810192826200025c5760008555620002a8565b82601f106200027757805160ff1916838001178555620002a8565b82800160010185558215620002a8579182015b82811115620002a75782518255916020019190600101906200028a565b5b509050620002b79190620002bb565b5090565b5b80821115620002d6576000816000905550600101620002bc565b5090565b6000620002f1620002eb84620004c8565b6200049f565b9050828152602081018484840111156200030a57600080fd5b6200031784828562000549565b509392505050565b60008151905062000330816200065a565b92915050565b600082601f8301126200034857600080fd5b81516200035a848260208601620002da565b91505092915050565b600081519050620003748162000674565b92915050565b6000815190506200038b816200068e565b92915050565b600080600080600080600080610100898b031215620003af57600080fd5b600089015167ffffffffffffffff811115620003ca57600080fd5b620003d88b828c0162000336565b985050602089015167ffffffffffffffff811115620003f657600080fd5b620004048b828c0162000336565b975050604089015167ffffffffffffffff8111156200042257600080fd5b620004308b828c0162000336565b9650506060620004438b828c0162000363565b9550506080620004568b828c0162000363565b94505060a0620004698b828c016200037a565b93505060c06200047c8b828c016200037a565b92505060e06200048f8b828c016200031f565b9150509295985092959890939650565b6000620004ab620004be565b9050620004b98282620005b5565b919050565b6000604051905090565b600067ffffffffffffffff821115620004e657620004e56200061a565b5b620004f18262000649565b9050602081019050919050565b60006200050b8262000512565b9050919050565b600073ffffffffffffffffffffffffffffffffffffffff82169050919050565b6000819050919050565b600060ff82169050919050565b60005b83811015620005695780820151818401526020810190506200054c565b8381111562000579576000848401525b50505050565b600060028204905060018216806200059857607f821691505b60208210811415620005af57620005ae620005eb565b5b50919050565b620005c08262000649565b810181811067ffffffffffffffff82111715620005e257620005e16200061a565b5b80604052505050565b7f4e487b7100000000000000000000000000000000000000000000000000000000600052602260045260246000fd5b7f4e487b7100000000000000000000000000000000000000000000000000000000600052604160045260246000fd5b6000601f19601f8301169050919050565b6200066581620004fe565b81146200067157600080fd5b50565b6200067f8162000532565b81146200068b57600080fd5b50565b62000699816200053c565b8114620006a557600080fd5b50565b615ba380620006b86000396000f3fe6080604052600436106102045760003560e01c806353135ca01161011857806395d89b41116100a0578063c0f98e331161006f578063c0f98e33146106d2578063c87b56dd14610702578063dc9403a61461073f578063e985e9c51461076a578063f2fde38b146107a757610204565b806395d89b411461062a578063a035b1fe14610655578063a22cb46514610680578063b88d4fde146106a957610204565b806370a08231116100e757806370a082311461056b578063715018a6146105a85780637c0f8aa0146105bf5780637f649783146105d65780638da5cb5b146105ff57610204565b806353135ca0146104af578063548db174146104da5780636352211e1461050357806368428a1b1461054057610204565b80630c41f4971161019b5780633ccfd60b1161016a5780633ccfd60b146103dc57806342842e0e146103f357806344c4dcc11461041c5780634616d4b2146104595780634dc1dbec1461048457610204565b80630c41f4971461033357806323b872dd1461034a5780632a55205a146103735780632b3f4d92146103b157610204565b8063070f5c09116101d7578063070f5c091461029f578063081812fc146102b6578063095ea7b3146102f35780630c1c972a1461031c57610204565b806301ffc9a71461020957806304c98b2b1461024657806305e4e88a1461025d57806306fdde0314610274575b600080fd5b34801561021557600080fd5b50610230600480360381019061022b9190613fd5565b6107d0565b60405161023d919061481e565b60405180910390f35b34801561025257600080fd5b5061025b6108b2565b005b34801561026957600080fd5b50610272610a68565b005b34801561028057600080fd5b50610289610c1e565b6040516102969190614839565b60405180910390f35b3480156102ab57600080fd5b506102b4610cb0565b005b3480156102c257600080fd5b506102dd60048036038101906102d89190614027565b610e65565b6040516102ea919061476c565b60405180910390f35b3480156102ff57600080fd5b5061031a60048036038101906103159190613f58565b610eea565b005b34801561032857600080fd5b50610331611002565b005b34801561033f57600080fd5b506103486111b8565b005b34801561035657600080fd5b50610371600480360381019061036c9190613e52565b61136d565b005b34801561037f57600080fd5b5061039a600480360381019061039591906140a8565b6113cd565b6040516103a89291906147d3565b60405180910390f35b3480156103bd57600080fd5b506103c66114bd565b6040516103d39190614cfb565b60405180910390f35b3480156103e857600080fd5b506103f16114c3565b005b3480156103ff57600080fd5b5061041a60048036038101906104159190613e52565b6116a3565b005b34801561042857600080fd5b50610443600480360381019061043e9190613ded565b6116c3565b6040516104509190614cfb565b60405180910390f35b34801561046557600080fd5b5061046e6116db565b60405161047b919061481e565b60405180910390f35b34801561049057600080fd5b506104996116ee565b6040516104a69190614cfb565b60405180910390f35b3480156104bb57600080fd5b506104c46116f4565b6040516104d1919061481e565b60405180910390f35b3480156104e657600080fd5b5061050160048036038101906104fc9190613f94565b611707565b005b34801561050f57600080fd5b5061052a60048036038101906105259190614027565b6118ca565b604051610537919061476c565b60405180910390f35b34801561054c57600080fd5b5061055561197c565b604051610562919061481e565b60405180910390f35b34801561057757600080fd5b50610592600480360381019061058d9190613ded565b61198f565b60405161059f9190614cfb565b60405180910390f35b3480156105b457600080fd5b506105bd611a47565b005b3480156105cb57600080fd5b506105d4611acf565b005b3480156105e257600080fd5b506105fd60048036038101906105f89190613f94565b611c84565b005b34801561060b57600080fd5b50610614611e47565b604051610621919061476c565b60405180910390f35b34801561063657600080fd5b5061063f611e71565b60405161064c9190614839565b60405180910390f35b34801561066157600080fd5b5061066a611f03565b6040516106779190614cfb565b60405180910390f35b34801561068c57600080fd5b506106a760048036038101906106a29190613f1c565b611fc9565b005b3480156106b557600080fd5b506106d060048036038101906106cb9190613ea1565b611fdf565b005b6106ec60048036038101906106e79190614050565b612041565b6040516106f991906147fc565b60405180910390f35b34801561070e57600080fd5b5061072960048036038101906107249190614027565b612387565b6040516107369190614839565b60405180910390f35b34801561074b57600080fd5b5061075461257d565b6040516107619190614cfb565b60405180910390f35b34801561077657600080fd5b50610791600480360381019061078c9190613e16565b612583565b60405161079e919061481e565b60405180910390f35b3480156107b357600080fd5b506107ce60048036038101906107c99190613ded565b612617565b005b60007f80ac58cd000000000000000000000000000000000000000000000000000000007bffffffffffffffffffffffffffffffffffffffffffffffffffffffff1916827bffffffffffffffffffffffffffffffffffffffffffffffffffffffff1916148061089b57507f5b5e139f000000000000000000000000000000000000000000000000000000007bffffffffffffffffffffffffffffffffffffffffffffffffffffffff1916827bffffffffffffffffffffffffffffffffffffffffffffffffffffffff1916145b806108ab57506108aa8261270f565b5b9050919050565b6108ba612779565b73ffffffffffffffffffffffffffffffffffffffff166108d8611e47565b73ffffffffffffffffffffffffffffffffffffffff161461092e576040517f08c379a000000000000000000000000000000000000000000000000000000000815260040161092590614b1b565b60405180910390fd5b601460009054906101000a900460ff161561097e576040517f08c379a000000000000000000000000000000000000000000000000000000000815260040161097590614cbb565b60405180910390fd5b601460019054906101000a900460ff16156109ce576040517f08c379a00000000000000000000000000000000000000000000000000000000081526004016109c590614a9b565b60405180910390fd5b601460029054906101000a900460ff1615610a1e576040517f08c379a0000000000000000000000000000000000000000000000000000000008152600401610a159061497b565b60405180910390fd5b6001601460016101000a81548160ff021916908315150217905550427f0ab3861e918916d082a16babf84acd725febc223f0833c5c03d8b14ec900174360405160405180910390a2565b610a70612779565b73ffffffffffffffffffffffffffffffffffffffff16610a8e611e47565b73ffffffffffffffffffffffffffffffffffffffff1614610ae4576040517f08c379a0000000000000000000000000000000000000000000000000000000008152600401610adb90614b1b565b60405180910390fd5b601460009054906101000a900460ff1615610b34576040517f08c379a0000000000000000000000000000000000000000000000000000000008152600401610b2b90614cbb565b60405180910390fd5b601460019054906101000a900460ff1615610b84576040517f08c379a0000000000000000000000000000000000000000000000000000000008152600401610b7b90614a9b565b60405180910390fd5b601460029054906101000a900460ff1615610bd4576040517f08c379a0000000000000000000000000000000000000000000000000000000008152600401610bcb9061497b565b60405180910390fd5b6001601460006101000a81548160ff021916908315150217905550427fea160f4a1725183ff307b55e355bb04139d56298efc5853e17f99ade82e2f38960405160405180910390a2565b606060008054610c2d90615036565b80601f0160208091040260200160405190810160405280929190818152602001828054610c5990615036565b8015610ca65780601f10610c7b57610100808354040283529160200191610ca6565b820191906000526020600020905b815481529060010190602001808311610c8957829003601f168201915b5050505050905090565b610cb8612779565b73ffffffffffffffffffffffffffffffffffffffff16610cd6611e47565b73ffffffffffffffffffffffffffffffffffffffff1614610d2c576040517f08c379a0000000000000000000000000000000000000000000000000000000008152600401610d2390614b1b565b60405180910390fd5b601460009054906101000a900460ff1615610d7c576040517f08c379a0000000000000000000000000000000000000000000000000000000008152600401610d7390614cbb565b60405180910390fd5b601460029054906101000a900460ff1615610dcc576040517f08c379a0000000000000000000000000000000000000000000000000000000008152600401610dc39061497b565b60405180910390fd5b601460019054906101000a900460ff16610e1b576040517f08c379a0000000000000000000000000000000000000000000000000000000008152600401610e1290614c1b565b60405180910390fd5b6000601460016101000a81548160ff021916908315150217905550427fbbda50ff3083b4adfffcd3c2e8042a8b354ca16013534ab9367661c5a4cb7b2360405160405180910390a2565b6000610e7082612781565b610eaf576040517f08c379a0000000000000000000000000000000000000000000000000000000008152600401610ea690614abb565b60405180910390fd5b6004600083815260200190815260200160002060009054906101000a900473ffffffffffffffffffffffffffffffffffffffff169050919050565b6000610ef5826118ca565b90508073ffffffffffffffffffffffffffffffffffffffff168373ffffffffffffffffffffffffffffffffffffffff161415610f66576040517f08c379a0000000000000000000000000000000000000000000000000000000008152600401610f5d90614b9b565b60405180910390fd5b8073ffffffffffffffffffffffffffffffffffffffff16610f85612779565b73ffffffffffffffffffffffffffffffffffffffff161480610fb45750610fb381610fae612779565b612583565b5b610ff3576040517f08c379a0000000000000000000000000000000000000000000000000000000008152600401610fea906149fb565b60405180910390fd5b610ffd83836127ed565b505050565b61100a612779565b73ffffffffffffffffffffffffffffffffffffffff16611028611e47565b73ffffffffffffffffffffffffffffffffffffffff161461107e576040517f08c379a000000000000000000000000000000000000000000000000000000000815260040161107590614b1b565b60405180910390fd5b601460009054906101000a900460ff16156110ce576040517f08c379a00000000000000000000000000000000000000000000000000000000081526004016110c590614cbb565b60405180910390fd5b601460019054906101000a900460ff161561111e576040517f08c379a000000000000000000000000000000000000000000000000000000000815260040161111590614a9b565b60405180910390fd5b601460029054906101000a900460ff161561116e576040517f08c379a00000000000000000000000000000000000000000000000000000000081526004016111659061497b565b60405180910390fd5b6001601460026101000a81548160ff021916908315150217905550427feeae71454a2a58ac8d7c3a2ac3db1f29f81cbd0024aae4292a55139dd9d3560a60405160405180910390a2565b6111c0612779565b73ffffffffffffffffffffffffffffffffffffffff166111de611e47565b73ffffffffffffffffffffffffffffffffffffffff1614611234576040517f08c379a000000000000000000000000000000000000000000000000000000000815260040161122b90614b1b565b60405180910390fd5b601460009054906101000a900460ff1615611284576040517f08c379a000000000000000000000000000000000000000000000000000000000815260040161127b90614cbb565b60405180910390fd5b601460019054906101000a900460ff16156112d4576040517f08c379a00000000000000000000000000000000000000000000000000000000081526004016112cb90614a9b565b60405180910390fd5b601460029054906101000a900460ff16611323576040517f08c379a000000000000000000000000000000000000000000000000000000000815260040161131a9061495b565b60405180910390fd5b6000601460026101000a81548160ff021916908315150217905550427f4616a0782e5635981b28be1cd36934a60655b462c370d8bd8092c969abc990d060405160405180910390a2565b61137e611378612779565b826128a6565b6113bd576040517f08c379a00000000000000000000000000000000000000000000000000000000081526004016113b490614bfb565b60405180910390fd5b6113c8838383612984565b505050565b6000806113d984612781565b611418576040517f08c379a000000000000000000000000000000000000000000000000000000000815260040161140f90614bbb565b60405180910390fd5b600073ffffffffffffffffffffffffffffffffffffffff16600f60029054906101000a900473ffffffffffffffffffffffffffffffffffffffff1673ffffffffffffffffffffffffffffffffffffffff16141561147457600080fd5b600f60029054906101000a900473ffffffffffffffffffffffffffffffffffffffff16612710610320856114a89190614ef2565b6114b29190614ec1565b915091509250929050565b60115481565b6114cb612779565b73ffffffffffffffffffffffffffffffffffffffff166114e9611e47565b73ffffffffffffffffffffffffffffffffffffffff161461153f576040517f08c379a000000000000000000000000000000000000000000000000000000000815260040161153690614b1b565b60405180910390fd5b60026007541415611585576040517f08c379a000000000000000000000000000000000000000000000000000000000815260040161157c90614c7b565b60405180910390fd5b600260078190555047600e5411156115d2576040517f08c379a00000000000000000000000000000000000000000000000000000000081526004016115c9906149db565b60405180910390fd5b600073ffffffffffffffffffffffffffffffffffffffff16600f60029054906101000a900473ffffffffffffffffffffffffffffffffffffffff1673ffffffffffffffffffffffffffffffffffffffff16141561162e57600080fd5b600f60029054906101000a900473ffffffffffffffffffffffffffffffffffffffff1673ffffffffffffffffffffffffffffffffffffffff166108fc600e549081150290604051600060405180830381858888f19350505050158015611698573d6000803e3d6000fd5b506001600781905550565b6116be83838360405180602001604052806000815250611fdf565b505050565b60106020528060005260406000206000915090505481565b601460009054906101000a900460ff1681565b60135481565b601460019054906101000a900460ff1681565b61170f612779565b73ffffffffffffffffffffffffffffffffffffffff1661172d611e47565b73ffffffffffffffffffffffffffffffffffffffff1614611783576040517f08c379a000000000000000000000000000000000000000000000000000000000815260040161177a90614b1b565b60405180910390fd5b6107d0815111156117c9576040517f08c379a00000000000000000000000000000000000000000000000000000000081526004016117c090614a1b565b60405180910390fd5b60005b81518110156118c657611829828281518110611811577f4e487b7100000000000000000000000000000000000000000000000000000000600052603260045260246000fd5b6020026020010151600a612be090919063ffffffff16565b156118b257818181518110611867577f4e487b7100000000000000000000000000000000000000000000000000000000600052603260045260246000fd5b602002602001015173ffffffffffffffffffffffffffffffffffffffff167fcdd2e9b91a56913d370075169cefa1602ba36be5301664f752192bb1709df75760405160405180910390a25b6001816118bf9190614e6b565b90506117cc565b5050565b6000806002600084815260200190815260200160002060009054906101000a900473ffffffffffffffffffffffffffffffffffffffff169050600073ffffffffffffffffffffffffffffffffffffffff168173ffffffffffffffffffffffffffffffffffffffff161415611973576040517f08c379a000000000000000000000000000000000000000000000000000000000815260040161196a90614a5b565b60405180910390fd5b80915050919050565b601460029054906101000a900460ff1681565b60008073ffffffffffffffffffffffffffffffffffffffff168273ffffffffffffffffffffffffffffffffffffffff161415611a00576040517f08c379a00000000000000000000000000000000000000000000000000000000081526004016119f790614a3b565b60405180910390fd5b600360008373ffffffffffffffffffffffffffffffffffffffff1673ffffffffffffffffffffffffffffffffffffffff168152602001908152602001600020549050919050565b611a4f612779565b73ffffffffffffffffffffffffffffffffffffffff16611a6d611e47565b73ffffffffffffffffffffffffffffffffffffffff1614611ac3576040517f08c379a0000000000000000000000000000000000000000000000000000000008152600401611aba90614b1b565b60405180910390fd5b611acd6000612c10565b565b611ad7612779565b73ffffffffffffffffffffffffffffffffffffffff16611af5611e47565b73ffffffffffffffffffffffffffffffffffffffff1614611b4b576040517f08c379a0000000000000000000000000000000000000000000000000000000008152600401611b4290614b1b565b60405180910390fd5b601460019054906101000a900460ff1615611b9b576040517f08c379a0000000000000000000000000000000000000000000000000000000008152600401611b9290614a9b565b60405180910390fd5b601460029054906101000a900460ff1615611beb576040517f08c379a0000000000000000000000000000000000000000000000000000000008152600401611be29061497b565b60405180910390fd5b601460009054906101000a900460ff16611c3a576040517f08c379a0000000000000000000000000000000000000000000000000000000008152600401611c3190614bdb565b60405180910390fd5b6000601460006101000a81548160ff021916908315150217905550427f71fbf9de7004f7d16da327d0c26b8f8b29e6efeaa59d67d1b76d6cc71fe47aae60405160405180910390a2565b611c8c612779565b73ffffffffffffffffffffffffffffffffffffffff16611caa611e47565b73ffffffffffffffffffffffffffffffffffffffff1614611d00576040517f08c379a0000000000000000000000000000000000000000000000000000000008152600401611cf790614b1b565b60405180910390fd5b6107d081511115611d46576040517f08c379a0000000000000000000000000000000000000000000000000000000008152600401611d3d90614a1b565b60405180910390fd5b60005b8151811015611e4357611da6828281518110611d8e577f4e487b7100000000000000000000000000000000000000000000000000000000600052603260045260246000fd5b6020026020010151600a612cd690919063ffffffff16565b15611e2f57818181518110611de4577f4e487b7100000000000000000000000000000000000000000000000000000000600052603260045260246000fd5b602002602001015173ffffffffffffffffffffffffffffffffffffffff167fa850ae9193f515cbae8d35e8925bd2be26627fc91bce650b8652ed254e9cab0360405160405180910390a25b600181611e3c9190614e6b565b9050611d49565b5050565b6000600660009054906101000a900473ffffffffffffffffffffffffffffffffffffffff16905090565b606060018054611e8090615036565b80601f0160208091040260200160405190810160405280929190818152602001828054611eac90615036565b8015611ef95780601f10611ece57610100808354040283529160200191611ef9565b820191906000526020600020905b815481529060010190602001808311611edc57829003601f168201915b5050505050905090565b6000601460009054906101000a900460ff1680611f2c5750601460019054906101000a900460ff165b80611f435750601460029054906101000a900460ff165b611f82576040517f08c379a0000000000000000000000000000000000000000000000000000000008152600401611f7990614adb565b60405180910390fd5b601460009054906101000a900460ff1615611fa1576011549050611fc6565b601460019054906101000a900460ff1615611fc0576012549050611fc6565b60135490505b90565b611fdb611fd4612779565b8383612d06565b5050565b611ff0611fea612779565b836128a6565b61202f576040517f08c379a000000000000000000000000000000000000000000000000000000000815260040161202690614bfb565b60405180910390fd5b61203b84848484612e73565b50505050565b6060601460009054906101000a900460ff168061206a5750601460019054906101000a900460ff165b806120815750601460029054906101000a900460ff165b6120c0576040517f08c379a00000000000000000000000000000000000000000000000000000000081526004016120b790614adb565b60405180910390fd5b60026007541415612106576040517f08c379a00000000000000000000000000000000000000000000000000000000081526004016120fd90614c7b565b60405180910390fd5b6002600781905550612119848484612ecf565b60008467ffffffffffffffff81111561215b577f4e487b7100000000000000000000000000000000000000000000000000000000600052604160045260246000fd5b6040519080825280602002602001820160405280156121895781602001602082028036833780820191505090505b50905060005b858110156121f9576121a0336132cb565b8282815181106121d9577f4e487b7100000000000000000000000000000000000000000000000000000000600052603260045260246000fd5b6020026020010181815250506001816121f29190614e6b565b905061218f565b5060005b858110156122f0576122dc828281518110612241577f4e487b7100000000000000000000000000000000000000000000000000000000600052603260045260246000fd5b6020026020010151868684818110612282577f4e487b7100000000000000000000000000000000000000000000000000000000600052603260045260246000fd5b90506020028101906122949190614d16565b8080601f016020809104026020016040519081016040528093929190818152602001838380828437600081840152601f19601f820116905080830192505050505050506132f8565b6001816122e99190614e6b565b90506121fd565b50601460019054906101000a900460ff16806123185750601460029054906101000a900460ff165b156123745784601060003373ffffffffffffffffffffffffffffffffffffffff1673ffffffffffffffffffffffffffffffffffffffff168152602001908152602001600020600082825461236c9190614e6b565b925050819055505b8091505060016007819055509392505050565b606061239282612781565b6123d1576040517f08c379a00000000000000000000000000000000000000000000000000000000081526004016123c890614b5b565b60405180910390fd5b60006009600084815260200190815260200160002080546123f190615036565b80601f016020809104026020016040519081016040528092919081815260200182805461241d90615036565b801561246a5780601f1061243f5761010080835404028352916020019161246a565b820191906000526020600020905b81548152906001019060200180831161244d57829003601f168201915b505050505090506000600c805461248090615036565b80601f01602080910402602001604051908101604052809291908181526020018280546124ac90615036565b80156124f95780601f106124ce576101008083540402835291602001916124f9565b820191906000526020600020905b8154815290600101906020018083116124dc57829003601f168201915b50505050509050600081511415612514578192505050612578565b600082511115612549578082604051602001612531929190614748565b60405160208183030381529060405292505050612578565b806125538561336c565b604051602001612564929190614748565b604051602081830303815290604052925050505b919050565b60125481565b6000600560008473ffffffffffffffffffffffffffffffffffffffff1673ffffffffffffffffffffffffffffffffffffffff16815260200190815260200160002060008373ffffffffffffffffffffffffffffffffffffffff1673ffffffffffffffffffffffffffffffffffffffff16815260200190815260200160002060009054906101000a900460ff16905092915050565b61261f612779565b73ffffffffffffffffffffffffffffffffffffffff1661263d611e47565b73ffffffffffffffffffffffffffffffffffffffff1614612693576040517f08c379a000000000000000000000000000000000000000000000000000000000815260040161268a90614b1b565b60405180910390fd5b600073ffffffffffffffffffffffffffffffffffffffff168173ffffffffffffffffffffffffffffffffffffffff161415612703576040517f08c379a00000000000000000000000000000000000000000000000000000000081526004016126fa906148bb565b60405180910390fd5b61270c81612c10565b50565b60007f01ffc9a7000000000000000000000000000000000000000000000000000000007bffffffffffffffffffffffffffffffffffffffffffffffffffffffff1916827bffffffffffffffffffffffffffffffffffffffffffffffffffffffff1916149050919050565b600033905090565b60008073ffffffffffffffffffffffffffffffffffffffff166002600084815260200190815260200160002060009054906101000a900473ffffffffffffffffffffffffffffffffffffffff1673ffffffffffffffffffffffffffffffffffffffff1614159050919050565b816004600083815260200190815260200160002060006101000a81548173ffffffffffffffffffffffffffffffffffffffff021916908373ffffffffffffffffffffffffffffffffffffffff160217905550808273ffffffffffffffffffffffffffffffffffffffff16612860836118ca565b73ffffffffffffffffffffffffffffffffffffffff167f8c5be1e5ebec7d5bd14f71427d1e84f3dd0314c0f7b2291e5b200ac8c7c3b92560405160405180910390a45050565b60006128b182612781565b6128f0576040517f08c379a00000000000000000000000000000000000000000000000000000000081526004016128e7906149bb565b60405180910390fd5b60006128fb836118ca565b90508073ffffffffffffffffffffffffffffffffffffffff168473ffffffffffffffffffffffffffffffffffffffff16148061296a57508373ffffffffffffffffffffffffffffffffffffffff1661295284610e65565b73ffffffffffffffffffffffffffffffffffffffff16145b8061297b575061297a8185612583565b5b91505092915050565b8273ffffffffffffffffffffffffffffffffffffffff166129a4826118ca565b73ffffffffffffffffffffffffffffffffffffffff16146129fa576040517f08c379a00000000000000000000000000000000000000000000000000000000081526004016129f190614b3b565b60405180910390fd5b600073ffffffffffffffffffffffffffffffffffffffff168273ffffffffffffffffffffffffffffffffffffffff161415612a6a576040517f08c379a0000000000000000000000000000000000000000000000000000000008152600401612a61906148fb565b60405180910390fd5b612a75838383613519565b612a806000826127ed565b6001600360008573ffffffffffffffffffffffffffffffffffffffff1673ffffffffffffffffffffffffffffffffffffffff1681526020019081526020016000206000828254612ad09190614f4c565b925050819055506001600360008473ffffffffffffffffffffffffffffffffffffffff1673ffffffffffffffffffffffffffffffffffffffff1681526020019081526020016000206000828254612b279190614e6b565b92505081905550816002600083815260200190815260200160002060006101000a81548173ffffffffffffffffffffffffffffffffffffffff021916908373ffffffffffffffffffffffffffffffffffffffff160217905550808273ffffffffffffffffffffffffffffffffffffffff168473ffffffffffffffffffffffffffffffffffffffff167fddf252ad1be2c89b69c2b068fc378daa952ba7f163c4a11628f55a4df523b3ef60405160405180910390a4505050565b6000612c08836000018373ffffffffffffffffffffffffffffffffffffffff1660001b61351e565b905092915050565b6000600660009054906101000a900473ffffffffffffffffffffffffffffffffffffffff16905081600660006101000a81548173ffffffffffffffffffffffffffffffffffffffff021916908373ffffffffffffffffffffffffffffffffffffffff1602179055508173ffffffffffffffffffffffffffffffffffffffff168173ffffffffffffffffffffffffffffffffffffffff167f8be0079c531659141344cd1fd0a4f28419497f9722a3daafe3b4186f6b6457e060405160405180910390a35050565b6000612cfe836000018373ffffffffffffffffffffffffffffffffffffffff1660001b6136a4565b905092915050565b8173ffffffffffffffffffffffffffffffffffffffff168373ffffffffffffffffffffffffffffffffffffffff161415612d75576040517f08c379a0000000000000000000000000000000000000000000000000000000008152600401612d6c9061491b565b60405180910390fd5b80600560008573ffffffffffffffffffffffffffffffffffffffff1673ffffffffffffffffffffffffffffffffffffffff16815260200190815260200160002060008473ffffffffffffffffffffffffffffffffffffffff1673ffffffffffffffffffffffffffffffffffffffff16815260200190815260200160002060006101000a81548160ff0219169083151502179055508173ffffffffffffffffffffffffffffffffffffffff168373ffffffffffffffffffffffffffffffffffffffff167f17307eab39ab6107e8899845ad3d59bd9653f200f220920489ca2b5937696c3183604051612e66919061481e565b60405180910390a3505050565b612e7e848484612984565b612e8a84848484613714565b612ec9576040517f08c379a0000000000000000000000000000000000000000000000000000000008152600401612ec09061487b565b60405180910390fd5b50505050565b600073ffffffffffffffffffffffffffffffffffffffff163373ffffffffffffffffffffffffffffffffffffffff161415612f0957600080fd5b828282905014612f4e576040517f08c379a0000000000000000000000000000000000000000000000000000000008152600401612f459061493b565b60405180910390fd5b600d54612f5b60086138ab565b10612f9b576040517f08c379a0000000000000000000000000000000000000000000000000000000008152600401612f9290614cdb565b60405180910390fd5b60008311612fde576040517f08c379a0000000000000000000000000000000000000000000000000000000008152600401612fd590614b7b565b60405180910390fd5b6004831115613022576040517f08c379a00000000000000000000000000000000000000000000000000000000081526004016130199061499b565b60405180910390fd5b601460009054906101000a900460ff161561308457613040336138b9565b61307f576040517f08c379a00000000000000000000000000000000000000000000000000000000081526004016130769061485b565b60405180910390fd5b6132c6565b601460019054906101000a900460ff16156131d5576130a2336138b9565b6130e1576040517f08c379a00000000000000000000000000000000000000000000000000000000081526004016130d89061485b565b60405180910390fd5b600f60009054906101000a900460ff1660ff16601060003373ffffffffffffffffffffffffffffffffffffffff1673ffffffffffffffffffffffffffffffffffffffff168152602001908152602001600020548461313f9190614e6b565b1115613180576040517f08c379a000000000000000000000000000000000000000000000000000000000815260040161317790614c9b565b60405180910390fd5b348360125461318f9190614ef2565b11156131d0576040517f08c379a00000000000000000000000000000000000000000000000000000000081526004016131c790614c5b565b60405180910390fd5b6132c5565b600f60019054906101000a900460ff1660ff16601060003373ffffffffffffffffffffffffffffffffffffffff1673ffffffffffffffffffffffffffffffffffffffff16815260200190815260200160002054846132339190614e6b565b1115613274576040517f08c379a000000000000000000000000000000000000000000000000000000000815260040161326b9061489b565b60405180910390fd5b34836013546132839190614ef2565b11156132c4576040517f08c379a00000000000000000000000000000000000000000000000000000000081526004016132bb90614c3b565b60405180910390fd5b5b5b505050565b60006132d760086138d6565b60006132e360086138ab565b90506132ef83826138ec565b80915050919050565b61330182612781565b613340576040517f08c379a000000000000000000000000000000000000000000000000000000000815260040161333790614afb565b60405180910390fd5b80600960008481526020019081526020016000209080519060200190613367929190613b99565b505050565b606060008214156133b4576040518060400160405280600181526020017f30000000000000000000000000000000000000000000000000000000000000008152509050613514565b600082905060005b600082146133e65780806133cf90615099565b915050600a826133df9190614ec1565b91506133bc565b60008167ffffffffffffffff811115613428577f4e487b7100000000000000000000000000000000000000000000000000000000600052604160045260246000fd5b6040519080825280601f01601f19166020018201604052801561345a5781602001600182028036833780820191505090505b5090505b6000851461350d576001826134739190614f4c565b9150600a8561348291906150e2565b603061348e9190614e6b565b60f81b8183815181106134ca577f4e487b7100000000000000000000000000000000000000000000000000000000600052603260045260246000fd5b60200101907effffffffffffffffffffffffffffffffffffffffffffffffffffffffffffff1916908160001a905350600a856135069190614ec1565b945061345e565b8093505050505b919050565b505050565b600080836001016000848152602001908152602001600020549050600081146136985760006001826135509190614f4c565b90506000600186600001805490506135689190614f4c565b90508181146136235760008660000182815481106135af577f4e487b7100000000000000000000000000000000000000000000000000000000600052603260045260246000fd5b90600052602060002001549050808760000184815481106135f9577f4e487b7100000000000000000000000000000000000000000000000000000000600052603260045260246000fd5b90600052602060002001819055508387600101600083815260200190815260200160002081905550505b8560000180548061365d577f4e487b7100000000000000000000000000000000000000000000000000000000600052603160045260246000fd5b60019003818190600052602060002001600090559055856001016000868152602001908152602001600020600090556001935050505061369e565b60009150505b92915050565b60006136b0838361390a565b61370957826000018290806001815401808255809150506001900390600052602060002001600090919091909150558260000180549050836001016000848152602001908152602001600020819055506001905061370e565b600090505b92915050565b60006137358473ffffffffffffffffffffffffffffffffffffffff1661392d565b1561389e578373ffffffffffffffffffffffffffffffffffffffff1663150b7a0261375e612779565b8786866040518563ffffffff1660e01b81526004016137809493929190614787565b602060405180830381600087803b15801561379a57600080fd5b505af19250505080156137cb57506040513d601f19601f820116820180604052508101906137c89190613ffe565b60015b61384e573d80600081146137fb576040519150601f19603f3d011682016040523d82523d6000602084013e613800565b606091505b50600081511415613846576040517f08c379a000000000000000000000000000000000000000000000000000000000815260040161383d9061487b565b60405180910390fd5b805181602001fd5b63150b7a0260e01b7bffffffffffffffffffffffffffffffffffffffffffffffffffffffff1916817bffffffffffffffffffffffffffffffffffffffffffffffffffffffff1916149150506138a3565b600190505b949350505050565b600081600001549050919050565b60006138cf82600a61394090919063ffffffff16565b9050919050565b6001816000016000828254019250508190555050565b613906828260405180602001604052806000815250613970565b5050565b600080836001016000848152602001908152602001600020541415905092915050565b600080823b905060008111915050919050565b6000613968836000018373ffffffffffffffffffffffffffffffffffffffff1660001b61390a565b905092915050565b61397a83836139cb565b6139876000848484613714565b6139c6576040517f08c379a00000000000000000000000000000000000000000000000000000000081526004016139bd9061487b565b60405180910390fd5b505050565b600073ffffffffffffffffffffffffffffffffffffffff168273ffffffffffffffffffffffffffffffffffffffff161415613a3b576040517f08c379a0000000000000000000000000000000000000000000000000000000008152600401613a3290614a7b565b60405180910390fd5b613a4481612781565b15613a84576040517f08c379a0000000000000000000000000000000000000000000000000000000008152600401613a7b906148db565b60405180910390fd5b613a9060008383613519565b6001600360008473ffffffffffffffffffffffffffffffffffffffff1673ffffffffffffffffffffffffffffffffffffffff1681526020019081526020016000206000828254613ae09190614e6b565b92505081905550816002600083815260200190815260200160002060006101000a81548173ffffffffffffffffffffffffffffffffffffffff021916908373ffffffffffffffffffffffffffffffffffffffff160217905550808273ffffffffffffffffffffffffffffffffffffffff16600073ffffffffffffffffffffffffffffffffffffffff167fddf252ad1be2c89b69c2b068fc378daa952ba7f163c4a11628f55a4df523b3ef60405160405180910390a45050565b828054613ba590615036565b90600052602060002090601f016020900481019282613bc75760008555613c0e565b82601f10613be057805160ff1916838001178555613c0e565b82800160010185558215613c0e579182015b82811115613c0d578251825591602001919060010190613bf2565b5b509050613c1b9190613c1f565b5090565b5b80821115613c38576000816000905550600101613c20565b5090565b6000613c4f613c4a84614d92565b614d6d565b90508083825260208201905082856020860282011115613c6e57600080fd5b60005b85811015613c9e5781613c848882613ce6565b845260208401935060208301925050600181019050613c71565b5050509392505050565b6000613cbb613cb684614dbe565b614d6d565b905082815260208101848484011115613cd357600080fd5b613cde848285614ff4565b509392505050565b600081359050613cf581615b11565b92915050565b600082601f830112613d0c57600080fd5b8135613d1c848260208601613c3c565b91505092915050565b60008083601f840112613d3757600080fd5b8235905067ffffffffffffffff811115613d5057600080fd5b602083019150836020820283011115613d6857600080fd5b9250929050565b600081359050613d7e81615b28565b92915050565b600081359050613d9381615b3f565b92915050565b600081519050613da881615b3f565b92915050565b600082601f830112613dbf57600080fd5b8135613dcf848260208601613ca8565b91505092915050565b600081359050613de781615b56565b92915050565b600060208284031215613dff57600080fd5b6000613e0d84828501613ce6565b91505092915050565b60008060408385031215613e2957600080fd5b6000613e3785828601613ce6565b9250506020613e4885828601613ce6565b9150509250929050565b600080600060608486031215613e6757600080fd5b6000613e7586828701613ce6565b9350506020613e8686828701613ce6565b9250506040613e9786828701613dd8565b9150509250925092565b60008060008060808587031215613eb757600080fd5b6000613ec587828801613ce6565b9450506020613ed687828801613ce6565b9350506040613ee787828801613dd8565b925050606085013567ffffffffffffffff811115613f0457600080fd5b613f1087828801613dae565b91505092959194509250565b60008060408385031215613f2f57600080fd5b6000613f3d85828601613ce6565b9250506020613f4e85828601613d6f565b9150509250929050565b60008060408385031215613f6b57600080fd5b6000613f7985828601613ce6565b9250506020613f8a85828601613dd8565b9150509250929050565b600060208284031215613fa657600080fd5b600082013567ffffffffffffffff811115613fc057600080fd5b613fcc84828501613cfb565b91505092915050565b600060208284031215613fe757600080fd5b6000613ff584828501613d84565b91505092915050565b60006020828403121561401057600080fd5b600061401e84828501613d99565b91505092915050565b60006020828403121561403957600080fd5b600061404784828501613dd8565b91505092915050565b60008060006040848603121561406557600080fd5b600061407386828701613dd8565b935050602084013567ffffffffffffffff81111561409057600080fd5b61409c86828701613d25565b92509250509250925092565b600080604083850312156140bb57600080fd5b60006140c985828601613dd8565b92505060206140da85828601613dd8565b9150509250929050565b60006140f0838361472a565b60208301905092915050565b61410581614f80565b82525050565b600061411682614dff565b6141208185614e2d565b935061412b83614def565b8060005b8381101561415c57815161414388826140e4565b975061414e83614e20565b92505060018101905061412f565b5085935050505092915050565b61417281614f92565b82525050565b600061418382614e0a565b61418d8185614e3e565b935061419d818560208601615003565b6141a6816151cf565b840191505092915050565b60006141bc82614e15565b6141c68185614e4f565b93506141d6818560208601615003565b6141df816151cf565b840191505092915050565b60006141f582614e15565b6141ff8185614e60565b935061420f818560208601615003565b80840191505092915050565b6000614228602b83614e4f565b9150614233826151e0565b604082019050919050565b600061424b603283614e4f565b91506142568261522f565b604082019050919050565b600061426e601f83614e4f565b91506142798261527e565b602082019050919050565b6000614291602683614e4f565b915061429c826152a7565b604082019050919050565b60006142b4601c83614e4f565b91506142bf826152f6565b602082019050919050565b60006142d7602483614e4f565b91506142e28261531f565b604082019050919050565b60006142fa601983614e4f565b91506143058261536e565b602082019050919050565b600061431d603783614e4f565b915061432882615397565b604082019050919050565b6000614340601283614e4f565b915061434b826153e6565b602082019050919050565b6000614363601283614e4f565b915061436e8261540f565b602082019050919050565b6000614386602883614e4f565b915061439182615438565b604082019050919050565b60006143a9602c83614e4f565b91506143b482615487565b604082019050919050565b60006143cc601b83614e4f565b91506143d7826154d6565b602082019050919050565b60006143ef603883614e4f565b91506143fa826154ff565b604082019050919050565b6000614412601c83614e4f565b915061441d8261554e565b602082019050919050565b6000614435602a83614e4f565b915061444082615577565b604082019050919050565b6000614458602983614e4f565b9150614463826155c6565b604082019050919050565b600061447b602083614e4f565b915061448682615615565b602082019050919050565b600061449e601583614e4f565b91506144a98261563e565b602082019050919050565b60006144c1602c83614e4f565b91506144cc82615667565b604082019050919050565b60006144e4602583614e4f565b91506144ef826156b6565b604082019050919050565b6000614507602c83614e4f565b915061451282615705565b604082019050919050565b600061452a602083614e4f565b915061453582615754565b602082019050919050565b600061454d602983614e4f565b91506145588261577d565b604082019050919050565b6000614570602f83614e4f565b915061457b826157cc565b604082019050919050565b6000614593601c83614e4f565b915061459e8261581b565b602082019050919050565b60006145b6602183614e4f565b91506145c182615844565b604082019050919050565b60006145d9602583614e4f565b91506145e482615893565b604082019050919050565b60006145fc601383614e4f565b9150614607826158e2565b602082019050919050565b600061461f603183614e4f565b915061462a8261590b565b604082019050919050565b6000614642601583614e4f565b915061464d8261595a565b602082019050919050565b6000614665604183614e4f565b915061467082615983565b606082019050919050565b6000614688603d83614e4f565b9150614693826159f8565b604082019050919050565b60006146ab601f83614e4f565b91506146b682615a47565b602082019050919050565b60006146ce602683614e4f565b91506146d982615a70565b604082019050919050565b60006146f1601383614e4f565b91506146fc82615abf565b602082019050919050565b6000614714600f83614e4f565b915061471f82615ae8565b602082019050919050565b61473381614fea565b82525050565b61474281614fea565b82525050565b600061475482856141ea565b915061476082846141ea565b91508190509392505050565b600060208201905061478160008301846140fc565b92915050565b600060808201905061479c60008301876140fc565b6147a960208301866140fc565b6147b66040830185614739565b81810360608301526147c88184614178565b905095945050505050565b60006040820190506147e860008301856140fc565b6147f56020830184614739565b9392505050565b60006020820190508181036000830152614816818461410b565b905092915050565b60006020820190506148336000830184614169565b92915050565b6000602082019050818103600083015261485381846141b1565b905092915050565b600060208201905081810360008301526148748161421b565b9050919050565b600060208201905081810360008301526148948161423e565b9050919050565b600060208201905081810360008301526148b481614261565b9050919050565b600060208201905081810360008301526148d481614284565b9050919050565b600060208201905081810360008301526148f4816142a7565b9050919050565b60006020820190508181036000830152614914816142ca565b9050919050565b60006020820190508181036000830152614934816142ed565b9050919050565b6000602082019050818103600083015261495481614310565b9050919050565b6000602082019050818103600083015261497481614333565b9050919050565b6000602082019050818103600083015261499481614356565b9050919050565b600060208201905081810360008301526149b481614379565b9050919050565b600060208201905081810360008301526149d48161439c565b9050919050565b600060208201905081810360008301526149f4816143bf565b9050919050565b60006020820190508181036000830152614a14816143e2565b9050919050565b60006020820190508181036000830152614a3481614405565b9050919050565b60006020820190508181036000830152614a5481614428565b9050919050565b60006020820190508181036000830152614a748161444b565b9050919050565b60006020820190508181036000830152614a948161446e565b9050919050565b60006020820190508181036000830152614ab481614491565b9050919050565b60006020820190508181036000830152614ad4816144b4565b9050919050565b60006020820190508181036000830152614af4816144d7565b9050919050565b60006020820190508181036000830152614b14816144fa565b9050919050565b60006020820190508181036000830152614b348161451d565b9050919050565b60006020820190508181036000830152614b5481614540565b9050919050565b60006020820190508181036000830152614b7481614563565b9050919050565b60006020820190508181036000830152614b9481614586565b9050919050565b60006020820190508181036000830152614bb4816145a9565b9050919050565b60006020820190508181036000830152614bd4816145cc565b9050919050565b60006020820190508181036000830152614bf4816145ef565b9050919050565b60006020820190508181036000830152614c1481614612565b9050919050565b60006020820190508181036000830152614c3481614635565b9050919050565b60006020820190508181036000830152614c5481614658565b9050919050565b60006020820190508181036000830152614c748161467b565b9050919050565b60006020820190508181036000830152614c948161469e565b9050919050565b60006020820190508181036000830152614cb4816146c1565b9050919050565b60006020820190508181036000830152614cd4816146e4565b9050919050565b60006020820190508181036000830152614cf481614707565b9050919050565b6000602082019050614d106000830184614739565b92915050565b60008083356001602003843603038112614d2f57600080fd5b80840192508235915067ffffffffffffffff821115614d4d57600080fd5b602083019250600182023603831315614d6557600080fd5b509250929050565b6000614d77614d88565b9050614d838282615068565b919050565b6000604051905090565b600067ffffffffffffffff821115614dad57614dac6151a0565b5b602082029050602081019050919050565b600067ffffffffffffffff821115614dd957614dd86151a0565b5b614de2826151cf565b9050602081019050919050565b6000819050602082019050919050565b600081519050919050565b600081519050919050565b600081519050919050565b6000602082019050919050565b600082825260208201905092915050565b600082825260208201905092915050565b600082825260208201905092915050565b600081905092915050565b6000614e7682614fea565b9150614e8183614fea565b9250827fffffffffffffffffffffffffffffffffffffffffffffffffffffffffffffffff03821115614eb657614eb5615113565b5b828201905092915050565b6000614ecc82614fea565b9150614ed783614fea565b925082614ee757614ee6615142565b5b828204905092915050565b6000614efd82614fea565b9150614f0883614fea565b9250817fffffffffffffffffffffffffffffffffffffffffffffffffffffffffffffffff0483118215151615614f4157614f40615113565b5b828202905092915050565b6000614f5782614fea565b9150614f6283614fea565b925082821015614f7557614f74615113565b5b828203905092915050565b6000614f8b82614fca565b9050919050565b60008115159050919050565b60007fffffffff0000000000000000000000000000000000000000000000000000000082169050919050565b600073ffffffffffffffffffffffffffffffffffffffff82169050919050565b6000819050919050565b82818337600083830152505050565b60005b83811015615021578082015181840152602081019050615006565b83811115615030576000848401525b50505050565b6000600282049050600182168061504e57607f821691505b6020821081141561506257615061615171565b5b50919050565b615071826151cf565b810181811067ffffffffffffffff821117156150905761508f6151a0565b5b80604052505050565b60006150a482614fea565b91507fffffffffffffffffffffffffffffffffffffffffffffffffffffffffffffffff8214156150d7576150d6615113565b5b600182019050919050565b60006150ed82614fea565b91506150f883614fea565b92508261510857615107615142565b5b828206905092915050565b7f4e487b7100000000000000000000000000000000000000000000000000000000600052601160045260246000fd5b7f4e487b7100000000000000000000000000000000000000000000000000000000600052601260045260246000fd5b7f4e487b7100000000000000000000000000000000000000000000000000000000600052602260045260246000fd5b7f4e487b7100000000000000000000000000000000000000000000000000000000600052604160045260246000fd5b6000601f19601f8301169050919050565b7f576527726520736f7272792c20796f757220616464726573732069736e27742060008201527f77686974656c6973746564000000000000000000000000000000000000000000602082015250565b7f4552433732313a207472616e7366657220746f206e6f6e20455243373231526560008201527f63656976657220696d706c656d656e7465720000000000000000000000000000602082015250565b7f43616e6e6f74206d696e74206d6f7265207468616e20313620746f6b656e7300600082015250565b7f4f776e61626c653a206e6577206f776e657220697320746865207a65726f206160008201527f6464726573730000000000000000000000000000000000000000000000000000602082015250565b7f4552433732313a20746f6b656e20616c7265616479206d696e74656400000000600082015250565b7f4552433732313a207472616e7366657220746f20746865207a65726f2061646460008201527f7265737300000000000000000000000000000000000000000000000000000000602082015250565b7f4552433732313a20617070726f766520746f2063616c6c657200000000000000600082015250565b7f41626f72743a20746f6b656e7320726571756573746564206973206e6f74206560008201527f7175616c20746f2066696c65732075706c6f616465642e000000000000000000602082015250565b7f53616c65206973206e6f74206163746976650000000000000000000000000000600082015250565b7f53616c65206973206e6f74207061757365640000000000000000000000000000600082015250565b7f43616e6e6f74206d696e74206d6f7265207468616e203420746f6b656e73206160008201527f7420612074696d65000000000000000000000000000000000000000000000000602082015250565b7f4552433732313a206f70657261746f7220717565727920666f72206e6f6e657860008201527f697374656e7420746f6b656e0000000000000000000000000000000000000000602082015250565b7f42616c616e6365206973206c657373207468616e202e35206574680000000000600082015250565b7f4552433732313a20617070726f76652063616c6c6572206973206e6f74206f7760008201527f6e6572206e6f7220617070726f76656420666f7220616c6c0000000000000000602082015250565b7f57686974656c6973742063616e6e6f7420657863656564203230303000000000600082015250565b7f4552433732313a2062616c616e636520717565727920666f7220746865207a6560008201527f726f206164647265737300000000000000000000000000000000000000000000602082015250565b7f4552433732313a206f776e657220717565727920666f72206e6f6e657869737460008201527f656e7420746f6b656e0000000000000000000000000000000000000000000000602082015250565b7f4552433732313a206d696e7420746f20746865207a65726f2061646472657373600082015250565b7f50726573616c65206973206e6f74207061757365640000000000000000000000600082015250565b7f4552433732313a20617070726f76656420717565727920666f72206e6f6e657860008201527f697374656e7420746f6b656e0000000000000000000000000000000000000000602082015250565b7f546865726520617265206e6f2073616c65732061742074686973207465726d6960008201527f6e61746564000000000000000000000000000000000000000000000000000000602082015250565b7f4552433732314d657461646174613a2055524920736574206f66206e6f6e657860008201527f697374656e7420746f6b656e0000000000000000000000000000000000000000602082015250565b7f4f776e61626c653a2063616c6c6572206973206e6f7420746865206f776e6572600082015250565b7f4552433732313a207472616e73666572206f6620746f6b656e2074686174206960008201527f73206e6f74206f776e0000000000000000000000000000000000000000000000602082015250565b7f4552433732314d657461646174613a2055524920717565727920666f72206e6f60008201527f6e6578697374656e7420746f6b656e0000000000000000000000000000000000602082015250565b7f4d757374206d696e74206174206c65617374206f6e6520746f6b656e00000000600082015250565b7f4552433732313a20617070726f76616c20746f2063757272656e74206f776e6560008201527f7200000000000000000000000000000000000000000000000000000000000000602082015250565b7f4e6f6e6578697374656e7420746f6b656e20666f7220726f79616c747920706160008201527f796d656e74000000000000000000000000000000000000000000000000000000602082015250565b7f4769766561776179206e6f742061637469766500000000000000000000000000600082015250565b7f4552433732313a207472616e736665722063616c6c6572206973206e6f74206f60008201527f776e6572206e6f7220617070726f766564000000000000000000000000000000602082015250565b7f50726573616c65206973206e6f74206163746976650000000000000000000000600082015250565b7f496e73756666696369656e742066756e64733a2045746865722076616c75652060008201527f646f6573206e6f74206d61746368207075626c69632073616c6520707269636560208201527f2e00000000000000000000000000000000000000000000000000000000000000604082015250565b7f496e73756666696369656e742066756e64733a2045746865722076616c75652060008201527f646f6573206e6f74206d617463682070726573616c652070726963652e000000602082015250565b7f5265656e7472616e637947756172643a207265656e7472616e742063616c6c00600082015250565b7f43616e6e6f74206d696e74206d6f7265207468616e203420746f6b656e73207060008201527f726573616c650000000000000000000000000000000000000000000000000000602082015250565b7f4769766561776179206e6f742070617573656400000000000000000000000000600082015250565b7f4e6f20746f6b656e73206c656674210000000000000000000000000000000000600082015250565b615b1a81614f80565b8114615b2557600080fd5b50565b615b3181614f92565b8114615b3c57600080fd5b50565b615b4881614f9e565b8114615b5357600080fd5b50565b615b5f81614fea565b8114615b6a57600080fd5b5056fea26469706673582212206afa8f37747fbe6878b2c6c7ff34539b8e92f3c48c641d860a18d3bab81aecd764736f6c63430008040033",
  "linkReferences": {},
  "deployedLinkReferences": {}
}