{
  "_format": "hh-sol-artifact-1",
  "contractName": "Turtleverse",
  "sourceName": "contracts/Turtleverse.sol",
  "abi": [
    {
      "inputs": [
        {
          "internalType": "string",
          "name": "name_",
          "type": "string"
        },
        {
          "internalType": "string",
          "name": "symbol_",
          "type": "string"
        },
        {
          "internalType": "string",
          "name": "baseURI_",
          "type": "string"
        }
      ],
      "stateMutability": "nonpayable",
      "type": "constructor"
    },
    {
      "anonymous": false,
      "inputs": [
        {
          "indexed": true,
          "internalType": "address",
          "name": "owner",
          "type": "address"
        },
        {
          "indexed": true,
          "internalType": "address",
          "name": "approved",
          "type": "address"
        },
        {
          "indexed": true,
          "internalType": "uint256",
          "name": "tokenId",
          "type": "uint256"
        }
      ],
      "name": "Approval",
      "type": "event"
    },
    {
      "anonymous": false,
      "inputs": [
        {
          "indexed": true,
          "internalType": "address",
          "name": "owner",
          "type": "address"
        },
        {
          "indexed": true,
          "internalType": "address",
          "name": "operator",
          "type": "address"
        },
        {
          "indexed": false,
          "internalType": "bool",
          "name": "approved",
          "type": "bool"
        }
      ],
      "name": "ApprovalForAll",
      "type": "event"
    },
    {
      "anonymous": false,
      "inputs": [
        {
          "indexed": true,
          "internalType": "address",
          "name": "previousOwner",
          "type": "address"
        },
        {
          "indexed": true,
          "internalType": "address",
          "name": "newOwner",
          "type": "address"
        }
      ],
      "name": "OwnershipTransferred",
      "type": "event"
    },
    {
      "anonymous": false,
      "inputs": [
        {
          "indexed": true,
          "internalType": "address",
          "name": "from",
          "type": "address"
        },
        {
          "indexed": true,
          "internalType": "address",
          "name": "to",
          "type": "address"
        },
        {
          "indexed": true,
          "internalType": "uint256",
          "name": "tokenId",
          "type": "uint256"
        }
      ],
      "name": "Transfer",
      "type": "event"
    },
    {
      "inputs": [
        {
          "internalType": "address",
          "name": "to",
          "type": "address"
        },
        {
          "internalType": "uint256",
          "name": "tokenId",
          "type": "uint256"
        }
      ],
      "name": "approve",
      "outputs": [],
      "stateMutability": "nonpayable",
      "type": "function"
    },
    {
      "inputs": [
        {
          "internalType": "address",
          "name": "owner",
          "type": "address"
        }
      ],
      "name": "balanceOf",
      "outputs": [
        {
          "internalType": "uint256",
          "name": "",
          "type": "uint256"
        }
      ],
      "stateMutability": "view",
      "type": "function"
    },
    {
      "inputs": [
        {
          "internalType": "uint256",
          "name": "tokenId",
          "type": "uint256"
        }
      ],
      "name": "getApproved",
      "outputs": [
        {
          "internalType": "address",
          "name": "",
          "type": "address"
        }
      ],
      "stateMutability": "view",
      "type": "function"
    },
    {
      "inputs": [],
      "name": "getBalance",
      "outputs": [
        {
          "internalType": "uint256",
          "name": "",
          "type": "uint256"
        }
      ],
      "stateMutability": "view",
      "type": "function"
    },
    {
      "inputs": [],
      "name": "getPriceToMint",
      "outputs": [
        {
          "internalType": "uint256",
          "name": "",
          "type": "uint256"
        }
      ],
      "stateMutability": "view",
      "type": "function"
    },
    {
      "inputs": [
        {
          "internalType": "address",
          "name": "owner",
          "type": "address"
        },
        {
          "internalType": "address",
          "name": "operator",
          "type": "address"
        }
      ],
      "name": "isApprovedForAll",
      "outputs": [
        {
          "internalType": "bool",
          "name": "",
          "type": "bool"
        }
      ],
      "stateMutability": "view",
      "type": "function"
    },
    {
      "inputs": [
        {
          "internalType": "uint256",
          "name": "tokensAmount",
          "type": "uint256"
        }
      ],
      "name": "mintTokens",
      "outputs": [
        {
          "internalType": "uint256[]",
          "name": "",
          "type": "uint256[]"
        }
      ],
      "stateMutability": "payable",
      "type": "function"
    },
    {
      "inputs": [],
      "name": "name",
      "outputs": [
        {
          "internalType": "string",
          "name": "",
          "type": "string"
        }
      ],
      "stateMutability": "view",
      "type": "function"
    },
    {
      "inputs": [],
      "name": "owner",
      "outputs": [
        {
          "internalType": "address",
          "name": "",
          "type": "address"
        }
      ],
      "stateMutability": "view",
      "type": "function"
    },
    {
      "inputs": [
        {
          "internalType": "uint256",
          "name": "tokenId",
          "type": "uint256"
        }
      ],
      "name": "ownerOf",
      "outputs": [
        {
          "internalType": "address",
          "name": "",
          "type": "address"
        }
      ],
      "stateMutability": "view",
      "type": "function"
    },
    {
      "inputs": [],
      "name": "renounceOwnership",
      "outputs": [],
      "stateMutability": "nonpayable",
      "type": "function"
    },
    {
      "inputs": [
        {
          "internalType": "address",
          "name": "from",
          "type": "address"
        },
        {
          "internalType": "address",
          "name": "to",
          "type": "address"
        },
        {
          "internalType": "uint256",
          "name": "tokenId",
          "type": "uint256"
        }
      ],
      "name": "safeTransferFrom",
      "outputs": [],
      "stateMutability": "nonpayable",
      "type": "function"
    },
    {
      "inputs": [
        {
          "internalType": "address",
          "name": "from",
          "type": "address"
        },
        {
          "internalType": "address",
          "name": "to",
          "type": "address"
        },
        {
          "internalType": "uint256",
          "name": "tokenId",
          "type": "uint256"
        },
        {
          "internalType": "bytes",
          "name": "_data",
          "type": "bytes"
        }
      ],
      "name": "safeTransferFrom",
      "outputs": [],
      "stateMutability": "nonpayable",
      "type": "function"
    },
    {
      "inputs": [
        {
          "internalType": "address",
          "name": "operator",
          "type": "address"
        },
        {
          "internalType": "bool",
          "name": "approved",
          "type": "bool"
        }
      ],
      "name": "setApprovalForAll",
      "outputs": [],
      "stateMutability": "nonpayable",
      "type": "function"
    },
    {
      "inputs": [
        {
          "internalType": "bytes4",
          "name": "interfaceId",
          "type": "bytes4"
        }
      ],
      "name": "supportsInterface",
      "outputs": [
        {
          "internalType": "bool",
          "name": "",
          "type": "bool"
        }
      ],
      "stateMutability": "view",
      "type": "function"
    },
    {
      "inputs": [],
      "name": "symbol",
      "outputs": [
        {
          "internalType": "string",
          "name": "",
          "type": "string"
        }
      ],
      "stateMutability": "view",
      "type": "function"
    },
    {
      "inputs": [
        {
          "internalType": "uint256",
          "name": "tokenId",
          "type": "uint256"
        }
      ],
      "name": "tokenURI",
      "outputs": [
        {
          "internalType": "string",
          "name": "",
          "type": "string"
        }
      ],
      "stateMutability": "view",
      "type": "function"
    },
    {
      "inputs": [
        {
          "internalType": "address",
          "name": "from",
          "type": "address"
        },
        {
          "internalType": "address",
          "name": "to",
          "type": "address"
        },
        {
          "internalType": "uint256",
          "name": "tokenId",
          "type": "uint256"
        }
      ],
      "name": "transferFrom",
      "outputs": [],
      "stateMutability": "nonpayable",
      "type": "function"
    },
    {
      "inputs": [
        {
          "internalType": "address",
          "name": "newOwner",
          "type": "address"
        }
      ],
      "name": "transferOwnership",
      "outputs": [],
      "stateMutability": "nonpayable",
      "type": "function"
    },
    {
      "inputs": [
        {
          "internalType": "address payable",
          "name": "wallet",
          "type": "address"
        },
        {
          "internalType": "uint256",
          "name": "amount",
          "type": "uint256"
        }
      ],
      "name": "withdraw",
      "outputs": [],
      "stateMutability": "nonpayable",
      "type": "function"
    }
  ],
  "bytecode": "0x608060405266b1a2bc2ec50000600a553480156200001c57600080fd5b5060405162003559380380620035598339818101604052810190620000429190620002b2565b828281600090805190602001906200005c92919062000190565b5080600190805190602001906200007592919062000190565b505050620000986200008c620000c260201b60201c565b620000ca60201b60201c565b60016007819055508060099080519060200190620000b892919062000190565b50505050620004c3565b600033905090565b6000600660009054906101000a900473ffffffffffffffffffffffffffffffffffffffff16905081600660006101000a81548173ffffffffffffffffffffffffffffffffffffffff021916908373ffffffffffffffffffffffffffffffffffffffff1602179055508173ffffffffffffffffffffffffffffffffffffffff168173ffffffffffffffffffffffffffffffffffffffff167f8be0079c531659141344cd1fd0a4f28419497f9722a3daafe3b4186f6b6457e060405160405180910390a35050565b8280546200019e90620003e8565b90600052602060002090601f016020900481019282620001c257600085556200020e565b82601f10620001dd57805160ff19168380011785556200020e565b828001600101855582156200020e579182015b828111156200020d578251825591602001919060010190620001f0565b5b5090506200021d919062000221565b5090565b5b808211156200023c57600081600090555060010162000222565b5090565b60006200025762000251846200037c565b62000353565b9050828152602081018484840111156200027057600080fd5b6200027d848285620003b2565b509392505050565b600082601f8301126200029757600080fd5b8151620002a984826020860162000240565b91505092915050565b600080600060608486031215620002c857600080fd5b600084015167ffffffffffffffff811115620002e357600080fd5b620002f18682870162000285565b935050602084015167ffffffffffffffff8111156200030f57600080fd5b6200031d8682870162000285565b925050604084015167ffffffffffffffff8111156200033b57600080fd5b620003498682870162000285565b9150509250925092565b60006200035f62000372565b90506200036d82826200041e565b919050565b6000604051905090565b600067ffffffffffffffff8211156200039a576200039962000483565b5b620003a582620004b2565b9050602081019050919050565b60005b83811015620003d2578082015181840152602081019050620003b5565b83811115620003e2576000848401525b50505050565b600060028204905060018216806200040157607f821691505b6020821081141562000418576200041762000454565b5b50919050565b6200042982620004b2565b810181811067ffffffffffffffff821117156200044b576200044a62000483565b5b80604052505050565b7f4e487b7100000000000000000000000000000000000000000000000000000000600052602260045260246000fd5b7f4e487b7100000000000000000000000000000000000000000000000000000000600052604160045260246000fd5b6000601f19601f8301169050919050565b61308680620004d36000396000f3fe60806040526004361061011f5760003560e01c80638da5cb5b116100a0578063b88d4fde11610064578063b88d4fde146103da578063c87b56dd14610403578063e985e9c514610440578063f2fde38b1461047d578063f3fef3a3146104a65761011f565b80638da5cb5b1461030057806395d89b411461032b57806397304ced146103565780639e1e795214610386578063a22cb465146103b15761011f565b806323b872dd116100e757806323b872dd1461021d57806342842e0e146102465780636352211e1461026f57806370a08231146102ac578063715018a6146102e95761011f565b806301ffc9a71461012457806306fdde0314610161578063081812fc1461018c578063095ea7b3146101c957806312065fe0146101f2575b600080fd5b34801561013057600080fd5b5061014b60048036038101906101469190612015565b6104cf565b60405161015891906124e5565b60405180910390f35b34801561016d57600080fd5b506101766105b1565b6040516101839190612500565b60405180910390f35b34801561019857600080fd5b506101b360048036038101906101ae9190612067565b610643565b6040516101c0919061245c565b60405180910390f35b3480156101d557600080fd5b506101f060048036038101906101eb9190611fd9565b6106c8565b005b3480156101fe57600080fd5b506102076107e0565b6040516102149190612742565b60405180910390f35b34801561022957600080fd5b50610244600480360381019061023f9190611ed3565b6107e8565b005b34801561025257600080fd5b5061026d60048036038101906102689190611ed3565b610848565b005b34801561027b57600080fd5b5061029660048036038101906102919190612067565b610868565b6040516102a3919061245c565b60405180910390f35b3480156102b857600080fd5b506102d360048036038101906102ce9190611e32565b61091a565b6040516102e09190612742565b60405180910390f35b3480156102f557600080fd5b506102fe6109d2565b005b34801561030c57600080fd5b50610315610a5a565b604051610322919061245c565b60405180910390f35b34801561033757600080fd5b50610340610a84565b60405161034d9190612500565b60405180910390f35b610370600480360381019061036b9190612067565b610b16565b60405161037d91906124c3565b60405180910390f35b34801561039257600080fd5b5061039b610c58565b6040516103a89190612742565b60405180910390f35b3480156103bd57600080fd5b506103d860048036038101906103d39190611f9d565b610c62565b005b3480156103e657600080fd5b5061040160048036038101906103fc9190611f22565b610c78565b005b34801561040f57600080fd5b5061042a60048036038101906104259190612067565b610cda565b6040516104379190612500565b60405180910390f35b34801561044c57600080fd5b5061046760048036038101906104629190611e97565b610d81565b60405161047491906124e5565b60405180910390f35b34801561048957600080fd5b506104a4600480360381019061049f9190611e32565b610e15565b005b3480156104b257600080fd5b506104cd60048036038101906104c89190611e5b565b610f0d565b005b60007f80ac58cd000000000000000000000000000000000000000000000000000000007bffffffffffffffffffffffffffffffffffffffffffffffffffffffff1916827bffffffffffffffffffffffffffffffffffffffffffffffffffffffff1916148061059a57507f5b5e139f000000000000000000000000000000000000000000000000000000007bffffffffffffffffffffffffffffffffffffffffffffffffffffffff1916827bffffffffffffffffffffffffffffffffffffffffffffffffffffffff1916145b806105aa57506105a982610fe1565b5b9050919050565b6060600080546105c0906129b2565b80601f01602080910402602001604051908101604052809291908181526020018280546105ec906129b2565b80156106395780601f1061060e57610100808354040283529160200191610639565b820191906000526020600020905b81548152906001019060200180831161061c57829003601f168201915b5050505050905090565b600061064e8261104b565b61068d576040517f08c379a000000000000000000000000000000000000000000000000000000000815260040161068490612662565b60405180910390fd5b6004600083815260200190815260200160002060009054906101000a900473ffffffffffffffffffffffffffffffffffffffff169050919050565b60006106d382610868565b90508073ffffffffffffffffffffffffffffffffffffffff168373ffffffffffffffffffffffffffffffffffffffff161415610744576040517f08c379a000000000000000000000000000000000000000000000000000000000815260040161073b906126e2565b60405180910390fd5b8073ffffffffffffffffffffffffffffffffffffffff166107636110b7565b73ffffffffffffffffffffffffffffffffffffffff16148061079257506107918161078c6110b7565b610d81565b5b6107d1576040517f08c379a00000000000000000000000000000000000000000000000000000000081526004016107c8906125e2565b60405180910390fd5b6107db83836110bf565b505050565b600047905090565b6107f96107f36110b7565b82611178565b610838576040517f08c379a000000000000000000000000000000000000000000000000000000000815260040161082f90612702565b60405180910390fd5b610843838383611256565b505050565b61086383838360405180602001604052806000815250610c78565b505050565b6000806002600084815260200190815260200160002060009054906101000a900473ffffffffffffffffffffffffffffffffffffffff169050600073ffffffffffffffffffffffffffffffffffffffff168173ffffffffffffffffffffffffffffffffffffffff161415610911576040517f08c379a000000000000000000000000000000000000000000000000000000000815260040161090890612622565b60405180910390fd5b80915050919050565b60008073ffffffffffffffffffffffffffffffffffffffff168273ffffffffffffffffffffffffffffffffffffffff16141561098b576040517f08c379a000000000000000000000000000000000000000000000000000000000815260040161098290612602565b60405180910390fd5b600360008373ffffffffffffffffffffffffffffffffffffffff1673ffffffffffffffffffffffffffffffffffffffff168152602001908152602001600020549050919050565b6109da6110b7565b73ffffffffffffffffffffffffffffffffffffffff166109f8610a5a565b73ffffffffffffffffffffffffffffffffffffffff1614610a4e576040517f08c379a0000000000000000000000000000000000000000000000000000000008152600401610a4590612682565b60405180910390fd5b610a5860006114b2565b565b6000600660009054906101000a900473ffffffffffffffffffffffffffffffffffffffff16905090565b606060018054610a93906129b2565b80601f0160208091040260200160405190810160405280929190818152602001828054610abf906129b2565b8015610b0c5780601f10610ae157610100808354040283529160200191610b0c565b820191906000526020600020905b815481529060010190602001808311610aef57829003601f168201915b5050505050905090565b606060026007541415610b5e576040517f08c379a0000000000000000000000000000000000000000000000000000000008152600401610b5590612722565b60405180910390fd5b600260078190555060008267ffffffffffffffff811115610ba8577f4e487b7100000000000000000000000000000000000000000000000000000000600052604160045260246000fd5b604051908082528060200260200182016040528015610bd65781602001602082028036833780820191505090505b50905060005b83811015610c4657610bed33611578565b828281518110610c26577f4e487b7100000000000000000000000000000000000000000000000000000000600052603260045260246000fd5b602002602001018181525050600181610c3f919061282f565b9050610bdc565b50809150506001600781905550919050565b6000600a54905090565b610c74610c6d6110b7565b83836115a5565b5050565b610c89610c836110b7565b83611178565b610cc8576040517f08c379a0000000000000000000000000000000000000000000000000000000008152600401610cbf90612702565b60405180910390fd5b610cd484848484611712565b50505050565b6060610ce58261104b565b610d24576040517f08c379a0000000000000000000000000000000000000000000000000000000008152600401610d1b906126c2565b60405180910390fd5b6000610d2e61176e565b90506000815111610d4e5760405180602001604052806000815250610d79565b80610d5884611785565b604051602001610d69929190612438565b6040516020818303038152906040525b915050919050565b6000600560008473ffffffffffffffffffffffffffffffffffffffff1673ffffffffffffffffffffffffffffffffffffffff16815260200190815260200160002060008373ffffffffffffffffffffffffffffffffffffffff1673ffffffffffffffffffffffffffffffffffffffff16815260200190815260200160002060009054906101000a900460ff16905092915050565b610e1d6110b7565b73ffffffffffffffffffffffffffffffffffffffff16610e3b610a5a565b73ffffffffffffffffffffffffffffffffffffffff1614610e91576040517f08c379a0000000000000000000000000000000000000000000000000000000008152600401610e8890612682565b60405180910390fd5b600073ffffffffffffffffffffffffffffffffffffffff168173ffffffffffffffffffffffffffffffffffffffff161415610f01576040517f08c379a0000000000000000000000000000000000000000000000000000000008152600401610ef890612542565b60405180910390fd5b610f0a816114b2565b50565b610f156110b7565b73ffffffffffffffffffffffffffffffffffffffff16610f33610a5a565b73ffffffffffffffffffffffffffffffffffffffff1614610f89576040517f08c379a0000000000000000000000000000000000000000000000000000000008152600401610f8090612682565b60405180910390fd5b47811115610f9657600080fd5b8173ffffffffffffffffffffffffffffffffffffffff166108fc479081150290604051600060405180830381858888f19350505050158015610fdc573d6000803e3d6000fd5b505050565b60007f01ffc9a7000000000000000000000000000000000000000000000000000000007bffffffffffffffffffffffffffffffffffffffffffffffffffffffff1916827bffffffffffffffffffffffffffffffffffffffffffffffffffffffff1916149050919050565b60008073ffffffffffffffffffffffffffffffffffffffff166002600084815260200190815260200160002060009054906101000a900473ffffffffffffffffffffffffffffffffffffffff1673ffffffffffffffffffffffffffffffffffffffff1614159050919050565b600033905090565b816004600083815260200190815260200160002060006101000a81548173ffffffffffffffffffffffffffffffffffffffff021916908373ffffffffffffffffffffffffffffffffffffffff160217905550808273ffffffffffffffffffffffffffffffffffffffff1661113283610868565b73ffffffffffffffffffffffffffffffffffffffff167f8c5be1e5ebec7d5bd14f71427d1e84f3dd0314c0f7b2291e5b200ac8c7c3b92560405160405180910390a45050565b60006111838261104b565b6111c2576040517f08c379a00000000000000000000000000000000000000000000000000000000081526004016111b9906125c2565b60405180910390fd5b60006111cd83610868565b90508073ffffffffffffffffffffffffffffffffffffffff168473ffffffffffffffffffffffffffffffffffffffff16148061123c57508373ffffffffffffffffffffffffffffffffffffffff1661122484610643565b73ffffffffffffffffffffffffffffffffffffffff16145b8061124d575061124c8185610d81565b5b91505092915050565b8273ffffffffffffffffffffffffffffffffffffffff1661127682610868565b73ffffffffffffffffffffffffffffffffffffffff16146112cc576040517f08c379a00000000000000000000000000000000000000000000000000000000081526004016112c3906126a2565b60405180910390fd5b600073ffffffffffffffffffffffffffffffffffffffff168273ffffffffffffffffffffffffffffffffffffffff16141561133c576040517f08c379a000000000000000000000000000000000000000000000000000000000815260040161133390612582565b60405180910390fd5b611347838383611932565b6113526000826110bf565b6001600360008573ffffffffffffffffffffffffffffffffffffffff1673ffffffffffffffffffffffffffffffffffffffff16815260200190815260200160002060008282546113a291906128b6565b925050819055506001600360008473ffffffffffffffffffffffffffffffffffffffff1673ffffffffffffffffffffffffffffffffffffffff16815260200190815260200160002060008282546113f9919061282f565b92505081905550816002600083815260200190815260200160002060006101000a81548173ffffffffffffffffffffffffffffffffffffffff021916908373ffffffffffffffffffffffffffffffffffffffff160217905550808273ffffffffffffffffffffffffffffffffffffffff168473ffffffffffffffffffffffffffffffffffffffff167fddf252ad1be2c89b69c2b068fc378daa952ba7f163c4a11628f55a4df523b3ef60405160405180910390a4505050565b6000600660009054906101000a900473ffffffffffffffffffffffffffffffffffffffff16905081600660006101000a81548173ffffffffffffffffffffffffffffffffffffffff021916908373ffffffffffffffffffffffffffffffffffffffff1602179055508173ffffffffffffffffffffffffffffffffffffffff168173ffffffffffffffffffffffffffffffffffffffff167f8be0079c531659141344cd1fd0a4f28419497f9722a3daafe3b4186f6b6457e060405160405180910390a35050565b60006115846008611937565b6000611590600861194d565b905061159c838261195b565b80915050919050565b8173ffffffffffffffffffffffffffffffffffffffff168373ffffffffffffffffffffffffffffffffffffffff161415611614576040517f08c379a000000000000000000000000000000000000000000000000000000000815260040161160b906125a2565b60405180910390fd5b80600560008573ffffffffffffffffffffffffffffffffffffffff1673ffffffffffffffffffffffffffffffffffffffff16815260200190815260200160002060008473ffffffffffffffffffffffffffffffffffffffff1673ffffffffffffffffffffffffffffffffffffffff16815260200190815260200160002060006101000a81548160ff0219169083151502179055508173ffffffffffffffffffffffffffffffffffffffff168373ffffffffffffffffffffffffffffffffffffffff167f17307eab39ab6107e8899845ad3d59bd9653f200f220920489ca2b5937696c318360405161170591906124e5565b60405180910390a3505050565b61171d848484611256565b61172984848484611979565b611768576040517f08c379a000000000000000000000000000000000000000000000000000000000815260040161175f90612522565b60405180910390fd5b50505050565b606060405180602001604052806000815250905090565b606060008214156117cd576040518060400160405280600181526020017f3000000000000000000000000000000000000000000000000000000000000000815250905061192d565b600082905060005b600082146117ff5780806117e890612a15565b915050600a826117f89190612885565b91506117d5565b60008167ffffffffffffffff811115611841577f4e487b7100000000000000000000000000000000000000000000000000000000600052604160045260246000fd5b6040519080825280601f01601f1916602001820160405280156118735781602001600182028036833780820191505090505b5090505b600085146119265760018261188c91906128b6565b9150600a8561189b9190612a5e565b60306118a7919061282f565b60f81b8183815181106118e3577f4e487b7100000000000000000000000000000000000000000000000000000000600052603260045260246000fd5b60200101907effffffffffffffffffffffffffffffffffffffffffffffffffffffffffffff1916908160001a905350600a8561191f9190612885565b9450611877565b8093505050505b919050565b505050565b6001816000016000828254019250508190555050565b600081600001549050919050565b611975828260405180602001604052806000815250611b10565b5050565b600061199a8473ffffffffffffffffffffffffffffffffffffffff16611b6b565b15611b03578373ffffffffffffffffffffffffffffffffffffffff1663150b7a026119c36110b7565b8786866040518563ffffffff1660e01b81526004016119e59493929190612477565b602060405180830381600087803b1580156119ff57600080fd5b505af1925050508015611a3057506040513d601f19601f82011682018060405250810190611a2d919061203e565b60015b611ab3573d8060008114611a60576040519150601f19603f3d011682016040523d82523d6000602084013e611a65565b606091505b50600081511415611aab576040517f08c379a0000000000000000000000000000000000000000000000000000000008152600401611aa290612522565b60405180910390fd5b805181602001fd5b63150b7a0260e01b7bffffffffffffffffffffffffffffffffffffffffffffffffffffffff1916817bffffffffffffffffffffffffffffffffffffffffffffffffffffffff191614915050611b08565b600190505b949350505050565b611b1a8383611b7e565b611b276000848484611979565b611b66576040517f08c379a0000000000000000000000000000000000000000000000000000000008152600401611b5d90612522565b60405180910390fd5b505050565b600080823b905060008111915050919050565b600073ffffffffffffffffffffffffffffffffffffffff168273ffffffffffffffffffffffffffffffffffffffff161415611bee576040517f08c379a0000000000000000000000000000000000000000000000000000000008152600401611be590612642565b60405180910390fd5b611bf78161104b565b15611c37576040517f08c379a0000000000000000000000000000000000000000000000000000000008152600401611c2e90612562565b60405180910390fd5b611c4360008383611932565b6001600360008473ffffffffffffffffffffffffffffffffffffffff1673ffffffffffffffffffffffffffffffffffffffff1681526020019081526020016000206000828254611c93919061282f565b92505081905550816002600083815260200190815260200160002060006101000a81548173ffffffffffffffffffffffffffffffffffffffff021916908373ffffffffffffffffffffffffffffffffffffffff160217905550808273ffffffffffffffffffffffffffffffffffffffff16600073ffffffffffffffffffffffffffffffffffffffff167fddf252ad1be2c89b69c2b068fc378daa952ba7f163c4a11628f55a4df523b3ef60405160405180910390a45050565b6000611d5f611d5a84612782565b61275d565b905082815260208101848484011115611d7757600080fd5b611d82848285612970565b509392505050565b600081359050611d9981612fdd565b92915050565b600081359050611dae81612ff4565b92915050565b600081359050611dc38161300b565b92915050565b600081359050611dd881613022565b92915050565b600081519050611ded81613022565b92915050565b600082601f830112611e0457600080fd5b8135611e14848260208601611d4c565b91505092915050565b600081359050611e2c81613039565b92915050565b600060208284031215611e4457600080fd5b6000611e5284828501611d8a565b91505092915050565b60008060408385031215611e6e57600080fd5b6000611e7c85828601611d9f565b9250506020611e8d85828601611e1d565b9150509250929050565b60008060408385031215611eaa57600080fd5b6000611eb885828601611d8a565b9250506020611ec985828601611d8a565b9150509250929050565b600080600060608486031215611ee857600080fd5b6000611ef686828701611d8a565b9350506020611f0786828701611d8a565b9250506040611f1886828701611e1d565b9150509250925092565b60008060008060808587031215611f3857600080fd5b6000611f4687828801611d8a565b9450506020611f5787828801611d8a565b9350506040611f6887828801611e1d565b925050606085013567ffffffffffffffff811115611f8557600080fd5b611f9187828801611df3565b91505092959194509250565b60008060408385031215611fb057600080fd5b6000611fbe85828601611d8a565b9250506020611fcf85828601611db4565b9150509250929050565b60008060408385031215611fec57600080fd5b6000611ffa85828601611d8a565b925050602061200b85828601611e1d565b9150509250929050565b60006020828403121561202757600080fd5b600061203584828501611dc9565b91505092915050565b60006020828403121561205057600080fd5b600061205e84828501611dde565b91505092915050565b60006020828403121561207957600080fd5b600061208784828501611e1d565b91505092915050565b600061209c838361241a565b60208301905092915050565b6120b1816128ea565b82525050565b60006120c2826127c3565b6120cc81856127f1565b93506120d7836127b3565b8060005b838110156121085781516120ef8882612090565b97506120fa836127e4565b9250506001810190506120db565b5085935050505092915050565b61211e8161290e565b82525050565b600061212f826127ce565b6121398185612802565b935061214981856020860161297f565b61215281612b4b565b840191505092915050565b6000612168826127d9565b6121728185612813565b935061218281856020860161297f565b61218b81612b4b565b840191505092915050565b60006121a1826127d9565b6121ab8185612824565b93506121bb81856020860161297f565b80840191505092915050565b60006121d4603283612813565b91506121df82612b5c565b604082019050919050565b60006121f7602683612813565b915061220282612bab565b604082019050919050565b600061221a601c83612813565b915061222582612bfa565b602082019050919050565b600061223d602483612813565b915061224882612c23565b604082019050919050565b6000612260601983612813565b915061226b82612c72565b602082019050919050565b6000612283602c83612813565b915061228e82612c9b565b604082019050919050565b60006122a6603883612813565b91506122b182612cea565b604082019050919050565b60006122c9602a83612813565b91506122d482612d39565b604082019050919050565b60006122ec602983612813565b91506122f782612d88565b604082019050919050565b600061230f602083612813565b915061231a82612dd7565b602082019050919050565b6000612332602c83612813565b915061233d82612e00565b604082019050919050565b6000612355602083612813565b915061236082612e4f565b602082019050919050565b6000612378602983612813565b915061238382612e78565b604082019050919050565b600061239b602f83612813565b91506123a682612ec7565b604082019050919050565b60006123be602183612813565b91506123c982612f16565b604082019050919050565b60006123e1603183612813565b91506123ec82612f65565b604082019050919050565b6000612404601f83612813565b915061240f82612fb4565b602082019050919050565b61242381612966565b82525050565b61243281612966565b82525050565b60006124448285612196565b91506124508284612196565b91508190509392505050565b600060208201905061247160008301846120a8565b92915050565b600060808201905061248c60008301876120a8565b61249960208301866120a8565b6124a66040830185612429565b81810360608301526124b88184612124565b905095945050505050565b600060208201905081810360008301526124dd81846120b7565b905092915050565b60006020820190506124fa6000830184612115565b92915050565b6000602082019050818103600083015261251a818461215d565b905092915050565b6000602082019050818103600083015261253b816121c7565b9050919050565b6000602082019050818103600083015261255b816121ea565b9050919050565b6000602082019050818103600083015261257b8161220d565b9050919050565b6000602082019050818103600083015261259b81612230565b9050919050565b600060208201905081810360008301526125bb81612253565b9050919050565b600060208201905081810360008301526125db81612276565b9050919050565b600060208201905081810360008301526125fb81612299565b9050919050565b6000602082019050818103600083015261261b816122bc565b9050919050565b6000602082019050818103600083015261263b816122df565b9050919050565b6000602082019050818103600083015261265b81612302565b9050919050565b6000602082019050818103600083015261267b81612325565b9050919050565b6000602082019050818103600083015261269b81612348565b9050919050565b600060208201905081810360008301526126bb8161236b565b9050919050565b600060208201905081810360008301526126db8161238e565b9050919050565b600060208201905081810360008301526126fb816123b1565b9050919050565b6000602082019050818103600083015261271b816123d4565b9050919050565b6000602082019050818103600083015261273b816123f7565b9050919050565b60006020820190506127576000830184612429565b92915050565b6000612767612778565b905061277382826129e4565b919050565b6000604051905090565b600067ffffffffffffffff82111561279d5761279c612b1c565b5b6127a682612b4b565b9050602081019050919050565b6000819050602082019050919050565b600081519050919050565b600081519050919050565b600081519050919050565b6000602082019050919050565b600082825260208201905092915050565b600082825260208201905092915050565b600082825260208201905092915050565b600081905092915050565b600061283a82612966565b915061284583612966565b9250827fffffffffffffffffffffffffffffffffffffffffffffffffffffffffffffffff0382111561287a57612879612a8f565b5b828201905092915050565b600061289082612966565b915061289b83612966565b9250826128ab576128aa612abe565b5b828204905092915050565b60006128c182612966565b91506128cc83612966565b9250828210156128df576128de612a8f565b5b828203905092915050565b60006128f582612946565b9050919050565b600061290782612946565b9050919050565b60008115159050919050565b60007fffffffff0000000000000000000000000000000000000000000000000000000082169050919050565b600073ffffffffffffffffffffffffffffffffffffffff82169050919050565b6000819050919050565b82818337600083830152505050565b60005b8381101561299d578082015181840152602081019050612982565b838111156129ac576000848401525b50505050565b600060028204905060018216806129ca57607f821691505b602082108114156129de576129dd612aed565b5b50919050565b6129ed82612b4b565b810181811067ffffffffffffffff82111715612a0c57612a0b612b1c565b5b80604052505050565b6000612a2082612966565b91507fffffffffffffffffffffffffffffffffffffffffffffffffffffffffffffffff821415612a5357612a52612a8f565b5b600182019050919050565b6000612a6982612966565b9150612a7483612966565b925082612a8457612a83612abe565b5b828206905092915050565b7f4e487b7100000000000000000000000000000000000000000000000000000000600052601160045260246000fd5b7f4e487b7100000000000000000000000000000000000000000000000000000000600052601260045260246000fd5b7f4e487b7100000000000000000000000000000000000000000000000000000000600052602260045260246000fd5b7f4e487b7100000000000000000000000000000000000000000000000000000000600052604160045260246000fd5b6000601f19601f8301169050919050565b7f4552433732313a207472616e7366657220746f206e6f6e20455243373231526560008201527f63656976657220696d706c656d656e7465720000000000000000000000000000602082015250565b7f4f776e61626c653a206e6577206f776e657220697320746865207a65726f206160008201527f6464726573730000000000000000000000000000000000000000000000000000602082015250565b7f4552433732313a20746f6b656e20616c7265616479206d696e74656400000000600082015250565b7f4552433732313a207472616e7366657220746f20746865207a65726f2061646460008201527f7265737300000000000000000000000000000000000000000000000000000000602082015250565b7f4552433732313a20617070726f766520746f2063616c6c657200000000000000600082015250565b7f4552433732313a206f70657261746f7220717565727920666f72206e6f6e657860008201527f697374656e7420746f6b656e0000000000000000000000000000000000000000602082015250565b7f4552433732313a20617070726f76652063616c6c6572206973206e6f74206f7760008201527f6e6572206e6f7220617070726f76656420666f7220616c6c0000000000000000602082015250565b7f4552433732313a2062616c616e636520717565727920666f7220746865207a6560008201527f726f206164647265737300000000000000000000000000000000000000000000602082015250565b7f4552433732313a206f776e657220717565727920666f72206e6f6e657869737460008201527f656e7420746f6b656e0000000000000000000000000000000000000000000000602082015250565b7f4552433732313a206d696e7420746f20746865207a65726f2061646472657373600082015250565b7f4552433732313a20617070726f76656420717565727920666f72206e6f6e657860008201527f697374656e7420746f6b656e0000000000000000000000000000000000000000602082015250565b7f4f776e61626c653a2063616c6c6572206973206e6f7420746865206f776e6572600082015250565b7f4552433732313a207472616e73666572206f6620746f6b656e2074686174206960008201527f73206e6f74206f776e0000000000000000000000000000000000000000000000602082015250565b7f4552433732314d657461646174613a2055524920717565727920666f72206e6f60008201527f6e6578697374656e7420746f6b656e0000000000000000000000000000000000602082015250565b7f4552433732313a20617070726f76616c20746f2063757272656e74206f776e6560008201527f7200000000000000000000000000000000000000000000000000000000000000602082015250565b7f4552433732313a207472616e736665722063616c6c6572206973206e6f74206f60008201527f776e6572206e6f7220617070726f766564000000000000000000000000000000602082015250565b7f5265656e7472616e637947756172643a207265656e7472616e742063616c6c00600082015250565b612fe6816128ea565b8114612ff157600080fd5b50565b612ffd816128fc565b811461300857600080fd5b50565b6130148161290e565b811461301f57600080fd5b50565b61302b8161291a565b811461303657600080fd5b50565b61304281612966565b811461304d57600080fd5b5056fea2646970667358221220773ad064aa9d5297808daee7ac85eb4dbaefe4788c5fe57072d5b60e0e6fe1f464736f6c63430008040033",
  "linkReferences": {},
  "deployedLinkReferences": {}
}