{
  "_format": "hh-sol-artifact-1",
  "contractName": "Turtleverse",
  "sourceName": "contracts/Turtleverse.sol",
  "abi": [
    {
      "inputs": [
        {
          "internalType": "string",
          "name": "name_",
          "type": "string"
        },
        {
          "internalType": "string",
          "name": "symbol_",
          "type": "string"
        },
        {
          "internalType": "string",
          "name": "baseURI_",
          "type": "string"
        }
      ],
      "stateMutability": "nonpayable",
      "type": "constructor"
    },
    {
      "anonymous": false,
      "inputs": [
        {
          "indexed": true,
          "internalType": "address",
          "name": "_address",
          "type": "address"
        }
      ],
      "name": "AddedToGiveawayList",
      "type": "event"
    },
    {
      "anonymous": false,
      "inputs": [
        {
          "indexed": true,
          "internalType": "address",
          "name": "_address",
          "type": "address"
        }
      ],
      "name": "AddedToWhitelist",
      "type": "event"
    },
    {
      "anonymous": false,
      "inputs": [
        {
          "indexed": true,
          "internalType": "address",
          "name": "owner",
          "type": "address"
        },
        {
          "indexed": true,
          "internalType": "address",
          "name": "approved",
          "type": "address"
        },
        {
          "indexed": true,
          "internalType": "uint256",
          "name": "tokenId",
          "type": "uint256"
        }
      ],
      "name": "Approval",
      "type": "event"
    },
    {
      "anonymous": false,
      "inputs": [
        {
          "indexed": true,
          "internalType": "address",
          "name": "owner",
          "type": "address"
        },
        {
          "indexed": true,
          "internalType": "address",
          "name": "operator",
          "type": "address"
        },
        {
          "indexed": false,
          "internalType": "bool",
          "name": "approved",
          "type": "bool"
        }
      ],
      "name": "ApprovalForAll",
      "type": "event"
    },
    {
      "anonymous": false,
      "inputs": [
        {
          "indexed": true,
          "internalType": "uint256",
          "name": "_giveawayStopTime",
          "type": "uint256"
        }
      ],
      "name": "GiveawayPaused",
      "type": "event"
    },
    {
      "anonymous": false,
      "inputs": [
        {
          "indexed": true,
          "internalType": "uint256",
          "name": "_giveawayStartTime",
          "type": "uint256"
        }
      ],
      "name": "GiveawayStart",
      "type": "event"
    },
    {
      "anonymous": false,
      "inputs": [
        {
          "indexed": true,
          "internalType": "uint256",
          "name": "_giveawayPurgedTime",
          "type": "uint256"
        }
      ],
      "name": "GiveawaysPurged",
      "type": "event"
    },
    {
      "anonymous": false,
      "inputs": [
        {
          "indexed": true,
          "internalType": "address",
          "name": "previousOwner",
          "type": "address"
        },
        {
          "indexed": true,
          "internalType": "address",
          "name": "newOwner",
          "type": "address"
        }
      ],
      "name": "OwnershipTransferred",
      "type": "event"
    },
    {
      "anonymous": false,
      "inputs": [
        {
          "indexed": true,
          "internalType": "uint256",
          "name": "_presaleStopTime",
          "type": "uint256"
        }
      ],
      "name": "PresalePaused",
      "type": "event"
    },
    {
      "anonymous": false,
      "inputs": [
        {
          "indexed": true,
          "internalType": "uint256",
          "name": "_presaleStartTime",
          "type": "uint256"
        }
      ],
      "name": "PresaleStart",
      "type": "event"
    },
    {
      "anonymous": false,
      "inputs": [
        {
          "indexed": true,
          "internalType": "address",
          "name": "_address",
          "type": "address"
        }
      ],
      "name": "RemovedFromWhitelist",
      "type": "event"
    },
    {
      "anonymous": false,
      "inputs": [
        {
          "indexed": true,
          "internalType": "uint256",
          "name": "_saleStopTime",
          "type": "uint256"
        }
      ],
      "name": "SalePaused",
      "type": "event"
    },
    {
      "anonymous": false,
      "inputs": [
        {
          "indexed": true,
          "internalType": "uint256",
          "name": "_saleStartTime",
          "type": "uint256"
        }
      ],
      "name": "SaleStart",
      "type": "event"
    },
    {
      "anonymous": false,
      "inputs": [
        {
          "indexed": true,
          "internalType": "address",
          "name": "from",
          "type": "address"
        },
        {
          "indexed": true,
          "internalType": "address",
          "name": "to",
          "type": "address"
        },
        {
          "indexed": true,
          "internalType": "uint256",
          "name": "tokenId",
          "type": "uint256"
        }
      ],
      "name": "Transfer",
      "type": "event"
    },
    {
      "inputs": [
        {
          "internalType": "address[]",
          "name": "addresses",
          "type": "address[]"
        }
      ],
      "name": "addToGiveawayList",
      "outputs": [],
      "stateMutability": "nonpayable",
      "type": "function"
    },
    {
      "inputs": [
        {
          "internalType": "address[]",
          "name": "addresses",
          "type": "address[]"
        }
      ],
      "name": "addToWhitelist",
      "outputs": [],
      "stateMutability": "nonpayable",
      "type": "function"
    },
    {
      "inputs": [
        {
          "internalType": "address",
          "name": "to",
          "type": "address"
        },
        {
          "internalType": "uint256",
          "name": "tokenId",
          "type": "uint256"
        }
      ],
      "name": "approve",
      "outputs": [],
      "stateMutability": "nonpayable",
      "type": "function"
    },
    {
      "inputs": [
        {
          "internalType": "address",
          "name": "owner",
          "type": "address"
        }
      ],
      "name": "balanceOf",
      "outputs": [
        {
          "internalType": "uint256",
          "name": "",
          "type": "uint256"
        }
      ],
      "stateMutability": "view",
      "type": "function"
    },
    {
      "inputs": [
        {
          "internalType": "uint256",
          "name": "tokenId",
          "type": "uint256"
        }
      ],
      "name": "getApproved",
      "outputs": [
        {
          "internalType": "address",
          "name": "",
          "type": "address"
        }
      ],
      "stateMutability": "view",
      "type": "function"
    },
    {
      "inputs": [],
      "name": "giveawayActive",
      "outputs": [
        {
          "internalType": "bool",
          "name": "",
          "type": "bool"
        }
      ],
      "stateMutability": "view",
      "type": "function"
    },
    {
      "inputs": [],
      "name": "giveawayPriceToMint",
      "outputs": [
        {
          "internalType": "uint256",
          "name": "",
          "type": "uint256"
        }
      ],
      "stateMutability": "view",
      "type": "function"
    },
    {
      "inputs": [
        {
          "internalType": "address",
          "name": "value",
          "type": "address"
        }
      ],
      "name": "inGiveawayList",
      "outputs": [
        {
          "internalType": "bool",
          "name": "",
          "type": "bool"
        }
      ],
      "stateMutability": "view",
      "type": "function"
    },
    {
      "inputs": [
        {
          "internalType": "address",
          "name": "value",
          "type": "address"
        }
      ],
      "name": "inWhitelist",
      "outputs": [
        {
          "internalType": "bool",
          "name": "",
          "type": "bool"
        }
      ],
      "stateMutability": "view",
      "type": "function"
    },
    {
      "inputs": [
        {
          "internalType": "address",
          "name": "owner",
          "type": "address"
        },
        {
          "internalType": "address",
          "name": "operator",
          "type": "address"
        }
      ],
      "name": "isApprovedForAll",
      "outputs": [
        {
          "internalType": "bool",
          "name": "",
          "type": "bool"
        }
      ],
      "stateMutability": "view",
      "type": "function"
    },
    {
      "inputs": [
        {
          "internalType": "uint256",
          "name": "tokensAmount",
          "type": "uint256"
        }
      ],
      "name": "mintTokens",
      "outputs": [
        {
          "internalType": "uint256[]",
          "name": "",
          "type": "uint256[]"
        }
      ],
      "stateMutability": "payable",
      "type": "function"
    },
    {
      "inputs": [],
      "name": "name",
      "outputs": [
        {
          "internalType": "string",
          "name": "",
          "type": "string"
        }
      ],
      "stateMutability": "view",
      "type": "function"
    },
    {
      "inputs": [],
      "name": "owner",
      "outputs": [
        {
          "internalType": "address",
          "name": "",
          "type": "address"
        }
      ],
      "stateMutability": "view",
      "type": "function"
    },
    {
      "inputs": [
        {
          "internalType": "uint256",
          "name": "tokenId",
          "type": "uint256"
        }
      ],
      "name": "ownerOf",
      "outputs": [
        {
          "internalType": "address",
          "name": "",
          "type": "address"
        }
      ],
      "stateMutability": "view",
      "type": "function"
    },
    {
      "inputs": [],
      "name": "pauseGiveaway",
      "outputs": [],
      "stateMutability": "nonpayable",
      "type": "function"
    },
    {
      "inputs": [],
      "name": "pausePresale",
      "outputs": [],
      "stateMutability": "nonpayable",
      "type": "function"
    },
    {
      "inputs": [],
      "name": "pausePublicSale",
      "outputs": [],
      "stateMutability": "nonpayable",
      "type": "function"
    },
    {
      "inputs": [],
      "name": "presaleActive",
      "outputs": [
        {
          "internalType": "bool",
          "name": "",
          "type": "bool"
        }
      ],
      "stateMutability": "view",
      "type": "function"
    },
    {
      "inputs": [],
      "name": "presaleLimit",
      "outputs": [
        {
          "internalType": "uint8",
          "name": "",
          "type": "uint8"
        }
      ],
      "stateMutability": "view",
      "type": "function"
    },
    {
      "inputs": [],
      "name": "presalePriceToMint",
      "outputs": [
        {
          "internalType": "uint256",
          "name": "",
          "type": "uint256"
        }
      ],
      "stateMutability": "view",
      "type": "function"
    },
    {
      "inputs": [
        {
          "internalType": "address",
          "name": "",
          "type": "address"
        }
      ],
      "name": "presalePurchasedAmount",
      "outputs": [
        {
          "internalType": "uint256",
          "name": "",
          "type": "uint256"
        }
      ],
      "stateMutability": "view",
      "type": "function"
    },
    {
      "inputs": [],
      "name": "price",
      "outputs": [
        {
          "internalType": "uint256",
          "name": "",
          "type": "uint256"
        }
      ],
      "stateMutability": "view",
      "type": "function"
    },
    {
      "inputs": [],
      "name": "priceToMint",
      "outputs": [
        {
          "internalType": "uint256",
          "name": "",
          "type": "uint256"
        }
      ],
      "stateMutability": "view",
      "type": "function"
    },
    {
      "inputs": [],
      "name": "purgeGiveawayList",
      "outputs": [],
      "stateMutability": "nonpayable",
      "type": "function"
    },
    {
      "inputs": [
        {
          "internalType": "address[]",
          "name": "addresses",
          "type": "address[]"
        }
      ],
      "name": "removeFromWhitelist",
      "outputs": [],
      "stateMutability": "nonpayable",
      "type": "function"
    },
    {
      "inputs": [],
      "name": "renounceOwnership",
      "outputs": [],
      "stateMutability": "nonpayable",
      "type": "function"
    },
    {
      "inputs": [
        {
          "internalType": "address",
          "name": "from",
          "type": "address"
        },
        {
          "internalType": "address",
          "name": "to",
          "type": "address"
        },
        {
          "internalType": "uint256",
          "name": "tokenId",
          "type": "uint256"
        }
      ],
      "name": "safeTransferFrom",
      "outputs": [],
      "stateMutability": "nonpayable",
      "type": "function"
    },
    {
      "inputs": [
        {
          "internalType": "address",
          "name": "from",
          "type": "address"
        },
        {
          "internalType": "address",
          "name": "to",
          "type": "address"
        },
        {
          "internalType": "uint256",
          "name": "tokenId",
          "type": "uint256"
        },
        {
          "internalType": "bytes",
          "name": "_data",
          "type": "bytes"
        }
      ],
      "name": "safeTransferFrom",
      "outputs": [],
      "stateMutability": "nonpayable",
      "type": "function"
    },
    {
      "inputs": [],
      "name": "saleActive",
      "outputs": [
        {
          "internalType": "bool",
          "name": "",
          "type": "bool"
        }
      ],
      "stateMutability": "view",
      "type": "function"
    },
    {
      "inputs": [
        {
          "internalType": "address",
          "name": "operator",
          "type": "address"
        },
        {
          "internalType": "bool",
          "name": "approved",
          "type": "bool"
        }
      ],
      "name": "setApprovalForAll",
      "outputs": [],
      "stateMutability": "nonpayable",
      "type": "function"
    },
    {
      "inputs": [],
      "name": "startGiveaway",
      "outputs": [],
      "stateMutability": "nonpayable",
      "type": "function"
    },
    {
      "inputs": [
        {
          "internalType": "uint8",
          "name": "presaleLimit_",
          "type": "uint8"
        }
      ],
      "name": "startPresale",
      "outputs": [],
      "stateMutability": "nonpayable",
      "type": "function"
    },
    {
      "inputs": [],
      "name": "startPublicSale",
      "outputs": [],
      "stateMutability": "nonpayable",
      "type": "function"
    },
    {
      "inputs": [
        {
          "internalType": "bytes4",
          "name": "interfaceId",
          "type": "bytes4"
        }
      ],
      "name": "supportsInterface",
      "outputs": [
        {
          "internalType": "bool",
          "name": "",
          "type": "bool"
        }
      ],
      "stateMutability": "view",
      "type": "function"
    },
    {
      "inputs": [],
      "name": "symbol",
      "outputs": [
        {
          "internalType": "string",
          "name": "",
          "type": "string"
        }
      ],
      "stateMutability": "view",
      "type": "function"
    },
    {
      "inputs": [
        {
          "internalType": "uint256",
          "name": "tokenId",
          "type": "uint256"
        }
      ],
      "name": "tokenURI",
      "outputs": [
        {
          "internalType": "string",
          "name": "",
          "type": "string"
        }
      ],
      "stateMutability": "view",
      "type": "function"
    },
    {
      "inputs": [
        {
          "internalType": "address",
          "name": "from",
          "type": "address"
        },
        {
          "internalType": "address",
          "name": "to",
          "type": "address"
        },
        {
          "internalType": "uint256",
          "name": "tokenId",
          "type": "uint256"
        }
      ],
      "name": "transferFrom",
      "outputs": [],
      "stateMutability": "nonpayable",
      "type": "function"
    },
    {
      "inputs": [
        {
          "internalType": "address",
          "name": "newOwner",
          "type": "address"
        }
      ],
      "name": "transferOwnership",
      "outputs": [],
      "stateMutability": "nonpayable",
      "type": "function"
    },
    {
      "inputs": [
        {
          "internalType": "address payable",
          "name": "wallet",
          "type": "address"
        },
        {
          "internalType": "uint256",
          "name": "amount",
          "type": "uint256"
        }
      ],
      "name": "withdraw",
      "outputs": [],
      "stateMutability": "nonpayable",
      "type": "function"
    }
  ],
  "bytecode": "0x60806040526000600e556658d15e17628000600f5566b1a2bc2ec500006010553480156200002c57600080fd5b506040516200587e3803806200587e8339818101604052810190620000529190620002c2565b828281600090805190602001906200006c929190620001a0565b50806001908051906020019062000085929190620001a0565b505050620000a86200009c620000d260201b60201c565b620000da60201b60201c565b60016007819055508060089080519060200190620000c8929190620001a0565b50505050620004d3565b600033905090565b6000600660009054906101000a900473ffffffffffffffffffffffffffffffffffffffff16905081600660006101000a81548173ffffffffffffffffffffffffffffffffffffffff021916908373ffffffffffffffffffffffffffffffffffffffff1602179055508173ffffffffffffffffffffffffffffffffffffffff168173ffffffffffffffffffffffffffffffffffffffff167f8be0079c531659141344cd1fd0a4f28419497f9722a3daafe3b4186f6b6457e060405160405180910390a35050565b828054620001ae90620003f8565b90600052602060002090601f016020900481019282620001d257600085556200021e565b82601f10620001ed57805160ff19168380011785556200021e565b828001600101855582156200021e579182015b828111156200021d57825182559160200191906001019062000200565b5b5090506200022d919062000231565b5090565b5b808211156200024c57600081600090555060010162000232565b5090565b60006200026762000261846200038c565b62000363565b9050828152602081018484840111156200028057600080fd5b6200028d848285620003c2565b509392505050565b600082601f830112620002a757600080fd5b8151620002b984826020860162000250565b91505092915050565b600080600060608486031215620002d857600080fd5b600084015167ffffffffffffffff811115620002f357600080fd5b620003018682870162000295565b935050602084015167ffffffffffffffff8111156200031f57600080fd5b6200032d8682870162000295565b925050604084015167ffffffffffffffff8111156200034b57600080fd5b620003598682870162000295565b9150509250925092565b60006200036f62000382565b90506200037d82826200042e565b919050565b6000604051905090565b600067ffffffffffffffff821115620003aa57620003a962000493565b5b620003b582620004c2565b9050602081019050919050565b60005b83811015620003e2578082015181840152602081019050620003c5565b83811115620003f2576000848401525b50505050565b600060028204905060018216806200041157607f821691505b6020821081141562000428576200042762000464565b5b50919050565b6200043982620004c2565b810181811067ffffffffffffffff821117156200045b576200045a62000493565b5b80604052505050565b7f4e487b7100000000000000000000000000000000000000000000000000000000600052602260045260246000fd5b7f4e487b7100000000000000000000000000000000000000000000000000000000600052604160045260246000fd5b6000601f19601f8301169050919050565b61539b80620004e36000396000f3fe6080604052600436106102305760003560e01c806368428a1b1161012e578063a22cb465116100ab578063df9ffc2d1161006f578063df9ffc2d146107be578063e2aafa21146107fb578063e985e9c514610838578063f2fde38b14610875578063f3fef3a31461089e57610230565b8063a22cb465146106ed578063b88d4fde14610716578063c165507c1461073f578063c87b56dd14610756578063dc9403a61461079357610230565b80638da5cb5b116100f25780638da5cb5b1461061357806394c606f51461063e57806395d89b411461066757806397304ced14610692578063a035b1fe146106c257610230565b806368428a1b1461055457806370a082311461057f578063715018a6146105bc5780637c0f8aa0146105d35780637f649783146105ea57610230565b80632b3f4d92116101bc578063525b3fe311610180578063525b3fe31461046f57806353135ca01461049a578063548db174146104c55780636352211e146104ee5780636739f1431461052b57610230565b80632b3f4d92146103885780633e571a09146103b357806342842e0e146103f05780634616d4b2146104195780634dc1dbec1461044457610230565b8063081812fc11610203578063081812fc146102cb578063095ea7b3146103085780630c1c972a146103315780630c41f4971461034857806323b872dd1461035f57610230565b806301ffc9a71461023557806305e4e88a1461027257806306fdde0314610289578063070f5c09146102b4575b600080fd5b34801561024157600080fd5b5061025c60048036038101906102579190613c65565b6108c7565b6040516102699190614334565b60405180910390f35b34801561027e57600080fd5b506102876109a9565b005b34801561029557600080fd5b5061029e610b5f565b6040516102ab919061434f565b60405180910390f35b3480156102c057600080fd5b506102c9610bf1565b005b3480156102d757600080fd5b506102f260048036038101906102ed9190613cb7565b610da6565b6040516102ff91906142ab565b60405180910390f35b34801561031457600080fd5b5061032f600480360381019061032a9190613be8565b610e2b565b005b34801561033d57600080fd5b50610346610f43565b005b34801561035457600080fd5b5061035d6110f9565b005b34801561036b57600080fd5b5061038660048036038101906103819190613ae2565b6112ae565b005b34801561039457600080fd5b5061039d61130e565b6040516103aa9190614731565b60405180910390f35b3480156103bf57600080fd5b506103da60048036038101906103d59190613a41565b611314565b6040516103e79190614334565b60405180910390f35b3480156103fc57600080fd5b5061041760048036038101906104129190613ae2565b611331565b005b34801561042557600080fd5b5061042e611351565b60405161043b9190614334565b60405180910390f35b34801561045057600080fd5b50610459611364565b6040516104669190614731565b60405180910390f35b34801561047b57600080fd5b5061048461136a565b604051610491919061474c565b60405180910390f35b3480156104a657600080fd5b506104af61137d565b6040516104bc9190614334565b60405180910390f35b3480156104d157600080fd5b506104ec60048036038101906104e79190613c24565b611390565b005b3480156104fa57600080fd5b5061051560048036038101906105109190613cb7565b611553565b60405161052291906142ab565b60405180910390f35b34801561053757600080fd5b50610552600480360381019061054d9190613c24565b611605565b005b34801561056057600080fd5b50610569611782565b6040516105769190614334565b60405180910390f35b34801561058b57600080fd5b506105a660048036038101906105a19190613a41565b611795565b6040516105b39190614731565b60405180910390f35b3480156105c857600080fd5b506105d161184d565b005b3480156105df57600080fd5b506105e86118d5565b005b3480156105f657600080fd5b50610611600480360381019061060c9190613c24565b611a8a565b005b34801561061f57600080fd5b50610628611c4d565b60405161063591906142ab565b60405180910390f35b34801561064a57600080fd5b5061066560048036038101906106609190613ce0565b611c77565b005b34801561067357600080fd5b5061067c611e49565b604051610689919061434f565b60405180910390f35b6106ac60048036038101906106a79190613cb7565b611edb565b6040516106b99190614312565b60405180910390f35b3480156106ce57600080fd5b506106d761210f565b6040516106e49190614731565b60405180910390f35b3480156106f957600080fd5b50610714600480360381019061070f9190613bac565b612158565b005b34801561072257600080fd5b5061073d60048036038101906107389190613b31565b61216e565b005b34801561074b57600080fd5b506107546121d0565b005b34801561076257600080fd5b5061077d60048036038101906107789190613cb7565b612297565b60405161078a919061434f565b60405180910390f35b34801561079f57600080fd5b506107a861233e565b6040516107b59190614731565b60405180910390f35b3480156107ca57600080fd5b506107e560048036038101906107e09190613a41565b612344565b6040516107f29190614731565b60405180910390f35b34801561080757600080fd5b50610822600480360381019061081d9190613a41565b61235c565b60405161082f9190614334565b60405180910390f35b34801561084457600080fd5b5061085f600480360381019061085a9190613aa6565b612379565b60405161086c9190614334565b60405180910390f35b34801561088157600080fd5b5061089c60048036038101906108979190613a41565b61240d565b005b3480156108aa57600080fd5b506108c560048036038101906108c09190613a6a565b612505565b005b60007f80ac58cd000000000000000000000000000000000000000000000000000000007bffffffffffffffffffffffffffffffffffffffffffffffffffffffff1916827bffffffffffffffffffffffffffffffffffffffffffffffffffffffff1916148061099257507f5b5e139f000000000000000000000000000000000000000000000000000000007bffffffffffffffffffffffffffffffffffffffffffffffffffffffff1916827bffffffffffffffffffffffffffffffffffffffffffffffffffffffff1916145b806109a257506109a1826125d9565b5b9050919050565b6109b1612643565b73ffffffffffffffffffffffffffffffffffffffff166109cf611c4d565b73ffffffffffffffffffffffffffffffffffffffff1614610a25576040517f08c379a0000000000000000000000000000000000000000000000000000000008152600401610a1c90614591565b60405180910390fd5b601160009054906101000a900460ff1615610a75576040517f08c379a0000000000000000000000000000000000000000000000000000000008152600401610a6c90614711565b60405180910390fd5b601160019054906101000a900460ff1615610ac5576040517f08c379a0000000000000000000000000000000000000000000000000000000008152600401610abc90614531565b60405180910390fd5b601160029054906101000a900460ff1615610b15576040517f08c379a0000000000000000000000000000000000000000000000000000000008152600401610b0c90614431565b60405180910390fd5b6001601160006101000a81548160ff021916908315150217905550427fea160f4a1725183ff307b55e355bb04139d56298efc5853e17f99ade82e2f38960405160405180910390a2565b606060008054610b6e90614a4f565b80601f0160208091040260200160405190810160405280929190818152602001828054610b9a90614a4f565b8015610be75780601f10610bbc57610100808354040283529160200191610be7565b820191906000526020600020905b815481529060010190602001808311610bca57829003601f168201915b5050505050905090565b610bf9612643565b73ffffffffffffffffffffffffffffffffffffffff16610c17611c4d565b73ffffffffffffffffffffffffffffffffffffffff1614610c6d576040517f08c379a0000000000000000000000000000000000000000000000000000000008152600401610c6490614591565b60405180910390fd5b601160009054906101000a900460ff1615610cbd576040517f08c379a0000000000000000000000000000000000000000000000000000000008152600401610cb490614711565b60405180910390fd5b601160029054906101000a900460ff1615610d0d576040517f08c379a0000000000000000000000000000000000000000000000000000000008152600401610d0490614431565b60405180910390fd5b601160019054906101000a900460ff16610d5c576040517f08c379a0000000000000000000000000000000000000000000000000000000008152600401610d53906146b1565b60405180910390fd5b6000601160016101000a81548160ff021916908315150217905550427fbbda50ff3083b4adfffcd3c2e8042a8b354ca16013534ab9367661c5a4cb7b2360405160405180910390a2565b6000610db18261264b565b610df0576040517f08c379a0000000000000000000000000000000000000000000000000000000008152600401610de790614551565b60405180910390fd5b6004600083815260200190815260200160002060009054906101000a900473ffffffffffffffffffffffffffffffffffffffff169050919050565b6000610e3682611553565b90508073ffffffffffffffffffffffffffffffffffffffff168373ffffffffffffffffffffffffffffffffffffffff161415610ea7576040517f08c379a0000000000000000000000000000000000000000000000000000000008152600401610e9e90614611565b60405180910390fd5b8073ffffffffffffffffffffffffffffffffffffffff16610ec6612643565b73ffffffffffffffffffffffffffffffffffffffff161480610ef55750610ef481610eef612643565b612379565b5b610f34576040517f08c379a0000000000000000000000000000000000000000000000000000000008152600401610f2b90614491565b60405180910390fd5b610f3e83836126b7565b505050565b610f4b612643565b73ffffffffffffffffffffffffffffffffffffffff16610f69611c4d565b73ffffffffffffffffffffffffffffffffffffffff1614610fbf576040517f08c379a0000000000000000000000000000000000000000000000000000000008152600401610fb690614591565b60405180910390fd5b601160009054906101000a900460ff161561100f576040517f08c379a000000000000000000000000000000000000000000000000000000000815260040161100690614711565b60405180910390fd5b601160019054906101000a900460ff161561105f576040517f08c379a000000000000000000000000000000000000000000000000000000000815260040161105690614531565b60405180910390fd5b601160029054906101000a900460ff16156110af576040517f08c379a00000000000000000000000000000000000000000000000000000000081526004016110a690614431565b60405180910390fd5b6001601160026101000a81548160ff021916908315150217905550427feeae71454a2a58ac8d7c3a2ac3db1f29f81cbd0024aae4292a55139dd9d3560a60405160405180910390a2565b611101612643565b73ffffffffffffffffffffffffffffffffffffffff1661111f611c4d565b73ffffffffffffffffffffffffffffffffffffffff1614611175576040517f08c379a000000000000000000000000000000000000000000000000000000000815260040161116c90614591565b60405180910390fd5b601160009054906101000a900460ff16156111c5576040517f08c379a00000000000000000000000000000000000000000000000000000000081526004016111bc90614711565b60405180910390fd5b601160019054906101000a900460ff1615611215576040517f08c379a000000000000000000000000000000000000000000000000000000000815260040161120c90614531565b60405180910390fd5b601160029054906101000a900460ff16611264576040517f08c379a000000000000000000000000000000000000000000000000000000000815260040161125b90614411565b60405180910390fd5b6000601160026101000a81548160ff021916908315150217905550427f4616a0782e5635981b28be1cd36934a60655b462c370d8bd8092c969abc990d060405160405180910390a2565b6112bf6112b9612643565b82612770565b6112fe576040517f08c379a00000000000000000000000000000000000000000000000000000000081526004016112f590614691565b60405180910390fd5b61130983838361284e565b505050565b600e5481565b600061132a82600a612aaa90919063ffffffff16565b9050919050565b61134c8383836040518060200160405280600081525061216e565b505050565b601160009054906101000a900460ff1681565b60105481565b601160039054906101000a900460ff1681565b601160019054906101000a900460ff1681565b611398612643565b73ffffffffffffffffffffffffffffffffffffffff166113b6611c4d565b73ffffffffffffffffffffffffffffffffffffffff161461140c576040517f08c379a000000000000000000000000000000000000000000000000000000000815260040161140390614591565b60405180910390fd5b6107d081511115611452576040517f08c379a0000000000000000000000000000000000000000000000000000000008152600401611449906144b1565b60405180910390fd5b60005b815181101561154f576114b282828151811061149a577f4e487b7100000000000000000000000000000000000000000000000000000000600052603260045260246000fd5b6020026020010151600c612ada90919063ffffffff16565b1561153b578181815181106114f0577f4e487b7100000000000000000000000000000000000000000000000000000000600052603260045260246000fd5b602002602001015173ffffffffffffffffffffffffffffffffffffffff167fcdd2e9b91a56913d370075169cefa1602ba36be5301664f752192bb1709df75760405160405180910390a25b6001816115489190614865565b9050611455565b5050565b6000806002600084815260200190815260200160002060009054906101000a900473ffffffffffffffffffffffffffffffffffffffff169050600073ffffffffffffffffffffffffffffffffffffffff168173ffffffffffffffffffffffffffffffffffffffff1614156115fc576040517f08c379a00000000000000000000000000000000000000000000000000000000081526004016115f3906144f1565b60405180910390fd5b80915050919050565b61160d612643565b73ffffffffffffffffffffffffffffffffffffffff1661162b611c4d565b73ffffffffffffffffffffffffffffffffffffffff1614611681576040517f08c379a000000000000000000000000000000000000000000000000000000000815260040161167890614591565b60405180910390fd5b60005b815181101561177e576116e18282815181106116c9577f4e487b7100000000000000000000000000000000000000000000000000000000600052603260045260246000fd5b6020026020010151600a612b0a90919063ffffffff16565b1561176a5781818151811061171f577f4e487b7100000000000000000000000000000000000000000000000000000000600052603260045260246000fd5b602002602001015173ffffffffffffffffffffffffffffffffffffffff167fffbd2575fe2e4e63d9838a8ecda40fcd0b19fce153bc5d6fe10157c938086af960405160405180910390a25b6001816117779190614865565b9050611684565b5050565b601160029054906101000a900460ff1681565b60008073ffffffffffffffffffffffffffffffffffffffff168273ffffffffffffffffffffffffffffffffffffffff161415611806576040517f08c379a00000000000000000000000000000000000000000000000000000000081526004016117fd906144d1565b60405180910390fd5b600360008373ffffffffffffffffffffffffffffffffffffffff1673ffffffffffffffffffffffffffffffffffffffff168152602001908152602001600020549050919050565b611855612643565b73ffffffffffffffffffffffffffffffffffffffff16611873611c4d565b73ffffffffffffffffffffffffffffffffffffffff16146118c9576040517f08c379a00000000000000000000000000000000000000000000000000000000081526004016118c090614591565b60405180910390fd5b6118d36000612b3a565b565b6118dd612643565b73ffffffffffffffffffffffffffffffffffffffff166118fb611c4d565b73ffffffffffffffffffffffffffffffffffffffff1614611951576040517f08c379a000000000000000000000000000000000000000000000000000000000815260040161194890614591565b60405180910390fd5b601160019054906101000a900460ff16156119a1576040517f08c379a000000000000000000000000000000000000000000000000000000000815260040161199890614531565b60405180910390fd5b601160029054906101000a900460ff16156119f1576040517f08c379a00000000000000000000000000000000000000000000000000000000081526004016119e890614431565b60405180910390fd5b601160009054906101000a900460ff16611a40576040517f08c379a0000000000000000000000000000000000000000000000000000000008152600401611a3790614651565b60405180910390fd5b6000601160006101000a81548160ff021916908315150217905550427f71fbf9de7004f7d16da327d0c26b8f8b29e6efeaa59d67d1b76d6cc71fe47aae60405160405180910390a2565b611a92612643565b73ffffffffffffffffffffffffffffffffffffffff16611ab0611c4d565b73ffffffffffffffffffffffffffffffffffffffff1614611b06576040517f08c379a0000000000000000000000000000000000000000000000000000000008152600401611afd90614591565b60405180910390fd5b6107d081511115611b4c576040517f08c379a0000000000000000000000000000000000000000000000000000000008152600401611b43906144b1565b60405180910390fd5b60005b8151811015611c4957611bac828281518110611b94577f4e487b7100000000000000000000000000000000000000000000000000000000600052603260045260246000fd5b6020026020010151600c612b0a90919063ffffffff16565b15611c3557818181518110611bea577f4e487b7100000000000000000000000000000000000000000000000000000000600052603260045260246000fd5b602002602001015173ffffffffffffffffffffffffffffffffffffffff167fa850ae9193f515cbae8d35e8925bd2be26627fc91bce650b8652ed254e9cab0360405160405180910390a25b600181611c429190614865565b9050611b4f565b5050565b6000600660009054906101000a900473ffffffffffffffffffffffffffffffffffffffff16905090565b611c7f612643565b73ffffffffffffffffffffffffffffffffffffffff16611c9d611c4d565b73ffffffffffffffffffffffffffffffffffffffff1614611cf3576040517f08c379a0000000000000000000000000000000000000000000000000000000008152600401611cea90614591565b60405180910390fd5b601160009054906101000a900460ff1615611d43576040517f08c379a0000000000000000000000000000000000000000000000000000000008152600401611d3a90614711565b60405180910390fd5b601160019054906101000a900460ff1615611d93576040517f08c379a0000000000000000000000000000000000000000000000000000000008152600401611d8a90614531565b60405180910390fd5b601160029054906101000a900460ff1615611de3576040517f08c379a0000000000000000000000000000000000000000000000000000000008152600401611dda90614431565b60405180910390fd5b80601160036101000a81548160ff021916908360ff1602179055506001601160016101000a81548160ff021916908315150217905550427f0ab3861e918916d082a16babf84acd725febc223f0833c5c03d8b14ec900174360405160405180910390a250565b606060018054611e5890614a4f565b80601f0160208091040260200160405190810160405280929190818152602001828054611e8490614a4f565b8015611ed15780601f10611ea657610100808354040283529160200191611ed1565b820191906000526020600020905b815481529060010190602001808311611eb457829003601f168201915b5050505050905090565b6060601160009054906101000a900460ff1680611f045750601160019054906101000a900460ff165b80611f1b5750601160029054906101000a900460ff165b611f5a576040517f08c379a0000000000000000000000000000000000000000000000000000000008152600401611f5190614571565b60405180910390fd5b60026007541415611fa0576040517f08c379a0000000000000000000000000000000000000000000000000000000008152600401611f97906146d1565b60405180910390fd5b6002600781905550611fb182612c00565b60008267ffffffffffffffff811115611ff3577f4e487b7100000000000000000000000000000000000000000000000000000000600052604160045260246000fd5b6040519080825280602002602001820160405280156120215781602001602082028036833780820191505090505b50905060005b838110156120915761203833612e85565b828281518110612071577f4e487b7100000000000000000000000000000000000000000000000000000000600052603260045260246000fd5b60200260200101818152505060018161208a9190614865565b9050612027565b50601160019054906101000a900460ff16156120fe5782601260003373ffffffffffffffffffffffffffffffffffffffff1673ffffffffffffffffffffffffffffffffffffffff16815260200190815260200160002060008282546120f69190614865565b925050819055505b809150506001600781905550919050565b6000601160009054906101000a900460ff161561213057600e549050612155565b601160019054906101000a900460ff161561214f57600f549050612155565b60105490505b90565b61216a612163612643565b8383612eb2565b5050565b61217f612179612643565b83612770565b6121be576040517f08c379a00000000000000000000000000000000000000000000000000000000081526004016121b590614691565b60405180910390fd5b6121ca8484848461301f565b50505050565b6121d8612643565b73ffffffffffffffffffffffffffffffffffffffff166121f6611c4d565b73ffffffffffffffffffffffffffffffffffffffff161461224c576040517f08c379a000000000000000000000000000000000000000000000000000000000815260040161224390614591565b60405180910390fd5b600a6000808201600080820160006122649190613872565b50505050427fe6c1af3c9d98f7bd5c64e272869df1cf551c48d88c0338f013f5f9e741aa144c60405160405180910390a2565b60606122a28261264b565b6122e1576040517f08c379a00000000000000000000000000000000000000000000000000000000081526004016122d8906145d1565b60405180910390fd5b60006122eb61307b565b9050600081511161230b5760405180602001604052806000815250612336565b8061231584613092565b604051602001612326929190614287565b6040516020818303038152906040525b915050919050565b600f5481565b60126020528060005260406000206000915090505481565b600061237282600c612aaa90919063ffffffff16565b9050919050565b6000600560008473ffffffffffffffffffffffffffffffffffffffff1673ffffffffffffffffffffffffffffffffffffffff16815260200190815260200160002060008373ffffffffffffffffffffffffffffffffffffffff1673ffffffffffffffffffffffffffffffffffffffff16815260200190815260200160002060009054906101000a900460ff16905092915050565b612415612643565b73ffffffffffffffffffffffffffffffffffffffff16612433611c4d565b73ffffffffffffffffffffffffffffffffffffffff1614612489576040517f08c379a000000000000000000000000000000000000000000000000000000000815260040161248090614591565b60405180910390fd5b600073ffffffffffffffffffffffffffffffffffffffff168173ffffffffffffffffffffffffffffffffffffffff1614156124f9576040517f08c379a00000000000000000000000000000000000000000000000000000000081526004016124f090614391565b60405180910390fd5b61250281612b3a565b50565b61250d612643565b73ffffffffffffffffffffffffffffffffffffffff1661252b611c4d565b73ffffffffffffffffffffffffffffffffffffffff1614612581576040517f08c379a000000000000000000000000000000000000000000000000000000000815260040161257890614591565b60405180910390fd5b4781111561258e57600080fd5b8173ffffffffffffffffffffffffffffffffffffffff166108fc479081150290604051600060405180830381858888f193505050501580156125d4573d6000803e3d6000fd5b505050565b60007f01ffc9a7000000000000000000000000000000000000000000000000000000007bffffffffffffffffffffffffffffffffffffffffffffffffffffffff1916827bffffffffffffffffffffffffffffffffffffffffffffffffffffffff1916149050919050565b600033905090565b60008073ffffffffffffffffffffffffffffffffffffffff166002600084815260200190815260200160002060009054906101000a900473ffffffffffffffffffffffffffffffffffffffff1673ffffffffffffffffffffffffffffffffffffffff1614159050919050565b816004600083815260200190815260200160002060006101000a81548173ffffffffffffffffffffffffffffffffffffffff021916908373ffffffffffffffffffffffffffffffffffffffff160217905550808273ffffffffffffffffffffffffffffffffffffffff1661272a83611553565b73ffffffffffffffffffffffffffffffffffffffff167f8c5be1e5ebec7d5bd14f71427d1e84f3dd0314c0f7b2291e5b200ac8c7c3b92560405160405180910390a45050565b600061277b8261264b565b6127ba576040517f08c379a00000000000000000000000000000000000000000000000000000000081526004016127b190614451565b60405180910390fd5b60006127c583611553565b90508073ffffffffffffffffffffffffffffffffffffffff168473ffffffffffffffffffffffffffffffffffffffff16148061283457508373ffffffffffffffffffffffffffffffffffffffff1661281c84610da6565b73ffffffffffffffffffffffffffffffffffffffff16145b8061284557506128448185612379565b5b91505092915050565b8273ffffffffffffffffffffffffffffffffffffffff1661286e82611553565b73ffffffffffffffffffffffffffffffffffffffff16146128c4576040517f08c379a00000000000000000000000000000000000000000000000000000000081526004016128bb906145b1565b60405180910390fd5b600073ffffffffffffffffffffffffffffffffffffffff168273ffffffffffffffffffffffffffffffffffffffff161415612934576040517f08c379a000000000000000000000000000000000000000000000000000000000815260040161292b906143d1565b60405180910390fd5b61293f83838361323f565b61294a6000826126b7565b6001600360008573ffffffffffffffffffffffffffffffffffffffff1673ffffffffffffffffffffffffffffffffffffffff168152602001908152602001600020600082825461299a9190614946565b925050819055506001600360008473ffffffffffffffffffffffffffffffffffffffff1673ffffffffffffffffffffffffffffffffffffffff16815260200190815260200160002060008282546129f19190614865565b92505081905550816002600083815260200190815260200160002060006101000a81548173ffffffffffffffffffffffffffffffffffffffff021916908373ffffffffffffffffffffffffffffffffffffffff160217905550808273ffffffffffffffffffffffffffffffffffffffff168473ffffffffffffffffffffffffffffffffffffffff167fddf252ad1be2c89b69c2b068fc378daa952ba7f163c4a11628f55a4df523b3ef60405160405180910390a4505050565b6000612ad2836000018373ffffffffffffffffffffffffffffffffffffffff1660001b613244565b905092915050565b6000612b02836000018373ffffffffffffffffffffffffffffffffffffffff1660001b613267565b905092915050565b6000612b32836000018373ffffffffffffffffffffffffffffffffffffffff1660001b6133ed565b905092915050565b6000600660009054906101000a900473ffffffffffffffffffffffffffffffffffffffff16905081600660006101000a81548173ffffffffffffffffffffffffffffffffffffffff021916908373ffffffffffffffffffffffffffffffffffffffff1602179055508173ffffffffffffffffffffffffffffffffffffffff168173ffffffffffffffffffffffffffffffffffffffff167f8be0079c531659141344cd1fd0a4f28419497f9722a3daafe3b4186f6b6457e060405160405180910390a35050565b600073ffffffffffffffffffffffffffffffffffffffff163373ffffffffffffffffffffffffffffffffffffffff161415612c3a57600080fd5b60008111612c7d576040517f08c379a0000000000000000000000000000000000000000000000000000000008152600401612c74906145f1565b60405180910390fd5b601160009054906101000a900460ff1615612cdf57612c9b33611314565b612cda576040517f08c379a0000000000000000000000000000000000000000000000000000000008152600401612cd190614671565b60405180910390fd5b612e82565b601160019054906101000a900460ff1615612e3057612cfd3361235c565b612d3c576040517f08c379a0000000000000000000000000000000000000000000000000000000008152600401612d3390614671565b60405180910390fd5b601160039054906101000a900460ff1660ff16601260003373ffffffffffffffffffffffffffffffffffffffff1673ffffffffffffffffffffffffffffffffffffffff1681526020019081526020016000205482612d9a9190614865565b1115612ddb576040517f08c379a0000000000000000000000000000000000000000000000000000000008152600401612dd290614631565b60405180910390fd5b3481600f54612dea91906148ec565b1115612e2b576040517f08c379a0000000000000000000000000000000000000000000000000000000008152600401612e22906146f1565b60405180910390fd5b612e81565b3481601054612e3f91906148ec565b1115612e80576040517f08c379a0000000000000000000000000000000000000000000000000000000008152600401612e7790614471565b60405180910390fd5b5b5b50565b6000612e91600961345d565b6000612e9d6009613473565b9050612ea98382613481565b80915050919050565b8173ffffffffffffffffffffffffffffffffffffffff168373ffffffffffffffffffffffffffffffffffffffff161415612f21576040517f08c379a0000000000000000000000000000000000000000000000000000000008152600401612f18906143f1565b60405180910390fd5b80600560008573ffffffffffffffffffffffffffffffffffffffff1673ffffffffffffffffffffffffffffffffffffffff16815260200190815260200160002060008473ffffffffffffffffffffffffffffffffffffffff1673ffffffffffffffffffffffffffffffffffffffff16815260200190815260200160002060006101000a81548160ff0219169083151502179055508173ffffffffffffffffffffffffffffffffffffffff168373ffffffffffffffffffffffffffffffffffffffff167f17307eab39ab6107e8899845ad3d59bd9653f200f220920489ca2b5937696c31836040516130129190614334565b60405180910390a3505050565b61302a84848461284e565b6130368484848461349f565b613075576040517f08c379a000000000000000000000000000000000000000000000000000000000815260040161306c90614371565b60405180910390fd5b50505050565b606060405180602001604052806000815250905090565b606060008214156130da576040518060400160405280600181526020017f3000000000000000000000000000000000000000000000000000000000000000815250905061323a565b600082905060005b6000821461310c5780806130f590614ab2565b915050600a8261310591906148bb565b91506130e2565b60008167ffffffffffffffff81111561314e577f4e487b7100000000000000000000000000000000000000000000000000000000600052604160045260246000fd5b6040519080825280601f01601f1916602001820160405280156131805781602001600182028036833780820191505090505b5090505b60008514613233576001826131999190614946565b9150600a856131a89190614afb565b60306131b49190614865565b60f81b8183815181106131f0577f4e487b7100000000000000000000000000000000000000000000000000000000600052603260045260246000fd5b60200101907effffffffffffffffffffffffffffffffffffffffffffffffffffffffffffff1916908160001a905350600a8561322c91906148bb565b9450613184565b8093505050505b919050565b505050565b600080836001016000848152602001908152602001600020541415905092915050565b600080836001016000848152602001908152602001600020549050600081146133e15760006001826132999190614946565b90506000600186600001805490506132b19190614946565b905081811461336c5760008660000182815481106132f8577f4e487b7100000000000000000000000000000000000000000000000000000000600052603260045260246000fd5b9060005260206000200154905080876000018481548110613342577f4e487b7100000000000000000000000000000000000000000000000000000000600052603260045260246000fd5b90600052602060002001819055508387600101600083815260200190815260200160002081905550505b856000018054806133a6577f4e487b7100000000000000000000000000000000000000000000000000000000600052603160045260246000fd5b6001900381819060005260206000200160009055905585600101600086815260200190815260200160002060009055600193505050506133e7565b60009150505b92915050565b60006133f98383613244565b613452578260000182908060018154018082558091505060019003906000526020600020016000909190919091505582600001805490508360010160008481526020019081526020016000208190555060019050613457565b600090505b92915050565b6001816000016000828254019250508190555050565b600081600001549050919050565b61349b828260405180602001604052806000815250613636565b5050565b60006134c08473ffffffffffffffffffffffffffffffffffffffff16613691565b15613629578373ffffffffffffffffffffffffffffffffffffffff1663150b7a026134e9612643565b8786866040518563ffffffff1660e01b815260040161350b94939291906142c6565b602060405180830381600087803b15801561352557600080fd5b505af192505050801561355657506040513d601f19601f820116820180604052508101906135539190613c8e565b60015b6135d9573d8060008114613586576040519150601f19603f3d011682016040523d82523d6000602084013e61358b565b606091505b506000815114156135d1576040517f08c379a00000000000000000000000000000000000000000000000000000000081526004016135c890614371565b60405180910390fd5b805181602001fd5b63150b7a0260e01b7bffffffffffffffffffffffffffffffffffffffffffffffffffffffff1916817bffffffffffffffffffffffffffffffffffffffffffffffffffffffff19161491505061362e565b600190505b949350505050565b61364083836136a4565b61364d600084848461349f565b61368c576040517f08c379a000000000000000000000000000000000000000000000000000000000815260040161368390614371565b60405180910390fd5b505050565b600080823b905060008111915050919050565b600073ffffffffffffffffffffffffffffffffffffffff168273ffffffffffffffffffffffffffffffffffffffff161415613714576040517f08c379a000000000000000000000000000000000000000000000000000000000815260040161370b90614511565b60405180910390fd5b61371d8161264b565b1561375d576040517f08c379a0000000000000000000000000000000000000000000000000000000008152600401613754906143b1565b60405180910390fd5b6137696000838361323f565b6001600360008473ffffffffffffffffffffffffffffffffffffffff1673ffffffffffffffffffffffffffffffffffffffff16815260200190815260200160002060008282546137b99190614865565b92505081905550816002600083815260200190815260200160002060006101000a81548173ffffffffffffffffffffffffffffffffffffffff021916908373ffffffffffffffffffffffffffffffffffffffff160217905550808273ffffffffffffffffffffffffffffffffffffffff16600073ffffffffffffffffffffffffffffffffffffffff167fddf252ad1be2c89b69c2b068fc378daa952ba7f163c4a11628f55a4df523b3ef60405160405180910390a45050565b50805460008255906000526020600020908101906138909190613893565b50565b5b808211156138ac576000816000905550600101613894565b5090565b60006138c36138be8461478c565b614767565b905080838252602082019050828560208602820111156138e257600080fd5b60005b8581101561391257816138f8888261395a565b8452602084019350602083019250506001810190506138e5565b5050509392505050565b600061392f61392a846147b8565b614767565b90508281526020810184848401111561394757600080fd5b613952848285614a0d565b509392505050565b600081359050613969816152db565b92915050565b60008135905061397e816152f2565b92915050565b600082601f83011261399557600080fd5b81356139a58482602086016138b0565b91505092915050565b6000813590506139bd81615309565b92915050565b6000813590506139d281615320565b92915050565b6000815190506139e781615320565b92915050565b600082601f8301126139fe57600080fd5b8135613a0e84826020860161391c565b91505092915050565b600081359050613a2681615337565b92915050565b600081359050613a3b8161534e565b92915050565b600060208284031215613a5357600080fd5b6000613a618482850161395a565b91505092915050565b60008060408385031215613a7d57600080fd5b6000613a8b8582860161396f565b9250506020613a9c85828601613a17565b9150509250929050565b60008060408385031215613ab957600080fd5b6000613ac78582860161395a565b9250506020613ad88582860161395a565b9150509250929050565b600080600060608486031215613af757600080fd5b6000613b058682870161395a565b9350506020613b168682870161395a565b9250506040613b2786828701613a17565b9150509250925092565b60008060008060808587031215613b4757600080fd5b6000613b558782880161395a565b9450506020613b668782880161395a565b9350506040613b7787828801613a17565b925050606085013567ffffffffffffffff811115613b9457600080fd5b613ba0878288016139ed565b91505092959194509250565b60008060408385031215613bbf57600080fd5b6000613bcd8582860161395a565b9250506020613bde858286016139ae565b9150509250929050565b60008060408385031215613bfb57600080fd5b6000613c098582860161395a565b9250506020613c1a85828601613a17565b9150509250929050565b600060208284031215613c3657600080fd5b600082013567ffffffffffffffff811115613c5057600080fd5b613c5c84828501613984565b91505092915050565b600060208284031215613c7757600080fd5b6000613c85848285016139c3565b91505092915050565b600060208284031215613ca057600080fd5b6000613cae848285016139d8565b91505092915050565b600060208284031215613cc957600080fd5b6000613cd784828501613a17565b91505092915050565b600060208284031215613cf257600080fd5b6000613d0084828501613a2c565b91505092915050565b6000613d15838361425a565b60208301905092915050565b613d2a8161497a565b82525050565b6000613d3b826147f9565b613d458185614827565b9350613d50836147e9565b8060005b83811015613d81578151613d688882613d09565b9750613d738361481a565b925050600181019050613d54565b5085935050505092915050565b613d978161499e565b82525050565b6000613da882614804565b613db28185614838565b9350613dc2818560208601614a1c565b613dcb81614be8565b840191505092915050565b6000613de18261480f565b613deb8185614849565b9350613dfb818560208601614a1c565b613e0481614be8565b840191505092915050565b6000613e1a8261480f565b613e24818561485a565b9350613e34818560208601614a1c565b80840191505092915050565b6000613e4d603283614849565b9150613e5882614bf9565b604082019050919050565b6000613e70602683614849565b9150613e7b82614c48565b604082019050919050565b6000613e93601c83614849565b9150613e9e82614c97565b602082019050919050565b6000613eb6602483614849565b9150613ec182614cc0565b604082019050919050565b6000613ed9601983614849565b9150613ee482614d0f565b602082019050919050565b6000613efc601283614849565b9150613f0782614d38565b602082019050919050565b6000613f1f601283614849565b9150613f2a82614d61565b602082019050919050565b6000613f42602c83614849565b9150613f4d82614d8a565b604082019050919050565b6000613f65601283614849565b9150613f7082614dd9565b602082019050919050565b6000613f88603883614849565b9150613f9382614e02565b604082019050919050565b6000613fab601c83614849565b9150613fb682614e51565b602082019050919050565b6000613fce602a83614849565b9150613fd982614e7a565b604082019050919050565b6000613ff1602983614849565b9150613ffc82614ec9565b604082019050919050565b6000614014602083614849565b915061401f82614f18565b602082019050919050565b6000614037601583614849565b915061404282614f41565b602082019050919050565b600061405a602c83614849565b915061406582614f6a565b604082019050919050565b600061407d602583614849565b915061408882614fb9565b604082019050919050565b60006140a0602083614849565b91506140ab82615008565b602082019050919050565b60006140c3602983614849565b91506140ce82615031565b604082019050919050565b60006140e6602f83614849565b91506140f182615080565b604082019050919050565b6000614109601c83614849565b9150614114826150cf565b602082019050919050565b600061412c602183614849565b9150614137826150f8565b604082019050919050565b600061414f602183614849565b915061415a82615147565b604082019050919050565b6000614172601383614849565b915061417d82615196565b602082019050919050565b6000614195601983614849565b91506141a0826151bf565b602082019050919050565b60006141b8603183614849565b91506141c3826151e8565b604082019050919050565b60006141db601583614849565b91506141e682615237565b602082019050919050565b60006141fe601f83614849565b915061420982615260565b602082019050919050565b6000614221601b83614849565b915061422c82615289565b602082019050919050565b6000614244601383614849565b915061424f826152b2565b602082019050919050565b614263816149f6565b82525050565b614272816149f6565b82525050565b61428181614a00565b82525050565b60006142938285613e0f565b915061429f8284613e0f565b91508190509392505050565b60006020820190506142c06000830184613d21565b92915050565b60006080820190506142db6000830187613d21565b6142e86020830186613d21565b6142f56040830185614269565b81810360608301526143078184613d9d565b905095945050505050565b6000602082019050818103600083015261432c8184613d30565b905092915050565b60006020820190506143496000830184613d8e565b92915050565b600060208201905081810360008301526143698184613dd6565b905092915050565b6000602082019050818103600083015261438a81613e40565b9050919050565b600060208201905081810360008301526143aa81613e63565b9050919050565b600060208201905081810360008301526143ca81613e86565b9050919050565b600060208201905081810360008301526143ea81613ea9565b9050919050565b6000602082019050818103600083015261440a81613ecc565b9050919050565b6000602082019050818103600083015261442a81613eef565b9050919050565b6000602082019050818103600083015261444a81613f12565b9050919050565b6000602082019050818103600083015261446a81613f35565b9050919050565b6000602082019050818103600083015261448a81613f58565b9050919050565b600060208201905081810360008301526144aa81613f7b565b9050919050565b600060208201905081810360008301526144ca81613f9e565b9050919050565b600060208201905081810360008301526144ea81613fc1565b9050919050565b6000602082019050818103600083015261450a81613fe4565b9050919050565b6000602082019050818103600083015261452a81614007565b9050919050565b6000602082019050818103600083015261454a8161402a565b9050919050565b6000602082019050818103600083015261456a8161404d565b9050919050565b6000602082019050818103600083015261458a81614070565b9050919050565b600060208201905081810360008301526145aa81614093565b9050919050565b600060208201905081810360008301526145ca816140b6565b9050919050565b600060208201905081810360008301526145ea816140d9565b9050919050565b6000602082019050818103600083015261460a816140fc565b9050919050565b6000602082019050818103600083015261462a8161411f565b9050919050565b6000602082019050818103600083015261464a81614142565b9050919050565b6000602082019050818103600083015261466a81614165565b9050919050565b6000602082019050818103600083015261468a81614188565b9050919050565b600060208201905081810360008301526146aa816141ab565b9050919050565b600060208201905081810360008301526146ca816141ce565b9050919050565b600060208201905081810360008301526146ea816141f1565b9050919050565b6000602082019050818103600083015261470a81614214565b9050919050565b6000602082019050818103600083015261472a81614237565b9050919050565b60006020820190506147466000830184614269565b92915050565b60006020820190506147616000830184614278565b92915050565b6000614771614782565b905061477d8282614a81565b919050565b6000604051905090565b600067ffffffffffffffff8211156147a7576147a6614bb9565b5b602082029050602081019050919050565b600067ffffffffffffffff8211156147d3576147d2614bb9565b5b6147dc82614be8565b9050602081019050919050565b6000819050602082019050919050565b600081519050919050565b600081519050919050565b600081519050919050565b6000602082019050919050565b600082825260208201905092915050565b600082825260208201905092915050565b600082825260208201905092915050565b600081905092915050565b6000614870826149f6565b915061487b836149f6565b9250827fffffffffffffffffffffffffffffffffffffffffffffffffffffffffffffffff038211156148b0576148af614b2c565b5b828201905092915050565b60006148c6826149f6565b91506148d1836149f6565b9250826148e1576148e0614b5b565b5b828204905092915050565b60006148f7826149f6565b9150614902836149f6565b9250817fffffffffffffffffffffffffffffffffffffffffffffffffffffffffffffffff048311821515161561493b5761493a614b2c565b5b828202905092915050565b6000614951826149f6565b915061495c836149f6565b92508282101561496f5761496e614b2c565b5b828203905092915050565b6000614985826149d6565b9050919050565b6000614997826149d6565b9050919050565b60008115159050919050565b60007fffffffff0000000000000000000000000000000000000000000000000000000082169050919050565b600073ffffffffffffffffffffffffffffffffffffffff82169050919050565b6000819050919050565b600060ff82169050919050565b82818337600083830152505050565b60005b83811015614a3a578082015181840152602081019050614a1f565b83811115614a49576000848401525b50505050565b60006002820490506001821680614a6757607f821691505b60208210811415614a7b57614a7a614b8a565b5b50919050565b614a8a82614be8565b810181811067ffffffffffffffff82111715614aa957614aa8614bb9565b5b80604052505050565b6000614abd826149f6565b91507fffffffffffffffffffffffffffffffffffffffffffffffffffffffffffffffff821415614af057614aef614b2c565b5b600182019050919050565b6000614b06826149f6565b9150614b11836149f6565b925082614b2157614b20614b5b565b5b828206905092915050565b7f4e487b7100000000000000000000000000000000000000000000000000000000600052601160045260246000fd5b7f4e487b7100000000000000000000000000000000000000000000000000000000600052601260045260246000fd5b7f4e487b7100000000000000000000000000000000000000000000000000000000600052602260045260246000fd5b7f4e487b7100000000000000000000000000000000000000000000000000000000600052604160045260246000fd5b6000601f19601f8301169050919050565b7f4552433732313a207472616e7366657220746f206e6f6e20455243373231526560008201527f63656976657220696d706c656d656e7465720000000000000000000000000000602082015250565b7f4f776e61626c653a206e6577206f776e657220697320746865207a65726f206160008201527f6464726573730000000000000000000000000000000000000000000000000000602082015250565b7f4552433732313a20746f6b656e20616c7265616479206d696e74656400000000600082015250565b7f4552433732313a207472616e7366657220746f20746865207a65726f2061646460008201527f7265737300000000000000000000000000000000000000000000000000000000602082015250565b7f4552433732313a20617070726f766520746f2063616c6c657200000000000000600082015250565b7f53616c65206973206e6f74206163746976650000000000000000000000000000600082015250565b7f53616c65206973206e6f74207061757365640000000000000000000000000000600082015250565b7f4552433732313a206f70657261746f7220717565727920666f72206e6f6e657860008201527f697374656e7420746f6b656e0000000000000000000000000000000000000000602082015250565b7f496e73756666696369656e742066756e64730000000000000000000000000000600082015250565b7f4552433732313a20617070726f76652063616c6c6572206973206e6f74206f7760008201527f6e6572206e6f7220617070726f76656420666f7220616c6c0000000000000000602082015250565b7f57686974656c6973742063616e6e6f7420657863656564203230303000000000600082015250565b7f4552433732313a2062616c616e636520717565727920666f7220746865207a6560008201527f726f206164647265737300000000000000000000000000000000000000000000602082015250565b7f4552433732313a206f776e657220717565727920666f72206e6f6e657869737460008201527f656e7420746f6b656e0000000000000000000000000000000000000000000000602082015250565b7f4552433732313a206d696e7420746f20746865207a65726f2061646472657373600082015250565b7f50726573616c65206973206e6f74207061757365640000000000000000000000600082015250565b7f4552433732313a20617070726f76656420717565727920666f72206e6f6e657860008201527f697374656e7420746f6b656e0000000000000000000000000000000000000000602082015250565b7f546865726520617265206e6f2073616c65732061742074686973207465726d6960008201527f6e61746564000000000000000000000000000000000000000000000000000000602082015250565b7f4f776e61626c653a2063616c6c6572206973206e6f7420746865206f776e6572600082015250565b7f4552433732313a207472616e73666572206f6620746f6b656e2074686174206960008201527f73206e6f74206f776e0000000000000000000000000000000000000000000000602082015250565b7f4552433732314d657461646174613a2055524920717565727920666f72206e6f60008201527f6e6578697374656e7420746f6b656e0000000000000000000000000000000000602082015250565b7f4d757374206d696e74206174206c65617374206f6e6520746f6b656e00000000600082015250565b7f4552433732313a20617070726f76616c20746f2063757272656e74206f776e6560008201527f7200000000000000000000000000000000000000000000000000000000000000602082015250565b7f50726573616c652c206c696d6974656420616d6f756e74206f6620746f6b656e60008201527f7300000000000000000000000000000000000000000000000000000000000000602082015250565b7f4769766561776179206e6f742061637469766500000000000000000000000000600082015250565b7f416464726573732069736e27742077686974656c697374656400000000000000600082015250565b7f4552433732313a207472616e736665722063616c6c6572206973206e6f74206f60008201527f776e6572206e6f7220617070726f766564000000000000000000000000000000602082015250565b7f50726573616c65206973206e6f74206163746976650000000000000000000000600082015250565b7f5265656e7472616e637947756172643a207265656e7472616e742063616c6c00600082015250565b7f50726573616c652c20696e73756666696369656e742066756e64730000000000600082015250565b7f4769766561776179206e6f742070617573656400000000000000000000000000600082015250565b6152e48161497a565b81146152ef57600080fd5b50565b6152fb8161498c565b811461530657600080fd5b50565b6153128161499e565b811461531d57600080fd5b50565b615329816149aa565b811461533457600080fd5b50565b615340816149f6565b811461534b57600080fd5b50565b61535781614a00565b811461536257600080fd5b5056fea2646970667358221220f7a225b9a9157cfdda1652a9ca2d7ca8fa557ea04e541aff93ba0a0268a6b42664736f6c63430008040033",
  "linkReferences": {},
  "deployedLinkReferences": {}
}