{
  "_format": "hh-sol-artifact-1",
  "contractName": "Turtleverse",
  "sourceName": "contracts/Turtleverse.sol",
  "abi": [
    {
      "inputs": [
        {
          "internalType": "string",
          "name": "name_",
          "type": "string"
        },
        {
          "internalType": "string",
          "name": "symbol_",
          "type": "string"
        },
        {
          "internalType": "string",
          "name": "baseURI_",
          "type": "string"
        },
        {
          "internalType": "uint256",
          "name": "maxSupply_",
          "type": "uint256"
        },
        {
          "internalType": "uint256",
          "name": "maxWithdrawal_",
          "type": "uint256"
        },
        {
          "internalType": "uint8",
          "name": "presaleLimit_",
          "type": "uint8"
        },
        {
          "internalType": "uint8",
          "name": "saleLimit_",
          "type": "uint8"
        },
        {
          "internalType": "address payable",
          "name": "payout_",
          "type": "address"
        }
      ],
      "stateMutability": "nonpayable",
      "type": "constructor"
    },
    {
      "anonymous": false,
      "inputs": [
        {
          "indexed": true,
          "internalType": "address",
          "name": "_address",
          "type": "address"
        }
      ],
      "name": "AddedToGiveawayList",
      "type": "event"
    },
    {
      "anonymous": false,
      "inputs": [
        {
          "indexed": true,
          "internalType": "address",
          "name": "_address",
          "type": "address"
        }
      ],
      "name": "AddedToWhitelist",
      "type": "event"
    },
    {
      "anonymous": false,
      "inputs": [
        {
          "indexed": true,
          "internalType": "address",
          "name": "owner",
          "type": "address"
        },
        {
          "indexed": true,
          "internalType": "address",
          "name": "approved",
          "type": "address"
        },
        {
          "indexed": true,
          "internalType": "uint256",
          "name": "tokenId",
          "type": "uint256"
        }
      ],
      "name": "Approval",
      "type": "event"
    },
    {
      "anonymous": false,
      "inputs": [
        {
          "indexed": true,
          "internalType": "address",
          "name": "owner",
          "type": "address"
        },
        {
          "indexed": true,
          "internalType": "address",
          "name": "operator",
          "type": "address"
        },
        {
          "indexed": false,
          "internalType": "bool",
          "name": "approved",
          "type": "bool"
        }
      ],
      "name": "ApprovalForAll",
      "type": "event"
    },
    {
      "anonymous": false,
      "inputs": [
        {
          "indexed": true,
          "internalType": "uint256",
          "name": "_giveawayStopTime",
          "type": "uint256"
        }
      ],
      "name": "GiveawayPaused",
      "type": "event"
    },
    {
      "anonymous": false,
      "inputs": [
        {
          "indexed": true,
          "internalType": "uint256",
          "name": "_giveawayStartTime",
          "type": "uint256"
        }
      ],
      "name": "GiveawayStart",
      "type": "event"
    },
    {
      "anonymous": false,
      "inputs": [
        {
          "indexed": true,
          "internalType": "address",
          "name": "previousOwner",
          "type": "address"
        },
        {
          "indexed": true,
          "internalType": "address",
          "name": "newOwner",
          "type": "address"
        }
      ],
      "name": "OwnershipTransferred",
      "type": "event"
    },
    {
      "anonymous": false,
      "inputs": [
        {
          "indexed": true,
          "internalType": "uint256",
          "name": "_presaleStopTime",
          "type": "uint256"
        }
      ],
      "name": "PresalePaused",
      "type": "event"
    },
    {
      "anonymous": false,
      "inputs": [
        {
          "indexed": true,
          "internalType": "uint256",
          "name": "_presaleStartTime",
          "type": "uint256"
        }
      ],
      "name": "PresaleStart",
      "type": "event"
    },
    {
      "anonymous": false,
      "inputs": [
        {
          "indexed": true,
          "internalType": "address",
          "name": "_address",
          "type": "address"
        }
      ],
      "name": "RemovedFromWhitelist",
      "type": "event"
    },
    {
      "anonymous": false,
      "inputs": [
        {
          "indexed": true,
          "internalType": "uint256",
          "name": "_saleStopTime",
          "type": "uint256"
        }
      ],
      "name": "SalePaused",
      "type": "event"
    },
    {
      "anonymous": false,
      "inputs": [
        {
          "indexed": true,
          "internalType": "uint256",
          "name": "_saleStartTime",
          "type": "uint256"
        }
      ],
      "name": "SaleStart",
      "type": "event"
    },
    {
      "anonymous": false,
      "inputs": [
        {
          "indexed": true,
          "internalType": "address",
          "name": "from",
          "type": "address"
        },
        {
          "indexed": true,
          "internalType": "address",
          "name": "to",
          "type": "address"
        },
        {
          "indexed": true,
          "internalType": "uint256",
          "name": "tokenId",
          "type": "uint256"
        }
      ],
      "name": "Transfer",
      "type": "event"
    },
    {
      "inputs": [
        {
          "internalType": "address[]",
          "name": "addresses",
          "type": "address[]"
        }
      ],
      "name": "addToGiveawayList",
      "outputs": [],
      "stateMutability": "nonpayable",
      "type": "function"
    },
    {
      "inputs": [
        {
          "internalType": "address[]",
          "name": "addresses",
          "type": "address[]"
        }
      ],
      "name": "addToWhitelist",
      "outputs": [],
      "stateMutability": "nonpayable",
      "type": "function"
    },
    {
      "inputs": [
        {
          "internalType": "address",
          "name": "to",
          "type": "address"
        },
        {
          "internalType": "uint256",
          "name": "tokenId",
          "type": "uint256"
        }
      ],
      "name": "approve",
      "outputs": [],
      "stateMutability": "nonpayable",
      "type": "function"
    },
    {
      "inputs": [
        {
          "internalType": "address",
          "name": "owner",
          "type": "address"
        }
      ],
      "name": "balanceOf",
      "outputs": [
        {
          "internalType": "uint256",
          "name": "",
          "type": "uint256"
        }
      ],
      "stateMutability": "view",
      "type": "function"
    },
    {
      "inputs": [
        {
          "internalType": "uint256",
          "name": "tokenId",
          "type": "uint256"
        }
      ],
      "name": "getApproved",
      "outputs": [
        {
          "internalType": "address",
          "name": "",
          "type": "address"
        }
      ],
      "stateMutability": "view",
      "type": "function"
    },
    {
      "inputs": [],
      "name": "giveawayActive",
      "outputs": [
        {
          "internalType": "bool",
          "name": "",
          "type": "bool"
        }
      ],
      "stateMutability": "view",
      "type": "function"
    },
    {
      "inputs": [],
      "name": "giveawayPriceToMint",
      "outputs": [
        {
          "internalType": "uint256",
          "name": "",
          "type": "uint256"
        }
      ],
      "stateMutability": "view",
      "type": "function"
    },
    {
      "inputs": [
        {
          "internalType": "address",
          "name": "owner",
          "type": "address"
        },
        {
          "internalType": "address",
          "name": "operator",
          "type": "address"
        }
      ],
      "name": "isApprovedForAll",
      "outputs": [
        {
          "internalType": "bool",
          "name": "",
          "type": "bool"
        }
      ],
      "stateMutability": "view",
      "type": "function"
    },
    {
      "inputs": [
        {
          "internalType": "uint256",
          "name": "tokensAmount",
          "type": "uint256"
        },
        {
          "internalType": "string[]",
          "name": "tokenHashes",
          "type": "string[]"
        }
      ],
      "name": "mintTokens",
      "outputs": [
        {
          "internalType": "uint256[]",
          "name": "",
          "type": "uint256[]"
        }
      ],
      "stateMutability": "payable",
      "type": "function"
    },
    {
      "inputs": [],
      "name": "name",
      "outputs": [
        {
          "internalType": "string",
          "name": "",
          "type": "string"
        }
      ],
      "stateMutability": "view",
      "type": "function"
    },
    {
      "inputs": [],
      "name": "owner",
      "outputs": [
        {
          "internalType": "address",
          "name": "",
          "type": "address"
        }
      ],
      "stateMutability": "view",
      "type": "function"
    },
    {
      "inputs": [
        {
          "internalType": "uint256",
          "name": "tokenId",
          "type": "uint256"
        }
      ],
      "name": "ownerOf",
      "outputs": [
        {
          "internalType": "address",
          "name": "",
          "type": "address"
        }
      ],
      "stateMutability": "view",
      "type": "function"
    },
    {
      "inputs": [],
      "name": "pauseGiveaway",
      "outputs": [],
      "stateMutability": "nonpayable",
      "type": "function"
    },
    {
      "inputs": [],
      "name": "pausePresale",
      "outputs": [],
      "stateMutability": "nonpayable",
      "type": "function"
    },
    {
      "inputs": [],
      "name": "pausePublicSale",
      "outputs": [],
      "stateMutability": "nonpayable",
      "type": "function"
    },
    {
      "inputs": [],
      "name": "presaleActive",
      "outputs": [
        {
          "internalType": "bool",
          "name": "",
          "type": "bool"
        }
      ],
      "stateMutability": "view",
      "type": "function"
    },
    {
      "inputs": [],
      "name": "presalePriceToMint",
      "outputs": [
        {
          "internalType": "uint256",
          "name": "",
          "type": "uint256"
        }
      ],
      "stateMutability": "view",
      "type": "function"
    },
    {
      "inputs": [
        {
          "internalType": "address",
          "name": "",
          "type": "address"
        }
      ],
      "name": "presalePurchasedAmount",
      "outputs": [
        {
          "internalType": "uint256",
          "name": "",
          "type": "uint256"
        }
      ],
      "stateMutability": "view",
      "type": "function"
    },
    {
      "inputs": [],
      "name": "price",
      "outputs": [
        {
          "internalType": "uint256",
          "name": "",
          "type": "uint256"
        }
      ],
      "stateMutability": "view",
      "type": "function"
    },
    {
      "inputs": [],
      "name": "priceToMint",
      "outputs": [
        {
          "internalType": "uint256",
          "name": "",
          "type": "uint256"
        }
      ],
      "stateMutability": "view",
      "type": "function"
    },
    {
      "inputs": [
        {
          "internalType": "address[]",
          "name": "addresses",
          "type": "address[]"
        }
      ],
      "name": "removeFromWhitelist",
      "outputs": [],
      "stateMutability": "nonpayable",
      "type": "function"
    },
    {
      "inputs": [],
      "name": "renounceOwnership",
      "outputs": [],
      "stateMutability": "nonpayable",
      "type": "function"
    },
    {
      "inputs": [
        {
          "internalType": "uint256",
          "name": "_tokenId",
          "type": "uint256"
        },
        {
          "internalType": "uint256",
          "name": "_salePrice",
          "type": "uint256"
        }
      ],
      "name": "royaltyInfo",
      "outputs": [
        {
          "internalType": "address",
          "name": "receiver",
          "type": "address"
        },
        {
          "internalType": "uint256",
          "name": "royaltyAmount",
          "type": "uint256"
        }
      ],
      "stateMutability": "view",
      "type": "function"
    },
    {
      "inputs": [
        {
          "internalType": "address",
          "name": "from",
          "type": "address"
        },
        {
          "internalType": "address",
          "name": "to",
          "type": "address"
        },
        {
          "internalType": "uint256",
          "name": "tokenId",
          "type": "uint256"
        }
      ],
      "name": "safeTransferFrom",
      "outputs": [],
      "stateMutability": "nonpayable",
      "type": "function"
    },
    {
      "inputs": [
        {
          "internalType": "address",
          "name": "from",
          "type": "address"
        },
        {
          "internalType": "address",
          "name": "to",
          "type": "address"
        },
        {
          "internalType": "uint256",
          "name": "tokenId",
          "type": "uint256"
        },
        {
          "internalType": "bytes",
          "name": "_data",
          "type": "bytes"
        }
      ],
      "name": "safeTransferFrom",
      "outputs": [],
      "stateMutability": "nonpayable",
      "type": "function"
    },
    {
      "inputs": [],
      "name": "saleActive",
      "outputs": [
        {
          "internalType": "bool",
          "name": "",
          "type": "bool"
        }
      ],
      "stateMutability": "view",
      "type": "function"
    },
    {
      "inputs": [
        {
          "internalType": "address",
          "name": "",
          "type": "address"
        }
      ],
      "name": "salePurchasedAmount",
      "outputs": [
        {
          "internalType": "uint256",
          "name": "",
          "type": "uint256"
        }
      ],
      "stateMutability": "view",
      "type": "function"
    },
    {
      "inputs": [
        {
          "internalType": "address",
          "name": "operator",
          "type": "address"
        },
        {
          "internalType": "bool",
          "name": "approved",
          "type": "bool"
        }
      ],
      "name": "setApprovalForAll",
      "outputs": [],
      "stateMutability": "nonpayable",
      "type": "function"
    },
    {
      "inputs": [],
      "name": "startGiveaway",
      "outputs": [],
      "stateMutability": "nonpayable",
      "type": "function"
    },
    {
      "inputs": [],
      "name": "startPresale",
      "outputs": [],
      "stateMutability": "nonpayable",
      "type": "function"
    },
    {
      "inputs": [],
      "name": "startPublicSale",
      "outputs": [],
      "stateMutability": "nonpayable",
      "type": "function"
    },
    {
      "inputs": [
        {
          "internalType": "bytes4",
          "name": "interfaceId",
          "type": "bytes4"
        }
      ],
      "name": "supportsInterface",
      "outputs": [
        {
          "internalType": "bool",
          "name": "",
          "type": "bool"
        }
      ],
      "stateMutability": "view",
      "type": "function"
    },
    {
      "inputs": [],
      "name": "symbol",
      "outputs": [
        {
          "internalType": "string",
          "name": "",
          "type": "string"
        }
      ],
      "stateMutability": "view",
      "type": "function"
    },
    {
      "inputs": [
        {
          "internalType": "uint256",
          "name": "tokenId",
          "type": "uint256"
        }
      ],
      "name": "tokenURI",
      "outputs": [
        {
          "internalType": "string",
          "name": "",
          "type": "string"
        }
      ],
      "stateMutability": "view",
      "type": "function"
    },
    {
      "inputs": [
        {
          "internalType": "address",
          "name": "from",
          "type": "address"
        },
        {
          "internalType": "address",
          "name": "to",
          "type": "address"
        },
        {
          "internalType": "uint256",
          "name": "tokenId",
          "type": "uint256"
        }
      ],
      "name": "transferFrom",
      "outputs": [],
      "stateMutability": "nonpayable",
      "type": "function"
    },
    {
      "inputs": [
        {
          "internalType": "address",
          "name": "newOwner",
          "type": "address"
        }
      ],
      "name": "transferOwnership",
      "outputs": [],
      "stateMutability": "nonpayable",
      "type": "function"
    },
    {
      "inputs": [],
      "name": "withdraw",
      "outputs": [],
      "stateMutability": "nonpayable",
      "type": "function"
    }
  ],
  "bytecode": "0x608060405260006016556658d15e1762800060175566b1a2bc2ec500006018553480156200002c57600080fd5b506040516200604e3803806200604e833981810160405281019062000052919062000391565b878781600090805190602001906200006c9291906200022a565b508060019080519060200190620000859291906200022a565b505050620000a86200009c6200015c60201b60201c565b6200016460201b60201c565b60016007819055508560089080519060200190620000c89291906200022a565b508460098190555083600a8190555082600b60006101000a81548160ff021916908360ff16021790555081600d60006101000a81548160ff021916908360ff16021790555080600f60006101000a81548173ffffffffffffffffffffffffffffffffffffffff021916908373ffffffffffffffffffffffffffffffffffffffff1602179055505050505050505050620006a8565b600033905090565b6000600660009054906101000a900473ffffffffffffffffffffffffffffffffffffffff16905081600660006101000a81548173ffffffffffffffffffffffffffffffffffffffff021916908373ffffffffffffffffffffffffffffffffffffffff1602179055508173ffffffffffffffffffffffffffffffffffffffff168173ffffffffffffffffffffffffffffffffffffffff167f8be0079c531659141344cd1fd0a4f28419497f9722a3daafe3b4186f6b6457e060405160405180910390a35050565b82805462000238906200057f565b90600052602060002090601f0160209004810192826200025c5760008555620002a8565b82601f106200027757805160ff1916838001178555620002a8565b82800160010185558215620002a8579182015b82811115620002a75782518255916020019190600101906200028a565b5b509050620002b79190620002bb565b5090565b5b80821115620002d6576000816000905550600101620002bc565b5090565b6000620002f1620002eb84620004c8565b6200049f565b9050828152602081018484840111156200030a57600080fd5b6200031784828562000549565b509392505050565b60008151905062000330816200065a565b92915050565b600082601f8301126200034857600080fd5b81516200035a848260208601620002da565b91505092915050565b600081519050620003748162000674565b92915050565b6000815190506200038b816200068e565b92915050565b600080600080600080600080610100898b031215620003af57600080fd5b600089015167ffffffffffffffff811115620003ca57600080fd5b620003d88b828c0162000336565b985050602089015167ffffffffffffffff811115620003f657600080fd5b620004048b828c0162000336565b975050604089015167ffffffffffffffff8111156200042257600080fd5b620004308b828c0162000336565b9650506060620004438b828c0162000363565b9550506080620004568b828c0162000363565b94505060a0620004698b828c016200037a565b93505060c06200047c8b828c016200037a565b92505060e06200048f8b828c016200031f565b9150509295985092959890939650565b6000620004ab620004be565b9050620004b98282620005b5565b919050565b6000604051905090565b600067ffffffffffffffff821115620004e657620004e56200061a565b5b620004f18262000649565b9050602081019050919050565b60006200050b8262000512565b9050919050565b600073ffffffffffffffffffffffffffffffffffffffff82169050919050565b6000819050919050565b600060ff82169050919050565b60005b83811015620005695780820151818401526020810190506200054c565b8381111562000579576000848401525b50505050565b600060028204905060018216806200059857607f821691505b60208210811415620005af57620005ae620005eb565b5b50919050565b620005c08262000649565b810181811067ffffffffffffffff82111715620005e257620005e16200061a565b5b80604052505050565b7f4e487b7100000000000000000000000000000000000000000000000000000000600052602260045260246000fd5b7f4e487b7100000000000000000000000000000000000000000000000000000000600052604160045260246000fd5b6000601f19601f8301169050919050565b6200066581620004fe565b81146200067157600080fd5b50565b6200067f8162000532565b81146200068b57600080fd5b50565b62000699816200053c565b8114620006a557600080fd5b50565b61599680620006b86000396000f3fe60806040526004361061021a5760003560e01c8063548db1741161012357806395d89b41116100ab578063c87b56dd1161006f578063c87b56dd14610741578063dc9403a61461077e578063df9ffc2d146107a9578063e985e9c5146107e6578063f2fde38b146108235761021a565b806395d89b4114610669578063a035b1fe14610694578063a22cb465146106bf578063b88d4fde146106e8578063c0f98e33146107115761021a565b806370a08231116100f257806370a08231146105aa578063715018a6146105e75780637c0f8aa0146105fe5780637f649783146106155780638da5cb5b1461063e5761021a565b8063548db174146104f05780636352211e146105195780636739f1431461055657806368428a1b1461057f5761021a565b806323b872dd116101a65780633ccfd60b116101755780633ccfd60b1461042f57806342842e0e146104465780634616d4b21461046f5780634dc1dbec1461049a57806353135ca0146104c55761021a565b806323b872dd146103605780632a55205a146103895780632b3f4d92146103c757806337573876146103f25761021a565b8063070f5c09116101ed578063070f5c09146102b5578063081812fc146102cc578063095ea7b3146103095780630c1c972a146103325780630c41f497146103495761021a565b806301ffc9a71461021f57806304c98b2b1461025c57806305e4e88a1461027357806306fdde031461028a575b600080fd5b34801561022b57600080fd5b5061024660048036038101906102419190613fa4565b61084c565b6040516102539190614784565b60405180910390f35b34801561026857600080fd5b5061027161092e565b005b34801561027f57600080fd5b50610288610ae4565b005b34801561029657600080fd5b5061029f610c9a565b6040516102ac919061479f565b60405180910390f35b3480156102c157600080fd5b506102ca610d2c565b005b3480156102d857600080fd5b506102f360048036038101906102ee9190613ff6565b610ee1565b60405161030091906146d2565b60405180910390f35b34801561031557600080fd5b50610330600480360381019061032b9190613f27565b610f66565b005b34801561033e57600080fd5b5061034761107e565b005b34801561035557600080fd5b5061035e611234565b005b34801561036c57600080fd5b5061038760048036038101906103829190613e21565b6113e9565b005b34801561039557600080fd5b506103b060048036038101906103ab9190614077565b611449565b6040516103be929190614739565b60405180910390f35b3480156103d357600080fd5b506103dc6114bb565b6040516103e99190614c01565b60405180910390f35b3480156103fe57600080fd5b5061041960048036038101906104149190613dbc565b6114c1565b6040516104269190614c01565b60405180910390f35b34801561043b57600080fd5b506104446114d9565b005b34801561045257600080fd5b5061046d60048036038101906104689190613e21565b611607565b005b34801561047b57600080fd5b50610484611627565b6040516104919190614784565b60405180910390f35b3480156104a657600080fd5b506104af61163a565b6040516104bc9190614c01565b60405180910390f35b3480156104d157600080fd5b506104da611640565b6040516104e79190614784565b60405180910390f35b3480156104fc57600080fd5b5061051760048036038101906105129190613f63565b611653565b005b34801561052557600080fd5b50610540600480360381019061053b9190613ff6565b611816565b60405161054d91906146d2565b60405180910390f35b34801561056257600080fd5b5061057d60048036038101906105789190613f63565b6118c8565b005b34801561058b57600080fd5b50610594611a45565b6040516105a19190614784565b60405180910390f35b3480156105b657600080fd5b506105d160048036038101906105cc9190613dbc565b611a58565b6040516105de9190614c01565b60405180910390f35b3480156105f357600080fd5b506105fc611b10565b005b34801561060a57600080fd5b50610613611b98565b005b34801561062157600080fd5b5061063c60048036038101906106379190613f63565b611d4d565b005b34801561064a57600080fd5b50610653611f10565b60405161066091906146d2565b60405180910390f35b34801561067557600080fd5b5061067e611f3a565b60405161068b919061479f565b60405180910390f35b3480156106a057600080fd5b506106a9611fcc565b6040516106b69190614c01565b60405180910390f35b3480156106cb57600080fd5b506106e660048036038101906106e19190613eeb565b612092565b005b3480156106f457600080fd5b5061070f600480360381019061070a9190613e70565b6120a8565b005b61072b6004803603810190610726919061401f565b61210a565b6040516107389190614762565b60405180910390f35b34801561074d57600080fd5b5061076860048036038101906107639190613ff6565b61243f565b604051610775919061479f565b60405180910390f35b34801561078a57600080fd5b50610793612635565b6040516107a09190614c01565b60405180910390f35b3480156107b557600080fd5b506107d060048036038101906107cb9190613dbc565b61263b565b6040516107dd9190614c01565b60405180910390f35b3480156107f257600080fd5b5061080d60048036038101906108089190613de5565b612653565b60405161081a9190614784565b60405180910390f35b34801561082f57600080fd5b5061084a60048036038101906108459190613dbc565b6126e7565b005b60007f80ac58cd000000000000000000000000000000000000000000000000000000007bffffffffffffffffffffffffffffffffffffffffffffffffffffffff1916827bffffffffffffffffffffffffffffffffffffffffffffffffffffffff1916148061091757507f5b5e139f000000000000000000000000000000000000000000000000000000007bffffffffffffffffffffffffffffffffffffffffffffffffffffffff1916827bffffffffffffffffffffffffffffffffffffffffffffffffffffffff1916145b806109275750610926826127df565b5b9050919050565b610936612849565b73ffffffffffffffffffffffffffffffffffffffff16610954611f10565b73ffffffffffffffffffffffffffffffffffffffff16146109aa576040517f08c379a00000000000000000000000000000000000000000000000000000000081526004016109a190614a21565b60405180910390fd5b601960009054906101000a900460ff16156109fa576040517f08c379a00000000000000000000000000000000000000000000000000000000081526004016109f190614bc1565b60405180910390fd5b601960019054906101000a900460ff1615610a4a576040517f08c379a0000000000000000000000000000000000000000000000000000000008152600401610a41906149a1565b60405180910390fd5b601960029054906101000a900460ff1615610a9a576040517f08c379a0000000000000000000000000000000000000000000000000000000008152600401610a91906148a1565b60405180910390fd5b6001601960016101000a81548160ff021916908315150217905550427f0ab3861e918916d082a16babf84acd725febc223f0833c5c03d8b14ec900174360405160405180910390a2565b610aec612849565b73ffffffffffffffffffffffffffffffffffffffff16610b0a611f10565b73ffffffffffffffffffffffffffffffffffffffff1614610b60576040517f08c379a0000000000000000000000000000000000000000000000000000000008152600401610b5790614a21565b60405180910390fd5b601960009054906101000a900460ff1615610bb0576040517f08c379a0000000000000000000000000000000000000000000000000000000008152600401610ba790614bc1565b60405180910390fd5b601960019054906101000a900460ff1615610c00576040517f08c379a0000000000000000000000000000000000000000000000000000000008152600401610bf7906149a1565b60405180910390fd5b601960029054906101000a900460ff1615610c50576040517f08c379a0000000000000000000000000000000000000000000000000000000008152600401610c47906148a1565b60405180910390fd5b6001601960006101000a81548160ff021916908315150217905550427fea160f4a1725183ff307b55e355bb04139d56298efc5853e17f99ade82e2f38960405160405180910390a2565b606060008054610ca990614f3c565b80601f0160208091040260200160405190810160405280929190818152602001828054610cd590614f3c565b8015610d225780601f10610cf757610100808354040283529160200191610d22565b820191906000526020600020905b815481529060010190602001808311610d0557829003601f168201915b5050505050905090565b610d34612849565b73ffffffffffffffffffffffffffffffffffffffff16610d52611f10565b73ffffffffffffffffffffffffffffffffffffffff1614610da8576040517f08c379a0000000000000000000000000000000000000000000000000000000008152600401610d9f90614a21565b60405180910390fd5b601960009054906101000a900460ff1615610df8576040517f08c379a0000000000000000000000000000000000000000000000000000000008152600401610def90614bc1565b60405180910390fd5b601960029054906101000a900460ff1615610e48576040517f08c379a0000000000000000000000000000000000000000000000000000000008152600401610e3f906148a1565b60405180910390fd5b601960019054906101000a900460ff16610e97576040517f08c379a0000000000000000000000000000000000000000000000000000000008152600401610e8e90614b81565b60405180910390fd5b6000601960016101000a81548160ff021916908315150217905550427fbbda50ff3083b4adfffcd3c2e8042a8b354ca16013534ab9367661c5a4cb7b2360405160405180910390a2565b6000610eec82612851565b610f2b576040517f08c379a0000000000000000000000000000000000000000000000000000000008152600401610f22906149c1565b60405180910390fd5b6004600083815260200190815260200160002060009054906101000a900473ffffffffffffffffffffffffffffffffffffffff169050919050565b6000610f7182611816565b90508073ffffffffffffffffffffffffffffffffffffffff168373ffffffffffffffffffffffffffffffffffffffff161415610fe2576040517f08c379a0000000000000000000000000000000000000000000000000000000008152600401610fd990614ac1565b60405180910390fd5b8073ffffffffffffffffffffffffffffffffffffffff16611001612849565b73ffffffffffffffffffffffffffffffffffffffff161480611030575061102f8161102a612849565b612653565b5b61106f576040517f08c379a000000000000000000000000000000000000000000000000000000000815260040161106690614901565b60405180910390fd5b61107983836128bd565b505050565b611086612849565b73ffffffffffffffffffffffffffffffffffffffff166110a4611f10565b73ffffffffffffffffffffffffffffffffffffffff16146110fa576040517f08c379a00000000000000000000000000000000000000000000000000000000081526004016110f190614a21565b60405180910390fd5b601960009054906101000a900460ff161561114a576040517f08c379a000000000000000000000000000000000000000000000000000000000815260040161114190614bc1565b60405180910390fd5b601960019054906101000a900460ff161561119a576040517f08c379a0000000000000000000000000000000000000000000000000000000008152600401611191906149a1565b60405180910390fd5b601960029054906101000a900460ff16156111ea576040517f08c379a00000000000000000000000000000000000000000000000000000000081526004016111e1906148a1565b60405180910390fd5b6001601960026101000a81548160ff021916908315150217905550427feeae71454a2a58ac8d7c3a2ac3db1f29f81cbd0024aae4292a55139dd9d3560a60405160405180910390a2565b61123c612849565b73ffffffffffffffffffffffffffffffffffffffff1661125a611f10565b73ffffffffffffffffffffffffffffffffffffffff16146112b0576040517f08c379a00000000000000000000000000000000000000000000000000000000081526004016112a790614a21565b60405180910390fd5b601960009054906101000a900460ff1615611300576040517f08c379a00000000000000000000000000000000000000000000000000000000081526004016112f790614bc1565b60405180910390fd5b601960019054906101000a900460ff1615611350576040517f08c379a0000000000000000000000000000000000000000000000000000000008152600401611347906149a1565b60405180910390fd5b601960029054906101000a900460ff1661139f576040517f08c379a000000000000000000000000000000000000000000000000000000000815260040161139690614881565b60405180910390fd5b6000601960026101000a81548160ff021916908315150217905550427f4616a0782e5635981b28be1cd36934a60655b462c370d8bd8092c969abc990d060405160405180910390a2565b6113fa6113f4612849565b82612976565b611439576040517f08c379a000000000000000000000000000000000000000000000000000000000815260040161143090614b61565b60405180910390fd5b611444838383612a54565b505050565b60008061145584612851565b611494576040517f08c379a000000000000000000000000000000000000000000000000000000000815260040161148b90614b01565b60405180910390fd5b306127106103e8856114a69190614df8565b6114b09190614dc7565b915091509250929050565b60165481565b600e6020528060005260406000206000915090505481565b6114e1612849565b73ffffffffffffffffffffffffffffffffffffffff166114ff611f10565b73ffffffffffffffffffffffffffffffffffffffff1614611555576040517f08c379a000000000000000000000000000000000000000000000000000000000815260040161154c90614a21565b60405180910390fd5b47600a54111561159a576040517f08c379a000000000000000000000000000000000000000000000000000000000815260040161159190614ae1565b60405180910390fd5b600f60009054906101000a900473ffffffffffffffffffffffffffffffffffffffff1673ffffffffffffffffffffffffffffffffffffffff166108fc600a549081150290604051600060405180830381858888f19350505050158015611604573d6000803e3d6000fd5b50565b611622838383604051806020016040528060008152506120a8565b505050565b601960009054906101000a900460ff1681565b60185481565b601960019054906101000a900460ff1681565b61165b612849565b73ffffffffffffffffffffffffffffffffffffffff16611679611f10565b73ffffffffffffffffffffffffffffffffffffffff16146116cf576040517f08c379a00000000000000000000000000000000000000000000000000000000081526004016116c690614a21565b60405180910390fd5b6107d081511115611715576040517f08c379a000000000000000000000000000000000000000000000000000000000815260040161170c90614921565b60405180910390fd5b60005b81518110156118125761177582828151811061175d577f4e487b7100000000000000000000000000000000000000000000000000000000600052603260045260246000fd5b60200260200101516014612cb090919063ffffffff16565b156117fe578181815181106117b3577f4e487b7100000000000000000000000000000000000000000000000000000000600052603260045260246000fd5b602002602001015173ffffffffffffffffffffffffffffffffffffffff167fcdd2e9b91a56913d370075169cefa1602ba36be5301664f752192bb1709df75760405160405180910390a25b60018161180b9190614d71565b9050611718565b5050565b6000806002600084815260200190815260200160002060009054906101000a900473ffffffffffffffffffffffffffffffffffffffff169050600073ffffffffffffffffffffffffffffffffffffffff168173ffffffffffffffffffffffffffffffffffffffff1614156118bf576040517f08c379a00000000000000000000000000000000000000000000000000000000081526004016118b690614961565b60405180910390fd5b80915050919050565b6118d0612849565b73ffffffffffffffffffffffffffffffffffffffff166118ee611f10565b73ffffffffffffffffffffffffffffffffffffffff1614611944576040517f08c379a000000000000000000000000000000000000000000000000000000000815260040161193b90614a21565b60405180910390fd5b60005b8151811015611a41576119a482828151811061198c577f4e487b7100000000000000000000000000000000000000000000000000000000600052603260045260246000fd5b60200260200101516012612ce090919063ffffffff16565b15611a2d578181815181106119e2577f4e487b7100000000000000000000000000000000000000000000000000000000600052603260045260246000fd5b602002602001015173ffffffffffffffffffffffffffffffffffffffff167fffbd2575fe2e4e63d9838a8ecda40fcd0b19fce153bc5d6fe10157c938086af960405160405180910390a25b600181611a3a9190614d71565b9050611947565b5050565b601960029054906101000a900460ff1681565b60008073ffffffffffffffffffffffffffffffffffffffff168273ffffffffffffffffffffffffffffffffffffffff161415611ac9576040517f08c379a0000000000000000000000000000000000000000000000000000000008152600401611ac090614941565b60405180910390fd5b600360008373ffffffffffffffffffffffffffffffffffffffff1673ffffffffffffffffffffffffffffffffffffffff168152602001908152602001600020549050919050565b611b18612849565b73ffffffffffffffffffffffffffffffffffffffff16611b36611f10565b73ffffffffffffffffffffffffffffffffffffffff1614611b8c576040517f08c379a0000000000000000000000000000000000000000000000000000000008152600401611b8390614a21565b60405180910390fd5b611b966000612d10565b565b611ba0612849565b73ffffffffffffffffffffffffffffffffffffffff16611bbe611f10565b73ffffffffffffffffffffffffffffffffffffffff1614611c14576040517f08c379a0000000000000000000000000000000000000000000000000000000008152600401611c0b90614a21565b60405180910390fd5b601960019054906101000a900460ff1615611c64576040517f08c379a0000000000000000000000000000000000000000000000000000000008152600401611c5b906149a1565b60405180910390fd5b601960029054906101000a900460ff1615611cb4576040517f08c379a0000000000000000000000000000000000000000000000000000000008152600401611cab906148a1565b60405180910390fd5b601960009054906101000a900460ff16611d03576040517f08c379a0000000000000000000000000000000000000000000000000000000008152600401611cfa90614b41565b60405180910390fd5b6000601960006101000a81548160ff021916908315150217905550427f71fbf9de7004f7d16da327d0c26b8f8b29e6efeaa59d67d1b76d6cc71fe47aae60405160405180910390a2565b611d55612849565b73ffffffffffffffffffffffffffffffffffffffff16611d73611f10565b73ffffffffffffffffffffffffffffffffffffffff1614611dc9576040517f08c379a0000000000000000000000000000000000000000000000000000000008152600401611dc090614a21565b60405180910390fd5b6107d081511115611e0f576040517f08c379a0000000000000000000000000000000000000000000000000000000008152600401611e0690614921565b60405180910390fd5b60005b8151811015611f0c57611e6f828281518110611e57577f4e487b7100000000000000000000000000000000000000000000000000000000600052603260045260246000fd5b60200260200101516014612ce090919063ffffffff16565b15611ef857818181518110611ead577f4e487b7100000000000000000000000000000000000000000000000000000000600052603260045260246000fd5b602002602001015173ffffffffffffffffffffffffffffffffffffffff167fa850ae9193f515cbae8d35e8925bd2be26627fc91bce650b8652ed254e9cab0360405160405180910390a25b600181611f059190614d71565b9050611e12565b5050565b6000600660009054906101000a900473ffffffffffffffffffffffffffffffffffffffff16905090565b606060018054611f4990614f3c565b80601f0160208091040260200160405190810160405280929190818152602001828054611f7590614f3c565b8015611fc25780601f10611f9757610100808354040283529160200191611fc2565b820191906000526020600020905b815481529060010190602001808311611fa557829003601f168201915b5050505050905090565b6000601960009054906101000a900460ff1680611ff55750601960019054906101000a900460ff165b8061200c5750601960029054906101000a900460ff165b61204b576040517f08c379a0000000000000000000000000000000000000000000000000000000008152600401612042906149e1565b60405180910390fd5b601960009054906101000a900460ff161561206a57601654905061208f565b601960019054906101000a900460ff161561208957601754905061208f565b60185490505b90565b6120a461209d612849565b8383612dd6565b5050565b6120b96120b3612849565b83612976565b6120f8576040517f08c379a00000000000000000000000000000000000000000000000000000000081526004016120ef90614b61565b60405180910390fd5b61210484848484612f43565b50505050565b6060601960009054906101000a900460ff16806121335750601960019054906101000a900460ff165b8061214a5750601960029054906101000a900460ff165b612189576040517f08c379a0000000000000000000000000000000000000000000000000000000008152600401612180906149e1565b60405180910390fd5b600260075414156121cf576040517f08c379a00000000000000000000000000000000000000000000000000000000081526004016121c690614ba1565b60405180910390fd5b60026007819055506121e084612f9f565b60008467ffffffffffffffff811115612222577f4e487b7100000000000000000000000000000000000000000000000000000000600052604160045260246000fd5b6040519080825280602002602001820160405280156122505781602001602082028036833780820191505090505b50905060005b8581101561234e576122f53386868481811061229b577f4e487b7100000000000000000000000000000000000000000000000000000000600052603260045260246000fd5b90506020028101906122ad9190614c1c565b8080601f016020809104026020016040519081016040528093929190818152602001838380828437600081840152601f19601f82011690508083019250505050505050613272565b82828151811061232e577f4e487b7100000000000000000000000000000000000000000000000000000000600052603260045260246000fd5b6020026020010181815250506001816123479190614d71565b9050612256565b50601960019054906101000a900460ff16156123bf5784600c60003373ffffffffffffffffffffffffffffffffffffffff1673ffffffffffffffffffffffffffffffffffffffff16815260200190815260200160002060008282546123b39190614d71565b9250508190555061242c565b601960029054906101000a900460ff161561242b5784600e60003373ffffffffffffffffffffffffffffffffffffffff1673ffffffffffffffffffffffffffffffffffffffff16815260200190815260200160002060008282546124239190614d71565b925050819055505b5b8091505060016007819055509392505050565b606061244a82612851565b612489576040517f08c379a000000000000000000000000000000000000000000000000000000000815260040161248090614a81565b60405180910390fd5b60006010600084815260200190815260200160002080546124a990614f3c565b80601f01602080910402602001604051908101604052809291908181526020018280546124d590614f3c565b80156125225780601f106124f757610100808354040283529160200191612522565b820191906000526020600020905b81548152906001019060200180831161250557829003601f168201915b5050505050905060006008805461253890614f3c565b80601f016020809104026020016040519081016040528092919081815260200182805461256490614f3c565b80156125b15780601f10612586576101008083540402835291602001916125b1565b820191906000526020600020905b81548152906001019060200180831161259457829003601f168201915b505050505090506000815114156125cc578192505050612630565b6000825111156126015780826040516020016125e99291906146ae565b60405160208183030381529060405292505050612630565b8061260b856132aa565b60405160200161261c9291906146ae565b604051602081830303815290604052925050505b919050565b60175481565b600c6020528060005260406000206000915090505481565b6000600560008473ffffffffffffffffffffffffffffffffffffffff1673ffffffffffffffffffffffffffffffffffffffff16815260200190815260200160002060008373ffffffffffffffffffffffffffffffffffffffff1673ffffffffffffffffffffffffffffffffffffffff16815260200190815260200160002060009054906101000a900460ff16905092915050565b6126ef612849565b73ffffffffffffffffffffffffffffffffffffffff1661270d611f10565b73ffffffffffffffffffffffffffffffffffffffff1614612763576040517f08c379a000000000000000000000000000000000000000000000000000000000815260040161275a90614a21565b60405180910390fd5b600073ffffffffffffffffffffffffffffffffffffffff168173ffffffffffffffffffffffffffffffffffffffff1614156127d3576040517f08c379a00000000000000000000000000000000000000000000000000000000081526004016127ca90614801565b60405180910390fd5b6127dc81612d10565b50565b60007f01ffc9a7000000000000000000000000000000000000000000000000000000007bffffffffffffffffffffffffffffffffffffffffffffffffffffffff1916827bffffffffffffffffffffffffffffffffffffffffffffffffffffffff1916149050919050565b600033905090565b60008073ffffffffffffffffffffffffffffffffffffffff166002600084815260200190815260200160002060009054906101000a900473ffffffffffffffffffffffffffffffffffffffff1673ffffffffffffffffffffffffffffffffffffffff1614159050919050565b816004600083815260200190815260200160002060006101000a81548173ffffffffffffffffffffffffffffffffffffffff021916908373ffffffffffffffffffffffffffffffffffffffff160217905550808273ffffffffffffffffffffffffffffffffffffffff1661293083611816565b73ffffffffffffffffffffffffffffffffffffffff167f8c5be1e5ebec7d5bd14f71427d1e84f3dd0314c0f7b2291e5b200ac8c7c3b92560405160405180910390a45050565b600061298182612851565b6129c0576040517f08c379a00000000000000000000000000000000000000000000000000000000081526004016129b7906148c1565b60405180910390fd5b60006129cb83611816565b90508073ffffffffffffffffffffffffffffffffffffffff168473ffffffffffffffffffffffffffffffffffffffff161480612a3a57508373ffffffffffffffffffffffffffffffffffffffff16612a2284610ee1565b73ffffffffffffffffffffffffffffffffffffffff16145b80612a4b5750612a4a8185612653565b5b91505092915050565b8273ffffffffffffffffffffffffffffffffffffffff16612a7482611816565b73ffffffffffffffffffffffffffffffffffffffff1614612aca576040517f08c379a0000000000000000000000000000000000000000000000000000000008152600401612ac190614a41565b60405180910390fd5b600073ffffffffffffffffffffffffffffffffffffffff168273ffffffffffffffffffffffffffffffffffffffff161415612b3a576040517f08c379a0000000000000000000000000000000000000000000000000000000008152600401612b3190614841565b60405180910390fd5b612b45838383613457565b612b506000826128bd565b6001600360008573ffffffffffffffffffffffffffffffffffffffff1673ffffffffffffffffffffffffffffffffffffffff1681526020019081526020016000206000828254612ba09190614e52565b925050819055506001600360008473ffffffffffffffffffffffffffffffffffffffff1673ffffffffffffffffffffffffffffffffffffffff1681526020019081526020016000206000828254612bf79190614d71565b92505081905550816002600083815260200190815260200160002060006101000a81548173ffffffffffffffffffffffffffffffffffffffff021916908373ffffffffffffffffffffffffffffffffffffffff160217905550808273ffffffffffffffffffffffffffffffffffffffff168473ffffffffffffffffffffffffffffffffffffffff167fddf252ad1be2c89b69c2b068fc378daa952ba7f163c4a11628f55a4df523b3ef60405160405180910390a4505050565b6000612cd8836000018373ffffffffffffffffffffffffffffffffffffffff1660001b61345c565b905092915050565b6000612d08836000018373ffffffffffffffffffffffffffffffffffffffff1660001b6135e2565b905092915050565b6000600660009054906101000a900473ffffffffffffffffffffffffffffffffffffffff16905081600660006101000a81548173ffffffffffffffffffffffffffffffffffffffff021916908373ffffffffffffffffffffffffffffffffffffffff1602179055508173ffffffffffffffffffffffffffffffffffffffff168173ffffffffffffffffffffffffffffffffffffffff167f8be0079c531659141344cd1fd0a4f28419497f9722a3daafe3b4186f6b6457e060405160405180910390a35050565b8173ffffffffffffffffffffffffffffffffffffffff168373ffffffffffffffffffffffffffffffffffffffff161415612e45576040517f08c379a0000000000000000000000000000000000000000000000000000000008152600401612e3c90614861565b60405180910390fd5b80600560008573ffffffffffffffffffffffffffffffffffffffff1673ffffffffffffffffffffffffffffffffffffffff16815260200190815260200160002060008473ffffffffffffffffffffffffffffffffffffffff1673ffffffffffffffffffffffffffffffffffffffff16815260200190815260200160002060006101000a81548160ff0219169083151502179055508173ffffffffffffffffffffffffffffffffffffffff168373ffffffffffffffffffffffffffffffffffffffff167f17307eab39ab6107e8899845ad3d59bd9653f200f220920489ca2b5937696c3183604051612f369190614784565b60405180910390a3505050565b612f4e848484612a54565b612f5a84848484613652565b612f99576040517f08c379a0000000000000000000000000000000000000000000000000000000008152600401612f90906147e1565b60405180910390fd5b50505050565b600073ffffffffffffffffffffffffffffffffffffffff163373ffffffffffffffffffffffffffffffffffffffff161415612fd957600080fd5b600954612fe660116137e9565b1115613027576040517f08c379a000000000000000000000000000000000000000000000000000000000815260040161301e90614be1565b60405180910390fd5b6000811161306a576040517f08c379a000000000000000000000000000000000000000000000000000000000815260040161306190614aa1565b60405180910390fd5b601960009054906101000a900460ff16156130cc57613088336137f7565b6130c7576040517f08c379a00000000000000000000000000000000000000000000000000000000081526004016130be90614a61565b60405180910390fd5b61326f565b601960019054906101000a900460ff161561321d576130ea33613814565b613129576040517f08c379a0000000000000000000000000000000000000000000000000000000008152600401613120906147c1565b60405180910390fd5b600b60009054906101000a900460ff1660ff16600c60003373ffffffffffffffffffffffffffffffffffffffff1673ffffffffffffffffffffffffffffffffffffffff16815260200190815260200160002054826131879190614d71565b11156131c8576040517f08c379a00000000000000000000000000000000000000000000000000000000081526004016131bf90614b21565b60405180910390fd5b34816017546131d79190614df8565b1115613218576040517f08c379a000000000000000000000000000000000000000000000000000000000815260040161320f906148e1565b60405180910390fd5b61326e565b348160185461322c9190614df8565b111561326d576040517f08c379a0000000000000000000000000000000000000000000000000000000008152600401613264906148e1565b60405180910390fd5b5b5b50565b600061327e6011613831565b600061328a60116137e9565b90506132968482613847565b6132a08184613865565b8091505092915050565b606060008214156132f2576040518060400160405280600181526020017f30000000000000000000000000000000000000000000000000000000000000008152509050613452565b600082905060005b6000821461332457808061330d90614f9f565b915050600a8261331d9190614dc7565b91506132fa565b60008167ffffffffffffffff811115613366577f4e487b7100000000000000000000000000000000000000000000000000000000600052604160045260246000fd5b6040519080825280601f01601f1916602001820160405280156133985781602001600182028036833780820191505090505b5090505b6000851461344b576001826133b19190614e52565b9150600a856133c09190614fe8565b60306133cc9190614d71565b60f81b818381518110613408577f4e487b7100000000000000000000000000000000000000000000000000000000600052603260045260246000fd5b60200101907effffffffffffffffffffffffffffffffffffffffffffffffffffffffffffff1916908160001a905350600a856134449190614dc7565b945061339c565b8093505050505b919050565b505050565b600080836001016000848152602001908152602001600020549050600081146135d657600060018261348e9190614e52565b90506000600186600001805490506134a69190614e52565b90508181146135615760008660000182815481106134ed577f4e487b7100000000000000000000000000000000000000000000000000000000600052603260045260246000fd5b9060005260206000200154905080876000018481548110613537577f4e487b7100000000000000000000000000000000000000000000000000000000600052603260045260246000fd5b90600052602060002001819055508387600101600083815260200190815260200160002081905550505b8560000180548061359b577f4e487b7100000000000000000000000000000000000000000000000000000000600052603160045260246000fd5b6001900381819060005260206000200160009055905585600101600086815260200190815260200160002060009055600193505050506135dc565b60009150505b92915050565b60006135ee83836138d9565b61364757826000018290806001815401808255809150506001900390600052602060002001600090919091909150558260000180549050836001016000848152602001908152602001600020819055506001905061364c565b600090505b92915050565b60006136738473ffffffffffffffffffffffffffffffffffffffff166138fc565b156137dc578373ffffffffffffffffffffffffffffffffffffffff1663150b7a0261369c612849565b8786866040518563ffffffff1660e01b81526004016136be94939291906146ed565b602060405180830381600087803b1580156136d857600080fd5b505af192505050801561370957506040513d601f19601f820116820180604052508101906137069190613fcd565b60015b61378c573d8060008114613739576040519150601f19603f3d011682016040523d82523d6000602084013e61373e565b606091505b50600081511415613784576040517f08c379a000000000000000000000000000000000000000000000000000000000815260040161377b906147e1565b60405180910390fd5b805181602001fd5b63150b7a0260e01b7bffffffffffffffffffffffffffffffffffffffffffffffffffffffff1916817bffffffffffffffffffffffffffffffffffffffffffffffffffffffff1916149150506137e1565b600190505b949350505050565b600081600001549050919050565b600061380d82601261390f90919063ffffffff16565b9050919050565b600061382a82601461390f90919063ffffffff16565b9050919050565b6001816000016000828254019250508190555050565b61386182826040518060200160405280600081525061393f565b5050565b61386e82612851565b6138ad576040517f08c379a00000000000000000000000000000000000000000000000000000000081526004016138a490614a01565b60405180910390fd5b806010600084815260200190815260200160002090805190602001906138d4929190613b68565b505050565b600080836001016000848152602001908152602001600020541415905092915050565b600080823b905060008111915050919050565b6000613937836000018373ffffffffffffffffffffffffffffffffffffffff1660001b6138d9565b905092915050565b613949838361399a565b6139566000848484613652565b613995576040517f08c379a000000000000000000000000000000000000000000000000000000000815260040161398c906147e1565b60405180910390fd5b505050565b600073ffffffffffffffffffffffffffffffffffffffff168273ffffffffffffffffffffffffffffffffffffffff161415613a0a576040517f08c379a0000000000000000000000000000000000000000000000000000000008152600401613a0190614981565b60405180910390fd5b613a1381612851565b15613a53576040517f08c379a0000000000000000000000000000000000000000000000000000000008152600401613a4a90614821565b60405180910390fd5b613a5f60008383613457565b6001600360008473ffffffffffffffffffffffffffffffffffffffff1673ffffffffffffffffffffffffffffffffffffffff1681526020019081526020016000206000828254613aaf9190614d71565b92505081905550816002600083815260200190815260200160002060006101000a81548173ffffffffffffffffffffffffffffffffffffffff021916908373ffffffffffffffffffffffffffffffffffffffff160217905550808273ffffffffffffffffffffffffffffffffffffffff16600073ffffffffffffffffffffffffffffffffffffffff167fddf252ad1be2c89b69c2b068fc378daa952ba7f163c4a11628f55a4df523b3ef60405160405180910390a45050565b828054613b7490614f3c565b90600052602060002090601f016020900481019282613b965760008555613bdd565b82601f10613baf57805160ff1916838001178555613bdd565b82800160010185558215613bdd579182015b82811115613bdc578251825591602001919060010190613bc1565b5b509050613bea9190613bee565b5090565b5b80821115613c07576000816000905550600101613bef565b5090565b6000613c1e613c1984614c98565b614c73565b90508083825260208201905082856020860282011115613c3d57600080fd5b60005b85811015613c6d5781613c538882613cb5565b845260208401935060208301925050600181019050613c40565b5050509392505050565b6000613c8a613c8584614cc4565b614c73565b905082815260208101848484011115613ca257600080fd5b613cad848285614efa565b509392505050565b600081359050613cc481615904565b92915050565b600082601f830112613cdb57600080fd5b8135613ceb848260208601613c0b565b91505092915050565b60008083601f840112613d0657600080fd5b8235905067ffffffffffffffff811115613d1f57600080fd5b602083019150836020820283011115613d3757600080fd5b9250929050565b600081359050613d4d8161591b565b92915050565b600081359050613d6281615932565b92915050565b600081519050613d7781615932565b92915050565b600082601f830112613d8e57600080fd5b8135613d9e848260208601613c77565b91505092915050565b600081359050613db681615949565b92915050565b600060208284031215613dce57600080fd5b6000613ddc84828501613cb5565b91505092915050565b60008060408385031215613df857600080fd5b6000613e0685828601613cb5565b9250506020613e1785828601613cb5565b9150509250929050565b600080600060608486031215613e3657600080fd5b6000613e4486828701613cb5565b9350506020613e5586828701613cb5565b9250506040613e6686828701613da7565b9150509250925092565b60008060008060808587031215613e8657600080fd5b6000613e9487828801613cb5565b9450506020613ea587828801613cb5565b9350506040613eb687828801613da7565b925050606085013567ffffffffffffffff811115613ed357600080fd5b613edf87828801613d7d565b91505092959194509250565b60008060408385031215613efe57600080fd5b6000613f0c85828601613cb5565b9250506020613f1d85828601613d3e565b9150509250929050565b60008060408385031215613f3a57600080fd5b6000613f4885828601613cb5565b9250506020613f5985828601613da7565b9150509250929050565b600060208284031215613f7557600080fd5b600082013567ffffffffffffffff811115613f8f57600080fd5b613f9b84828501613cca565b91505092915050565b600060208284031215613fb657600080fd5b6000613fc484828501613d53565b91505092915050565b600060208284031215613fdf57600080fd5b6000613fed84828501613d68565b91505092915050565b60006020828403121561400857600080fd5b600061401684828501613da7565b91505092915050565b60008060006040848603121561403457600080fd5b600061404286828701613da7565b935050602084013567ffffffffffffffff81111561405f57600080fd5b61406b86828701613cf4565b92509250509250925092565b6000806040838503121561408a57600080fd5b600061409885828601613da7565b92505060206140a985828601613da7565b9150509250929050565b60006140bf8383614690565b60208301905092915050565b6140d481614e86565b82525050565b60006140e582614d05565b6140ef8185614d33565b93506140fa83614cf5565b8060005b8381101561412b57815161411288826140b3565b975061411d83614d26565b9250506001810190506140fe565b5085935050505092915050565b61414181614e98565b82525050565b600061415282614d10565b61415c8185614d44565b935061416c818560208601614f09565b614175816150d5565b840191505092915050565b600061418b82614d1b565b6141958185614d55565b93506141a5818560208601614f09565b6141ae816150d5565b840191505092915050565b60006141c482614d1b565b6141ce8185614d66565b93506141de818560208601614f09565b80840191505092915050565b60006141f7602b83614d55565b9150614202826150e6565b604082019050919050565b600061421a603283614d55565b915061422582615135565b604082019050919050565b600061423d602683614d55565b915061424882615184565b604082019050919050565b6000614260601c83614d55565b915061426b826151d3565b602082019050919050565b6000614283602483614d55565b915061428e826151fc565b604082019050919050565b60006142a6601983614d55565b91506142b18261524b565b602082019050919050565b60006142c9601283614d55565b91506142d482615274565b602082019050919050565b60006142ec601283614d55565b91506142f78261529d565b602082019050919050565b600061430f602c83614d55565b915061431a826152c6565b604082019050919050565b6000614332601283614d55565b915061433d82615315565b602082019050919050565b6000614355603883614d55565b91506143608261533e565b604082019050919050565b6000614378601c83614d55565b91506143838261538d565b602082019050919050565b600061439b602a83614d55565b91506143a6826153b6565b604082019050919050565b60006143be602983614d55565b91506143c982615405565b604082019050919050565b60006143e1602083614d55565b91506143ec82615454565b602082019050919050565b6000614404601583614d55565b915061440f8261547d565b602082019050919050565b6000614427602c83614d55565b9150614432826154a6565b604082019050919050565b600061444a602583614d55565b9150614455826154f5565b604082019050919050565b600061446d602c83614d55565b915061447882615544565b604082019050919050565b6000614490602083614d55565b915061449b82615593565b602082019050919050565b60006144b3602983614d55565b91506144be826155bc565b604082019050919050565b60006144d6602b83614d55565b91506144e18261560b565b604082019050919050565b60006144f9602f83614d55565b91506145048261565a565b604082019050919050565b600061451c601c83614d55565b9150614527826156a9565b602082019050919050565b600061453f602183614d55565b915061454a826156d2565b604082019050919050565b6000614562601b83614d55565b915061456d82615721565b602082019050919050565b6000614585602583614d55565b91506145908261574a565b604082019050919050565b60006145a8602183614d55565b91506145b382615799565b604082019050919050565b60006145cb601383614d55565b91506145d6826157e8565b602082019050919050565b60006145ee603183614d55565b91506145f982615811565b604082019050919050565b6000614611601583614d55565b915061461c82615860565b602082019050919050565b6000614634601f83614d55565b915061463f82615889565b602082019050919050565b6000614657601383614d55565b9150614662826158b2565b602082019050919050565b600061467a600f83614d55565b9150614685826158db565b602082019050919050565b61469981614ef0565b82525050565b6146a881614ef0565b82525050565b60006146ba82856141b9565b91506146c682846141b9565b91508190509392505050565b60006020820190506146e760008301846140cb565b92915050565b600060808201905061470260008301876140cb565b61470f60208301866140cb565b61471c604083018561469f565b818103606083015261472e8184614147565b905095945050505050565b600060408201905061474e60008301856140cb565b61475b602083018461469f565b9392505050565b6000602082019050818103600083015261477c81846140da565b905092915050565b60006020820190506147996000830184614138565b92915050565b600060208201905081810360008301526147b98184614180565b905092915050565b600060208201905081810360008301526147da816141ea565b9050919050565b600060208201905081810360008301526147fa8161420d565b9050919050565b6000602082019050818103600083015261481a81614230565b9050919050565b6000602082019050818103600083015261483a81614253565b9050919050565b6000602082019050818103600083015261485a81614276565b9050919050565b6000602082019050818103600083015261487a81614299565b9050919050565b6000602082019050818103600083015261489a816142bc565b9050919050565b600060208201905081810360008301526148ba816142df565b9050919050565b600060208201905081810360008301526148da81614302565b9050919050565b600060208201905081810360008301526148fa81614325565b9050919050565b6000602082019050818103600083015261491a81614348565b9050919050565b6000602082019050818103600083015261493a8161436b565b9050919050565b6000602082019050818103600083015261495a8161438e565b9050919050565b6000602082019050818103600083015261497a816143b1565b9050919050565b6000602082019050818103600083015261499a816143d4565b9050919050565b600060208201905081810360008301526149ba816143f7565b9050919050565b600060208201905081810360008301526149da8161441a565b9050919050565b600060208201905081810360008301526149fa8161443d565b9050919050565b60006020820190508181036000830152614a1a81614460565b9050919050565b60006020820190508181036000830152614a3a81614483565b9050919050565b60006020820190508181036000830152614a5a816144a6565b9050919050565b60006020820190508181036000830152614a7a816144c9565b9050919050565b60006020820190508181036000830152614a9a816144ec565b9050919050565b60006020820190508181036000830152614aba8161450f565b9050919050565b60006020820190508181036000830152614ada81614532565b9050919050565b60006020820190508181036000830152614afa81614555565b9050919050565b60006020820190508181036000830152614b1a81614578565b9050919050565b60006020820190508181036000830152614b3a8161459b565b9050919050565b60006020820190508181036000830152614b5a816145be565b9050919050565b60006020820190508181036000830152614b7a816145e1565b9050919050565b60006020820190508181036000830152614b9a81614604565b9050919050565b60006020820190508181036000830152614bba81614627565b9050919050565b60006020820190508181036000830152614bda8161464a565b9050919050565b60006020820190508181036000830152614bfa8161466d565b9050919050565b6000602082019050614c16600083018461469f565b92915050565b60008083356001602003843603038112614c3557600080fd5b80840192508235915067ffffffffffffffff821115614c5357600080fd5b602083019250600182023603831315614c6b57600080fd5b509250929050565b6000614c7d614c8e565b9050614c898282614f6e565b919050565b6000604051905090565b600067ffffffffffffffff821115614cb357614cb26150a6565b5b602082029050602081019050919050565b600067ffffffffffffffff821115614cdf57614cde6150a6565b5b614ce8826150d5565b9050602081019050919050565b6000819050602082019050919050565b600081519050919050565b600081519050919050565b600081519050919050565b6000602082019050919050565b600082825260208201905092915050565b600082825260208201905092915050565b600082825260208201905092915050565b600081905092915050565b6000614d7c82614ef0565b9150614d8783614ef0565b9250827fffffffffffffffffffffffffffffffffffffffffffffffffffffffffffffffff03821115614dbc57614dbb615019565b5b828201905092915050565b6000614dd282614ef0565b9150614ddd83614ef0565b925082614ded57614dec615048565b5b828204905092915050565b6000614e0382614ef0565b9150614e0e83614ef0565b9250817fffffffffffffffffffffffffffffffffffffffffffffffffffffffffffffffff0483118215151615614e4757614e46615019565b5b828202905092915050565b6000614e5d82614ef0565b9150614e6883614ef0565b925082821015614e7b57614e7a615019565b5b828203905092915050565b6000614e9182614ed0565b9050919050565b60008115159050919050565b60007fffffffff0000000000000000000000000000000000000000000000000000000082169050919050565b600073ffffffffffffffffffffffffffffffffffffffff82169050919050565b6000819050919050565b82818337600083830152505050565b60005b83811015614f27578082015181840152602081019050614f0c565b83811115614f36576000848401525b50505050565b60006002820490506001821680614f5457607f821691505b60208210811415614f6857614f67615077565b5b50919050565b614f77826150d5565b810181811067ffffffffffffffff82111715614f9657614f956150a6565b5b80604052505050565b6000614faa82614ef0565b91507fffffffffffffffffffffffffffffffffffffffffffffffffffffffffffffffff821415614fdd57614fdc615019565b5b600182019050919050565b6000614ff382614ef0565b9150614ffe83614ef0565b92508261500e5761500d615048565b5b828206905092915050565b7f4e487b7100000000000000000000000000000000000000000000000000000000600052601160045260246000fd5b7f4e487b7100000000000000000000000000000000000000000000000000000000600052601260045260246000fd5b7f4e487b7100000000000000000000000000000000000000000000000000000000600052602260045260246000fd5b7f4e487b7100000000000000000000000000000000000000000000000000000000600052604160045260246000fd5b6000601f19601f8301169050919050565b7f576527726520736f7272792c20796f757220616464726573732069736e27742060008201527f77686974656c6973746564000000000000000000000000000000000000000000602082015250565b7f4552433732313a207472616e7366657220746f206e6f6e20455243373231526560008201527f63656976657220696d706c656d656e7465720000000000000000000000000000602082015250565b7f4f776e61626c653a206e6577206f776e657220697320746865207a65726f206160008201527f6464726573730000000000000000000000000000000000000000000000000000602082015250565b7f4552433732313a20746f6b656e20616c7265616479206d696e74656400000000600082015250565b7f4552433732313a207472616e7366657220746f20746865207a65726f2061646460008201527f7265737300000000000000000000000000000000000000000000000000000000602082015250565b7f4552433732313a20617070726f766520746f2063616c6c657200000000000000600082015250565b7f53616c65206973206e6f74206163746976650000000000000000000000000000600082015250565b7f53616c65206973206e6f74207061757365640000000000000000000000000000600082015250565b7f4552433732313a206f70657261746f7220717565727920666f72206e6f6e657860008201527f697374656e7420746f6b656e0000000000000000000000000000000000000000602082015250565b7f496e73756666696369656e742066756e64730000000000000000000000000000600082015250565b7f4552433732313a20617070726f76652063616c6c6572206973206e6f74206f7760008201527f6e6572206e6f7220617070726f76656420666f7220616c6c0000000000000000602082015250565b7f57686974656c6973742063616e6e6f7420657863656564203230303000000000600082015250565b7f4552433732313a2062616c616e636520717565727920666f7220746865207a6560008201527f726f206164647265737300000000000000000000000000000000000000000000602082015250565b7f4552433732313a206f776e657220717565727920666f72206e6f6e657869737460008201527f656e7420746f6b656e0000000000000000000000000000000000000000000000602082015250565b7f4552433732313a206d696e7420746f20746865207a65726f2061646472657373600082015250565b7f50726573616c65206973206e6f74207061757365640000000000000000000000600082015250565b7f4552433732313a20617070726f76656420717565727920666f72206e6f6e657860008201527f697374656e7420746f6b656e0000000000000000000000000000000000000000602082015250565b7f546865726520617265206e6f2073616c65732061742074686973207465726d6960008201527f6e61746564000000000000000000000000000000000000000000000000000000602082015250565b7f4552433732314d657461646174613a2055524920736574206f66206e6f6e657860008201527f697374656e7420746f6b656e0000000000000000000000000000000000000000602082015250565b7f4f776e61626c653a2063616c6c6572206973206e6f7420746865206f776e6572600082015250565b7f4552433732313a207472616e73666572206f6620746f6b656e2074686174206960008201527f73206e6f74206f776e0000000000000000000000000000000000000000000000602082015250565b7f576527726520736f7272792c20796f7520617265206e6f74206120676976656160008201527f7761792061646472657373000000000000000000000000000000000000000000602082015250565b7f4552433732314d657461646174613a2055524920717565727920666f72206e6f60008201527f6e6578697374656e7420746f6b656e0000000000000000000000000000000000602082015250565b7f4d757374206d696e74206174206c65617374206f6e6520746f6b656e00000000600082015250565b7f4552433732313a20617070726f76616c20746f2063757272656e74206f776e6560008201527f7200000000000000000000000000000000000000000000000000000000000000602082015250565b7f42616c616e6365206973206c657373207468616e202e31206574680000000000600082015250565b7f4e6f6e6578697374656e7420746f6b656e20666f7220726f79616c747920706160008201527f796d656e74000000000000000000000000000000000000000000000000000000602082015250565b7f50726573616c652c206c696d6974656420616d6f756e74206f6620746f6b656e60008201527f7300000000000000000000000000000000000000000000000000000000000000602082015250565b7f4769766561776179206e6f742061637469766500000000000000000000000000600082015250565b7f4552433732313a207472616e736665722063616c6c6572206973206e6f74206f60008201527f776e6572206e6f7220617070726f766564000000000000000000000000000000602082015250565b7f50726573616c65206973206e6f74206163746976650000000000000000000000600082015250565b7f5265656e7472616e637947756172643a207265656e7472616e742063616c6c00600082015250565b7f4769766561776179206e6f742070617573656400000000000000000000000000600082015250565b7f4e6f20746f6b656e73206c656674210000000000000000000000000000000000600082015250565b61590d81614e86565b811461591857600080fd5b50565b61592481614e98565b811461592f57600080fd5b50565b61593b81614ea4565b811461594657600080fd5b50565b61595281614ef0565b811461595d57600080fd5b5056fea2646970667358221220638651db5cdb08c37f72839ea16944ac9464a3a2a4f201604bc1b564bbed434364736f6c63430008040033",
  "linkReferences": {},
  "deployedLinkReferences": {}
}