{
  "_format": "hh-sol-artifact-1",
  "contractName": "Turtleverse",
  "sourceName": "contracts/Turtleverse.sol",
  "abi": [
    {
      "inputs": [
        {
          "internalType": "string",
          "name": "name_",
          "type": "string"
        },
        {
          "internalType": "string",
          "name": "symbol_",
          "type": "string"
        },
        {
          "internalType": "string",
          "name": "baseURI_",
          "type": "string"
        },
        {
          "internalType": "uint256",
          "name": "maxSupply_",
          "type": "uint256"
        },
        {
          "internalType": "uint256",
          "name": "maxWithdrawal_",
          "type": "uint256"
        },
        {
          "internalType": "uint8",
          "name": "presaleLimit_",
          "type": "uint8"
        },
        {
          "internalType": "uint8",
          "name": "saleLimit_",
          "type": "uint8"
        },
        {
          "internalType": "address payable",
          "name": "payout_",
          "type": "address"
        }
      ],
      "stateMutability": "nonpayable",
      "type": "constructor"
    },
    {
      "anonymous": false,
      "inputs": [
        {
          "indexed": true,
          "internalType": "address",
          "name": "_address",
          "type": "address"
        }
      ],
      "name": "AddedToWhitelist",
      "type": "event"
    },
    {
      "anonymous": false,
      "inputs": [
        {
          "indexed": true,
          "internalType": "address",
          "name": "owner",
          "type": "address"
        },
        {
          "indexed": true,
          "internalType": "address",
          "name": "approved",
          "type": "address"
        },
        {
          "indexed": true,
          "internalType": "uint256",
          "name": "tokenId",
          "type": "uint256"
        }
      ],
      "name": "Approval",
      "type": "event"
    },
    {
      "anonymous": false,
      "inputs": [
        {
          "indexed": true,
          "internalType": "address",
          "name": "owner",
          "type": "address"
        },
        {
          "indexed": true,
          "internalType": "address",
          "name": "operator",
          "type": "address"
        },
        {
          "indexed": false,
          "internalType": "bool",
          "name": "approved",
          "type": "bool"
        }
      ],
      "name": "ApprovalForAll",
      "type": "event"
    },
    {
      "anonymous": false,
      "inputs": [
        {
          "indexed": true,
          "internalType": "uint256",
          "name": "_giveawayStopTime",
          "type": "uint256"
        }
      ],
      "name": "GiveawayPaused",
      "type": "event"
    },
    {
      "anonymous": false,
      "inputs": [
        {
          "indexed": true,
          "internalType": "uint256",
          "name": "_giveawayStartTime",
          "type": "uint256"
        }
      ],
      "name": "GiveawayStart",
      "type": "event"
    },
    {
      "anonymous": false,
      "inputs": [
        {
          "indexed": true,
          "internalType": "address",
          "name": "previousOwner",
          "type": "address"
        },
        {
          "indexed": true,
          "internalType": "address",
          "name": "newOwner",
          "type": "address"
        }
      ],
      "name": "OwnershipTransferred",
      "type": "event"
    },
    {
      "anonymous": false,
      "inputs": [
        {
          "indexed": true,
          "internalType": "uint256",
          "name": "_presaleStopTime",
          "type": "uint256"
        }
      ],
      "name": "PresalePaused",
      "type": "event"
    },
    {
      "anonymous": false,
      "inputs": [
        {
          "indexed": true,
          "internalType": "uint256",
          "name": "_presaleStartTime",
          "type": "uint256"
        }
      ],
      "name": "PresaleStart",
      "type": "event"
    },
    {
      "anonymous": false,
      "inputs": [
        {
          "indexed": true,
          "internalType": "address",
          "name": "_address",
          "type": "address"
        }
      ],
      "name": "RemovedFromWhitelist",
      "type": "event"
    },
    {
      "anonymous": false,
      "inputs": [
        {
          "indexed": true,
          "internalType": "uint256",
          "name": "_saleStopTime",
          "type": "uint256"
        }
      ],
      "name": "SalePaused",
      "type": "event"
    },
    {
      "anonymous": false,
      "inputs": [
        {
          "indexed": true,
          "internalType": "uint256",
          "name": "_saleStartTime",
          "type": "uint256"
        }
      ],
      "name": "SaleStart",
      "type": "event"
    },
    {
      "anonymous": false,
      "inputs": [
        {
          "indexed": true,
          "internalType": "address",
          "name": "from",
          "type": "address"
        },
        {
          "indexed": true,
          "internalType": "address",
          "name": "to",
          "type": "address"
        },
        {
          "indexed": true,
          "internalType": "uint256",
          "name": "tokenId",
          "type": "uint256"
        }
      ],
      "name": "Transfer",
      "type": "event"
    },
    {
      "inputs": [
        {
          "internalType": "address[]",
          "name": "addresses",
          "type": "address[]"
        }
      ],
      "name": "addToWhitelist",
      "outputs": [],
      "stateMutability": "nonpayable",
      "type": "function"
    },
    {
      "inputs": [
        {
          "internalType": "address",
          "name": "to",
          "type": "address"
        },
        {
          "internalType": "uint256",
          "name": "tokenId",
          "type": "uint256"
        }
      ],
      "name": "approve",
      "outputs": [],
      "stateMutability": "nonpayable",
      "type": "function"
    },
    {
      "inputs": [
        {
          "internalType": "address",
          "name": "owner",
          "type": "address"
        }
      ],
      "name": "balanceOf",
      "outputs": [
        {
          "internalType": "uint256",
          "name": "",
          "type": "uint256"
        }
      ],
      "stateMutability": "view",
      "type": "function"
    },
    {
      "inputs": [
        {
          "internalType": "uint256",
          "name": "tokenId",
          "type": "uint256"
        }
      ],
      "name": "getApproved",
      "outputs": [
        {
          "internalType": "address",
          "name": "",
          "type": "address"
        }
      ],
      "stateMutability": "view",
      "type": "function"
    },
    {
      "inputs": [],
      "name": "giveawayActive",
      "outputs": [
        {
          "internalType": "bool",
          "name": "",
          "type": "bool"
        }
      ],
      "stateMutability": "view",
      "type": "function"
    },
    {
      "inputs": [],
      "name": "giveawayPriceToMint",
      "outputs": [
        {
          "internalType": "uint256",
          "name": "",
          "type": "uint256"
        }
      ],
      "stateMutability": "view",
      "type": "function"
    },
    {
      "inputs": [
        {
          "internalType": "address",
          "name": "owner",
          "type": "address"
        },
        {
          "internalType": "address",
          "name": "operator",
          "type": "address"
        }
      ],
      "name": "isApprovedForAll",
      "outputs": [
        {
          "internalType": "bool",
          "name": "",
          "type": "bool"
        }
      ],
      "stateMutability": "view",
      "type": "function"
    },
    {
      "inputs": [
        {
          "internalType": "uint256",
          "name": "tokensAmount",
          "type": "uint256"
        }
      ],
      "name": "mintTokens",
      "outputs": [
        {
          "internalType": "uint256[]",
          "name": "",
          "type": "uint256[]"
        }
      ],
      "stateMutability": "payable",
      "type": "function"
    },
    {
      "inputs": [],
      "name": "name",
      "outputs": [
        {
          "internalType": "string",
          "name": "",
          "type": "string"
        }
      ],
      "stateMutability": "view",
      "type": "function"
    },
    {
      "inputs": [],
      "name": "owner",
      "outputs": [
        {
          "internalType": "address",
          "name": "",
          "type": "address"
        }
      ],
      "stateMutability": "view",
      "type": "function"
    },
    {
      "inputs": [
        {
          "internalType": "uint256",
          "name": "tokenId",
          "type": "uint256"
        }
      ],
      "name": "ownerOf",
      "outputs": [
        {
          "internalType": "address",
          "name": "",
          "type": "address"
        }
      ],
      "stateMutability": "view",
      "type": "function"
    },
    {
      "inputs": [],
      "name": "pauseGiveaway",
      "outputs": [],
      "stateMutability": "nonpayable",
      "type": "function"
    },
    {
      "inputs": [],
      "name": "pausePresale",
      "outputs": [],
      "stateMutability": "nonpayable",
      "type": "function"
    },
    {
      "inputs": [],
      "name": "pausePublicSale",
      "outputs": [],
      "stateMutability": "nonpayable",
      "type": "function"
    },
    {
      "inputs": [],
      "name": "presaleActive",
      "outputs": [
        {
          "internalType": "bool",
          "name": "",
          "type": "bool"
        }
      ],
      "stateMutability": "view",
      "type": "function"
    },
    {
      "inputs": [],
      "name": "presalePriceToMint",
      "outputs": [
        {
          "internalType": "uint256",
          "name": "",
          "type": "uint256"
        }
      ],
      "stateMutability": "view",
      "type": "function"
    },
    {
      "inputs": [],
      "name": "price",
      "outputs": [
        {
          "internalType": "uint256",
          "name": "",
          "type": "uint256"
        }
      ],
      "stateMutability": "view",
      "type": "function"
    },
    {
      "inputs": [],
      "name": "priceToMint",
      "outputs": [
        {
          "internalType": "uint256",
          "name": "",
          "type": "uint256"
        }
      ],
      "stateMutability": "view",
      "type": "function"
    },
    {
      "inputs": [
        {
          "internalType": "address",
          "name": "",
          "type": "address"
        }
      ],
      "name": "purchasedAmount",
      "outputs": [
        {
          "internalType": "uint256",
          "name": "",
          "type": "uint256"
        }
      ],
      "stateMutability": "view",
      "type": "function"
    },
    {
      "inputs": [
        {
          "internalType": "address[]",
          "name": "addresses",
          "type": "address[]"
        }
      ],
      "name": "removeFromWhitelist",
      "outputs": [],
      "stateMutability": "nonpayable",
      "type": "function"
    },
    {
      "inputs": [],
      "name": "renounceOwnership",
      "outputs": [],
      "stateMutability": "nonpayable",
      "type": "function"
    },
    {
      "inputs": [
        {
          "internalType": "uint256",
          "name": "_tokenId",
          "type": "uint256"
        },
        {
          "internalType": "uint256",
          "name": "_salePrice",
          "type": "uint256"
        }
      ],
      "name": "royaltyInfo",
      "outputs": [
        {
          "internalType": "address",
          "name": "receiver",
          "type": "address"
        },
        {
          "internalType": "uint256",
          "name": "royaltyAmount",
          "type": "uint256"
        }
      ],
      "stateMutability": "view",
      "type": "function"
    },
    {
      "inputs": [
        {
          "internalType": "address",
          "name": "from",
          "type": "address"
        },
        {
          "internalType": "address",
          "name": "to",
          "type": "address"
        },
        {
          "internalType": "uint256",
          "name": "tokenId",
          "type": "uint256"
        }
      ],
      "name": "safeTransferFrom",
      "outputs": [],
      "stateMutability": "nonpayable",
      "type": "function"
    },
    {
      "inputs": [
        {
          "internalType": "address",
          "name": "from",
          "type": "address"
        },
        {
          "internalType": "address",
          "name": "to",
          "type": "address"
        },
        {
          "internalType": "uint256",
          "name": "tokenId",
          "type": "uint256"
        },
        {
          "internalType": "bytes",
          "name": "_data",
          "type": "bytes"
        }
      ],
      "name": "safeTransferFrom",
      "outputs": [],
      "stateMutability": "nonpayable",
      "type": "function"
    },
    {
      "inputs": [],
      "name": "saleActive",
      "outputs": [
        {
          "internalType": "bool",
          "name": "",
          "type": "bool"
        }
      ],
      "stateMutability": "view",
      "type": "function"
    },
    {
      "inputs": [
        {
          "internalType": "address",
          "name": "operator",
          "type": "address"
        },
        {
          "internalType": "bool",
          "name": "approved",
          "type": "bool"
        }
      ],
      "name": "setApprovalForAll",
      "outputs": [],
      "stateMutability": "nonpayable",
      "type": "function"
    },
    {
      "inputs": [
        {
          "internalType": "string",
          "name": "baseURI_",
          "type": "string"
        }
      ],
      "name": "setBaseURI",
      "outputs": [],
      "stateMutability": "nonpayable",
      "type": "function"
    },
    {
      "inputs": [],
      "name": "startGiveaway",
      "outputs": [],
      "stateMutability": "nonpayable",
      "type": "function"
    },
    {
      "inputs": [],
      "name": "startPresale",
      "outputs": [],
      "stateMutability": "nonpayable",
      "type": "function"
    },
    {
      "inputs": [],
      "name": "startPublicSale",
      "outputs": [],
      "stateMutability": "nonpayable",
      "type": "function"
    },
    {
      "inputs": [
        {
          "internalType": "bytes4",
          "name": "interfaceId",
          "type": "bytes4"
        }
      ],
      "name": "supportsInterface",
      "outputs": [
        {
          "internalType": "bool",
          "name": "",
          "type": "bool"
        }
      ],
      "stateMutability": "view",
      "type": "function"
    },
    {
      "inputs": [],
      "name": "symbol",
      "outputs": [
        {
          "internalType": "string",
          "name": "",
          "type": "string"
        }
      ],
      "stateMutability": "view",
      "type": "function"
    },
    {
      "inputs": [
        {
          "internalType": "uint256",
          "name": "tokenId",
          "type": "uint256"
        }
      ],
      "name": "tokenURI",
      "outputs": [
        {
          "internalType": "string",
          "name": "",
          "type": "string"
        }
      ],
      "stateMutability": "view",
      "type": "function"
    },
    {
      "inputs": [
        {
          "internalType": "address",
          "name": "from",
          "type": "address"
        },
        {
          "internalType": "address",
          "name": "to",
          "type": "address"
        },
        {
          "internalType": "uint256",
          "name": "tokenId",
          "type": "uint256"
        }
      ],
      "name": "transferFrom",
      "outputs": [],
      "stateMutability": "nonpayable",
      "type": "function"
    },
    {
      "inputs": [
        {
          "internalType": "address",
          "name": "newOwner",
          "type": "address"
        }
      ],
      "name": "transferOwnership",
      "outputs": [],
      "stateMutability": "nonpayable",
      "type": "function"
    },
    {
      "inputs": [],
      "name": "withdraw",
      "outputs": [],
      "stateMutability": "nonpayable",
      "type": "function"
    }
  ],
  "bytecode": "0x608060405260006011556658d15e1762800060125566b1a2bc2ec500006013553480156200002c57600080fd5b5060405162005f6f38038062005f6f833981810160405281019062000052919062000391565b878781600090805190602001906200006c9291906200022a565b508060019080519060200190620000859291906200022a565b505050620000a86200009c6200015c60201b60201c565b6200016460201b60201c565b600160078190555085600c9080519060200190620000c89291906200022a565b5084600d8190555083600e8190555082600f60006101000a81548160ff021916908360ff16021790555081600f60016101000a81548160ff021916908360ff16021790555080600f60026101000a81548173ffffffffffffffffffffffffffffffffffffffff021916908373ffffffffffffffffffffffffffffffffffffffff1602179055505050505050505050620006a8565b600033905090565b6000600660009054906101000a900473ffffffffffffffffffffffffffffffffffffffff16905081600660006101000a81548173ffffffffffffffffffffffffffffffffffffffff021916908373ffffffffffffffffffffffffffffffffffffffff1602179055508173ffffffffffffffffffffffffffffffffffffffff168173ffffffffffffffffffffffffffffffffffffffff167f8be0079c531659141344cd1fd0a4f28419497f9722a3daafe3b4186f6b6457e060405160405180910390a35050565b82805462000238906200057f565b90600052602060002090601f0160209004810192826200025c5760008555620002a8565b82601f106200027757805160ff1916838001178555620002a8565b82800160010185558215620002a8579182015b82811115620002a75782518255916020019190600101906200028a565b5b509050620002b79190620002bb565b5090565b5b80821115620002d6576000816000905550600101620002bc565b5090565b6000620002f1620002eb84620004c8565b6200049f565b9050828152602081018484840111156200030a57600080fd5b6200031784828562000549565b509392505050565b60008151905062000330816200065a565b92915050565b600082601f8301126200034857600080fd5b81516200035a848260208601620002da565b91505092915050565b600081519050620003748162000674565b92915050565b6000815190506200038b816200068e565b92915050565b600080600080600080600080610100898b031215620003af57600080fd5b600089015167ffffffffffffffff811115620003ca57600080fd5b620003d88b828c0162000336565b985050602089015167ffffffffffffffff811115620003f657600080fd5b620004048b828c0162000336565b975050604089015167ffffffffffffffff8111156200042257600080fd5b620004308b828c0162000336565b9650506060620004438b828c0162000363565b9550506080620004568b828c0162000363565b94505060a0620004698b828c016200037a565b93505060c06200047c8b828c016200037a565b92505060e06200048f8b828c016200031f565b9150509295985092959890939650565b6000620004ab620004be565b9050620004b98282620005b5565b919050565b6000604051905090565b600067ffffffffffffffff821115620004e657620004e56200061a565b5b620004f18262000649565b9050602081019050919050565b60006200050b8262000512565b9050919050565b600073ffffffffffffffffffffffffffffffffffffffff82169050919050565b6000819050919050565b600060ff82169050919050565b60005b83811015620005695780820151818401526020810190506200054c565b8381111562000579576000848401525b50505050565b600060028204905060018216806200059857607f821691505b60208210811415620005af57620005ae620005eb565b5b50919050565b620005c08262000649565b810181811067ffffffffffffffff82111715620005e257620005e16200061a565b5b80604052505050565b7f4e487b7100000000000000000000000000000000000000000000000000000000600052602260045260246000fd5b7f4e487b7100000000000000000000000000000000000000000000000000000000600052604160045260246000fd5b6000601f19601f8301169050919050565b6200066581620004fe565b81146200067157600080fd5b50565b6200067f8162000532565b81146200068b57600080fd5b50565b62000699816200053c565b8114620006a557600080fd5b50565b6158b780620006b86000396000f3fe60806040526004361061020f5760003560e01c8063548db1741161011857806395d89b41116100a0578063b88d4fde1161006f578063b88d4fde1461070d578063c87b56dd14610736578063dc9403a614610773578063e985e9c51461079e578063f2fde38b146107db5761020f565b806395d89b411461065e57806397304ced14610689578063a035b1fe146106b9578063a22cb465146106e45761020f565b806370a08231116100e757806370a082311461059f578063715018a6146105dc5780637c0f8aa0146105f35780637f6497831461060a5780638da5cb5b146106335761020f565b8063548db174146104e557806355f804b31461050e5780636352211e1461053757806368428a1b146105745761020f565b806323b872dd1161019b57806342842e0e1161016a57806342842e0e146103fe57806344c4dcc1146104275780634616d4b2146104645780634dc1dbec1461048f57806353135ca0146104ba5761020f565b806323b872dd146103555780632a55205a1461037e5780632b3f4d92146103bc5780633ccfd60b146103e75761020f565b8063070f5c09116101e2578063070f5c09146102aa578063081812fc146102c1578063095ea7b3146102fe5780630c1c972a146103275780630c41f4971461033e5761020f565b806301ffc9a71461021457806304c98b2b1461025157806305e4e88a1461026857806306fdde031461027f575b600080fd5b34801561022057600080fd5b5061023b60048036038101906102369190613e4a565b610804565b6040516102489190614636565b60405180910390f35b34801561025d57600080fd5b506102666108e6565b005b34801561027457600080fd5b5061027d610a9c565b005b34801561028b57600080fd5b50610294610c52565b6040516102a19190614651565b60405180910390f35b3480156102b657600080fd5b506102bf610ce4565b005b3480156102cd57600080fd5b506102e860048036038101906102e39190613edd565b610e99565b6040516102f59190614584565b60405180910390f35b34801561030a57600080fd5b5061032560048036038101906103209190613dcd565b610f1e565b005b34801561033357600080fd5b5061033c611036565b005b34801561034a57600080fd5b506103536111ec565b005b34801561036157600080fd5b5061037c60048036038101906103779190613cc7565b6113a1565b005b34801561038a57600080fd5b506103a560048036038101906103a09190613f06565b611401565b6040516103b39291906145eb565b60405180910390f35b3480156103c857600080fd5b506103d16114f1565b6040516103de9190614ad3565b60405180910390f35b3480156103f357600080fd5b506103fc6114f7565b005b34801561040a57600080fd5b5061042560048036038101906104209190613cc7565b6116d7565b005b34801561043357600080fd5b5061044e60048036038101906104499190613c62565b6116f7565b60405161045b9190614ad3565b60405180910390f35b34801561047057600080fd5b5061047961170f565b6040516104869190614636565b60405180910390f35b34801561049b57600080fd5b506104a4611722565b6040516104b19190614ad3565b60405180910390f35b3480156104c657600080fd5b506104cf611728565b6040516104dc9190614636565b60405180910390f35b3480156104f157600080fd5b5061050c60048036038101906105079190613e09565b61173b565b005b34801561051a57600080fd5b5061053560048036038101906105309190613e9c565b6118fe565b005b34801561054357600080fd5b5061055e60048036038101906105599190613edd565b611994565b60405161056b9190614584565b60405180910390f35b34801561058057600080fd5b50610589611a46565b6040516105969190614636565b60405180910390f35b3480156105ab57600080fd5b506105c660048036038101906105c19190613c62565b611a59565b6040516105d39190614ad3565b60405180910390f35b3480156105e857600080fd5b506105f1611b11565b005b3480156105ff57600080fd5b50610608611b99565b005b34801561061657600080fd5b50610631600480360381019061062c9190613e09565b611d4e565b005b34801561063f57600080fd5b50610648611f11565b6040516106559190614584565b60405180910390f35b34801561066a57600080fd5b50610673611f3b565b6040516106809190614651565b60405180910390f35b6106a3600480360381019061069e9190613edd565b611fcd565b6040516106b09190614614565b60405180910390f35b3480156106c557600080fd5b506106ce612218565b6040516106db9190614ad3565b60405180910390f35b3480156106f057600080fd5b5061070b60048036038101906107069190613d91565b6122de565b005b34801561071957600080fd5b50610734600480360381019061072f9190613d16565b6122f4565b005b34801561074257600080fd5b5061075d60048036038101906107589190613edd565b612356565b60405161076a9190614651565b60405180910390f35b34801561077f57600080fd5b506107886123fd565b6040516107959190614ad3565b60405180910390f35b3480156107aa57600080fd5b506107c560048036038101906107c09190613c8b565b612403565b6040516107d29190614636565b60405180910390f35b3480156107e757600080fd5b5061080260048036038101906107fd9190613c62565b612497565b005b60007f80ac58cd000000000000000000000000000000000000000000000000000000007bffffffffffffffffffffffffffffffffffffffffffffffffffffffff1916827bffffffffffffffffffffffffffffffffffffffffffffffffffffffff191614806108cf57507f5b5e139f000000000000000000000000000000000000000000000000000000007bffffffffffffffffffffffffffffffffffffffffffffffffffffffff1916827bffffffffffffffffffffffffffffffffffffffffffffffffffffffff1916145b806108df57506108de8261258f565b5b9050919050565b6108ee6125f9565b73ffffffffffffffffffffffffffffffffffffffff1661090c611f11565b73ffffffffffffffffffffffffffffffffffffffff1614610962576040517f08c379a0000000000000000000000000000000000000000000000000000000008152600401610959906148f3565b60405180910390fd5b601460009054906101000a900460ff16156109b2576040517f08c379a00000000000000000000000000000000000000000000000000000000081526004016109a990614a93565b60405180910390fd5b601460019054906101000a900460ff1615610a02576040517f08c379a00000000000000000000000000000000000000000000000000000000081526004016109f990614893565b60405180910390fd5b601460029054906101000a900460ff1615610a52576040517f08c379a0000000000000000000000000000000000000000000000000000000008152600401610a4990614773565b60405180910390fd5b6001601460016101000a81548160ff021916908315150217905550427f0ab3861e918916d082a16babf84acd725febc223f0833c5c03d8b14ec900174360405160405180910390a2565b610aa46125f9565b73ffffffffffffffffffffffffffffffffffffffff16610ac2611f11565b73ffffffffffffffffffffffffffffffffffffffff1614610b18576040517f08c379a0000000000000000000000000000000000000000000000000000000008152600401610b0f906148f3565b60405180910390fd5b601460009054906101000a900460ff1615610b68576040517f08c379a0000000000000000000000000000000000000000000000000000000008152600401610b5f90614a93565b60405180910390fd5b601460019054906101000a900460ff1615610bb8576040517f08c379a0000000000000000000000000000000000000000000000000000000008152600401610baf90614893565b60405180910390fd5b601460029054906101000a900460ff1615610c08576040517f08c379a0000000000000000000000000000000000000000000000000000000008152600401610bff90614773565b60405180910390fd5b6001601460006101000a81548160ff021916908315150217905550427fea160f4a1725183ff307b55e355bb04139d56298efc5853e17f99ade82e2f38960405160405180910390a2565b606060008054610c6190614de8565b80601f0160208091040260200160405190810160405280929190818152602001828054610c8d90614de8565b8015610cda5780601f10610caf57610100808354040283529160200191610cda565b820191906000526020600020905b815481529060010190602001808311610cbd57829003601f168201915b5050505050905090565b610cec6125f9565b73ffffffffffffffffffffffffffffffffffffffff16610d0a611f11565b73ffffffffffffffffffffffffffffffffffffffff1614610d60576040517f08c379a0000000000000000000000000000000000000000000000000000000008152600401610d57906148f3565b60405180910390fd5b601460009054906101000a900460ff1615610db0576040517f08c379a0000000000000000000000000000000000000000000000000000000008152600401610da790614a93565b60405180910390fd5b601460029054906101000a900460ff1615610e00576040517f08c379a0000000000000000000000000000000000000000000000000000000008152600401610df790614773565b60405180910390fd5b601460019054906101000a900460ff16610e4f576040517f08c379a0000000000000000000000000000000000000000000000000000000008152600401610e46906149f3565b60405180910390fd5b6000601460016101000a81548160ff021916908315150217905550427fbbda50ff3083b4adfffcd3c2e8042a8b354ca16013534ab9367661c5a4cb7b2360405160405180910390a2565b6000610ea482612601565b610ee3576040517f08c379a0000000000000000000000000000000000000000000000000000000008152600401610eda906148b3565b60405180910390fd5b6004600083815260200190815260200160002060009054906101000a900473ffffffffffffffffffffffffffffffffffffffff169050919050565b6000610f2982611994565b90508073ffffffffffffffffffffffffffffffffffffffff168373ffffffffffffffffffffffffffffffffffffffff161415610f9a576040517f08c379a0000000000000000000000000000000000000000000000000000000008152600401610f9190614973565b60405180910390fd5b8073ffffffffffffffffffffffffffffffffffffffff16610fb96125f9565b73ffffffffffffffffffffffffffffffffffffffff161480610fe85750610fe781610fe26125f9565b612403565b5b611027576040517f08c379a000000000000000000000000000000000000000000000000000000000815260040161101e906147f3565b60405180910390fd5b611031838361266d565b505050565b61103e6125f9565b73ffffffffffffffffffffffffffffffffffffffff1661105c611f11565b73ffffffffffffffffffffffffffffffffffffffff16146110b2576040517f08c379a00000000000000000000000000000000000000000000000000000000081526004016110a9906148f3565b60405180910390fd5b601460009054906101000a900460ff1615611102576040517f08c379a00000000000000000000000000000000000000000000000000000000081526004016110f990614a93565b60405180910390fd5b601460019054906101000a900460ff1615611152576040517f08c379a000000000000000000000000000000000000000000000000000000000815260040161114990614893565b60405180910390fd5b601460029054906101000a900460ff16156111a2576040517f08c379a000000000000000000000000000000000000000000000000000000000815260040161119990614773565b60405180910390fd5b6001601460026101000a81548160ff021916908315150217905550427feeae71454a2a58ac8d7c3a2ac3db1f29f81cbd0024aae4292a55139dd9d3560a60405160405180910390a2565b6111f46125f9565b73ffffffffffffffffffffffffffffffffffffffff16611212611f11565b73ffffffffffffffffffffffffffffffffffffffff1614611268576040517f08c379a000000000000000000000000000000000000000000000000000000000815260040161125f906148f3565b60405180910390fd5b601460009054906101000a900460ff16156112b8576040517f08c379a00000000000000000000000000000000000000000000000000000000081526004016112af90614a93565b60405180910390fd5b601460019054906101000a900460ff1615611308576040517f08c379a00000000000000000000000000000000000000000000000000000000081526004016112ff90614893565b60405180910390fd5b601460029054906101000a900460ff16611357576040517f08c379a000000000000000000000000000000000000000000000000000000000815260040161134e90614753565b60405180910390fd5b6000601460026101000a81548160ff021916908315150217905550427f4616a0782e5635981b28be1cd36934a60655b462c370d8bd8092c969abc990d060405160405180910390a2565b6113b26113ac6125f9565b82612726565b6113f1576040517f08c379a00000000000000000000000000000000000000000000000000000000081526004016113e8906149d3565b60405180910390fd5b6113fc838383612804565b505050565b60008061140d84612601565b61144c576040517f08c379a000000000000000000000000000000000000000000000000000000000815260040161144390614993565b60405180910390fd5b600073ffffffffffffffffffffffffffffffffffffffff16600f60029054906101000a900473ffffffffffffffffffffffffffffffffffffffff1673ffffffffffffffffffffffffffffffffffffffff1614156114a857600080fd5b600f60029054906101000a900473ffffffffffffffffffffffffffffffffffffffff16612710610320856114dc9190614ca4565b6114e69190614c73565b915091509250929050565b60115481565b6114ff6125f9565b73ffffffffffffffffffffffffffffffffffffffff1661151d611f11565b73ffffffffffffffffffffffffffffffffffffffff1614611573576040517f08c379a000000000000000000000000000000000000000000000000000000000815260040161156a906148f3565b60405180910390fd5b600260075414156115b9576040517f08c379a00000000000000000000000000000000000000000000000000000000081526004016115b090614a53565b60405180910390fd5b600260078190555047600e541115611606576040517f08c379a00000000000000000000000000000000000000000000000000000000081526004016115fd906147d3565b60405180910390fd5b600073ffffffffffffffffffffffffffffffffffffffff16600f60029054906101000a900473ffffffffffffffffffffffffffffffffffffffff1673ffffffffffffffffffffffffffffffffffffffff16141561166257600080fd5b600f60029054906101000a900473ffffffffffffffffffffffffffffffffffffffff1673ffffffffffffffffffffffffffffffffffffffff166108fc600e549081150290604051600060405180830381858888f193505050501580156116cc573d6000803e3d6000fd5b506001600781905550565b6116f2838383604051806020016040528060008152506122f4565b505050565b60106020528060005260406000206000915090505481565b601460009054906101000a900460ff1681565b60135481565b601460019054906101000a900460ff1681565b6117436125f9565b73ffffffffffffffffffffffffffffffffffffffff16611761611f11565b73ffffffffffffffffffffffffffffffffffffffff16146117b7576040517f08c379a00000000000000000000000000000000000000000000000000000000081526004016117ae906148f3565b60405180910390fd5b6107d0815111156117fd576040517f08c379a00000000000000000000000000000000000000000000000000000000081526004016117f490614813565b60405180910390fd5b60005b81518110156118fa5761185d828281518110611845577f4e487b7100000000000000000000000000000000000000000000000000000000600052603260045260246000fd5b6020026020010151600a612a6090919063ffffffff16565b156118e65781818151811061189b577f4e487b7100000000000000000000000000000000000000000000000000000000600052603260045260246000fd5b602002602001015173ffffffffffffffffffffffffffffffffffffffff167fcdd2e9b91a56913d370075169cefa1602ba36be5301664f752192bb1709df75760405160405180910390a25b6001816118f39190614c1d565b9050611800565b5050565b6119066125f9565b73ffffffffffffffffffffffffffffffffffffffff16611924611f11565b73ffffffffffffffffffffffffffffffffffffffff161461197a576040517f08c379a0000000000000000000000000000000000000000000000000000000008152600401611971906148f3565b60405180910390fd5b80600c90805190602001906119909291906139f0565b5050565b6000806002600084815260200190815260200160002060009054906101000a900473ffffffffffffffffffffffffffffffffffffffff169050600073ffffffffffffffffffffffffffffffffffffffff168173ffffffffffffffffffffffffffffffffffffffff161415611a3d576040517f08c379a0000000000000000000000000000000000000000000000000000000008152600401611a3490614853565b60405180910390fd5b80915050919050565b601460029054906101000a900460ff1681565b60008073ffffffffffffffffffffffffffffffffffffffff168273ffffffffffffffffffffffffffffffffffffffff161415611aca576040517f08c379a0000000000000000000000000000000000000000000000000000000008152600401611ac190614833565b60405180910390fd5b600360008373ffffffffffffffffffffffffffffffffffffffff1673ffffffffffffffffffffffffffffffffffffffff168152602001908152602001600020549050919050565b611b196125f9565b73ffffffffffffffffffffffffffffffffffffffff16611b37611f11565b73ffffffffffffffffffffffffffffffffffffffff1614611b8d576040517f08c379a0000000000000000000000000000000000000000000000000000000008152600401611b84906148f3565b60405180910390fd5b611b976000612a90565b565b611ba16125f9565b73ffffffffffffffffffffffffffffffffffffffff16611bbf611f11565b73ffffffffffffffffffffffffffffffffffffffff1614611c15576040517f08c379a0000000000000000000000000000000000000000000000000000000008152600401611c0c906148f3565b60405180910390fd5b601460019054906101000a900460ff1615611c65576040517f08c379a0000000000000000000000000000000000000000000000000000000008152600401611c5c90614893565b60405180910390fd5b601460029054906101000a900460ff1615611cb5576040517f08c379a0000000000000000000000000000000000000000000000000000000008152600401611cac90614773565b60405180910390fd5b601460009054906101000a900460ff16611d04576040517f08c379a0000000000000000000000000000000000000000000000000000000008152600401611cfb906149b3565b60405180910390fd5b6000601460006101000a81548160ff021916908315150217905550427f71fbf9de7004f7d16da327d0c26b8f8b29e6efeaa59d67d1b76d6cc71fe47aae60405160405180910390a2565b611d566125f9565b73ffffffffffffffffffffffffffffffffffffffff16611d74611f11565b73ffffffffffffffffffffffffffffffffffffffff1614611dca576040517f08c379a0000000000000000000000000000000000000000000000000000000008152600401611dc1906148f3565b60405180910390fd5b6107d081511115611e10576040517f08c379a0000000000000000000000000000000000000000000000000000000008152600401611e0790614813565b60405180910390fd5b60005b8151811015611f0d57611e70828281518110611e58577f4e487b7100000000000000000000000000000000000000000000000000000000600052603260045260246000fd5b6020026020010151600a612b5690919063ffffffff16565b15611ef957818181518110611eae577f4e487b7100000000000000000000000000000000000000000000000000000000600052603260045260246000fd5b602002602001015173ffffffffffffffffffffffffffffffffffffffff167fa850ae9193f515cbae8d35e8925bd2be26627fc91bce650b8652ed254e9cab0360405160405180910390a25b600181611f069190614c1d565b9050611e13565b5050565b6000600660009054906101000a900473ffffffffffffffffffffffffffffffffffffffff16905090565b606060018054611f4a90614de8565b80601f0160208091040260200160405190810160405280929190818152602001828054611f7690614de8565b8015611fc35780601f10611f9857610100808354040283529160200191611fc3565b820191906000526020600020905b815481529060010190602001808311611fa657829003601f168201915b5050505050905090565b6060601460009054906101000a900460ff1680611ff65750601460019054906101000a900460ff165b8061200d5750601460029054906101000a900460ff165b61204c576040517f08c379a0000000000000000000000000000000000000000000000000000000008152600401612043906148d3565b60405180910390fd5b60026007541415612092576040517f08c379a000000000000000000000000000000000000000000000000000000000815260040161208990614a53565b60405180910390fd5b60026007819055506120a382612b86565b60008267ffffffffffffffff8111156120e5577f4e487b7100000000000000000000000000000000000000000000000000000000600052604160045260246000fd5b6040519080825280602002602001820160405280156121135781602001602082028036833780820191505090505b50905060005b838110156121835761212a33612f3b565b828281518110612163577f4e487b7100000000000000000000000000000000000000000000000000000000600052603260045260246000fd5b60200260200101818152505060018161217c9190614c1d565b9050612119565b50601460019054906101000a900460ff16806121ab5750601460029054906101000a900460ff165b156122075782601060003373ffffffffffffffffffffffffffffffffffffffff1673ffffffffffffffffffffffffffffffffffffffff16815260200190815260200160002060008282546121ff9190614c1d565b925050819055505b809150506001600781905550919050565b6000601460009054906101000a900460ff16806122415750601460019054906101000a900460ff165b806122585750601460029054906101000a900460ff165b612297576040517f08c379a000000000000000000000000000000000000000000000000000000000815260040161228e906148d3565b60405180910390fd5b601460009054906101000a900460ff16156122b65760115490506122db565b601460019054906101000a900460ff16156122d55760125490506122db565b60135490505b90565b6122f06122e96125f9565b8383612f68565b5050565b6123056122ff6125f9565b83612726565b612344576040517f08c379a000000000000000000000000000000000000000000000000000000000815260040161233b906149d3565b60405180910390fd5b612350848484846130d5565b50505050565b606061236182612601565b6123a0576040517f08c379a000000000000000000000000000000000000000000000000000000000815260040161239790614933565b60405180910390fd5b60006123aa613131565b905060008151116123ca57604051806020016040528060008152506123f5565b806123d4846131c3565b6040516020016123e5929190614560565b6040516020818303038152906040525b915050919050565b60125481565b6000600560008473ffffffffffffffffffffffffffffffffffffffff1673ffffffffffffffffffffffffffffffffffffffff16815260200190815260200160002060008373ffffffffffffffffffffffffffffffffffffffff1673ffffffffffffffffffffffffffffffffffffffff16815260200190815260200160002060009054906101000a900460ff16905092915050565b61249f6125f9565b73ffffffffffffffffffffffffffffffffffffffff166124bd611f11565b73ffffffffffffffffffffffffffffffffffffffff1614612513576040517f08c379a000000000000000000000000000000000000000000000000000000000815260040161250a906148f3565b60405180910390fd5b600073ffffffffffffffffffffffffffffffffffffffff168173ffffffffffffffffffffffffffffffffffffffff161415612583576040517f08c379a000000000000000000000000000000000000000000000000000000000815260040161257a906146d3565b60405180910390fd5b61258c81612a90565b50565b60007f01ffc9a7000000000000000000000000000000000000000000000000000000007bffffffffffffffffffffffffffffffffffffffffffffffffffffffff1916827bffffffffffffffffffffffffffffffffffffffffffffffffffffffff1916149050919050565b600033905090565b60008073ffffffffffffffffffffffffffffffffffffffff166002600084815260200190815260200160002060009054906101000a900473ffffffffffffffffffffffffffffffffffffffff1673ffffffffffffffffffffffffffffffffffffffff1614159050919050565b816004600083815260200190815260200160002060006101000a81548173ffffffffffffffffffffffffffffffffffffffff021916908373ffffffffffffffffffffffffffffffffffffffff160217905550808273ffffffffffffffffffffffffffffffffffffffff166126e083611994565b73ffffffffffffffffffffffffffffffffffffffff167f8c5be1e5ebec7d5bd14f71427d1e84f3dd0314c0f7b2291e5b200ac8c7c3b92560405160405180910390a45050565b600061273182612601565b612770576040517f08c379a0000000000000000000000000000000000000000000000000000000008152600401612767906147b3565b60405180910390fd5b600061277b83611994565b90508073ffffffffffffffffffffffffffffffffffffffff168473ffffffffffffffffffffffffffffffffffffffff1614806127ea57508373ffffffffffffffffffffffffffffffffffffffff166127d284610e99565b73ffffffffffffffffffffffffffffffffffffffff16145b806127fb57506127fa8185612403565b5b91505092915050565b8273ffffffffffffffffffffffffffffffffffffffff1661282482611994565b73ffffffffffffffffffffffffffffffffffffffff161461287a576040517f08c379a000000000000000000000000000000000000000000000000000000000815260040161287190614913565b60405180910390fd5b600073ffffffffffffffffffffffffffffffffffffffff168273ffffffffffffffffffffffffffffffffffffffff1614156128ea576040517f08c379a00000000000000000000000000000000000000000000000000000000081526004016128e190614713565b60405180910390fd5b6128f5838383613370565b61290060008261266d565b6001600360008573ffffffffffffffffffffffffffffffffffffffff1673ffffffffffffffffffffffffffffffffffffffff16815260200190815260200160002060008282546129509190614cfe565b925050819055506001600360008473ffffffffffffffffffffffffffffffffffffffff1673ffffffffffffffffffffffffffffffffffffffff16815260200190815260200160002060008282546129a79190614c1d565b92505081905550816002600083815260200190815260200160002060006101000a81548173ffffffffffffffffffffffffffffffffffffffff021916908373ffffffffffffffffffffffffffffffffffffffff160217905550808273ffffffffffffffffffffffffffffffffffffffff168473ffffffffffffffffffffffffffffffffffffffff167fddf252ad1be2c89b69c2b068fc378daa952ba7f163c4a11628f55a4df523b3ef60405160405180910390a4505050565b6000612a88836000018373ffffffffffffffffffffffffffffffffffffffff1660001b613375565b905092915050565b6000600660009054906101000a900473ffffffffffffffffffffffffffffffffffffffff16905081600660006101000a81548173ffffffffffffffffffffffffffffffffffffffff021916908373ffffffffffffffffffffffffffffffffffffffff1602179055508173ffffffffffffffffffffffffffffffffffffffff168173ffffffffffffffffffffffffffffffffffffffff167f8be0079c531659141344cd1fd0a4f28419497f9722a3daafe3b4186f6b6457e060405160405180910390a35050565b6000612b7e836000018373ffffffffffffffffffffffffffffffffffffffff1660001b6134fb565b905092915050565b600073ffffffffffffffffffffffffffffffffffffffff163373ffffffffffffffffffffffffffffffffffffffff161415612bc057600080fd5b600d54612bcd600861356b565b10612c0d576040517f08c379a0000000000000000000000000000000000000000000000000000000008152600401612c0490614ab3565b60405180910390fd5b60008111612c50576040517f08c379a0000000000000000000000000000000000000000000000000000000008152600401612c4790614953565b60405180910390fd5b6004811115612c94576040517f08c379a0000000000000000000000000000000000000000000000000000000008152600401612c8b90614793565b60405180910390fd5b601460009054906101000a900460ff1615612cf657612cb233613579565b612cf1576040517f08c379a0000000000000000000000000000000000000000000000000000000008152600401612ce890614673565b60405180910390fd5b612f38565b601460019054906101000a900460ff1615612e4757612d1433613579565b612d53576040517f08c379a0000000000000000000000000000000000000000000000000000000008152600401612d4a90614673565b60405180910390fd5b600f60009054906101000a900460ff1660ff16601060003373ffffffffffffffffffffffffffffffffffffffff1673ffffffffffffffffffffffffffffffffffffffff1681526020019081526020016000205482612db19190614c1d565b1115612df2576040517f08c379a0000000000000000000000000000000000000000000000000000000008152600401612de990614a73565b60405180910390fd5b3481601254612e019190614ca4565b1115612e42576040517f08c379a0000000000000000000000000000000000000000000000000000000008152600401612e3990614a33565b60405180910390fd5b612f37565b600f60019054906101000a900460ff1660ff16601060003373ffffffffffffffffffffffffffffffffffffffff1673ffffffffffffffffffffffffffffffffffffffff1681526020019081526020016000205482612ea59190614c1d565b1115612ee6576040517f08c379a0000000000000000000000000000000000000000000000000000000008152600401612edd906146b3565b60405180910390fd5b3481601354612ef59190614ca4565b1115612f36576040517f08c379a0000000000000000000000000000000000000000000000000000000008152600401612f2d90614a13565b60405180910390fd5b5b5b50565b6000612f476008613596565b6000612f53600861356b565b9050612f5f83826135ac565b80915050919050565b8173ffffffffffffffffffffffffffffffffffffffff168373ffffffffffffffffffffffffffffffffffffffff161415612fd7576040517f08c379a0000000000000000000000000000000000000000000000000000000008152600401612fce90614733565b60405180910390fd5b80600560008573ffffffffffffffffffffffffffffffffffffffff1673ffffffffffffffffffffffffffffffffffffffff16815260200190815260200160002060008473ffffffffffffffffffffffffffffffffffffffff1673ffffffffffffffffffffffffffffffffffffffff16815260200190815260200160002060006101000a81548160ff0219169083151502179055508173ffffffffffffffffffffffffffffffffffffffff168373ffffffffffffffffffffffffffffffffffffffff167f17307eab39ab6107e8899845ad3d59bd9653f200f220920489ca2b5937696c31836040516130c89190614636565b60405180910390a3505050565b6130e0848484612804565b6130ec848484846135ca565b61312b576040517f08c379a000000000000000000000000000000000000000000000000000000000815260040161312290614693565b60405180910390fd5b50505050565b6060600c805461314090614de8565b80601f016020809104026020016040519081016040528092919081815260200182805461316c90614de8565b80156131b95780601f1061318e576101008083540402835291602001916131b9565b820191906000526020600020905b81548152906001019060200180831161319c57829003601f168201915b5050505050905090565b6060600082141561320b576040518060400160405280600181526020017f3000000000000000000000000000000000000000000000000000000000000000815250905061336b565b600082905060005b6000821461323d57808061322690614e4b565b915050600a826132369190614c73565b9150613213565b60008167ffffffffffffffff81111561327f577f4e487b7100000000000000000000000000000000000000000000000000000000600052604160045260246000fd5b6040519080825280601f01601f1916602001820160405280156132b15781602001600182028036833780820191505090505b5090505b60008514613364576001826132ca9190614cfe565b9150600a856132d99190614e94565b60306132e59190614c1d565b60f81b818381518110613321577f4e487b7100000000000000000000000000000000000000000000000000000000600052603260045260246000fd5b60200101907effffffffffffffffffffffffffffffffffffffffffffffffffffffffffffff1916908160001a905350600a8561335d9190614c73565b94506132b5565b8093505050505b919050565b505050565b600080836001016000848152602001908152602001600020549050600081146134ef5760006001826133a79190614cfe565b90506000600186600001805490506133bf9190614cfe565b905081811461347a576000866000018281548110613406577f4e487b7100000000000000000000000000000000000000000000000000000000600052603260045260246000fd5b9060005260206000200154905080876000018481548110613450577f4e487b7100000000000000000000000000000000000000000000000000000000600052603260045260246000fd5b90600052602060002001819055508387600101600083815260200190815260200160002081905550505b856000018054806134b4577f4e487b7100000000000000000000000000000000000000000000000000000000600052603160045260246000fd5b6001900381819060005260206000200160009055905585600101600086815260200190815260200160002060009055600193505050506134f5565b60009150505b92915050565b60006135078383613761565b613560578260000182908060018154018082558091505060019003906000526020600020016000909190919091505582600001805490508360010160008481526020019081526020016000208190555060019050613565565b600090505b92915050565b600081600001549050919050565b600061358f82600a61378490919063ffffffff16565b9050919050565b6001816000016000828254019250508190555050565b6135c68282604051806020016040528060008152506137b4565b5050565b60006135eb8473ffffffffffffffffffffffffffffffffffffffff1661380f565b15613754578373ffffffffffffffffffffffffffffffffffffffff1663150b7a026136146125f9565b8786866040518563ffffffff1660e01b8152600401613636949392919061459f565b602060405180830381600087803b15801561365057600080fd5b505af192505050801561368157506040513d601f19601f8201168201806040525081019061367e9190613e73565b60015b613704573d80600081146136b1576040519150601f19603f3d011682016040523d82523d6000602084013e6136b6565b606091505b506000815114156136fc576040517f08c379a00000000000000000000000000000000000000000000000000000000081526004016136f390614693565b60405180910390fd5b805181602001fd5b63150b7a0260e01b7bffffffffffffffffffffffffffffffffffffffffffffffffffffffff1916817bffffffffffffffffffffffffffffffffffffffffffffffffffffffff191614915050613759565b600190505b949350505050565b600080836001016000848152602001908152602001600020541415905092915050565b60006137ac836000018373ffffffffffffffffffffffffffffffffffffffff1660001b613761565b905092915050565b6137be8383613822565b6137cb60008484846135ca565b61380a576040517f08c379a000000000000000000000000000000000000000000000000000000000815260040161380190614693565b60405180910390fd5b505050565b600080823b905060008111915050919050565b600073ffffffffffffffffffffffffffffffffffffffff168273ffffffffffffffffffffffffffffffffffffffff161415613892576040517f08c379a000000000000000000000000000000000000000000000000000000000815260040161388990614873565b60405180910390fd5b61389b81612601565b156138db576040517f08c379a00000000000000000000000000000000000000000000000000000000081526004016138d2906146f3565b60405180910390fd5b6138e760008383613370565b6001600360008473ffffffffffffffffffffffffffffffffffffffff1673ffffffffffffffffffffffffffffffffffffffff16815260200190815260200160002060008282546139379190614c1d565b92505081905550816002600083815260200190815260200160002060006101000a81548173ffffffffffffffffffffffffffffffffffffffff021916908373ffffffffffffffffffffffffffffffffffffffff160217905550808273ffffffffffffffffffffffffffffffffffffffff16600073ffffffffffffffffffffffffffffffffffffffff167fddf252ad1be2c89b69c2b068fc378daa952ba7f163c4a11628f55a4df523b3ef60405160405180910390a45050565b8280546139fc90614de8565b90600052602060002090601f016020900481019282613a1e5760008555613a65565b82601f10613a3757805160ff1916838001178555613a65565b82800160010185558215613a65579182015b82811115613a64578251825591602001919060010190613a49565b5b509050613a729190613a76565b5090565b5b80821115613a8f576000816000905550600101613a77565b5090565b6000613aa6613aa184614b13565b614aee565b90508083825260208201905082856020860282011115613ac557600080fd5b60005b85811015613af55781613adb8882613b7b565b845260208401935060208301925050600181019050613ac8565b5050509392505050565b6000613b12613b0d84614b3f565b614aee565b905082815260208101848484011115613b2a57600080fd5b613b35848285614da6565b509392505050565b6000613b50613b4b84614b70565b614aee565b905082815260208101848484011115613b6857600080fd5b613b73848285614da6565b509392505050565b600081359050613b8a81615825565b92915050565b600082601f830112613ba157600080fd5b8135613bb1848260208601613a93565b91505092915050565b600081359050613bc98161583c565b92915050565b600081359050613bde81615853565b92915050565b600081519050613bf381615853565b92915050565b600082601f830112613c0a57600080fd5b8135613c1a848260208601613aff565b91505092915050565b600082601f830112613c3457600080fd5b8135613c44848260208601613b3d565b91505092915050565b600081359050613c5c8161586a565b92915050565b600060208284031215613c7457600080fd5b6000613c8284828501613b7b565b91505092915050565b60008060408385031215613c9e57600080fd5b6000613cac85828601613b7b565b9250506020613cbd85828601613b7b565b9150509250929050565b600080600060608486031215613cdc57600080fd5b6000613cea86828701613b7b565b9350506020613cfb86828701613b7b565b9250506040613d0c86828701613c4d565b9150509250925092565b60008060008060808587031215613d2c57600080fd5b6000613d3a87828801613b7b565b9450506020613d4b87828801613b7b565b9350506040613d5c87828801613c4d565b925050606085013567ffffffffffffffff811115613d7957600080fd5b613d8587828801613bf9565b91505092959194509250565b60008060408385031215613da457600080fd5b6000613db285828601613b7b565b9250506020613dc385828601613bba565b9150509250929050565b60008060408385031215613de057600080fd5b6000613dee85828601613b7b565b9250506020613dff85828601613c4d565b9150509250929050565b600060208284031215613e1b57600080fd5b600082013567ffffffffffffffff811115613e3557600080fd5b613e4184828501613b90565b91505092915050565b600060208284031215613e5c57600080fd5b6000613e6a84828501613bcf565b91505092915050565b600060208284031215613e8557600080fd5b6000613e9384828501613be4565b91505092915050565b600060208284031215613eae57600080fd5b600082013567ffffffffffffffff811115613ec857600080fd5b613ed484828501613c23565b91505092915050565b600060208284031215613eef57600080fd5b6000613efd84828501613c4d565b91505092915050565b60008060408385031215613f1957600080fd5b6000613f2785828601613c4d565b9250506020613f3885828601613c4d565b9150509250929050565b6000613f4e8383614542565b60208301905092915050565b613f6381614d32565b82525050565b6000613f7482614bb1565b613f7e8185614bdf565b9350613f8983614ba1565b8060005b83811015613fba578151613fa18882613f42565b9750613fac83614bd2565b925050600181019050613f8d565b5085935050505092915050565b613fd081614d44565b82525050565b6000613fe182614bbc565b613feb8185614bf0565b9350613ffb818560208601614db5565b61400481614f81565b840191505092915050565b600061401a82614bc7565b6140248185614c01565b9350614034818560208601614db5565b61403d81614f81565b840191505092915050565b600061405382614bc7565b61405d8185614c12565b935061406d818560208601614db5565b80840191505092915050565b6000614086602b83614c01565b915061409182614f92565b604082019050919050565b60006140a9603283614c01565b91506140b482614fe1565b604082019050919050565b60006140cc601f83614c01565b91506140d782615030565b602082019050919050565b60006140ef602683614c01565b91506140fa82615059565b604082019050919050565b6000614112601c83614c01565b915061411d826150a8565b602082019050919050565b6000614135602483614c01565b9150614140826150d1565b604082019050919050565b6000614158601983614c01565b915061416382615120565b602082019050919050565b600061417b601283614c01565b915061418682615149565b602082019050919050565b600061419e601283614c01565b91506141a982615172565b602082019050919050565b60006141c1602883614c01565b91506141cc8261519b565b604082019050919050565b60006141e4602c83614c01565b91506141ef826151ea565b604082019050919050565b6000614207601b83614c01565b915061421282615239565b602082019050919050565b600061422a603883614c01565b915061423582615262565b604082019050919050565b600061424d601c83614c01565b9150614258826152b1565b602082019050919050565b6000614270602a83614c01565b915061427b826152da565b604082019050919050565b6000614293602983614c01565b915061429e82615329565b604082019050919050565b60006142b6602083614c01565b91506142c182615378565b602082019050919050565b60006142d9601583614c01565b91506142e4826153a1565b602082019050919050565b60006142fc602c83614c01565b9150614307826153ca565b604082019050919050565b600061431f602583614c01565b915061432a82615419565b604082019050919050565b6000614342602083614c01565b915061434d82615468565b602082019050919050565b6000614365602983614c01565b915061437082615491565b604082019050919050565b6000614388602f83614c01565b9150614393826154e0565b604082019050919050565b60006143ab601c83614c01565b91506143b68261552f565b602082019050919050565b60006143ce602183614c01565b91506143d982615558565b604082019050919050565b60006143f1602583614c01565b91506143fc826155a7565b604082019050919050565b6000614414601383614c01565b915061441f826155f6565b602082019050919050565b6000614437603183614c01565b91506144428261561f565b604082019050919050565b600061445a601583614c01565b91506144658261566e565b602082019050919050565b600061447d604183614c01565b915061448882615697565b606082019050919050565b60006144a0603d83614c01565b91506144ab8261570c565b604082019050919050565b60006144c3601f83614c01565b91506144ce8261575b565b602082019050919050565b60006144e6602683614c01565b91506144f182615784565b604082019050919050565b6000614509601383614c01565b9150614514826157d3565b602082019050919050565b600061452c600f83614c01565b9150614537826157fc565b602082019050919050565b61454b81614d9c565b82525050565b61455a81614d9c565b82525050565b600061456c8285614048565b91506145788284614048565b91508190509392505050565b60006020820190506145996000830184613f5a565b92915050565b60006080820190506145b46000830187613f5a565b6145c16020830186613f5a565b6145ce6040830185614551565b81810360608301526145e08184613fd6565b905095945050505050565b60006040820190506146006000830185613f5a565b61460d6020830184614551565b9392505050565b6000602082019050818103600083015261462e8184613f69565b905092915050565b600060208201905061464b6000830184613fc7565b92915050565b6000602082019050818103600083015261466b818461400f565b905092915050565b6000602082019050818103600083015261468c81614079565b9050919050565b600060208201905081810360008301526146ac8161409c565b9050919050565b600060208201905081810360008301526146cc816140bf565b9050919050565b600060208201905081810360008301526146ec816140e2565b9050919050565b6000602082019050818103600083015261470c81614105565b9050919050565b6000602082019050818103600083015261472c81614128565b9050919050565b6000602082019050818103600083015261474c8161414b565b9050919050565b6000602082019050818103600083015261476c8161416e565b9050919050565b6000602082019050818103600083015261478c81614191565b9050919050565b600060208201905081810360008301526147ac816141b4565b9050919050565b600060208201905081810360008301526147cc816141d7565b9050919050565b600060208201905081810360008301526147ec816141fa565b9050919050565b6000602082019050818103600083015261480c8161421d565b9050919050565b6000602082019050818103600083015261482c81614240565b9050919050565b6000602082019050818103600083015261484c81614263565b9050919050565b6000602082019050818103600083015261486c81614286565b9050919050565b6000602082019050818103600083015261488c816142a9565b9050919050565b600060208201905081810360008301526148ac816142cc565b9050919050565b600060208201905081810360008301526148cc816142ef565b9050919050565b600060208201905081810360008301526148ec81614312565b9050919050565b6000602082019050818103600083015261490c81614335565b9050919050565b6000602082019050818103600083015261492c81614358565b9050919050565b6000602082019050818103600083015261494c8161437b565b9050919050565b6000602082019050818103600083015261496c8161439e565b9050919050565b6000602082019050818103600083015261498c816143c1565b9050919050565b600060208201905081810360008301526149ac816143e4565b9050919050565b600060208201905081810360008301526149cc81614407565b9050919050565b600060208201905081810360008301526149ec8161442a565b9050919050565b60006020820190508181036000830152614a0c8161444d565b9050919050565b60006020820190508181036000830152614a2c81614470565b9050919050565b60006020820190508181036000830152614a4c81614493565b9050919050565b60006020820190508181036000830152614a6c816144b6565b9050919050565b60006020820190508181036000830152614a8c816144d9565b9050919050565b60006020820190508181036000830152614aac816144fc565b9050919050565b60006020820190508181036000830152614acc8161451f565b9050919050565b6000602082019050614ae86000830184614551565b92915050565b6000614af8614b09565b9050614b048282614e1a565b919050565b6000604051905090565b600067ffffffffffffffff821115614b2e57614b2d614f52565b5b602082029050602081019050919050565b600067ffffffffffffffff821115614b5a57614b59614f52565b5b614b6382614f81565b9050602081019050919050565b600067ffffffffffffffff821115614b8b57614b8a614f52565b5b614b9482614f81565b9050602081019050919050565b6000819050602082019050919050565b600081519050919050565b600081519050919050565b600081519050919050565b6000602082019050919050565b600082825260208201905092915050565b600082825260208201905092915050565b600082825260208201905092915050565b600081905092915050565b6000614c2882614d9c565b9150614c3383614d9c565b9250827fffffffffffffffffffffffffffffffffffffffffffffffffffffffffffffffff03821115614c6857614c67614ec5565b5b828201905092915050565b6000614c7e82614d9c565b9150614c8983614d9c565b925082614c9957614c98614ef4565b5b828204905092915050565b6000614caf82614d9c565b9150614cba83614d9c565b9250817fffffffffffffffffffffffffffffffffffffffffffffffffffffffffffffffff0483118215151615614cf357614cf2614ec5565b5b828202905092915050565b6000614d0982614d9c565b9150614d1483614d9c565b925082821015614d2757614d26614ec5565b5b828203905092915050565b6000614d3d82614d7c565b9050919050565b60008115159050919050565b60007fffffffff0000000000000000000000000000000000000000000000000000000082169050919050565b600073ffffffffffffffffffffffffffffffffffffffff82169050919050565b6000819050919050565b82818337600083830152505050565b60005b83811015614dd3578082015181840152602081019050614db8565b83811115614de2576000848401525b50505050565b60006002820490506001821680614e0057607f821691505b60208210811415614e1457614e13614f23565b5b50919050565b614e2382614f81565b810181811067ffffffffffffffff82111715614e4257614e41614f52565b5b80604052505050565b6000614e5682614d9c565b91507fffffffffffffffffffffffffffffffffffffffffffffffffffffffffffffffff821415614e8957614e88614ec5565b5b600182019050919050565b6000614e9f82614d9c565b9150614eaa83614d9c565b925082614eba57614eb9614ef4565b5b828206905092915050565b7f4e487b7100000000000000000000000000000000000000000000000000000000600052601160045260246000fd5b7f4e487b7100000000000000000000000000000000000000000000000000000000600052601260045260246000fd5b7f4e487b7100000000000000000000000000000000000000000000000000000000600052602260045260246000fd5b7f4e487b7100000000000000000000000000000000000000000000000000000000600052604160045260246000fd5b6000601f19601f8301169050919050565b7f576527726520736f7272792c20796f757220616464726573732069736e27742060008201527f77686974656c6973746564000000000000000000000000000000000000000000602082015250565b7f4552433732313a207472616e7366657220746f206e6f6e20455243373231526560008201527f63656976657220696d706c656d656e7465720000000000000000000000000000602082015250565b7f43616e6e6f74206d696e74206d6f7265207468616e20313620746f6b656e7300600082015250565b7f4f776e61626c653a206e6577206f776e657220697320746865207a65726f206160008201527f6464726573730000000000000000000000000000000000000000000000000000602082015250565b7f4552433732313a20746f6b656e20616c7265616479206d696e74656400000000600082015250565b7f4552433732313a207472616e7366657220746f20746865207a65726f2061646460008201527f7265737300000000000000000000000000000000000000000000000000000000602082015250565b7f4552433732313a20617070726f766520746f2063616c6c657200000000000000600082015250565b7f53616c65206973206e6f74206163746976650000000000000000000000000000600082015250565b7f53616c65206973206e6f74207061757365640000000000000000000000000000600082015250565b7f43616e6e6f74206d696e74206d6f7265207468616e203420746f6b656e73206160008201527f7420612074696d65000000000000000000000000000000000000000000000000602082015250565b7f4552433732313a206f70657261746f7220717565727920666f72206e6f6e657860008201527f697374656e7420746f6b656e0000000000000000000000000000000000000000602082015250565b7f42616c616e6365206973206c657373207468616e202e35206574680000000000600082015250565b7f4552433732313a20617070726f76652063616c6c6572206973206e6f74206f7760008201527f6e6572206e6f7220617070726f76656420666f7220616c6c0000000000000000602082015250565b7f57686974656c6973742063616e6e6f7420657863656564203230303000000000600082015250565b7f4552433732313a2062616c616e636520717565727920666f7220746865207a6560008201527f726f206164647265737300000000000000000000000000000000000000000000602082015250565b7f4552433732313a206f776e657220717565727920666f72206e6f6e657869737460008201527f656e7420746f6b656e0000000000000000000000000000000000000000000000602082015250565b7f4552433732313a206d696e7420746f20746865207a65726f2061646472657373600082015250565b7f50726573616c65206973206e6f74207061757365640000000000000000000000600082015250565b7f4552433732313a20617070726f76656420717565727920666f72206e6f6e657860008201527f697374656e7420746f6b656e0000000000000000000000000000000000000000602082015250565b7f546865726520617265206e6f2073616c65732061742074686973207465726d6960008201527f6e61746564000000000000000000000000000000000000000000000000000000602082015250565b7f4f776e61626c653a2063616c6c6572206973206e6f7420746865206f776e6572600082015250565b7f4552433732313a207472616e73666572206f6620746f6b656e2074686174206960008201527f73206e6f74206f776e0000000000000000000000000000000000000000000000602082015250565b7f4552433732314d657461646174613a2055524920717565727920666f72206e6f60008201527f6e6578697374656e7420746f6b656e0000000000000000000000000000000000602082015250565b7f4d757374206d696e74206174206c65617374206f6e6520746f6b656e00000000600082015250565b7f4552433732313a20617070726f76616c20746f2063757272656e74206f776e6560008201527f7200000000000000000000000000000000000000000000000000000000000000602082015250565b7f4e6f6e6578697374656e7420746f6b656e20666f7220726f79616c747920706160008201527f796d656e74000000000000000000000000000000000000000000000000000000602082015250565b7f4769766561776179206e6f742061637469766500000000000000000000000000600082015250565b7f4552433732313a207472616e736665722063616c6c6572206973206e6f74206f60008201527f776e6572206e6f7220617070726f766564000000000000000000000000000000602082015250565b7f50726573616c65206973206e6f74206163746976650000000000000000000000600082015250565b7f496e73756666696369656e742066756e64733a2045746865722076616c75652060008201527f646f6573206e6f74206d61746368207075626c69632073616c6520707269636560208201527f2e00000000000000000000000000000000000000000000000000000000000000604082015250565b7f496e73756666696369656e742066756e64733a2045746865722076616c75652060008201527f646f6573206e6f74206d617463682070726573616c652070726963652e000000602082015250565b7f5265656e7472616e637947756172643a207265656e7472616e742063616c6c00600082015250565b7f43616e6e6f74206d696e74206d6f7265207468616e203420746f6b656e73207060008201527f726573616c650000000000000000000000000000000000000000000000000000602082015250565b7f4769766561776179206e6f742070617573656400000000000000000000000000600082015250565b7f4e6f20746f6b656e73206c656674210000000000000000000000000000000000600082015250565b61582e81614d32565b811461583957600080fd5b50565b61584581614d44565b811461585057600080fd5b50565b61585c81614d50565b811461586757600080fd5b50565b61587381614d9c565b811461587e57600080fd5b5056fea264697066735822122024279d4d2bdcf38f135433ebab806f3f4de6498148ea7f8fb341b05de5f8f3c064736f6c63430008040033",
  "linkReferences": {},
  "deployedLinkReferences": {}
}