{
  "_format": "hh-sol-artifact-1",
  "contractName": "Turtleverse",
  "sourceName": "contracts/Turtleverse.sol",
  "abi": [
    {
      "inputs": [
        {
          "internalType": "string",
          "name": "name_",
          "type": "string"
        },
        {
          "internalType": "string",
          "name": "symbol_",
          "type": "string"
        },
        {
          "internalType": "string",
          "name": "baseURI_",
          "type": "string"
        },
        {
          "internalType": "uint8",
          "name": "presaleLimit_",
          "type": "uint8"
        },
        {
          "internalType": "address payable",
          "name": "payout_",
          "type": "address"
        },
        {
          "internalType": "uint256",
          "name": "maxWithdrawal_",
          "type": "uint256"
        }
      ],
      "stateMutability": "nonpayable",
      "type": "constructor"
    },
    {
      "anonymous": false,
      "inputs": [
        {
          "indexed": true,
          "internalType": "address",
          "name": "_address",
          "type": "address"
        }
      ],
      "name": "AddedToWhitelist",
      "type": "event"
    },
    {
      "anonymous": false,
      "inputs": [
        {
          "indexed": true,
          "internalType": "address",
          "name": "owner",
          "type": "address"
        },
        {
          "indexed": true,
          "internalType": "address",
          "name": "approved",
          "type": "address"
        },
        {
          "indexed": true,
          "internalType": "uint256",
          "name": "tokenId",
          "type": "uint256"
        }
      ],
      "name": "Approval",
      "type": "event"
    },
    {
      "anonymous": false,
      "inputs": [
        {
          "indexed": true,
          "internalType": "address",
          "name": "owner",
          "type": "address"
        },
        {
          "indexed": true,
          "internalType": "address",
          "name": "operator",
          "type": "address"
        },
        {
          "indexed": false,
          "internalType": "bool",
          "name": "approved",
          "type": "bool"
        }
      ],
      "name": "ApprovalForAll",
      "type": "event"
    },
    {
      "anonymous": false,
      "inputs": [
        {
          "indexed": true,
          "internalType": "uint256",
          "name": "_giveawayStopTime",
          "type": "uint256"
        }
      ],
      "name": "GiveawayPaused",
      "type": "event"
    },
    {
      "anonymous": false,
      "inputs": [
        {
          "indexed": true,
          "internalType": "uint256",
          "name": "_giveawayStartTime",
          "type": "uint256"
        }
      ],
      "name": "GiveawayStart",
      "type": "event"
    },
    {
      "anonymous": false,
      "inputs": [
        {
          "indexed": true,
          "internalType": "address",
          "name": "previousOwner",
          "type": "address"
        },
        {
          "indexed": true,
          "internalType": "address",
          "name": "newOwner",
          "type": "address"
        }
      ],
      "name": "OwnershipTransferred",
      "type": "event"
    },
    {
      "anonymous": false,
      "inputs": [
        {
          "indexed": true,
          "internalType": "uint256",
          "name": "_presaleStopTime",
          "type": "uint256"
        }
      ],
      "name": "PresalePaused",
      "type": "event"
    },
    {
      "anonymous": false,
      "inputs": [
        {
          "indexed": true,
          "internalType": "uint256",
          "name": "_presaleStartTime",
          "type": "uint256"
        }
      ],
      "name": "PresaleStart",
      "type": "event"
    },
    {
      "anonymous": false,
      "inputs": [
        {
          "indexed": true,
          "internalType": "address",
          "name": "_address",
          "type": "address"
        }
      ],
      "name": "RemovedFromWhitelist",
      "type": "event"
    },
    {
      "anonymous": false,
      "inputs": [
        {
          "indexed": true,
          "internalType": "uint256",
          "name": "_saleStopTime",
          "type": "uint256"
        }
      ],
      "name": "SalePaused",
      "type": "event"
    },
    {
      "anonymous": false,
      "inputs": [
        {
          "indexed": true,
          "internalType": "uint256",
          "name": "_saleStartTime",
          "type": "uint256"
        }
      ],
      "name": "SaleStart",
      "type": "event"
    },
    {
      "anonymous": false,
      "inputs": [
        {
          "indexed": true,
          "internalType": "address",
          "name": "from",
          "type": "address"
        },
        {
          "indexed": true,
          "internalType": "address",
          "name": "to",
          "type": "address"
        },
        {
          "indexed": true,
          "internalType": "uint256",
          "name": "tokenId",
          "type": "uint256"
        }
      ],
      "name": "Transfer",
      "type": "event"
    },
    {
      "inputs": [
        {
          "internalType": "address[]",
          "name": "addresses",
          "type": "address[]"
        }
      ],
      "name": "addToWhitelist",
      "outputs": [],
      "stateMutability": "nonpayable",
      "type": "function"
    },
    {
      "inputs": [
        {
          "internalType": "address",
          "name": "to",
          "type": "address"
        },
        {
          "internalType": "uint256",
          "name": "tokenId",
          "type": "uint256"
        }
      ],
      "name": "approve",
      "outputs": [],
      "stateMutability": "nonpayable",
      "type": "function"
    },
    {
      "inputs": [
        {
          "internalType": "address",
          "name": "owner",
          "type": "address"
        }
      ],
      "name": "balanceOf",
      "outputs": [
        {
          "internalType": "uint256",
          "name": "",
          "type": "uint256"
        }
      ],
      "stateMutability": "view",
      "type": "function"
    },
    {
      "inputs": [
        {
          "internalType": "uint256",
          "name": "tokenId",
          "type": "uint256"
        }
      ],
      "name": "getApproved",
      "outputs": [
        {
          "internalType": "address",
          "name": "",
          "type": "address"
        }
      ],
      "stateMutability": "view",
      "type": "function"
    },
    {
      "inputs": [],
      "name": "giveawayActive",
      "outputs": [
        {
          "internalType": "bool",
          "name": "",
          "type": "bool"
        }
      ],
      "stateMutability": "view",
      "type": "function"
    },
    {
      "inputs": [],
      "name": "giveawayPriceToMint",
      "outputs": [
        {
          "internalType": "uint256",
          "name": "",
          "type": "uint256"
        }
      ],
      "stateMutability": "view",
      "type": "function"
    },
    {
      "inputs": [
        {
          "internalType": "address",
          "name": "owner",
          "type": "address"
        },
        {
          "internalType": "address",
          "name": "operator",
          "type": "address"
        }
      ],
      "name": "isApprovedForAll",
      "outputs": [
        {
          "internalType": "bool",
          "name": "",
          "type": "bool"
        }
      ],
      "stateMutability": "view",
      "type": "function"
    },
    {
      "inputs": [
        {
          "internalType": "uint256",
          "name": "tokensAmount",
          "type": "uint256"
        }
      ],
      "name": "mintTokens",
      "outputs": [
        {
          "internalType": "uint256[]",
          "name": "",
          "type": "uint256[]"
        }
      ],
      "stateMutability": "payable",
      "type": "function"
    },
    {
      "inputs": [],
      "name": "name",
      "outputs": [
        {
          "internalType": "string",
          "name": "",
          "type": "string"
        }
      ],
      "stateMutability": "view",
      "type": "function"
    },
    {
      "inputs": [],
      "name": "owner",
      "outputs": [
        {
          "internalType": "address",
          "name": "",
          "type": "address"
        }
      ],
      "stateMutability": "view",
      "type": "function"
    },
    {
      "inputs": [
        {
          "internalType": "uint256",
          "name": "tokenId",
          "type": "uint256"
        }
      ],
      "name": "ownerOf",
      "outputs": [
        {
          "internalType": "address",
          "name": "",
          "type": "address"
        }
      ],
      "stateMutability": "view",
      "type": "function"
    },
    {
      "inputs": [],
      "name": "pauseGiveaway",
      "outputs": [],
      "stateMutability": "nonpayable",
      "type": "function"
    },
    {
      "inputs": [],
      "name": "pausePresale",
      "outputs": [],
      "stateMutability": "nonpayable",
      "type": "function"
    },
    {
      "inputs": [],
      "name": "pausePublicSale",
      "outputs": [],
      "stateMutability": "nonpayable",
      "type": "function"
    },
    {
      "inputs": [],
      "name": "presaleActive",
      "outputs": [
        {
          "internalType": "bool",
          "name": "",
          "type": "bool"
        }
      ],
      "stateMutability": "view",
      "type": "function"
    },
    {
      "inputs": [],
      "name": "presalePriceToMint",
      "outputs": [
        {
          "internalType": "uint256",
          "name": "",
          "type": "uint256"
        }
      ],
      "stateMutability": "view",
      "type": "function"
    },
    {
      "inputs": [],
      "name": "price",
      "outputs": [
        {
          "internalType": "uint256",
          "name": "",
          "type": "uint256"
        }
      ],
      "stateMutability": "view",
      "type": "function"
    },
    {
      "inputs": [],
      "name": "priceToMint",
      "outputs": [
        {
          "internalType": "uint256",
          "name": "",
          "type": "uint256"
        }
      ],
      "stateMutability": "view",
      "type": "function"
    },
    {
      "inputs": [
        {
          "internalType": "address",
          "name": "",
          "type": "address"
        }
      ],
      "name": "purchasedAmount",
      "outputs": [
        {
          "internalType": "uint256",
          "name": "",
          "type": "uint256"
        }
      ],
      "stateMutability": "view",
      "type": "function"
    },
    {
      "inputs": [
        {
          "internalType": "address[]",
          "name": "addresses",
          "type": "address[]"
        }
      ],
      "name": "removeFromWhitelist",
      "outputs": [],
      "stateMutability": "nonpayable",
      "type": "function"
    },
    {
      "inputs": [],
      "name": "renounceOwnership",
      "outputs": [],
      "stateMutability": "nonpayable",
      "type": "function"
    },
    {
      "inputs": [
        {
          "internalType": "uint256",
          "name": "_tokenId",
          "type": "uint256"
        },
        {
          "internalType": "uint256",
          "name": "_salePrice",
          "type": "uint256"
        }
      ],
      "name": "royaltyInfo",
      "outputs": [
        {
          "internalType": "address",
          "name": "receiver",
          "type": "address"
        },
        {
          "internalType": "uint256",
          "name": "royaltyAmount",
          "type": "uint256"
        }
      ],
      "stateMutability": "view",
      "type": "function"
    },
    {
      "inputs": [
        {
          "internalType": "address",
          "name": "from",
          "type": "address"
        },
        {
          "internalType": "address",
          "name": "to",
          "type": "address"
        },
        {
          "internalType": "uint256",
          "name": "tokenId",
          "type": "uint256"
        }
      ],
      "name": "safeTransferFrom",
      "outputs": [],
      "stateMutability": "nonpayable",
      "type": "function"
    },
    {
      "inputs": [
        {
          "internalType": "address",
          "name": "from",
          "type": "address"
        },
        {
          "internalType": "address",
          "name": "to",
          "type": "address"
        },
        {
          "internalType": "uint256",
          "name": "tokenId",
          "type": "uint256"
        },
        {
          "internalType": "bytes",
          "name": "_data",
          "type": "bytes"
        }
      ],
      "name": "safeTransferFrom",
      "outputs": [],
      "stateMutability": "nonpayable",
      "type": "function"
    },
    {
      "inputs": [],
      "name": "saleActive",
      "outputs": [
        {
          "internalType": "bool",
          "name": "",
          "type": "bool"
        }
      ],
      "stateMutability": "view",
      "type": "function"
    },
    {
      "inputs": [
        {
          "internalType": "address",
          "name": "operator",
          "type": "address"
        },
        {
          "internalType": "bool",
          "name": "approved",
          "type": "bool"
        }
      ],
      "name": "setApprovalForAll",
      "outputs": [],
      "stateMutability": "nonpayable",
      "type": "function"
    },
    {
      "inputs": [
        {
          "internalType": "string",
          "name": "baseURI_",
          "type": "string"
        }
      ],
      "name": "setBaseURI",
      "outputs": [],
      "stateMutability": "nonpayable",
      "type": "function"
    },
    {
      "inputs": [],
      "name": "startGiveaway",
      "outputs": [],
      "stateMutability": "nonpayable",
      "type": "function"
    },
    {
      "inputs": [],
      "name": "startPresale",
      "outputs": [],
      "stateMutability": "nonpayable",
      "type": "function"
    },
    {
      "inputs": [],
      "name": "startPublicSale",
      "outputs": [],
      "stateMutability": "nonpayable",
      "type": "function"
    },
    {
      "inputs": [
        {
          "internalType": "bytes4",
          "name": "interfaceId",
          "type": "bytes4"
        }
      ],
      "name": "supportsInterface",
      "outputs": [
        {
          "internalType": "bool",
          "name": "",
          "type": "bool"
        }
      ],
      "stateMutability": "view",
      "type": "function"
    },
    {
      "inputs": [],
      "name": "symbol",
      "outputs": [
        {
          "internalType": "string",
          "name": "",
          "type": "string"
        }
      ],
      "stateMutability": "view",
      "type": "function"
    },
    {
      "inputs": [
        {
          "internalType": "uint256",
          "name": "tokenId",
          "type": "uint256"
        }
      ],
      "name": "tokenURI",
      "outputs": [
        {
          "internalType": "string",
          "name": "",
          "type": "string"
        }
      ],
      "stateMutability": "view",
      "type": "function"
    },
    {
      "inputs": [],
      "name": "totalSupply",
      "outputs": [
        {
          "internalType": "uint256",
          "name": "",
          "type": "uint256"
        }
      ],
      "stateMutability": "view",
      "type": "function"
    },
    {
      "inputs": [
        {
          "internalType": "address",
          "name": "from",
          "type": "address"
        },
        {
          "internalType": "address",
          "name": "to",
          "type": "address"
        },
        {
          "internalType": "uint256",
          "name": "tokenId",
          "type": "uint256"
        }
      ],
      "name": "transferFrom",
      "outputs": [],
      "stateMutability": "nonpayable",
      "type": "function"
    },
    {
      "inputs": [
        {
          "internalType": "address",
          "name": "newOwner",
          "type": "address"
        }
      ],
      "name": "transferOwnership",
      "outputs": [],
      "stateMutability": "nonpayable",
      "type": "function"
    },
    {
      "inputs": [],
      "name": "withdraw",
      "outputs": [],
      "stateMutability": "nonpayable",
      "type": "function"
    }
  ],
  "bytecode": "0x60806040526000600f556658d15e1762800060105566b1a2bc2ec500006011553480156200002c57600080fd5b50604051620060b9380380620060b983398181016040528101906200005291906200036d565b858581600090805190602001906200006c92919062000206565b5080600190805190602001906200008592919062000206565b505050620000a86200009c6200013860201b60201c565b6200014060201b60201c565b600160078190555083600b9080519060200190620000c892919062000206565b5082600d60006101000a81548160ff021916908360ff16021790555081600d60016101000a81548173ffffffffffffffffffffffffffffffffffffffff021916908373ffffffffffffffffffffffffffffffffffffffff16021790555080600c8190555050505050505062000657565b600033905090565b6000600660009054906101000a900473ffffffffffffffffffffffffffffffffffffffff16905081600660006101000a81548173ffffffffffffffffffffffffffffffffffffffff021916908373ffffffffffffffffffffffffffffffffffffffff1602179055508173ffffffffffffffffffffffffffffffffffffffff168173ffffffffffffffffffffffffffffffffffffffff167f8be0079c531659141344cd1fd0a4f28419497f9722a3daafe3b4186f6b6457e060405160405180910390a35050565b82805462000214906200052e565b90600052602060002090601f01602090048101928262000238576000855562000284565b82601f106200025357805160ff191683800117855562000284565b8280016001018555821562000284579182015b828111156200028357825182559160200191906001019062000266565b5b50905062000293919062000297565b5090565b5b80821115620002b257600081600090555060010162000298565b5090565b6000620002cd620002c78462000477565b6200044e565b905082815260208101848484011115620002e657600080fd5b620002f3848285620004f8565b509392505050565b6000815190506200030c8162000609565b92915050565b600082601f8301126200032457600080fd5b815162000336848260208601620002b6565b91505092915050565b600081519050620003508162000623565b92915050565b60008151905062000367816200063d565b92915050565b60008060008060008060c087890312156200038757600080fd5b600087015167ffffffffffffffff811115620003a257600080fd5b620003b089828a0162000312565b965050602087015167ffffffffffffffff811115620003ce57600080fd5b620003dc89828a0162000312565b955050604087015167ffffffffffffffff811115620003fa57600080fd5b6200040889828a0162000312565b94505060606200041b89828a0162000356565b93505060806200042e89828a01620002fb565b92505060a06200044189828a016200033f565b9150509295509295509295565b60006200045a6200046d565b905062000468828262000564565b919050565b6000604051905090565b600067ffffffffffffffff821115620004955762000494620005c9565b5b620004a082620005f8565b9050602081019050919050565b6000620004ba82620004c1565b9050919050565b600073ffffffffffffffffffffffffffffffffffffffff82169050919050565b6000819050919050565b600060ff82169050919050565b60005b8381101562000518578082015181840152602081019050620004fb565b8381111562000528576000848401525b50505050565b600060028204905060018216806200054757607f821691505b602082108114156200055e576200055d6200059a565b5b50919050565b6200056f82620005f8565b810181811067ffffffffffffffff82111715620005915762000590620005c9565b5b80604052505050565b7f4e487b7100000000000000000000000000000000000000000000000000000000600052602260045260246000fd5b7f4e487b7100000000000000000000000000000000000000000000000000000000600052604160045260246000fd5b6000601f19601f8301169050919050565b6200061481620004ad565b81146200062057600080fd5b50565b6200062e81620004e1565b81146200063a57600080fd5b50565b6200064881620004eb565b81146200065457600080fd5b50565b615a5280620006676000396000f3fe60806040526004361061021a5760003560e01c806353135ca0116101235780638da5cb5b116100ab578063b88d4fde1161006f578063b88d4fde14610743578063c87b56dd1461076c578063dc9403a6146107a9578063e985e9c5146107d4578063f2fde38b146108115761021a565b80638da5cb5b1461066957806395d89b411461069457806397304ced146106bf578063a035b1fe146106ef578063a22cb4651461071a5761021a565b806368428a1b116100f257806368428a1b146105aa57806370a08231146105d5578063715018a6146106125780637c0f8aa0146106295780637f649783146106405761021a565b806353135ca0146104f0578063548db1741461051b57806355f804b3146105445780636352211e1461056d5761021a565b806318160ddd116101a65780633ccfd60b116101755780633ccfd60b1461041d57806342842e0e1461043457806344c4dcc11461045d5780634616d4b21461049a5780634dc1dbec146104c55761021a565b806318160ddd1461036057806323b872dd1461038b5780632a55205a146103b45780632b3f4d92146103f25761021a565b8063070f5c09116101ed578063070f5c09146102b5578063081812fc146102cc578063095ea7b3146103095780630c1c972a146103325780630c41f497146103495761021a565b806301ffc9a71461021f57806304c98b2b1461025c57806305e4e88a1461027357806306fdde031461028a575b600080fd5b34801561022b57600080fd5b5061024660048036038101906102419190613ec1565b61083a565b60405161025391906146f3565b60405180910390f35b34801561026857600080fd5b5061027161091c565b005b34801561027f57600080fd5b50610288610ad2565b005b34801561029657600080fd5b5061029f610c88565b6040516102ac919061470e565b60405180910390f35b3480156102c157600080fd5b506102ca610d1a565b005b3480156102d857600080fd5b506102f360048036038101906102ee9190613f54565b610ecf565b6040516103009190614641565b60405180910390f35b34801561031557600080fd5b50610330600480360381019061032b9190613e44565b610f54565b005b34801561033e57600080fd5b5061034761106c565b005b34801561035557600080fd5b5061035e611222565b005b34801561036c57600080fd5b506103756113d7565b6040516103829190614bd0565b60405180910390f35b34801561039757600080fd5b506103b260048036038101906103ad9190613d3e565b6113e8565b005b3480156103c057600080fd5b506103db60048036038101906103d69190613f7d565b611448565b6040516103e99291906146a8565b60405180910390f35b3480156103fe57600080fd5b50610407611538565b6040516104149190614bd0565b60405180910390f35b34801561042957600080fd5b5061043261153e565b005b34801561044057600080fd5b5061045b60048036038101906104569190613d3e565b611767565b005b34801561046957600080fd5b50610484600480360381019061047f9190613cd9565b611787565b6040516104919190614bd0565b60405180910390f35b3480156104a657600080fd5b506104af61179f565b6040516104bc91906146f3565b60405180910390f35b3480156104d157600080fd5b506104da6117b2565b6040516104e79190614bd0565b60405180910390f35b3480156104fc57600080fd5b506105056117b8565b60405161051291906146f3565b60405180910390f35b34801561052757600080fd5b50610542600480360381019061053d9190613e80565b6117cb565b005b34801561055057600080fd5b5061056b60048036038101906105669190613f13565b6119d2565b005b34801561057957600080fd5b50610594600480360381019061058f9190613f54565b611a68565b6040516105a19190614641565b60405180910390f35b3480156105b657600080fd5b506105bf611b1a565b6040516105cc91906146f3565b60405180910390f35b3480156105e157600080fd5b506105fc60048036038101906105f79190613cd9565b611b2d565b6040516106099190614bd0565b60405180910390f35b34801561061e57600080fd5b50610627611be5565b005b34801561063557600080fd5b5061063e611c6d565b005b34801561064c57600080fd5b5061066760048036038101906106629190613e80565b611e22565b005b34801561067557600080fd5b5061067e612029565b60405161068b9190614641565b60405180910390f35b3480156106a057600080fd5b506106a9612053565b6040516106b6919061470e565b60405180910390f35b6106d960048036038101906106d49190613f54565b6120e5565b6040516106e691906146d1565b60405180910390f35b3480156106fb57600080fd5b50610704612330565b6040516107119190614bd0565b60405180910390f35b34801561072657600080fd5b50610741600480360381019061073c9190613e08565b6123f6565b005b34801561074f57600080fd5b5061076a60048036038101906107659190613d8d565b61240c565b005b34801561077857600080fd5b50610793600480360381019061078e9190613f54565b61246e565b6040516107a0919061470e565b60405180910390f35b3480156107b557600080fd5b506107be612515565b6040516107cb9190614bd0565b60405180910390f35b3480156107e057600080fd5b506107fb60048036038101906107f69190613d02565b61251b565b60405161080891906146f3565b60405180910390f35b34801561081d57600080fd5b5061083860048036038101906108339190613cd9565b6125af565b005b60007f80ac58cd000000000000000000000000000000000000000000000000000000007bffffffffffffffffffffffffffffffffffffffffffffffffffffffff1916827bffffffffffffffffffffffffffffffffffffffffffffffffffffffff1916148061090557507f5b5e139f000000000000000000000000000000000000000000000000000000007bffffffffffffffffffffffffffffffffffffffffffffffffffffffff1916827bffffffffffffffffffffffffffffffffffffffffffffffffffffffff1916145b806109155750610914826126a7565b5b9050919050565b610924612711565b73ffffffffffffffffffffffffffffffffffffffff16610942612029565b73ffffffffffffffffffffffffffffffffffffffff1614610998576040517f08c379a000000000000000000000000000000000000000000000000000000000815260040161098f906149f0565b60405180910390fd5b601260009054906101000a900460ff16156109e8576040517f08c379a00000000000000000000000000000000000000000000000000000000081526004016109df90614b90565b60405180910390fd5b601260019054906101000a900460ff1615610a38576040517f08c379a0000000000000000000000000000000000000000000000000000000008152600401610a2f906149b0565b60405180910390fd5b601260029054906101000a900460ff1615610a88576040517f08c379a0000000000000000000000000000000000000000000000000000000008152600401610a7f90614870565b60405180910390fd5b6001601260016101000a81548160ff021916908315150217905550427f0ab3861e918916d082a16babf84acd725febc223f0833c5c03d8b14ec900174360405160405180910390a2565b610ada612711565b73ffffffffffffffffffffffffffffffffffffffff16610af8612029565b73ffffffffffffffffffffffffffffffffffffffff1614610b4e576040517f08c379a0000000000000000000000000000000000000000000000000000000008152600401610b45906149f0565b60405180910390fd5b601260009054906101000a900460ff1615610b9e576040517f08c379a0000000000000000000000000000000000000000000000000000000008152600401610b9590614b90565b60405180910390fd5b601260019054906101000a900460ff1615610bee576040517f08c379a0000000000000000000000000000000000000000000000000000000008152600401610be5906149b0565b60405180910390fd5b601260029054906101000a900460ff1615610c3e576040517f08c379a0000000000000000000000000000000000000000000000000000000008152600401610c3590614870565b60405180910390fd5b6001601260006101000a81548160ff021916908315150217905550427fea160f4a1725183ff307b55e355bb04139d56298efc5853e17f99ade82e2f38960405160405180910390a2565b606060008054610c9790614ee5565b80601f0160208091040260200160405190810160405280929190818152602001828054610cc390614ee5565b8015610d105780601f10610ce557610100808354040283529160200191610d10565b820191906000526020600020905b815481529060010190602001808311610cf357829003601f168201915b5050505050905090565b610d22612711565b73ffffffffffffffffffffffffffffffffffffffff16610d40612029565b73ffffffffffffffffffffffffffffffffffffffff1614610d96576040517f08c379a0000000000000000000000000000000000000000000000000000000008152600401610d8d906149f0565b60405180910390fd5b601260009054906101000a900460ff1615610de6576040517f08c379a0000000000000000000000000000000000000000000000000000000008152600401610ddd90614b90565b60405180910390fd5b601260029054906101000a900460ff1615610e36576040517f08c379a0000000000000000000000000000000000000000000000000000000008152600401610e2d90614870565b60405180910390fd5b601260019054906101000a900460ff16610e85576040517f08c379a0000000000000000000000000000000000000000000000000000000008152600401610e7c90614af0565b60405180910390fd5b6000601260016101000a81548160ff021916908315150217905550427fbbda50ff3083b4adfffcd3c2e8042a8b354ca16013534ab9367661c5a4cb7b2360405160405180910390a2565b6000610eda82612719565b610f19576040517f08c379a0000000000000000000000000000000000000000000000000000000008152600401610f10906149d0565b60405180910390fd5b6004600083815260200190815260200160002060009054906101000a900473ffffffffffffffffffffffffffffffffffffffff169050919050565b6000610f5f82611a68565b90508073ffffffffffffffffffffffffffffffffffffffff168373ffffffffffffffffffffffffffffffffffffffff161415610fd0576040517f08c379a0000000000000000000000000000000000000000000000000000000008152600401610fc790614a70565b60405180910390fd5b8073ffffffffffffffffffffffffffffffffffffffff16610fef612711565b73ffffffffffffffffffffffffffffffffffffffff16148061101e575061101d81611018612711565b61251b565b5b61105d576040517f08c379a0000000000000000000000000000000000000000000000000000000008152600401611054906148f0565b60405180910390fd5b6110678383612785565b505050565b611074612711565b73ffffffffffffffffffffffffffffffffffffffff16611092612029565b73ffffffffffffffffffffffffffffffffffffffff16146110e8576040517f08c379a00000000000000000000000000000000000000000000000000000000081526004016110df906149f0565b60405180910390fd5b601260009054906101000a900460ff1615611138576040517f08c379a000000000000000000000000000000000000000000000000000000000815260040161112f90614b90565b60405180910390fd5b601260019054906101000a900460ff1615611188576040517f08c379a000000000000000000000000000000000000000000000000000000000815260040161117f906149b0565b60405180910390fd5b601260029054906101000a900460ff16156111d8576040517f08c379a00000000000000000000000000000000000000000000000000000000081526004016111cf90614870565b60405180910390fd5b6001601260026101000a81548160ff021916908315150217905550427feeae71454a2a58ac8d7c3a2ac3db1f29f81cbd0024aae4292a55139dd9d3560a60405160405180910390a2565b61122a612711565b73ffffffffffffffffffffffffffffffffffffffff16611248612029565b73ffffffffffffffffffffffffffffffffffffffff161461129e576040517f08c379a0000000000000000000000000000000000000000000000000000000008152600401611295906149f0565b60405180910390fd5b601260009054906101000a900460ff16156112ee576040517f08c379a00000000000000000000000000000000000000000000000000000000081526004016112e590614b90565b60405180910390fd5b601260019054906101000a900460ff161561133e576040517f08c379a0000000000000000000000000000000000000000000000000000000008152600401611335906149b0565b60405180910390fd5b601260029054906101000a900460ff1661138d576040517f08c379a000000000000000000000000000000000000000000000000000000000815260040161138490614850565b60405180910390fd5b6000601260026101000a81548160ff021916908315150217905550427f4616a0782e5635981b28be1cd36934a60655b462c370d8bd8092c969abc990d060405160405180910390a2565b60006113e3600861283e565b905090565b6113f96113f3612711565b8261284c565b611438576040517f08c379a000000000000000000000000000000000000000000000000000000000815260040161142f90614ad0565b60405180910390fd5b61144383838361292a565b505050565b60008061145484612719565b611493576040517f08c379a000000000000000000000000000000000000000000000000000000000815260040161148a90614a90565b60405180910390fd5b600073ffffffffffffffffffffffffffffffffffffffff16600d60019054906101000a900473ffffffffffffffffffffffffffffffffffffffff1673ffffffffffffffffffffffffffffffffffffffff1614156114ef57600080fd5b600d60019054906101000a900473ffffffffffffffffffffffffffffffffffffffff166127106103e8856115239190614da1565b61152d9190614d70565b915091509250929050565b600f5481565b611546612711565b73ffffffffffffffffffffffffffffffffffffffff16611564612029565b73ffffffffffffffffffffffffffffffffffffffff16146115ba576040517f08c379a00000000000000000000000000000000000000000000000000000000081526004016115b1906149f0565b60405180910390fd5b60026007541415611600576040517f08c379a00000000000000000000000000000000000000000000000000000000081526004016115f790614b50565b60405180910390fd5b60026007819055506000471161164b576040517f08c379a000000000000000000000000000000000000000000000000000000000815260040161164290614830565b60405180910390fd5b6706f05b59d3b20000471015611696576040517f08c379a000000000000000000000000000000000000000000000000000000000815260040161168d906148d0565b60405180910390fd5b600073ffffffffffffffffffffffffffffffffffffffff16600d60019054906101000a900473ffffffffffffffffffffffffffffffffffffffff1673ffffffffffffffffffffffffffffffffffffffff1614156116f257600080fd5b600d60019054906101000a900473ffffffffffffffffffffffffffffffffffffffff1673ffffffffffffffffffffffffffffffffffffffff166108fc600c549081150290604051600060405180830381858888f1935050505015801561175c573d6000803e3d6000fd5b506001600781905550565b6117828383836040518060200160405280600081525061240c565b505050565b600e6020528060005260406000206000915090505481565b601260009054906101000a900460ff1681565b60115481565b601260019054906101000a900460ff1681565b6117d3612711565b73ffffffffffffffffffffffffffffffffffffffff166117f1612029565b73ffffffffffffffffffffffffffffffffffffffff1614611847576040517f08c379a000000000000000000000000000000000000000000000000000000000815260040161183e906149f0565b60405180910390fd5b600081511161188b576040517f08c379a000000000000000000000000000000000000000000000000000000000815260040161188290614970565b60405180910390fd5b6107d0815111156118d1576040517f08c379a00000000000000000000000000000000000000000000000000000000081526004016118c890614910565b60405180910390fd5b60005b81518110156119ce57611931828281518110611919577f4e487b7100000000000000000000000000000000000000000000000000000000600052603260045260246000fd5b60200260200101516009612b8690919063ffffffff16565b156119ba5781818151811061196f577f4e487b7100000000000000000000000000000000000000000000000000000000600052603260045260246000fd5b602002602001015173ffffffffffffffffffffffffffffffffffffffff167fcdd2e9b91a56913d370075169cefa1602ba36be5301664f752192bb1709df75760405160405180910390a25b6001816119c79190614d1a565b90506118d4565b5050565b6119da612711565b73ffffffffffffffffffffffffffffffffffffffff166119f8612029565b73ffffffffffffffffffffffffffffffffffffffff1614611a4e576040517f08c379a0000000000000000000000000000000000000000000000000000000008152600401611a45906149f0565b60405180910390fd5b80600b9080519060200190611a64929190613a67565b5050565b6000806002600084815260200190815260200160002060009054906101000a900473ffffffffffffffffffffffffffffffffffffffff169050600073ffffffffffffffffffffffffffffffffffffffff168173ffffffffffffffffffffffffffffffffffffffff161415611b11576040517f08c379a0000000000000000000000000000000000000000000000000000000008152600401611b0890614950565b60405180910390fd5b80915050919050565b601260029054906101000a900460ff1681565b60008073ffffffffffffffffffffffffffffffffffffffff168273ffffffffffffffffffffffffffffffffffffffff161415611b9e576040517f08c379a0000000000000000000000000000000000000000000000000000000008152600401611b9590614930565b60405180910390fd5b600360008373ffffffffffffffffffffffffffffffffffffffff1673ffffffffffffffffffffffffffffffffffffffff168152602001908152602001600020549050919050565b611bed612711565b73ffffffffffffffffffffffffffffffffffffffff16611c0b612029565b73ffffffffffffffffffffffffffffffffffffffff1614611c61576040517f08c379a0000000000000000000000000000000000000000000000000000000008152600401611c58906149f0565b60405180910390fd5b611c6b6000612bb6565b565b611c75612711565b73ffffffffffffffffffffffffffffffffffffffff16611c93612029565b73ffffffffffffffffffffffffffffffffffffffff1614611ce9576040517f08c379a0000000000000000000000000000000000000000000000000000000008152600401611ce0906149f0565b60405180910390fd5b601260019054906101000a900460ff1615611d39576040517f08c379a0000000000000000000000000000000000000000000000000000000008152600401611d30906149b0565b60405180910390fd5b601260029054906101000a900460ff1615611d89576040517f08c379a0000000000000000000000000000000000000000000000000000000008152600401611d8090614870565b60405180910390fd5b601260009054906101000a900460ff16611dd8576040517f08c379a0000000000000000000000000000000000000000000000000000000008152600401611dcf90614ab0565b60405180910390fd5b6000601260006101000a81548160ff021916908315150217905550427f71fbf9de7004f7d16da327d0c26b8f8b29e6efeaa59d67d1b76d6cc71fe47aae60405160405180910390a2565b611e2a612711565b73ffffffffffffffffffffffffffffffffffffffff16611e48612029565b73ffffffffffffffffffffffffffffffffffffffff1614611e9e576040517f08c379a0000000000000000000000000000000000000000000000000000000008152600401611e95906149f0565b60405180910390fd5b6000815111611ee2576040517f08c379a0000000000000000000000000000000000000000000000000000000008152600401611ed990614770565b60405180910390fd5b6107d081511115611f28576040517f08c379a0000000000000000000000000000000000000000000000000000000008152600401611f1f90614910565b60405180910390fd5b60005b815181101561202557611f88828281518110611f70577f4e487b7100000000000000000000000000000000000000000000000000000000600052603260045260246000fd5b60200260200101516009612c7c90919063ffffffff16565b1561201157818181518110611fc6577f4e487b7100000000000000000000000000000000000000000000000000000000600052603260045260246000fd5b602002602001015173ffffffffffffffffffffffffffffffffffffffff167fa850ae9193f515cbae8d35e8925bd2be26627fc91bce650b8652ed254e9cab0360405160405180910390a25b60018161201e9190614d1a565b9050611f2b565b5050565b6000600660009054906101000a900473ffffffffffffffffffffffffffffffffffffffff16905090565b60606001805461206290614ee5565b80601f016020809104026020016040519081016040528092919081815260200182805461208e90614ee5565b80156120db5780601f106120b0576101008083540402835291602001916120db565b820191906000526020600020905b8154815290600101906020018083116120be57829003601f168201915b5050505050905090565b6060601260009054906101000a900460ff168061210e5750601260019054906101000a900460ff165b806121255750601260029054906101000a900460ff165b612164576040517f08c379a000000000000000000000000000000000000000000000000000000000815260040161215b90614730565b60405180910390fd5b600260075414156121aa576040517f08c379a00000000000000000000000000000000000000000000000000000000081526004016121a190614b50565b60405180910390fd5b60026007819055506121bb82612cac565b60008267ffffffffffffffff8111156121fd577f4e487b7100000000000000000000000000000000000000000000000000000000600052604160045260246000fd5b60405190808252806020026020018201604052801561222b5781602001602082028036833780820191505090505b50905060005b8381101561229b5761224233612fc0565b82828151811061227b577f4e487b7100000000000000000000000000000000000000000000000000000000600052603260045260246000fd5b6020026020010181815250506001816122949190614d1a565b9050612231565b50601260019054906101000a900460ff16806122c35750601260029054906101000a900460ff165b1561231f5782600e60003373ffffffffffffffffffffffffffffffffffffffff1673ffffffffffffffffffffffffffffffffffffffff16815260200190815260200160002060008282546123179190614d1a565b925050819055505b809150506001600781905550919050565b6000601260009054906101000a900460ff16806123595750601260019054906101000a900460ff165b806123705750601260029054906101000a900460ff165b6123af576040517f08c379a00000000000000000000000000000000000000000000000000000000081526004016123a690614730565b60405180910390fd5b601260009054906101000a900460ff16156123ce57600f5490506123f3565b601260019054906101000a900460ff16156123ed5760105490506123f3565b60115490505b90565b612408612401612711565b8383612fed565b5050565b61241d612417612711565b8361284c565b61245c576040517f08c379a000000000000000000000000000000000000000000000000000000000815260040161245390614ad0565b60405180910390fd5b6124688484848461315a565b50505050565b606061247982612719565b6124b8576040517f08c379a00000000000000000000000000000000000000000000000000000000081526004016124af90614a30565b60405180910390fd5b60006124c26131b6565b905060008151116124e2576040518060200160405280600081525061250d565b806124ec84613248565b6040516020016124fd92919061461d565b6040516020818303038152906040525b915050919050565b60105481565b6000600560008473ffffffffffffffffffffffffffffffffffffffff1673ffffffffffffffffffffffffffffffffffffffff16815260200190815260200160002060008373ffffffffffffffffffffffffffffffffffffffff1673ffffffffffffffffffffffffffffffffffffffff16815260200190815260200160002060009054906101000a900460ff16905092915050565b6125b7612711565b73ffffffffffffffffffffffffffffffffffffffff166125d5612029565b73ffffffffffffffffffffffffffffffffffffffff161461262b576040517f08c379a0000000000000000000000000000000000000000000000000000000008152600401612622906149f0565b60405180910390fd5b600073ffffffffffffffffffffffffffffffffffffffff168173ffffffffffffffffffffffffffffffffffffffff16141561269b576040517f08c379a0000000000000000000000000000000000000000000000000000000008152600401612692906147b0565b60405180910390fd5b6126a481612bb6565b50565b60007f01ffc9a7000000000000000000000000000000000000000000000000000000007bffffffffffffffffffffffffffffffffffffffffffffffffffffffff1916827bffffffffffffffffffffffffffffffffffffffffffffffffffffffff1916149050919050565b600033905090565b60008073ffffffffffffffffffffffffffffffffffffffff166002600084815260200190815260200160002060009054906101000a900473ffffffffffffffffffffffffffffffffffffffff1673ffffffffffffffffffffffffffffffffffffffff1614159050919050565b816004600083815260200190815260200160002060006101000a81548173ffffffffffffffffffffffffffffffffffffffff021916908373ffffffffffffffffffffffffffffffffffffffff160217905550808273ffffffffffffffffffffffffffffffffffffffff166127f883611a68565b73ffffffffffffffffffffffffffffffffffffffff167f8c5be1e5ebec7d5bd14f71427d1e84f3dd0314c0f7b2291e5b200ac8c7c3b92560405160405180910390a45050565b600081600001549050919050565b600061285782612719565b612896576040517f08c379a000000000000000000000000000000000000000000000000000000000815260040161288d906148b0565b60405180910390fd5b60006128a183611a68565b90508073ffffffffffffffffffffffffffffffffffffffff168473ffffffffffffffffffffffffffffffffffffffff16148061291057508373ffffffffffffffffffffffffffffffffffffffff166128f884610ecf565b73ffffffffffffffffffffffffffffffffffffffff16145b806129215750612920818561251b565b5b91505092915050565b8273ffffffffffffffffffffffffffffffffffffffff1661294a82611a68565b73ffffffffffffffffffffffffffffffffffffffff16146129a0576040517f08c379a000000000000000000000000000000000000000000000000000000000815260040161299790614a10565b60405180910390fd5b600073ffffffffffffffffffffffffffffffffffffffff168273ffffffffffffffffffffffffffffffffffffffff161415612a10576040517f08c379a0000000000000000000000000000000000000000000000000000000008152600401612a07906147f0565b60405180910390fd5b612a1b8383836133f5565b612a26600082612785565b6001600360008573ffffffffffffffffffffffffffffffffffffffff1673ffffffffffffffffffffffffffffffffffffffff1681526020019081526020016000206000828254612a769190614dfb565b925050819055506001600360008473ffffffffffffffffffffffffffffffffffffffff1673ffffffffffffffffffffffffffffffffffffffff1681526020019081526020016000206000828254612acd9190614d1a565b92505081905550816002600083815260200190815260200160002060006101000a81548173ffffffffffffffffffffffffffffffffffffffff021916908373ffffffffffffffffffffffffffffffffffffffff160217905550808273ffffffffffffffffffffffffffffffffffffffff168473ffffffffffffffffffffffffffffffffffffffff167fddf252ad1be2c89b69c2b068fc378daa952ba7f163c4a11628f55a4df523b3ef60405160405180910390a4505050565b6000612bae836000018373ffffffffffffffffffffffffffffffffffffffff1660001b6133fa565b905092915050565b6000600660009054906101000a900473ffffffffffffffffffffffffffffffffffffffff16905081600660006101000a81548173ffffffffffffffffffffffffffffffffffffffff021916908373ffffffffffffffffffffffffffffffffffffffff1602179055508173ffffffffffffffffffffffffffffffffffffffff168173ffffffffffffffffffffffffffffffffffffffff167f8be0079c531659141344cd1fd0a4f28419497f9722a3daafe3b4186f6b6457e060405160405180910390a35050565b6000612ca4836000018373ffffffffffffffffffffffffffffffffffffffff1660001b613580565b905092915050565b600073ffffffffffffffffffffffffffffffffffffffff163373ffffffffffffffffffffffffffffffffffffffff161415612ce657600080fd5b612710612cf16113d7565b10612d31576040517f08c379a0000000000000000000000000000000000000000000000000000000008152600401612d2890614bb0565b60405180910390fd5b60008111612d74576040517f08c379a0000000000000000000000000000000000000000000000000000000008152600401612d6b90614a50565b60405180910390fd5b6004811115612db8576040517f08c379a0000000000000000000000000000000000000000000000000000000008152600401612daf90614890565b60405180910390fd5b601260009054906101000a900460ff1615612e1a57612dd6336135f0565b612e15576040517f08c379a0000000000000000000000000000000000000000000000000000000008152600401612e0c90614750565b60405180910390fd5b612fbd565b601260019054906101000a900460ff1615612f6b57612e38336135f0565b612e77576040517f08c379a0000000000000000000000000000000000000000000000000000000008152600401612e6e90614750565b60405180910390fd5b600d60009054906101000a900460ff1660ff16600e60003373ffffffffffffffffffffffffffffffffffffffff1673ffffffffffffffffffffffffffffffffffffffff1681526020019081526020016000205482612ed59190614d1a565b1115612f16576040517f08c379a0000000000000000000000000000000000000000000000000000000008152600401612f0d90614b70565b60405180910390fd5b3481601054612f259190614da1565b1115612f66576040517f08c379a0000000000000000000000000000000000000000000000000000000008152600401612f5d90614b30565b60405180910390fd5b612fbc565b3481601154612f7a9190614da1565b1115612fbb576040517f08c379a0000000000000000000000000000000000000000000000000000000008152600401612fb290614b10565b60405180910390fd5b5b5b50565b6000612fcc600861360d565b6000612fd8600861283e565b9050612fe48382613623565b80915050919050565b8173ffffffffffffffffffffffffffffffffffffffff168373ffffffffffffffffffffffffffffffffffffffff16141561305c576040517f08c379a000000000000000000000000000000000000000000000000000000000815260040161305390614810565b60405180910390fd5b80600560008573ffffffffffffffffffffffffffffffffffffffff1673ffffffffffffffffffffffffffffffffffffffff16815260200190815260200160002060008473ffffffffffffffffffffffffffffffffffffffff1673ffffffffffffffffffffffffffffffffffffffff16815260200190815260200160002060006101000a81548160ff0219169083151502179055508173ffffffffffffffffffffffffffffffffffffffff168373ffffffffffffffffffffffffffffffffffffffff167f17307eab39ab6107e8899845ad3d59bd9653f200f220920489ca2b5937696c318360405161314d91906146f3565b60405180910390a3505050565b61316584848461292a565b61317184848484613641565b6131b0576040517f08c379a00000000000000000000000000000000000000000000000000000000081526004016131a790614790565b60405180910390fd5b50505050565b6060600b80546131c590614ee5565b80601f01602080910402602001604051908101604052809291908181526020018280546131f190614ee5565b801561323e5780601f106132135761010080835404028352916020019161323e565b820191906000526020600020905b81548152906001019060200180831161322157829003601f168201915b5050505050905090565b60606000821415613290576040518060400160405280600181526020017f300000000000000000000000000000000000000000000000000000000000000081525090506133f0565b600082905060005b600082146132c25780806132ab90614f48565b915050600a826132bb9190614d70565b9150613298565b60008167ffffffffffffffff811115613304577f4e487b7100000000000000000000000000000000000000000000000000000000600052604160045260246000fd5b6040519080825280601f01601f1916602001820160405280156133365781602001600182028036833780820191505090505b5090505b600085146133e95760018261334f9190614dfb565b9150600a8561335e9190614f91565b603061336a9190614d1a565b60f81b8183815181106133a6577f4e487b7100000000000000000000000000000000000000000000000000000000600052603260045260246000fd5b60200101907effffffffffffffffffffffffffffffffffffffffffffffffffffffffffffff1916908160001a905350600a856133e29190614d70565b945061333a565b8093505050505b919050565b505050565b6000808360010160008481526020019081526020016000205490506000811461357457600060018261342c9190614dfb565b90506000600186600001805490506134449190614dfb565b90508181146134ff57600086600001828154811061348b577f4e487b7100000000000000000000000000000000000000000000000000000000600052603260045260246000fd5b90600052602060002001549050808760000184815481106134d5577f4e487b7100000000000000000000000000000000000000000000000000000000600052603260045260246000fd5b90600052602060002001819055508387600101600083815260200190815260200160002081905550505b85600001805480613539577f4e487b7100000000000000000000000000000000000000000000000000000000600052603160045260246000fd5b60019003818190600052602060002001600090559055856001016000868152602001908152602001600020600090556001935050505061357a565b60009150505b92915050565b600061358c83836137d8565b6135e55782600001829080600181540180825580915050600190039060005260206000200160009091909190915055826000018054905083600101600084815260200190815260200160002081905550600190506135ea565b600090505b92915050565b60006136068260096137fb90919063ffffffff16565b9050919050565b6001816000016000828254019250508190555050565b61363d82826040518060200160405280600081525061382b565b5050565b60006136628473ffffffffffffffffffffffffffffffffffffffff16613886565b156137cb578373ffffffffffffffffffffffffffffffffffffffff1663150b7a0261368b612711565b8786866040518563ffffffff1660e01b81526004016136ad949392919061465c565b602060405180830381600087803b1580156136c757600080fd5b505af19250505080156136f857506040513d601f19601f820116820180604052508101906136f59190613eea565b60015b61377b573d8060008114613728576040519150601f19603f3d011682016040523d82523d6000602084013e61372d565b606091505b50600081511415613773576040517f08c379a000000000000000000000000000000000000000000000000000000000815260040161376a90614790565b60405180910390fd5b805181602001fd5b63150b7a0260e01b7bffffffffffffffffffffffffffffffffffffffffffffffffffffffff1916817bffffffffffffffffffffffffffffffffffffffffffffffffffffffff1916149150506137d0565b600190505b949350505050565b600080836001016000848152602001908152602001600020541415905092915050565b6000613823836000018373ffffffffffffffffffffffffffffffffffffffff1660001b6137d8565b905092915050565b6138358383613899565b6138426000848484613641565b613881576040517f08c379a000000000000000000000000000000000000000000000000000000000815260040161387890614790565b60405180910390fd5b505050565b600080823b905060008111915050919050565b600073ffffffffffffffffffffffffffffffffffffffff168273ffffffffffffffffffffffffffffffffffffffff161415613909576040517f08c379a000000000000000000000000000000000000000000000000000000000815260040161390090614990565b60405180910390fd5b61391281612719565b15613952576040517f08c379a0000000000000000000000000000000000000000000000000000000008152600401613949906147d0565b60405180910390fd5b61395e600083836133f5565b6001600360008473ffffffffffffffffffffffffffffffffffffffff1673ffffffffffffffffffffffffffffffffffffffff16815260200190815260200160002060008282546139ae9190614d1a565b92505081905550816002600083815260200190815260200160002060006101000a81548173ffffffffffffffffffffffffffffffffffffffff021916908373ffffffffffffffffffffffffffffffffffffffff160217905550808273ffffffffffffffffffffffffffffffffffffffff16600073ffffffffffffffffffffffffffffffffffffffff167fddf252ad1be2c89b69c2b068fc378daa952ba7f163c4a11628f55a4df523b3ef60405160405180910390a45050565b828054613a7390614ee5565b90600052602060002090601f016020900481019282613a955760008555613adc565b82601f10613aae57805160ff1916838001178555613adc565b82800160010185558215613adc579182015b82811115613adb578251825591602001919060010190613ac0565b5b509050613ae99190613aed565b5090565b5b80821115613b06576000816000905550600101613aee565b5090565b6000613b1d613b1884614c10565b614beb565b90508083825260208201905082856020860282011115613b3c57600080fd5b60005b85811015613b6c5781613b528882613bf2565b845260208401935060208301925050600181019050613b3f565b5050509392505050565b6000613b89613b8484614c3c565b614beb565b905082815260208101848484011115613ba157600080fd5b613bac848285614ea3565b509392505050565b6000613bc7613bc284614c6d565b614beb565b905082815260208101848484011115613bdf57600080fd5b613bea848285614ea3565b509392505050565b600081359050613c01816159c0565b92915050565b600082601f830112613c1857600080fd5b8135613c28848260208601613b0a565b91505092915050565b600081359050613c40816159d7565b92915050565b600081359050613c55816159ee565b92915050565b600081519050613c6a816159ee565b92915050565b600082601f830112613c8157600080fd5b8135613c91848260208601613b76565b91505092915050565b600082601f830112613cab57600080fd5b8135613cbb848260208601613bb4565b91505092915050565b600081359050613cd381615a05565b92915050565b600060208284031215613ceb57600080fd5b6000613cf984828501613bf2565b91505092915050565b60008060408385031215613d1557600080fd5b6000613d2385828601613bf2565b9250506020613d3485828601613bf2565b9150509250929050565b600080600060608486031215613d5357600080fd5b6000613d6186828701613bf2565b9350506020613d7286828701613bf2565b9250506040613d8386828701613cc4565b9150509250925092565b60008060008060808587031215613da357600080fd5b6000613db187828801613bf2565b9450506020613dc287828801613bf2565b9350506040613dd387828801613cc4565b925050606085013567ffffffffffffffff811115613df057600080fd5b613dfc87828801613c70565b91505092959194509250565b60008060408385031215613e1b57600080fd5b6000613e2985828601613bf2565b9250506020613e3a85828601613c31565b9150509250929050565b60008060408385031215613e5757600080fd5b6000613e6585828601613bf2565b9250506020613e7685828601613cc4565b9150509250929050565b600060208284031215613e9257600080fd5b600082013567ffffffffffffffff811115613eac57600080fd5b613eb884828501613c07565b91505092915050565b600060208284031215613ed357600080fd5b6000613ee184828501613c46565b91505092915050565b600060208284031215613efc57600080fd5b6000613f0a84828501613c5b565b91505092915050565b600060208284031215613f2557600080fd5b600082013567ffffffffffffffff811115613f3f57600080fd5b613f4b84828501613c9a565b91505092915050565b600060208284031215613f6657600080fd5b6000613f7484828501613cc4565b91505092915050565b60008060408385031215613f9057600080fd5b6000613f9e85828601613cc4565b9250506020613faf85828601613cc4565b9150509250929050565b6000613fc583836145ff565b60208301905092915050565b613fda81614e2f565b82525050565b6000613feb82614cae565b613ff58185614cdc565b935061400083614c9e565b8060005b838110156140315781516140188882613fb9565b975061402383614ccf565b925050600181019050614004565b5085935050505092915050565b61404781614e41565b82525050565b600061405882614cb9565b6140628185614ced565b9350614072818560208601614eb2565b61407b8161507e565b840191505092915050565b600061409182614cc4565b61409b8185614cfe565b93506140ab818560208601614eb2565b6140b48161507e565b840191505092915050565b60006140ca82614cc4565b6140d48185614d0f565b93506140e4818560208601614eb2565b80840191505092915050565b60006140fd602083614cfe565b91506141088261508f565b602082019050919050565b6000614120602b83614cfe565b915061412b826150b8565b604082019050919050565b6000614143602c83614cfe565b915061414e82615107565b604082019050919050565b6000614166603283614cfe565b915061417182615156565b604082019050919050565b6000614189602683614cfe565b9150614194826151a5565b604082019050919050565b60006141ac601c83614cfe565b91506141b7826151f4565b602082019050919050565b60006141cf602483614cfe565b91506141da8261521d565b604082019050919050565b60006141f2601983614cfe565b91506141fd8261526c565b602082019050919050565b6000614215601483614cfe565b915061422082615295565b602082019050919050565b6000614238601283614cfe565b9150614243826152be565b602082019050919050565b600061425b601283614cfe565b9150614266826152e7565b602082019050919050565b600061427e602883614cfe565b915061428982615310565b604082019050919050565b60006142a1602c83614cfe565b91506142ac8261535f565b604082019050919050565b60006142c4603083614cfe565b91506142cf826153ae565b604082019050919050565b60006142e7603883614cfe565b91506142f2826153fd565b604082019050919050565b600061430a601c83614cfe565b91506143158261544c565b602082019050919050565b600061432d602a83614cfe565b915061433882615475565b604082019050919050565b6000614350602983614cfe565b915061435b826154c4565b604082019050919050565b6000614373603883614cfe565b915061437e82615513565b604082019050919050565b6000614396602083614cfe565b91506143a182615562565b602082019050919050565b60006143b9601583614cfe565b91506143c48261558b565b602082019050919050565b60006143dc602c83614cfe565b91506143e7826155b4565b604082019050919050565b60006143ff602083614cfe565b915061440a82615603565b602082019050919050565b6000614422602983614cfe565b915061442d8261562c565b604082019050919050565b6000614445602f83614cfe565b91506144508261567b565b604082019050919050565b6000614468601c83614cfe565b9150614473826156ca565b602082019050919050565b600061448b602183614cfe565b9150614496826156f3565b604082019050919050565b60006144ae602583614cfe565b91506144b982615742565b604082019050919050565b60006144d1601383614cfe565b91506144dc82615791565b602082019050919050565b60006144f4603183614cfe565b91506144ff826157ba565b604082019050919050565b6000614517601583614cfe565b915061452282615809565b602082019050919050565b600061453a604183614cfe565b915061454582615832565b606082019050919050565b600061455d603d83614cfe565b9150614568826158a7565b604082019050919050565b6000614580601f83614cfe565b915061458b826158f6565b602082019050919050565b60006145a3602683614cfe565b91506145ae8261591f565b604082019050919050565b60006145c6601383614cfe565b91506145d18261596e565b602082019050919050565b60006145e9600f83614cfe565b91506145f482615997565b602082019050919050565b61460881614e99565b82525050565b61461781614e99565b82525050565b600061462982856140bf565b915061463582846140bf565b91508190509392505050565b60006020820190506146566000830184613fd1565b92915050565b60006080820190506146716000830187613fd1565b61467e6020830186613fd1565b61468b604083018561460e565b818103606083015261469d818461404d565b905095945050505050565b60006040820190506146bd6000830185613fd1565b6146ca602083018461460e565b9392505050565b600060208201905081810360008301526146eb8184613fe0565b905092915050565b6000602082019050614708600083018461403e565b92915050565b600060208201905081810360008301526147288184614086565b905092915050565b60006020820190508181036000830152614749816140f0565b9050919050565b6000602082019050818103600083015261476981614113565b9050919050565b6000602082019050818103600083015261478981614136565b9050919050565b600060208201905081810360008301526147a981614159565b9050919050565b600060208201905081810360008301526147c98161417c565b9050919050565b600060208201905081810360008301526147e98161419f565b9050919050565b60006020820190508181036000830152614809816141c2565b9050919050565b60006020820190508181036000830152614829816141e5565b9050919050565b6000602082019050818103600083015261484981614208565b9050919050565b600060208201905081810360008301526148698161422b565b9050919050565b600060208201905081810360008301526148898161424e565b9050919050565b600060208201905081810360008301526148a981614271565b9050919050565b600060208201905081810360008301526148c981614294565b9050919050565b600060208201905081810360008301526148e9816142b7565b9050919050565b60006020820190508181036000830152614909816142da565b9050919050565b60006020820190508181036000830152614929816142fd565b9050919050565b6000602082019050818103600083015261494981614320565b9050919050565b6000602082019050818103600083015261496981614343565b9050919050565b6000602082019050818103600083015261498981614366565b9050919050565b600060208201905081810360008301526149a981614389565b9050919050565b600060208201905081810360008301526149c9816143ac565b9050919050565b600060208201905081810360008301526149e9816143cf565b9050919050565b60006020820190508181036000830152614a09816143f2565b9050919050565b60006020820190508181036000830152614a2981614415565b9050919050565b60006020820190508181036000830152614a4981614438565b9050919050565b60006020820190508181036000830152614a698161445b565b9050919050565b60006020820190508181036000830152614a898161447e565b9050919050565b60006020820190508181036000830152614aa9816144a1565b9050919050565b60006020820190508181036000830152614ac9816144c4565b9050919050565b60006020820190508181036000830152614ae9816144e7565b9050919050565b60006020820190508181036000830152614b098161450a565b9050919050565b60006020820190508181036000830152614b298161452d565b9050919050565b60006020820190508181036000830152614b4981614550565b9050919050565b60006020820190508181036000830152614b6981614573565b9050919050565b60006020820190508181036000830152614b8981614596565b9050919050565b60006020820190508181036000830152614ba9816145b9565b9050919050565b60006020820190508181036000830152614bc9816145dc565b9050919050565b6000602082019050614be5600083018461460e565b92915050565b6000614bf5614c06565b9050614c018282614f17565b919050565b6000604051905090565b600067ffffffffffffffff821115614c2b57614c2a61504f565b5b602082029050602081019050919050565b600067ffffffffffffffff821115614c5757614c5661504f565b5b614c608261507e565b9050602081019050919050565b600067ffffffffffffffff821115614c8857614c8761504f565b5b614c918261507e565b9050602081019050919050565b6000819050602082019050919050565b600081519050919050565b600081519050919050565b600081519050919050565b6000602082019050919050565b600082825260208201905092915050565b600082825260208201905092915050565b600082825260208201905092915050565b600081905092915050565b6000614d2582614e99565b9150614d3083614e99565b9250827fffffffffffffffffffffffffffffffffffffffffffffffffffffffffffffffff03821115614d6557614d64614fc2565b5b828201905092915050565b6000614d7b82614e99565b9150614d8683614e99565b925082614d9657614d95614ff1565b5b828204905092915050565b6000614dac82614e99565b9150614db783614e99565b9250817fffffffffffffffffffffffffffffffffffffffffffffffffffffffffffffffff0483118215151615614df057614def614fc2565b5b828202905092915050565b6000614e0682614e99565b9150614e1183614e99565b925082821015614e2457614e23614fc2565b5b828203905092915050565b6000614e3a82614e79565b9050919050565b60008115159050919050565b60007fffffffff0000000000000000000000000000000000000000000000000000000082169050919050565b600073ffffffffffffffffffffffffffffffffffffffff82169050919050565b6000819050919050565b82818337600083830152505050565b60005b83811015614ed0578082015181840152602081019050614eb5565b83811115614edf576000848401525b50505050565b60006002820490506001821680614efd57607f821691505b60208210811415614f1157614f10615020565b5b50919050565b614f208261507e565b810181811067ffffffffffffffff82111715614f3f57614f3e61504f565b5b80604052505050565b6000614f5382614e99565b91507fffffffffffffffffffffffffffffffffffffffffffffffffffffffffffffffff821415614f8657614f85614fc2565b5b600182019050919050565b6000614f9c82614e99565b9150614fa783614e99565b925082614fb757614fb6614ff1565b5b828206905092915050565b7f4e487b7100000000000000000000000000000000000000000000000000000000600052601160045260246000fd5b7f4e487b7100000000000000000000000000000000000000000000000000000000600052601260045260246000fd5b7f4e487b7100000000000000000000000000000000000000000000000000000000600052602260045260246000fd5b7f4e487b7100000000000000000000000000000000000000000000000000000000600052604160045260246000fd5b6000601f19601f8301169050919050565b7f546865726520617265206e6f2073616c657320617420746869732074696d652e600082015250565b7f576527726520736f7272792c20796f757220616464726573732069736e27742060008201527f77686974656c6973746564000000000000000000000000000000000000000000602082015250565b7f4d7573742073656e6420616e206172726179206f66206164647265737365732060008201527f746f2077686974656c6973740000000000000000000000000000000000000000602082015250565b7f4552433732313a207472616e7366657220746f206e6f6e20455243373231526560008201527f63656976657220696d706c656d656e7465720000000000000000000000000000602082015250565b7f4f776e61626c653a206e6577206f776e657220697320746865207a65726f206160008201527f6464726573730000000000000000000000000000000000000000000000000000602082015250565b7f4552433732313a20746f6b656e20616c7265616479206d696e74656400000000600082015250565b7f4552433732313a207472616e7366657220746f20746865207a65726f2061646460008201527f7265737300000000000000000000000000000000000000000000000000000000602082015250565b7f4552433732313a20617070726f766520746f2063616c6c657200000000000000600082015250565b7f4e6f7468696e6720746f2077697468647261772e000000000000000000000000600082015250565b7f53616c65206973206e6f74206163746976650000000000000000000000000000600082015250565b7f53616c65206973206e6f74207061757365640000000000000000000000000000600082015250565b7f43616e6e6f74206d696e74206d6f7265207468616e203420746f6b656e73206160008201527f7420612074696d65000000000000000000000000000000000000000000000000602082015250565b7f4552433732313a206f70657261746f7220717565727920666f72206e6f6e657860008201527f697374656e7420746f6b656e0000000000000000000000000000000000000000602082015250565b7f42616c616e6365206d757374206265202e35206574686572206f72206772656160008201527f74657220746f2077697468647261772e00000000000000000000000000000000602082015250565b7f4552433732313a20617070726f76652063616c6c6572206973206e6f74206f7760008201527f6e6572206e6f7220617070726f76656420666f7220616c6c0000000000000000602082015250565b7f57686974656c6973742063616e6e6f7420657863656564203230303000000000600082015250565b7f4552433732313a2062616c616e636520717565727920666f7220746865207a6560008201527f726f206164647265737300000000000000000000000000000000000000000000602082015250565b7f4552433732313a206f776e657220717565727920666f72206e6f6e657869737460008201527f656e7420746f6b656e0000000000000000000000000000000000000000000000602082015250565b7f4d7573742073656e6420616e206172726179206f66206164647265737365732060008201527f746f2072656d6f76652066726f6d2077686974656c6973740000000000000000602082015250565b7f4552433732313a206d696e7420746f20746865207a65726f2061646472657373600082015250565b7f50726573616c65206973206e6f74207061757365640000000000000000000000600082015250565b7f4552433732313a20617070726f76656420717565727920666f72206e6f6e657860008201527f697374656e7420746f6b656e0000000000000000000000000000000000000000602082015250565b7f4f776e61626c653a2063616c6c6572206973206e6f7420746865206f776e6572600082015250565b7f4552433732313a207472616e73666572206f6620746f6b656e2074686174206960008201527f73206e6f74206f776e0000000000000000000000000000000000000000000000602082015250565b7f4552433732314d657461646174613a2055524920717565727920666f72206e6f60008201527f6e6578697374656e7420746f6b656e0000000000000000000000000000000000602082015250565b7f4d757374206d696e74206174206c65617374206f6e6520746f6b656e00000000600082015250565b7f4552433732313a20617070726f76616c20746f2063757272656e74206f776e6560008201527f7200000000000000000000000000000000000000000000000000000000000000602082015250565b7f4e6f6e6578697374656e7420746f6b656e20666f7220726f79616c747920706160008201527f796d656e74000000000000000000000000000000000000000000000000000000602082015250565b7f4769766561776179206e6f742061637469766500000000000000000000000000600082015250565b7f4552433732313a207472616e736665722063616c6c6572206973206e6f74206f60008201527f776e6572206e6f7220617070726f766564000000000000000000000000000000602082015250565b7f50726573616c65206973206e6f74206163746976650000000000000000000000600082015250565b7f496e73756666696369656e742066756e64733a2045746865722076616c75652060008201527f646f6573206e6f74206d61746368207075626c69632073616c6520707269636560208201527f2e00000000000000000000000000000000000000000000000000000000000000604082015250565b7f496e73756666696369656e742066756e64733a2045746865722076616c75652060008201527f646f6573206e6f74206d617463682070726573616c652070726963652e000000602082015250565b7f5265656e7472616e637947756172643a207265656e7472616e742063616c6c00600082015250565b7f43616e6e6f74206d696e74206d6f7265207468616e203420746f6b656e73207060008201527f726573616c650000000000000000000000000000000000000000000000000000602082015250565b7f4769766561776179206e6f742070617573656400000000000000000000000000600082015250565b7f4e6f20746f6b656e73206c656674210000000000000000000000000000000000600082015250565b6159c981614e2f565b81146159d457600080fd5b50565b6159e081614e41565b81146159eb57600080fd5b50565b6159f781614e4d565b8114615a0257600080fd5b50565b615a0e81614e99565b8114615a1957600080fd5b5056fea2646970667358221220f442ca0bb178866244be0a7b0b42f900a9e0a385391f9c6a39d7897f3c93244764736f6c63430008040033",
  "linkReferences": {},
  "deployedLinkReferences": {}
}