{
  "_format": "hh-sol-artifact-1",
  "contractName": "Turtleverse",
  "sourceName": "contracts/Turtleverse.sol",
  "abi": [
    {
      "inputs": [
        {
          "internalType": "string",
          "name": "name_",
          "type": "string"
        },
        {
          "internalType": "string",
          "name": "symbol_",
          "type": "string"
        },
        {
          "internalType": "string",
          "name": "baseURI_",
          "type": "string"
        }
      ],
      "stateMutability": "nonpayable",
      "type": "constructor"
    },
    {
      "anonymous": false,
      "inputs": [
        {
          "indexed": true,
          "internalType": "address",
          "name": "_address",
          "type": "address"
        }
      ],
      "name": "AddedToGiveawayList",
      "type": "event"
    },
    {
      "anonymous": false,
      "inputs": [
        {
          "indexed": true,
          "internalType": "address",
          "name": "_address",
          "type": "address"
        }
      ],
      "name": "AddedToWhitelist",
      "type": "event"
    },
    {
      "anonymous": false,
      "inputs": [
        {
          "indexed": true,
          "internalType": "address",
          "name": "owner",
          "type": "address"
        },
        {
          "indexed": true,
          "internalType": "address",
          "name": "approved",
          "type": "address"
        },
        {
          "indexed": true,
          "internalType": "uint256",
          "name": "tokenId",
          "type": "uint256"
        }
      ],
      "name": "Approval",
      "type": "event"
    },
    {
      "anonymous": false,
      "inputs": [
        {
          "indexed": true,
          "internalType": "address",
          "name": "owner",
          "type": "address"
        },
        {
          "indexed": true,
          "internalType": "address",
          "name": "operator",
          "type": "address"
        },
        {
          "indexed": false,
          "internalType": "bool",
          "name": "approved",
          "type": "bool"
        }
      ],
      "name": "ApprovalForAll",
      "type": "event"
    },
    {
      "anonymous": false,
      "inputs": [
        {
          "indexed": true,
          "internalType": "uint256",
          "name": "_giveawayStopTime",
          "type": "uint256"
        }
      ],
      "name": "GiveawayPaused",
      "type": "event"
    },
    {
      "anonymous": false,
      "inputs": [
        {
          "indexed": true,
          "internalType": "uint256",
          "name": "_giveawayStartTime",
          "type": "uint256"
        }
      ],
      "name": "GiveawayStart",
      "type": "event"
    },
    {
      "anonymous": false,
      "inputs": [
        {
          "indexed": true,
          "internalType": "uint256",
          "name": "_giveawayPurgedTime",
          "type": "uint256"
        }
      ],
      "name": "GiveawaysPurged",
      "type": "event"
    },
    {
      "anonymous": false,
      "inputs": [
        {
          "indexed": true,
          "internalType": "address",
          "name": "previousOwner",
          "type": "address"
        },
        {
          "indexed": true,
          "internalType": "address",
          "name": "newOwner",
          "type": "address"
        }
      ],
      "name": "OwnershipTransferred",
      "type": "event"
    },
    {
      "anonymous": false,
      "inputs": [
        {
          "indexed": true,
          "internalType": "uint256",
          "name": "_presaleStopTime",
          "type": "uint256"
        }
      ],
      "name": "PresalePaused",
      "type": "event"
    },
    {
      "anonymous": false,
      "inputs": [
        {
          "indexed": true,
          "internalType": "uint256",
          "name": "_presaleStartTime",
          "type": "uint256"
        }
      ],
      "name": "PresaleStart",
      "type": "event"
    },
    {
      "anonymous": false,
      "inputs": [
        {
          "indexed": true,
          "internalType": "address",
          "name": "_address",
          "type": "address"
        }
      ],
      "name": "RemovedFromWhitelist",
      "type": "event"
    },
    {
      "anonymous": false,
      "inputs": [
        {
          "indexed": true,
          "internalType": "uint256",
          "name": "_saleStopTime",
          "type": "uint256"
        }
      ],
      "name": "SalePaused",
      "type": "event"
    },
    {
      "anonymous": false,
      "inputs": [
        {
          "indexed": true,
          "internalType": "uint256",
          "name": "_saleStartTime",
          "type": "uint256"
        }
      ],
      "name": "SaleStart",
      "type": "event"
    },
    {
      "anonymous": false,
      "inputs": [
        {
          "indexed": true,
          "internalType": "address",
          "name": "from",
          "type": "address"
        },
        {
          "indexed": true,
          "internalType": "address",
          "name": "to",
          "type": "address"
        },
        {
          "indexed": true,
          "internalType": "uint256",
          "name": "tokenId",
          "type": "uint256"
        }
      ],
      "name": "Transfer",
      "type": "event"
    },
    {
      "inputs": [
        {
          "internalType": "address[]",
          "name": "addresses",
          "type": "address[]"
        }
      ],
      "name": "addToGiveawayList",
      "outputs": [],
      "stateMutability": "nonpayable",
      "type": "function"
    },
    {
      "inputs": [
        {
          "internalType": "address[]",
          "name": "addresses",
          "type": "address[]"
        }
      ],
      "name": "addToWhitelist",
      "outputs": [],
      "stateMutability": "nonpayable",
      "type": "function"
    },
    {
      "inputs": [
        {
          "internalType": "address",
          "name": "to",
          "type": "address"
        },
        {
          "internalType": "uint256",
          "name": "tokenId",
          "type": "uint256"
        }
      ],
      "name": "approve",
      "outputs": [],
      "stateMutability": "nonpayable",
      "type": "function"
    },
    {
      "inputs": [
        {
          "internalType": "address",
          "name": "owner",
          "type": "address"
        }
      ],
      "name": "balanceOf",
      "outputs": [
        {
          "internalType": "uint256",
          "name": "",
          "type": "uint256"
        }
      ],
      "stateMutability": "view",
      "type": "function"
    },
    {
      "inputs": [
        {
          "internalType": "uint256",
          "name": "tokenId",
          "type": "uint256"
        }
      ],
      "name": "getApproved",
      "outputs": [
        {
          "internalType": "address",
          "name": "",
          "type": "address"
        }
      ],
      "stateMutability": "view",
      "type": "function"
    },
    {
      "inputs": [],
      "name": "giveawayActive",
      "outputs": [
        {
          "internalType": "bool",
          "name": "",
          "type": "bool"
        }
      ],
      "stateMutability": "view",
      "type": "function"
    },
    {
      "inputs": [],
      "name": "giveawayPriceToMint",
      "outputs": [
        {
          "internalType": "uint256",
          "name": "",
          "type": "uint256"
        }
      ],
      "stateMutability": "view",
      "type": "function"
    },
    {
      "inputs": [
        {
          "internalType": "address",
          "name": "value",
          "type": "address"
        }
      ],
      "name": "inGiveawayList",
      "outputs": [
        {
          "internalType": "bool",
          "name": "",
          "type": "bool"
        }
      ],
      "stateMutability": "view",
      "type": "function"
    },
    {
      "inputs": [
        {
          "internalType": "address",
          "name": "value",
          "type": "address"
        }
      ],
      "name": "inWhitelist",
      "outputs": [
        {
          "internalType": "bool",
          "name": "",
          "type": "bool"
        }
      ],
      "stateMutability": "view",
      "type": "function"
    },
    {
      "inputs": [
        {
          "internalType": "address",
          "name": "owner",
          "type": "address"
        },
        {
          "internalType": "address",
          "name": "operator",
          "type": "address"
        }
      ],
      "name": "isApprovedForAll",
      "outputs": [
        {
          "internalType": "bool",
          "name": "",
          "type": "bool"
        }
      ],
      "stateMutability": "view",
      "type": "function"
    },
    {
      "inputs": [
        {
          "internalType": "uint256",
          "name": "tokensAmount",
          "type": "uint256"
        },
        {
          "internalType": "string[]",
          "name": "tokenHashes",
          "type": "string[]"
        }
      ],
      "name": "mintTokens",
      "outputs": [
        {
          "internalType": "uint256[]",
          "name": "",
          "type": "uint256[]"
        }
      ],
      "stateMutability": "payable",
      "type": "function"
    },
    {
      "inputs": [],
      "name": "name",
      "outputs": [
        {
          "internalType": "string",
          "name": "",
          "type": "string"
        }
      ],
      "stateMutability": "view",
      "type": "function"
    },
    {
      "inputs": [],
      "name": "owner",
      "outputs": [
        {
          "internalType": "address",
          "name": "",
          "type": "address"
        }
      ],
      "stateMutability": "view",
      "type": "function"
    },
    {
      "inputs": [
        {
          "internalType": "uint256",
          "name": "tokenId",
          "type": "uint256"
        }
      ],
      "name": "ownerOf",
      "outputs": [
        {
          "internalType": "address",
          "name": "",
          "type": "address"
        }
      ],
      "stateMutability": "view",
      "type": "function"
    },
    {
      "inputs": [],
      "name": "pauseGiveaway",
      "outputs": [],
      "stateMutability": "nonpayable",
      "type": "function"
    },
    {
      "inputs": [],
      "name": "pausePresale",
      "outputs": [],
      "stateMutability": "nonpayable",
      "type": "function"
    },
    {
      "inputs": [],
      "name": "pausePublicSale",
      "outputs": [],
      "stateMutability": "nonpayable",
      "type": "function"
    },
    {
      "inputs": [],
      "name": "presaleActive",
      "outputs": [
        {
          "internalType": "bool",
          "name": "",
          "type": "bool"
        }
      ],
      "stateMutability": "view",
      "type": "function"
    },
    {
      "inputs": [],
      "name": "presaleLimit",
      "outputs": [
        {
          "internalType": "uint8",
          "name": "",
          "type": "uint8"
        }
      ],
      "stateMutability": "view",
      "type": "function"
    },
    {
      "inputs": [],
      "name": "presalePriceToMint",
      "outputs": [
        {
          "internalType": "uint256",
          "name": "",
          "type": "uint256"
        }
      ],
      "stateMutability": "view",
      "type": "function"
    },
    {
      "inputs": [
        {
          "internalType": "address",
          "name": "",
          "type": "address"
        }
      ],
      "name": "presalePurchasedAmount",
      "outputs": [
        {
          "internalType": "uint256",
          "name": "",
          "type": "uint256"
        }
      ],
      "stateMutability": "view",
      "type": "function"
    },
    {
      "inputs": [],
      "name": "price",
      "outputs": [
        {
          "internalType": "uint256",
          "name": "",
          "type": "uint256"
        }
      ],
      "stateMutability": "view",
      "type": "function"
    },
    {
      "inputs": [],
      "name": "priceToMint",
      "outputs": [
        {
          "internalType": "uint256",
          "name": "",
          "type": "uint256"
        }
      ],
      "stateMutability": "view",
      "type": "function"
    },
    {
      "inputs": [],
      "name": "purgeGiveawayList",
      "outputs": [],
      "stateMutability": "nonpayable",
      "type": "function"
    },
    {
      "inputs": [
        {
          "internalType": "address[]",
          "name": "addresses",
          "type": "address[]"
        }
      ],
      "name": "removeFromWhitelist",
      "outputs": [],
      "stateMutability": "nonpayable",
      "type": "function"
    },
    {
      "inputs": [],
      "name": "renounceOwnership",
      "outputs": [],
      "stateMutability": "nonpayable",
      "type": "function"
    },
    {
      "inputs": [
        {
          "internalType": "address",
          "name": "from",
          "type": "address"
        },
        {
          "internalType": "address",
          "name": "to",
          "type": "address"
        },
        {
          "internalType": "uint256",
          "name": "tokenId",
          "type": "uint256"
        }
      ],
      "name": "safeTransferFrom",
      "outputs": [],
      "stateMutability": "nonpayable",
      "type": "function"
    },
    {
      "inputs": [
        {
          "internalType": "address",
          "name": "from",
          "type": "address"
        },
        {
          "internalType": "address",
          "name": "to",
          "type": "address"
        },
        {
          "internalType": "uint256",
          "name": "tokenId",
          "type": "uint256"
        },
        {
          "internalType": "bytes",
          "name": "_data",
          "type": "bytes"
        }
      ],
      "name": "safeTransferFrom",
      "outputs": [],
      "stateMutability": "nonpayable",
      "type": "function"
    },
    {
      "inputs": [],
      "name": "saleActive",
      "outputs": [
        {
          "internalType": "bool",
          "name": "",
          "type": "bool"
        }
      ],
      "stateMutability": "view",
      "type": "function"
    },
    {
      "inputs": [
        {
          "internalType": "address",
          "name": "operator",
          "type": "address"
        },
        {
          "internalType": "bool",
          "name": "approved",
          "type": "bool"
        }
      ],
      "name": "setApprovalForAll",
      "outputs": [],
      "stateMutability": "nonpayable",
      "type": "function"
    },
    {
      "inputs": [],
      "name": "startGiveaway",
      "outputs": [],
      "stateMutability": "nonpayable",
      "type": "function"
    },
    {
      "inputs": [
        {
          "internalType": "uint8",
          "name": "presaleLimit_",
          "type": "uint8"
        }
      ],
      "name": "startPresale",
      "outputs": [],
      "stateMutability": "nonpayable",
      "type": "function"
    },
    {
      "inputs": [],
      "name": "startPublicSale",
      "outputs": [],
      "stateMutability": "nonpayable",
      "type": "function"
    },
    {
      "inputs": [
        {
          "internalType": "bytes4",
          "name": "interfaceId",
          "type": "bytes4"
        }
      ],
      "name": "supportsInterface",
      "outputs": [
        {
          "internalType": "bool",
          "name": "",
          "type": "bool"
        }
      ],
      "stateMutability": "view",
      "type": "function"
    },
    {
      "inputs": [],
      "name": "symbol",
      "outputs": [
        {
          "internalType": "string",
          "name": "",
          "type": "string"
        }
      ],
      "stateMutability": "view",
      "type": "function"
    },
    {
      "inputs": [
        {
          "internalType": "uint256",
          "name": "tokenId",
          "type": "uint256"
        }
      ],
      "name": "tokenURI",
      "outputs": [
        {
          "internalType": "string",
          "name": "",
          "type": "string"
        }
      ],
      "stateMutability": "view",
      "type": "function"
    },
    {
      "inputs": [
        {
          "internalType": "address",
          "name": "from",
          "type": "address"
        },
        {
          "internalType": "address",
          "name": "to",
          "type": "address"
        },
        {
          "internalType": "uint256",
          "name": "tokenId",
          "type": "uint256"
        }
      ],
      "name": "transferFrom",
      "outputs": [],
      "stateMutability": "nonpayable",
      "type": "function"
    },
    {
      "inputs": [
        {
          "internalType": "address",
          "name": "newOwner",
          "type": "address"
        }
      ],
      "name": "transferOwnership",
      "outputs": [],
      "stateMutability": "nonpayable",
      "type": "function"
    },
    {
      "inputs": [
        {
          "internalType": "address payable",
          "name": "wallet",
          "type": "address"
        },
        {
          "internalType": "uint256",
          "name": "amount",
          "type": "uint256"
        }
      ],
      "name": "withdraw",
      "outputs": [],
      "stateMutability": "nonpayable",
      "type": "function"
    }
  ],
  "bytecode": "0x60806040526000600f556658d15e1762800060105566b1a2bc2ec500006011553480156200002c57600080fd5b5060405162005d0338038062005d038339818101604052810190620000529190620002c2565b828281600090805190602001906200006c929190620001a0565b50806001908051906020019062000085929190620001a0565b505050620000a86200009c620000d260201b60201c565b620000da60201b60201c565b60016007819055508060089080519060200190620000c8929190620001a0565b50505050620004d3565b600033905090565b6000600660009054906101000a900473ffffffffffffffffffffffffffffffffffffffff16905081600660006101000a81548173ffffffffffffffffffffffffffffffffffffffff021916908373ffffffffffffffffffffffffffffffffffffffff1602179055508173ffffffffffffffffffffffffffffffffffffffff168173ffffffffffffffffffffffffffffffffffffffff167f8be0079c531659141344cd1fd0a4f28419497f9722a3daafe3b4186f6b6457e060405160405180910390a35050565b828054620001ae90620003f8565b90600052602060002090601f016020900481019282620001d257600085556200021e565b82601f10620001ed57805160ff19168380011785556200021e565b828001600101855582156200021e579182015b828111156200021d57825182559160200191906001019062000200565b5b5090506200022d919062000231565b5090565b5b808211156200024c57600081600090555060010162000232565b5090565b60006200026762000261846200038c565b62000363565b9050828152602081018484840111156200028057600080fd5b6200028d848285620003c2565b509392505050565b600082601f830112620002a757600080fd5b8151620002b984826020860162000250565b91505092915050565b600080600060608486031215620002d857600080fd5b600084015167ffffffffffffffff811115620002f357600080fd5b620003018682870162000295565b935050602084015167ffffffffffffffff8111156200031f57600080fd5b6200032d8682870162000295565b925050604084015167ffffffffffffffff8111156200034b57600080fd5b620003598682870162000295565b9150509250925092565b60006200036f62000382565b90506200037d82826200042e565b919050565b6000604051905090565b600067ffffffffffffffff821115620003aa57620003a962000493565b5b620003b582620004c2565b9050602081019050919050565b60005b83811015620003e2578082015181840152602081019050620003c5565b83811115620003f2576000848401525b50505050565b600060028204905060018216806200041157607f821691505b6020821081141562000428576200042762000464565b5b50919050565b6200043982620004c2565b810181811067ffffffffffffffff821117156200045b576200045a62000493565b5b80604052505050565b7f4e487b7100000000000000000000000000000000000000000000000000000000600052602260045260246000fd5b7f4e487b7100000000000000000000000000000000000000000000000000000000600052604160045260246000fd5b6000601f19601f8301169050919050565b61582080620004e36000396000f3fe6080604052600436106102305760003560e01c806368428a1b1161012e578063b88d4fde116100ab578063df9ffc2d1161006f578063df9ffc2d146107be578063e2aafa21146107fb578063e985e9c514610838578063f2fde38b14610875578063f3fef3a31461089e57610230565b8063b88d4fde146106e6578063c0f98e331461070f578063c165507c1461073f578063c87b56dd14610756578063dc9403a61461079357610230565b80638da5cb5b116100f25780638da5cb5b1461061357806394c606f51461063e57806395d89b4114610667578063a035b1fe14610692578063a22cb465146106bd57610230565b806368428a1b1461055457806370a082311461057f578063715018a6146105bc5780637c0f8aa0146105d35780637f649783146105ea57610230565b80632b3f4d92116101bc578063525b3fe311610180578063525b3fe31461046f57806353135ca01461049a578063548db174146104c55780636352211e146104ee5780636739f1431461052b57610230565b80632b3f4d92146103885780633e571a09146103b357806342842e0e146103f05780634616d4b2146104195780634dc1dbec1461044457610230565b8063081812fc11610203578063081812fc146102cb578063095ea7b3146103085780630c1c972a146103315780630c41f4971461034857806323b872dd1461035f57610230565b806301ffc9a71461023557806305e4e88a1461027257806306fdde0314610289578063070f5c09146102b4575b600080fd5b34801561024157600080fd5b5061025c60048036038101906102579190613fa9565b6108c7565b60405161026991906146f3565b60405180910390f35b34801561027e57600080fd5b506102876109a9565b005b34801561029557600080fd5b5061029e610b5f565b6040516102ab919061470e565b60405180910390f35b3480156102c057600080fd5b506102c9610bf1565b005b3480156102d757600080fd5b506102f260048036038101906102ed9190613ffb565b610da6565b6040516102ff919061466a565b60405180910390f35b34801561031457600080fd5b5061032f600480360381019061032a9190613f2c565b610e2b565b005b34801561033d57600080fd5b50610346610f43565b005b34801561035457600080fd5b5061035d6110f9565b005b34801561036b57600080fd5b5061038660048036038101906103819190613e26565b6112ae565b005b34801561039457600080fd5b5061039d61130e565b6040516103aa9190614b10565b60405180910390f35b3480156103bf57600080fd5b506103da60048036038101906103d59190613d85565b611314565b6040516103e791906146f3565b60405180910390f35b3480156103fc57600080fd5b5061041760048036038101906104129190613e26565b611331565b005b34801561042557600080fd5b5061042e611351565b60405161043b91906146f3565b60405180910390f35b34801561045057600080fd5b50610459611364565b6040516104669190614b10565b60405180910390f35b34801561047b57600080fd5b5061048461136a565b6040516104919190614b2b565b60405180910390f35b3480156104a657600080fd5b506104af61137d565b6040516104bc91906146f3565b60405180910390f35b3480156104d157600080fd5b506104ec60048036038101906104e79190613f68565b611390565b005b3480156104fa57600080fd5b5061051560048036038101906105109190613ffb565b611553565b604051610522919061466a565b60405180910390f35b34801561053757600080fd5b50610552600480360381019061054d9190613f68565b611605565b005b34801561056057600080fd5b50610569611782565b60405161057691906146f3565b60405180910390f35b34801561058b57600080fd5b506105a660048036038101906105a19190613d85565b611795565b6040516105b39190614b10565b60405180910390f35b3480156105c857600080fd5b506105d161184d565b005b3480156105df57600080fd5b506105e86118d5565b005b3480156105f657600080fd5b50610611600480360381019061060c9190613f68565b611a8a565b005b34801561061f57600080fd5b50610628611c4d565b604051610635919061466a565b60405180910390f35b34801561064a57600080fd5b506106656004803603810190610660919061407c565b611c77565b005b34801561067357600080fd5b5061067c611e49565b604051610689919061470e565b60405180910390f35b34801561069e57600080fd5b506106a7611edb565b6040516106b49190614b10565b60405180910390f35b3480156106c957600080fd5b506106e460048036038101906106df9190613ef0565b611f24565b005b3480156106f257600080fd5b5061070d60048036038101906107089190613e75565b611f3a565b005b61072960048036038101906107249190614024565b611f9c565b60405161073691906146d1565b60405180910390f35b34801561074b57600080fd5b50610754612260565b005b34801561076257600080fd5b5061077d60048036038101906107789190613ffb565b612327565b60405161078a919061470e565b60405180910390f35b34801561079f57600080fd5b506107a861251d565b6040516107b59190614b10565b60405180910390f35b3480156107ca57600080fd5b506107e560048036038101906107e09190613d85565b612523565b6040516107f29190614b10565b60405180910390f35b34801561080757600080fd5b50610822600480360381019061081d9190613d85565b61253b565b60405161082f91906146f3565b60405180910390f35b34801561084457600080fd5b5061085f600480360381019061085a9190613dea565b612558565b60405161086c91906146f3565b60405180910390f35b34801561088157600080fd5b5061089c60048036038101906108979190613d85565b6125ec565b005b3480156108aa57600080fd5b506108c560048036038101906108c09190613dae565b6126e4565b005b60007f80ac58cd000000000000000000000000000000000000000000000000000000007bffffffffffffffffffffffffffffffffffffffffffffffffffffffff1916827bffffffffffffffffffffffffffffffffffffffffffffffffffffffff1916148061099257507f5b5e139f000000000000000000000000000000000000000000000000000000007bffffffffffffffffffffffffffffffffffffffffffffffffffffffff1916827bffffffffffffffffffffffffffffffffffffffffffffffffffffffff1916145b806109a257506109a1826127b8565b5b9050919050565b6109b1612822565b73ffffffffffffffffffffffffffffffffffffffff166109cf611c4d565b73ffffffffffffffffffffffffffffffffffffffff1614610a25576040517f08c379a0000000000000000000000000000000000000000000000000000000008152600401610a1c90614970565b60405180910390fd5b601260009054906101000a900460ff1615610a75576040517f08c379a0000000000000000000000000000000000000000000000000000000008152600401610a6c90614af0565b60405180910390fd5b601260019054906101000a900460ff1615610ac5576040517f08c379a0000000000000000000000000000000000000000000000000000000008152600401610abc906148f0565b60405180910390fd5b601260029054906101000a900460ff1615610b15576040517f08c379a0000000000000000000000000000000000000000000000000000000008152600401610b0c906147f0565b60405180910390fd5b6001601260006101000a81548160ff021916908315150217905550427fea160f4a1725183ff307b55e355bb04139d56298efc5853e17f99ade82e2f38960405160405180910390a2565b606060008054610b6e90614e85565b80601f0160208091040260200160405190810160405280929190818152602001828054610b9a90614e85565b8015610be75780601f10610bbc57610100808354040283529160200191610be7565b820191906000526020600020905b815481529060010190602001808311610bca57829003601f168201915b5050505050905090565b610bf9612822565b73ffffffffffffffffffffffffffffffffffffffff16610c17611c4d565b73ffffffffffffffffffffffffffffffffffffffff1614610c6d576040517f08c379a0000000000000000000000000000000000000000000000000000000008152600401610c6490614970565b60405180910390fd5b601260009054906101000a900460ff1615610cbd576040517f08c379a0000000000000000000000000000000000000000000000000000000008152600401610cb490614af0565b60405180910390fd5b601260029054906101000a900460ff1615610d0d576040517f08c379a0000000000000000000000000000000000000000000000000000000008152600401610d04906147f0565b60405180910390fd5b601260019054906101000a900460ff16610d5c576040517f08c379a0000000000000000000000000000000000000000000000000000000008152600401610d5390614a90565b60405180910390fd5b6000601260016101000a81548160ff021916908315150217905550427fbbda50ff3083b4adfffcd3c2e8042a8b354ca16013534ab9367661c5a4cb7b2360405160405180910390a2565b6000610db18261282a565b610df0576040517f08c379a0000000000000000000000000000000000000000000000000000000008152600401610de790614910565b60405180910390fd5b6004600083815260200190815260200160002060009054906101000a900473ffffffffffffffffffffffffffffffffffffffff169050919050565b6000610e3682611553565b90508073ffffffffffffffffffffffffffffffffffffffff168373ffffffffffffffffffffffffffffffffffffffff161415610ea7576040517f08c379a0000000000000000000000000000000000000000000000000000000008152600401610e9e906149f0565b60405180910390fd5b8073ffffffffffffffffffffffffffffffffffffffff16610ec6612822565b73ffffffffffffffffffffffffffffffffffffffff161480610ef55750610ef481610eef612822565b612558565b5b610f34576040517f08c379a0000000000000000000000000000000000000000000000000000000008152600401610f2b90614850565b60405180910390fd5b610f3e8383612896565b505050565b610f4b612822565b73ffffffffffffffffffffffffffffffffffffffff16610f69611c4d565b73ffffffffffffffffffffffffffffffffffffffff1614610fbf576040517f08c379a0000000000000000000000000000000000000000000000000000000008152600401610fb690614970565b60405180910390fd5b601260009054906101000a900460ff161561100f576040517f08c379a000000000000000000000000000000000000000000000000000000000815260040161100690614af0565b60405180910390fd5b601260019054906101000a900460ff161561105f576040517f08c379a0000000000000000000000000000000000000000000000000000000008152600401611056906148f0565b60405180910390fd5b601260029054906101000a900460ff16156110af576040517f08c379a00000000000000000000000000000000000000000000000000000000081526004016110a6906147f0565b60405180910390fd5b6001601260026101000a81548160ff021916908315150217905550427feeae71454a2a58ac8d7c3a2ac3db1f29f81cbd0024aae4292a55139dd9d3560a60405160405180910390a2565b611101612822565b73ffffffffffffffffffffffffffffffffffffffff1661111f611c4d565b73ffffffffffffffffffffffffffffffffffffffff1614611175576040517f08c379a000000000000000000000000000000000000000000000000000000000815260040161116c90614970565b60405180910390fd5b601260009054906101000a900460ff16156111c5576040517f08c379a00000000000000000000000000000000000000000000000000000000081526004016111bc90614af0565b60405180910390fd5b601260019054906101000a900460ff1615611215576040517f08c379a000000000000000000000000000000000000000000000000000000000815260040161120c906148f0565b60405180910390fd5b601260029054906101000a900460ff16611264576040517f08c379a000000000000000000000000000000000000000000000000000000000815260040161125b906147d0565b60405180910390fd5b6000601260026101000a81548160ff021916908315150217905550427f4616a0782e5635981b28be1cd36934a60655b462c370d8bd8092c969abc990d060405160405180910390a2565b6112bf6112b9612822565b8261294f565b6112fe576040517f08c379a00000000000000000000000000000000000000000000000000000000081526004016112f590614a70565b60405180910390fd5b611309838383612a2d565b505050565b600f5481565b600061132a82600b612c8990919063ffffffff16565b9050919050565b61134c83838360405180602001604052806000815250611f3a565b505050565b601260009054906101000a900460ff1681565b60115481565b601260039054906101000a900460ff1681565b601260019054906101000a900460ff1681565b611398612822565b73ffffffffffffffffffffffffffffffffffffffff166113b6611c4d565b73ffffffffffffffffffffffffffffffffffffffff161461140c576040517f08c379a000000000000000000000000000000000000000000000000000000000815260040161140390614970565b60405180910390fd5b6107d081511115611452576040517f08c379a000000000000000000000000000000000000000000000000000000000815260040161144990614870565b60405180910390fd5b60005b815181101561154f576114b282828151811061149a577f4e487b7100000000000000000000000000000000000000000000000000000000600052603260045260246000fd5b6020026020010151600d612cb990919063ffffffff16565b1561153b578181815181106114f0577f4e487b7100000000000000000000000000000000000000000000000000000000600052603260045260246000fd5b602002602001015173ffffffffffffffffffffffffffffffffffffffff167fcdd2e9b91a56913d370075169cefa1602ba36be5301664f752192bb1709df75760405160405180910390a25b6001816115489190614c9b565b9050611455565b5050565b6000806002600084815260200190815260200160002060009054906101000a900473ffffffffffffffffffffffffffffffffffffffff169050600073ffffffffffffffffffffffffffffffffffffffff168173ffffffffffffffffffffffffffffffffffffffff1614156115fc576040517f08c379a00000000000000000000000000000000000000000000000000000000081526004016115f3906148b0565b60405180910390fd5b80915050919050565b61160d612822565b73ffffffffffffffffffffffffffffffffffffffff1661162b611c4d565b73ffffffffffffffffffffffffffffffffffffffff1614611681576040517f08c379a000000000000000000000000000000000000000000000000000000000815260040161167890614970565b60405180910390fd5b60005b815181101561177e576116e18282815181106116c9577f4e487b7100000000000000000000000000000000000000000000000000000000600052603260045260246000fd5b6020026020010151600b612ce990919063ffffffff16565b1561176a5781818151811061171f577f4e487b7100000000000000000000000000000000000000000000000000000000600052603260045260246000fd5b602002602001015173ffffffffffffffffffffffffffffffffffffffff167fffbd2575fe2e4e63d9838a8ecda40fcd0b19fce153bc5d6fe10157c938086af960405160405180910390a25b6001816117779190614c9b565b9050611684565b5050565b601260029054906101000a900460ff1681565b60008073ffffffffffffffffffffffffffffffffffffffff168273ffffffffffffffffffffffffffffffffffffffff161415611806576040517f08c379a00000000000000000000000000000000000000000000000000000000081526004016117fd90614890565b60405180910390fd5b600360008373ffffffffffffffffffffffffffffffffffffffff1673ffffffffffffffffffffffffffffffffffffffff168152602001908152602001600020549050919050565b611855612822565b73ffffffffffffffffffffffffffffffffffffffff16611873611c4d565b73ffffffffffffffffffffffffffffffffffffffff16146118c9576040517f08c379a00000000000000000000000000000000000000000000000000000000081526004016118c090614970565b60405180910390fd5b6118d36000612d19565b565b6118dd612822565b73ffffffffffffffffffffffffffffffffffffffff166118fb611c4d565b73ffffffffffffffffffffffffffffffffffffffff1614611951576040517f08c379a000000000000000000000000000000000000000000000000000000000815260040161194890614970565b60405180910390fd5b601260019054906101000a900460ff16156119a1576040517f08c379a0000000000000000000000000000000000000000000000000000000008152600401611998906148f0565b60405180910390fd5b601260029054906101000a900460ff16156119f1576040517f08c379a00000000000000000000000000000000000000000000000000000000081526004016119e8906147f0565b60405180910390fd5b601260009054906101000a900460ff16611a40576040517f08c379a0000000000000000000000000000000000000000000000000000000008152600401611a3790614a30565b60405180910390fd5b6000601260006101000a81548160ff021916908315150217905550427f71fbf9de7004f7d16da327d0c26b8f8b29e6efeaa59d67d1b76d6cc71fe47aae60405160405180910390a2565b611a92612822565b73ffffffffffffffffffffffffffffffffffffffff16611ab0611c4d565b73ffffffffffffffffffffffffffffffffffffffff1614611b06576040517f08c379a0000000000000000000000000000000000000000000000000000000008152600401611afd90614970565b60405180910390fd5b6107d081511115611b4c576040517f08c379a0000000000000000000000000000000000000000000000000000000008152600401611b4390614870565b60405180910390fd5b60005b8151811015611c4957611bac828281518110611b94577f4e487b7100000000000000000000000000000000000000000000000000000000600052603260045260246000fd5b6020026020010151600d612ce990919063ffffffff16565b15611c3557818181518110611bea577f4e487b7100000000000000000000000000000000000000000000000000000000600052603260045260246000fd5b602002602001015173ffffffffffffffffffffffffffffffffffffffff167fa850ae9193f515cbae8d35e8925bd2be26627fc91bce650b8652ed254e9cab0360405160405180910390a25b600181611c429190614c9b565b9050611b4f565b5050565b6000600660009054906101000a900473ffffffffffffffffffffffffffffffffffffffff16905090565b611c7f612822565b73ffffffffffffffffffffffffffffffffffffffff16611c9d611c4d565b73ffffffffffffffffffffffffffffffffffffffff1614611cf3576040517f08c379a0000000000000000000000000000000000000000000000000000000008152600401611cea90614970565b60405180910390fd5b601260009054906101000a900460ff1615611d43576040517f08c379a0000000000000000000000000000000000000000000000000000000008152600401611d3a90614af0565b60405180910390fd5b601260019054906101000a900460ff1615611d93576040517f08c379a0000000000000000000000000000000000000000000000000000000008152600401611d8a906148f0565b60405180910390fd5b601260029054906101000a900460ff1615611de3576040517f08c379a0000000000000000000000000000000000000000000000000000000008152600401611dda906147f0565b60405180910390fd5b80601260036101000a81548160ff021916908360ff1602179055506001601260016101000a81548160ff021916908315150217905550427f0ab3861e918916d082a16babf84acd725febc223f0833c5c03d8b14ec900174360405160405180910390a250565b606060018054611e5890614e85565b80601f0160208091040260200160405190810160405280929190818152602001828054611e8490614e85565b8015611ed15780601f10611ea657610100808354040283529160200191611ed1565b820191906000526020600020905b815481529060010190602001808311611eb457829003601f168201915b5050505050905090565b6000601260009054906101000a900460ff1615611efc57600f549050611f21565b601260019054906101000a900460ff1615611f1b576010549050611f21565b60115490505b90565b611f36611f2f612822565b8383612ddf565b5050565b611f4b611f45612822565b8361294f565b611f8a576040517f08c379a0000000000000000000000000000000000000000000000000000000008152600401611f8190614a70565b60405180910390fd5b611f9684848484612f4c565b50505050565b6060601260009054906101000a900460ff1680611fc55750601260019054906101000a900460ff165b80611fdc5750601260029054906101000a900460ff165b61201b576040517f08c379a000000000000000000000000000000000000000000000000000000000815260040161201290614930565b60405180910390fd5b60026007541415612061576040517f08c379a000000000000000000000000000000000000000000000000000000000815260040161205890614ab0565b60405180910390fd5b600260078190555061207284612fa8565b60008467ffffffffffffffff8111156120b4577f4e487b7100000000000000000000000000000000000000000000000000000000600052604160045260246000fd5b6040519080825280602002602001820160405280156120e25781602001602082028036833780820191505090505b50905060005b858110156121e0576121873386868481811061212d577f4e487b7100000000000000000000000000000000000000000000000000000000600052603260045260246000fd5b905060200281019061213f9190614b46565b8080601f016020809104026020016040519081016040528093929190818152602001838380828437600081840152601f19601f8201169050808301925050505050505061322d565b8282815181106121c0577f4e487b7100000000000000000000000000000000000000000000000000000000600052603260045260246000fd5b6020026020010181815250506001816121d99190614c9b565b90506120e8565b50601260019054906101000a900460ff161561224d5784601360003373ffffffffffffffffffffffffffffffffffffffff1673ffffffffffffffffffffffffffffffffffffffff16815260200190815260200160002060008282546122459190614c9b565b925050819055505b8091505060016007819055509392505050565b612268612822565b73ffffffffffffffffffffffffffffffffffffffff16612286611c4d565b73ffffffffffffffffffffffffffffffffffffffff16146122dc576040517f08c379a00000000000000000000000000000000000000000000000000000000081526004016122d390614970565b60405180910390fd5b600b6000808201600080820160006122f49190613ac9565b50505050427fe6c1af3c9d98f7bd5c64e272869df1cf551c48d88c0338f013f5f9e741aa144c60405160405180910390a2565b60606123328261282a565b612371576040517f08c379a0000000000000000000000000000000000000000000000000000000008152600401612368906149b0565b60405180910390fd5b600060096000848152602001908152602001600020805461239190614e85565b80601f01602080910402602001604051908101604052809291908181526020018280546123bd90614e85565b801561240a5780601f106123df5761010080835404028352916020019161240a565b820191906000526020600020905b8154815290600101906020018083116123ed57829003601f168201915b5050505050905060006008805461242090614e85565b80601f016020809104026020016040519081016040528092919081815260200182805461244c90614e85565b80156124995780601f1061246e57610100808354040283529160200191612499565b820191906000526020600020905b81548152906001019060200180831161247c57829003601f168201915b505050505090506000815114156124b4578192505050612518565b6000825111156124e95780826040516020016124d1929190614646565b60405160208183030381529060405292505050612518565b806124f38561325c565b604051602001612504929190614646565b604051602081830303815290604052925050505b919050565b60105481565b60136020528060005260406000206000915090505481565b600061255182600d612c8990919063ffffffff16565b9050919050565b6000600560008473ffffffffffffffffffffffffffffffffffffffff1673ffffffffffffffffffffffffffffffffffffffff16815260200190815260200160002060008373ffffffffffffffffffffffffffffffffffffffff1673ffffffffffffffffffffffffffffffffffffffff16815260200190815260200160002060009054906101000a900460ff16905092915050565b6125f4612822565b73ffffffffffffffffffffffffffffffffffffffff16612612611c4d565b73ffffffffffffffffffffffffffffffffffffffff1614612668576040517f08c379a000000000000000000000000000000000000000000000000000000000815260040161265f90614970565b60405180910390fd5b600073ffffffffffffffffffffffffffffffffffffffff168173ffffffffffffffffffffffffffffffffffffffff1614156126d8576040517f08c379a00000000000000000000000000000000000000000000000000000000081526004016126cf90614750565b60405180910390fd5b6126e181612d19565b50565b6126ec612822565b73ffffffffffffffffffffffffffffffffffffffff1661270a611c4d565b73ffffffffffffffffffffffffffffffffffffffff1614612760576040517f08c379a000000000000000000000000000000000000000000000000000000000815260040161275790614970565b60405180910390fd5b4781111561276d57600080fd5b8173ffffffffffffffffffffffffffffffffffffffff166108fc479081150290604051600060405180830381858888f193505050501580156127b3573d6000803e3d6000fd5b505050565b60007f01ffc9a7000000000000000000000000000000000000000000000000000000007bffffffffffffffffffffffffffffffffffffffffffffffffffffffff1916827bffffffffffffffffffffffffffffffffffffffffffffffffffffffff1916149050919050565b600033905090565b60008073ffffffffffffffffffffffffffffffffffffffff166002600084815260200190815260200160002060009054906101000a900473ffffffffffffffffffffffffffffffffffffffff1673ffffffffffffffffffffffffffffffffffffffff1614159050919050565b816004600083815260200190815260200160002060006101000a81548173ffffffffffffffffffffffffffffffffffffffff021916908373ffffffffffffffffffffffffffffffffffffffff160217905550808273ffffffffffffffffffffffffffffffffffffffff1661290983611553565b73ffffffffffffffffffffffffffffffffffffffff167f8c5be1e5ebec7d5bd14f71427d1e84f3dd0314c0f7b2291e5b200ac8c7c3b92560405160405180910390a45050565b600061295a8261282a565b612999576040517f08c379a000000000000000000000000000000000000000000000000000000000815260040161299090614810565b60405180910390fd5b60006129a483611553565b90508073ffffffffffffffffffffffffffffffffffffffff168473ffffffffffffffffffffffffffffffffffffffff161480612a1357508373ffffffffffffffffffffffffffffffffffffffff166129fb84610da6565b73ffffffffffffffffffffffffffffffffffffffff16145b80612a245750612a238185612558565b5b91505092915050565b8273ffffffffffffffffffffffffffffffffffffffff16612a4d82611553565b73ffffffffffffffffffffffffffffffffffffffff1614612aa3576040517f08c379a0000000000000000000000000000000000000000000000000000000008152600401612a9a90614990565b60405180910390fd5b600073ffffffffffffffffffffffffffffffffffffffff168273ffffffffffffffffffffffffffffffffffffffff161415612b13576040517f08c379a0000000000000000000000000000000000000000000000000000000008152600401612b0a90614790565b60405180910390fd5b612b1e838383613409565b612b29600082612896565b6001600360008573ffffffffffffffffffffffffffffffffffffffff1673ffffffffffffffffffffffffffffffffffffffff1681526020019081526020016000206000828254612b799190614d7c565b925050819055506001600360008473ffffffffffffffffffffffffffffffffffffffff1673ffffffffffffffffffffffffffffffffffffffff1681526020019081526020016000206000828254612bd09190614c9b565b92505081905550816002600083815260200190815260200160002060006101000a81548173ffffffffffffffffffffffffffffffffffffffff021916908373ffffffffffffffffffffffffffffffffffffffff160217905550808273ffffffffffffffffffffffffffffffffffffffff168473ffffffffffffffffffffffffffffffffffffffff167fddf252ad1be2c89b69c2b068fc378daa952ba7f163c4a11628f55a4df523b3ef60405160405180910390a4505050565b6000612cb1836000018373ffffffffffffffffffffffffffffffffffffffff1660001b61340e565b905092915050565b6000612ce1836000018373ffffffffffffffffffffffffffffffffffffffff1660001b613431565b905092915050565b6000612d11836000018373ffffffffffffffffffffffffffffffffffffffff1660001b6135b7565b905092915050565b6000600660009054906101000a900473ffffffffffffffffffffffffffffffffffffffff16905081600660006101000a81548173ffffffffffffffffffffffffffffffffffffffff021916908373ffffffffffffffffffffffffffffffffffffffff1602179055508173ffffffffffffffffffffffffffffffffffffffff168173ffffffffffffffffffffffffffffffffffffffff167f8be0079c531659141344cd1fd0a4f28419497f9722a3daafe3b4186f6b6457e060405160405180910390a35050565b8173ffffffffffffffffffffffffffffffffffffffff168373ffffffffffffffffffffffffffffffffffffffff161415612e4e576040517f08c379a0000000000000000000000000000000000000000000000000000000008152600401612e45906147b0565b60405180910390fd5b80600560008573ffffffffffffffffffffffffffffffffffffffff1673ffffffffffffffffffffffffffffffffffffffff16815260200190815260200160002060008473ffffffffffffffffffffffffffffffffffffffff1673ffffffffffffffffffffffffffffffffffffffff16815260200190815260200160002060006101000a81548160ff0219169083151502179055508173ffffffffffffffffffffffffffffffffffffffff168373ffffffffffffffffffffffffffffffffffffffff167f17307eab39ab6107e8899845ad3d59bd9653f200f220920489ca2b5937696c3183604051612f3f91906146f3565b60405180910390a3505050565b612f57848484612a2d565b612f6384848484613627565b612fa2576040517f08c379a0000000000000000000000000000000000000000000000000000000008152600401612f9990614730565b60405180910390fd5b50505050565b600073ffffffffffffffffffffffffffffffffffffffff163373ffffffffffffffffffffffffffffffffffffffff161415612fe257600080fd5b60008111613025576040517f08c379a000000000000000000000000000000000000000000000000000000000815260040161301c906149d0565b60405180910390fd5b601260009054906101000a900460ff16156130875761304333611314565b613082576040517f08c379a000000000000000000000000000000000000000000000000000000000815260040161307990614a50565b60405180910390fd5b61322a565b601260019054906101000a900460ff16156131d8576130a53361253b565b6130e4576040517f08c379a00000000000000000000000000000000000000000000000000000000081526004016130db90614a50565b60405180910390fd5b601260039054906101000a900460ff1660ff16601360003373ffffffffffffffffffffffffffffffffffffffff1673ffffffffffffffffffffffffffffffffffffffff16815260200190815260200160002054826131429190614c9b565b1115613183576040517f08c379a000000000000000000000000000000000000000000000000000000000815260040161317a90614a10565b60405180910390fd5b34816010546131929190614d22565b11156131d3576040517f08c379a00000000000000000000000000000000000000000000000000000000081526004016131ca90614ad0565b60405180910390fd5b613229565b34816011546131e79190614d22565b1115613228576040517f08c379a000000000000000000000000000000000000000000000000000000000815260040161321f90614830565b60405180910390fd5b5b5b50565b6000613239600a6137be565b6000613245600a6137d4565b90506132528482856137e2565b8091505092915050565b606060008214156132a4576040518060400160405280600181526020017f30000000000000000000000000000000000000000000000000000000000000008152509050613404565b600082905060005b600082146132d65780806132bf90614ee8565b915050600a826132cf9190614cf1565b91506132ac565b60008167ffffffffffffffff811115613318577f4e487b7100000000000000000000000000000000000000000000000000000000600052604160045260246000fd5b6040519080825280601f01601f19166020018201604052801561334a5781602001600182028036833780820191505090505b5090505b600085146133fd576001826133639190614d7c565b9150600a856133729190614f31565b603061337e9190614c9b565b60f81b8183815181106133ba577f4e487b7100000000000000000000000000000000000000000000000000000000600052603260045260246000fd5b60200101907effffffffffffffffffffffffffffffffffffffffffffffffffffffffffffff1916908160001a905350600a856133f69190614cf1565b945061334e565b8093505050505b919050565b505050565b600080836001016000848152602001908152602001600020541415905092915050565b600080836001016000848152602001908152602001600020549050600081146135ab5760006001826134639190614d7c565b905060006001866000018054905061347b9190614d7c565b90508181146135365760008660000182815481106134c2577f4e487b7100000000000000000000000000000000000000000000000000000000600052603260045260246000fd5b906000526020600020015490508087600001848154811061350c577f4e487b7100000000000000000000000000000000000000000000000000000000600052603260045260246000fd5b90600052602060002001819055508387600101600083815260200190815260200160002081905550505b85600001805480613570577f4e487b7100000000000000000000000000000000000000000000000000000000600052603160045260246000fd5b6001900381819060005260206000200160009055905585600101600086815260200190815260200160002060009055600193505050506135b1565b60009150505b92915050565b60006135c3838361340e565b61361c578260000182908060018154018082558091505060019003906000526020600020016000909190919091505582600001805490508360010160008481526020019081526020016000208190555060019050613621565b600090505b92915050565b60006136488473ffffffffffffffffffffffffffffffffffffffff166137fb565b156137b1578373ffffffffffffffffffffffffffffffffffffffff1663150b7a02613671612822565b8786866040518563ffffffff1660e01b81526004016136939493929190614685565b602060405180830381600087803b1580156136ad57600080fd5b505af19250505080156136de57506040513d601f19601f820116820180604052508101906136db9190613fd2565b60015b613761573d806000811461370e576040519150601f19603f3d011682016040523d82523d6000602084013e613713565b606091505b50600081511415613759576040517f08c379a000000000000000000000000000000000000000000000000000000000815260040161375090614730565b60405180910390fd5b805181602001fd5b63150b7a0260e01b7bffffffffffffffffffffffffffffffffffffffffffffffffffffffff1916817bffffffffffffffffffffffffffffffffffffffffffffffffffffffff1916149150506137b6565b600190505b949350505050565b6001816000016000828254019250508190555050565b600081600001549050919050565b6137ec838361380e565b6137f6828261382c565b505050565b600080823b905060008111915050919050565b6138288282604051806020016040528060008152506138a0565b5050565b6138358261282a565b613874576040517f08c379a000000000000000000000000000000000000000000000000000000000815260040161386b90614950565b60405180910390fd5b8060096000848152602001908152602001600020908051906020019061389b929190613aea565b505050565b6138aa83836138fb565b6138b76000848484613627565b6138f6576040517f08c379a00000000000000000000000000000000000000000000000000000000081526004016138ed90614730565b60405180910390fd5b505050565b600073ffffffffffffffffffffffffffffffffffffffff168273ffffffffffffffffffffffffffffffffffffffff16141561396b576040517f08c379a0000000000000000000000000000000000000000000000000000000008152600401613962906148d0565b60405180910390fd5b6139748161282a565b156139b4576040517f08c379a00000000000000000000000000000000000000000000000000000000081526004016139ab90614770565b60405180910390fd5b6139c060008383613409565b6001600360008473ffffffffffffffffffffffffffffffffffffffff1673ffffffffffffffffffffffffffffffffffffffff1681526020019081526020016000206000828254613a109190614c9b565b92505081905550816002600083815260200190815260200160002060006101000a81548173ffffffffffffffffffffffffffffffffffffffff021916908373ffffffffffffffffffffffffffffffffffffffff160217905550808273ffffffffffffffffffffffffffffffffffffffff16600073ffffffffffffffffffffffffffffffffffffffff167fddf252ad1be2c89b69c2b068fc378daa952ba7f163c4a11628f55a4df523b3ef60405160405180910390a45050565b5080546000825590600052602060002090810190613ae79190613b70565b50565b828054613af690614e85565b90600052602060002090601f016020900481019282613b185760008555613b5f565b82601f10613b3157805160ff1916838001178555613b5f565b82800160010185558215613b5f579182015b82811115613b5e578251825591602001919060010190613b43565b5b509050613b6c9190613b8d565b5090565b5b80821115613b89576000816000905550600101613b71565b5090565b5b80821115613ba6576000816000905550600101613b8e565b5090565b6000613bbd613bb884614bc2565b614b9d565b90508083825260208201905082856020860282011115613bdc57600080fd5b60005b85811015613c0c5781613bf28882613c54565b845260208401935060208301925050600181019050613bdf565b5050509392505050565b6000613c29613c2484614bee565b614b9d565b905082815260208101848484011115613c4157600080fd5b613c4c848285614e43565b509392505050565b600081359050613c6381615760565b92915050565b600081359050613c7881615777565b92915050565b600082601f830112613c8f57600080fd5b8135613c9f848260208601613baa565b91505092915050565b60008083601f840112613cba57600080fd5b8235905067ffffffffffffffff811115613cd357600080fd5b602083019150836020820283011115613ceb57600080fd5b9250929050565b600081359050613d018161578e565b92915050565b600081359050613d16816157a5565b92915050565b600081519050613d2b816157a5565b92915050565b600082601f830112613d4257600080fd5b8135613d52848260208601613c16565b91505092915050565b600081359050613d6a816157bc565b92915050565b600081359050613d7f816157d3565b92915050565b600060208284031215613d9757600080fd5b6000613da584828501613c54565b91505092915050565b60008060408385031215613dc157600080fd5b6000613dcf85828601613c69565b9250506020613de085828601613d5b565b9150509250929050565b60008060408385031215613dfd57600080fd5b6000613e0b85828601613c54565b9250506020613e1c85828601613c54565b9150509250929050565b600080600060608486031215613e3b57600080fd5b6000613e4986828701613c54565b9350506020613e5a86828701613c54565b9250506040613e6b86828701613d5b565b9150509250925092565b60008060008060808587031215613e8b57600080fd5b6000613e9987828801613c54565b9450506020613eaa87828801613c54565b9350506040613ebb87828801613d5b565b925050606085013567ffffffffffffffff811115613ed857600080fd5b613ee487828801613d31565b91505092959194509250565b60008060408385031215613f0357600080fd5b6000613f1185828601613c54565b9250506020613f2285828601613cf2565b9150509250929050565b60008060408385031215613f3f57600080fd5b6000613f4d85828601613c54565b9250506020613f5e85828601613d5b565b9150509250929050565b600060208284031215613f7a57600080fd5b600082013567ffffffffffffffff811115613f9457600080fd5b613fa084828501613c7e565b91505092915050565b600060208284031215613fbb57600080fd5b6000613fc984828501613d07565b91505092915050565b600060208284031215613fe457600080fd5b6000613ff284828501613d1c565b91505092915050565b60006020828403121561400d57600080fd5b600061401b84828501613d5b565b91505092915050565b60008060006040848603121561403957600080fd5b600061404786828701613d5b565b935050602084013567ffffffffffffffff81111561406457600080fd5b61407086828701613ca8565b92509250509250925092565b60006020828403121561408e57600080fd5b600061409c84828501613d70565b91505092915050565b60006140b18383614619565b60208301905092915050565b6140c681614db0565b82525050565b60006140d782614c2f565b6140e18185614c5d565b93506140ec83614c1f565b8060005b8381101561411d57815161410488826140a5565b975061410f83614c50565b9250506001810190506140f0565b5085935050505092915050565b61413381614dd4565b82525050565b600061414482614c3a565b61414e8185614c6e565b935061415e818560208601614e52565b6141678161501e565b840191505092915050565b600061417d82614c45565b6141878185614c7f565b9350614197818560208601614e52565b6141a08161501e565b840191505092915050565b60006141b682614c45565b6141c08185614c90565b93506141d0818560208601614e52565b80840191505092915050565b60006141e9603283614c7f565b91506141f48261502f565b604082019050919050565b600061420c602683614c7f565b91506142178261507e565b604082019050919050565b600061422f601c83614c7f565b915061423a826150cd565b602082019050919050565b6000614252602483614c7f565b915061425d826150f6565b604082019050919050565b6000614275601983614c7f565b915061428082615145565b602082019050919050565b6000614298601283614c7f565b91506142a38261516e565b602082019050919050565b60006142bb601283614c7f565b91506142c682615197565b602082019050919050565b60006142de602c83614c7f565b91506142e9826151c0565b604082019050919050565b6000614301601283614c7f565b915061430c8261520f565b602082019050919050565b6000614324603883614c7f565b915061432f82615238565b604082019050919050565b6000614347601c83614c7f565b915061435282615287565b602082019050919050565b600061436a602a83614c7f565b9150614375826152b0565b604082019050919050565b600061438d602983614c7f565b9150614398826152ff565b604082019050919050565b60006143b0602083614c7f565b91506143bb8261534e565b602082019050919050565b60006143d3601583614c7f565b91506143de82615377565b602082019050919050565b60006143f6602c83614c7f565b9150614401826153a0565b604082019050919050565b6000614419602583614c7f565b9150614424826153ef565b604082019050919050565b600061443c602c83614c7f565b91506144478261543e565b604082019050919050565b600061445f602083614c7f565b915061446a8261548d565b602082019050919050565b6000614482602983614c7f565b915061448d826154b6565b604082019050919050565b60006144a5602f83614c7f565b91506144b082615505565b604082019050919050565b60006144c8601c83614c7f565b91506144d382615554565b602082019050919050565b60006144eb602183614c7f565b91506144f68261557d565b604082019050919050565b600061450e602183614c7f565b9150614519826155cc565b604082019050919050565b6000614531601383614c7f565b915061453c8261561b565b602082019050919050565b6000614554601983614c7f565b915061455f82615644565b602082019050919050565b6000614577603183614c7f565b91506145828261566d565b604082019050919050565b600061459a601583614c7f565b91506145a5826156bc565b602082019050919050565b60006145bd601f83614c7f565b91506145c8826156e5565b602082019050919050565b60006145e0601b83614c7f565b91506145eb8261570e565b602082019050919050565b6000614603601383614c7f565b915061460e82615737565b602082019050919050565b61462281614e2c565b82525050565b61463181614e2c565b82525050565b61464081614e36565b82525050565b600061465282856141ab565b915061465e82846141ab565b91508190509392505050565b600060208201905061467f60008301846140bd565b92915050565b600060808201905061469a60008301876140bd565b6146a760208301866140bd565b6146b46040830185614628565b81810360608301526146c68184614139565b905095945050505050565b600060208201905081810360008301526146eb81846140cc565b905092915050565b6000602082019050614708600083018461412a565b92915050565b600060208201905081810360008301526147288184614172565b905092915050565b60006020820190508181036000830152614749816141dc565b9050919050565b60006020820190508181036000830152614769816141ff565b9050919050565b6000602082019050818103600083015261478981614222565b9050919050565b600060208201905081810360008301526147a981614245565b9050919050565b600060208201905081810360008301526147c981614268565b9050919050565b600060208201905081810360008301526147e98161428b565b9050919050565b60006020820190508181036000830152614809816142ae565b9050919050565b60006020820190508181036000830152614829816142d1565b9050919050565b60006020820190508181036000830152614849816142f4565b9050919050565b6000602082019050818103600083015261486981614317565b9050919050565b600060208201905081810360008301526148898161433a565b9050919050565b600060208201905081810360008301526148a98161435d565b9050919050565b600060208201905081810360008301526148c981614380565b9050919050565b600060208201905081810360008301526148e9816143a3565b9050919050565b60006020820190508181036000830152614909816143c6565b9050919050565b60006020820190508181036000830152614929816143e9565b9050919050565b600060208201905081810360008301526149498161440c565b9050919050565b600060208201905081810360008301526149698161442f565b9050919050565b6000602082019050818103600083015261498981614452565b9050919050565b600060208201905081810360008301526149a981614475565b9050919050565b600060208201905081810360008301526149c981614498565b9050919050565b600060208201905081810360008301526149e9816144bb565b9050919050565b60006020820190508181036000830152614a09816144de565b9050919050565b60006020820190508181036000830152614a2981614501565b9050919050565b60006020820190508181036000830152614a4981614524565b9050919050565b60006020820190508181036000830152614a6981614547565b9050919050565b60006020820190508181036000830152614a898161456a565b9050919050565b60006020820190508181036000830152614aa98161458d565b9050919050565b60006020820190508181036000830152614ac9816145b0565b9050919050565b60006020820190508181036000830152614ae9816145d3565b9050919050565b60006020820190508181036000830152614b09816145f6565b9050919050565b6000602082019050614b256000830184614628565b92915050565b6000602082019050614b406000830184614637565b92915050565b60008083356001602003843603038112614b5f57600080fd5b80840192508235915067ffffffffffffffff821115614b7d57600080fd5b602083019250600182023603831315614b9557600080fd5b509250929050565b6000614ba7614bb8565b9050614bb38282614eb7565b919050565b6000604051905090565b600067ffffffffffffffff821115614bdd57614bdc614fef565b5b602082029050602081019050919050565b600067ffffffffffffffff821115614c0957614c08614fef565b5b614c128261501e565b9050602081019050919050565b6000819050602082019050919050565b600081519050919050565b600081519050919050565b600081519050919050565b6000602082019050919050565b600082825260208201905092915050565b600082825260208201905092915050565b600082825260208201905092915050565b600081905092915050565b6000614ca682614e2c565b9150614cb183614e2c565b9250827fffffffffffffffffffffffffffffffffffffffffffffffffffffffffffffffff03821115614ce657614ce5614f62565b5b828201905092915050565b6000614cfc82614e2c565b9150614d0783614e2c565b925082614d1757614d16614f91565b5b828204905092915050565b6000614d2d82614e2c565b9150614d3883614e2c565b9250817fffffffffffffffffffffffffffffffffffffffffffffffffffffffffffffffff0483118215151615614d7157614d70614f62565b5b828202905092915050565b6000614d8782614e2c565b9150614d9283614e2c565b925082821015614da557614da4614f62565b5b828203905092915050565b6000614dbb82614e0c565b9050919050565b6000614dcd82614e0c565b9050919050565b60008115159050919050565b60007fffffffff0000000000000000000000000000000000000000000000000000000082169050919050565b600073ffffffffffffffffffffffffffffffffffffffff82169050919050565b6000819050919050565b600060ff82169050919050565b82818337600083830152505050565b60005b83811015614e70578082015181840152602081019050614e55565b83811115614e7f576000848401525b50505050565b60006002820490506001821680614e9d57607f821691505b60208210811415614eb157614eb0614fc0565b5b50919050565b614ec08261501e565b810181811067ffffffffffffffff82111715614edf57614ede614fef565b5b80604052505050565b6000614ef382614e2c565b91507fffffffffffffffffffffffffffffffffffffffffffffffffffffffffffffffff821415614f2657614f25614f62565b5b600182019050919050565b6000614f3c82614e2c565b9150614f4783614e2c565b925082614f5757614f56614f91565b5b828206905092915050565b7f4e487b7100000000000000000000000000000000000000000000000000000000600052601160045260246000fd5b7f4e487b7100000000000000000000000000000000000000000000000000000000600052601260045260246000fd5b7f4e487b7100000000000000000000000000000000000000000000000000000000600052602260045260246000fd5b7f4e487b7100000000000000000000000000000000000000000000000000000000600052604160045260246000fd5b6000601f19601f8301169050919050565b7f4552433732313a207472616e7366657220746f206e6f6e20455243373231526560008201527f63656976657220696d706c656d656e7465720000000000000000000000000000602082015250565b7f4f776e61626c653a206e6577206f776e657220697320746865207a65726f206160008201527f6464726573730000000000000000000000000000000000000000000000000000602082015250565b7f4552433732313a20746f6b656e20616c7265616479206d696e74656400000000600082015250565b7f4552433732313a207472616e7366657220746f20746865207a65726f2061646460008201527f7265737300000000000000000000000000000000000000000000000000000000602082015250565b7f4552433732313a20617070726f766520746f2063616c6c657200000000000000600082015250565b7f53616c65206973206e6f74206163746976650000000000000000000000000000600082015250565b7f53616c65206973206e6f74207061757365640000000000000000000000000000600082015250565b7f4552433732313a206f70657261746f7220717565727920666f72206e6f6e657860008201527f697374656e7420746f6b656e0000000000000000000000000000000000000000602082015250565b7f496e73756666696369656e742066756e64730000000000000000000000000000600082015250565b7f4552433732313a20617070726f76652063616c6c6572206973206e6f74206f7760008201527f6e6572206e6f7220617070726f76656420666f7220616c6c0000000000000000602082015250565b7f57686974656c6973742063616e6e6f7420657863656564203230303000000000600082015250565b7f4552433732313a2062616c616e636520717565727920666f7220746865207a6560008201527f726f206164647265737300000000000000000000000000000000000000000000602082015250565b7f4552433732313a206f776e657220717565727920666f72206e6f6e657869737460008201527f656e7420746f6b656e0000000000000000000000000000000000000000000000602082015250565b7f4552433732313a206d696e7420746f20746865207a65726f2061646472657373600082015250565b7f50726573616c65206973206e6f74207061757365640000000000000000000000600082015250565b7f4552433732313a20617070726f76656420717565727920666f72206e6f6e657860008201527f697374656e7420746f6b656e0000000000000000000000000000000000000000602082015250565b7f546865726520617265206e6f2073616c65732061742074686973207465726d6960008201527f6e61746564000000000000000000000000000000000000000000000000000000602082015250565b7f4552433732314d657461646174613a2055524920736574206f66206e6f6e657860008201527f697374656e7420746f6b656e0000000000000000000000000000000000000000602082015250565b7f4f776e61626c653a2063616c6c6572206973206e6f7420746865206f776e6572600082015250565b7f4552433732313a207472616e73666572206f6620746f6b656e2074686174206960008201527f73206e6f74206f776e0000000000000000000000000000000000000000000000602082015250565b7f4552433732314d657461646174613a2055524920717565727920666f72206e6f60008201527f6e6578697374656e7420746f6b656e0000000000000000000000000000000000602082015250565b7f4d757374206d696e74206174206c65617374206f6e6520746f6b656e00000000600082015250565b7f4552433732313a20617070726f76616c20746f2063757272656e74206f776e6560008201527f7200000000000000000000000000000000000000000000000000000000000000602082015250565b7f50726573616c652c206c696d6974656420616d6f756e74206f6620746f6b656e60008201527f7300000000000000000000000000000000000000000000000000000000000000602082015250565b7f4769766561776179206e6f742061637469766500000000000000000000000000600082015250565b7f416464726573732069736e27742077686974656c697374656400000000000000600082015250565b7f4552433732313a207472616e736665722063616c6c6572206973206e6f74206f60008201527f776e6572206e6f7220617070726f766564000000000000000000000000000000602082015250565b7f50726573616c65206973206e6f74206163746976650000000000000000000000600082015250565b7f5265656e7472616e637947756172643a207265656e7472616e742063616c6c00600082015250565b7f50726573616c652c20696e73756666696369656e742066756e64730000000000600082015250565b7f4769766561776179206e6f742070617573656400000000000000000000000000600082015250565b61576981614db0565b811461577457600080fd5b50565b61578081614dc2565b811461578b57600080fd5b50565b61579781614dd4565b81146157a257600080fd5b50565b6157ae81614de0565b81146157b957600080fd5b50565b6157c581614e2c565b81146157d057600080fd5b50565b6157dc81614e36565b81146157e757600080fd5b5056fea2646970667358221220843e57eb7f8c6614ae58a9be776be4c715101d93fe4d23da4ab0ae21e1d163ef64736f6c63430008040033",
  "linkReferences": {},
  "deployedLinkReferences": {}
}