{
  "_format": "hh-sol-artifact-1",
  "contractName": "Turtleverse",
  "sourceName": "contracts/Turtleverse.sol",
  "abi": [
    {
      "inputs": [
        {
          "internalType": "string",
          "name": "name_",
          "type": "string"
        },
        {
          "internalType": "string",
          "name": "symbol_",
          "type": "string"
        },
        {
          "internalType": "string",
          "name": "baseURI_",
          "type": "string"
        },
        {
          "internalType": "uint8",
          "name": "presaleLimit_",
          "type": "uint8"
        },
        {
          "internalType": "address payable",
          "name": "payout_",
          "type": "address"
        },
        {
          "internalType": "uint256",
          "name": "maxWithdrawal_",
          "type": "uint256"
        }
      ],
      "stateMutability": "nonpayable",
      "type": "constructor"
    },
    {
      "anonymous": false,
      "inputs": [
        {
          "indexed": true,
          "internalType": "address",
          "name": "_address",
          "type": "address"
        }
      ],
      "name": "AddedToWhitelist",
      "type": "event"
    },
    {
      "anonymous": false,
      "inputs": [
        {
          "indexed": true,
          "internalType": "address",
          "name": "owner",
          "type": "address"
        },
        {
          "indexed": true,
          "internalType": "address",
          "name": "approved",
          "type": "address"
        },
        {
          "indexed": true,
          "internalType": "uint256",
          "name": "tokenId",
          "type": "uint256"
        }
      ],
      "name": "Approval",
      "type": "event"
    },
    {
      "anonymous": false,
      "inputs": [
        {
          "indexed": true,
          "internalType": "address",
          "name": "owner",
          "type": "address"
        },
        {
          "indexed": true,
          "internalType": "address",
          "name": "operator",
          "type": "address"
        },
        {
          "indexed": false,
          "internalType": "bool",
          "name": "approved",
          "type": "bool"
        }
      ],
      "name": "ApprovalForAll",
      "type": "event"
    },
    {
      "anonymous": false,
      "inputs": [
        {
          "indexed": true,
          "internalType": "uint256",
          "name": "_giveawayStopTime",
          "type": "uint256"
        }
      ],
      "name": "GiveawayPaused",
      "type": "event"
    },
    {
      "anonymous": false,
      "inputs": [
        {
          "indexed": true,
          "internalType": "uint256",
          "name": "_giveawayStartTime",
          "type": "uint256"
        }
      ],
      "name": "GiveawayStart",
      "type": "event"
    },
    {
      "anonymous": false,
      "inputs": [
        {
          "indexed": true,
          "internalType": "address",
          "name": "previousOwner",
          "type": "address"
        },
        {
          "indexed": true,
          "internalType": "address",
          "name": "newOwner",
          "type": "address"
        }
      ],
      "name": "OwnershipTransferred",
      "type": "event"
    },
    {
      "anonymous": false,
      "inputs": [
        {
          "indexed": true,
          "internalType": "uint256",
          "name": "_presaleStopTime",
          "type": "uint256"
        }
      ],
      "name": "PresalePaused",
      "type": "event"
    },
    {
      "anonymous": false,
      "inputs": [
        {
          "indexed": true,
          "internalType": "uint256",
          "name": "_presaleStartTime",
          "type": "uint256"
        }
      ],
      "name": "PresaleStart",
      "type": "event"
    },
    {
      "anonymous": false,
      "inputs": [
        {
          "indexed": true,
          "internalType": "address",
          "name": "_address",
          "type": "address"
        }
      ],
      "name": "RemovedFromWhitelist",
      "type": "event"
    },
    {
      "anonymous": false,
      "inputs": [
        {
          "indexed": true,
          "internalType": "uint256",
          "name": "_saleStopTime",
          "type": "uint256"
        }
      ],
      "name": "SalePaused",
      "type": "event"
    },
    {
      "anonymous": false,
      "inputs": [
        {
          "indexed": true,
          "internalType": "uint256",
          "name": "_saleStartTime",
          "type": "uint256"
        }
      ],
      "name": "SaleStart",
      "type": "event"
    },
    {
      "anonymous": false,
      "inputs": [
        {
          "indexed": true,
          "internalType": "address",
          "name": "from",
          "type": "address"
        },
        {
          "indexed": true,
          "internalType": "address",
          "name": "to",
          "type": "address"
        },
        {
          "indexed": true,
          "internalType": "uint256",
          "name": "tokenId",
          "type": "uint256"
        }
      ],
      "name": "Transfer",
      "type": "event"
    },
    {
      "inputs": [
        {
          "internalType": "address[]",
          "name": "addresses",
          "type": "address[]"
        }
      ],
      "name": "addToWhitelist",
      "outputs": [],
      "stateMutability": "nonpayable",
      "type": "function"
    },
    {
      "inputs": [
        {
          "internalType": "address",
          "name": "to",
          "type": "address"
        },
        {
          "internalType": "uint256",
          "name": "tokenId",
          "type": "uint256"
        }
      ],
      "name": "approve",
      "outputs": [],
      "stateMutability": "nonpayable",
      "type": "function"
    },
    {
      "inputs": [
        {
          "internalType": "address",
          "name": "owner",
          "type": "address"
        }
      ],
      "name": "balanceOf",
      "outputs": [
        {
          "internalType": "uint256",
          "name": "",
          "type": "uint256"
        }
      ],
      "stateMutability": "view",
      "type": "function"
    },
    {
      "inputs": [
        {
          "internalType": "uint256",
          "name": "tokenId",
          "type": "uint256"
        }
      ],
      "name": "getApproved",
      "outputs": [
        {
          "internalType": "address",
          "name": "",
          "type": "address"
        }
      ],
      "stateMutability": "view",
      "type": "function"
    },
    {
      "inputs": [],
      "name": "giveawayActive",
      "outputs": [
        {
          "internalType": "bool",
          "name": "",
          "type": "bool"
        }
      ],
      "stateMutability": "view",
      "type": "function"
    },
    {
      "inputs": [],
      "name": "giveawayPriceToMint",
      "outputs": [
        {
          "internalType": "uint256",
          "name": "",
          "type": "uint256"
        }
      ],
      "stateMutability": "view",
      "type": "function"
    },
    {
      "inputs": [
        {
          "internalType": "address",
          "name": "owner",
          "type": "address"
        },
        {
          "internalType": "address",
          "name": "operator",
          "type": "address"
        }
      ],
      "name": "isApprovedForAll",
      "outputs": [
        {
          "internalType": "bool",
          "name": "",
          "type": "bool"
        }
      ],
      "stateMutability": "view",
      "type": "function"
    },
    {
      "inputs": [
        {
          "internalType": "uint256",
          "name": "tokensAmount",
          "type": "uint256"
        }
      ],
      "name": "mintTokens",
      "outputs": [
        {
          "internalType": "uint256[]",
          "name": "",
          "type": "uint256[]"
        }
      ],
      "stateMutability": "payable",
      "type": "function"
    },
    {
      "inputs": [],
      "name": "name",
      "outputs": [
        {
          "internalType": "string",
          "name": "",
          "type": "string"
        }
      ],
      "stateMutability": "view",
      "type": "function"
    },
    {
      "inputs": [],
      "name": "owner",
      "outputs": [
        {
          "internalType": "address",
          "name": "",
          "type": "address"
        }
      ],
      "stateMutability": "view",
      "type": "function"
    },
    {
      "inputs": [
        {
          "internalType": "uint256",
          "name": "tokenId",
          "type": "uint256"
        }
      ],
      "name": "ownerOf",
      "outputs": [
        {
          "internalType": "address",
          "name": "",
          "type": "address"
        }
      ],
      "stateMutability": "view",
      "type": "function"
    },
    {
      "inputs": [],
      "name": "pauseGiveaway",
      "outputs": [],
      "stateMutability": "nonpayable",
      "type": "function"
    },
    {
      "inputs": [],
      "name": "pausePresale",
      "outputs": [],
      "stateMutability": "nonpayable",
      "type": "function"
    },
    {
      "inputs": [],
      "name": "pausePublicSale",
      "outputs": [],
      "stateMutability": "nonpayable",
      "type": "function"
    },
    {
      "inputs": [],
      "name": "presaleActive",
      "outputs": [
        {
          "internalType": "bool",
          "name": "",
          "type": "bool"
        }
      ],
      "stateMutability": "view",
      "type": "function"
    },
    {
      "inputs": [],
      "name": "presalePriceToMint",
      "outputs": [
        {
          "internalType": "uint256",
          "name": "",
          "type": "uint256"
        }
      ],
      "stateMutability": "view",
      "type": "function"
    },
    {
      "inputs": [],
      "name": "price",
      "outputs": [
        {
          "internalType": "uint256",
          "name": "",
          "type": "uint256"
        }
      ],
      "stateMutability": "view",
      "type": "function"
    },
    {
      "inputs": [],
      "name": "priceToMint",
      "outputs": [
        {
          "internalType": "uint256",
          "name": "",
          "type": "uint256"
        }
      ],
      "stateMutability": "view",
      "type": "function"
    },
    {
      "inputs": [
        {
          "internalType": "address",
          "name": "",
          "type": "address"
        }
      ],
      "name": "purchasedAmount",
      "outputs": [
        {
          "internalType": "uint256",
          "name": "",
          "type": "uint256"
        }
      ],
      "stateMutability": "view",
      "type": "function"
    },
    {
      "inputs": [
        {
          "internalType": "address[]",
          "name": "addresses",
          "type": "address[]"
        }
      ],
      "name": "removeFromWhitelist",
      "outputs": [],
      "stateMutability": "nonpayable",
      "type": "function"
    },
    {
      "inputs": [],
      "name": "renounceOwnership",
      "outputs": [],
      "stateMutability": "nonpayable",
      "type": "function"
    },
    {
      "inputs": [
        {
          "internalType": "uint256",
          "name": "_tokenId",
          "type": "uint256"
        },
        {
          "internalType": "uint256",
          "name": "_salePrice",
          "type": "uint256"
        }
      ],
      "name": "royaltyInfo",
      "outputs": [
        {
          "internalType": "address",
          "name": "receiver",
          "type": "address"
        },
        {
          "internalType": "uint256",
          "name": "royaltyAmount",
          "type": "uint256"
        }
      ],
      "stateMutability": "view",
      "type": "function"
    },
    {
      "inputs": [
        {
          "internalType": "address",
          "name": "from",
          "type": "address"
        },
        {
          "internalType": "address",
          "name": "to",
          "type": "address"
        },
        {
          "internalType": "uint256",
          "name": "tokenId",
          "type": "uint256"
        }
      ],
      "name": "safeTransferFrom",
      "outputs": [],
      "stateMutability": "nonpayable",
      "type": "function"
    },
    {
      "inputs": [
        {
          "internalType": "address",
          "name": "from",
          "type": "address"
        },
        {
          "internalType": "address",
          "name": "to",
          "type": "address"
        },
        {
          "internalType": "uint256",
          "name": "tokenId",
          "type": "uint256"
        },
        {
          "internalType": "bytes",
          "name": "_data",
          "type": "bytes"
        }
      ],
      "name": "safeTransferFrom",
      "outputs": [],
      "stateMutability": "nonpayable",
      "type": "function"
    },
    {
      "inputs": [],
      "name": "saleActive",
      "outputs": [
        {
          "internalType": "bool",
          "name": "",
          "type": "bool"
        }
      ],
      "stateMutability": "view",
      "type": "function"
    },
    {
      "inputs": [
        {
          "internalType": "address",
          "name": "operator",
          "type": "address"
        },
        {
          "internalType": "bool",
          "name": "approved",
          "type": "bool"
        }
      ],
      "name": "setApprovalForAll",
      "outputs": [],
      "stateMutability": "nonpayable",
      "type": "function"
    },
    {
      "inputs": [
        {
          "internalType": "string",
          "name": "baseURI_",
          "type": "string"
        }
      ],
      "name": "setBaseURI",
      "outputs": [],
      "stateMutability": "nonpayable",
      "type": "function"
    },
    {
      "inputs": [
        {
          "internalType": "uint256",
          "name": "amount",
          "type": "uint256"
        }
      ],
      "name": "setMaxWithdrawal",
      "outputs": [],
      "stateMutability": "nonpayable",
      "type": "function"
    },
    {
      "inputs": [],
      "name": "startGiveaway",
      "outputs": [],
      "stateMutability": "nonpayable",
      "type": "function"
    },
    {
      "inputs": [],
      "name": "startPresale",
      "outputs": [],
      "stateMutability": "nonpayable",
      "type": "function"
    },
    {
      "inputs": [],
      "name": "startPublicSale",
      "outputs": [],
      "stateMutability": "nonpayable",
      "type": "function"
    },
    {
      "inputs": [
        {
          "internalType": "bytes4",
          "name": "interfaceId",
          "type": "bytes4"
        }
      ],
      "name": "supportsInterface",
      "outputs": [
        {
          "internalType": "bool",
          "name": "",
          "type": "bool"
        }
      ],
      "stateMutability": "view",
      "type": "function"
    },
    {
      "inputs": [],
      "name": "symbol",
      "outputs": [
        {
          "internalType": "string",
          "name": "",
          "type": "string"
        }
      ],
      "stateMutability": "view",
      "type": "function"
    },
    {
      "inputs": [
        {
          "internalType": "uint256",
          "name": "tokenId",
          "type": "uint256"
        }
      ],
      "name": "tokenURI",
      "outputs": [
        {
          "internalType": "string",
          "name": "",
          "type": "string"
        }
      ],
      "stateMutability": "view",
      "type": "function"
    },
    {
      "inputs": [],
      "name": "totalSupply",
      "outputs": [
        {
          "internalType": "uint256",
          "name": "",
          "type": "uint256"
        }
      ],
      "stateMutability": "view",
      "type": "function"
    },
    {
      "inputs": [
        {
          "internalType": "address",
          "name": "from",
          "type": "address"
        },
        {
          "internalType": "address",
          "name": "to",
          "type": "address"
        },
        {
          "internalType": "uint256",
          "name": "tokenId",
          "type": "uint256"
        }
      ],
      "name": "transferFrom",
      "outputs": [],
      "stateMutability": "nonpayable",
      "type": "function"
    },
    {
      "inputs": [
        {
          "internalType": "address",
          "name": "newOwner",
          "type": "address"
        }
      ],
      "name": "transferOwnership",
      "outputs": [],
      "stateMutability": "nonpayable",
      "type": "function"
    },
    {
      "inputs": [],
      "name": "withdraw",
      "outputs": [],
      "stateMutability": "nonpayable",
      "type": "function"
    }
  ],
  "bytecode": "0x60806040526000600f556658d15e1762800060105566b1a2bc2ec500006011553480156200002c57600080fd5b50604051620062423803806200624283398181016040528101906200005291906200036d565b858581600090805190602001906200006c92919062000206565b5080600190805190602001906200008592919062000206565b505050620000a86200009c6200013860201b60201c565b6200014060201b60201c565b600160078190555083600b9080519060200190620000c892919062000206565b5082600d60006101000a81548160ff021916908360ff16021790555081600d60016101000a81548173ffffffffffffffffffffffffffffffffffffffff021916908373ffffffffffffffffffffffffffffffffffffffff16021790555080600c8190555050505050505062000657565b600033905090565b6000600660009054906101000a900473ffffffffffffffffffffffffffffffffffffffff16905081600660006101000a81548173ffffffffffffffffffffffffffffffffffffffff021916908373ffffffffffffffffffffffffffffffffffffffff1602179055508173ffffffffffffffffffffffffffffffffffffffff168173ffffffffffffffffffffffffffffffffffffffff167f8be0079c531659141344cd1fd0a4f28419497f9722a3daafe3b4186f6b6457e060405160405180910390a35050565b82805462000214906200052e565b90600052602060002090601f01602090048101928262000238576000855562000284565b82601f106200025357805160ff191683800117855562000284565b8280016001018555821562000284579182015b828111156200028357825182559160200191906001019062000266565b5b50905062000293919062000297565b5090565b5b80821115620002b257600081600090555060010162000298565b5090565b6000620002cd620002c78462000477565b6200044e565b905082815260208101848484011115620002e657600080fd5b620002f3848285620004f8565b509392505050565b6000815190506200030c8162000609565b92915050565b600082601f8301126200032457600080fd5b815162000336848260208601620002b6565b91505092915050565b600081519050620003508162000623565b92915050565b60008151905062000367816200063d565b92915050565b60008060008060008060c087890312156200038757600080fd5b600087015167ffffffffffffffff811115620003a257600080fd5b620003b089828a0162000312565b965050602087015167ffffffffffffffff811115620003ce57600080fd5b620003dc89828a0162000312565b955050604087015167ffffffffffffffff811115620003fa57600080fd5b6200040889828a0162000312565b94505060606200041b89828a0162000356565b93505060806200042e89828a01620002fb565b92505060a06200044189828a016200033f565b9150509295509295509295565b60006200045a6200046d565b905062000468828262000564565b919050565b6000604051905090565b600067ffffffffffffffff821115620004955762000494620005c9565b5b620004a082620005f8565b9050602081019050919050565b6000620004ba82620004c1565b9050919050565b600073ffffffffffffffffffffffffffffffffffffffff82169050919050565b6000819050919050565b600060ff82169050919050565b60005b8381101562000518578082015181840152602081019050620004fb565b8381111562000528576000848401525b50505050565b600060028204905060018216806200054757607f821691505b602082108114156200055e576200055d6200059a565b5b50919050565b6200056f82620005f8565b810181811067ffffffffffffffff82111715620005915762000590620005c9565b5b80604052505050565b7f4e487b7100000000000000000000000000000000000000000000000000000000600052602260045260246000fd5b7f4e487b7100000000000000000000000000000000000000000000000000000000600052604160045260246000fd5b6000601f19601f8301169050919050565b6200061481620004ad565b81146200062057600080fd5b50565b6200062e81620004e1565b81146200063a57600080fd5b50565b6200064881620004eb565b81146200065457600080fd5b50565b615bdb80620006676000396000f3fe6080604052600436106102255760003560e01c806353135ca0116101235780638da5cb5b116100ab578063b88d4fde1161006f578063b88d4fde14610777578063c87b56dd146107a0578063dc9403a6146107dd578063e985e9c514610808578063f2fde38b1461084557610225565b80638da5cb5b1461069d57806395d89b41146106c857806397304ced146106f3578063a035b1fe14610723578063a22cb4651461074e57610225565b806368428a1b116100f257806368428a1b146105de57806370a0823114610609578063715018a6146106465780637c0f8aa01461065d5780637f6497831461067457610225565b806353135ca014610524578063548db1741461054f57806355f804b3146105785780636352211e146105a157610225565b806318160ddd116101b15780633ccfd60b116101755780633ccfd60b1461045157806342842e0e1461046857806344c4dcc1146104915780634616d4b2146104ce5780634dc1dbec146104f957610225565b806318160ddd1461036b57806323b872dd146103965780632a55205a146103bf5780632b3f4d92146103fd5780633926384d1461042857610225565b8063070f5c09116101f8578063070f5c09146102c0578063081812fc146102d7578063095ea7b3146103145780630c1c972a1461033d5780630c41f4971461035457610225565b806301ffc9a71461022a57806304c98b2b1461026757806305e4e88a1461027e57806306fdde0314610295575b600080fd5b34801561023657600080fd5b50610251600480360381019061024c9190613fb8565b61086e565b60405161025e919061480d565b60405180910390f35b34801561027357600080fd5b5061027c610950565b005b34801561028a57600080fd5b50610293610b06565b005b3480156102a157600080fd5b506102aa610cbc565b6040516102b79190614828565b60405180910390f35b3480156102cc57600080fd5b506102d5610d4e565b005b3480156102e357600080fd5b506102fe60048036038101906102f9919061404b565b610f03565b60405161030b919061475b565b60405180910390f35b34801561032057600080fd5b5061033b60048036038101906103369190613f3b565b610f88565b005b34801561034957600080fd5b506103526110a0565b005b34801561036057600080fd5b50610369611256565b005b34801561037757600080fd5b5061038061140b565b60405161038d9190614d0a565b60405180910390f35b3480156103a257600080fd5b506103bd60048036038101906103b89190613e35565b61141c565b005b3480156103cb57600080fd5b506103e660048036038101906103e19190614074565b61147c565b6040516103f49291906147c2565b60405180910390f35b34801561040957600080fd5b5061041261156c565b60405161041f9190614d0a565b60405180910390f35b34801561043457600080fd5b5061044f600480360381019061044a919061404b565b611572565b005b34801561045d57600080fd5b5061046661163b565b005b34801561047457600080fd5b5061048f600480360381019061048a9190613e35565b61185e565b005b34801561049d57600080fd5b506104b860048036038101906104b39190613dd0565b61187e565b6040516104c59190614d0a565b60405180910390f35b3480156104da57600080fd5b506104e3611896565b6040516104f0919061480d565b60405180910390f35b34801561050557600080fd5b5061050e6118a9565b60405161051b9190614d0a565b60405180910390f35b34801561053057600080fd5b506105396118af565b604051610546919061480d565b60405180910390f35b34801561055b57600080fd5b5061057660048036038101906105719190613f77565b6118c2565b005b34801561058457600080fd5b5061059f600480360381019061059a919061400a565b611ac9565b005b3480156105ad57600080fd5b506105c860048036038101906105c3919061404b565b611b5f565b6040516105d5919061475b565b60405180910390f35b3480156105ea57600080fd5b506105f3611c11565b604051610600919061480d565b60405180910390f35b34801561061557600080fd5b50610630600480360381019061062b9190613dd0565b611c24565b60405161063d9190614d0a565b60405180910390f35b34801561065257600080fd5b5061065b611cdc565b005b34801561066957600080fd5b50610672611d64565b005b34801561068057600080fd5b5061069b60048036038101906106969190613f77565b611f19565b005b3480156106a957600080fd5b506106b2612120565b6040516106bf919061475b565b60405180910390f35b3480156106d457600080fd5b506106dd61214a565b6040516106ea9190614828565b60405180910390f35b61070d6004803603810190610708919061404b565b6121dc565b60405161071a91906147eb565b60405180910390f35b34801561072f57600080fd5b50610738612427565b6040516107459190614d0a565b60405180910390f35b34801561075a57600080fd5b5061077560048036038101906107709190613eff565b6124ed565b005b34801561078357600080fd5b5061079e60048036038101906107999190613e84565b612503565b005b3480156107ac57600080fd5b506107c760048036038101906107c2919061404b565b612565565b6040516107d49190614828565b60405180910390f35b3480156107e957600080fd5b506107f261260c565b6040516107ff9190614d0a565b60405180910390f35b34801561081457600080fd5b5061082f600480360381019061082a9190613df9565b612612565b60405161083c919061480d565b60405180910390f35b34801561085157600080fd5b5061086c60048036038101906108679190613dd0565b6126a6565b005b60007f80ac58cd000000000000000000000000000000000000000000000000000000007bffffffffffffffffffffffffffffffffffffffffffffffffffffffff1916827bffffffffffffffffffffffffffffffffffffffffffffffffffffffff1916148061093957507f5b5e139f000000000000000000000000000000000000000000000000000000007bffffffffffffffffffffffffffffffffffffffffffffffffffffffff1916827bffffffffffffffffffffffffffffffffffffffffffffffffffffffff1916145b8061094957506109488261279e565b5b9050919050565b610958612808565b73ffffffffffffffffffffffffffffffffffffffff16610976612120565b73ffffffffffffffffffffffffffffffffffffffff16146109cc576040517f08c379a00000000000000000000000000000000000000000000000000000000081526004016109c390614aea565b60405180910390fd5b601260009054906101000a900460ff1615610a1c576040517f08c379a0000000000000000000000000000000000000000000000000000000008152600401610a1390614cca565b60405180910390fd5b601260019054906101000a900460ff1615610a6c576040517f08c379a0000000000000000000000000000000000000000000000000000000008152600401610a6390614aaa565b60405180910390fd5b601260029054906101000a900460ff1615610abc576040517f08c379a0000000000000000000000000000000000000000000000000000000008152600401610ab39061498a565b60405180910390fd5b6001601260016101000a81548160ff021916908315150217905550427f0ab3861e918916d082a16babf84acd725febc223f0833c5c03d8b14ec900174360405160405180910390a2565b610b0e612808565b73ffffffffffffffffffffffffffffffffffffffff16610b2c612120565b73ffffffffffffffffffffffffffffffffffffffff1614610b82576040517f08c379a0000000000000000000000000000000000000000000000000000000008152600401610b7990614aea565b60405180910390fd5b601260009054906101000a900460ff1615610bd2576040517f08c379a0000000000000000000000000000000000000000000000000000000008152600401610bc990614cca565b60405180910390fd5b601260019054906101000a900460ff1615610c22576040517f08c379a0000000000000000000000000000000000000000000000000000000008152600401610c1990614aaa565b60405180910390fd5b601260029054906101000a900460ff1615610c72576040517f08c379a0000000000000000000000000000000000000000000000000000000008152600401610c699061498a565b60405180910390fd5b6001601260006101000a81548160ff021916908315150217905550427fea160f4a1725183ff307b55e355bb04139d56298efc5853e17f99ade82e2f38960405160405180910390a2565b606060008054610ccb9061501f565b80601f0160208091040260200160405190810160405280929190818152602001828054610cf79061501f565b8015610d445780601f10610d1957610100808354040283529160200191610d44565b820191906000526020600020905b815481529060010190602001808311610d2757829003601f168201915b5050505050905090565b610d56612808565b73ffffffffffffffffffffffffffffffffffffffff16610d74612120565b73ffffffffffffffffffffffffffffffffffffffff1614610dca576040517f08c379a0000000000000000000000000000000000000000000000000000000008152600401610dc190614aea565b60405180910390fd5b601260009054906101000a900460ff1615610e1a576040517f08c379a0000000000000000000000000000000000000000000000000000000008152600401610e1190614cca565b60405180910390fd5b601260029054906101000a900460ff1615610e6a576040517f08c379a0000000000000000000000000000000000000000000000000000000008152600401610e619061498a565b60405180910390fd5b601260019054906101000a900460ff16610eb9576040517f08c379a0000000000000000000000000000000000000000000000000000000008152600401610eb090614c0a565b60405180910390fd5b6000601260016101000a81548160ff021916908315150217905550427fbbda50ff3083b4adfffcd3c2e8042a8b354ca16013534ab9367661c5a4cb7b2360405160405180910390a2565b6000610f0e82612810565b610f4d576040517f08c379a0000000000000000000000000000000000000000000000000000000008152600401610f4490614aca565b60405180910390fd5b6004600083815260200190815260200160002060009054906101000a900473ffffffffffffffffffffffffffffffffffffffff169050919050565b6000610f9382611b5f565b90508073ffffffffffffffffffffffffffffffffffffffff168373ffffffffffffffffffffffffffffffffffffffff161415611004576040517f08c379a0000000000000000000000000000000000000000000000000000000008152600401610ffb90614b8a565b60405180910390fd5b8073ffffffffffffffffffffffffffffffffffffffff16611023612808565b73ffffffffffffffffffffffffffffffffffffffff16148061105257506110518161104c612808565b612612565b5b611091576040517f08c379a0000000000000000000000000000000000000000000000000000000008152600401611088906149ea565b60405180910390fd5b61109b838361287c565b505050565b6110a8612808565b73ffffffffffffffffffffffffffffffffffffffff166110c6612120565b73ffffffffffffffffffffffffffffffffffffffff161461111c576040517f08c379a000000000000000000000000000000000000000000000000000000000815260040161111390614aea565b60405180910390fd5b601260009054906101000a900460ff161561116c576040517f08c379a000000000000000000000000000000000000000000000000000000000815260040161116390614cca565b60405180910390fd5b601260019054906101000a900460ff16156111bc576040517f08c379a00000000000000000000000000000000000000000000000000000000081526004016111b390614aaa565b60405180910390fd5b601260029054906101000a900460ff161561120c576040517f08c379a00000000000000000000000000000000000000000000000000000000081526004016112039061498a565b60405180910390fd5b6001601260026101000a81548160ff021916908315150217905550427feeae71454a2a58ac8d7c3a2ac3db1f29f81cbd0024aae4292a55139dd9d3560a60405160405180910390a2565b61125e612808565b73ffffffffffffffffffffffffffffffffffffffff1661127c612120565b73ffffffffffffffffffffffffffffffffffffffff16146112d2576040517f08c379a00000000000000000000000000000000000000000000000000000000081526004016112c990614aea565b60405180910390fd5b601260009054906101000a900460ff1615611322576040517f08c379a000000000000000000000000000000000000000000000000000000000815260040161131990614cca565b60405180910390fd5b601260019054906101000a900460ff1615611372576040517f08c379a000000000000000000000000000000000000000000000000000000000815260040161136990614aaa565b60405180910390fd5b601260029054906101000a900460ff166113c1576040517f08c379a00000000000000000000000000000000000000000000000000000000081526004016113b89061496a565b60405180910390fd5b6000601260026101000a81548160ff021916908315150217905550427f4616a0782e5635981b28be1cd36934a60655b462c370d8bd8092c969abc990d060405160405180910390a2565b60006114176008612935565b905090565b61142d611427612808565b82612943565b61146c576040517f08c379a000000000000000000000000000000000000000000000000000000000815260040161146390614bea565b60405180910390fd5b611477838383612a21565b505050565b60008061148884612810565b6114c7576040517f08c379a00000000000000000000000000000000000000000000000000000000081526004016114be90614baa565b60405180910390fd5b600073ffffffffffffffffffffffffffffffffffffffff16600d60019054906101000a900473ffffffffffffffffffffffffffffffffffffffff1673ffffffffffffffffffffffffffffffffffffffff16141561152357600080fd5b600d60019054906101000a900473ffffffffffffffffffffffffffffffffffffffff166127106103e8856115579190614edb565b6115619190614eaa565b915091509250929050565b600f5481565b61157a612808565b73ffffffffffffffffffffffffffffffffffffffff16611598612120565b73ffffffffffffffffffffffffffffffffffffffff16146115ee576040517f08c379a00000000000000000000000000000000000000000000000000000000081526004016115e590614aea565b60405180910390fd5b60008111611631576040517f08c379a000000000000000000000000000000000000000000000000000000000815260040161162890614b2a565b60405180910390fd5b80600c8190555050565b611643612808565b73ffffffffffffffffffffffffffffffffffffffff16611661612120565b73ffffffffffffffffffffffffffffffffffffffff16146116b7576040517f08c379a00000000000000000000000000000000000000000000000000000000081526004016116ae90614aea565b60405180910390fd5b600260075414156116fd576040517f08c379a00000000000000000000000000000000000000000000000000000000081526004016116f490614c8a565b60405180910390fd5b600260078190555060004711611748576040517f08c379a000000000000000000000000000000000000000000000000000000000815260040161173f9061494a565b60405180910390fd5b600c5447101561178d576040517f08c379a000000000000000000000000000000000000000000000000000000000815260040161178490614c4a565b60405180910390fd5b600073ffffffffffffffffffffffffffffffffffffffff16600d60019054906101000a900473ffffffffffffffffffffffffffffffffffffffff1673ffffffffffffffffffffffffffffffffffffffff1614156117e957600080fd5b600d60019054906101000a900473ffffffffffffffffffffffffffffffffffffffff1673ffffffffffffffffffffffffffffffffffffffff166108fc600c549081150290604051600060405180830381858888f19350505050158015611853573d6000803e3d6000fd5b506001600781905550565b61187983838360405180602001604052806000815250612503565b505050565b600e6020528060005260406000206000915090505481565b601260009054906101000a900460ff1681565b60115481565b601260019054906101000a900460ff1681565b6118ca612808565b73ffffffffffffffffffffffffffffffffffffffff166118e8612120565b73ffffffffffffffffffffffffffffffffffffffff161461193e576040517f08c379a000000000000000000000000000000000000000000000000000000000815260040161193590614aea565b60405180910390fd5b6000815111611982576040517f08c379a000000000000000000000000000000000000000000000000000000000815260040161197990614a6a565b60405180910390fd5b6107d0815111156119c8576040517f08c379a00000000000000000000000000000000000000000000000000000000081526004016119bf90614a0a565b60405180910390fd5b60005b8151811015611ac557611a28828281518110611a10577f4e487b7100000000000000000000000000000000000000000000000000000000600052603260045260246000fd5b60200260200101516009612c7d90919063ffffffff16565b15611ab157818181518110611a66577f4e487b7100000000000000000000000000000000000000000000000000000000600052603260045260246000fd5b602002602001015173ffffffffffffffffffffffffffffffffffffffff167fcdd2e9b91a56913d370075169cefa1602ba36be5301664f752192bb1709df75760405160405180910390a25b600181611abe9190614e54565b90506119cb565b5050565b611ad1612808565b73ffffffffffffffffffffffffffffffffffffffff16611aef612120565b73ffffffffffffffffffffffffffffffffffffffff1614611b45576040517f08c379a0000000000000000000000000000000000000000000000000000000008152600401611b3c90614aea565b60405180910390fd5b80600b9080519060200190611b5b929190613b5e565b5050565b6000806002600084815260200190815260200160002060009054906101000a900473ffffffffffffffffffffffffffffffffffffffff169050600073ffffffffffffffffffffffffffffffffffffffff168173ffffffffffffffffffffffffffffffffffffffff161415611c08576040517f08c379a0000000000000000000000000000000000000000000000000000000008152600401611bff90614a4a565b60405180910390fd5b80915050919050565b601260029054906101000a900460ff1681565b60008073ffffffffffffffffffffffffffffffffffffffff168273ffffffffffffffffffffffffffffffffffffffff161415611c95576040517f08c379a0000000000000000000000000000000000000000000000000000000008152600401611c8c90614a2a565b60405180910390fd5b600360008373ffffffffffffffffffffffffffffffffffffffff1673ffffffffffffffffffffffffffffffffffffffff168152602001908152602001600020549050919050565b611ce4612808565b73ffffffffffffffffffffffffffffffffffffffff16611d02612120565b73ffffffffffffffffffffffffffffffffffffffff1614611d58576040517f08c379a0000000000000000000000000000000000000000000000000000000008152600401611d4f90614aea565b60405180910390fd5b611d626000612cad565b565b611d6c612808565b73ffffffffffffffffffffffffffffffffffffffff16611d8a612120565b73ffffffffffffffffffffffffffffffffffffffff1614611de0576040517f08c379a0000000000000000000000000000000000000000000000000000000008152600401611dd790614aea565b60405180910390fd5b601260019054906101000a900460ff1615611e30576040517f08c379a0000000000000000000000000000000000000000000000000000000008152600401611e2790614aaa565b60405180910390fd5b601260029054906101000a900460ff1615611e80576040517f08c379a0000000000000000000000000000000000000000000000000000000008152600401611e779061498a565b60405180910390fd5b601260009054906101000a900460ff16611ecf576040517f08c379a0000000000000000000000000000000000000000000000000000000008152600401611ec690614bca565b60405180910390fd5b6000601260006101000a81548160ff021916908315150217905550427f71fbf9de7004f7d16da327d0c26b8f8b29e6efeaa59d67d1b76d6cc71fe47aae60405160405180910390a2565b611f21612808565b73ffffffffffffffffffffffffffffffffffffffff16611f3f612120565b73ffffffffffffffffffffffffffffffffffffffff1614611f95576040517f08c379a0000000000000000000000000000000000000000000000000000000008152600401611f8c90614aea565b60405180910390fd5b6000815111611fd9576040517f08c379a0000000000000000000000000000000000000000000000000000000008152600401611fd09061488a565b60405180910390fd5b6107d08151111561201f576040517f08c379a000000000000000000000000000000000000000000000000000000000815260040161201690614a0a565b60405180910390fd5b60005b815181101561211c5761207f828281518110612067577f4e487b7100000000000000000000000000000000000000000000000000000000600052603260045260246000fd5b60200260200101516009612d7390919063ffffffff16565b15612108578181815181106120bd577f4e487b7100000000000000000000000000000000000000000000000000000000600052603260045260246000fd5b602002602001015173ffffffffffffffffffffffffffffffffffffffff167fa850ae9193f515cbae8d35e8925bd2be26627fc91bce650b8652ed254e9cab0360405160405180910390a25b6001816121159190614e54565b9050612022565b5050565b6000600660009054906101000a900473ffffffffffffffffffffffffffffffffffffffff16905090565b6060600180546121599061501f565b80601f01602080910402602001604051908101604052809291908181526020018280546121859061501f565b80156121d25780601f106121a7576101008083540402835291602001916121d2565b820191906000526020600020905b8154815290600101906020018083116121b557829003601f168201915b5050505050905090565b6060601260009054906101000a900460ff16806122055750601260019054906101000a900460ff165b8061221c5750601260029054906101000a900460ff165b61225b576040517f08c379a00000000000000000000000000000000000000000000000000000000081526004016122529061484a565b60405180910390fd5b600260075414156122a1576040517f08c379a000000000000000000000000000000000000000000000000000000000815260040161229890614c8a565b60405180910390fd5b60026007819055506122b282612da3565b60008267ffffffffffffffff8111156122f4577f4e487b7100000000000000000000000000000000000000000000000000000000600052604160045260246000fd5b6040519080825280602002602001820160405280156123225781602001602082028036833780820191505090505b50905060005b8381101561239257612339336130b7565b828281518110612372577f4e487b7100000000000000000000000000000000000000000000000000000000600052603260045260246000fd5b60200260200101818152505060018161238b9190614e54565b9050612328565b50601260019054906101000a900460ff16806123ba5750601260029054906101000a900460ff165b156124165782600e60003373ffffffffffffffffffffffffffffffffffffffff1673ffffffffffffffffffffffffffffffffffffffff168152602001908152602001600020600082825461240e9190614e54565b925050819055505b809150506001600781905550919050565b6000601260009054906101000a900460ff16806124505750601260019054906101000a900460ff165b806124675750601260029054906101000a900460ff165b6124a6576040517f08c379a000000000000000000000000000000000000000000000000000000000815260040161249d9061484a565b60405180910390fd5b601260009054906101000a900460ff16156124c557600f5490506124ea565b601260019054906101000a900460ff16156124e45760105490506124ea565b60115490505b90565b6124ff6124f8612808565b83836130e4565b5050565b61251461250e612808565b83612943565b612553576040517f08c379a000000000000000000000000000000000000000000000000000000000815260040161254a90614bea565b60405180910390fd5b61255f84848484613251565b50505050565b606061257082612810565b6125af576040517f08c379a00000000000000000000000000000000000000000000000000000000081526004016125a690614b4a565b60405180910390fd5b60006125b96132ad565b905060008151116125d95760405180602001604052806000815250612604565b806125e38461333f565b6040516020016125f4929190614737565b6040516020818303038152906040525b915050919050565b60105481565b6000600560008473ffffffffffffffffffffffffffffffffffffffff1673ffffffffffffffffffffffffffffffffffffffff16815260200190815260200160002060008373ffffffffffffffffffffffffffffffffffffffff1673ffffffffffffffffffffffffffffffffffffffff16815260200190815260200160002060009054906101000a900460ff16905092915050565b6126ae612808565b73ffffffffffffffffffffffffffffffffffffffff166126cc612120565b73ffffffffffffffffffffffffffffffffffffffff1614612722576040517f08c379a000000000000000000000000000000000000000000000000000000000815260040161271990614aea565b60405180910390fd5b600073ffffffffffffffffffffffffffffffffffffffff168173ffffffffffffffffffffffffffffffffffffffff161415612792576040517f08c379a0000000000000000000000000000000000000000000000000000000008152600401612789906148ca565b60405180910390fd5b61279b81612cad565b50565b60007f01ffc9a7000000000000000000000000000000000000000000000000000000007bffffffffffffffffffffffffffffffffffffffffffffffffffffffff1916827bffffffffffffffffffffffffffffffffffffffffffffffffffffffff1916149050919050565b600033905090565b60008073ffffffffffffffffffffffffffffffffffffffff166002600084815260200190815260200160002060009054906101000a900473ffffffffffffffffffffffffffffffffffffffff1673ffffffffffffffffffffffffffffffffffffffff1614159050919050565b816004600083815260200190815260200160002060006101000a81548173ffffffffffffffffffffffffffffffffffffffff021916908373ffffffffffffffffffffffffffffffffffffffff160217905550808273ffffffffffffffffffffffffffffffffffffffff166128ef83611b5f565b73ffffffffffffffffffffffffffffffffffffffff167f8c5be1e5ebec7d5bd14f71427d1e84f3dd0314c0f7b2291e5b200ac8c7c3b92560405160405180910390a45050565b600081600001549050919050565b600061294e82612810565b61298d576040517f08c379a0000000000000000000000000000000000000000000000000000000008152600401612984906149ca565b60405180910390fd5b600061299883611b5f565b90508073ffffffffffffffffffffffffffffffffffffffff168473ffffffffffffffffffffffffffffffffffffffff161480612a0757508373ffffffffffffffffffffffffffffffffffffffff166129ef84610f03565b73ffffffffffffffffffffffffffffffffffffffff16145b80612a185750612a178185612612565b5b91505092915050565b8273ffffffffffffffffffffffffffffffffffffffff16612a4182611b5f565b73ffffffffffffffffffffffffffffffffffffffff1614612a97576040517f08c379a0000000000000000000000000000000000000000000000000000000008152600401612a8e90614b0a565b60405180910390fd5b600073ffffffffffffffffffffffffffffffffffffffff168273ffffffffffffffffffffffffffffffffffffffff161415612b07576040517f08c379a0000000000000000000000000000000000000000000000000000000008152600401612afe9061490a565b60405180910390fd5b612b128383836134ec565b612b1d60008261287c565b6001600360008573ffffffffffffffffffffffffffffffffffffffff1673ffffffffffffffffffffffffffffffffffffffff1681526020019081526020016000206000828254612b6d9190614f35565b925050819055506001600360008473ffffffffffffffffffffffffffffffffffffffff1673ffffffffffffffffffffffffffffffffffffffff1681526020019081526020016000206000828254612bc49190614e54565b92505081905550816002600083815260200190815260200160002060006101000a81548173ffffffffffffffffffffffffffffffffffffffff021916908373ffffffffffffffffffffffffffffffffffffffff160217905550808273ffffffffffffffffffffffffffffffffffffffff168473ffffffffffffffffffffffffffffffffffffffff167fddf252ad1be2c89b69c2b068fc378daa952ba7f163c4a11628f55a4df523b3ef60405160405180910390a4505050565b6000612ca5836000018373ffffffffffffffffffffffffffffffffffffffff1660001b6134f1565b905092915050565b6000600660009054906101000a900473ffffffffffffffffffffffffffffffffffffffff16905081600660006101000a81548173ffffffffffffffffffffffffffffffffffffffff021916908373ffffffffffffffffffffffffffffffffffffffff1602179055508173ffffffffffffffffffffffffffffffffffffffff168173ffffffffffffffffffffffffffffffffffffffff167f8be0079c531659141344cd1fd0a4f28419497f9722a3daafe3b4186f6b6457e060405160405180910390a35050565b6000612d9b836000018373ffffffffffffffffffffffffffffffffffffffff1660001b613677565b905092915050565b600073ffffffffffffffffffffffffffffffffffffffff163373ffffffffffffffffffffffffffffffffffffffff161415612ddd57600080fd5b612710612de861140b565b10612e28576040517f08c379a0000000000000000000000000000000000000000000000000000000008152600401612e1f90614cea565b60405180910390fd5b60008111612e6b576040517f08c379a0000000000000000000000000000000000000000000000000000000008152600401612e6290614b6a565b60405180910390fd5b6004811115612eaf576040517f08c379a0000000000000000000000000000000000000000000000000000000008152600401612ea6906149aa565b60405180910390fd5b601260009054906101000a900460ff1615612f1157612ecd336136e7565b612f0c576040517f08c379a0000000000000000000000000000000000000000000000000000000008152600401612f039061486a565b60405180910390fd5b6130b4565b601260019054906101000a900460ff161561306257612f2f336136e7565b612f6e576040517f08c379a0000000000000000000000000000000000000000000000000000000008152600401612f659061486a565b60405180910390fd5b600d60009054906101000a900460ff1660ff16600e60003373ffffffffffffffffffffffffffffffffffffffff1673ffffffffffffffffffffffffffffffffffffffff1681526020019081526020016000205482612fcc9190614e54565b111561300d576040517f08c379a000000000000000000000000000000000000000000000000000000000815260040161300490614caa565b60405180910390fd5b348160105461301c9190614edb565b111561305d576040517f08c379a000000000000000000000000000000000000000000000000000000000815260040161305490614c6a565b60405180910390fd5b6130b3565b34816011546130719190614edb565b11156130b2576040517f08c379a00000000000000000000000000000000000000000000000000000000081526004016130a990614c2a565b60405180910390fd5b5b5b50565b60006130c36008613704565b60006130cf6008612935565b90506130db838261371a565b80915050919050565b8173ffffffffffffffffffffffffffffffffffffffff168373ffffffffffffffffffffffffffffffffffffffff161415613153576040517f08c379a000000000000000000000000000000000000000000000000000000000815260040161314a9061492a565b60405180910390fd5b80600560008573ffffffffffffffffffffffffffffffffffffffff1673ffffffffffffffffffffffffffffffffffffffff16815260200190815260200160002060008473ffffffffffffffffffffffffffffffffffffffff1673ffffffffffffffffffffffffffffffffffffffff16815260200190815260200160002060006101000a81548160ff0219169083151502179055508173ffffffffffffffffffffffffffffffffffffffff168373ffffffffffffffffffffffffffffffffffffffff167f17307eab39ab6107e8899845ad3d59bd9653f200f220920489ca2b5937696c3183604051613244919061480d565b60405180910390a3505050565b61325c848484612a21565b61326884848484613738565b6132a7576040517f08c379a000000000000000000000000000000000000000000000000000000000815260040161329e906148aa565b60405180910390fd5b50505050565b6060600b80546132bc9061501f565b80601f01602080910402602001604051908101604052809291908181526020018280546132e89061501f565b80156133355780601f1061330a57610100808354040283529160200191613335565b820191906000526020600020905b81548152906001019060200180831161331857829003601f168201915b5050505050905090565b60606000821415613387576040518060400160405280600181526020017f300000000000000000000000000000000000000000000000000000000000000081525090506134e7565b600082905060005b600082146133b95780806133a290615082565b915050600a826133b29190614eaa565b915061338f565b60008167ffffffffffffffff8111156133fb577f4e487b7100000000000000000000000000000000000000000000000000000000600052604160045260246000fd5b6040519080825280601f01601f19166020018201604052801561342d5781602001600182028036833780820191505090505b5090505b600085146134e0576001826134469190614f35565b9150600a8561345591906150cb565b60306134619190614e54565b60f81b81838151811061349d577f4e487b7100000000000000000000000000000000000000000000000000000000600052603260045260246000fd5b60200101907effffffffffffffffffffffffffffffffffffffffffffffffffffffffffffff1916908160001a905350600a856134d99190614eaa565b9450613431565b8093505050505b919050565b505050565b6000808360010160008481526020019081526020016000205490506000811461366b5760006001826135239190614f35565b905060006001866000018054905061353b9190614f35565b90508181146135f6576000866000018281548110613582577f4e487b7100000000000000000000000000000000000000000000000000000000600052603260045260246000fd5b90600052602060002001549050808760000184815481106135cc577f4e487b7100000000000000000000000000000000000000000000000000000000600052603260045260246000fd5b90600052602060002001819055508387600101600083815260200190815260200160002081905550505b85600001805480613630577f4e487b7100000000000000000000000000000000000000000000000000000000600052603160045260246000fd5b600190038181906000526020600020016000905590558560010160008681526020019081526020016000206000905560019350505050613671565b60009150505b92915050565b600061368383836138cf565b6136dc5782600001829080600181540180825580915050600190039060005260206000200160009091909190915055826000018054905083600101600084815260200190815260200160002081905550600190506136e1565b600090505b92915050565b60006136fd8260096138f290919063ffffffff16565b9050919050565b6001816000016000828254019250508190555050565b613734828260405180602001604052806000815250613922565b5050565b60006137598473ffffffffffffffffffffffffffffffffffffffff1661397d565b156138c2578373ffffffffffffffffffffffffffffffffffffffff1663150b7a02613782612808565b8786866040518563ffffffff1660e01b81526004016137a49493929190614776565b602060405180830381600087803b1580156137be57600080fd5b505af19250505080156137ef57506040513d601f19601f820116820180604052508101906137ec9190613fe1565b60015b613872573d806000811461381f576040519150601f19603f3d011682016040523d82523d6000602084013e613824565b606091505b5060008151141561386a576040517f08c379a0000000000000000000000000000000000000000000000000000000008152600401613861906148aa565b60405180910390fd5b805181602001fd5b63150b7a0260e01b7bffffffffffffffffffffffffffffffffffffffffffffffffffffffff1916817bffffffffffffffffffffffffffffffffffffffffffffffffffffffff1916149150506138c7565b600190505b949350505050565b600080836001016000848152602001908152602001600020541415905092915050565b600061391a836000018373ffffffffffffffffffffffffffffffffffffffff1660001b6138cf565b905092915050565b61392c8383613990565b6139396000848484613738565b613978576040517f08c379a000000000000000000000000000000000000000000000000000000000815260040161396f906148aa565b60405180910390fd5b505050565b600080823b905060008111915050919050565b600073ffffffffffffffffffffffffffffffffffffffff168273ffffffffffffffffffffffffffffffffffffffff161415613a00576040517f08c379a00000000000000000000000000000000000000000000000000000000081526004016139f790614a8a565b60405180910390fd5b613a0981612810565b15613a49576040517f08c379a0000000000000000000000000000000000000000000000000000000008152600401613a40906148ea565b60405180910390fd5b613a55600083836134ec565b6001600360008473ffffffffffffffffffffffffffffffffffffffff1673ffffffffffffffffffffffffffffffffffffffff1681526020019081526020016000206000828254613aa59190614e54565b92505081905550816002600083815260200190815260200160002060006101000a81548173ffffffffffffffffffffffffffffffffffffffff021916908373ffffffffffffffffffffffffffffffffffffffff160217905550808273ffffffffffffffffffffffffffffffffffffffff16600073ffffffffffffffffffffffffffffffffffffffff167fddf252ad1be2c89b69c2b068fc378daa952ba7f163c4a11628f55a4df523b3ef60405160405180910390a45050565b828054613b6a9061501f565b90600052602060002090601f016020900481019282613b8c5760008555613bd3565b82601f10613ba557805160ff1916838001178555613bd3565b82800160010185558215613bd3579182015b82811115613bd2578251825591602001919060010190613bb7565b5b509050613be09190613be4565b5090565b5b80821115613bfd576000816000905550600101613be5565b5090565b6000613c14613c0f84614d4a565b614d25565b90508083825260208201905082856020860282011115613c3357600080fd5b60005b85811015613c635781613c498882613ce9565b845260208401935060208301925050600181019050613c36565b5050509392505050565b6000613c80613c7b84614d76565b614d25565b905082815260208101848484011115613c9857600080fd5b613ca3848285614fdd565b509392505050565b6000613cbe613cb984614da7565b614d25565b905082815260208101848484011115613cd657600080fd5b613ce1848285614fdd565b509392505050565b600081359050613cf881615b49565b92915050565b600082601f830112613d0f57600080fd5b8135613d1f848260208601613c01565b91505092915050565b600081359050613d3781615b60565b92915050565b600081359050613d4c81615b77565b92915050565b600081519050613d6181615b77565b92915050565b600082601f830112613d7857600080fd5b8135613d88848260208601613c6d565b91505092915050565b600082601f830112613da257600080fd5b8135613db2848260208601613cab565b91505092915050565b600081359050613dca81615b8e565b92915050565b600060208284031215613de257600080fd5b6000613df084828501613ce9565b91505092915050565b60008060408385031215613e0c57600080fd5b6000613e1a85828601613ce9565b9250506020613e2b85828601613ce9565b9150509250929050565b600080600060608486031215613e4a57600080fd5b6000613e5886828701613ce9565b9350506020613e6986828701613ce9565b9250506040613e7a86828701613dbb565b9150509250925092565b60008060008060808587031215613e9a57600080fd5b6000613ea887828801613ce9565b9450506020613eb987828801613ce9565b9350506040613eca87828801613dbb565b925050606085013567ffffffffffffffff811115613ee757600080fd5b613ef387828801613d67565b91505092959194509250565b60008060408385031215613f1257600080fd5b6000613f2085828601613ce9565b9250506020613f3185828601613d28565b9150509250929050565b60008060408385031215613f4e57600080fd5b6000613f5c85828601613ce9565b9250506020613f6d85828601613dbb565b9150509250929050565b600060208284031215613f8957600080fd5b600082013567ffffffffffffffff811115613fa357600080fd5b613faf84828501613cfe565b91505092915050565b600060208284031215613fca57600080fd5b6000613fd884828501613d3d565b91505092915050565b600060208284031215613ff357600080fd5b600061400184828501613d52565b91505092915050565b60006020828403121561401c57600080fd5b600082013567ffffffffffffffff81111561403657600080fd5b61404284828501613d91565b91505092915050565b60006020828403121561405d57600080fd5b600061406b84828501613dbb565b91505092915050565b6000806040838503121561408757600080fd5b600061409585828601613dbb565b92505060206140a685828601613dbb565b9150509250929050565b60006140bc8383614719565b60208301905092915050565b6140d181614f69565b82525050565b60006140e282614de8565b6140ec8185614e16565b93506140f783614dd8565b8060005b8381101561412857815161410f88826140b0565b975061411a83614e09565b9250506001810190506140fb565b5085935050505092915050565b61413e81614f7b565b82525050565b600061414f82614df3565b6141598185614e27565b9350614169818560208601614fec565b614172816151b8565b840191505092915050565b600061418882614dfe565b6141928185614e38565b93506141a2818560208601614fec565b6141ab816151b8565b840191505092915050565b60006141c182614dfe565b6141cb8185614e49565b93506141db818560208601614fec565b80840191505092915050565b60006141f4602083614e38565b91506141ff826151c9565b602082019050919050565b6000614217602b83614e38565b9150614222826151f2565b604082019050919050565b600061423a602c83614e38565b915061424582615241565b604082019050919050565b600061425d603283614e38565b915061426882615290565b604082019050919050565b6000614280602683614e38565b915061428b826152df565b604082019050919050565b60006142a3601c83614e38565b91506142ae8261532e565b602082019050919050565b60006142c6602483614e38565b91506142d182615357565b604082019050919050565b60006142e9601983614e38565b91506142f4826153a6565b602082019050919050565b600061430c601483614e38565b9150614317826153cf565b602082019050919050565b600061432f601283614e38565b915061433a826153f8565b602082019050919050565b6000614352601283614e38565b915061435d82615421565b602082019050919050565b6000614375602883614e38565b91506143808261544a565b604082019050919050565b6000614398602c83614e38565b91506143a382615499565b604082019050919050565b60006143bb603883614e38565b91506143c6826154e8565b604082019050919050565b60006143de601c83614e38565b91506143e982615537565b602082019050919050565b6000614401602a83614e38565b915061440c82615560565b604082019050919050565b6000614424602983614e38565b915061442f826155af565b604082019050919050565b6000614447603883614e38565b9150614452826155fe565b604082019050919050565b600061446a602083614e38565b91506144758261564d565b602082019050919050565b600061448d601583614e38565b915061449882615676565b602082019050919050565b60006144b0602c83614e38565b91506144bb8261569f565b604082019050919050565b60006144d3602083614e38565b91506144de826156ee565b602082019050919050565b60006144f6602983614e38565b915061450182615717565b604082019050919050565b6000614519602883614e38565b915061452482615766565b604082019050919050565b600061453c602f83614e38565b9150614547826157b5565b604082019050919050565b600061455f601c83614e38565b915061456a82615804565b602082019050919050565b6000614582602183614e38565b915061458d8261582d565b604082019050919050565b60006145a5602583614e38565b91506145b08261587c565b604082019050919050565b60006145c8601383614e38565b91506145d3826158cb565b602082019050919050565b60006145eb603183614e38565b91506145f6826158f4565b604082019050919050565b600061460e601583614e38565b915061461982615943565b602082019050919050565b6000614631604183614e38565b915061463c8261596c565b606082019050919050565b6000614654603483614e38565b915061465f826159e1565b604082019050919050565b6000614677603d83614e38565b915061468282615a30565b604082019050919050565b600061469a601f83614e38565b91506146a582615a7f565b602082019050919050565b60006146bd602683614e38565b91506146c882615aa8565b604082019050919050565b60006146e0601383614e38565b91506146eb82615af7565b602082019050919050565b6000614703600f83614e38565b915061470e82615b20565b602082019050919050565b61472281614fd3565b82525050565b61473181614fd3565b82525050565b600061474382856141b6565b915061474f82846141b6565b91508190509392505050565b600060208201905061477060008301846140c8565b92915050565b600060808201905061478b60008301876140c8565b61479860208301866140c8565b6147a56040830185614728565b81810360608301526147b78184614144565b905095945050505050565b60006040820190506147d760008301856140c8565b6147e46020830184614728565b9392505050565b6000602082019050818103600083015261480581846140d7565b905092915050565b60006020820190506148226000830184614135565b92915050565b60006020820190508181036000830152614842818461417d565b905092915050565b60006020820190508181036000830152614863816141e7565b9050919050565b600060208201905081810360008301526148838161420a565b9050919050565b600060208201905081810360008301526148a38161422d565b9050919050565b600060208201905081810360008301526148c381614250565b9050919050565b600060208201905081810360008301526148e381614273565b9050919050565b6000602082019050818103600083015261490381614296565b9050919050565b60006020820190508181036000830152614923816142b9565b9050919050565b60006020820190508181036000830152614943816142dc565b9050919050565b60006020820190508181036000830152614963816142ff565b9050919050565b6000602082019050818103600083015261498381614322565b9050919050565b600060208201905081810360008301526149a381614345565b9050919050565b600060208201905081810360008301526149c381614368565b9050919050565b600060208201905081810360008301526149e38161438b565b9050919050565b60006020820190508181036000830152614a03816143ae565b9050919050565b60006020820190508181036000830152614a23816143d1565b9050919050565b60006020820190508181036000830152614a43816143f4565b9050919050565b60006020820190508181036000830152614a6381614417565b9050919050565b60006020820190508181036000830152614a838161443a565b9050919050565b60006020820190508181036000830152614aa38161445d565b9050919050565b60006020820190508181036000830152614ac381614480565b9050919050565b60006020820190508181036000830152614ae3816144a3565b9050919050565b60006020820190508181036000830152614b03816144c6565b9050919050565b60006020820190508181036000830152614b23816144e9565b9050919050565b60006020820190508181036000830152614b438161450c565b9050919050565b60006020820190508181036000830152614b638161452f565b9050919050565b60006020820190508181036000830152614b8381614552565b9050919050565b60006020820190508181036000830152614ba381614575565b9050919050565b60006020820190508181036000830152614bc381614598565b9050919050565b60006020820190508181036000830152614be3816145bb565b9050919050565b60006020820190508181036000830152614c03816145de565b9050919050565b60006020820190508181036000830152614c2381614601565b9050919050565b60006020820190508181036000830152614c4381614624565b9050919050565b60006020820190508181036000830152614c6381614647565b9050919050565b60006020820190508181036000830152614c838161466a565b9050919050565b60006020820190508181036000830152614ca38161468d565b9050919050565b60006020820190508181036000830152614cc3816146b0565b9050919050565b60006020820190508181036000830152614ce3816146d3565b9050919050565b60006020820190508181036000830152614d03816146f6565b9050919050565b6000602082019050614d1f6000830184614728565b92915050565b6000614d2f614d40565b9050614d3b8282615051565b919050565b6000604051905090565b600067ffffffffffffffff821115614d6557614d64615189565b5b602082029050602081019050919050565b600067ffffffffffffffff821115614d9157614d90615189565b5b614d9a826151b8565b9050602081019050919050565b600067ffffffffffffffff821115614dc257614dc1615189565b5b614dcb826151b8565b9050602081019050919050565b6000819050602082019050919050565b600081519050919050565b600081519050919050565b600081519050919050565b6000602082019050919050565b600082825260208201905092915050565b600082825260208201905092915050565b600082825260208201905092915050565b600081905092915050565b6000614e5f82614fd3565b9150614e6a83614fd3565b9250827fffffffffffffffffffffffffffffffffffffffffffffffffffffffffffffffff03821115614e9f57614e9e6150fc565b5b828201905092915050565b6000614eb582614fd3565b9150614ec083614fd3565b925082614ed057614ecf61512b565b5b828204905092915050565b6000614ee682614fd3565b9150614ef183614fd3565b9250817fffffffffffffffffffffffffffffffffffffffffffffffffffffffffffffffff0483118215151615614f2a57614f296150fc565b5b828202905092915050565b6000614f4082614fd3565b9150614f4b83614fd3565b925082821015614f5e57614f5d6150fc565b5b828203905092915050565b6000614f7482614fb3565b9050919050565b60008115159050919050565b60007fffffffff0000000000000000000000000000000000000000000000000000000082169050919050565b600073ffffffffffffffffffffffffffffffffffffffff82169050919050565b6000819050919050565b82818337600083830152505050565b60005b8381101561500a578082015181840152602081019050614fef565b83811115615019576000848401525b50505050565b6000600282049050600182168061503757607f821691505b6020821081141561504b5761504a61515a565b5b50919050565b61505a826151b8565b810181811067ffffffffffffffff8211171561507957615078615189565b5b80604052505050565b600061508d82614fd3565b91507fffffffffffffffffffffffffffffffffffffffffffffffffffffffffffffffff8214156150c0576150bf6150fc565b5b600182019050919050565b60006150d682614fd3565b91506150e183614fd3565b9250826150f1576150f061512b565b5b828206905092915050565b7f4e487b7100000000000000000000000000000000000000000000000000000000600052601160045260246000fd5b7f4e487b7100000000000000000000000000000000000000000000000000000000600052601260045260246000fd5b7f4e487b7100000000000000000000000000000000000000000000000000000000600052602260045260246000fd5b7f4e487b7100000000000000000000000000000000000000000000000000000000600052604160045260246000fd5b6000601f19601f8301169050919050565b7f546865726520617265206e6f2073616c657320617420746869732074696d652e600082015250565b7f576527726520736f7272792c20796f757220616464726573732069736e27742060008201527f77686974656c6973746564000000000000000000000000000000000000000000602082015250565b7f4d7573742073656e6420616e206172726179206f66206164647265737365732060008201527f746f2077686974656c6973740000000000000000000000000000000000000000602082015250565b7f4552433732313a207472616e7366657220746f206e6f6e20455243373231526560008201527f63656976657220696d706c656d656e7465720000000000000000000000000000602082015250565b7f4f776e61626c653a206e6577206f776e657220697320746865207a65726f206160008201527f6464726573730000000000000000000000000000000000000000000000000000602082015250565b7f4552433732313a20746f6b656e20616c7265616479206d696e74656400000000600082015250565b7f4552433732313a207472616e7366657220746f20746865207a65726f2061646460008201527f7265737300000000000000000000000000000000000000000000000000000000602082015250565b7f4552433732313a20617070726f766520746f2063616c6c657200000000000000600082015250565b7f4e6f7468696e6720746f2077697468647261772e000000000000000000000000600082015250565b7f53616c65206973206e6f74206163746976650000000000000000000000000000600082015250565b7f53616c65206973206e6f74207061757365640000000000000000000000000000600082015250565b7f43616e6e6f74206d696e74206d6f7265207468616e203420746f6b656e73206160008201527f7420612074696d65000000000000000000000000000000000000000000000000602082015250565b7f4552433732313a206f70657261746f7220717565727920666f72206e6f6e657860008201527f697374656e7420746f6b656e0000000000000000000000000000000000000000602082015250565b7f4552433732313a20617070726f76652063616c6c6572206973206e6f74206f7760008201527f6e6572206e6f7220617070726f76656420666f7220616c6c0000000000000000602082015250565b7f57686974656c6973742063616e6e6f7420657863656564203230303000000000600082015250565b7f4552433732313a2062616c616e636520717565727920666f7220746865207a6560008201527f726f206164647265737300000000000000000000000000000000000000000000602082015250565b7f4552433732313a206f776e657220717565727920666f72206e6f6e657869737460008201527f656e7420746f6b656e0000000000000000000000000000000000000000000000602082015250565b7f4d7573742073656e6420616e206172726179206f66206164647265737365732060008201527f746f2072656d6f76652066726f6d2077686974656c6973740000000000000000602082015250565b7f4552433732313a206d696e7420746f20746865207a65726f2061646472657373600082015250565b7f50726573616c65206973206e6f74207061757365640000000000000000000000600082015250565b7f4552433732313a20617070726f76656420717565727920666f72206e6f6e657860008201527f697374656e7420746f6b656e0000000000000000000000000000000000000000602082015250565b7f4f776e61626c653a2063616c6c6572206973206e6f7420746865206f776e6572600082015250565b7f4552433732313a207472616e73666572206f6620746f6b656e2074686174206960008201527f73206e6f74206f776e0000000000000000000000000000000000000000000000602082015250565b7f5769746864726177616c20616d6f756e74206d7573742062652067726561746560008201527f72207468616e2030000000000000000000000000000000000000000000000000602082015250565b7f4552433732314d657461646174613a2055524920717565727920666f72206e6f60008201527f6e6578697374656e7420746f6b656e0000000000000000000000000000000000602082015250565b7f4d757374206d696e74206174206c65617374206f6e6520746f6b656e00000000600082015250565b7f4552433732313a20617070726f76616c20746f2063757272656e74206f776e6560008201527f7200000000000000000000000000000000000000000000000000000000000000602082015250565b7f4e6f6e6578697374656e7420746f6b656e20666f7220726f79616c747920706160008201527f796d656e74000000000000000000000000000000000000000000000000000000602082015250565b7f4769766561776179206e6f742061637469766500000000000000000000000000600082015250565b7f4552433732313a207472616e736665722063616c6c6572206973206e6f74206f60008201527f776e6572206e6f7220617070726f766564000000000000000000000000000000602082015250565b7f50726573616c65206973206e6f74206163746976650000000000000000000000600082015250565b7f496e73756666696369656e742066756e64733a2045746865722076616c75652060008201527f646f6573206e6f74206d61746368207075626c69632073616c6520707269636560208201527f2e00000000000000000000000000000000000000000000000000000000000000604082015250565b7f42616c616e6365206d7573742062652067726561746572207468616e2073657460008201527f20616d6f756e7420746f2077697468647261772e000000000000000000000000602082015250565b7f496e73756666696369656e742066756e64733a2045746865722076616c75652060008201527f646f6573206e6f74206d617463682070726573616c652070726963652e000000602082015250565b7f5265656e7472616e637947756172643a207265656e7472616e742063616c6c00600082015250565b7f43616e6e6f74206d696e74206d6f7265207468616e203420746f6b656e73207060008201527f726573616c650000000000000000000000000000000000000000000000000000602082015250565b7f4769766561776179206e6f742070617573656400000000000000000000000000600082015250565b7f4e6f20746f6b656e73206c656674210000000000000000000000000000000000600082015250565b615b5281614f69565b8114615b5d57600080fd5b50565b615b6981614f7b565b8114615b7457600080fd5b50565b615b8081614f87565b8114615b8b57600080fd5b50565b615b9781614fd3565b8114615ba257600080fd5b5056fea2646970667358221220fa0c49803cdf7a05852c27f9869d9085272f053590c62225627ae8793b07767264736f6c63430008040033",
  "linkReferences": {},
  "deployedLinkReferences": {}
}