{
  "_format": "hh-sol-artifact-1",
  "contractName": "Turtleverse",
  "sourceName": "contracts/Turtleverse.sol",
  "abi": [
    {
      "inputs": [
        {
          "internalType": "string",
          "name": "name_",
          "type": "string"
        },
        {
          "internalType": "string",
          "name": "symbol_",
          "type": "string"
        },
        {
          "internalType": "string",
          "name": "baseURI_",
          "type": "string"
        },
        {
          "internalType": "address payable",
          "name": "payout_",
          "type": "address"
        }
      ],
      "stateMutability": "nonpayable",
      "type": "constructor"
    },
    {
      "anonymous": false,
      "inputs": [
        {
          "indexed": true,
          "internalType": "address",
          "name": "_address",
          "type": "address"
        }
      ],
      "name": "AddedToWhitelist",
      "type": "event"
    },
    {
      "anonymous": false,
      "inputs": [
        {
          "indexed": true,
          "internalType": "address",
          "name": "owner",
          "type": "address"
        },
        {
          "indexed": true,
          "internalType": "address",
          "name": "approved",
          "type": "address"
        },
        {
          "indexed": true,
          "internalType": "uint256",
          "name": "tokenId",
          "type": "uint256"
        }
      ],
      "name": "Approval",
      "type": "event"
    },
    {
      "anonymous": false,
      "inputs": [
        {
          "indexed": true,
          "internalType": "address",
          "name": "owner",
          "type": "address"
        },
        {
          "indexed": true,
          "internalType": "address",
          "name": "operator",
          "type": "address"
        },
        {
          "indexed": false,
          "internalType": "bool",
          "name": "approved",
          "type": "bool"
        }
      ],
      "name": "ApprovalForAll",
      "type": "event"
    },
    {
      "anonymous": false,
      "inputs": [
        {
          "indexed": true,
          "internalType": "uint256",
          "name": "_giveawayStopTime",
          "type": "uint256"
        }
      ],
      "name": "GiveawayPaused",
      "type": "event"
    },
    {
      "anonymous": false,
      "inputs": [
        {
          "indexed": true,
          "internalType": "uint256",
          "name": "_giveawayStartTime",
          "type": "uint256"
        }
      ],
      "name": "GiveawayStart",
      "type": "event"
    },
    {
      "anonymous": false,
      "inputs": [
        {
          "indexed": true,
          "internalType": "address",
          "name": "previousOwner",
          "type": "address"
        },
        {
          "indexed": true,
          "internalType": "address",
          "name": "newOwner",
          "type": "address"
        }
      ],
      "name": "OwnershipTransferred",
      "type": "event"
    },
    {
      "anonymous": false,
      "inputs": [
        {
          "indexed": true,
          "internalType": "uint256",
          "name": "_presaleStopTime",
          "type": "uint256"
        }
      ],
      "name": "PresalePaused",
      "type": "event"
    },
    {
      "anonymous": false,
      "inputs": [
        {
          "indexed": true,
          "internalType": "uint256",
          "name": "_presaleStartTime",
          "type": "uint256"
        }
      ],
      "name": "PresaleStart",
      "type": "event"
    },
    {
      "anonymous": false,
      "inputs": [
        {
          "indexed": true,
          "internalType": "address",
          "name": "_address",
          "type": "address"
        }
      ],
      "name": "RemovedFromWhitelist",
      "type": "event"
    },
    {
      "anonymous": false,
      "inputs": [
        {
          "indexed": true,
          "internalType": "uint256",
          "name": "_saleStopTime",
          "type": "uint256"
        }
      ],
      "name": "SalePaused",
      "type": "event"
    },
    {
      "anonymous": false,
      "inputs": [
        {
          "indexed": true,
          "internalType": "uint256",
          "name": "_saleStartTime",
          "type": "uint256"
        }
      ],
      "name": "SaleStart",
      "type": "event"
    },
    {
      "anonymous": false,
      "inputs": [
        {
          "indexed": true,
          "internalType": "address",
          "name": "from",
          "type": "address"
        },
        {
          "indexed": true,
          "internalType": "address",
          "name": "to",
          "type": "address"
        },
        {
          "indexed": true,
          "internalType": "uint256",
          "name": "tokenId",
          "type": "uint256"
        }
      ],
      "name": "Transfer",
      "type": "event"
    },
    {
      "inputs": [
        {
          "internalType": "address[]",
          "name": "addresses",
          "type": "address[]"
        }
      ],
      "name": "addToWhitelist",
      "outputs": [],
      "stateMutability": "nonpayable",
      "type": "function"
    },
    {
      "inputs": [
        {
          "internalType": "address",
          "name": "to",
          "type": "address"
        },
        {
          "internalType": "uint256",
          "name": "tokenId",
          "type": "uint256"
        }
      ],
      "name": "approve",
      "outputs": [],
      "stateMutability": "nonpayable",
      "type": "function"
    },
    {
      "inputs": [
        {
          "internalType": "address",
          "name": "owner",
          "type": "address"
        }
      ],
      "name": "balanceOf",
      "outputs": [
        {
          "internalType": "uint256",
          "name": "",
          "type": "uint256"
        }
      ],
      "stateMutability": "view",
      "type": "function"
    },
    {
      "inputs": [
        {
          "internalType": "uint256",
          "name": "tokenId",
          "type": "uint256"
        }
      ],
      "name": "getApproved",
      "outputs": [
        {
          "internalType": "address",
          "name": "",
          "type": "address"
        }
      ],
      "stateMutability": "view",
      "type": "function"
    },
    {
      "inputs": [],
      "name": "giveawayActive",
      "outputs": [
        {
          "internalType": "bool",
          "name": "",
          "type": "bool"
        }
      ],
      "stateMutability": "view",
      "type": "function"
    },
    {
      "inputs": [],
      "name": "giveawayPriceToMint",
      "outputs": [
        {
          "internalType": "uint256",
          "name": "",
          "type": "uint256"
        }
      ],
      "stateMutability": "view",
      "type": "function"
    },
    {
      "inputs": [
        {
          "internalType": "address",
          "name": "owner",
          "type": "address"
        },
        {
          "internalType": "address",
          "name": "operator",
          "type": "address"
        }
      ],
      "name": "isApprovedForAll",
      "outputs": [
        {
          "internalType": "bool",
          "name": "",
          "type": "bool"
        }
      ],
      "stateMutability": "view",
      "type": "function"
    },
    {
      "inputs": [
        {
          "internalType": "uint256",
          "name": "tokensAmount",
          "type": "uint256"
        }
      ],
      "name": "mintTokens",
      "outputs": [
        {
          "internalType": "uint256[]",
          "name": "",
          "type": "uint256[]"
        }
      ],
      "stateMutability": "payable",
      "type": "function"
    },
    {
      "inputs": [],
      "name": "name",
      "outputs": [
        {
          "internalType": "string",
          "name": "",
          "type": "string"
        }
      ],
      "stateMutability": "view",
      "type": "function"
    },
    {
      "inputs": [],
      "name": "owner",
      "outputs": [
        {
          "internalType": "address",
          "name": "",
          "type": "address"
        }
      ],
      "stateMutability": "view",
      "type": "function"
    },
    {
      "inputs": [
        {
          "internalType": "uint256",
          "name": "tokenId",
          "type": "uint256"
        }
      ],
      "name": "ownerOf",
      "outputs": [
        {
          "internalType": "address",
          "name": "",
          "type": "address"
        }
      ],
      "stateMutability": "view",
      "type": "function"
    },
    {
      "inputs": [],
      "name": "pauseGiveaway",
      "outputs": [],
      "stateMutability": "nonpayable",
      "type": "function"
    },
    {
      "inputs": [],
      "name": "pausePresale",
      "outputs": [],
      "stateMutability": "nonpayable",
      "type": "function"
    },
    {
      "inputs": [],
      "name": "pausePublicSale",
      "outputs": [],
      "stateMutability": "nonpayable",
      "type": "function"
    },
    {
      "inputs": [],
      "name": "presaleActive",
      "outputs": [
        {
          "internalType": "bool",
          "name": "",
          "type": "bool"
        }
      ],
      "stateMutability": "view",
      "type": "function"
    },
    {
      "inputs": [],
      "name": "presalePriceToMint",
      "outputs": [
        {
          "internalType": "uint256",
          "name": "",
          "type": "uint256"
        }
      ],
      "stateMutability": "view",
      "type": "function"
    },
    {
      "inputs": [],
      "name": "price",
      "outputs": [
        {
          "internalType": "uint256",
          "name": "",
          "type": "uint256"
        }
      ],
      "stateMutability": "view",
      "type": "function"
    },
    {
      "inputs": [],
      "name": "priceToMint",
      "outputs": [
        {
          "internalType": "uint256",
          "name": "",
          "type": "uint256"
        }
      ],
      "stateMutability": "view",
      "type": "function"
    },
    {
      "inputs": [
        {
          "internalType": "address",
          "name": "",
          "type": "address"
        }
      ],
      "name": "purchasedAmount",
      "outputs": [
        {
          "internalType": "uint256",
          "name": "",
          "type": "uint256"
        }
      ],
      "stateMutability": "view",
      "type": "function"
    },
    {
      "inputs": [
        {
          "internalType": "address[]",
          "name": "addresses",
          "type": "address[]"
        }
      ],
      "name": "removeFromWhitelist",
      "outputs": [],
      "stateMutability": "nonpayable",
      "type": "function"
    },
    {
      "inputs": [],
      "name": "renounceOwnership",
      "outputs": [],
      "stateMutability": "nonpayable",
      "type": "function"
    },
    {
      "inputs": [
        {
          "internalType": "uint256",
          "name": "_tokenId",
          "type": "uint256"
        },
        {
          "internalType": "uint256",
          "name": "_salePrice",
          "type": "uint256"
        }
      ],
      "name": "royaltyInfo",
      "outputs": [
        {
          "internalType": "address",
          "name": "receiver",
          "type": "address"
        },
        {
          "internalType": "uint256",
          "name": "royaltyAmount",
          "type": "uint256"
        }
      ],
      "stateMutability": "view",
      "type": "function"
    },
    {
      "inputs": [
        {
          "internalType": "address",
          "name": "from",
          "type": "address"
        },
        {
          "internalType": "address",
          "name": "to",
          "type": "address"
        },
        {
          "internalType": "uint256",
          "name": "tokenId",
          "type": "uint256"
        }
      ],
      "name": "safeTransferFrom",
      "outputs": [],
      "stateMutability": "nonpayable",
      "type": "function"
    },
    {
      "inputs": [
        {
          "internalType": "address",
          "name": "from",
          "type": "address"
        },
        {
          "internalType": "address",
          "name": "to",
          "type": "address"
        },
        {
          "internalType": "uint256",
          "name": "tokenId",
          "type": "uint256"
        },
        {
          "internalType": "bytes",
          "name": "_data",
          "type": "bytes"
        }
      ],
      "name": "safeTransferFrom",
      "outputs": [],
      "stateMutability": "nonpayable",
      "type": "function"
    },
    {
      "inputs": [],
      "name": "saleActive",
      "outputs": [
        {
          "internalType": "bool",
          "name": "",
          "type": "bool"
        }
      ],
      "stateMutability": "view",
      "type": "function"
    },
    {
      "inputs": [
        {
          "internalType": "address",
          "name": "operator",
          "type": "address"
        },
        {
          "internalType": "bool",
          "name": "approved",
          "type": "bool"
        }
      ],
      "name": "setApprovalForAll",
      "outputs": [],
      "stateMutability": "nonpayable",
      "type": "function"
    },
    {
      "inputs": [
        {
          "internalType": "string",
          "name": "baseURI_",
          "type": "string"
        }
      ],
      "name": "setBaseURI",
      "outputs": [],
      "stateMutability": "nonpayable",
      "type": "function"
    },
    {
      "inputs": [],
      "name": "startGiveaway",
      "outputs": [],
      "stateMutability": "nonpayable",
      "type": "function"
    },
    {
      "inputs": [],
      "name": "startPresale",
      "outputs": [],
      "stateMutability": "nonpayable",
      "type": "function"
    },
    {
      "inputs": [],
      "name": "startPublicSale",
      "outputs": [],
      "stateMutability": "nonpayable",
      "type": "function"
    },
    {
      "inputs": [
        {
          "internalType": "bytes4",
          "name": "interfaceId",
          "type": "bytes4"
        }
      ],
      "name": "supportsInterface",
      "outputs": [
        {
          "internalType": "bool",
          "name": "",
          "type": "bool"
        }
      ],
      "stateMutability": "view",
      "type": "function"
    },
    {
      "inputs": [],
      "name": "symbol",
      "outputs": [
        {
          "internalType": "string",
          "name": "",
          "type": "string"
        }
      ],
      "stateMutability": "view",
      "type": "function"
    },
    {
      "inputs": [
        {
          "internalType": "uint256",
          "name": "tokenId",
          "type": "uint256"
        }
      ],
      "name": "tokenURI",
      "outputs": [
        {
          "internalType": "string",
          "name": "",
          "type": "string"
        }
      ],
      "stateMutability": "view",
      "type": "function"
    },
    {
      "inputs": [],
      "name": "totalSupply",
      "outputs": [
        {
          "internalType": "uint256",
          "name": "",
          "type": "uint256"
        }
      ],
      "stateMutability": "view",
      "type": "function"
    },
    {
      "inputs": [
        {
          "internalType": "address",
          "name": "from",
          "type": "address"
        },
        {
          "internalType": "address",
          "name": "to",
          "type": "address"
        },
        {
          "internalType": "uint256",
          "name": "tokenId",
          "type": "uint256"
        }
      ],
      "name": "transferFrom",
      "outputs": [],
      "stateMutability": "nonpayable",
      "type": "function"
    },
    {
      "inputs": [
        {
          "internalType": "address",
          "name": "newOwner",
          "type": "address"
        }
      ],
      "name": "transferOwnership",
      "outputs": [],
      "stateMutability": "nonpayable",
      "type": "function"
    },
    {
      "inputs": [],
      "name": "withdraw",
      "outputs": [],
      "stateMutability": "nonpayable",
      "type": "function"
    }
  ],
  "bytecode": "0x60806040526000600e556658d15e17628000600f5566b1a2bc2ec500006010553480156200002c57600080fd5b5060405162005f0238038062005f0283398181016040528101906200005291906200031b565b838381600090805190602001906200006c929190620001e2565b50806001908051906020019062000085929190620001e2565b505050620000a86200009c6200011460201b60201c565b6200011c60201b60201c565b600160078190555081600b9080519060200190620000c8929190620001e2565b5080600c60006101000a81548173ffffffffffffffffffffffffffffffffffffffff021916908373ffffffffffffffffffffffffffffffffffffffff1602179055505050505062000590565b600033905090565b6000600660009054906101000a900473ffffffffffffffffffffffffffffffffffffffff16905081600660006101000a81548173ffffffffffffffffffffffffffffffffffffffff021916908373ffffffffffffffffffffffffffffffffffffffff1602179055508173ffffffffffffffffffffffffffffffffffffffff168173ffffffffffffffffffffffffffffffffffffffff167f8be0079c531659141344cd1fd0a4f28419497f9722a3daafe3b4186f6b6457e060405160405180910390a35050565b828054620001f0906200049b565b90600052602060002090601f01602090048101928262000214576000855562000260565b82601f106200022f57805160ff191683800117855562000260565b8280016001018555821562000260579182015b828111156200025f57825182559160200191906001019062000242565b5b5090506200026f919062000273565b5090565b5b808211156200028e57600081600090555060010162000274565b5090565b6000620002a9620002a384620003fb565b620003d2565b905082815260208101848484011115620002c257600080fd5b620002cf84828562000465565b509392505050565b600081519050620002e88162000576565b92915050565b600082601f8301126200030057600080fd5b81516200031284826020860162000292565b91505092915050565b600080600080608085870312156200033257600080fd5b600085015167ffffffffffffffff8111156200034d57600080fd5b6200035b87828801620002ee565b945050602085015167ffffffffffffffff8111156200037957600080fd5b6200038787828801620002ee565b935050604085015167ffffffffffffffff811115620003a557600080fd5b620003b387828801620002ee565b9250506060620003c687828801620002d7565b91505092959194509250565b6000620003de620003f1565b9050620003ec8282620004d1565b919050565b6000604051905090565b600067ffffffffffffffff82111562000419576200041862000536565b5b620004248262000565565b9050602081019050919050565b60006200043e8262000445565b9050919050565b600073ffffffffffffffffffffffffffffffffffffffff82169050919050565b60005b838110156200048557808201518184015260208101905062000468565b8381111562000495576000848401525b50505050565b60006002820490506001821680620004b457607f821691505b60208210811415620004cb57620004ca62000507565b5b50919050565b620004dc8262000565565b810181811067ffffffffffffffff82111715620004fe57620004fd62000536565b5b80604052505050565b7f4e487b7100000000000000000000000000000000000000000000000000000000600052602260045260246000fd5b7f4e487b7100000000000000000000000000000000000000000000000000000000600052604160045260246000fd5b6000601f19601f8301169050919050565b620005818162000431565b81146200058d57600080fd5b50565b61596280620005a06000396000f3fe60806040526004361061021a5760003560e01c806353135ca0116101235780638da5cb5b116100ab578063b88d4fde1161006f578063b88d4fde14610743578063c87b56dd1461076c578063dc9403a6146107a9578063e985e9c5146107d4578063f2fde38b146108115761021a565b80638da5cb5b1461066957806395d89b411461069457806397304ced146106bf578063a035b1fe146106ef578063a22cb4651461071a5761021a565b806368428a1b116100f257806368428a1b146105aa57806370a08231146105d5578063715018a6146106125780637c0f8aa0146106295780637f649783146106405761021a565b806353135ca0146104f0578063548db1741461051b57806355f804b3146105445780636352211e1461056d5761021a565b806318160ddd116101a65780633ccfd60b116101755780633ccfd60b1461041d57806342842e0e1461043457806344c4dcc11461045d5780634616d4b21461049a5780634dc1dbec146104c55761021a565b806318160ddd1461036057806323b872dd1461038b5780632a55205a146103b45780632b3f4d92146103f25761021a565b8063070f5c09116101ed578063070f5c09146102b5578063081812fc146102cc578063095ea7b3146103095780630c1c972a146103325780630c41f497146103495761021a565b806301ffc9a71461021f57806304c98b2b1461025c57806305e4e88a1461027357806306fdde031461028a575b600080fd5b34801561022b57600080fd5b5061024660048036038101906102419190613e63565b61083a565b6040516102539190614672565b60405180910390f35b34801561026857600080fd5b5061027161091c565b005b34801561027f57600080fd5b50610288610ad2565b005b34801561029657600080fd5b5061029f610c88565b6040516102ac919061468d565b60405180910390f35b3480156102c157600080fd5b506102ca610d1a565b005b3480156102d857600080fd5b506102f360048036038101906102ee9190613ef6565b610ecf565b60405161030091906145c0565b60405180910390f35b34801561031557600080fd5b50610330600480360381019061032b9190613de6565b610f54565b005b34801561033e57600080fd5b5061034761106c565b005b34801561035557600080fd5b5061035e611222565b005b34801561036c57600080fd5b506103756113d7565b6040516103829190614b2f565b60405180910390f35b34801561039757600080fd5b506103b260048036038101906103ad9190613ce0565b6113e8565b005b3480156103c057600080fd5b506103db60048036038101906103d69190613f1f565b611448565b6040516103e9929190614627565b60405180910390f35b3480156103fe57600080fd5b50610407611538565b6040516104149190614b2f565b60405180910390f35b34801561042957600080fd5b5061043261153e565b005b34801561044057600080fd5b5061045b60048036038101906104569190613ce0565b61171a565b005b34801561046957600080fd5b50610484600480360381019061047f9190613c7b565b61173a565b6040516104919190614b2f565b60405180910390f35b3480156104a657600080fd5b506104af611752565b6040516104bc9190614672565b60405180910390f35b3480156104d157600080fd5b506104da611765565b6040516104e79190614b2f565b60405180910390f35b3480156104fc57600080fd5b5061050561176b565b6040516105129190614672565b60405180910390f35b34801561052757600080fd5b50610542600480360381019061053d9190613e22565b61177e565b005b34801561055057600080fd5b5061056b60048036038101906105669190613eb5565b611985565b005b34801561057957600080fd5b50610594600480360381019061058f9190613ef6565b611a1b565b6040516105a191906145c0565b60405180910390f35b3480156105b657600080fd5b506105bf611acd565b6040516105cc9190614672565b60405180910390f35b3480156105e157600080fd5b506105fc60048036038101906105f79190613c7b565b611ae0565b6040516106099190614b2f565b60405180910390f35b34801561061e57600080fd5b50610627611b98565b005b34801561063557600080fd5b5061063e611c20565b005b34801561064c57600080fd5b5061066760048036038101906106629190613e22565b611dd5565b005b34801561067557600080fd5b5061067e611fdc565b60405161068b91906145c0565b60405180910390f35b3480156106a057600080fd5b506106a9612006565b6040516106b6919061468d565b60405180910390f35b6106d960048036038101906106d49190613ef6565b612098565b6040516106e69190614650565b60405180910390f35b3480156106fb57600080fd5b506107046122e3565b6040516107119190614b2f565b60405180910390f35b34801561072657600080fd5b50610741600480360381019061073c9190613daa565b6123a9565b005b34801561074f57600080fd5b5061076a60048036038101906107659190613d2f565b6123bf565b005b34801561077857600080fd5b50610793600480360381019061078e9190613ef6565b612421565b6040516107a0919061468d565b60405180910390f35b3480156107b557600080fd5b506107be6124c8565b6040516107cb9190614b2f565b60405180910390f35b3480156107e057600080fd5b506107fb60048036038101906107f69190613ca4565b6124ce565b6040516108089190614672565b60405180910390f35b34801561081d57600080fd5b5061083860048036038101906108339190613c7b565b612562565b005b60007f80ac58cd000000000000000000000000000000000000000000000000000000007bffffffffffffffffffffffffffffffffffffffffffffffffffffffff1916827bffffffffffffffffffffffffffffffffffffffffffffffffffffffff1916148061090557507f5b5e139f000000000000000000000000000000000000000000000000000000007bffffffffffffffffffffffffffffffffffffffffffffffffffffffff1916827bffffffffffffffffffffffffffffffffffffffffffffffffffffffff1916145b8061091557506109148261265a565b5b9050919050565b6109246126c4565b73ffffffffffffffffffffffffffffffffffffffff16610942611fdc565b73ffffffffffffffffffffffffffffffffffffffff1614610998576040517f08c379a000000000000000000000000000000000000000000000000000000000815260040161098f9061494f565b60405180910390fd5b601160009054906101000a900460ff16156109e8576040517f08c379a00000000000000000000000000000000000000000000000000000000081526004016109df90614aef565b60405180910390fd5b601160019054906101000a900460ff1615610a38576040517f08c379a0000000000000000000000000000000000000000000000000000000008152600401610a2f9061490f565b60405180910390fd5b601160029054906101000a900460ff1615610a88576040517f08c379a0000000000000000000000000000000000000000000000000000000008152600401610a7f906147ef565b60405180910390fd5b6001601160016101000a81548160ff021916908315150217905550427f0ab3861e918916d082a16babf84acd725febc223f0833c5c03d8b14ec900174360405160405180910390a2565b610ada6126c4565b73ffffffffffffffffffffffffffffffffffffffff16610af8611fdc565b73ffffffffffffffffffffffffffffffffffffffff1614610b4e576040517f08c379a0000000000000000000000000000000000000000000000000000000008152600401610b459061494f565b60405180910390fd5b601160009054906101000a900460ff1615610b9e576040517f08c379a0000000000000000000000000000000000000000000000000000000008152600401610b9590614aef565b60405180910390fd5b601160019054906101000a900460ff1615610bee576040517f08c379a0000000000000000000000000000000000000000000000000000000008152600401610be59061490f565b60405180910390fd5b601160029054906101000a900460ff1615610c3e576040517f08c379a0000000000000000000000000000000000000000000000000000000008152600401610c35906147ef565b60405180910390fd5b6001601160006101000a81548160ff021916908315150217905550427fea160f4a1725183ff307b55e355bb04139d56298efc5853e17f99ade82e2f38960405160405180910390a2565b606060008054610c9790614e44565b80601f0160208091040260200160405190810160405280929190818152602001828054610cc390614e44565b8015610d105780601f10610ce557610100808354040283529160200191610d10565b820191906000526020600020905b815481529060010190602001808311610cf357829003601f168201915b5050505050905090565b610d226126c4565b73ffffffffffffffffffffffffffffffffffffffff16610d40611fdc565b73ffffffffffffffffffffffffffffffffffffffff1614610d96576040517f08c379a0000000000000000000000000000000000000000000000000000000008152600401610d8d9061494f565b60405180910390fd5b601160009054906101000a900460ff1615610de6576040517f08c379a0000000000000000000000000000000000000000000000000000000008152600401610ddd90614aef565b60405180910390fd5b601160029054906101000a900460ff1615610e36576040517f08c379a0000000000000000000000000000000000000000000000000000000008152600401610e2d906147ef565b60405180910390fd5b601160019054906101000a900460ff16610e85576040517f08c379a0000000000000000000000000000000000000000000000000000000008152600401610e7c90614a4f565b60405180910390fd5b6000601160016101000a81548160ff021916908315150217905550427fbbda50ff3083b4adfffcd3c2e8042a8b354ca16013534ab9367661c5a4cb7b2360405160405180910390a2565b6000610eda826126cc565b610f19576040517f08c379a0000000000000000000000000000000000000000000000000000000008152600401610f109061492f565b60405180910390fd5b6004600083815260200190815260200160002060009054906101000a900473ffffffffffffffffffffffffffffffffffffffff169050919050565b6000610f5f82611a1b565b90508073ffffffffffffffffffffffffffffffffffffffff168373ffffffffffffffffffffffffffffffffffffffff161415610fd0576040517f08c379a0000000000000000000000000000000000000000000000000000000008152600401610fc7906149cf565b60405180910390fd5b8073ffffffffffffffffffffffffffffffffffffffff16610fef6126c4565b73ffffffffffffffffffffffffffffffffffffffff16148061101e575061101d816110186126c4565b6124ce565b5b61105d576040517f08c379a00000000000000000000000000000000000000000000000000000000081526004016110549061484f565b60405180910390fd5b6110678383612738565b505050565b6110746126c4565b73ffffffffffffffffffffffffffffffffffffffff16611092611fdc565b73ffffffffffffffffffffffffffffffffffffffff16146110e8576040517f08c379a00000000000000000000000000000000000000000000000000000000081526004016110df9061494f565b60405180910390fd5b601160009054906101000a900460ff1615611138576040517f08c379a000000000000000000000000000000000000000000000000000000000815260040161112f90614aef565b60405180910390fd5b601160019054906101000a900460ff1615611188576040517f08c379a000000000000000000000000000000000000000000000000000000000815260040161117f9061490f565b60405180910390fd5b601160029054906101000a900460ff16156111d8576040517f08c379a00000000000000000000000000000000000000000000000000000000081526004016111cf906147ef565b60405180910390fd5b6001601160026101000a81548160ff021916908315150217905550427feeae71454a2a58ac8d7c3a2ac3db1f29f81cbd0024aae4292a55139dd9d3560a60405160405180910390a2565b61122a6126c4565b73ffffffffffffffffffffffffffffffffffffffff16611248611fdc565b73ffffffffffffffffffffffffffffffffffffffff161461129e576040517f08c379a00000000000000000000000000000000000000000000000000000000081526004016112959061494f565b60405180910390fd5b601160009054906101000a900460ff16156112ee576040517f08c379a00000000000000000000000000000000000000000000000000000000081526004016112e590614aef565b60405180910390fd5b601160019054906101000a900460ff161561133e576040517f08c379a00000000000000000000000000000000000000000000000000000000081526004016113359061490f565b60405180910390fd5b601160029054906101000a900460ff1661138d576040517f08c379a0000000000000000000000000000000000000000000000000000000008152600401611384906147cf565b60405180910390fd5b6000601160026101000a81548160ff021916908315150217905550427f4616a0782e5635981b28be1cd36934a60655b462c370d8bd8092c969abc990d060405160405180910390a2565b60006113e360086127f1565b905090565b6113f96113f36126c4565b826127ff565b611438576040517f08c379a000000000000000000000000000000000000000000000000000000000815260040161142f90614a2f565b60405180910390fd5b6114438383836128dd565b505050565b600080611454846126cc565b611493576040517f08c379a000000000000000000000000000000000000000000000000000000000815260040161148a906149ef565b60405180910390fd5b600073ffffffffffffffffffffffffffffffffffffffff16600c60009054906101000a900473ffffffffffffffffffffffffffffffffffffffff1673ffffffffffffffffffffffffffffffffffffffff1614156114ef57600080fd5b600c60009054906101000a900473ffffffffffffffffffffffffffffffffffffffff166127106103e8856115239190614d00565b61152d9190614ccf565b915091509250929050565b600e5481565b6115466126c4565b73ffffffffffffffffffffffffffffffffffffffff16611564611fdc565b73ffffffffffffffffffffffffffffffffffffffff16146115ba576040517f08c379a00000000000000000000000000000000000000000000000000000000081526004016115b19061494f565b60405180910390fd5b60026007541415611600576040517f08c379a00000000000000000000000000000000000000000000000000000000081526004016115f790614aaf565b60405180910390fd5b6002600781905550600073ffffffffffffffffffffffffffffffffffffffff16600c60009054906101000a900473ffffffffffffffffffffffffffffffffffffffff1673ffffffffffffffffffffffffffffffffffffffff16141561166457600080fd5b600047116116a7576040517f08c379a000000000000000000000000000000000000000000000000000000000815260040161169e906147af565b60405180910390fd5b600c60009054906101000a900473ffffffffffffffffffffffffffffffffffffffff1673ffffffffffffffffffffffffffffffffffffffff166108fc479081150290604051600060405180830381858888f1935050505015801561170f573d6000803e3d6000fd5b506001600781905550565b611735838383604051806020016040528060008152506123bf565b505050565b600d6020528060005260406000206000915090505481565b601160009054906101000a900460ff1681565b60105481565b601160019054906101000a900460ff1681565b6117866126c4565b73ffffffffffffffffffffffffffffffffffffffff166117a4611fdc565b73ffffffffffffffffffffffffffffffffffffffff16146117fa576040517f08c379a00000000000000000000000000000000000000000000000000000000081526004016117f19061494f565b60405180910390fd5b600081511161183e576040517f08c379a0000000000000000000000000000000000000000000000000000000008152600401611835906148cf565b60405180910390fd5b6107d081511115611884576040517f08c379a000000000000000000000000000000000000000000000000000000000815260040161187b9061486f565b60405180910390fd5b60005b8151811015611981576118e48282815181106118cc577f4e487b7100000000000000000000000000000000000000000000000000000000600052603260045260246000fd5b60200260200101516009612b3990919063ffffffff16565b1561196d57818181518110611922577f4e487b7100000000000000000000000000000000000000000000000000000000600052603260045260246000fd5b602002602001015173ffffffffffffffffffffffffffffffffffffffff167fcdd2e9b91a56913d370075169cefa1602ba36be5301664f752192bb1709df75760405160405180910390a25b60018161197a9190614c79565b9050611887565b5050565b61198d6126c4565b73ffffffffffffffffffffffffffffffffffffffff166119ab611fdc565b73ffffffffffffffffffffffffffffffffffffffff1614611a01576040517f08c379a00000000000000000000000000000000000000000000000000000000081526004016119f89061494f565b60405180910390fd5b80600b9080519060200190611a17929190613a09565b5050565b6000806002600084815260200190815260200160002060009054906101000a900473ffffffffffffffffffffffffffffffffffffffff169050600073ffffffffffffffffffffffffffffffffffffffff168173ffffffffffffffffffffffffffffffffffffffff161415611ac4576040517f08c379a0000000000000000000000000000000000000000000000000000000008152600401611abb906148af565b60405180910390fd5b80915050919050565b601160029054906101000a900460ff1681565b60008073ffffffffffffffffffffffffffffffffffffffff168273ffffffffffffffffffffffffffffffffffffffff161415611b51576040517f08c379a0000000000000000000000000000000000000000000000000000000008152600401611b489061488f565b60405180910390fd5b600360008373ffffffffffffffffffffffffffffffffffffffff1673ffffffffffffffffffffffffffffffffffffffff168152602001908152602001600020549050919050565b611ba06126c4565b73ffffffffffffffffffffffffffffffffffffffff16611bbe611fdc565b73ffffffffffffffffffffffffffffffffffffffff1614611c14576040517f08c379a0000000000000000000000000000000000000000000000000000000008152600401611c0b9061494f565b60405180910390fd5b611c1e6000612b69565b565b611c286126c4565b73ffffffffffffffffffffffffffffffffffffffff16611c46611fdc565b73ffffffffffffffffffffffffffffffffffffffff1614611c9c576040517f08c379a0000000000000000000000000000000000000000000000000000000008152600401611c939061494f565b60405180910390fd5b601160019054906101000a900460ff1615611cec576040517f08c379a0000000000000000000000000000000000000000000000000000000008152600401611ce39061490f565b60405180910390fd5b601160029054906101000a900460ff1615611d3c576040517f08c379a0000000000000000000000000000000000000000000000000000000008152600401611d33906147ef565b60405180910390fd5b601160009054906101000a900460ff16611d8b576040517f08c379a0000000000000000000000000000000000000000000000000000000008152600401611d8290614a0f565b60405180910390fd5b6000601160006101000a81548160ff021916908315150217905550427f71fbf9de7004f7d16da327d0c26b8f8b29e6efeaa59d67d1b76d6cc71fe47aae60405160405180910390a2565b611ddd6126c4565b73ffffffffffffffffffffffffffffffffffffffff16611dfb611fdc565b73ffffffffffffffffffffffffffffffffffffffff1614611e51576040517f08c379a0000000000000000000000000000000000000000000000000000000008152600401611e489061494f565b60405180910390fd5b6000815111611e95576040517f08c379a0000000000000000000000000000000000000000000000000000000008152600401611e8c906146ef565b60405180910390fd5b6107d081511115611edb576040517f08c379a0000000000000000000000000000000000000000000000000000000008152600401611ed29061486f565b60405180910390fd5b60005b8151811015611fd857611f3b828281518110611f23577f4e487b7100000000000000000000000000000000000000000000000000000000600052603260045260246000fd5b60200260200101516009612c2f90919063ffffffff16565b15611fc457818181518110611f79577f4e487b7100000000000000000000000000000000000000000000000000000000600052603260045260246000fd5b602002602001015173ffffffffffffffffffffffffffffffffffffffff167fa850ae9193f515cbae8d35e8925bd2be26627fc91bce650b8652ed254e9cab0360405160405180910390a25b600181611fd19190614c79565b9050611ede565b5050565b6000600660009054906101000a900473ffffffffffffffffffffffffffffffffffffffff16905090565b60606001805461201590614e44565b80601f016020809104026020016040519081016040528092919081815260200182805461204190614e44565b801561208e5780601f106120635761010080835404028352916020019161208e565b820191906000526020600020905b81548152906001019060200180831161207157829003601f168201915b5050505050905090565b6060601160009054906101000a900460ff16806120c15750601160019054906101000a900460ff165b806120d85750601160029054906101000a900460ff165b612117576040517f08c379a000000000000000000000000000000000000000000000000000000000815260040161210e906146af565b60405180910390fd5b6002600754141561215d576040517f08c379a000000000000000000000000000000000000000000000000000000000815260040161215490614aaf565b60405180910390fd5b600260078190555061216e82612c5f565b60008267ffffffffffffffff8111156121b0577f4e487b7100000000000000000000000000000000000000000000000000000000600052604160045260246000fd5b6040519080825280602002602001820160405280156121de5781602001602082028036833780820191505090505b50905060005b8381101561224e576121f533612f62565b82828151811061222e577f4e487b7100000000000000000000000000000000000000000000000000000000600052603260045260246000fd5b6020026020010181815250506001816122479190614c79565b90506121e4565b50601160019054906101000a900460ff16806122765750601160029054906101000a900460ff165b156122d25782600d60003373ffffffffffffffffffffffffffffffffffffffff1673ffffffffffffffffffffffffffffffffffffffff16815260200190815260200160002060008282546122ca9190614c79565b925050819055505b809150506001600781905550919050565b6000601160009054906101000a900460ff168061230c5750601160019054906101000a900460ff165b806123235750601160029054906101000a900460ff165b612362576040517f08c379a0000000000000000000000000000000000000000000000000000000008152600401612359906146af565b60405180910390fd5b601160009054906101000a900460ff161561238157600e5490506123a6565b601160019054906101000a900460ff16156123a057600f5490506123a6565b60105490505b90565b6123bb6123b46126c4565b8383612f8f565b5050565b6123d06123ca6126c4565b836127ff565b61240f576040517f08c379a000000000000000000000000000000000000000000000000000000000815260040161240690614a2f565b60405180910390fd5b61241b848484846130fc565b50505050565b606061242c826126cc565b61246b576040517f08c379a00000000000000000000000000000000000000000000000000000000081526004016124629061498f565b60405180910390fd5b6000612475613158565b9050600081511161249557604051806020016040528060008152506124c0565b8061249f846131ea565b6040516020016124b092919061459c565b6040516020818303038152906040525b915050919050565b600f5481565b6000600560008473ffffffffffffffffffffffffffffffffffffffff1673ffffffffffffffffffffffffffffffffffffffff16815260200190815260200160002060008373ffffffffffffffffffffffffffffffffffffffff1673ffffffffffffffffffffffffffffffffffffffff16815260200190815260200160002060009054906101000a900460ff16905092915050565b61256a6126c4565b73ffffffffffffffffffffffffffffffffffffffff16612588611fdc565b73ffffffffffffffffffffffffffffffffffffffff16146125de576040517f08c379a00000000000000000000000000000000000000000000000000000000081526004016125d59061494f565b60405180910390fd5b600073ffffffffffffffffffffffffffffffffffffffff168173ffffffffffffffffffffffffffffffffffffffff16141561264e576040517f08c379a00000000000000000000000000000000000000000000000000000000081526004016126459061472f565b60405180910390fd5b61265781612b69565b50565b60007f01ffc9a7000000000000000000000000000000000000000000000000000000007bffffffffffffffffffffffffffffffffffffffffffffffffffffffff1916827bffffffffffffffffffffffffffffffffffffffffffffffffffffffff1916149050919050565b600033905090565b60008073ffffffffffffffffffffffffffffffffffffffff166002600084815260200190815260200160002060009054906101000a900473ffffffffffffffffffffffffffffffffffffffff1673ffffffffffffffffffffffffffffffffffffffff1614159050919050565b816004600083815260200190815260200160002060006101000a81548173ffffffffffffffffffffffffffffffffffffffff021916908373ffffffffffffffffffffffffffffffffffffffff160217905550808273ffffffffffffffffffffffffffffffffffffffff166127ab83611a1b565b73ffffffffffffffffffffffffffffffffffffffff167f8c5be1e5ebec7d5bd14f71427d1e84f3dd0314c0f7b2291e5b200ac8c7c3b92560405160405180910390a45050565b600081600001549050919050565b600061280a826126cc565b612849576040517f08c379a00000000000000000000000000000000000000000000000000000000081526004016128409061482f565b60405180910390fd5b600061285483611a1b565b90508073ffffffffffffffffffffffffffffffffffffffff168473ffffffffffffffffffffffffffffffffffffffff1614806128c357508373ffffffffffffffffffffffffffffffffffffffff166128ab84610ecf565b73ffffffffffffffffffffffffffffffffffffffff16145b806128d457506128d381856124ce565b5b91505092915050565b8273ffffffffffffffffffffffffffffffffffffffff166128fd82611a1b565b73ffffffffffffffffffffffffffffffffffffffff1614612953576040517f08c379a000000000000000000000000000000000000000000000000000000000815260040161294a9061496f565b60405180910390fd5b600073ffffffffffffffffffffffffffffffffffffffff168273ffffffffffffffffffffffffffffffffffffffff1614156129c3576040517f08c379a00000000000000000000000000000000000000000000000000000000081526004016129ba9061476f565b60405180910390fd5b6129ce838383613397565b6129d9600082612738565b6001600360008573ffffffffffffffffffffffffffffffffffffffff1673ffffffffffffffffffffffffffffffffffffffff1681526020019081526020016000206000828254612a299190614d5a565b925050819055506001600360008473ffffffffffffffffffffffffffffffffffffffff1673ffffffffffffffffffffffffffffffffffffffff1681526020019081526020016000206000828254612a809190614c79565b92505081905550816002600083815260200190815260200160002060006101000a81548173ffffffffffffffffffffffffffffffffffffffff021916908373ffffffffffffffffffffffffffffffffffffffff160217905550808273ffffffffffffffffffffffffffffffffffffffff168473ffffffffffffffffffffffffffffffffffffffff167fddf252ad1be2c89b69c2b068fc378daa952ba7f163c4a11628f55a4df523b3ef60405160405180910390a4505050565b6000612b61836000018373ffffffffffffffffffffffffffffffffffffffff1660001b61339c565b905092915050565b6000600660009054906101000a900473ffffffffffffffffffffffffffffffffffffffff16905081600660006101000a81548173ffffffffffffffffffffffffffffffffffffffff021916908373ffffffffffffffffffffffffffffffffffffffff1602179055508173ffffffffffffffffffffffffffffffffffffffff168173ffffffffffffffffffffffffffffffffffffffff167f8be0079c531659141344cd1fd0a4f28419497f9722a3daafe3b4186f6b6457e060405160405180910390a35050565b6000612c57836000018373ffffffffffffffffffffffffffffffffffffffff1660001b613522565b905092915050565b600073ffffffffffffffffffffffffffffffffffffffff163373ffffffffffffffffffffffffffffffffffffffff161415612c9957600080fd5b612710612ca46113d7565b10612ce4576040517f08c379a0000000000000000000000000000000000000000000000000000000008152600401612cdb90614b0f565b60405180910390fd5b60008111612d27576040517f08c379a0000000000000000000000000000000000000000000000000000000008152600401612d1e906149af565b60405180910390fd5b6004811115612d6b576040517f08c379a0000000000000000000000000000000000000000000000000000000008152600401612d629061480f565b60405180910390fd5b601160009054906101000a900460ff1615612dcd57612d8933613592565b612dc8576040517f08c379a0000000000000000000000000000000000000000000000000000000008152600401612dbf906146cf565b60405180910390fd5b612f5f565b601160019054906101000a900460ff1615612f0d57612deb33613592565b612e2a576040517f08c379a0000000000000000000000000000000000000000000000000000000008152600401612e21906146cf565b60405180910390fd5b6004600d60003373ffffffffffffffffffffffffffffffffffffffff1673ffffffffffffffffffffffffffffffffffffffff1681526020019081526020016000205482612e779190614c79565b1115612eb8576040517f08c379a0000000000000000000000000000000000000000000000000000000008152600401612eaf90614acf565b60405180910390fd5b3481600f54612ec79190614d00565b1115612f08576040517f08c379a0000000000000000000000000000000000000000000000000000000008152600401612eff90614a8f565b60405180910390fd5b612f5e565b3481601054612f1c9190614d00565b1115612f5d576040517f08c379a0000000000000000000000000000000000000000000000000000000008152600401612f5490614a6f565b60405180910390fd5b5b5b50565b6000612f6e60086135af565b6000612f7a60086127f1565b9050612f8683826135c5565b80915050919050565b8173ffffffffffffffffffffffffffffffffffffffff168373ffffffffffffffffffffffffffffffffffffffff161415612ffe576040517f08c379a0000000000000000000000000000000000000000000000000000000008152600401612ff59061478f565b60405180910390fd5b80600560008573ffffffffffffffffffffffffffffffffffffffff1673ffffffffffffffffffffffffffffffffffffffff16815260200190815260200160002060008473ffffffffffffffffffffffffffffffffffffffff1673ffffffffffffffffffffffffffffffffffffffff16815260200190815260200160002060006101000a81548160ff0219169083151502179055508173ffffffffffffffffffffffffffffffffffffffff168373ffffffffffffffffffffffffffffffffffffffff167f17307eab39ab6107e8899845ad3d59bd9653f200f220920489ca2b5937696c31836040516130ef9190614672565b60405180910390a3505050565b6131078484846128dd565b613113848484846135e3565b613152576040517f08c379a00000000000000000000000000000000000000000000000000000000081526004016131499061470f565b60405180910390fd5b50505050565b6060600b805461316790614e44565b80601f016020809104026020016040519081016040528092919081815260200182805461319390614e44565b80156131e05780601f106131b5576101008083540402835291602001916131e0565b820191906000526020600020905b8154815290600101906020018083116131c357829003601f168201915b5050505050905090565b60606000821415613232576040518060400160405280600181526020017f30000000000000000000000000000000000000000000000000000000000000008152509050613392565b600082905060005b6000821461326457808061324d90614ea7565b915050600a8261325d9190614ccf565b915061323a565b60008167ffffffffffffffff8111156132a6577f4e487b7100000000000000000000000000000000000000000000000000000000600052604160045260246000fd5b6040519080825280601f01601f1916602001820160405280156132d85781602001600182028036833780820191505090505b5090505b6000851461338b576001826132f19190614d5a565b9150600a856133009190614ef0565b603061330c9190614c79565b60f81b818381518110613348577f4e487b7100000000000000000000000000000000000000000000000000000000600052603260045260246000fd5b60200101907effffffffffffffffffffffffffffffffffffffffffffffffffffffffffffff1916908160001a905350600a856133849190614ccf565b94506132dc565b8093505050505b919050565b505050565b600080836001016000848152602001908152602001600020549050600081146135165760006001826133ce9190614d5a565b90506000600186600001805490506133e69190614d5a565b90508181146134a157600086600001828154811061342d577f4e487b7100000000000000000000000000000000000000000000000000000000600052603260045260246000fd5b9060005260206000200154905080876000018481548110613477577f4e487b7100000000000000000000000000000000000000000000000000000000600052603260045260246000fd5b90600052602060002001819055508387600101600083815260200190815260200160002081905550505b856000018054806134db577f4e487b7100000000000000000000000000000000000000000000000000000000600052603160045260246000fd5b60019003818190600052602060002001600090559055856001016000868152602001908152602001600020600090556001935050505061351c565b60009150505b92915050565b600061352e838361377a565b61358757826000018290806001815401808255809150506001900390600052602060002001600090919091909150558260000180549050836001016000848152602001908152602001600020819055506001905061358c565b600090505b92915050565b60006135a882600961379d90919063ffffffff16565b9050919050565b6001816000016000828254019250508190555050565b6135df8282604051806020016040528060008152506137cd565b5050565b60006136048473ffffffffffffffffffffffffffffffffffffffff16613828565b1561376d578373ffffffffffffffffffffffffffffffffffffffff1663150b7a0261362d6126c4565b8786866040518563ffffffff1660e01b815260040161364f94939291906145db565b602060405180830381600087803b15801561366957600080fd5b505af192505050801561369a57506040513d601f19601f820116820180604052508101906136979190613e8c565b60015b61371d573d80600081146136ca576040519150601f19603f3d011682016040523d82523d6000602084013e6136cf565b606091505b50600081511415613715576040517f08c379a000000000000000000000000000000000000000000000000000000000815260040161370c9061470f565b60405180910390fd5b805181602001fd5b63150b7a0260e01b7bffffffffffffffffffffffffffffffffffffffffffffffffffffffff1916817bffffffffffffffffffffffffffffffffffffffffffffffffffffffff191614915050613772565b600190505b949350505050565b600080836001016000848152602001908152602001600020541415905092915050565b60006137c5836000018373ffffffffffffffffffffffffffffffffffffffff1660001b61377a565b905092915050565b6137d7838361383b565b6137e460008484846135e3565b613823576040517f08c379a000000000000000000000000000000000000000000000000000000000815260040161381a9061470f565b60405180910390fd5b505050565b600080823b905060008111915050919050565b600073ffffffffffffffffffffffffffffffffffffffff168273ffffffffffffffffffffffffffffffffffffffff1614156138ab576040517f08c379a00000000000000000000000000000000000000000000000000000000081526004016138a2906148ef565b60405180910390fd5b6138b4816126cc565b156138f4576040517f08c379a00000000000000000000000000000000000000000000000000000000081526004016138eb9061474f565b60405180910390fd5b61390060008383613397565b6001600360008473ffffffffffffffffffffffffffffffffffffffff1673ffffffffffffffffffffffffffffffffffffffff16815260200190815260200160002060008282546139509190614c79565b92505081905550816002600083815260200190815260200160002060006101000a81548173ffffffffffffffffffffffffffffffffffffffff021916908373ffffffffffffffffffffffffffffffffffffffff160217905550808273ffffffffffffffffffffffffffffffffffffffff16600073ffffffffffffffffffffffffffffffffffffffff167fddf252ad1be2c89b69c2b068fc378daa952ba7f163c4a11628f55a4df523b3ef60405160405180910390a45050565b828054613a1590614e44565b90600052602060002090601f016020900481019282613a375760008555613a7e565b82601f10613a5057805160ff1916838001178555613a7e565b82800160010185558215613a7e579182015b82811115613a7d578251825591602001919060010190613a62565b5b509050613a8b9190613a8f565b5090565b5b80821115613aa8576000816000905550600101613a90565b5090565b6000613abf613aba84614b6f565b614b4a565b90508083825260208201905082856020860282011115613ade57600080fd5b60005b85811015613b0e5781613af48882613b94565b845260208401935060208301925050600181019050613ae1565b5050509392505050565b6000613b2b613b2684614b9b565b614b4a565b905082815260208101848484011115613b4357600080fd5b613b4e848285614e02565b509392505050565b6000613b69613b6484614bcc565b614b4a565b905082815260208101848484011115613b8157600080fd5b613b8c848285614e02565b509392505050565b600081359050613ba3816158d0565b92915050565b600082601f830112613bba57600080fd5b8135613bca848260208601613aac565b91505092915050565b600081359050613be2816158e7565b92915050565b600081359050613bf7816158fe565b92915050565b600081519050613c0c816158fe565b92915050565b600082601f830112613c2357600080fd5b8135613c33848260208601613b18565b91505092915050565b600082601f830112613c4d57600080fd5b8135613c5d848260208601613b56565b91505092915050565b600081359050613c7581615915565b92915050565b600060208284031215613c8d57600080fd5b6000613c9b84828501613b94565b91505092915050565b60008060408385031215613cb757600080fd5b6000613cc585828601613b94565b9250506020613cd685828601613b94565b9150509250929050565b600080600060608486031215613cf557600080fd5b6000613d0386828701613b94565b9350506020613d1486828701613b94565b9250506040613d2586828701613c66565b9150509250925092565b60008060008060808587031215613d4557600080fd5b6000613d5387828801613b94565b9450506020613d6487828801613b94565b9350506040613d7587828801613c66565b925050606085013567ffffffffffffffff811115613d9257600080fd5b613d9e87828801613c12565b91505092959194509250565b60008060408385031215613dbd57600080fd5b6000613dcb85828601613b94565b9250506020613ddc85828601613bd3565b9150509250929050565b60008060408385031215613df957600080fd5b6000613e0785828601613b94565b9250506020613e1885828601613c66565b9150509250929050565b600060208284031215613e3457600080fd5b600082013567ffffffffffffffff811115613e4e57600080fd5b613e5a84828501613ba9565b91505092915050565b600060208284031215613e7557600080fd5b6000613e8384828501613be8565b91505092915050565b600060208284031215613e9e57600080fd5b6000613eac84828501613bfd565b91505092915050565b600060208284031215613ec757600080fd5b600082013567ffffffffffffffff811115613ee157600080fd5b613eed84828501613c3c565b91505092915050565b600060208284031215613f0857600080fd5b6000613f1684828501613c66565b91505092915050565b60008060408385031215613f3257600080fd5b6000613f4085828601613c66565b9250506020613f5185828601613c66565b9150509250929050565b6000613f67838361457e565b60208301905092915050565b613f7c81614d8e565b82525050565b6000613f8d82614c0d565b613f978185614c3b565b9350613fa283614bfd565b8060005b83811015613fd3578151613fba8882613f5b565b9750613fc583614c2e565b925050600181019050613fa6565b5085935050505092915050565b613fe981614da0565b82525050565b6000613ffa82614c18565b6140048185614c4c565b9350614014818560208601614e11565b61401d81614fdd565b840191505092915050565b600061403382614c23565b61403d8185614c5d565b935061404d818560208601614e11565b61405681614fdd565b840191505092915050565b600061406c82614c23565b6140768185614c6e565b9350614086818560208601614e11565b80840191505092915050565b600061409f602083614c5d565b91506140aa82614fee565b602082019050919050565b60006140c2602b83614c5d565b91506140cd82615017565b604082019050919050565b60006140e5602c83614c5d565b91506140f082615066565b604082019050919050565b6000614108603283614c5d565b9150614113826150b5565b604082019050919050565b600061412b602683614c5d565b915061413682615104565b604082019050919050565b600061414e601c83614c5d565b915061415982615153565b602082019050919050565b6000614171602483614c5d565b915061417c8261517c565b604082019050919050565b6000614194601983614c5d565b915061419f826151cb565b602082019050919050565b60006141b7601483614c5d565b91506141c2826151f4565b602082019050919050565b60006141da601283614c5d565b91506141e58261521d565b602082019050919050565b60006141fd601283614c5d565b915061420882615246565b602082019050919050565b6000614220602883614c5d565b915061422b8261526f565b604082019050919050565b6000614243602c83614c5d565b915061424e826152be565b604082019050919050565b6000614266603883614c5d565b91506142718261530d565b604082019050919050565b6000614289601c83614c5d565b91506142948261535c565b602082019050919050565b60006142ac602a83614c5d565b91506142b782615385565b604082019050919050565b60006142cf602983614c5d565b91506142da826153d4565b604082019050919050565b60006142f2603883614c5d565b91506142fd82615423565b604082019050919050565b6000614315602083614c5d565b915061432082615472565b602082019050919050565b6000614338601583614c5d565b91506143438261549b565b602082019050919050565b600061435b602c83614c5d565b9150614366826154c4565b604082019050919050565b600061437e602083614c5d565b915061438982615513565b602082019050919050565b60006143a1602983614c5d565b91506143ac8261553c565b604082019050919050565b60006143c4602f83614c5d565b91506143cf8261558b565b604082019050919050565b60006143e7601c83614c5d565b91506143f2826155da565b602082019050919050565b600061440a602183614c5d565b915061441582615603565b604082019050919050565b600061442d602583614c5d565b915061443882615652565b604082019050919050565b6000614450601383614c5d565b915061445b826156a1565b602082019050919050565b6000614473603183614c5d565b915061447e826156ca565b604082019050919050565b6000614496601583614c5d565b91506144a182615719565b602082019050919050565b60006144b9604183614c5d565b91506144c482615742565b606082019050919050565b60006144dc603d83614c5d565b91506144e7826157b7565b604082019050919050565b60006144ff601f83614c5d565b915061450a82615806565b602082019050919050565b6000614522602683614c5d565b915061452d8261582f565b604082019050919050565b6000614545601383614c5d565b91506145508261587e565b602082019050919050565b6000614568600f83614c5d565b9150614573826158a7565b602082019050919050565b61458781614df8565b82525050565b61459681614df8565b82525050565b60006145a88285614061565b91506145b48284614061565b91508190509392505050565b60006020820190506145d56000830184613f73565b92915050565b60006080820190506145f06000830187613f73565b6145fd6020830186613f73565b61460a604083018561458d565b818103606083015261461c8184613fef565b905095945050505050565b600060408201905061463c6000830185613f73565b614649602083018461458d565b9392505050565b6000602082019050818103600083015261466a8184613f82565b905092915050565b60006020820190506146876000830184613fe0565b92915050565b600060208201905081810360008301526146a78184614028565b905092915050565b600060208201905081810360008301526146c881614092565b9050919050565b600060208201905081810360008301526146e8816140b5565b9050919050565b60006020820190508181036000830152614708816140d8565b9050919050565b60006020820190508181036000830152614728816140fb565b9050919050565b600060208201905081810360008301526147488161411e565b9050919050565b6000602082019050818103600083015261476881614141565b9050919050565b6000602082019050818103600083015261478881614164565b9050919050565b600060208201905081810360008301526147a881614187565b9050919050565b600060208201905081810360008301526147c8816141aa565b9050919050565b600060208201905081810360008301526147e8816141cd565b9050919050565b60006020820190508181036000830152614808816141f0565b9050919050565b6000602082019050818103600083015261482881614213565b9050919050565b6000602082019050818103600083015261484881614236565b9050919050565b6000602082019050818103600083015261486881614259565b9050919050565b600060208201905081810360008301526148888161427c565b9050919050565b600060208201905081810360008301526148a88161429f565b9050919050565b600060208201905081810360008301526148c8816142c2565b9050919050565b600060208201905081810360008301526148e8816142e5565b9050919050565b6000602082019050818103600083015261490881614308565b9050919050565b600060208201905081810360008301526149288161432b565b9050919050565b600060208201905081810360008301526149488161434e565b9050919050565b6000602082019050818103600083015261496881614371565b9050919050565b6000602082019050818103600083015261498881614394565b9050919050565b600060208201905081810360008301526149a8816143b7565b9050919050565b600060208201905081810360008301526149c8816143da565b9050919050565b600060208201905081810360008301526149e8816143fd565b9050919050565b60006020820190508181036000830152614a0881614420565b9050919050565b60006020820190508181036000830152614a2881614443565b9050919050565b60006020820190508181036000830152614a4881614466565b9050919050565b60006020820190508181036000830152614a6881614489565b9050919050565b60006020820190508181036000830152614a88816144ac565b9050919050565b60006020820190508181036000830152614aa8816144cf565b9050919050565b60006020820190508181036000830152614ac8816144f2565b9050919050565b60006020820190508181036000830152614ae881614515565b9050919050565b60006020820190508181036000830152614b0881614538565b9050919050565b60006020820190508181036000830152614b288161455b565b9050919050565b6000602082019050614b44600083018461458d565b92915050565b6000614b54614b65565b9050614b608282614e76565b919050565b6000604051905090565b600067ffffffffffffffff821115614b8a57614b89614fae565b5b602082029050602081019050919050565b600067ffffffffffffffff821115614bb657614bb5614fae565b5b614bbf82614fdd565b9050602081019050919050565b600067ffffffffffffffff821115614be757614be6614fae565b5b614bf082614fdd565b9050602081019050919050565b6000819050602082019050919050565b600081519050919050565b600081519050919050565b600081519050919050565b6000602082019050919050565b600082825260208201905092915050565b600082825260208201905092915050565b600082825260208201905092915050565b600081905092915050565b6000614c8482614df8565b9150614c8f83614df8565b9250827fffffffffffffffffffffffffffffffffffffffffffffffffffffffffffffffff03821115614cc457614cc3614f21565b5b828201905092915050565b6000614cda82614df8565b9150614ce583614df8565b925082614cf557614cf4614f50565b5b828204905092915050565b6000614d0b82614df8565b9150614d1683614df8565b9250817fffffffffffffffffffffffffffffffffffffffffffffffffffffffffffffffff0483118215151615614d4f57614d4e614f21565b5b828202905092915050565b6000614d6582614df8565b9150614d7083614df8565b925082821015614d8357614d82614f21565b5b828203905092915050565b6000614d9982614dd8565b9050919050565b60008115159050919050565b60007fffffffff0000000000000000000000000000000000000000000000000000000082169050919050565b600073ffffffffffffffffffffffffffffffffffffffff82169050919050565b6000819050919050565b82818337600083830152505050565b60005b83811015614e2f578082015181840152602081019050614e14565b83811115614e3e576000848401525b50505050565b60006002820490506001821680614e5c57607f821691505b60208210811415614e7057614e6f614f7f565b5b50919050565b614e7f82614fdd565b810181811067ffffffffffffffff82111715614e9e57614e9d614fae565b5b80604052505050565b6000614eb282614df8565b91507fffffffffffffffffffffffffffffffffffffffffffffffffffffffffffffffff821415614ee557614ee4614f21565b5b600182019050919050565b6000614efb82614df8565b9150614f0683614df8565b925082614f1657614f15614f50565b5b828206905092915050565b7f4e487b7100000000000000000000000000000000000000000000000000000000600052601160045260246000fd5b7f4e487b7100000000000000000000000000000000000000000000000000000000600052601260045260246000fd5b7f4e487b7100000000000000000000000000000000000000000000000000000000600052602260045260246000fd5b7f4e487b7100000000000000000000000000000000000000000000000000000000600052604160045260246000fd5b6000601f19601f8301169050919050565b7f546865726520617265206e6f2073616c657320617420746869732074696d652e600082015250565b7f576527726520736f7272792c20796f757220616464726573732069736e27742060008201527f77686974656c6973746564000000000000000000000000000000000000000000602082015250565b7f4d7573742073656e6420616e206172726179206f66206164647265737365732060008201527f746f2077686974656c6973740000000000000000000000000000000000000000602082015250565b7f4552433732313a207472616e7366657220746f206e6f6e20455243373231526560008201527f63656976657220696d706c656d656e7465720000000000000000000000000000602082015250565b7f4f776e61626c653a206e6577206f776e657220697320746865207a65726f206160008201527f6464726573730000000000000000000000000000000000000000000000000000602082015250565b7f4552433732313a20746f6b656e20616c7265616479206d696e74656400000000600082015250565b7f4552433732313a207472616e7366657220746f20746865207a65726f2061646460008201527f7265737300000000000000000000000000000000000000000000000000000000602082015250565b7f4552433732313a20617070726f766520746f2063616c6c657200000000000000600082015250565b7f4e6f7468696e6720746f2077697468647261772e000000000000000000000000600082015250565b7f53616c65206973206e6f74206163746976650000000000000000000000000000600082015250565b7f53616c65206973206e6f74207061757365640000000000000000000000000000600082015250565b7f43616e6e6f74206d696e74206d6f7265207468616e203420746f6b656e73206160008201527f7420612074696d65000000000000000000000000000000000000000000000000602082015250565b7f4552433732313a206f70657261746f7220717565727920666f72206e6f6e657860008201527f697374656e7420746f6b656e0000000000000000000000000000000000000000602082015250565b7f4552433732313a20617070726f76652063616c6c6572206973206e6f74206f7760008201527f6e6572206e6f7220617070726f76656420666f7220616c6c0000000000000000602082015250565b7f57686974656c6973742063616e6e6f7420657863656564203230303000000000600082015250565b7f4552433732313a2062616c616e636520717565727920666f7220746865207a6560008201527f726f206164647265737300000000000000000000000000000000000000000000602082015250565b7f4552433732313a206f776e657220717565727920666f72206e6f6e657869737460008201527f656e7420746f6b656e0000000000000000000000000000000000000000000000602082015250565b7f4d7573742073656e6420616e206172726179206f66206164647265737365732060008201527f746f2072656d6f76652066726f6d2077686974656c6973740000000000000000602082015250565b7f4552433732313a206d696e7420746f20746865207a65726f2061646472657373600082015250565b7f50726573616c65206973206e6f74207061757365640000000000000000000000600082015250565b7f4552433732313a20617070726f76656420717565727920666f72206e6f6e657860008201527f697374656e7420746f6b656e0000000000000000000000000000000000000000602082015250565b7f4f776e61626c653a2063616c6c6572206973206e6f7420746865206f776e6572600082015250565b7f4552433732313a207472616e73666572206f6620746f6b656e2074686174206960008201527f73206e6f74206f776e0000000000000000000000000000000000000000000000602082015250565b7f4552433732314d657461646174613a2055524920717565727920666f72206e6f60008201527f6e6578697374656e7420746f6b656e0000000000000000000000000000000000602082015250565b7f4d757374206d696e74206174206c65617374206f6e6520746f6b656e00000000600082015250565b7f4552433732313a20617070726f76616c20746f2063757272656e74206f776e6560008201527f7200000000000000000000000000000000000000000000000000000000000000602082015250565b7f4e6f6e6578697374656e7420746f6b656e20666f7220726f79616c747920706160008201527f796d656e74000000000000000000000000000000000000000000000000000000602082015250565b7f4769766561776179206e6f742061637469766500000000000000000000000000600082015250565b7f4552433732313a207472616e736665722063616c6c6572206973206e6f74206f60008201527f776e6572206e6f7220617070726f766564000000000000000000000000000000602082015250565b7f50726573616c65206973206e6f74206163746976650000000000000000000000600082015250565b7f496e73756666696369656e742066756e64733a2045746865722076616c75652060008201527f646f6573206e6f74206d61746368207075626c69632073616c6520707269636560208201527f2e00000000000000000000000000000000000000000000000000000000000000604082015250565b7f496e73756666696369656e742066756e64733a2045746865722076616c75652060008201527f646f6573206e6f74206d617463682070726573616c652070726963652e000000602082015250565b7f5265656e7472616e637947756172643a207265656e7472616e742063616c6c00600082015250565b7f43616e6e6f74206d696e74206d6f7265207468616e203420746f6b656e73207060008201527f726573616c650000000000000000000000000000000000000000000000000000602082015250565b7f4769766561776179206e6f742070617573656400000000000000000000000000600082015250565b7f4e6f20746f6b656e73206c656674210000000000000000000000000000000000600082015250565b6158d981614d8e565b81146158e457600080fd5b50565b6158f081614da0565b81146158fb57600080fd5b50565b61590781614dac565b811461591257600080fd5b50565b61591e81614df8565b811461592957600080fd5b5056fea26469706673582212200b933f94a58a4e6dc5484b8d2576f0b1c936597715ac1aa8daca04e99abf237164736f6c63430008040033",
  "linkReferences": {},
  "deployedLinkReferences": {}
}