{
  "_format": "hh-sol-artifact-1",
  "contractName": "Turtleverse",
  "sourceName": "contracts/Turtleverse.sol",
  "abi": [
    {
      "inputs": [
        {
          "internalType": "string",
          "name": "name_",
          "type": "string"
        },
        {
          "internalType": "string",
          "name": "symbol_",
          "type": "string"
        },
        {
          "internalType": "string",
          "name": "baseURI_",
          "type": "string"
        },
        {
          "internalType": "bool",
          "name": "royaltiesActive_",
          "type": "bool"
        }
      ],
      "stateMutability": "nonpayable",
      "type": "constructor"
    },
    {
      "anonymous": false,
      "inputs": [
        {
          "indexed": true,
          "internalType": "address",
          "name": "_address",
          "type": "address"
        }
      ],
      "name": "AddedToGiveawayList",
      "type": "event"
    },
    {
      "anonymous": false,
      "inputs": [
        {
          "indexed": true,
          "internalType": "address",
          "name": "_address",
          "type": "address"
        }
      ],
      "name": "AddedToWhitelist",
      "type": "event"
    },
    {
      "anonymous": false,
      "inputs": [
        {
          "indexed": true,
          "internalType": "address",
          "name": "owner",
          "type": "address"
        },
        {
          "indexed": true,
          "internalType": "address",
          "name": "approved",
          "type": "address"
        },
        {
          "indexed": true,
          "internalType": "uint256",
          "name": "tokenId",
          "type": "uint256"
        }
      ],
      "name": "Approval",
      "type": "event"
    },
    {
      "anonymous": false,
      "inputs": [
        {
          "indexed": true,
          "internalType": "address",
          "name": "owner",
          "type": "address"
        },
        {
          "indexed": true,
          "internalType": "address",
          "name": "operator",
          "type": "address"
        },
        {
          "indexed": false,
          "internalType": "bool",
          "name": "approved",
          "type": "bool"
        }
      ],
      "name": "ApprovalForAll",
      "type": "event"
    },
    {
      "anonymous": false,
      "inputs": [
        {
          "indexed": true,
          "internalType": "uint256",
          "name": "_giveawayStopTime",
          "type": "uint256"
        }
      ],
      "name": "GiveawayPaused",
      "type": "event"
    },
    {
      "anonymous": false,
      "inputs": [
        {
          "indexed": true,
          "internalType": "uint256",
          "name": "_giveawayStartTime",
          "type": "uint256"
        }
      ],
      "name": "GiveawayStart",
      "type": "event"
    },
    {
      "anonymous": false,
      "inputs": [
        {
          "indexed": true,
          "internalType": "uint256",
          "name": "_giveawayPurgedTime",
          "type": "uint256"
        }
      ],
      "name": "GiveawaysPurged",
      "type": "event"
    },
    {
      "anonymous": false,
      "inputs": [
        {
          "indexed": true,
          "internalType": "address",
          "name": "previousOwner",
          "type": "address"
        },
        {
          "indexed": true,
          "internalType": "address",
          "name": "newOwner",
          "type": "address"
        }
      ],
      "name": "OwnershipTransferred",
      "type": "event"
    },
    {
      "anonymous": false,
      "inputs": [
        {
          "indexed": true,
          "internalType": "uint256",
          "name": "_presaleStopTime",
          "type": "uint256"
        }
      ],
      "name": "PresalePaused",
      "type": "event"
    },
    {
      "anonymous": false,
      "inputs": [
        {
          "indexed": true,
          "internalType": "uint256",
          "name": "_presaleStartTime",
          "type": "uint256"
        }
      ],
      "name": "PresaleStart",
      "type": "event"
    },
    {
      "anonymous": false,
      "inputs": [
        {
          "indexed": true,
          "internalType": "address",
          "name": "_address",
          "type": "address"
        }
      ],
      "name": "RemovedFromWhitelist",
      "type": "event"
    },
    {
      "anonymous": false,
      "inputs": [
        {
          "indexed": true,
          "internalType": "uint256",
          "name": "_saleStopTime",
          "type": "uint256"
        }
      ],
      "name": "SalePaused",
      "type": "event"
    },
    {
      "anonymous": false,
      "inputs": [
        {
          "indexed": true,
          "internalType": "uint256",
          "name": "_saleStartTime",
          "type": "uint256"
        }
      ],
      "name": "SaleStart",
      "type": "event"
    },
    {
      "anonymous": false,
      "inputs": [
        {
          "indexed": true,
          "internalType": "address",
          "name": "from",
          "type": "address"
        },
        {
          "indexed": true,
          "internalType": "address",
          "name": "to",
          "type": "address"
        },
        {
          "indexed": true,
          "internalType": "uint256",
          "name": "tokenId",
          "type": "uint256"
        }
      ],
      "name": "Transfer",
      "type": "event"
    },
    {
      "inputs": [
        {
          "internalType": "address[]",
          "name": "addresses",
          "type": "address[]"
        }
      ],
      "name": "addToGiveawayList",
      "outputs": [],
      "stateMutability": "nonpayable",
      "type": "function"
    },
    {
      "inputs": [
        {
          "internalType": "address[]",
          "name": "addresses",
          "type": "address[]"
        }
      ],
      "name": "addToWhitelist",
      "outputs": [],
      "stateMutability": "nonpayable",
      "type": "function"
    },
    {
      "inputs": [
        {
          "internalType": "address",
          "name": "to",
          "type": "address"
        },
        {
          "internalType": "uint256",
          "name": "tokenId",
          "type": "uint256"
        }
      ],
      "name": "approve",
      "outputs": [],
      "stateMutability": "nonpayable",
      "type": "function"
    },
    {
      "inputs": [
        {
          "internalType": "address",
          "name": "owner",
          "type": "address"
        }
      ],
      "name": "balanceOf",
      "outputs": [
        {
          "internalType": "uint256",
          "name": "",
          "type": "uint256"
        }
      ],
      "stateMutability": "view",
      "type": "function"
    },
    {
      "inputs": [
        {
          "internalType": "uint256",
          "name": "tokenId",
          "type": "uint256"
        }
      ],
      "name": "getApproved",
      "outputs": [
        {
          "internalType": "address",
          "name": "",
          "type": "address"
        }
      ],
      "stateMutability": "view",
      "type": "function"
    },
    {
      "inputs": [],
      "name": "giveawayActive",
      "outputs": [
        {
          "internalType": "bool",
          "name": "",
          "type": "bool"
        }
      ],
      "stateMutability": "view",
      "type": "function"
    },
    {
      "inputs": [],
      "name": "giveawayPriceToMint",
      "outputs": [
        {
          "internalType": "uint256",
          "name": "",
          "type": "uint256"
        }
      ],
      "stateMutability": "view",
      "type": "function"
    },
    {
      "inputs": [
        {
          "internalType": "address",
          "name": "value",
          "type": "address"
        }
      ],
      "name": "inGiveawayList",
      "outputs": [
        {
          "internalType": "bool",
          "name": "",
          "type": "bool"
        }
      ],
      "stateMutability": "view",
      "type": "function"
    },
    {
      "inputs": [
        {
          "internalType": "address",
          "name": "value",
          "type": "address"
        }
      ],
      "name": "inWhitelist",
      "outputs": [
        {
          "internalType": "bool",
          "name": "",
          "type": "bool"
        }
      ],
      "stateMutability": "view",
      "type": "function"
    },
    {
      "inputs": [
        {
          "internalType": "address",
          "name": "owner",
          "type": "address"
        },
        {
          "internalType": "address",
          "name": "operator",
          "type": "address"
        }
      ],
      "name": "isApprovedForAll",
      "outputs": [
        {
          "internalType": "bool",
          "name": "",
          "type": "bool"
        }
      ],
      "stateMutability": "view",
      "type": "function"
    },
    {
      "inputs": [
        {
          "internalType": "uint256",
          "name": "tokensAmount",
          "type": "uint256"
        },
        {
          "internalType": "string[]",
          "name": "tokenHashes",
          "type": "string[]"
        }
      ],
      "name": "mintTokens",
      "outputs": [
        {
          "internalType": "uint256[]",
          "name": "",
          "type": "uint256[]"
        }
      ],
      "stateMutability": "payable",
      "type": "function"
    },
    {
      "inputs": [],
      "name": "name",
      "outputs": [
        {
          "internalType": "string",
          "name": "",
          "type": "string"
        }
      ],
      "stateMutability": "view",
      "type": "function"
    },
    {
      "inputs": [],
      "name": "owner",
      "outputs": [
        {
          "internalType": "address",
          "name": "",
          "type": "address"
        }
      ],
      "stateMutability": "view",
      "type": "function"
    },
    {
      "inputs": [
        {
          "internalType": "uint256",
          "name": "tokenId",
          "type": "uint256"
        }
      ],
      "name": "ownerOf",
      "outputs": [
        {
          "internalType": "address",
          "name": "",
          "type": "address"
        }
      ],
      "stateMutability": "view",
      "type": "function"
    },
    {
      "inputs": [],
      "name": "pauseGiveaway",
      "outputs": [],
      "stateMutability": "nonpayable",
      "type": "function"
    },
    {
      "inputs": [],
      "name": "pausePresale",
      "outputs": [],
      "stateMutability": "nonpayable",
      "type": "function"
    },
    {
      "inputs": [],
      "name": "pausePublicSale",
      "outputs": [],
      "stateMutability": "nonpayable",
      "type": "function"
    },
    {
      "inputs": [],
      "name": "presaleActive",
      "outputs": [
        {
          "internalType": "bool",
          "name": "",
          "type": "bool"
        }
      ],
      "stateMutability": "view",
      "type": "function"
    },
    {
      "inputs": [],
      "name": "presaleLimit",
      "outputs": [
        {
          "internalType": "uint8",
          "name": "",
          "type": "uint8"
        }
      ],
      "stateMutability": "view",
      "type": "function"
    },
    {
      "inputs": [],
      "name": "presalePriceToMint",
      "outputs": [
        {
          "internalType": "uint256",
          "name": "",
          "type": "uint256"
        }
      ],
      "stateMutability": "view",
      "type": "function"
    },
    {
      "inputs": [
        {
          "internalType": "address",
          "name": "",
          "type": "address"
        }
      ],
      "name": "presalePurchasedAmount",
      "outputs": [
        {
          "internalType": "uint256",
          "name": "",
          "type": "uint256"
        }
      ],
      "stateMutability": "view",
      "type": "function"
    },
    {
      "inputs": [],
      "name": "price",
      "outputs": [
        {
          "internalType": "uint256",
          "name": "",
          "type": "uint256"
        }
      ],
      "stateMutability": "view",
      "type": "function"
    },
    {
      "inputs": [],
      "name": "priceToMint",
      "outputs": [
        {
          "internalType": "uint256",
          "name": "",
          "type": "uint256"
        }
      ],
      "stateMutability": "view",
      "type": "function"
    },
    {
      "inputs": [],
      "name": "purgeGiveawayList",
      "outputs": [],
      "stateMutability": "nonpayable",
      "type": "function"
    },
    {
      "inputs": [
        {
          "internalType": "address[]",
          "name": "addresses",
          "type": "address[]"
        }
      ],
      "name": "removeFromWhitelist",
      "outputs": [],
      "stateMutability": "nonpayable",
      "type": "function"
    },
    {
      "inputs": [],
      "name": "renounceOwnership",
      "outputs": [],
      "stateMutability": "nonpayable",
      "type": "function"
    },
    {
      "inputs": [],
      "name": "royaltiesActive",
      "outputs": [
        {
          "internalType": "bool",
          "name": "",
          "type": "bool"
        }
      ],
      "stateMutability": "view",
      "type": "function"
    },
    {
      "inputs": [
        {
          "internalType": "uint256",
          "name": "_tokenId",
          "type": "uint256"
        },
        {
          "internalType": "uint256",
          "name": "_salePrice",
          "type": "uint256"
        }
      ],
      "name": "royaltyInfo",
      "outputs": [
        {
          "internalType": "address",
          "name": "receiver",
          "type": "address"
        },
        {
          "internalType": "uint256",
          "name": "royaltyAmount",
          "type": "uint256"
        }
      ],
      "stateMutability": "view",
      "type": "function"
    },
    {
      "inputs": [
        {
          "internalType": "address",
          "name": "from",
          "type": "address"
        },
        {
          "internalType": "address",
          "name": "to",
          "type": "address"
        },
        {
          "internalType": "uint256",
          "name": "tokenId",
          "type": "uint256"
        }
      ],
      "name": "safeTransferFrom",
      "outputs": [],
      "stateMutability": "nonpayable",
      "type": "function"
    },
    {
      "inputs": [
        {
          "internalType": "address",
          "name": "from",
          "type": "address"
        },
        {
          "internalType": "address",
          "name": "to",
          "type": "address"
        },
        {
          "internalType": "uint256",
          "name": "tokenId",
          "type": "uint256"
        },
        {
          "internalType": "bytes",
          "name": "_data",
          "type": "bytes"
        }
      ],
      "name": "safeTransferFrom",
      "outputs": [],
      "stateMutability": "nonpayable",
      "type": "function"
    },
    {
      "inputs": [],
      "name": "saleActive",
      "outputs": [
        {
          "internalType": "bool",
          "name": "",
          "type": "bool"
        }
      ],
      "stateMutability": "view",
      "type": "function"
    },
    {
      "inputs": [],
      "name": "saleLimit",
      "outputs": [
        {
          "internalType": "uint8",
          "name": "",
          "type": "uint8"
        }
      ],
      "stateMutability": "view",
      "type": "function"
    },
    {
      "inputs": [
        {
          "internalType": "address",
          "name": "",
          "type": "address"
        }
      ],
      "name": "salePurchasedAmount",
      "outputs": [
        {
          "internalType": "uint256",
          "name": "",
          "type": "uint256"
        }
      ],
      "stateMutability": "view",
      "type": "function"
    },
    {
      "inputs": [
        {
          "internalType": "address",
          "name": "operator",
          "type": "address"
        },
        {
          "internalType": "bool",
          "name": "approved",
          "type": "bool"
        }
      ],
      "name": "setApprovalForAll",
      "outputs": [],
      "stateMutability": "nonpayable",
      "type": "function"
    },
    {
      "inputs": [],
      "name": "startGiveaway",
      "outputs": [],
      "stateMutability": "nonpayable",
      "type": "function"
    },
    {
      "inputs": [
        {
          "internalType": "uint8",
          "name": "presaleLimit_",
          "type": "uint8"
        }
      ],
      "name": "startPresale",
      "outputs": [],
      "stateMutability": "nonpayable",
      "type": "function"
    },
    {
      "inputs": [
        {
          "internalType": "uint8",
          "name": "saleLimit_",
          "type": "uint8"
        }
      ],
      "name": "startPublicSale",
      "outputs": [],
      "stateMutability": "nonpayable",
      "type": "function"
    },
    {
      "inputs": [
        {
          "internalType": "bytes4",
          "name": "interfaceId",
          "type": "bytes4"
        }
      ],
      "name": "supportsInterface",
      "outputs": [
        {
          "internalType": "bool",
          "name": "",
          "type": "bool"
        }
      ],
      "stateMutability": "view",
      "type": "function"
    },
    {
      "inputs": [],
      "name": "symbol",
      "outputs": [
        {
          "internalType": "string",
          "name": "",
          "type": "string"
        }
      ],
      "stateMutability": "view",
      "type": "function"
    },
    {
      "inputs": [],
      "name": "tglRoyalties",
      "outputs": [],
      "stateMutability": "nonpayable",
      "type": "function"
    },
    {
      "inputs": [
        {
          "internalType": "uint256",
          "name": "tokenId",
          "type": "uint256"
        }
      ],
      "name": "tokenURI",
      "outputs": [
        {
          "internalType": "string",
          "name": "",
          "type": "string"
        }
      ],
      "stateMutability": "view",
      "type": "function"
    },
    {
      "inputs": [
        {
          "internalType": "address",
          "name": "from",
          "type": "address"
        },
        {
          "internalType": "address",
          "name": "to",
          "type": "address"
        },
        {
          "internalType": "uint256",
          "name": "tokenId",
          "type": "uint256"
        }
      ],
      "name": "transferFrom",
      "outputs": [],
      "stateMutability": "nonpayable",
      "type": "function"
    },
    {
      "inputs": [
        {
          "internalType": "address",
          "name": "newOwner",
          "type": "address"
        }
      ],
      "name": "transferOwnership",
      "outputs": [],
      "stateMutability": "nonpayable",
      "type": "function"
    },
    {
      "inputs": [
        {
          "internalType": "address payable",
          "name": "wallet",
          "type": "address"
        },
        {
          "internalType": "uint256",
          "name": "amount",
          "type": "uint256"
        }
      ],
      "name": "withdraw",
      "outputs": [],
      "stateMutability": "nonpayable",
      "type": "function"
    }
  ],
  "bytecode": "0x60806040526000600f556658d15e1762800060105566b1a2bc2ec500006011553480156200002c57600080fd5b506040516200634b3803806200634b8339818101604052810190620000529190620002f4565b838381600090805190602001906200006c929190620001bb565b50806001908051906020019062000085929190620001bb565b505050620000a86200009c620000ed60201b60201c565b620000f560201b60201c565b60016007819055508160089080519060200190620000c8929190620001bb565b5080601260036101000a81548160ff0219169083151502179055505050505062000541565b600033905090565b6000600660009054906101000a900473ffffffffffffffffffffffffffffffffffffffff16905081600660006101000a81548173ffffffffffffffffffffffffffffffffffffffff021916908373ffffffffffffffffffffffffffffffffffffffff1602179055508173ffffffffffffffffffffffffffffffffffffffff168173ffffffffffffffffffffffffffffffffffffffff167f8be0079c531659141344cd1fd0a4f28419497f9722a3daafe3b4186f6b6457e060405160405180910390a35050565b828054620001c9906200044c565b90600052602060002090601f016020900481019282620001ed576000855562000239565b82601f106200020857805160ff191683800117855562000239565b8280016001018555821562000239579182015b82811115620002385782518255916020019190600101906200021b565b5b5090506200024891906200024c565b5090565b5b80821115620002675760008160009055506001016200024d565b5090565b6000620002826200027c84620003d4565b620003ab565b9050828152602081018484840111156200029b57600080fd5b620002a884828562000416565b509392505050565b600081519050620002c18162000527565b92915050565b600082601f830112620002d957600080fd5b8151620002eb8482602086016200026b565b91505092915050565b600080600080608085870312156200030b57600080fd5b600085015167ffffffffffffffff8111156200032657600080fd5b6200033487828801620002c7565b945050602085015167ffffffffffffffff8111156200035257600080fd5b6200036087828801620002c7565b935050604085015167ffffffffffffffff8111156200037e57600080fd5b6200038c87828801620002c7565b92505060606200039f87828801620002b0565b91505092959194509250565b6000620003b7620003ca565b9050620003c5828262000482565b919050565b6000604051905090565b600067ffffffffffffffff821115620003f257620003f1620004e7565b5b620003fd8262000516565b9050602081019050919050565b60008115159050919050565b60005b838110156200043657808201518184015260208101905062000419565b8381111562000446576000848401525b50505050565b600060028204905060018216806200046557607f821691505b602082108114156200047c576200047b620004b8565b5b50919050565b6200048d8262000516565b810181811067ffffffffffffffff82111715620004af57620004ae620004e7565b5b80604052505050565b7f4e487b7100000000000000000000000000000000000000000000000000000000600052602260045260246000fd5b7f4e487b7100000000000000000000000000000000000000000000000000000000600052604160045260246000fd5b6000601f19601f8301169050919050565b62000532816200040a565b81146200053e57600080fd5b50565b615dfa80620005516000396000f3fe6080604052600436106102675760003560e01c806368428a1b11610144578063b88d4fde116100b6578063dd0b00801161007a578063dd0b0080146108d8578063df9ffc2d146108ef578063e2aafa211461092c578063e985e9c514610969578063f2fde38b146109a6578063f3fef3a3146109cf57610267565b8063b88d4fde14610800578063c0f98e3314610829578063c165507c14610859578063c87b56dd14610870578063dc9403a6146108ad57610267565b80637f649783116101085780637f649783146107045780638da5cb5b1461072d57806394c606f51461075857806395d89b4114610781578063a035b1fe146107ac578063a22cb465146107d757610267565b806368428a1b1461064357806370a082311461066e578063715018a6146106ab5780637c0f8aa0146106c25780637e26639f146106d957610267565b806337573876116101dd5780634dc1dbec116101a15780634dc1dbec14610533578063525b3fe31461055e57806353135ca014610589578063548db174146105b45780636352211e146105dd5780636739f1431461061a57610267565b8063375738761461043c5780633e571a091461047957806342842e0e146104b65780634616d4b2146104df5780634779e7a11461050a57610267565b8063095ea7b31161022f578063095ea7b31461033f5780630c41f49714610368578063166bb4931461037f57806323b872dd146103aa5780632a55205a146103d35780632b3f4d921461041157610267565b806301ffc9a71461026c57806305e4e88a146102a957806306fdde03146102c0578063070f5c09146102eb578063081812fc14610302575b600080fd5b34801561027857600080fd5b50610293600480360381019061028e91906143b4565b6109f8565b6040516102a09190614bcc565b60405180910390f35b3480156102b557600080fd5b506102be610ada565b005b3480156102cc57600080fd5b506102d5610c90565b6040516102e29190614be7565b60405180910390f35b3480156102f757600080fd5b50610300610d22565b005b34801561030e57600080fd5b5061032960048036038101906103249190614406565b610ed7565b6040516103369190614b1a565b60405180910390f35b34801561034b57600080fd5b5061036660048036038101906103619190614337565b610f5c565b005b34801561037457600080fd5b5061037d611074565b005b34801561038b57600080fd5b50610394611229565b6040516103a19190614bcc565b60405180910390f35b3480156103b657600080fd5b506103d160048036038101906103cc9190614231565b61123c565b005b3480156103df57600080fd5b506103fa60048036038101906103f59190614487565b61129c565b604051610408929190614b81565b60405180910390f35b34801561041d57600080fd5b50610426611364565b6040516104339190615049565b60405180910390f35b34801561044857600080fd5b50610463600480360381019061045e9190614190565b61136a565b6040516104709190615049565b60405180910390f35b34801561048557600080fd5b506104a0600480360381019061049b9190614190565b611382565b6040516104ad9190614bcc565b60405180910390f35b3480156104c257600080fd5b506104dd60048036038101906104d89190614231565b61139f565b005b3480156104eb57600080fd5b506104f46113bf565b6040516105019190614bcc565b60405180910390f35b34801561051657600080fd5b50610531600480360381019061052c91906144c3565b6113d2565b005b34801561053f57600080fd5b506105486115a4565b6040516105559190615049565b60405180910390f35b34801561056a57600080fd5b506105736115aa565b6040516105809190615064565b60405180910390f35b34801561059557600080fd5b5061059e6115bd565b6040516105ab9190614bcc565b60405180910390f35b3480156105c057600080fd5b506105db60048036038101906105d69190614373565b6115d0565b005b3480156105e957600080fd5b5061060460048036038101906105ff9190614406565b611793565b6040516106119190614b1a565b60405180910390f35b34801561062657600080fd5b50610641600480360381019061063c9190614373565b611845565b005b34801561064f57600080fd5b506106586119c2565b6040516106659190614bcc565b60405180910390f35b34801561067a57600080fd5b5061069560048036038101906106909190614190565b6119d5565b6040516106a29190615049565b60405180910390f35b3480156106b757600080fd5b506106c0611a8d565b005b3480156106ce57600080fd5b506106d7611b15565b005b3480156106e557600080fd5b506106ee611cca565b6040516106fb9190615064565b60405180910390f35b34801561071057600080fd5b5061072b60048036038101906107269190614373565b611cdd565b005b34801561073957600080fd5b50610742611ea0565b60405161074f9190614b1a565b60405180910390f35b34801561076457600080fd5b5061077f600480360381019061077a91906144c3565b611eca565b005b34801561078d57600080fd5b5061079661209c565b6040516107a39190614be7565b60405180910390f35b3480156107b857600080fd5b506107c161212e565b6040516107ce9190615049565b60405180910390f35b3480156107e357600080fd5b506107fe60048036038101906107f991906142fb565b612177565b005b34801561080c57600080fd5b5061082760048036038101906108229190614280565b61218d565b005b610843600480360381019061083e919061442f565b6121ef565b6040516108509190614baa565b60405180910390f35b34801561086557600080fd5b5061086e612524565b005b34801561087c57600080fd5b5061089760048036038101906108929190614406565b6125eb565b6040516108a49190614be7565b60405180910390f35b3480156108b957600080fd5b506108c26127e1565b6040516108cf9190615049565b60405180910390f35b3480156108e457600080fd5b506108ed6127e7565b005b3480156108fb57600080fd5b5061091660048036038101906109119190614190565b61288f565b6040516109239190615049565b60405180910390f35b34801561093857600080fd5b50610953600480360381019061094e9190614190565b6128a7565b6040516109609190614bcc565b60405180910390f35b34801561097557600080fd5b50610990600480360381019061098b91906141f5565b6128c4565b60405161099d9190614bcc565b60405180910390f35b3480156109b257600080fd5b506109cd60048036038101906109c89190614190565b612958565b005b3480156109db57600080fd5b506109f660048036038101906109f191906141b9565b612a50565b005b60007f80ac58cd000000000000000000000000000000000000000000000000000000007bffffffffffffffffffffffffffffffffffffffffffffffffffffffff1916827bffffffffffffffffffffffffffffffffffffffffffffffffffffffff19161480610ac357507f5b5e139f000000000000000000000000000000000000000000000000000000007bffffffffffffffffffffffffffffffffffffffffffffffffffffffff1916827bffffffffffffffffffffffffffffffffffffffffffffffffffffffff1916145b80610ad35750610ad282612b24565b5b9050919050565b610ae2612b8e565b73ffffffffffffffffffffffffffffffffffffffff16610b00611ea0565b73ffffffffffffffffffffffffffffffffffffffff1614610b56576040517f08c379a0000000000000000000000000000000000000000000000000000000008152600401610b4d90614e49565b60405180910390fd5b601260009054906101000a900460ff1615610ba6576040517f08c379a0000000000000000000000000000000000000000000000000000000008152600401610b9d90615029565b60405180910390fd5b601260019054906101000a900460ff1615610bf6576040517f08c379a0000000000000000000000000000000000000000000000000000000008152600401610bed90614dc9565b60405180910390fd5b601260029054906101000a900460ff1615610c46576040517f08c379a0000000000000000000000000000000000000000000000000000000008152600401610c3d90614cc9565b60405180910390fd5b6001601260006101000a81548160ff021916908315150217905550427fea160f4a1725183ff307b55e355bb04139d56298efc5853e17f99ade82e2f38960405160405180910390a2565b606060008054610c9f906153be565b80601f0160208091040260200160405190810160405280929190818152602001828054610ccb906153be565b8015610d185780601f10610ced57610100808354040283529160200191610d18565b820191906000526020600020905b815481529060010190602001808311610cfb57829003601f168201915b5050505050905090565b610d2a612b8e565b73ffffffffffffffffffffffffffffffffffffffff16610d48611ea0565b73ffffffffffffffffffffffffffffffffffffffff1614610d9e576040517f08c379a0000000000000000000000000000000000000000000000000000000008152600401610d9590614e49565b60405180910390fd5b601260009054906101000a900460ff1615610dee576040517f08c379a0000000000000000000000000000000000000000000000000000000008152600401610de590615029565b60405180910390fd5b601260029054906101000a900460ff1615610e3e576040517f08c379a0000000000000000000000000000000000000000000000000000000008152600401610e3590614cc9565b60405180910390fd5b601260019054906101000a900460ff16610e8d576040517f08c379a0000000000000000000000000000000000000000000000000000000008152600401610e8490614fc9565b60405180910390fd5b6000601260016101000a81548160ff021916908315150217905550427fbbda50ff3083b4adfffcd3c2e8042a8b354ca16013534ab9367661c5a4cb7b2360405160405180910390a2565b6000610ee282612b96565b610f21576040517f08c379a0000000000000000000000000000000000000000000000000000000008152600401610f1890614de9565b60405180910390fd5b6004600083815260200190815260200160002060009054906101000a900473ffffffffffffffffffffffffffffffffffffffff169050919050565b6000610f6782611793565b90508073ffffffffffffffffffffffffffffffffffffffff168373ffffffffffffffffffffffffffffffffffffffff161415610fd8576040517f08c379a0000000000000000000000000000000000000000000000000000000008152600401610fcf90614ee9565b60405180910390fd5b8073ffffffffffffffffffffffffffffffffffffffff16610ff7612b8e565b73ffffffffffffffffffffffffffffffffffffffff161480611026575061102581611020612b8e565b6128c4565b5b611065576040517f08c379a000000000000000000000000000000000000000000000000000000000815260040161105c90614d29565b60405180910390fd5b61106f8383612c02565b505050565b61107c612b8e565b73ffffffffffffffffffffffffffffffffffffffff1661109a611ea0565b73ffffffffffffffffffffffffffffffffffffffff16146110f0576040517f08c379a00000000000000000000000000000000000000000000000000000000081526004016110e790614e49565b60405180910390fd5b601260009054906101000a900460ff1615611140576040517f08c379a000000000000000000000000000000000000000000000000000000000815260040161113790615029565b60405180910390fd5b601260019054906101000a900460ff1615611190576040517f08c379a000000000000000000000000000000000000000000000000000000000815260040161118790614dc9565b60405180910390fd5b601260029054906101000a900460ff166111df576040517f08c379a00000000000000000000000000000000000000000000000000000000081526004016111d690614ca9565b60405180910390fd5b6000601260026101000a81548160ff021916908315150217905550427f4616a0782e5635981b28be1cd36934a60655b462c370d8bd8092c969abc990d060405160405180910390a2565b601260039054906101000a900460ff1681565b61124d611247612b8e565b82612cbb565b61128c576040517f08c379a000000000000000000000000000000000000000000000000000000000815260040161128390614fa9565b60405180910390fd5b611297838383612d99565b505050565b6000806112a884612b96565b6112e7576040517f08c379a00000000000000000000000000000000000000000000000000000000081526004016112de90614f29565b60405180910390fd5b60011515601260039054906101000a900460ff1615151461133d576040517f08c379a000000000000000000000000000000000000000000000000000000000815260040161133490614f09565b60405180910390fd5b306127106103e88561134f919061525b565b611359919061522a565b915091509250929050565b600f5481565b60156020528060005260406000206000915090505481565b600061139882600b612ff590919063ffffffff16565b9050919050565b6113ba8383836040518060200160405280600081525061218d565b505050565b601260009054906101000a900460ff1681565b6113da612b8e565b73ffffffffffffffffffffffffffffffffffffffff166113f8611ea0565b73ffffffffffffffffffffffffffffffffffffffff161461144e576040517f08c379a000000000000000000000000000000000000000000000000000000000815260040161144590614e49565b60405180910390fd5b601260009054906101000a900460ff161561149e576040517f08c379a000000000000000000000000000000000000000000000000000000000815260040161149590615029565b60405180910390fd5b601260019054906101000a900460ff16156114ee576040517f08c379a00000000000000000000000000000000000000000000000000000000081526004016114e590614dc9565b60405180910390fd5b601260029054906101000a900460ff161561153e576040517f08c379a000000000000000000000000000000000000000000000000000000000815260040161153590614cc9565b60405180910390fd5b80601460006101000a81548160ff021916908360ff1602179055506001601260026101000a81548160ff021916908315150217905550427feeae71454a2a58ac8d7c3a2ac3db1f29f81cbd0024aae4292a55139dd9d3560a60405160405180910390a250565b60115481565b601260049054906101000a900460ff1681565b601260019054906101000a900460ff1681565b6115d8612b8e565b73ffffffffffffffffffffffffffffffffffffffff166115f6611ea0565b73ffffffffffffffffffffffffffffffffffffffff161461164c576040517f08c379a000000000000000000000000000000000000000000000000000000000815260040161164390614e49565b60405180910390fd5b6107d081511115611692576040517f08c379a000000000000000000000000000000000000000000000000000000000815260040161168990614d49565b60405180910390fd5b60005b815181101561178f576116f28282815181106116da577f4e487b7100000000000000000000000000000000000000000000000000000000600052603260045260246000fd5b6020026020010151600d61302590919063ffffffff16565b1561177b57818181518110611730577f4e487b7100000000000000000000000000000000000000000000000000000000600052603260045260246000fd5b602002602001015173ffffffffffffffffffffffffffffffffffffffff167fcdd2e9b91a56913d370075169cefa1602ba36be5301664f752192bb1709df75760405160405180910390a25b60018161178891906151d4565b9050611695565b5050565b6000806002600084815260200190815260200160002060009054906101000a900473ffffffffffffffffffffffffffffffffffffffff169050600073ffffffffffffffffffffffffffffffffffffffff168173ffffffffffffffffffffffffffffffffffffffff16141561183c576040517f08c379a000000000000000000000000000000000000000000000000000000000815260040161183390614d89565b60405180910390fd5b80915050919050565b61184d612b8e565b73ffffffffffffffffffffffffffffffffffffffff1661186b611ea0565b73ffffffffffffffffffffffffffffffffffffffff16146118c1576040517f08c379a00000000000000000000000000000000000000000000000000000000081526004016118b890614e49565b60405180910390fd5b60005b81518110156119be57611921828281518110611909577f4e487b7100000000000000000000000000000000000000000000000000000000600052603260045260246000fd5b6020026020010151600b61305590919063ffffffff16565b156119aa5781818151811061195f577f4e487b7100000000000000000000000000000000000000000000000000000000600052603260045260246000fd5b602002602001015173ffffffffffffffffffffffffffffffffffffffff167fffbd2575fe2e4e63d9838a8ecda40fcd0b19fce153bc5d6fe10157c938086af960405160405180910390a25b6001816119b791906151d4565b90506118c4565b5050565b601260029054906101000a900460ff1681565b60008073ffffffffffffffffffffffffffffffffffffffff168273ffffffffffffffffffffffffffffffffffffffff161415611a46576040517f08c379a0000000000000000000000000000000000000000000000000000000008152600401611a3d90614d69565b60405180910390fd5b600360008373ffffffffffffffffffffffffffffffffffffffff1673ffffffffffffffffffffffffffffffffffffffff168152602001908152602001600020549050919050565b611a95612b8e565b73ffffffffffffffffffffffffffffffffffffffff16611ab3611ea0565b73ffffffffffffffffffffffffffffffffffffffff1614611b09576040517f08c379a0000000000000000000000000000000000000000000000000000000008152600401611b0090614e49565b60405180910390fd5b611b136000613085565b565b611b1d612b8e565b73ffffffffffffffffffffffffffffffffffffffff16611b3b611ea0565b73ffffffffffffffffffffffffffffffffffffffff1614611b91576040517f08c379a0000000000000000000000000000000000000000000000000000000008152600401611b8890614e49565b60405180910390fd5b601260019054906101000a900460ff1615611be1576040517f08c379a0000000000000000000000000000000000000000000000000000000008152600401611bd890614dc9565b60405180910390fd5b601260029054906101000a900460ff1615611c31576040517f08c379a0000000000000000000000000000000000000000000000000000000008152600401611c2890614cc9565b60405180910390fd5b601260009054906101000a900460ff16611c80576040517f08c379a0000000000000000000000000000000000000000000000000000000008152600401611c7790614f69565b60405180910390fd5b6000601260006101000a81548160ff021916908315150217905550427f71fbf9de7004f7d16da327d0c26b8f8b29e6efeaa59d67d1b76d6cc71fe47aae60405160405180910390a2565b601460009054906101000a900460ff1681565b611ce5612b8e565b73ffffffffffffffffffffffffffffffffffffffff16611d03611ea0565b73ffffffffffffffffffffffffffffffffffffffff1614611d59576040517f08c379a0000000000000000000000000000000000000000000000000000000008152600401611d5090614e49565b60405180910390fd5b6107d081511115611d9f576040517f08c379a0000000000000000000000000000000000000000000000000000000008152600401611d9690614d49565b60405180910390fd5b60005b8151811015611e9c57611dff828281518110611de7577f4e487b7100000000000000000000000000000000000000000000000000000000600052603260045260246000fd5b6020026020010151600d61305590919063ffffffff16565b15611e8857818181518110611e3d577f4e487b7100000000000000000000000000000000000000000000000000000000600052603260045260246000fd5b602002602001015173ffffffffffffffffffffffffffffffffffffffff167fa850ae9193f515cbae8d35e8925bd2be26627fc91bce650b8652ed254e9cab0360405160405180910390a25b600181611e9591906151d4565b9050611da2565b5050565b6000600660009054906101000a900473ffffffffffffffffffffffffffffffffffffffff16905090565b611ed2612b8e565b73ffffffffffffffffffffffffffffffffffffffff16611ef0611ea0565b73ffffffffffffffffffffffffffffffffffffffff1614611f46576040517f08c379a0000000000000000000000000000000000000000000000000000000008152600401611f3d90614e49565b60405180910390fd5b601260009054906101000a900460ff1615611f96576040517f08c379a0000000000000000000000000000000000000000000000000000000008152600401611f8d90615029565b60405180910390fd5b601260019054906101000a900460ff1615611fe6576040517f08c379a0000000000000000000000000000000000000000000000000000000008152600401611fdd90614dc9565b60405180910390fd5b601260029054906101000a900460ff1615612036576040517f08c379a000000000000000000000000000000000000000000000000000000000815260040161202d90614cc9565b60405180910390fd5b80601260046101000a81548160ff021916908360ff1602179055506001601260016101000a81548160ff021916908315150217905550427f0ab3861e918916d082a16babf84acd725febc223f0833c5c03d8b14ec900174360405160405180910390a250565b6060600180546120ab906153be565b80601f01602080910402602001604051908101604052809291908181526020018280546120d7906153be565b80156121245780601f106120f957610100808354040283529160200191612124565b820191906000526020600020905b81548152906001019060200180831161210757829003601f168201915b5050505050905090565b6000601260009054906101000a900460ff161561214f57600f549050612174565b601260019054906101000a900460ff161561216e576010549050612174565b60115490505b90565b612189612182612b8e565b838361314b565b5050565b61219e612198612b8e565b83612cbb565b6121dd576040517f08c379a00000000000000000000000000000000000000000000000000000000081526004016121d490614fa9565b60405180910390fd5b6121e9848484846132b8565b50505050565b6060601260009054906101000a900460ff16806122185750601260019054906101000a900460ff165b8061222f5750601260029054906101000a900460ff165b61226e576040517f08c379a000000000000000000000000000000000000000000000000000000000815260040161226590614e09565b60405180910390fd5b600260075414156122b4576040517f08c379a00000000000000000000000000000000000000000000000000000000081526004016122ab90614fe9565b60405180910390fd5b60026007819055506122c584613314565b60008467ffffffffffffffff811115612307577f4e487b7100000000000000000000000000000000000000000000000000000000600052604160045260246000fd5b6040519080825280602002602001820160405280156123355781602001602082028036833780820191505090505b50905060005b85811015612433576123da33868684818110612380577f4e487b7100000000000000000000000000000000000000000000000000000000600052603260045260246000fd5b9050602002810190612392919061507f565b8080601f016020809104026020016040519081016040528093929190818152602001838380828437600081840152601f19601f82011690508083019250505050505050613638565b828281518110612413577f4e487b7100000000000000000000000000000000000000000000000000000000600052603260045260246000fd5b60200260200101818152505060018161242c91906151d4565b905061233b565b50601260019054906101000a900460ff16156124a45784601360003373ffffffffffffffffffffffffffffffffffffffff1673ffffffffffffffffffffffffffffffffffffffff168152602001908152602001600020600082825461249891906151d4565b92505081905550612511565b601260029054906101000a900460ff16156125105784601560003373ffffffffffffffffffffffffffffffffffffffff1673ffffffffffffffffffffffffffffffffffffffff168152602001908152602001600020600082825461250891906151d4565b925050819055505b5b8091505060016007819055509392505050565b61252c612b8e565b73ffffffffffffffffffffffffffffffffffffffff1661254a611ea0565b73ffffffffffffffffffffffffffffffffffffffff16146125a0576040517f08c379a000000000000000000000000000000000000000000000000000000000815260040161259790614e49565b60405180910390fd5b600b6000808201600080820160006125b89190613ed4565b50505050427fe6c1af3c9d98f7bd5c64e272869df1cf551c48d88c0338f013f5f9e741aa144c60405160405180910390a2565b60606125f682612b96565b612635576040517f08c379a000000000000000000000000000000000000000000000000000000000815260040161262c90614e89565b60405180910390fd5b6000600960008481526020019081526020016000208054612655906153be565b80601f0160208091040260200160405190810160405280929190818152602001828054612681906153be565b80156126ce5780601f106126a3576101008083540402835291602001916126ce565b820191906000526020600020905b8154815290600101906020018083116126b157829003601f168201915b505050505090506000600880546126e4906153be565b80601f0160208091040260200160405190810160405280929190818152602001828054612710906153be565b801561275d5780601f106127325761010080835404028352916020019161275d565b820191906000526020600020905b81548152906001019060200180831161274057829003601f168201915b505050505090506000815114156127785781925050506127dc565b6000825111156127ad578082604051602001612795929190614af6565b604051602081830303815290604052925050506127dc565b806127b785613667565b6040516020016127c8929190614af6565b604051602081830303815290604052925050505b919050565b60105481565b6127ef612b8e565b73ffffffffffffffffffffffffffffffffffffffff1661280d611ea0565b73ffffffffffffffffffffffffffffffffffffffff1614612863576040517f08c379a000000000000000000000000000000000000000000000000000000000815260040161285a90614e49565b60405180910390fd5b601260039054906101000a900460ff1615601260036101000a81548160ff021916908315150217905550565b60136020528060005260406000206000915090505481565b60006128bd82600d612ff590919063ffffffff16565b9050919050565b6000600560008473ffffffffffffffffffffffffffffffffffffffff1673ffffffffffffffffffffffffffffffffffffffff16815260200190815260200160002060008373ffffffffffffffffffffffffffffffffffffffff1673ffffffffffffffffffffffffffffffffffffffff16815260200190815260200160002060009054906101000a900460ff16905092915050565b612960612b8e565b73ffffffffffffffffffffffffffffffffffffffff1661297e611ea0565b73ffffffffffffffffffffffffffffffffffffffff16146129d4576040517f08c379a00000000000000000000000000000000000000000000000000000000081526004016129cb90614e49565b60405180910390fd5b600073ffffffffffffffffffffffffffffffffffffffff168173ffffffffffffffffffffffffffffffffffffffff161415612a44576040517f08c379a0000000000000000000000000000000000000000000000000000000008152600401612a3b90614c29565b60405180910390fd5b612a4d81613085565b50565b612a58612b8e565b73ffffffffffffffffffffffffffffffffffffffff16612a76611ea0565b73ffffffffffffffffffffffffffffffffffffffff1614612acc576040517f08c379a0000000000000000000000000000000000000000000000000000000008152600401612ac390614e49565b60405180910390fd5b47811115612ad957600080fd5b8173ffffffffffffffffffffffffffffffffffffffff166108fc829081150290604051600060405180830381858888f19350505050158015612b1f573d6000803e3d6000fd5b505050565b60007f01ffc9a7000000000000000000000000000000000000000000000000000000007bffffffffffffffffffffffffffffffffffffffffffffffffffffffff1916827bffffffffffffffffffffffffffffffffffffffffffffffffffffffff1916149050919050565b600033905090565b60008073ffffffffffffffffffffffffffffffffffffffff166002600084815260200190815260200160002060009054906101000a900473ffffffffffffffffffffffffffffffffffffffff1673ffffffffffffffffffffffffffffffffffffffff1614159050919050565b816004600083815260200190815260200160002060006101000a81548173ffffffffffffffffffffffffffffffffffffffff021916908373ffffffffffffffffffffffffffffffffffffffff160217905550808273ffffffffffffffffffffffffffffffffffffffff16612c7583611793565b73ffffffffffffffffffffffffffffffffffffffff167f8c5be1e5ebec7d5bd14f71427d1e84f3dd0314c0f7b2291e5b200ac8c7c3b92560405160405180910390a45050565b6000612cc682612b96565b612d05576040517f08c379a0000000000000000000000000000000000000000000000000000000008152600401612cfc90614ce9565b60405180910390fd5b6000612d1083611793565b90508073ffffffffffffffffffffffffffffffffffffffff168473ffffffffffffffffffffffffffffffffffffffff161480612d7f57508373ffffffffffffffffffffffffffffffffffffffff16612d6784610ed7565b73ffffffffffffffffffffffffffffffffffffffff16145b80612d905750612d8f81856128c4565b5b91505092915050565b8273ffffffffffffffffffffffffffffffffffffffff16612db982611793565b73ffffffffffffffffffffffffffffffffffffffff1614612e0f576040517f08c379a0000000000000000000000000000000000000000000000000000000008152600401612e0690614e69565b60405180910390fd5b600073ffffffffffffffffffffffffffffffffffffffff168273ffffffffffffffffffffffffffffffffffffffff161415612e7f576040517f08c379a0000000000000000000000000000000000000000000000000000000008152600401612e7690614c69565b60405180910390fd5b612e8a838383613814565b612e95600082612c02565b6001600360008573ffffffffffffffffffffffffffffffffffffffff1673ffffffffffffffffffffffffffffffffffffffff1681526020019081526020016000206000828254612ee591906152b5565b925050819055506001600360008473ffffffffffffffffffffffffffffffffffffffff1673ffffffffffffffffffffffffffffffffffffffff1681526020019081526020016000206000828254612f3c91906151d4565b92505081905550816002600083815260200190815260200160002060006101000a81548173ffffffffffffffffffffffffffffffffffffffff021916908373ffffffffffffffffffffffffffffffffffffffff160217905550808273ffffffffffffffffffffffffffffffffffffffff168473ffffffffffffffffffffffffffffffffffffffff167fddf252ad1be2c89b69c2b068fc378daa952ba7f163c4a11628f55a4df523b3ef60405160405180910390a4505050565b600061301d836000018373ffffffffffffffffffffffffffffffffffffffff1660001b613819565b905092915050565b600061304d836000018373ffffffffffffffffffffffffffffffffffffffff1660001b61383c565b905092915050565b600061307d836000018373ffffffffffffffffffffffffffffffffffffffff1660001b6139c2565b905092915050565b6000600660009054906101000a900473ffffffffffffffffffffffffffffffffffffffff16905081600660006101000a81548173ffffffffffffffffffffffffffffffffffffffff021916908373ffffffffffffffffffffffffffffffffffffffff1602179055508173ffffffffffffffffffffffffffffffffffffffff168173ffffffffffffffffffffffffffffffffffffffff167f8be0079c531659141344cd1fd0a4f28419497f9722a3daafe3b4186f6b6457e060405160405180910390a35050565b8173ffffffffffffffffffffffffffffffffffffffff168373ffffffffffffffffffffffffffffffffffffffff1614156131ba576040517f08c379a00000000000000000000000000000000000000000000000000000000081526004016131b190614c89565b60405180910390fd5b80600560008573ffffffffffffffffffffffffffffffffffffffff1673ffffffffffffffffffffffffffffffffffffffff16815260200190815260200160002060008473ffffffffffffffffffffffffffffffffffffffff1673ffffffffffffffffffffffffffffffffffffffff16815260200190815260200160002060006101000a81548160ff0219169083151502179055508173ffffffffffffffffffffffffffffffffffffffff168373ffffffffffffffffffffffffffffffffffffffff167f17307eab39ab6107e8899845ad3d59bd9653f200f220920489ca2b5937696c31836040516132ab9190614bcc565b60405180910390a3505050565b6132c3848484612d99565b6132cf84848484613a32565b61330e576040517f08c379a000000000000000000000000000000000000000000000000000000000815260040161330590614c09565b60405180910390fd5b50505050565b600073ffffffffffffffffffffffffffffffffffffffff163373ffffffffffffffffffffffffffffffffffffffff16141561334e57600080fd5b60008111613391576040517f08c379a000000000000000000000000000000000000000000000000000000000815260040161338890614ec9565b60405180910390fd5b601260009054906101000a900460ff16156133f3576133af33611382565b6133ee576040517f08c379a00000000000000000000000000000000000000000000000000000000081526004016133e590614f89565b60405180910390fd5b613635565b601260019054906101000a900460ff161561354457613411336128a7565b613450576040517f08c379a000000000000000000000000000000000000000000000000000000000815260040161344790614f89565b60405180910390fd5b601260049054906101000a900460ff1660ff16601360003373ffffffffffffffffffffffffffffffffffffffff1673ffffffffffffffffffffffffffffffffffffffff16815260200190815260200160002054826134ae91906151d4565b11156134ef576040517f08c379a00000000000000000000000000000000000000000000000000000000081526004016134e690614f49565b60405180910390fd5b34816010546134fe919061525b565b111561353f576040517f08c379a000000000000000000000000000000000000000000000000000000000815260040161353690615009565b60405180910390fd5b613634565b601460009054906101000a900460ff1660ff16601560003373ffffffffffffffffffffffffffffffffffffffff1673ffffffffffffffffffffffffffffffffffffffff16815260200190815260200160002054826135a291906151d4565b11156135e3576040517f08c379a00000000000000000000000000000000000000000000000000000000081526004016135da90614ea9565b60405180910390fd5b34816011546135f2919061525b565b1115613633576040517f08c379a000000000000000000000000000000000000000000000000000000000815260040161362a90614d09565b60405180910390fd5b5b5b50565b6000613644600a613bc9565b6000613650600a613bdf565b905061365d848285613bed565b8091505092915050565b606060008214156136af576040518060400160405280600181526020017f3000000000000000000000000000000000000000000000000000000000000000815250905061380f565b600082905060005b600082146136e15780806136ca90615421565b915050600a826136da919061522a565b91506136b7565b60008167ffffffffffffffff811115613723577f4e487b7100000000000000000000000000000000000000000000000000000000600052604160045260246000fd5b6040519080825280601f01601f1916602001820160405280156137555781602001600182028036833780820191505090505b5090505b600085146138085760018261376e91906152b5565b9150600a8561377d919061546a565b603061378991906151d4565b60f81b8183815181106137c5577f4e487b7100000000000000000000000000000000000000000000000000000000600052603260045260246000fd5b60200101907effffffffffffffffffffffffffffffffffffffffffffffffffffffffffffff1916908160001a905350600a85613801919061522a565b9450613759565b8093505050505b919050565b505050565b600080836001016000848152602001908152602001600020541415905092915050565b600080836001016000848152602001908152602001600020549050600081146139b657600060018261386e91906152b5565b905060006001866000018054905061388691906152b5565b90508181146139415760008660000182815481106138cd577f4e487b7100000000000000000000000000000000000000000000000000000000600052603260045260246000fd5b9060005260206000200154905080876000018481548110613917577f4e487b7100000000000000000000000000000000000000000000000000000000600052603260045260246000fd5b90600052602060002001819055508387600101600083815260200190815260200160002081905550505b8560000180548061397b577f4e487b7100000000000000000000000000000000000000000000000000000000600052603160045260246000fd5b6001900381819060005260206000200160009055905585600101600086815260200190815260200160002060009055600193505050506139bc565b60009150505b92915050565b60006139ce8383613819565b613a27578260000182908060018154018082558091505060019003906000526020600020016000909190919091505582600001805490508360010160008481526020019081526020016000208190555060019050613a2c565b600090505b92915050565b6000613a538473ffffffffffffffffffffffffffffffffffffffff16613c06565b15613bbc578373ffffffffffffffffffffffffffffffffffffffff1663150b7a02613a7c612b8e565b8786866040518563ffffffff1660e01b8152600401613a9e9493929190614b35565b602060405180830381600087803b158015613ab857600080fd5b505af1925050508015613ae957506040513d601f19601f82011682018060405250810190613ae691906143dd565b60015b613b6c573d8060008114613b19576040519150601f19603f3d011682016040523d82523d6000602084013e613b1e565b606091505b50600081511415613b64576040517f08c379a0000000000000000000000000000000000000000000000000000000008152600401613b5b90614c09565b60405180910390fd5b805181602001fd5b63150b7a0260e01b7bffffffffffffffffffffffffffffffffffffffffffffffffffffffff1916817bffffffffffffffffffffffffffffffffffffffffffffffffffffffff191614915050613bc1565b600190505b949350505050565b6001816000016000828254019250508190555050565b600081600001549050919050565b613bf78383613c19565b613c018282613c37565b505050565b600080823b905060008111915050919050565b613c33828260405180602001604052806000815250613cab565b5050565b613c4082612b96565b613c7f576040517f08c379a0000000000000000000000000000000000000000000000000000000008152600401613c7690614e29565b60405180910390fd5b80600960008481526020019081526020016000209080519060200190613ca6929190613ef5565b505050565b613cb58383613d06565b613cc26000848484613a32565b613d01576040517f08c379a0000000000000000000000000000000000000000000000000000000008152600401613cf890614c09565b60405180910390fd5b505050565b600073ffffffffffffffffffffffffffffffffffffffff168273ffffffffffffffffffffffffffffffffffffffff161415613d76576040517f08c379a0000000000000000000000000000000000000000000000000000000008152600401613d6d90614da9565b60405180910390fd5b613d7f81612b96565b15613dbf576040517f08c379a0000000000000000000000000000000000000000000000000000000008152600401613db690614c49565b60405180910390fd5b613dcb60008383613814565b6001600360008473ffffffffffffffffffffffffffffffffffffffff1673ffffffffffffffffffffffffffffffffffffffff1681526020019081526020016000206000828254613e1b91906151d4565b92505081905550816002600083815260200190815260200160002060006101000a81548173ffffffffffffffffffffffffffffffffffffffff021916908373ffffffffffffffffffffffffffffffffffffffff160217905550808273ffffffffffffffffffffffffffffffffffffffff16600073ffffffffffffffffffffffffffffffffffffffff167fddf252ad1be2c89b69c2b068fc378daa952ba7f163c4a11628f55a4df523b3ef60405160405180910390a45050565b5080546000825590600052602060002090810190613ef29190613f7b565b50565b828054613f01906153be565b90600052602060002090601f016020900481019282613f235760008555613f6a565b82601f10613f3c57805160ff1916838001178555613f6a565b82800160010185558215613f6a579182015b82811115613f69578251825591602001919060010190613f4e565b5b509050613f779190613f98565b5090565b5b80821115613f94576000816000905550600101613f7c565b5090565b5b80821115613fb1576000816000905550600101613f99565b5090565b6000613fc8613fc3846150fb565b6150d6565b90508083825260208201905082856020860282011115613fe757600080fd5b60005b858110156140175781613ffd888261405f565b845260208401935060208301925050600181019050613fea565b5050509392505050565b600061403461402f84615127565b6150d6565b90508281526020810184848401111561404c57600080fd5b61405784828561537c565b509392505050565b60008135905061406e81615d3a565b92915050565b60008135905061408381615d51565b92915050565b600082601f83011261409a57600080fd5b81356140aa848260208601613fb5565b91505092915050565b60008083601f8401126140c557600080fd5b8235905067ffffffffffffffff8111156140de57600080fd5b6020830191508360208202830111156140f657600080fd5b9250929050565b60008135905061410c81615d68565b92915050565b60008135905061412181615d7f565b92915050565b60008151905061413681615d7f565b92915050565b600082601f83011261414d57600080fd5b813561415d848260208601614021565b91505092915050565b60008135905061417581615d96565b92915050565b60008135905061418a81615dad565b92915050565b6000602082840312156141a257600080fd5b60006141b08482850161405f565b91505092915050565b600080604083850312156141cc57600080fd5b60006141da85828601614074565b92505060206141eb85828601614166565b9150509250929050565b6000806040838503121561420857600080fd5b60006142168582860161405f565b92505060206142278582860161405f565b9150509250929050565b60008060006060848603121561424657600080fd5b60006142548682870161405f565b93505060206142658682870161405f565b925050604061427686828701614166565b9150509250925092565b6000806000806080858703121561429657600080fd5b60006142a48782880161405f565b94505060206142b58782880161405f565b93505060406142c687828801614166565b925050606085013567ffffffffffffffff8111156142e357600080fd5b6142ef8782880161413c565b91505092959194509250565b6000806040838503121561430e57600080fd5b600061431c8582860161405f565b925050602061432d858286016140fd565b9150509250929050565b6000806040838503121561434a57600080fd5b60006143588582860161405f565b925050602061436985828601614166565b9150509250929050565b60006020828403121561438557600080fd5b600082013567ffffffffffffffff81111561439f57600080fd5b6143ab84828501614089565b91505092915050565b6000602082840312156143c657600080fd5b60006143d484828501614112565b91505092915050565b6000602082840312156143ef57600080fd5b60006143fd84828501614127565b91505092915050565b60006020828403121561441857600080fd5b600061442684828501614166565b91505092915050565b60008060006040848603121561444457600080fd5b600061445286828701614166565b935050602084013567ffffffffffffffff81111561446f57600080fd5b61447b868287016140b3565b92509250509250925092565b6000806040838503121561449a57600080fd5b60006144a885828601614166565b92505060206144b985828601614166565b9150509250929050565b6000602082840312156144d557600080fd5b60006144e38482850161417b565b91505092915050565b60006144f88383614ac9565b60208301905092915050565b61450d816152e9565b82525050565b600061451e82615168565b6145288185615196565b935061453383615158565b8060005b8381101561456457815161454b88826144ec565b975061455683615189565b925050600181019050614537565b5085935050505092915050565b61457a8161530d565b82525050565b600061458b82615173565b61459581856151a7565b93506145a581856020860161538b565b6145ae81615557565b840191505092915050565b60006145c48261517e565b6145ce81856151b8565b93506145de81856020860161538b565b6145e781615557565b840191505092915050565b60006145fd8261517e565b61460781856151c9565b935061461781856020860161538b565b80840191505092915050565b60006146306032836151b8565b915061463b82615568565b604082019050919050565b60006146536026836151b8565b915061465e826155b7565b604082019050919050565b6000614676601c836151b8565b915061468182615606565b602082019050919050565b60006146996024836151b8565b91506146a48261562f565b604082019050919050565b60006146bc6019836151b8565b91506146c78261567e565b602082019050919050565b60006146df6012836151b8565b91506146ea826156a7565b602082019050919050565b60006147026012836151b8565b915061470d826156d0565b602082019050919050565b6000614725602c836151b8565b9150614730826156f9565b604082019050919050565b60006147486012836151b8565b915061475382615748565b602082019050919050565b600061476b6038836151b8565b915061477682615771565b604082019050919050565b600061478e601c836151b8565b9150614799826157c0565b602082019050919050565b60006147b1602a836151b8565b91506147bc826157e9565b604082019050919050565b60006147d46029836151b8565b91506147df82615838565b604082019050919050565b60006147f76020836151b8565b915061480282615887565b602082019050919050565b600061481a6015836151b8565b9150614825826158b0565b602082019050919050565b600061483d602c836151b8565b9150614848826158d9565b604082019050919050565b60006148606025836151b8565b915061486b82615928565b604082019050919050565b6000614883602c836151b8565b915061488e82615977565b604082019050919050565b60006148a66020836151b8565b91506148b1826159c6565b602082019050919050565b60006148c96029836151b8565b91506148d4826159ef565b604082019050919050565b60006148ec602f836151b8565b91506148f782615a3e565b604082019050919050565b600061490f601f836151b8565b915061491a82615a8d565b602082019050919050565b6000614932601c836151b8565b915061493d82615ab6565b602082019050919050565b60006149556021836151b8565b915061496082615adf565b604082019050919050565b60006149786013836151b8565b915061498382615b2e565b602082019050919050565b600061499b6025836151b8565b91506149a682615b57565b604082019050919050565b60006149be6021836151b8565b91506149c982615ba6565b604082019050919050565b60006149e16013836151b8565b91506149ec82615bf5565b602082019050919050565b6000614a046019836151b8565b9150614a0f82615c1e565b602082019050919050565b6000614a276031836151b8565b9150614a3282615c47565b604082019050919050565b6000614a4a6015836151b8565b9150614a5582615c96565b602082019050919050565b6000614a6d601f836151b8565b9150614a7882615cbf565b602082019050919050565b6000614a90601b836151b8565b9150614a9b82615ce8565b602082019050919050565b6000614ab36013836151b8565b9150614abe82615d11565b602082019050919050565b614ad281615365565b82525050565b614ae181615365565b82525050565b614af08161536f565b82525050565b6000614b0282856145f2565b9150614b0e82846145f2565b91508190509392505050565b6000602082019050614b2f6000830184614504565b92915050565b6000608082019050614b4a6000830187614504565b614b576020830186614504565b614b646040830185614ad8565b8181036060830152614b768184614580565b905095945050505050565b6000604082019050614b966000830185614504565b614ba36020830184614ad8565b9392505050565b60006020820190508181036000830152614bc48184614513565b905092915050565b6000602082019050614be16000830184614571565b92915050565b60006020820190508181036000830152614c0181846145b9565b905092915050565b60006020820190508181036000830152614c2281614623565b9050919050565b60006020820190508181036000830152614c4281614646565b9050919050565b60006020820190508181036000830152614c6281614669565b9050919050565b60006020820190508181036000830152614c828161468c565b9050919050565b60006020820190508181036000830152614ca2816146af565b9050919050565b60006020820190508181036000830152614cc2816146d2565b9050919050565b60006020820190508181036000830152614ce2816146f5565b9050919050565b60006020820190508181036000830152614d0281614718565b9050919050565b60006020820190508181036000830152614d228161473b565b9050919050565b60006020820190508181036000830152614d428161475e565b9050919050565b60006020820190508181036000830152614d6281614781565b9050919050565b60006020820190508181036000830152614d82816147a4565b9050919050565b60006020820190508181036000830152614da2816147c7565b9050919050565b60006020820190508181036000830152614dc2816147ea565b9050919050565b60006020820190508181036000830152614de28161480d565b9050919050565b60006020820190508181036000830152614e0281614830565b9050919050565b60006020820190508181036000830152614e2281614853565b9050919050565b60006020820190508181036000830152614e4281614876565b9050919050565b60006020820190508181036000830152614e6281614899565b9050919050565b60006020820190508181036000830152614e82816148bc565b9050919050565b60006020820190508181036000830152614ea2816148df565b9050919050565b60006020820190508181036000830152614ec281614902565b9050919050565b60006020820190508181036000830152614ee281614925565b9050919050565b60006020820190508181036000830152614f0281614948565b9050919050565b60006020820190508181036000830152614f228161496b565b9050919050565b60006020820190508181036000830152614f428161498e565b9050919050565b60006020820190508181036000830152614f62816149b1565b9050919050565b60006020820190508181036000830152614f82816149d4565b9050919050565b60006020820190508181036000830152614fa2816149f7565b9050919050565b60006020820190508181036000830152614fc281614a1a565b9050919050565b60006020820190508181036000830152614fe281614a3d565b9050919050565b6000602082019050818103600083015261500281614a60565b9050919050565b6000602082019050818103600083015261502281614a83565b9050919050565b6000602082019050818103600083015261504281614aa6565b9050919050565b600060208201905061505e6000830184614ad8565b92915050565b60006020820190506150796000830184614ae7565b92915050565b6000808335600160200384360303811261509857600080fd5b80840192508235915067ffffffffffffffff8211156150b657600080fd5b6020830192506001820236038313156150ce57600080fd5b509250929050565b60006150e06150f1565b90506150ec82826153f0565b919050565b6000604051905090565b600067ffffffffffffffff82111561511657615115615528565b5b602082029050602081019050919050565b600067ffffffffffffffff82111561514257615141615528565b5b61514b82615557565b9050602081019050919050565b6000819050602082019050919050565b600081519050919050565b600081519050919050565b600081519050919050565b6000602082019050919050565b600082825260208201905092915050565b600082825260208201905092915050565b600082825260208201905092915050565b600081905092915050565b60006151df82615365565b91506151ea83615365565b9250827fffffffffffffffffffffffffffffffffffffffffffffffffffffffffffffffff0382111561521f5761521e61549b565b5b828201905092915050565b600061523582615365565b915061524083615365565b9250826152505761524f6154ca565b5b828204905092915050565b600061526682615365565b915061527183615365565b9250817fffffffffffffffffffffffffffffffffffffffffffffffffffffffffffffffff04831182151516156152aa576152a961549b565b5b828202905092915050565b60006152c082615365565b91506152cb83615365565b9250828210156152de576152dd61549b565b5b828203905092915050565b60006152f482615345565b9050919050565b600061530682615345565b9050919050565b60008115159050919050565b60007fffffffff0000000000000000000000000000000000000000000000000000000082169050919050565b600073ffffffffffffffffffffffffffffffffffffffff82169050919050565b6000819050919050565b600060ff82169050919050565b82818337600083830152505050565b60005b838110156153a957808201518184015260208101905061538e565b838111156153b8576000848401525b50505050565b600060028204905060018216806153d657607f821691505b602082108114156153ea576153e96154f9565b5b50919050565b6153f982615557565b810181811067ffffffffffffffff8211171561541857615417615528565b5b80604052505050565b600061542c82615365565b91507fffffffffffffffffffffffffffffffffffffffffffffffffffffffffffffffff82141561545f5761545e61549b565b5b600182019050919050565b600061547582615365565b915061548083615365565b9250826154905761548f6154ca565b5b828206905092915050565b7f4e487b7100000000000000000000000000000000000000000000000000000000600052601160045260246000fd5b7f4e487b7100000000000000000000000000000000000000000000000000000000600052601260045260246000fd5b7f4e487b7100000000000000000000000000000000000000000000000000000000600052602260045260246000fd5b7f4e487b7100000000000000000000000000000000000000000000000000000000600052604160045260246000fd5b6000601f19601f8301169050919050565b7f4552433732313a207472616e7366657220746f206e6f6e20455243373231526560008201527f63656976657220696d706c656d656e7465720000000000000000000000000000602082015250565b7f4f776e61626c653a206e6577206f776e657220697320746865207a65726f206160008201527f6464726573730000000000000000000000000000000000000000000000000000602082015250565b7f4552433732313a20746f6b656e20616c7265616479206d696e74656400000000600082015250565b7f4552433732313a207472616e7366657220746f20746865207a65726f2061646460008201527f7265737300000000000000000000000000000000000000000000000000000000602082015250565b7f4552433732313a20617070726f766520746f2063616c6c657200000000000000600082015250565b7f53616c65206973206e6f74206163746976650000000000000000000000000000600082015250565b7f53616c65206973206e6f74207061757365640000000000000000000000000000600082015250565b7f4552433732313a206f70657261746f7220717565727920666f72206e6f6e657860008201527f697374656e7420746f6b656e0000000000000000000000000000000000000000602082015250565b7f496e73756666696369656e742066756e64730000000000000000000000000000600082015250565b7f4552433732313a20617070726f76652063616c6c6572206973206e6f74206f7760008201527f6e6572206e6f7220617070726f76656420666f7220616c6c0000000000000000602082015250565b7f57686974656c6973742063616e6e6f7420657863656564203230303000000000600082015250565b7f4552433732313a2062616c616e636520717565727920666f7220746865207a6560008201527f726f206164647265737300000000000000000000000000000000000000000000602082015250565b7f4552433732313a206f776e657220717565727920666f72206e6f6e657869737460008201527f656e7420746f6b656e0000000000000000000000000000000000000000000000602082015250565b7f4552433732313a206d696e7420746f20746865207a65726f2061646472657373600082015250565b7f50726573616c65206973206e6f74207061757365640000000000000000000000600082015250565b7f4552433732313a20617070726f76656420717565727920666f72206e6f6e657860008201527f697374656e7420746f6b656e0000000000000000000000000000000000000000602082015250565b7f546865726520617265206e6f2073616c65732061742074686973207465726d6960008201527f6e61746564000000000000000000000000000000000000000000000000000000602082015250565b7f4552433732314d657461646174613a2055524920736574206f66206e6f6e657860008201527f697374656e7420746f6b656e0000000000000000000000000000000000000000602082015250565b7f4f776e61626c653a2063616c6c6572206973206e6f7420746865206f776e6572600082015250565b7f4552433732313a207472616e73666572206f6620746f6b656e2074686174206960008201527f73206e6f74206f776e0000000000000000000000000000000000000000000000602082015250565b7f4552433732314d657461646174613a2055524920717565727920666f72206e6f60008201527f6e6578697374656e7420746f6b656e0000000000000000000000000000000000602082015250565b7f43616e6e6f74206d696e74206d6f7265207468616e20323520746f6b656e7300600082015250565b7f4d757374206d696e74206174206c65617374206f6e6520746f6b656e00000000600082015250565b7f4552433732313a20617070726f76616c20746f2063757272656e74206f776e6560008201527f7200000000000000000000000000000000000000000000000000000000000000602082015250565b7f526f79616c74696573206469737361626c656400000000000000000000000000600082015250565b7f4e6f6e6578697374656e7420746f6b656e20666f7220726f79616c747920706160008201527f796d656e74000000000000000000000000000000000000000000000000000000602082015250565b7f50726573616c652c206c696d6974656420616d6f756e74206f6620746f6b656e60008201527f7300000000000000000000000000000000000000000000000000000000000000602082015250565b7f4769766561776179206e6f742061637469766500000000000000000000000000600082015250565b7f416464726573732069736e27742077686974656c697374656400000000000000600082015250565b7f4552433732313a207472616e736665722063616c6c6572206973206e6f74206f60008201527f776e6572206e6f7220617070726f766564000000000000000000000000000000602082015250565b7f50726573616c65206973206e6f74206163746976650000000000000000000000600082015250565b7f5265656e7472616e637947756172643a207265656e7472616e742063616c6c00600082015250565b7f50726573616c652c20696e73756666696369656e742066756e64730000000000600082015250565b7f4769766561776179206e6f742070617573656400000000000000000000000000600082015250565b615d43816152e9565b8114615d4e57600080fd5b50565b615d5a816152fb565b8114615d6557600080fd5b50565b615d718161530d565b8114615d7c57600080fd5b50565b615d8881615319565b8114615d9357600080fd5b50565b615d9f81615365565b8114615daa57600080fd5b50565b615db68161536f565b8114615dc157600080fd5b5056fea26469706673582212201b9839c1c9f7a4c123ba5812548c9a7e8d47cf99f22e2c6e99859f212ee254d164736f6c63430008040033",
  "linkReferences": {},
  "deployedLinkReferences": {}
}