{
  "_format": "hh-sol-artifact-1",
  "contractName": "Turtleverse",
  "sourceName": "contracts/Turtleverse.sol",
  "abi": [
    {
      "inputs": [
        {
          "internalType": "string",
          "name": "name_",
          "type": "string"
        },
        {
          "internalType": "string",
          "name": "symbol_",
          "type": "string"
        },
        {
          "internalType": "string",
          "name": "baseURI_",
          "type": "string"
        },
        {
          "internalType": "bool",
          "name": "royaltiesActive_",
          "type": "bool"
        }
      ],
      "stateMutability": "nonpayable",
      "type": "constructor"
    },
    {
      "anonymous": false,
      "inputs": [
        {
          "indexed": true,
          "internalType": "address",
          "name": "_address",
          "type": "address"
        }
      ],
      "name": "AddedToGiveawayList",
      "type": "event"
    },
    {
      "anonymous": false,
      "inputs": [
        {
          "indexed": true,
          "internalType": "address",
          "name": "_address",
          "type": "address"
        }
      ],
      "name": "AddedToWhitelist",
      "type": "event"
    },
    {
      "anonymous": false,
      "inputs": [
        {
          "indexed": true,
          "internalType": "address",
          "name": "owner",
          "type": "address"
        },
        {
          "indexed": true,
          "internalType": "address",
          "name": "approved",
          "type": "address"
        },
        {
          "indexed": true,
          "internalType": "uint256",
          "name": "tokenId",
          "type": "uint256"
        }
      ],
      "name": "Approval",
      "type": "event"
    },
    {
      "anonymous": false,
      "inputs": [
        {
          "indexed": true,
          "internalType": "address",
          "name": "owner",
          "type": "address"
        },
        {
          "indexed": true,
          "internalType": "address",
          "name": "operator",
          "type": "address"
        },
        {
          "indexed": false,
          "internalType": "bool",
          "name": "approved",
          "type": "bool"
        }
      ],
      "name": "ApprovalForAll",
      "type": "event"
    },
    {
      "anonymous": false,
      "inputs": [
        {
          "indexed": true,
          "internalType": "uint256",
          "name": "_giveawayStopTime",
          "type": "uint256"
        }
      ],
      "name": "GiveawayPaused",
      "type": "event"
    },
    {
      "anonymous": false,
      "inputs": [
        {
          "indexed": true,
          "internalType": "uint256",
          "name": "_giveawayStartTime",
          "type": "uint256"
        }
      ],
      "name": "GiveawayStart",
      "type": "event"
    },
    {
      "anonymous": false,
      "inputs": [
        {
          "indexed": true,
          "internalType": "address",
          "name": "previousOwner",
          "type": "address"
        },
        {
          "indexed": true,
          "internalType": "address",
          "name": "newOwner",
          "type": "address"
        }
      ],
      "name": "OwnershipTransferred",
      "type": "event"
    },
    {
      "anonymous": false,
      "inputs": [
        {
          "indexed": true,
          "internalType": "uint256",
          "name": "_presaleStopTime",
          "type": "uint256"
        }
      ],
      "name": "PresalePaused",
      "type": "event"
    },
    {
      "anonymous": false,
      "inputs": [
        {
          "indexed": true,
          "internalType": "uint256",
          "name": "_presaleStartTime",
          "type": "uint256"
        }
      ],
      "name": "PresaleStart",
      "type": "event"
    },
    {
      "anonymous": false,
      "inputs": [
        {
          "indexed": true,
          "internalType": "address",
          "name": "_address",
          "type": "address"
        }
      ],
      "name": "RemovedFromWhitelist",
      "type": "event"
    },
    {
      "anonymous": false,
      "inputs": [
        {
          "indexed": true,
          "internalType": "uint256",
          "name": "_saleStopTime",
          "type": "uint256"
        }
      ],
      "name": "SalePaused",
      "type": "event"
    },
    {
      "anonymous": false,
      "inputs": [
        {
          "indexed": true,
          "internalType": "uint256",
          "name": "_saleStartTime",
          "type": "uint256"
        }
      ],
      "name": "SaleStart",
      "type": "event"
    },
    {
      "anonymous": false,
      "inputs": [
        {
          "indexed": true,
          "internalType": "address",
          "name": "from",
          "type": "address"
        },
        {
          "indexed": true,
          "internalType": "address",
          "name": "to",
          "type": "address"
        },
        {
          "indexed": true,
          "internalType": "uint256",
          "name": "tokenId",
          "type": "uint256"
        }
      ],
      "name": "Transfer",
      "type": "event"
    },
    {
      "inputs": [
        {
          "internalType": "address[]",
          "name": "addresses",
          "type": "address[]"
        }
      ],
      "name": "addToGiveawayList",
      "outputs": [],
      "stateMutability": "nonpayable",
      "type": "function"
    },
    {
      "inputs": [
        {
          "internalType": "address[]",
          "name": "addresses",
          "type": "address[]"
        }
      ],
      "name": "addToWhitelist",
      "outputs": [],
      "stateMutability": "nonpayable",
      "type": "function"
    },
    {
      "inputs": [
        {
          "internalType": "address",
          "name": "to",
          "type": "address"
        },
        {
          "internalType": "uint256",
          "name": "tokenId",
          "type": "uint256"
        }
      ],
      "name": "approve",
      "outputs": [],
      "stateMutability": "nonpayable",
      "type": "function"
    },
    {
      "inputs": [
        {
          "internalType": "address",
          "name": "owner",
          "type": "address"
        }
      ],
      "name": "balanceOf",
      "outputs": [
        {
          "internalType": "uint256",
          "name": "",
          "type": "uint256"
        }
      ],
      "stateMutability": "view",
      "type": "function"
    },
    {
      "inputs": [
        {
          "internalType": "uint256",
          "name": "tokenId",
          "type": "uint256"
        }
      ],
      "name": "getApproved",
      "outputs": [
        {
          "internalType": "address",
          "name": "",
          "type": "address"
        }
      ],
      "stateMutability": "view",
      "type": "function"
    },
    {
      "inputs": [],
      "name": "giveawayActive",
      "outputs": [
        {
          "internalType": "bool",
          "name": "",
          "type": "bool"
        }
      ],
      "stateMutability": "view",
      "type": "function"
    },
    {
      "inputs": [],
      "name": "giveawayPriceToMint",
      "outputs": [
        {
          "internalType": "uint256",
          "name": "",
          "type": "uint256"
        }
      ],
      "stateMutability": "view",
      "type": "function"
    },
    {
      "inputs": [
        {
          "internalType": "address",
          "name": "value",
          "type": "address"
        }
      ],
      "name": "inGiveawayList",
      "outputs": [
        {
          "internalType": "bool",
          "name": "",
          "type": "bool"
        }
      ],
      "stateMutability": "view",
      "type": "function"
    },
    {
      "inputs": [
        {
          "internalType": "address",
          "name": "value",
          "type": "address"
        }
      ],
      "name": "inWhitelist",
      "outputs": [
        {
          "internalType": "bool",
          "name": "",
          "type": "bool"
        }
      ],
      "stateMutability": "view",
      "type": "function"
    },
    {
      "inputs": [
        {
          "internalType": "address",
          "name": "owner",
          "type": "address"
        },
        {
          "internalType": "address",
          "name": "operator",
          "type": "address"
        }
      ],
      "name": "isApprovedForAll",
      "outputs": [
        {
          "internalType": "bool",
          "name": "",
          "type": "bool"
        }
      ],
      "stateMutability": "view",
      "type": "function"
    },
    {
      "inputs": [
        {
          "internalType": "uint256",
          "name": "tokensAmount",
          "type": "uint256"
        },
        {
          "internalType": "string[]",
          "name": "tokenHashes",
          "type": "string[]"
        }
      ],
      "name": "mintTokens",
      "outputs": [
        {
          "internalType": "uint256[]",
          "name": "",
          "type": "uint256[]"
        }
      ],
      "stateMutability": "payable",
      "type": "function"
    },
    {
      "inputs": [],
      "name": "name",
      "outputs": [
        {
          "internalType": "string",
          "name": "",
          "type": "string"
        }
      ],
      "stateMutability": "view",
      "type": "function"
    },
    {
      "inputs": [],
      "name": "owner",
      "outputs": [
        {
          "internalType": "address",
          "name": "",
          "type": "address"
        }
      ],
      "stateMutability": "view",
      "type": "function"
    },
    {
      "inputs": [
        {
          "internalType": "uint256",
          "name": "tokenId",
          "type": "uint256"
        }
      ],
      "name": "ownerOf",
      "outputs": [
        {
          "internalType": "address",
          "name": "",
          "type": "address"
        }
      ],
      "stateMutability": "view",
      "type": "function"
    },
    {
      "inputs": [],
      "name": "pauseGiveaway",
      "outputs": [],
      "stateMutability": "nonpayable",
      "type": "function"
    },
    {
      "inputs": [],
      "name": "pausePresale",
      "outputs": [],
      "stateMutability": "nonpayable",
      "type": "function"
    },
    {
      "inputs": [],
      "name": "pausePublicSale",
      "outputs": [],
      "stateMutability": "nonpayable",
      "type": "function"
    },
    {
      "inputs": [],
      "name": "presaleActive",
      "outputs": [
        {
          "internalType": "bool",
          "name": "",
          "type": "bool"
        }
      ],
      "stateMutability": "view",
      "type": "function"
    },
    {
      "inputs": [],
      "name": "presaleLimit",
      "outputs": [
        {
          "internalType": "uint8",
          "name": "",
          "type": "uint8"
        }
      ],
      "stateMutability": "view",
      "type": "function"
    },
    {
      "inputs": [],
      "name": "presalePriceToMint",
      "outputs": [
        {
          "internalType": "uint256",
          "name": "",
          "type": "uint256"
        }
      ],
      "stateMutability": "view",
      "type": "function"
    },
    {
      "inputs": [
        {
          "internalType": "address",
          "name": "",
          "type": "address"
        }
      ],
      "name": "presalePurchasedAmount",
      "outputs": [
        {
          "internalType": "uint256",
          "name": "",
          "type": "uint256"
        }
      ],
      "stateMutability": "view",
      "type": "function"
    },
    {
      "inputs": [],
      "name": "price",
      "outputs": [
        {
          "internalType": "uint256",
          "name": "",
          "type": "uint256"
        }
      ],
      "stateMutability": "view",
      "type": "function"
    },
    {
      "inputs": [],
      "name": "priceToMint",
      "outputs": [
        {
          "internalType": "uint256",
          "name": "",
          "type": "uint256"
        }
      ],
      "stateMutability": "view",
      "type": "function"
    },
    {
      "inputs": [
        {
          "internalType": "address[]",
          "name": "addresses",
          "type": "address[]"
        }
      ],
      "name": "removeFromWhitelist",
      "outputs": [],
      "stateMutability": "nonpayable",
      "type": "function"
    },
    {
      "inputs": [],
      "name": "renounceOwnership",
      "outputs": [],
      "stateMutability": "nonpayable",
      "type": "function"
    },
    {
      "inputs": [],
      "name": "royaltiesActive",
      "outputs": [
        {
          "internalType": "bool",
          "name": "",
          "type": "bool"
        }
      ],
      "stateMutability": "view",
      "type": "function"
    },
    {
      "inputs": [
        {
          "internalType": "uint256",
          "name": "_tokenId",
          "type": "uint256"
        },
        {
          "internalType": "uint256",
          "name": "_salePrice",
          "type": "uint256"
        }
      ],
      "name": "royaltyInfo",
      "outputs": [
        {
          "internalType": "address",
          "name": "receiver",
          "type": "address"
        },
        {
          "internalType": "uint256",
          "name": "royaltyAmount",
          "type": "uint256"
        }
      ],
      "stateMutability": "view",
      "type": "function"
    },
    {
      "inputs": [
        {
          "internalType": "address",
          "name": "from",
          "type": "address"
        },
        {
          "internalType": "address",
          "name": "to",
          "type": "address"
        },
        {
          "internalType": "uint256",
          "name": "tokenId",
          "type": "uint256"
        }
      ],
      "name": "safeTransferFrom",
      "outputs": [],
      "stateMutability": "nonpayable",
      "type": "function"
    },
    {
      "inputs": [
        {
          "internalType": "address",
          "name": "from",
          "type": "address"
        },
        {
          "internalType": "address",
          "name": "to",
          "type": "address"
        },
        {
          "internalType": "uint256",
          "name": "tokenId",
          "type": "uint256"
        },
        {
          "internalType": "bytes",
          "name": "_data",
          "type": "bytes"
        }
      ],
      "name": "safeTransferFrom",
      "outputs": [],
      "stateMutability": "nonpayable",
      "type": "function"
    },
    {
      "inputs": [],
      "name": "saleActive",
      "outputs": [
        {
          "internalType": "bool",
          "name": "",
          "type": "bool"
        }
      ],
      "stateMutability": "view",
      "type": "function"
    },
    {
      "inputs": [],
      "name": "saleLimit",
      "outputs": [
        {
          "internalType": "uint8",
          "name": "",
          "type": "uint8"
        }
      ],
      "stateMutability": "view",
      "type": "function"
    },
    {
      "inputs": [
        {
          "internalType": "address",
          "name": "",
          "type": "address"
        }
      ],
      "name": "salePurchasedAmount",
      "outputs": [
        {
          "internalType": "uint256",
          "name": "",
          "type": "uint256"
        }
      ],
      "stateMutability": "view",
      "type": "function"
    },
    {
      "inputs": [
        {
          "internalType": "address",
          "name": "operator",
          "type": "address"
        },
        {
          "internalType": "bool",
          "name": "approved",
          "type": "bool"
        }
      ],
      "name": "setApprovalForAll",
      "outputs": [],
      "stateMutability": "nonpayable",
      "type": "function"
    },
    {
      "inputs": [],
      "name": "startGiveaway",
      "outputs": [],
      "stateMutability": "nonpayable",
      "type": "function"
    },
    {
      "inputs": [
        {
          "internalType": "uint8",
          "name": "presaleLimit_",
          "type": "uint8"
        }
      ],
      "name": "startPresale",
      "outputs": [],
      "stateMutability": "nonpayable",
      "type": "function"
    },
    {
      "inputs": [
        {
          "internalType": "uint8",
          "name": "saleLimit_",
          "type": "uint8"
        }
      ],
      "name": "startPublicSale",
      "outputs": [],
      "stateMutability": "nonpayable",
      "type": "function"
    },
    {
      "inputs": [
        {
          "internalType": "bytes4",
          "name": "interfaceId",
          "type": "bytes4"
        }
      ],
      "name": "supportsInterface",
      "outputs": [
        {
          "internalType": "bool",
          "name": "",
          "type": "bool"
        }
      ],
      "stateMutability": "view",
      "type": "function"
    },
    {
      "inputs": [],
      "name": "symbol",
      "outputs": [
        {
          "internalType": "string",
          "name": "",
          "type": "string"
        }
      ],
      "stateMutability": "view",
      "type": "function"
    },
    {
      "inputs": [],
      "name": "tglRoyalties",
      "outputs": [],
      "stateMutability": "nonpayable",
      "type": "function"
    },
    {
      "inputs": [
        {
          "internalType": "uint256",
          "name": "tokenId",
          "type": "uint256"
        }
      ],
      "name": "tokenURI",
      "outputs": [
        {
          "internalType": "string",
          "name": "",
          "type": "string"
        }
      ],
      "stateMutability": "view",
      "type": "function"
    },
    {
      "inputs": [
        {
          "internalType": "address",
          "name": "from",
          "type": "address"
        },
        {
          "internalType": "address",
          "name": "to",
          "type": "address"
        },
        {
          "internalType": "uint256",
          "name": "tokenId",
          "type": "uint256"
        }
      ],
      "name": "transferFrom",
      "outputs": [],
      "stateMutability": "nonpayable",
      "type": "function"
    },
    {
      "inputs": [
        {
          "internalType": "address",
          "name": "newOwner",
          "type": "address"
        }
      ],
      "name": "transferOwnership",
      "outputs": [],
      "stateMutability": "nonpayable",
      "type": "function"
    },
    {
      "inputs": [
        {
          "internalType": "address payable",
          "name": "wallet",
          "type": "address"
        },
        {
          "internalType": "uint256",
          "name": "amount",
          "type": "uint256"
        }
      ],
      "name": "withdraw",
      "outputs": [],
      "stateMutability": "nonpayable",
      "type": "function"
    }
  ],
  "bytecode": "0x60806040526000600f556658d15e1762800060105566b1a2bc2ec500006011553480156200002c57600080fd5b50604051620062c6380380620062c68339818101604052810190620000529190620002f4565b838381600090805190602001906200006c929190620001bb565b50806001908051906020019062000085929190620001bb565b505050620000a86200009c620000ed60201b60201c565b620000f560201b60201c565b60016007819055508160089080519060200190620000c8929190620001bb565b5080601260036101000a81548160ff0219169083151502179055505050505062000541565b600033905090565b6000600660009054906101000a900473ffffffffffffffffffffffffffffffffffffffff16905081600660006101000a81548173ffffffffffffffffffffffffffffffffffffffff021916908373ffffffffffffffffffffffffffffffffffffffff1602179055508173ffffffffffffffffffffffffffffffffffffffff168173ffffffffffffffffffffffffffffffffffffffff167f8be0079c531659141344cd1fd0a4f28419497f9722a3daafe3b4186f6b6457e060405160405180910390a35050565b828054620001c9906200044c565b90600052602060002090601f016020900481019282620001ed576000855562000239565b82601f106200020857805160ff191683800117855562000239565b8280016001018555821562000239579182015b82811115620002385782518255916020019190600101906200021b565b5b5090506200024891906200024c565b5090565b5b80821115620002675760008160009055506001016200024d565b5090565b6000620002826200027c84620003d4565b620003ab565b9050828152602081018484840111156200029b57600080fd5b620002a884828562000416565b509392505050565b600081519050620002c18162000527565b92915050565b600082601f830112620002d957600080fd5b8151620002eb8482602086016200026b565b91505092915050565b600080600080608085870312156200030b57600080fd5b600085015167ffffffffffffffff8111156200032657600080fd5b6200033487828801620002c7565b945050602085015167ffffffffffffffff8111156200035257600080fd5b6200036087828801620002c7565b935050604085015167ffffffffffffffff8111156200037e57600080fd5b6200038c87828801620002c7565b92505060606200039f87828801620002b0565b91505092959194509250565b6000620003b7620003ca565b9050620003c5828262000482565b919050565b6000604051905090565b600067ffffffffffffffff821115620003f257620003f1620004e7565b5b620003fd8262000516565b9050602081019050919050565b60008115159050919050565b60005b838110156200043657808201518184015260208101905062000419565b8381111562000446576000848401525b50505050565b600060028204905060018216806200046557607f821691505b602082108114156200047c576200047b620004b8565b5b50919050565b6200048d8262000516565b810181811067ffffffffffffffff82111715620004af57620004ae620004e7565b5b80604052505050565b7f4e487b7100000000000000000000000000000000000000000000000000000000600052602260045260246000fd5b7f4e487b7100000000000000000000000000000000000000000000000000000000600052604160045260246000fd5b6000601f19601f8301169050919050565b62000532816200040a565b81146200053e57600080fd5b50565b615d7580620005516000396000f3fe60806040526004361061025c5760003560e01c80636739f14311610144578063a22cb465116100b6578063dd0b00801161007a578063dd0b0080146108b6578063df9ffc2d146108cd578063e2aafa211461090a578063e985e9c514610947578063f2fde38b14610984578063f3fef3a3146109ad5761025c565b8063a22cb465146107cc578063b88d4fde146107f5578063c0f98e331461081e578063c87b56dd1461084e578063dc9403a61461088b5761025c565b80637e26639f116101085780637e26639f146106ce5780637f649783146106f95780638da5cb5b1461072257806394c606f51461074d57806395d89b4114610776578063a035b1fe146107a15761025c565b80636739f1431461060f57806368428a1b1461063857806370a0823114610663578063715018a6146106a05780637c0f8aa0146106b75761025c565b80632b3f4d92116101dd5780634779e7a1116101a15780634779e7a1146104ff5780634dc1dbec14610528578063525b3fe31461055357806353135ca01461057e578063548db174146105a95780636352211e146105d25761025c565b80632b3f4d921461040657806337573876146104315780633e571a091461046e57806342842e0e146104ab5780634616d4b2146104d45761025c565b8063095ea7b311610224578063095ea7b3146103345780630c41f4971461035d578063166bb4931461037457806323b872dd1461039f5780632a55205a146103c85761025c565b806301ffc9a71461026157806305e4e88a1461029e57806306fdde03146102b5578063070f5c09146102e0578063081812fc146102f7575b600080fd5b34801561026d57600080fd5b50610288600480360381019061028391906142c3565b6109d6565b6040516102959190614afe565b60405180910390f35b3480156102aa57600080fd5b506102b3610ab8565b005b3480156102c157600080fd5b506102ca610c6e565b6040516102d79190614b19565b60405180910390f35b3480156102ec57600080fd5b506102f5610d00565b005b34801561030357600080fd5b5061031e60048036038101906103199190614315565b610eb5565b60405161032b9190614a4c565b60405180910390f35b34801561034057600080fd5b5061035b60048036038101906103569190614246565b610f3a565b005b34801561036957600080fd5b50610372611052565b005b34801561038057600080fd5b50610389611207565b6040516103969190614afe565b60405180910390f35b3480156103ab57600080fd5b506103c660048036038101906103c19190614140565b61121a565b005b3480156103d457600080fd5b506103ef60048036038101906103ea9190614396565b61127a565b6040516103fd929190614ab3565b60405180910390f35b34801561041257600080fd5b5061041b611342565b6040516104289190614f9b565b60405180910390f35b34801561043d57600080fd5b506104586004803603810190610453919061409f565b611348565b6040516104659190614f9b565b60405180910390f35b34801561047a57600080fd5b506104956004803603810190610490919061409f565b611360565b6040516104a29190614afe565b60405180910390f35b3480156104b757600080fd5b506104d260048036038101906104cd9190614140565b61137d565b005b3480156104e057600080fd5b506104e961139d565b6040516104f69190614afe565b60405180910390f35b34801561050b57600080fd5b50610526600480360381019061052191906143d2565b6113b0565b005b34801561053457600080fd5b5061053d611582565b60405161054a9190614f9b565b60405180910390f35b34801561055f57600080fd5b50610568611588565b6040516105759190614fb6565b60405180910390f35b34801561058a57600080fd5b5061059361159b565b6040516105a09190614afe565b60405180910390f35b3480156105b557600080fd5b506105d060048036038101906105cb9190614282565b6115ae565b005b3480156105de57600080fd5b506105f960048036038101906105f49190614315565b611771565b6040516106069190614a4c565b60405180910390f35b34801561061b57600080fd5b5061063660048036038101906106319190614282565b611823565b005b34801561064457600080fd5b5061064d6119a0565b60405161065a9190614afe565b60405180910390f35b34801561066f57600080fd5b5061068a6004803603810190610685919061409f565b6119b3565b6040516106979190614f9b565b60405180910390f35b3480156106ac57600080fd5b506106b5611a6b565b005b3480156106c357600080fd5b506106cc611af3565b005b3480156106da57600080fd5b506106e3611ca8565b6040516106f09190614fb6565b60405180910390f35b34801561070557600080fd5b50610720600480360381019061071b9190614282565b611cbb565b005b34801561072e57600080fd5b50610737611e7e565b6040516107449190614a4c565b60405180910390f35b34801561075957600080fd5b50610774600480360381019061076f91906143d2565b611ea8565b005b34801561078257600080fd5b5061078b61207a565b6040516107989190614b19565b60405180910390f35b3480156107ad57600080fd5b506107b661210c565b6040516107c39190614f9b565b60405180910390f35b3480156107d857600080fd5b506107f360048036038101906107ee919061420a565b612155565b005b34801561080157600080fd5b5061081c6004803603810190610817919061418f565b61216b565b005b6108386004803603810190610833919061433e565b6121cd565b6040516108459190614adc565b60405180910390f35b34801561085a57600080fd5b5061087560048036038101906108709190614315565b612502565b6040516108829190614b19565b60405180910390f35b34801561089757600080fd5b506108a06126f8565b6040516108ad9190614f9b565b60405180910390f35b3480156108c257600080fd5b506108cb6126fe565b005b3480156108d957600080fd5b506108f460048036038101906108ef919061409f565b6127a6565b6040516109019190614f9b565b60405180910390f35b34801561091657600080fd5b50610931600480360381019061092c919061409f565b6127be565b60405161093e9190614afe565b60405180910390f35b34801561095357600080fd5b5061096e60048036038101906109699190614104565b6127db565b60405161097b9190614afe565b60405180910390f35b34801561099057600080fd5b506109ab60048036038101906109a6919061409f565b61286f565b005b3480156109b957600080fd5b506109d460048036038101906109cf91906140c8565b612967565b005b60007f80ac58cd000000000000000000000000000000000000000000000000000000007bffffffffffffffffffffffffffffffffffffffffffffffffffffffff1916827bffffffffffffffffffffffffffffffffffffffffffffffffffffffff19161480610aa157507f5b5e139f000000000000000000000000000000000000000000000000000000007bffffffffffffffffffffffffffffffffffffffffffffffffffffffff1916827bffffffffffffffffffffffffffffffffffffffffffffffffffffffff1916145b80610ab15750610ab082612a71565b5b9050919050565b610ac0612adb565b73ffffffffffffffffffffffffffffffffffffffff16610ade611e7e565b73ffffffffffffffffffffffffffffffffffffffff1614610b34576040517f08c379a0000000000000000000000000000000000000000000000000000000008152600401610b2b90614d9b565b60405180910390fd5b601260009054906101000a900460ff1615610b84576040517f08c379a0000000000000000000000000000000000000000000000000000000008152600401610b7b90614f7b565b60405180910390fd5b601260019054906101000a900460ff1615610bd4576040517f08c379a0000000000000000000000000000000000000000000000000000000008152600401610bcb90614d1b565b60405180910390fd5b601260029054906101000a900460ff1615610c24576040517f08c379a0000000000000000000000000000000000000000000000000000000008152600401610c1b90614bfb565b60405180910390fd5b6001601260006101000a81548160ff021916908315150217905550427fea160f4a1725183ff307b55e355bb04139d56298efc5853e17f99ade82e2f38960405160405180910390a2565b606060008054610c7d90615310565b80601f0160208091040260200160405190810160405280929190818152602001828054610ca990615310565b8015610cf65780601f10610ccb57610100808354040283529160200191610cf6565b820191906000526020600020905b815481529060010190602001808311610cd957829003601f168201915b5050505050905090565b610d08612adb565b73ffffffffffffffffffffffffffffffffffffffff16610d26611e7e565b73ffffffffffffffffffffffffffffffffffffffff1614610d7c576040517f08c379a0000000000000000000000000000000000000000000000000000000008152600401610d7390614d9b565b60405180910390fd5b601260009054906101000a900460ff1615610dcc576040517f08c379a0000000000000000000000000000000000000000000000000000000008152600401610dc390614f7b565b60405180910390fd5b601260029054906101000a900460ff1615610e1c576040517f08c379a0000000000000000000000000000000000000000000000000000000008152600401610e1390614bfb565b60405180910390fd5b601260019054906101000a900460ff16610e6b576040517f08c379a0000000000000000000000000000000000000000000000000000000008152600401610e6290614f1b565b60405180910390fd5b6000601260016101000a81548160ff021916908315150217905550427fbbda50ff3083b4adfffcd3c2e8042a8b354ca16013534ab9367661c5a4cb7b2360405160405180910390a2565b6000610ec082612ae3565b610eff576040517f08c379a0000000000000000000000000000000000000000000000000000000008152600401610ef690614d3b565b60405180910390fd5b6004600083815260200190815260200160002060009054906101000a900473ffffffffffffffffffffffffffffffffffffffff169050919050565b6000610f4582611771565b90508073ffffffffffffffffffffffffffffffffffffffff168373ffffffffffffffffffffffffffffffffffffffff161415610fb6576040517f08c379a0000000000000000000000000000000000000000000000000000000008152600401610fad90614e3b565b60405180910390fd5b8073ffffffffffffffffffffffffffffffffffffffff16610fd5612adb565b73ffffffffffffffffffffffffffffffffffffffff161480611004575061100381610ffe612adb565b6127db565b5b611043576040517f08c379a000000000000000000000000000000000000000000000000000000000815260040161103a90614c7b565b60405180910390fd5b61104d8383612b4f565b505050565b61105a612adb565b73ffffffffffffffffffffffffffffffffffffffff16611078611e7e565b73ffffffffffffffffffffffffffffffffffffffff16146110ce576040517f08c379a00000000000000000000000000000000000000000000000000000000081526004016110c590614d9b565b60405180910390fd5b601260009054906101000a900460ff161561111e576040517f08c379a000000000000000000000000000000000000000000000000000000000815260040161111590614f7b565b60405180910390fd5b601260019054906101000a900460ff161561116e576040517f08c379a000000000000000000000000000000000000000000000000000000000815260040161116590614d1b565b60405180910390fd5b601260029054906101000a900460ff166111bd576040517f08c379a00000000000000000000000000000000000000000000000000000000081526004016111b490614bdb565b60405180910390fd5b6000601260026101000a81548160ff021916908315150217905550427f4616a0782e5635981b28be1cd36934a60655b462c370d8bd8092c969abc990d060405160405180910390a2565b601260039054906101000a900460ff1681565b61122b611225612adb565b82612c08565b61126a576040517f08c379a000000000000000000000000000000000000000000000000000000000815260040161126190614efb565b60405180910390fd5b611275838383612ce6565b505050565b60008061128684612ae3565b6112c5576040517f08c379a00000000000000000000000000000000000000000000000000000000081526004016112bc90614e7b565b60405180910390fd5b60011515601260039054906101000a900460ff1615151461131b576040517f08c379a000000000000000000000000000000000000000000000000000000000815260040161131290614e5b565b60405180910390fd5b306127106103e88561132d91906151ad565b611337919061517c565b915091509250929050565b600f5481565b60156020528060005260406000206000915090505481565b600061137682600b612f4290919063ffffffff16565b9050919050565b6113988383836040518060200160405280600081525061216b565b505050565b601260009054906101000a900460ff1681565b6113b8612adb565b73ffffffffffffffffffffffffffffffffffffffff166113d6611e7e565b73ffffffffffffffffffffffffffffffffffffffff161461142c576040517f08c379a000000000000000000000000000000000000000000000000000000000815260040161142390614d9b565b60405180910390fd5b601260009054906101000a900460ff161561147c576040517f08c379a000000000000000000000000000000000000000000000000000000000815260040161147390614f7b565b60405180910390fd5b601260019054906101000a900460ff16156114cc576040517f08c379a00000000000000000000000000000000000000000000000000000000081526004016114c390614d1b565b60405180910390fd5b601260029054906101000a900460ff161561151c576040517f08c379a000000000000000000000000000000000000000000000000000000000815260040161151390614bfb565b60405180910390fd5b80601460006101000a81548160ff021916908360ff1602179055506001601260026101000a81548160ff021916908315150217905550427feeae71454a2a58ac8d7c3a2ac3db1f29f81cbd0024aae4292a55139dd9d3560a60405160405180910390a250565b60115481565b601260049054906101000a900460ff1681565b601260019054906101000a900460ff1681565b6115b6612adb565b73ffffffffffffffffffffffffffffffffffffffff166115d4611e7e565b73ffffffffffffffffffffffffffffffffffffffff161461162a576040517f08c379a000000000000000000000000000000000000000000000000000000000815260040161162190614d9b565b60405180910390fd5b6107d081511115611670576040517f08c379a000000000000000000000000000000000000000000000000000000000815260040161166790614c9b565b60405180910390fd5b60005b815181101561176d576116d08282815181106116b8577f4e487b7100000000000000000000000000000000000000000000000000000000600052603260045260246000fd5b6020026020010151600d612f7290919063ffffffff16565b156117595781818151811061170e577f4e487b7100000000000000000000000000000000000000000000000000000000600052603260045260246000fd5b602002602001015173ffffffffffffffffffffffffffffffffffffffff167fcdd2e9b91a56913d370075169cefa1602ba36be5301664f752192bb1709df75760405160405180910390a25b6001816117669190615126565b9050611673565b5050565b6000806002600084815260200190815260200160002060009054906101000a900473ffffffffffffffffffffffffffffffffffffffff169050600073ffffffffffffffffffffffffffffffffffffffff168173ffffffffffffffffffffffffffffffffffffffff16141561181a576040517f08c379a000000000000000000000000000000000000000000000000000000000815260040161181190614cdb565b60405180910390fd5b80915050919050565b61182b612adb565b73ffffffffffffffffffffffffffffffffffffffff16611849611e7e565b73ffffffffffffffffffffffffffffffffffffffff161461189f576040517f08c379a000000000000000000000000000000000000000000000000000000000815260040161189690614d9b565b60405180910390fd5b60005b815181101561199c576118ff8282815181106118e7577f4e487b7100000000000000000000000000000000000000000000000000000000600052603260045260246000fd5b6020026020010151600b612fa290919063ffffffff16565b156119885781818151811061193d577f4e487b7100000000000000000000000000000000000000000000000000000000600052603260045260246000fd5b602002602001015173ffffffffffffffffffffffffffffffffffffffff167fffbd2575fe2e4e63d9838a8ecda40fcd0b19fce153bc5d6fe10157c938086af960405160405180910390a25b6001816119959190615126565b90506118a2565b5050565b601260029054906101000a900460ff1681565b60008073ffffffffffffffffffffffffffffffffffffffff168273ffffffffffffffffffffffffffffffffffffffff161415611a24576040517f08c379a0000000000000000000000000000000000000000000000000000000008152600401611a1b90614cbb565b60405180910390fd5b600360008373ffffffffffffffffffffffffffffffffffffffff1673ffffffffffffffffffffffffffffffffffffffff168152602001908152602001600020549050919050565b611a73612adb565b73ffffffffffffffffffffffffffffffffffffffff16611a91611e7e565b73ffffffffffffffffffffffffffffffffffffffff1614611ae7576040517f08c379a0000000000000000000000000000000000000000000000000000000008152600401611ade90614d9b565b60405180910390fd5b611af16000612fd2565b565b611afb612adb565b73ffffffffffffffffffffffffffffffffffffffff16611b19611e7e565b73ffffffffffffffffffffffffffffffffffffffff1614611b6f576040517f08c379a0000000000000000000000000000000000000000000000000000000008152600401611b6690614d9b565b60405180910390fd5b601260019054906101000a900460ff1615611bbf576040517f08c379a0000000000000000000000000000000000000000000000000000000008152600401611bb690614d1b565b60405180910390fd5b601260029054906101000a900460ff1615611c0f576040517f08c379a0000000000000000000000000000000000000000000000000000000008152600401611c0690614bfb565b60405180910390fd5b601260009054906101000a900460ff16611c5e576040517f08c379a0000000000000000000000000000000000000000000000000000000008152600401611c5590614ebb565b60405180910390fd5b6000601260006101000a81548160ff021916908315150217905550427f71fbf9de7004f7d16da327d0c26b8f8b29e6efeaa59d67d1b76d6cc71fe47aae60405160405180910390a2565b601460009054906101000a900460ff1681565b611cc3612adb565b73ffffffffffffffffffffffffffffffffffffffff16611ce1611e7e565b73ffffffffffffffffffffffffffffffffffffffff1614611d37576040517f08c379a0000000000000000000000000000000000000000000000000000000008152600401611d2e90614d9b565b60405180910390fd5b6107d081511115611d7d576040517f08c379a0000000000000000000000000000000000000000000000000000000008152600401611d7490614c9b565b60405180910390fd5b60005b8151811015611e7a57611ddd828281518110611dc5577f4e487b7100000000000000000000000000000000000000000000000000000000600052603260045260246000fd5b6020026020010151600d612fa290919063ffffffff16565b15611e6657818181518110611e1b577f4e487b7100000000000000000000000000000000000000000000000000000000600052603260045260246000fd5b602002602001015173ffffffffffffffffffffffffffffffffffffffff167fa850ae9193f515cbae8d35e8925bd2be26627fc91bce650b8652ed254e9cab0360405160405180910390a25b600181611e739190615126565b9050611d80565b5050565b6000600660009054906101000a900473ffffffffffffffffffffffffffffffffffffffff16905090565b611eb0612adb565b73ffffffffffffffffffffffffffffffffffffffff16611ece611e7e565b73ffffffffffffffffffffffffffffffffffffffff1614611f24576040517f08c379a0000000000000000000000000000000000000000000000000000000008152600401611f1b90614d9b565b60405180910390fd5b601260009054906101000a900460ff1615611f74576040517f08c379a0000000000000000000000000000000000000000000000000000000008152600401611f6b90614f7b565b60405180910390fd5b601260019054906101000a900460ff1615611fc4576040517f08c379a0000000000000000000000000000000000000000000000000000000008152600401611fbb90614d1b565b60405180910390fd5b601260029054906101000a900460ff1615612014576040517f08c379a000000000000000000000000000000000000000000000000000000000815260040161200b90614bfb565b60405180910390fd5b80601260046101000a81548160ff021916908360ff1602179055506001601260016101000a81548160ff021916908315150217905550427f0ab3861e918916d082a16babf84acd725febc223f0833c5c03d8b14ec900174360405160405180910390a250565b60606001805461208990615310565b80601f01602080910402602001604051908101604052809291908181526020018280546120b590615310565b80156121025780601f106120d757610100808354040283529160200191612102565b820191906000526020600020905b8154815290600101906020018083116120e557829003601f168201915b5050505050905090565b6000601260009054906101000a900460ff161561212d57600f549050612152565b601260019054906101000a900460ff161561214c576010549050612152565b60115490505b90565b612167612160612adb565b8383613098565b5050565b61217c612176612adb565b83612c08565b6121bb576040517f08c379a00000000000000000000000000000000000000000000000000000000081526004016121b290614efb565b60405180910390fd5b6121c784848484613205565b50505050565b6060601260009054906101000a900460ff16806121f65750601260019054906101000a900460ff165b8061220d5750601260029054906101000a900460ff165b61224c576040517f08c379a000000000000000000000000000000000000000000000000000000000815260040161224390614d5b565b60405180910390fd5b60026007541415612292576040517f08c379a000000000000000000000000000000000000000000000000000000000815260040161228990614f3b565b60405180910390fd5b60026007819055506122a384613261565b60008467ffffffffffffffff8111156122e5577f4e487b7100000000000000000000000000000000000000000000000000000000600052604160045260246000fd5b6040519080825280602002602001820160405280156123135781602001602082028036833780820191505090505b50905060005b85811015612411576123b83386868481811061235e577f4e487b7100000000000000000000000000000000000000000000000000000000600052603260045260246000fd5b90506020028101906123709190614fd1565b8080601f016020809104026020016040519081016040528093929190818152602001838380828437600081840152601f19601f82011690508083019250505050505050613585565b8282815181106123f1577f4e487b7100000000000000000000000000000000000000000000000000000000600052603260045260246000fd5b60200260200101818152505060018161240a9190615126565b9050612319565b50601260019054906101000a900460ff16156124825784601360003373ffffffffffffffffffffffffffffffffffffffff1673ffffffffffffffffffffffffffffffffffffffff16815260200190815260200160002060008282546124769190615126565b925050819055506124ef565b601260029054906101000a900460ff16156124ee5784601560003373ffffffffffffffffffffffffffffffffffffffff1673ffffffffffffffffffffffffffffffffffffffff16815260200190815260200160002060008282546124e69190615126565b925050819055505b5b8091505060016007819055509392505050565b606061250d82612ae3565b61254c576040517f08c379a000000000000000000000000000000000000000000000000000000000815260040161254390614ddb565b60405180910390fd5b600060096000848152602001908152602001600020805461256c90615310565b80601f016020809104026020016040519081016040528092919081815260200182805461259890615310565b80156125e55780601f106125ba576101008083540402835291602001916125e5565b820191906000526020600020905b8154815290600101906020018083116125c857829003601f168201915b505050505090506000600880546125fb90615310565b80601f016020809104026020016040519081016040528092919081815260200182805461262790615310565b80156126745780601f1061264957610100808354040283529160200191612674565b820191906000526020600020905b81548152906001019060200180831161265757829003601f168201915b5050505050905060008151141561268f5781925050506126f3565b6000825111156126c45780826040516020016126ac929190614a28565b604051602081830303815290604052925050506126f3565b806126ce856135b4565b6040516020016126df929190614a28565b604051602081830303815290604052925050505b919050565b60105481565b612706612adb565b73ffffffffffffffffffffffffffffffffffffffff16612724611e7e565b73ffffffffffffffffffffffffffffffffffffffff161461277a576040517f08c379a000000000000000000000000000000000000000000000000000000000815260040161277190614d9b565b60405180910390fd5b601260039054906101000a900460ff1615601260036101000a81548160ff021916908315150217905550565b60136020528060005260406000206000915090505481565b60006127d482600d612f4290919063ffffffff16565b9050919050565b6000600560008473ffffffffffffffffffffffffffffffffffffffff1673ffffffffffffffffffffffffffffffffffffffff16815260200190815260200160002060008373ffffffffffffffffffffffffffffffffffffffff1673ffffffffffffffffffffffffffffffffffffffff16815260200190815260200160002060009054906101000a900460ff16905092915050565b612877612adb565b73ffffffffffffffffffffffffffffffffffffffff16612895611e7e565b73ffffffffffffffffffffffffffffffffffffffff16146128eb576040517f08c379a00000000000000000000000000000000000000000000000000000000081526004016128e290614d9b565b60405180910390fd5b600073ffffffffffffffffffffffffffffffffffffffff168173ffffffffffffffffffffffffffffffffffffffff16141561295b576040517f08c379a000000000000000000000000000000000000000000000000000000000815260040161295290614b5b565b60405180910390fd5b61296481612fd2565b50565b61296f612adb565b73ffffffffffffffffffffffffffffffffffffffff1661298d611e7e565b73ffffffffffffffffffffffffffffffffffffffff16146129e3576040517f08c379a00000000000000000000000000000000000000000000000000000000081526004016129da90614d9b565b60405180910390fd5b47811115612a26576040517f08c379a0000000000000000000000000000000000000000000000000000000008152600401612a1d90614c5b565b60405180910390fd5b8173ffffffffffffffffffffffffffffffffffffffff166108fc829081150290604051600060405180830381858888f19350505050158015612a6c573d6000803e3d6000fd5b505050565b60007f01ffc9a7000000000000000000000000000000000000000000000000000000007bffffffffffffffffffffffffffffffffffffffffffffffffffffffff1916827bffffffffffffffffffffffffffffffffffffffffffffffffffffffff1916149050919050565b600033905090565b60008073ffffffffffffffffffffffffffffffffffffffff166002600084815260200190815260200160002060009054906101000a900473ffffffffffffffffffffffffffffffffffffffff1673ffffffffffffffffffffffffffffffffffffffff1614159050919050565b816004600083815260200190815260200160002060006101000a81548173ffffffffffffffffffffffffffffffffffffffff021916908373ffffffffffffffffffffffffffffffffffffffff160217905550808273ffffffffffffffffffffffffffffffffffffffff16612bc283611771565b73ffffffffffffffffffffffffffffffffffffffff167f8c5be1e5ebec7d5bd14f71427d1e84f3dd0314c0f7b2291e5b200ac8c7c3b92560405160405180910390a45050565b6000612c1382612ae3565b612c52576040517f08c379a0000000000000000000000000000000000000000000000000000000008152600401612c4990614c1b565b60405180910390fd5b6000612c5d83611771565b90508073ffffffffffffffffffffffffffffffffffffffff168473ffffffffffffffffffffffffffffffffffffffff161480612ccc57508373ffffffffffffffffffffffffffffffffffffffff16612cb484610eb5565b73ffffffffffffffffffffffffffffffffffffffff16145b80612cdd5750612cdc81856127db565b5b91505092915050565b8273ffffffffffffffffffffffffffffffffffffffff16612d0682611771565b73ffffffffffffffffffffffffffffffffffffffff1614612d5c576040517f08c379a0000000000000000000000000000000000000000000000000000000008152600401612d5390614dbb565b60405180910390fd5b600073ffffffffffffffffffffffffffffffffffffffff168273ffffffffffffffffffffffffffffffffffffffff161415612dcc576040517f08c379a0000000000000000000000000000000000000000000000000000000008152600401612dc390614b9b565b60405180910390fd5b612dd7838383613761565b612de2600082612b4f565b6001600360008573ffffffffffffffffffffffffffffffffffffffff1673ffffffffffffffffffffffffffffffffffffffff1681526020019081526020016000206000828254612e329190615207565b925050819055506001600360008473ffffffffffffffffffffffffffffffffffffffff1673ffffffffffffffffffffffffffffffffffffffff1681526020019081526020016000206000828254612e899190615126565b92505081905550816002600083815260200190815260200160002060006101000a81548173ffffffffffffffffffffffffffffffffffffffff021916908373ffffffffffffffffffffffffffffffffffffffff160217905550808273ffffffffffffffffffffffffffffffffffffffff168473ffffffffffffffffffffffffffffffffffffffff167fddf252ad1be2c89b69c2b068fc378daa952ba7f163c4a11628f55a4df523b3ef60405160405180910390a4505050565b6000612f6a836000018373ffffffffffffffffffffffffffffffffffffffff1660001b613766565b905092915050565b6000612f9a836000018373ffffffffffffffffffffffffffffffffffffffff1660001b613789565b905092915050565b6000612fca836000018373ffffffffffffffffffffffffffffffffffffffff1660001b61390f565b905092915050565b6000600660009054906101000a900473ffffffffffffffffffffffffffffffffffffffff16905081600660006101000a81548173ffffffffffffffffffffffffffffffffffffffff021916908373ffffffffffffffffffffffffffffffffffffffff1602179055508173ffffffffffffffffffffffffffffffffffffffff168173ffffffffffffffffffffffffffffffffffffffff167f8be0079c531659141344cd1fd0a4f28419497f9722a3daafe3b4186f6b6457e060405160405180910390a35050565b8173ffffffffffffffffffffffffffffffffffffffff168373ffffffffffffffffffffffffffffffffffffffff161415613107576040517f08c379a00000000000000000000000000000000000000000000000000000000081526004016130fe90614bbb565b60405180910390fd5b80600560008573ffffffffffffffffffffffffffffffffffffffff1673ffffffffffffffffffffffffffffffffffffffff16815260200190815260200160002060008473ffffffffffffffffffffffffffffffffffffffff1673ffffffffffffffffffffffffffffffffffffffff16815260200190815260200160002060006101000a81548160ff0219169083151502179055508173ffffffffffffffffffffffffffffffffffffffff168373ffffffffffffffffffffffffffffffffffffffff167f17307eab39ab6107e8899845ad3d59bd9653f200f220920489ca2b5937696c31836040516131f89190614afe565b60405180910390a3505050565b613210848484612ce6565b61321c8484848461397f565b61325b576040517f08c379a000000000000000000000000000000000000000000000000000000000815260040161325290614b3b565b60405180910390fd5b50505050565b600073ffffffffffffffffffffffffffffffffffffffff163373ffffffffffffffffffffffffffffffffffffffff16141561329b57600080fd5b600081116132de576040517f08c379a00000000000000000000000000000000000000000000000000000000081526004016132d590614e1b565b60405180910390fd5b601260009054906101000a900460ff1615613340576132fc33611360565b61333b576040517f08c379a000000000000000000000000000000000000000000000000000000000815260040161333290614edb565b60405180910390fd5b613582565b601260019054906101000a900460ff16156134915761335e336127be565b61339d576040517f08c379a000000000000000000000000000000000000000000000000000000000815260040161339490614edb565b60405180910390fd5b601260049054906101000a900460ff1660ff16601360003373ffffffffffffffffffffffffffffffffffffffff1673ffffffffffffffffffffffffffffffffffffffff16815260200190815260200160002054826133fb9190615126565b111561343c576040517f08c379a000000000000000000000000000000000000000000000000000000000815260040161343390614e9b565b60405180910390fd5b348160105461344b91906151ad565b111561348c576040517f08c379a000000000000000000000000000000000000000000000000000000000815260040161348390614f5b565b60405180910390fd5b613581565b601460009054906101000a900460ff1660ff16601560003373ffffffffffffffffffffffffffffffffffffffff1673ffffffffffffffffffffffffffffffffffffffff16815260200190815260200160002054826134ef9190615126565b1115613530576040517f08c379a000000000000000000000000000000000000000000000000000000000815260040161352790614dfb565b60405180910390fd5b348160115461353f91906151ad565b1115613580576040517f08c379a000000000000000000000000000000000000000000000000000000000815260040161357790614c3b565b60405180910390fd5b5b5b50565b6000613591600a613b16565b600061359d600a613b2c565b90506135aa848285613b3a565b8091505092915050565b606060008214156135fc576040518060400160405280600181526020017f3000000000000000000000000000000000000000000000000000000000000000815250905061375c565b600082905060005b6000821461362e57808061361790615373565b915050600a82613627919061517c565b9150613604565b60008167ffffffffffffffff811115613670577f4e487b7100000000000000000000000000000000000000000000000000000000600052604160045260246000fd5b6040519080825280601f01601f1916602001820160405280156136a25781602001600182028036833780820191505090505b5090505b60008514613755576001826136bb9190615207565b9150600a856136ca91906153bc565b60306136d69190615126565b60f81b818381518110613712577f4e487b7100000000000000000000000000000000000000000000000000000000600052603260045260246000fd5b60200101907effffffffffffffffffffffffffffffffffffffffffffffffffffffffffffff1916908160001a905350600a8561374e919061517c565b94506136a6565b8093505050505b919050565b505050565b600080836001016000848152602001908152602001600020541415905092915050565b600080836001016000848152602001908152602001600020549050600081146139035760006001826137bb9190615207565b90506000600186600001805490506137d39190615207565b905081811461388e57600086600001828154811061381a577f4e487b7100000000000000000000000000000000000000000000000000000000600052603260045260246000fd5b9060005260206000200154905080876000018481548110613864577f4e487b7100000000000000000000000000000000000000000000000000000000600052603260045260246000fd5b90600052602060002001819055508387600101600083815260200190815260200160002081905550505b856000018054806138c8577f4e487b7100000000000000000000000000000000000000000000000000000000600052603160045260246000fd5b600190038181906000526020600020016000905590558560010160008681526020019081526020016000206000905560019350505050613909565b60009150505b92915050565b600061391b8383613766565b613974578260000182908060018154018082558091505060019003906000526020600020016000909190919091505582600001805490508360010160008481526020019081526020016000208190555060019050613979565b600090505b92915050565b60006139a08473ffffffffffffffffffffffffffffffffffffffff16613b53565b15613b09578373ffffffffffffffffffffffffffffffffffffffff1663150b7a026139c9612adb565b8786866040518563ffffffff1660e01b81526004016139eb9493929190614a67565b602060405180830381600087803b158015613a0557600080fd5b505af1925050508015613a3657506040513d601f19601f82011682018060405250810190613a3391906142ec565b60015b613ab9573d8060008114613a66576040519150601f19603f3d011682016040523d82523d6000602084013e613a6b565b606091505b50600081511415613ab1576040517f08c379a0000000000000000000000000000000000000000000000000000000008152600401613aa890614b3b565b60405180910390fd5b805181602001fd5b63150b7a0260e01b7bffffffffffffffffffffffffffffffffffffffffffffffffffffffff1916817bffffffffffffffffffffffffffffffffffffffffffffffffffffffff191614915050613b0e565b600190505b949350505050565b6001816000016000828254019250508190555050565b600081600001549050919050565b613b448383613b66565b613b4e8282613b84565b505050565b600080823b905060008111915050919050565b613b80828260405180602001604052806000815250613bf8565b5050565b613b8d82612ae3565b613bcc576040517f08c379a0000000000000000000000000000000000000000000000000000000008152600401613bc390614d7b565b60405180910390fd5b80600960008481526020019081526020016000209080519060200190613bf3929190613e21565b505050565b613c028383613c53565b613c0f600084848461397f565b613c4e576040517f08c379a0000000000000000000000000000000000000000000000000000000008152600401613c4590614b3b565b60405180910390fd5b505050565b600073ffffffffffffffffffffffffffffffffffffffff168273ffffffffffffffffffffffffffffffffffffffff161415613cc3576040517f08c379a0000000000000000000000000000000000000000000000000000000008152600401613cba90614cfb565b60405180910390fd5b613ccc81612ae3565b15613d0c576040517f08c379a0000000000000000000000000000000000000000000000000000000008152600401613d0390614b7b565b60405180910390fd5b613d1860008383613761565b6001600360008473ffffffffffffffffffffffffffffffffffffffff1673ffffffffffffffffffffffffffffffffffffffff1681526020019081526020016000206000828254613d689190615126565b92505081905550816002600083815260200190815260200160002060006101000a81548173ffffffffffffffffffffffffffffffffffffffff021916908373ffffffffffffffffffffffffffffffffffffffff160217905550808273ffffffffffffffffffffffffffffffffffffffff16600073ffffffffffffffffffffffffffffffffffffffff167fddf252ad1be2c89b69c2b068fc378daa952ba7f163c4a11628f55a4df523b3ef60405160405180910390a45050565b828054613e2d90615310565b90600052602060002090601f016020900481019282613e4f5760008555613e96565b82601f10613e6857805160ff1916838001178555613e96565b82800160010185558215613e96579182015b82811115613e95578251825591602001919060010190613e7a565b5b509050613ea39190613ea7565b5090565b5b80821115613ec0576000816000905550600101613ea8565b5090565b6000613ed7613ed28461504d565b615028565b90508083825260208201905082856020860282011115613ef657600080fd5b60005b85811015613f265781613f0c8882613f6e565b845260208401935060208301925050600181019050613ef9565b5050509392505050565b6000613f43613f3e84615079565b615028565b905082815260208101848484011115613f5b57600080fd5b613f668482856152ce565b509392505050565b600081359050613f7d81615cb5565b92915050565b600081359050613f9281615ccc565b92915050565b600082601f830112613fa957600080fd5b8135613fb9848260208601613ec4565b91505092915050565b60008083601f840112613fd457600080fd5b8235905067ffffffffffffffff811115613fed57600080fd5b60208301915083602082028301111561400557600080fd5b9250929050565b60008135905061401b81615ce3565b92915050565b60008135905061403081615cfa565b92915050565b60008151905061404581615cfa565b92915050565b600082601f83011261405c57600080fd5b813561406c848260208601613f30565b91505092915050565b60008135905061408481615d11565b92915050565b60008135905061409981615d28565b92915050565b6000602082840312156140b157600080fd5b60006140bf84828501613f6e565b91505092915050565b600080604083850312156140db57600080fd5b60006140e985828601613f83565b92505060206140fa85828601614075565b9150509250929050565b6000806040838503121561411757600080fd5b600061412585828601613f6e565b925050602061413685828601613f6e565b9150509250929050565b60008060006060848603121561415557600080fd5b600061416386828701613f6e565b935050602061417486828701613f6e565b925050604061418586828701614075565b9150509250925092565b600080600080608085870312156141a557600080fd5b60006141b387828801613f6e565b94505060206141c487828801613f6e565b93505060406141d587828801614075565b925050606085013567ffffffffffffffff8111156141f257600080fd5b6141fe8782880161404b565b91505092959194509250565b6000806040838503121561421d57600080fd5b600061422b85828601613f6e565b925050602061423c8582860161400c565b9150509250929050565b6000806040838503121561425957600080fd5b600061426785828601613f6e565b925050602061427885828601614075565b9150509250929050565b60006020828403121561429457600080fd5b600082013567ffffffffffffffff8111156142ae57600080fd5b6142ba84828501613f98565b91505092915050565b6000602082840312156142d557600080fd5b60006142e384828501614021565b91505092915050565b6000602082840312156142fe57600080fd5b600061430c84828501614036565b91505092915050565b60006020828403121561432757600080fd5b600061433584828501614075565b91505092915050565b60008060006040848603121561435357600080fd5b600061436186828701614075565b935050602084013567ffffffffffffffff81111561437e57600080fd5b61438a86828701613fc2565b92509250509250925092565b600080604083850312156143a957600080fd5b60006143b785828601614075565b92505060206143c885828601614075565b9150509250929050565b6000602082840312156143e457600080fd5b60006143f28482850161408a565b91505092915050565b600061440783836149fb565b60208301905092915050565b61441c8161523b565b82525050565b600061442d826150ba565b61443781856150e8565b9350614442836150aa565b8060005b8381101561447357815161445a88826143fb565b9750614465836150db565b925050600181019050614446565b5085935050505092915050565b6144898161525f565b82525050565b600061449a826150c5565b6144a481856150f9565b93506144b48185602086016152dd565b6144bd816154a9565b840191505092915050565b60006144d3826150d0565b6144dd818561510a565b93506144ed8185602086016152dd565b6144f6816154a9565b840191505092915050565b600061450c826150d0565b614516818561511b565b93506145268185602086016152dd565b80840191505092915050565b600061453f60328361510a565b915061454a826154ba565b604082019050919050565b600061456260268361510a565b915061456d82615509565b604082019050919050565b6000614585601c8361510a565b915061459082615558565b602082019050919050565b60006145a860248361510a565b91506145b382615581565b604082019050919050565b60006145cb60198361510a565b91506145d6826155d0565b602082019050919050565b60006145ee60128361510a565b91506145f9826155f9565b602082019050919050565b600061461160128361510a565b915061461c82615622565b602082019050919050565b6000614634602c8361510a565b915061463f8261564b565b604082019050919050565b600061465760128361510a565b91506146628261569a565b602082019050919050565b600061467a601b8361510a565b9150614685826156c3565b602082019050919050565b600061469d60388361510a565b91506146a8826156ec565b604082019050919050565b60006146c0601c8361510a565b91506146cb8261573b565b602082019050919050565b60006146e3602a8361510a565b91506146ee82615764565b604082019050919050565b600061470660298361510a565b9150614711826157b3565b604082019050919050565b600061472960208361510a565b915061473482615802565b602082019050919050565b600061474c60158361510a565b91506147578261582b565b602082019050919050565b600061476f602c8361510a565b915061477a82615854565b604082019050919050565b600061479260258361510a565b915061479d826158a3565b604082019050919050565b60006147b5602c8361510a565b91506147c0826158f2565b604082019050919050565b60006147d860208361510a565b91506147e382615941565b602082019050919050565b60006147fb60298361510a565b91506148068261596a565b604082019050919050565b600061481e602f8361510a565b9150614829826159b9565b604082019050919050565b6000614841601f8361510a565b915061484c82615a08565b602082019050919050565b6000614864601c8361510a565b915061486f82615a31565b602082019050919050565b600061488760218361510a565b915061489282615a5a565b604082019050919050565b60006148aa60138361510a565b91506148b582615aa9565b602082019050919050565b60006148cd60258361510a565b91506148d882615ad2565b604082019050919050565b60006148f060218361510a565b91506148fb82615b21565b604082019050919050565b600061491360138361510a565b915061491e82615b70565b602082019050919050565b600061493660198361510a565b915061494182615b99565b602082019050919050565b600061495960318361510a565b915061496482615bc2565b604082019050919050565b600061497c60158361510a565b915061498782615c11565b602082019050919050565b600061499f601f8361510a565b91506149aa82615c3a565b602082019050919050565b60006149c2601b8361510a565b91506149cd82615c63565b602082019050919050565b60006149e560138361510a565b91506149f082615c8c565b602082019050919050565b614a04816152b7565b82525050565b614a13816152b7565b82525050565b614a22816152c1565b82525050565b6000614a348285614501565b9150614a408284614501565b91508190509392505050565b6000602082019050614a616000830184614413565b92915050565b6000608082019050614a7c6000830187614413565b614a896020830186614413565b614a966040830185614a0a565b8181036060830152614aa8818461448f565b905095945050505050565b6000604082019050614ac86000830185614413565b614ad56020830184614a0a565b9392505050565b60006020820190508181036000830152614af68184614422565b905092915050565b6000602082019050614b136000830184614480565b92915050565b60006020820190508181036000830152614b3381846144c8565b905092915050565b60006020820190508181036000830152614b5481614532565b9050919050565b60006020820190508181036000830152614b7481614555565b9050919050565b60006020820190508181036000830152614b9481614578565b9050919050565b60006020820190508181036000830152614bb48161459b565b9050919050565b60006020820190508181036000830152614bd4816145be565b9050919050565b60006020820190508181036000830152614bf4816145e1565b9050919050565b60006020820190508181036000830152614c1481614604565b9050919050565b60006020820190508181036000830152614c3481614627565b9050919050565b60006020820190508181036000830152614c548161464a565b9050919050565b60006020820190508181036000830152614c748161466d565b9050919050565b60006020820190508181036000830152614c9481614690565b9050919050565b60006020820190508181036000830152614cb4816146b3565b9050919050565b60006020820190508181036000830152614cd4816146d6565b9050919050565b60006020820190508181036000830152614cf4816146f9565b9050919050565b60006020820190508181036000830152614d148161471c565b9050919050565b60006020820190508181036000830152614d348161473f565b9050919050565b60006020820190508181036000830152614d5481614762565b9050919050565b60006020820190508181036000830152614d7481614785565b9050919050565b60006020820190508181036000830152614d94816147a8565b9050919050565b60006020820190508181036000830152614db4816147cb565b9050919050565b60006020820190508181036000830152614dd4816147ee565b9050919050565b60006020820190508181036000830152614df481614811565b9050919050565b60006020820190508181036000830152614e1481614834565b9050919050565b60006020820190508181036000830152614e3481614857565b9050919050565b60006020820190508181036000830152614e548161487a565b9050919050565b60006020820190508181036000830152614e748161489d565b9050919050565b60006020820190508181036000830152614e94816148c0565b9050919050565b60006020820190508181036000830152614eb4816148e3565b9050919050565b60006020820190508181036000830152614ed481614906565b9050919050565b60006020820190508181036000830152614ef481614929565b9050919050565b60006020820190508181036000830152614f148161494c565b9050919050565b60006020820190508181036000830152614f348161496f565b9050919050565b60006020820190508181036000830152614f5481614992565b9050919050565b60006020820190508181036000830152614f74816149b5565b9050919050565b60006020820190508181036000830152614f94816149d8565b9050919050565b6000602082019050614fb06000830184614a0a565b92915050565b6000602082019050614fcb6000830184614a19565b92915050565b60008083356001602003843603038112614fea57600080fd5b80840192508235915067ffffffffffffffff82111561500857600080fd5b60208301925060018202360383131561502057600080fd5b509250929050565b6000615032615043565b905061503e8282615342565b919050565b6000604051905090565b600067ffffffffffffffff8211156150685761506761547a565b5b602082029050602081019050919050565b600067ffffffffffffffff8211156150945761509361547a565b5b61509d826154a9565b9050602081019050919050565b6000819050602082019050919050565b600081519050919050565b600081519050919050565b600081519050919050565b6000602082019050919050565b600082825260208201905092915050565b600082825260208201905092915050565b600082825260208201905092915050565b600081905092915050565b6000615131826152b7565b915061513c836152b7565b9250827fffffffffffffffffffffffffffffffffffffffffffffffffffffffffffffffff03821115615171576151706153ed565b5b828201905092915050565b6000615187826152b7565b9150615192836152b7565b9250826151a2576151a161541c565b5b828204905092915050565b60006151b8826152b7565b91506151c3836152b7565b9250817fffffffffffffffffffffffffffffffffffffffffffffffffffffffffffffffff04831182151516156151fc576151fb6153ed565b5b828202905092915050565b6000615212826152b7565b915061521d836152b7565b9250828210156152305761522f6153ed565b5b828203905092915050565b600061524682615297565b9050919050565b600061525882615297565b9050919050565b60008115159050919050565b60007fffffffff0000000000000000000000000000000000000000000000000000000082169050919050565b600073ffffffffffffffffffffffffffffffffffffffff82169050919050565b6000819050919050565b600060ff82169050919050565b82818337600083830152505050565b60005b838110156152fb5780820151818401526020810190506152e0565b8381111561530a576000848401525b50505050565b6000600282049050600182168061532857607f821691505b6020821081141561533c5761533b61544b565b5b50919050565b61534b826154a9565b810181811067ffffffffffffffff8211171561536a5761536961547a565b5b80604052505050565b600061537e826152b7565b91507fffffffffffffffffffffffffffffffffffffffffffffffffffffffffffffffff8214156153b1576153b06153ed565b5b600182019050919050565b60006153c7826152b7565b91506153d2836152b7565b9250826153e2576153e161541c565b5b828206905092915050565b7f4e487b7100000000000000000000000000000000000000000000000000000000600052601160045260246000fd5b7f4e487b7100000000000000000000000000000000000000000000000000000000600052601260045260246000fd5b7f4e487b7100000000000000000000000000000000000000000000000000000000600052602260045260246000fd5b7f4e487b7100000000000000000000000000000000000000000000000000000000600052604160045260246000fd5b6000601f19601f8301169050919050565b7f4552433732313a207472616e7366657220746f206e6f6e20455243373231526560008201527f63656976657220696d706c656d656e7465720000000000000000000000000000602082015250565b7f4f776e61626c653a206e6577206f776e657220697320746865207a65726f206160008201527f6464726573730000000000000000000000000000000000000000000000000000602082015250565b7f4552433732313a20746f6b656e20616c7265616479206d696e74656400000000600082015250565b7f4552433732313a207472616e7366657220746f20746865207a65726f2061646460008201527f7265737300000000000000000000000000000000000000000000000000000000602082015250565b7f4552433732313a20617070726f766520746f2063616c6c657200000000000000600082015250565b7f53616c65206973206e6f74206163746976650000000000000000000000000000600082015250565b7f53616c65206973206e6f74207061757365640000000000000000000000000000600082015250565b7f4552433732313a206f70657261746f7220717565727920666f72206e6f6e657860008201527f697374656e7420746f6b656e0000000000000000000000000000000000000000602082015250565b7f496e73756666696369656e742066756e64730000000000000000000000000000600082015250565b7f42616c616e6365206973206c657373207468616e202e35206574680000000000600082015250565b7f4552433732313a20617070726f76652063616c6c6572206973206e6f74206f7760008201527f6e6572206e6f7220617070726f76656420666f7220616c6c0000000000000000602082015250565b7f57686974656c6973742063616e6e6f7420657863656564203230303000000000600082015250565b7f4552433732313a2062616c616e636520717565727920666f7220746865207a6560008201527f726f206164647265737300000000000000000000000000000000000000000000602082015250565b7f4552433732313a206f776e657220717565727920666f72206e6f6e657869737460008201527f656e7420746f6b656e0000000000000000000000000000000000000000000000602082015250565b7f4552433732313a206d696e7420746f20746865207a65726f2061646472657373600082015250565b7f50726573616c65206973206e6f74207061757365640000000000000000000000600082015250565b7f4552433732313a20617070726f76656420717565727920666f72206e6f6e657860008201527f697374656e7420746f6b656e0000000000000000000000000000000000000000602082015250565b7f546865726520617265206e6f2073616c65732061742074686973207465726d6960008201527f6e61746564000000000000000000000000000000000000000000000000000000602082015250565b7f4552433732314d657461646174613a2055524920736574206f66206e6f6e657860008201527f697374656e7420746f6b656e0000000000000000000000000000000000000000602082015250565b7f4f776e61626c653a2063616c6c6572206973206e6f7420746865206f776e6572600082015250565b7f4552433732313a207472616e73666572206f6620746f6b656e2074686174206960008201527f73206e6f74206f776e0000000000000000000000000000000000000000000000602082015250565b7f4552433732314d657461646174613a2055524920717565727920666f72206e6f60008201527f6e6578697374656e7420746f6b656e0000000000000000000000000000000000602082015250565b7f43616e6e6f74206d696e74206d6f7265207468616e20323520746f6b656e7300600082015250565b7f4d757374206d696e74206174206c65617374206f6e6520746f6b656e00000000600082015250565b7f4552433732313a20617070726f76616c20746f2063757272656e74206f776e6560008201527f7200000000000000000000000000000000000000000000000000000000000000602082015250565b7f526f79616c74696573206469737361626c656400000000000000000000000000600082015250565b7f4e6f6e6578697374656e7420746f6b656e20666f7220726f79616c747920706160008201527f796d656e74000000000000000000000000000000000000000000000000000000602082015250565b7f50726573616c652c206c696d6974656420616d6f756e74206f6620746f6b656e60008201527f7300000000000000000000000000000000000000000000000000000000000000602082015250565b7f4769766561776179206e6f742061637469766500000000000000000000000000600082015250565b7f416464726573732069736e27742077686974656c697374656400000000000000600082015250565b7f4552433732313a207472616e736665722063616c6c6572206973206e6f74206f60008201527f776e6572206e6f7220617070726f766564000000000000000000000000000000602082015250565b7f50726573616c65206973206e6f74206163746976650000000000000000000000600082015250565b7f5265656e7472616e637947756172643a207265656e7472616e742063616c6c00600082015250565b7f50726573616c652c20696e73756666696369656e742066756e64730000000000600082015250565b7f4769766561776179206e6f742070617573656400000000000000000000000000600082015250565b615cbe8161523b565b8114615cc957600080fd5b50565b615cd58161524d565b8114615ce057600080fd5b50565b615cec8161525f565b8114615cf757600080fd5b50565b615d038161526b565b8114615d0e57600080fd5b50565b615d1a816152b7565b8114615d2557600080fd5b50565b615d31816152c1565b8114615d3c57600080fd5b5056fea26469706673582212205287fd44890983e04b235f7259e08835bef55bdce9326d40221d5dc73d23ca5a64736f6c63430008040033",
  "linkReferences": {},
  "deployedLinkReferences": {}
}