{
  "_format": "hh-sol-artifact-1",
  "contractName": "Turtleverse",
  "sourceName": "contracts/Turtleverse.sol",
  "abi": [
    {
      "inputs": [
        {
          "internalType": "string",
          "name": "name_",
          "type": "string"
        },
        {
          "internalType": "string",
          "name": "symbol_",
          "type": "string"
        },
        {
          "internalType": "string",
          "name": "baseURI_",
          "type": "string"
        },
        {
          "internalType": "uint256",
          "name": "maxSupply_",
          "type": "uint256"
        },
        {
          "internalType": "uint256",
          "name": "maxWithdrawal_",
          "type": "uint256"
        },
        {
          "internalType": "uint8",
          "name": "presaleLimit_",
          "type": "uint8"
        },
        {
          "internalType": "uint8",
          "name": "saleLimit_",
          "type": "uint8"
        },
        {
          "internalType": "address payable",
          "name": "payout_",
          "type": "address"
        }
      ],
      "stateMutability": "nonpayable",
      "type": "constructor"
    },
    {
      "anonymous": false,
      "inputs": [
        {
          "indexed": true,
          "internalType": "address",
          "name": "_address",
          "type": "address"
        }
      ],
      "name": "AddedToWhitelist",
      "type": "event"
    },
    {
      "anonymous": false,
      "inputs": [
        {
          "indexed": true,
          "internalType": "address",
          "name": "owner",
          "type": "address"
        },
        {
          "indexed": true,
          "internalType": "address",
          "name": "approved",
          "type": "address"
        },
        {
          "indexed": true,
          "internalType": "uint256",
          "name": "tokenId",
          "type": "uint256"
        }
      ],
      "name": "Approval",
      "type": "event"
    },
    {
      "anonymous": false,
      "inputs": [
        {
          "indexed": true,
          "internalType": "address",
          "name": "owner",
          "type": "address"
        },
        {
          "indexed": true,
          "internalType": "address",
          "name": "operator",
          "type": "address"
        },
        {
          "indexed": false,
          "internalType": "bool",
          "name": "approved",
          "type": "bool"
        }
      ],
      "name": "ApprovalForAll",
      "type": "event"
    },
    {
      "anonymous": false,
      "inputs": [
        {
          "indexed": true,
          "internalType": "uint256",
          "name": "_giveawayStopTime",
          "type": "uint256"
        }
      ],
      "name": "GiveawayPaused",
      "type": "event"
    },
    {
      "anonymous": false,
      "inputs": [
        {
          "indexed": true,
          "internalType": "uint256",
          "name": "_giveawayStartTime",
          "type": "uint256"
        }
      ],
      "name": "GiveawayStart",
      "type": "event"
    },
    {
      "anonymous": false,
      "inputs": [
        {
          "indexed": true,
          "internalType": "address",
          "name": "previousOwner",
          "type": "address"
        },
        {
          "indexed": true,
          "internalType": "address",
          "name": "newOwner",
          "type": "address"
        }
      ],
      "name": "OwnershipTransferred",
      "type": "event"
    },
    {
      "anonymous": false,
      "inputs": [
        {
          "indexed": true,
          "internalType": "uint256",
          "name": "_presaleStopTime",
          "type": "uint256"
        }
      ],
      "name": "PresalePaused",
      "type": "event"
    },
    {
      "anonymous": false,
      "inputs": [
        {
          "indexed": true,
          "internalType": "uint256",
          "name": "_presaleStartTime",
          "type": "uint256"
        }
      ],
      "name": "PresaleStart",
      "type": "event"
    },
    {
      "anonymous": false,
      "inputs": [
        {
          "indexed": true,
          "internalType": "address",
          "name": "_address",
          "type": "address"
        }
      ],
      "name": "RemovedFromWhitelist",
      "type": "event"
    },
    {
      "anonymous": false,
      "inputs": [
        {
          "indexed": true,
          "internalType": "uint256",
          "name": "_saleStopTime",
          "type": "uint256"
        }
      ],
      "name": "SalePaused",
      "type": "event"
    },
    {
      "anonymous": false,
      "inputs": [
        {
          "indexed": true,
          "internalType": "uint256",
          "name": "_saleStartTime",
          "type": "uint256"
        }
      ],
      "name": "SaleStart",
      "type": "event"
    },
    {
      "anonymous": false,
      "inputs": [
        {
          "indexed": true,
          "internalType": "address",
          "name": "from",
          "type": "address"
        },
        {
          "indexed": true,
          "internalType": "address",
          "name": "to",
          "type": "address"
        },
        {
          "indexed": true,
          "internalType": "uint256",
          "name": "tokenId",
          "type": "uint256"
        }
      ],
      "name": "Transfer",
      "type": "event"
    },
    {
      "inputs": [
        {
          "internalType": "address[]",
          "name": "addresses",
          "type": "address[]"
        }
      ],
      "name": "addToWhitelist",
      "outputs": [],
      "stateMutability": "nonpayable",
      "type": "function"
    },
    {
      "inputs": [
        {
          "internalType": "address",
          "name": "to",
          "type": "address"
        },
        {
          "internalType": "uint256",
          "name": "tokenId",
          "type": "uint256"
        }
      ],
      "name": "approve",
      "outputs": [],
      "stateMutability": "nonpayable",
      "type": "function"
    },
    {
      "inputs": [
        {
          "internalType": "address",
          "name": "owner",
          "type": "address"
        }
      ],
      "name": "balanceOf",
      "outputs": [
        {
          "internalType": "uint256",
          "name": "",
          "type": "uint256"
        }
      ],
      "stateMutability": "view",
      "type": "function"
    },
    {
      "inputs": [
        {
          "internalType": "uint256",
          "name": "tokenId",
          "type": "uint256"
        }
      ],
      "name": "getApproved",
      "outputs": [
        {
          "internalType": "address",
          "name": "",
          "type": "address"
        }
      ],
      "stateMutability": "view",
      "type": "function"
    },
    {
      "inputs": [],
      "name": "getCurrentToken",
      "outputs": [
        {
          "internalType": "uint256",
          "name": "",
          "type": "uint256"
        }
      ],
      "stateMutability": "view",
      "type": "function"
    },
    {
      "inputs": [],
      "name": "getMaxSupply",
      "outputs": [
        {
          "internalType": "uint256",
          "name": "",
          "type": "uint256"
        }
      ],
      "stateMutability": "view",
      "type": "function"
    },
    {
      "inputs": [],
      "name": "giveawayActive",
      "outputs": [
        {
          "internalType": "bool",
          "name": "",
          "type": "bool"
        }
      ],
      "stateMutability": "view",
      "type": "function"
    },
    {
      "inputs": [],
      "name": "giveawayPriceToMint",
      "outputs": [
        {
          "internalType": "uint256",
          "name": "",
          "type": "uint256"
        }
      ],
      "stateMutability": "view",
      "type": "function"
    },
    {
      "inputs": [
        {
          "internalType": "address",
          "name": "owner",
          "type": "address"
        },
        {
          "internalType": "address",
          "name": "operator",
          "type": "address"
        }
      ],
      "name": "isApprovedForAll",
      "outputs": [
        {
          "internalType": "bool",
          "name": "",
          "type": "bool"
        }
      ],
      "stateMutability": "view",
      "type": "function"
    },
    {
      "inputs": [
        {
          "internalType": "uint256",
          "name": "tokensAmount",
          "type": "uint256"
        },
        {
          "internalType": "string[]",
          "name": "tokenHashes",
          "type": "string[]"
        }
      ],
      "name": "mintTokens",
      "outputs": [
        {
          "internalType": "uint256[]",
          "name": "",
          "type": "uint256[]"
        }
      ],
      "stateMutability": "payable",
      "type": "function"
    },
    {
      "inputs": [],
      "name": "name",
      "outputs": [
        {
          "internalType": "string",
          "name": "",
          "type": "string"
        }
      ],
      "stateMutability": "view",
      "type": "function"
    },
    {
      "inputs": [],
      "name": "owner",
      "outputs": [
        {
          "internalType": "address",
          "name": "",
          "type": "address"
        }
      ],
      "stateMutability": "view",
      "type": "function"
    },
    {
      "inputs": [
        {
          "internalType": "uint256",
          "name": "tokenId",
          "type": "uint256"
        }
      ],
      "name": "ownerOf",
      "outputs": [
        {
          "internalType": "address",
          "name": "",
          "type": "address"
        }
      ],
      "stateMutability": "view",
      "type": "function"
    },
    {
      "inputs": [],
      "name": "pauseGiveaway",
      "outputs": [],
      "stateMutability": "nonpayable",
      "type": "function"
    },
    {
      "inputs": [],
      "name": "pausePresale",
      "outputs": [],
      "stateMutability": "nonpayable",
      "type": "function"
    },
    {
      "inputs": [],
      "name": "pausePublicSale",
      "outputs": [],
      "stateMutability": "nonpayable",
      "type": "function"
    },
    {
      "inputs": [],
      "name": "presaleActive",
      "outputs": [
        {
          "internalType": "bool",
          "name": "",
          "type": "bool"
        }
      ],
      "stateMutability": "view",
      "type": "function"
    },
    {
      "inputs": [],
      "name": "presalePriceToMint",
      "outputs": [
        {
          "internalType": "uint256",
          "name": "",
          "type": "uint256"
        }
      ],
      "stateMutability": "view",
      "type": "function"
    },
    {
      "inputs": [
        {
          "internalType": "address",
          "name": "",
          "type": "address"
        }
      ],
      "name": "presalePurchasedAmount",
      "outputs": [
        {
          "internalType": "uint256",
          "name": "",
          "type": "uint256"
        }
      ],
      "stateMutability": "view",
      "type": "function"
    },
    {
      "inputs": [],
      "name": "price",
      "outputs": [
        {
          "internalType": "uint256",
          "name": "",
          "type": "uint256"
        }
      ],
      "stateMutability": "view",
      "type": "function"
    },
    {
      "inputs": [],
      "name": "priceToMint",
      "outputs": [
        {
          "internalType": "uint256",
          "name": "",
          "type": "uint256"
        }
      ],
      "stateMutability": "view",
      "type": "function"
    },
    {
      "inputs": [
        {
          "internalType": "address[]",
          "name": "addresses",
          "type": "address[]"
        }
      ],
      "name": "removeFromWhitelist",
      "outputs": [],
      "stateMutability": "nonpayable",
      "type": "function"
    },
    {
      "inputs": [],
      "name": "renounceOwnership",
      "outputs": [],
      "stateMutability": "nonpayable",
      "type": "function"
    },
    {
      "inputs": [
        {
          "internalType": "uint256",
          "name": "_tokenId",
          "type": "uint256"
        },
        {
          "internalType": "uint256",
          "name": "_salePrice",
          "type": "uint256"
        }
      ],
      "name": "royaltyInfo",
      "outputs": [
        {
          "internalType": "address",
          "name": "receiver",
          "type": "address"
        },
        {
          "internalType": "uint256",
          "name": "royaltyAmount",
          "type": "uint256"
        }
      ],
      "stateMutability": "view",
      "type": "function"
    },
    {
      "inputs": [
        {
          "internalType": "address",
          "name": "from",
          "type": "address"
        },
        {
          "internalType": "address",
          "name": "to",
          "type": "address"
        },
        {
          "internalType": "uint256",
          "name": "tokenId",
          "type": "uint256"
        }
      ],
      "name": "safeTransferFrom",
      "outputs": [],
      "stateMutability": "nonpayable",
      "type": "function"
    },
    {
      "inputs": [
        {
          "internalType": "address",
          "name": "from",
          "type": "address"
        },
        {
          "internalType": "address",
          "name": "to",
          "type": "address"
        },
        {
          "internalType": "uint256",
          "name": "tokenId",
          "type": "uint256"
        },
        {
          "internalType": "bytes",
          "name": "_data",
          "type": "bytes"
        }
      ],
      "name": "safeTransferFrom",
      "outputs": [],
      "stateMutability": "nonpayable",
      "type": "function"
    },
    {
      "inputs": [],
      "name": "saleActive",
      "outputs": [
        {
          "internalType": "bool",
          "name": "",
          "type": "bool"
        }
      ],
      "stateMutability": "view",
      "type": "function"
    },
    {
      "inputs": [
        {
          "internalType": "address",
          "name": "",
          "type": "address"
        }
      ],
      "name": "salePurchasedAmount",
      "outputs": [
        {
          "internalType": "uint256",
          "name": "",
          "type": "uint256"
        }
      ],
      "stateMutability": "view",
      "type": "function"
    },
    {
      "inputs": [
        {
          "internalType": "address",
          "name": "operator",
          "type": "address"
        },
        {
          "internalType": "bool",
          "name": "approved",
          "type": "bool"
        }
      ],
      "name": "setApprovalForAll",
      "outputs": [],
      "stateMutability": "nonpayable",
      "type": "function"
    },
    {
      "inputs": [],
      "name": "startGiveaway",
      "outputs": [],
      "stateMutability": "nonpayable",
      "type": "function"
    },
    {
      "inputs": [],
      "name": "startPresale",
      "outputs": [],
      "stateMutability": "nonpayable",
      "type": "function"
    },
    {
      "inputs": [],
      "name": "startPublicSale",
      "outputs": [],
      "stateMutability": "nonpayable",
      "type": "function"
    },
    {
      "inputs": [
        {
          "internalType": "bytes4",
          "name": "interfaceId",
          "type": "bytes4"
        }
      ],
      "name": "supportsInterface",
      "outputs": [
        {
          "internalType": "bool",
          "name": "",
          "type": "bool"
        }
      ],
      "stateMutability": "view",
      "type": "function"
    },
    {
      "inputs": [],
      "name": "symbol",
      "outputs": [
        {
          "internalType": "string",
          "name": "",
          "type": "string"
        }
      ],
      "stateMutability": "view",
      "type": "function"
    },
    {
      "inputs": [
        {
          "internalType": "uint256",
          "name": "tokenId",
          "type": "uint256"
        }
      ],
      "name": "tokenURI",
      "outputs": [
        {
          "internalType": "string",
          "name": "",
          "type": "string"
        }
      ],
      "stateMutability": "view",
      "type": "function"
    },
    {
      "inputs": [
        {
          "internalType": "address",
          "name": "from",
          "type": "address"
        },
        {
          "internalType": "address",
          "name": "to",
          "type": "address"
        },
        {
          "internalType": "uint256",
          "name": "tokenId",
          "type": "uint256"
        }
      ],
      "name": "transferFrom",
      "outputs": [],
      "stateMutability": "nonpayable",
      "type": "function"
    },
    {
      "inputs": [
        {
          "internalType": "address",
          "name": "newOwner",
          "type": "address"
        }
      ],
      "name": "transferOwnership",
      "outputs": [],
      "stateMutability": "nonpayable",
      "type": "function"
    },
    {
      "inputs": [],
      "name": "withdraw",
      "outputs": [],
      "stateMutability": "nonpayable",
      "type": "function"
    }
  ],
  "bytecode": "0x608060405260006014556658d15e1762800060155566b1a2bc2ec500006016553480156200002c57600080fd5b506040516200615538038062006155833981810160405281019062000052919062000391565b878781600090805190602001906200006c9291906200022a565b508060019080519060200190620000859291906200022a565b505050620000a86200009c6200015c60201b60201c565b6200016460201b60201c565b60016007819055508560089080519060200190620000c89291906200022a565b508460098190555083600a8190555082600b60006101000a81548160ff021916908360ff16021790555081600d60006101000a81548160ff021916908360ff16021790555080600f60006101000a81548173ffffffffffffffffffffffffffffffffffffffff021916908373ffffffffffffffffffffffffffffffffffffffff1602179055505050505050505050620006a8565b600033905090565b6000600660009054906101000a900473ffffffffffffffffffffffffffffffffffffffff16905081600660006101000a81548173ffffffffffffffffffffffffffffffffffffffff021916908373ffffffffffffffffffffffffffffffffffffffff1602179055508173ffffffffffffffffffffffffffffffffffffffff168173ffffffffffffffffffffffffffffffffffffffff167f8be0079c531659141344cd1fd0a4f28419497f9722a3daafe3b4186f6b6457e060405160405180910390a35050565b82805462000238906200057f565b90600052602060002090601f0160209004810192826200025c5760008555620002a8565b82601f106200027757805160ff1916838001178555620002a8565b82800160010185558215620002a8579182015b82811115620002a75782518255916020019190600101906200028a565b5b509050620002b79190620002bb565b5090565b5b80821115620002d6576000816000905550600101620002bc565b5090565b6000620002f1620002eb84620004c8565b6200049f565b9050828152602081018484840111156200030a57600080fd5b6200031784828562000549565b509392505050565b60008151905062000330816200065a565b92915050565b600082601f8301126200034857600080fd5b81516200035a848260208601620002da565b91505092915050565b600081519050620003748162000674565b92915050565b6000815190506200038b816200068e565b92915050565b600080600080600080600080610100898b031215620003af57600080fd5b600089015167ffffffffffffffff811115620003ca57600080fd5b620003d88b828c0162000336565b985050602089015167ffffffffffffffff811115620003f657600080fd5b620004048b828c0162000336565b975050604089015167ffffffffffffffff8111156200042257600080fd5b620004308b828c0162000336565b9650506060620004438b828c0162000363565b9550506080620004568b828c0162000363565b94505060a0620004698b828c016200037a565b93505060c06200047c8b828c016200037a565b92505060e06200048f8b828c016200031f565b9150509295985092959890939650565b6000620004ab620004be565b9050620004b98282620005b5565b919050565b6000604051905090565b600067ffffffffffffffff821115620004e657620004e56200061a565b5b620004f18262000649565b9050602081019050919050565b60006200050b8262000512565b9050919050565b600073ffffffffffffffffffffffffffffffffffffffff82169050919050565b6000819050919050565b600060ff82169050919050565b60005b83811015620005695780820151818401526020810190506200054c565b8381111562000579576000848401525b50505050565b600060028204905060018216806200059857607f821691505b60208210811415620005af57620005ae620005eb565b5b50919050565b620005c08262000649565b810181811067ffffffffffffffff82111715620005e257620005e16200061a565b5b80604052505050565b7f4e487b7100000000000000000000000000000000000000000000000000000000600052602260045260246000fd5b7f4e487b7100000000000000000000000000000000000000000000000000000000600052604160045260246000fd5b6000601f19601f8301169050919050565b6200066581620004fe565b81146200067157600080fd5b50565b6200067f8162000532565b81146200068b57600080fd5b50565b62000699816200053c565b8114620006a557600080fd5b50565b615a9d80620006b86000396000f3fe6080604052600436106102255760003560e01c8063548db17411610123578063a035b1fe116100ab578063dc9403a61161006f578063dc9403a61461078b578063df9ffc2d146107b6578063e985e9c5146107f3578063ef2d174614610830578063f2fde38b1461085b57610225565b8063a035b1fe146106a1578063a22cb465146106cc578063b88d4fde146106f5578063c0f98e331461071e578063c87b56dd1461074e57610225565b8063715018a6116100f2578063715018a6146105f45780637c0f8aa01461060b5780637f649783146106225780638da5cb5b1461064b57806395d89b411461067657610225565b8063548db174146105265780636352211e1461054f57806368428a1b1461058c57806370a08231146105b757610225565b806323b872dd116101b157806342842e0e1161017557806342842e0e146104515780634616d4b21461047a5780634c0f38c2146104a55780634dc1dbec146104d057806353135ca0146104fb57610225565b806323b872dd1461036b5780632a55205a146103945780632b3f4d92146103d257806337573876146103fd5780633ccfd60b1461043a57610225565b8063070f5c09116101f8578063070f5c09146102c0578063081812fc146102d7578063095ea7b3146103145780630c1c972a1461033d5780630c41f4971461035457610225565b806301ffc9a71461022a57806304c98b2b1461026757806305e4e88a1461027e57806306fdde0314610295575b600080fd5b34801561023657600080fd5b50610251600480360381019061024c9190613ff3565b610884565b60405161025e91906147f6565b60405180910390f35b34801561027357600080fd5b5061027c610966565b005b34801561028a57600080fd5b50610293610b1c565b005b3480156102a157600080fd5b506102aa610cd2565b6040516102b79190614811565b60405180910390f35b3480156102cc57600080fd5b506102d5610d64565b005b3480156102e357600080fd5b506102fe60048036038101906102f99190614045565b610f19565b60405161030b9190614744565b60405180910390f35b34801561032057600080fd5b5061033b60048036038101906103369190613f76565b610f9e565b005b34801561034957600080fd5b506103526110b6565b005b34801561036057600080fd5b5061036961126c565b005b34801561037757600080fd5b50610392600480360381019061038d9190613e70565b611421565b005b3480156103a057600080fd5b506103bb60048036038101906103b691906140c6565b611481565b6040516103c99291906147ab565b60405180910390f35b3480156103de57600080fd5b506103e76114f3565b6040516103f49190614c93565b60405180910390f35b34801561040957600080fd5b50610424600480360381019061041f9190613e0b565b6114f9565b6040516104319190614c93565b60405180910390f35b34801561044657600080fd5b5061044f611511565b005b34801561045d57600080fd5b5061047860048036038101906104739190613e70565b61163f565b005b34801561048657600080fd5b5061048f61165f565b60405161049c91906147f6565b60405180910390f35b3480156104b157600080fd5b506104ba611672565b6040516104c79190614c93565b60405180910390f35b3480156104dc57600080fd5b506104e56116f8565b6040516104f29190614c93565b60405180910390f35b34801561050757600080fd5b506105106116fe565b60405161051d91906147f6565b60405180910390f35b34801561053257600080fd5b5061054d60048036038101906105489190613fb2565b611711565b005b34801561055b57600080fd5b5061057660048036038101906105719190614045565b6118d4565b6040516105839190614744565b60405180910390f35b34801561059857600080fd5b506105a1611986565b6040516105ae91906147f6565b60405180910390f35b3480156105c357600080fd5b506105de60048036038101906105d99190613e0b565b611999565b6040516105eb9190614c93565b60405180910390f35b34801561060057600080fd5b50610609611a51565b005b34801561061757600080fd5b50610620611ad9565b005b34801561062e57600080fd5b5061064960048036038101906106449190613fb2565b611c8e565b005b34801561065757600080fd5b50610660611e51565b60405161066d9190614744565b60405180910390f35b34801561068257600080fd5b5061068b611e7b565b6040516106989190614811565b60405180910390f35b3480156106ad57600080fd5b506106b6611f0d565b6040516106c39190614c93565b60405180910390f35b3480156106d857600080fd5b506106f360048036038101906106ee9190613f3a565b611fd3565b005b34801561070157600080fd5b5061071c60048036038101906107179190613ebf565b611fe9565b005b6107386004803603810190610733919061406e565b61204b565b60405161074591906147d4565b60405180910390f35b34801561075a57600080fd5b5061077560048036038101906107709190614045565b612380565b6040516107829190614811565b60405180910390f35b34801561079757600080fd5b506107a0612576565b6040516107ad9190614c93565b60405180910390f35b3480156107c257600080fd5b506107dd60048036038101906107d89190613e0b565b61257c565b6040516107ea9190614c93565b60405180910390f35b3480156107ff57600080fd5b5061081a60048036038101906108159190613e34565b612594565b60405161082791906147f6565b60405180910390f35b34801561083c57600080fd5b50610845612628565b6040516108529190614c93565b60405180910390f35b34801561086757600080fd5b50610882600480360381019061087d9190613e0b565b6126b5565b005b60007f80ac58cd000000000000000000000000000000000000000000000000000000007bffffffffffffffffffffffffffffffffffffffffffffffffffffffff1916827bffffffffffffffffffffffffffffffffffffffffffffffffffffffff1916148061094f57507f5b5e139f000000000000000000000000000000000000000000000000000000007bffffffffffffffffffffffffffffffffffffffffffffffffffffffff1916827bffffffffffffffffffffffffffffffffffffffffffffffffffffffff1916145b8061095f575061095e826127ad565b5b9050919050565b61096e612817565b73ffffffffffffffffffffffffffffffffffffffff1661098c611e51565b73ffffffffffffffffffffffffffffffffffffffff16146109e2576040517f08c379a00000000000000000000000000000000000000000000000000000000081526004016109d990614a73565b60405180910390fd5b601760009054906101000a900460ff1615610a32576040517f08c379a0000000000000000000000000000000000000000000000000000000008152600401610a2990614c53565b60405180910390fd5b601760019054906101000a900460ff1615610a82576040517f08c379a0000000000000000000000000000000000000000000000000000000008152600401610a79906149f3565b60405180910390fd5b601760029054906101000a900460ff1615610ad2576040517f08c379a0000000000000000000000000000000000000000000000000000000008152600401610ac990614913565b60405180910390fd5b6001601760016101000a81548160ff021916908315150217905550427f0ab3861e918916d082a16babf84acd725febc223f0833c5c03d8b14ec900174360405160405180910390a2565b610b24612817565b73ffffffffffffffffffffffffffffffffffffffff16610b42611e51565b73ffffffffffffffffffffffffffffffffffffffff1614610b98576040517f08c379a0000000000000000000000000000000000000000000000000000000008152600401610b8f90614a73565b60405180910390fd5b601760009054906101000a900460ff1615610be8576040517f08c379a0000000000000000000000000000000000000000000000000000000008152600401610bdf90614c53565b60405180910390fd5b601760019054906101000a900460ff1615610c38576040517f08c379a0000000000000000000000000000000000000000000000000000000008152600401610c2f906149f3565b60405180910390fd5b601760029054906101000a900460ff1615610c88576040517f08c379a0000000000000000000000000000000000000000000000000000000008152600401610c7f90614913565b60405180910390fd5b6001601760006101000a81548160ff021916908315150217905550427fea160f4a1725183ff307b55e355bb04139d56298efc5853e17f99ade82e2f38960405160405180910390a2565b606060008054610ce190614fce565b80601f0160208091040260200160405190810160405280929190818152602001828054610d0d90614fce565b8015610d5a5780601f10610d2f57610100808354040283529160200191610d5a565b820191906000526020600020905b815481529060010190602001808311610d3d57829003601f168201915b5050505050905090565b610d6c612817565b73ffffffffffffffffffffffffffffffffffffffff16610d8a611e51565b73ffffffffffffffffffffffffffffffffffffffff1614610de0576040517f08c379a0000000000000000000000000000000000000000000000000000000008152600401610dd790614a73565b60405180910390fd5b601760009054906101000a900460ff1615610e30576040517f08c379a0000000000000000000000000000000000000000000000000000000008152600401610e2790614c53565b60405180910390fd5b601760029054906101000a900460ff1615610e80576040517f08c379a0000000000000000000000000000000000000000000000000000000008152600401610e7790614913565b60405180910390fd5b601760019054906101000a900460ff16610ecf576040517f08c379a0000000000000000000000000000000000000000000000000000000008152600401610ec690614bd3565b60405180910390fd5b6000601760016101000a81548160ff021916908315150217905550427fbbda50ff3083b4adfffcd3c2e8042a8b354ca16013534ab9367661c5a4cb7b2360405160405180910390a2565b6000610f248261281f565b610f63576040517f08c379a0000000000000000000000000000000000000000000000000000000008152600401610f5a90614a13565b60405180910390fd5b6004600083815260200190815260200160002060009054906101000a900473ffffffffffffffffffffffffffffffffffffffff169050919050565b6000610fa9826118d4565b90508073ffffffffffffffffffffffffffffffffffffffff168373ffffffffffffffffffffffffffffffffffffffff16141561101a576040517f08c379a000000000000000000000000000000000000000000000000000000000815260040161101190614b13565b60405180910390fd5b8073ffffffffffffffffffffffffffffffffffffffff16611039612817565b73ffffffffffffffffffffffffffffffffffffffff161480611068575061106781611062612817565b612594565b5b6110a7576040517f08c379a000000000000000000000000000000000000000000000000000000000815260040161109e90614953565b60405180910390fd5b6110b1838361288b565b505050565b6110be612817565b73ffffffffffffffffffffffffffffffffffffffff166110dc611e51565b73ffffffffffffffffffffffffffffffffffffffff1614611132576040517f08c379a000000000000000000000000000000000000000000000000000000000815260040161112990614a73565b60405180910390fd5b601760009054906101000a900460ff1615611182576040517f08c379a000000000000000000000000000000000000000000000000000000000815260040161117990614c53565b60405180910390fd5b601760019054906101000a900460ff16156111d2576040517f08c379a00000000000000000000000000000000000000000000000000000000081526004016111c9906149f3565b60405180910390fd5b601760029054906101000a900460ff1615611222576040517f08c379a000000000000000000000000000000000000000000000000000000000815260040161121990614913565b60405180910390fd5b6001601760026101000a81548160ff021916908315150217905550427feeae71454a2a58ac8d7c3a2ac3db1f29f81cbd0024aae4292a55139dd9d3560a60405160405180910390a2565b611274612817565b73ffffffffffffffffffffffffffffffffffffffff16611292611e51565b73ffffffffffffffffffffffffffffffffffffffff16146112e8576040517f08c379a00000000000000000000000000000000000000000000000000000000081526004016112df90614a73565b60405180910390fd5b601760009054906101000a900460ff1615611338576040517f08c379a000000000000000000000000000000000000000000000000000000000815260040161132f90614c53565b60405180910390fd5b601760019054906101000a900460ff1615611388576040517f08c379a000000000000000000000000000000000000000000000000000000000815260040161137f906149f3565b60405180910390fd5b601760029054906101000a900460ff166113d7576040517f08c379a00000000000000000000000000000000000000000000000000000000081526004016113ce906148f3565b60405180910390fd5b6000601760026101000a81548160ff021916908315150217905550427f4616a0782e5635981b28be1cd36934a60655b462c370d8bd8092c969abc990d060405160405180910390a2565b61143261142c612817565b82612944565b611471576040517f08c379a000000000000000000000000000000000000000000000000000000000815260040161146890614bb3565b60405180910390fd5b61147c838383612a22565b505050565b60008061148d8461281f565b6114cc576040517f08c379a00000000000000000000000000000000000000000000000000000000081526004016114c390614b53565b60405180910390fd5b306127106103e8856114de9190614e8a565b6114e89190614e59565b915091509250929050565b60145481565b600e6020528060005260406000206000915090505481565b611519612817565b73ffffffffffffffffffffffffffffffffffffffff16611537611e51565b73ffffffffffffffffffffffffffffffffffffffff161461158d576040517f08c379a000000000000000000000000000000000000000000000000000000000815260040161158490614a73565b60405180910390fd5b47600a5411156115d2576040517f08c379a00000000000000000000000000000000000000000000000000000000081526004016115c990614b33565b60405180910390fd5b600f60009054906101000a900473ffffffffffffffffffffffffffffffffffffffff1673ffffffffffffffffffffffffffffffffffffffff166108fc600a549081150290604051600060405180830381858888f1935050505015801561163c573d6000803e3d6000fd5b50565b61165a83838360405180602001604052806000815250611fe9565b505050565b601760009054906101000a900460ff1681565b600061167c612817565b73ffffffffffffffffffffffffffffffffffffffff1661169a611e51565b73ffffffffffffffffffffffffffffffffffffffff16146116f0576040517f08c379a00000000000000000000000000000000000000000000000000000000081526004016116e790614a73565b60405180910390fd5b600954905090565b60165481565b601760019054906101000a900460ff1681565b611719612817565b73ffffffffffffffffffffffffffffffffffffffff16611737611e51565b73ffffffffffffffffffffffffffffffffffffffff161461178d576040517f08c379a000000000000000000000000000000000000000000000000000000000815260040161178490614a73565b60405180910390fd5b6107d0815111156117d3576040517f08c379a00000000000000000000000000000000000000000000000000000000081526004016117ca90614973565b60405180910390fd5b60005b81518110156118d05761183382828151811061181b577f4e487b7100000000000000000000000000000000000000000000000000000000600052603260045260246000fd5b60200260200101516012612c7e90919063ffffffff16565b156118bc57818181518110611871577f4e487b7100000000000000000000000000000000000000000000000000000000600052603260045260246000fd5b602002602001015173ffffffffffffffffffffffffffffffffffffffff167fcdd2e9b91a56913d370075169cefa1602ba36be5301664f752192bb1709df75760405160405180910390a25b6001816118c99190614e03565b90506117d6565b5050565b6000806002600084815260200190815260200160002060009054906101000a900473ffffffffffffffffffffffffffffffffffffffff169050600073ffffffffffffffffffffffffffffffffffffffff168173ffffffffffffffffffffffffffffffffffffffff16141561197d576040517f08c379a0000000000000000000000000000000000000000000000000000000008152600401611974906149b3565b60405180910390fd5b80915050919050565b601760029054906101000a900460ff1681565b60008073ffffffffffffffffffffffffffffffffffffffff168273ffffffffffffffffffffffffffffffffffffffff161415611a0a576040517f08c379a0000000000000000000000000000000000000000000000000000000008152600401611a0190614993565b60405180910390fd5b600360008373ffffffffffffffffffffffffffffffffffffffff1673ffffffffffffffffffffffffffffffffffffffff168152602001908152602001600020549050919050565b611a59612817565b73ffffffffffffffffffffffffffffffffffffffff16611a77611e51565b73ffffffffffffffffffffffffffffffffffffffff1614611acd576040517f08c379a0000000000000000000000000000000000000000000000000000000008152600401611ac490614a73565b60405180910390fd5b611ad76000612cae565b565b611ae1612817565b73ffffffffffffffffffffffffffffffffffffffff16611aff611e51565b73ffffffffffffffffffffffffffffffffffffffff1614611b55576040517f08c379a0000000000000000000000000000000000000000000000000000000008152600401611b4c90614a73565b60405180910390fd5b601760019054906101000a900460ff1615611ba5576040517f08c379a0000000000000000000000000000000000000000000000000000000008152600401611b9c906149f3565b60405180910390fd5b601760029054906101000a900460ff1615611bf5576040517f08c379a0000000000000000000000000000000000000000000000000000000008152600401611bec90614913565b60405180910390fd5b601760009054906101000a900460ff16611c44576040517f08c379a0000000000000000000000000000000000000000000000000000000008152600401611c3b90614b93565b60405180910390fd5b6000601760006101000a81548160ff021916908315150217905550427f71fbf9de7004f7d16da327d0c26b8f8b29e6efeaa59d67d1b76d6cc71fe47aae60405160405180910390a2565b611c96612817565b73ffffffffffffffffffffffffffffffffffffffff16611cb4611e51565b73ffffffffffffffffffffffffffffffffffffffff1614611d0a576040517f08c379a0000000000000000000000000000000000000000000000000000000008152600401611d0190614a73565b60405180910390fd5b6107d081511115611d50576040517f08c379a0000000000000000000000000000000000000000000000000000000008152600401611d4790614973565b60405180910390fd5b60005b8151811015611e4d57611db0828281518110611d98577f4e487b7100000000000000000000000000000000000000000000000000000000600052603260045260246000fd5b60200260200101516012612d7490919063ffffffff16565b15611e3957818181518110611dee577f4e487b7100000000000000000000000000000000000000000000000000000000600052603260045260246000fd5b602002602001015173ffffffffffffffffffffffffffffffffffffffff167fa850ae9193f515cbae8d35e8925bd2be26627fc91bce650b8652ed254e9cab0360405160405180910390a25b600181611e469190614e03565b9050611d53565b5050565b6000600660009054906101000a900473ffffffffffffffffffffffffffffffffffffffff16905090565b606060018054611e8a90614fce565b80601f0160208091040260200160405190810160405280929190818152602001828054611eb690614fce565b8015611f035780601f10611ed857610100808354040283529160200191611f03565b820191906000526020600020905b815481529060010190602001808311611ee657829003601f168201915b5050505050905090565b6000601760009054906101000a900460ff1680611f365750601760019054906101000a900460ff165b80611f4d5750601760029054906101000a900460ff165b611f8c576040517f08c379a0000000000000000000000000000000000000000000000000000000008152600401611f8390614a33565b60405180910390fd5b601760009054906101000a900460ff1615611fab576014549050611fd0565b601760019054906101000a900460ff1615611fca576015549050611fd0565b60165490505b90565b611fe5611fde612817565b8383612da4565b5050565b611ffa611ff4612817565b83612944565b612039576040517f08c379a000000000000000000000000000000000000000000000000000000000815260040161203090614bb3565b60405180910390fd5b61204584848484612f11565b50505050565b6060601760009054906101000a900460ff16806120745750601760019054906101000a900460ff165b8061208b5750601760029054906101000a900460ff165b6120ca576040517f08c379a00000000000000000000000000000000000000000000000000000000081526004016120c190614a33565b60405180910390fd5b60026007541415612110576040517f08c379a000000000000000000000000000000000000000000000000000000000815260040161210790614c33565b60405180910390fd5b600260078190555061212184612f6d565b60008467ffffffffffffffff811115612163577f4e487b7100000000000000000000000000000000000000000000000000000000600052604160045260246000fd5b6040519080825280602002602001820160405280156121915781602001602082028036833780820191505090505b50905060005b8581101561228f57612236338686848181106121dc577f4e487b7100000000000000000000000000000000000000000000000000000000600052603260045260246000fd5b90506020028101906121ee9190614cae565b8080601f016020809104026020016040519081016040528093929190818152602001838380828437600081840152601f19601f820116905080830192505050505050506132de565b82828151811061226f577f4e487b7100000000000000000000000000000000000000000000000000000000600052603260045260246000fd5b6020026020010181815250506001816122889190614e03565b9050612197565b50601760019054906101000a900460ff16156123005784600c60003373ffffffffffffffffffffffffffffffffffffffff1673ffffffffffffffffffffffffffffffffffffffff16815260200190815260200160002060008282546122f49190614e03565b9250508190555061236d565b601760029054906101000a900460ff161561236c5784600e60003373ffffffffffffffffffffffffffffffffffffffff1673ffffffffffffffffffffffffffffffffffffffff16815260200190815260200160002060008282546123649190614e03565b925050819055505b5b8091505060016007819055509392505050565b606061238b8261281f565b6123ca576040517f08c379a00000000000000000000000000000000000000000000000000000000081526004016123c190614ab3565b60405180910390fd5b60006010600084815260200190815260200160002080546123ea90614fce565b80601f016020809104026020016040519081016040528092919081815260200182805461241690614fce565b80156124635780601f1061243857610100808354040283529160200191612463565b820191906000526020600020905b81548152906001019060200180831161244657829003601f168201915b5050505050905060006008805461247990614fce565b80601f01602080910402602001604051908101604052809291908181526020018280546124a590614fce565b80156124f25780601f106124c7576101008083540402835291602001916124f2565b820191906000526020600020905b8154815290600101906020018083116124d557829003601f168201915b5050505050905060008151141561250d578192505050612571565b60008251111561254257808260405160200161252a929190614720565b60405160208183030381529060405292505050612571565b8061254c85613316565b60405160200161255d929190614720565b604051602081830303815290604052925050505b919050565b60155481565b600c6020528060005260406000206000915090505481565b6000600560008473ffffffffffffffffffffffffffffffffffffffff1673ffffffffffffffffffffffffffffffffffffffff16815260200190815260200160002060008373ffffffffffffffffffffffffffffffffffffffff1673ffffffffffffffffffffffffffffffffffffffff16815260200190815260200160002060009054906101000a900460ff16905092915050565b6000612632612817565b73ffffffffffffffffffffffffffffffffffffffff16612650611e51565b73ffffffffffffffffffffffffffffffffffffffff16146126a6576040517f08c379a000000000000000000000000000000000000000000000000000000000815260040161269d90614a73565b60405180910390fd5b6126b060116134c3565b905090565b6126bd612817565b73ffffffffffffffffffffffffffffffffffffffff166126db611e51565b73ffffffffffffffffffffffffffffffffffffffff1614612731576040517f08c379a000000000000000000000000000000000000000000000000000000000815260040161272890614a73565b60405180910390fd5b600073ffffffffffffffffffffffffffffffffffffffff168173ffffffffffffffffffffffffffffffffffffffff1614156127a1576040517f08c379a000000000000000000000000000000000000000000000000000000000815260040161279890614873565b60405180910390fd5b6127aa81612cae565b50565b60007f01ffc9a7000000000000000000000000000000000000000000000000000000007bffffffffffffffffffffffffffffffffffffffffffffffffffffffff1916827bffffffffffffffffffffffffffffffffffffffffffffffffffffffff1916149050919050565b600033905090565b60008073ffffffffffffffffffffffffffffffffffffffff166002600084815260200190815260200160002060009054906101000a900473ffffffffffffffffffffffffffffffffffffffff1673ffffffffffffffffffffffffffffffffffffffff1614159050919050565b816004600083815260200190815260200160002060006101000a81548173ffffffffffffffffffffffffffffffffffffffff021916908373ffffffffffffffffffffffffffffffffffffffff160217905550808273ffffffffffffffffffffffffffffffffffffffff166128fe836118d4565b73ffffffffffffffffffffffffffffffffffffffff167f8c5be1e5ebec7d5bd14f71427d1e84f3dd0314c0f7b2291e5b200ac8c7c3b92560405160405180910390a45050565b600061294f8261281f565b61298e576040517f08c379a000000000000000000000000000000000000000000000000000000000815260040161298590614933565b60405180910390fd5b6000612999836118d4565b90508073ffffffffffffffffffffffffffffffffffffffff168473ffffffffffffffffffffffffffffffffffffffff161480612a0857508373ffffffffffffffffffffffffffffffffffffffff166129f084610f19565b73ffffffffffffffffffffffffffffffffffffffff16145b80612a195750612a188185612594565b5b91505092915050565b8273ffffffffffffffffffffffffffffffffffffffff16612a42826118d4565b73ffffffffffffffffffffffffffffffffffffffff1614612a98576040517f08c379a0000000000000000000000000000000000000000000000000000000008152600401612a8f90614a93565b60405180910390fd5b600073ffffffffffffffffffffffffffffffffffffffff168273ffffffffffffffffffffffffffffffffffffffff161415612b08576040517f08c379a0000000000000000000000000000000000000000000000000000000008152600401612aff906148b3565b60405180910390fd5b612b138383836134d1565b612b1e60008261288b565b6001600360008573ffffffffffffffffffffffffffffffffffffffff1673ffffffffffffffffffffffffffffffffffffffff1681526020019081526020016000206000828254612b6e9190614ee4565b925050819055506001600360008473ffffffffffffffffffffffffffffffffffffffff1673ffffffffffffffffffffffffffffffffffffffff1681526020019081526020016000206000828254612bc59190614e03565b92505081905550816002600083815260200190815260200160002060006101000a81548173ffffffffffffffffffffffffffffffffffffffff021916908373ffffffffffffffffffffffffffffffffffffffff160217905550808273ffffffffffffffffffffffffffffffffffffffff168473ffffffffffffffffffffffffffffffffffffffff167fddf252ad1be2c89b69c2b068fc378daa952ba7f163c4a11628f55a4df523b3ef60405160405180910390a4505050565b6000612ca6836000018373ffffffffffffffffffffffffffffffffffffffff1660001b6134d6565b905092915050565b6000600660009054906101000a900473ffffffffffffffffffffffffffffffffffffffff16905081600660006101000a81548173ffffffffffffffffffffffffffffffffffffffff021916908373ffffffffffffffffffffffffffffffffffffffff1602179055508173ffffffffffffffffffffffffffffffffffffffff168173ffffffffffffffffffffffffffffffffffffffff167f8be0079c531659141344cd1fd0a4f28419497f9722a3daafe3b4186f6b6457e060405160405180910390a35050565b6000612d9c836000018373ffffffffffffffffffffffffffffffffffffffff1660001b61365c565b905092915050565b8173ffffffffffffffffffffffffffffffffffffffff168373ffffffffffffffffffffffffffffffffffffffff161415612e13576040517f08c379a0000000000000000000000000000000000000000000000000000000008152600401612e0a906148d3565b60405180910390fd5b80600560008573ffffffffffffffffffffffffffffffffffffffff1673ffffffffffffffffffffffffffffffffffffffff16815260200190815260200160002060008473ffffffffffffffffffffffffffffffffffffffff1673ffffffffffffffffffffffffffffffffffffffff16815260200190815260200160002060006101000a81548160ff0219169083151502179055508173ffffffffffffffffffffffffffffffffffffffff168373ffffffffffffffffffffffffffffffffffffffff167f17307eab39ab6107e8899845ad3d59bd9653f200f220920489ca2b5937696c3183604051612f0491906147f6565b60405180910390a3505050565b612f1c848484612a22565b612f28848484846136cc565b612f67576040517f08c379a0000000000000000000000000000000000000000000000000000000008152600401612f5e90614853565b60405180910390fd5b50505050565b600073ffffffffffffffffffffffffffffffffffffffff163373ffffffffffffffffffffffffffffffffffffffff161415612fa757600080fd5b600954612fb460116134c3565b10612ff4576040517f08c379a0000000000000000000000000000000000000000000000000000000008152600401612feb90614c73565b60405180910390fd5b60008111613037576040517f08c379a000000000000000000000000000000000000000000000000000000000815260040161302e90614af3565b60405180910390fd5b601760009054906101000a900460ff16156130995761305533613863565b613094576040517f08c379a000000000000000000000000000000000000000000000000000000000815260040161308b90614833565b60405180910390fd5b6132db565b601760019054906101000a900460ff16156131ea576130b733613863565b6130f6576040517f08c379a00000000000000000000000000000000000000000000000000000000081526004016130ed90614833565b60405180910390fd5b600b60009054906101000a900460ff1660ff16600c60003373ffffffffffffffffffffffffffffffffffffffff1673ffffffffffffffffffffffffffffffffffffffff16815260200190815260200160002054826131549190614e03565b1115613195576040517f08c379a000000000000000000000000000000000000000000000000000000000815260040161318c90614b73565b60405180910390fd5b34816015546131a49190614e8a565b11156131e5576040517f08c379a00000000000000000000000000000000000000000000000000000000081526004016131dc90614c13565b60405180910390fd5b6132da565b600d60009054906101000a900460ff1660ff16600e60003373ffffffffffffffffffffffffffffffffffffffff1673ffffffffffffffffffffffffffffffffffffffff16815260200190815260200160002054826132489190614e03565b1115613289576040517f08c379a000000000000000000000000000000000000000000000000000000000815260040161328090614ad3565b60405180910390fd5b34816016546132989190614e8a565b11156132d9576040517f08c379a00000000000000000000000000000000000000000000000000000000081526004016132d090614bf3565b60405180910390fd5b5b5b50565b60006132ea6011613880565b60006132f660116134c3565b90506133028482613896565b61330c81846138b4565b8091505092915050565b6060600082141561335e576040518060400160405280600181526020017f300000000000000000000000000000000000000000000000000000000000000081525090506134be565b600082905060005b6000821461339057808061337990615031565b915050600a826133899190614e59565b9150613366565b60008167ffffffffffffffff8111156133d2577f4e487b7100000000000000000000000000000000000000000000000000000000600052604160045260246000fd5b6040519080825280601f01601f1916602001820160405280156134045781602001600182028036833780820191505090505b5090505b600085146134b75760018261341d9190614ee4565b9150600a8561342c919061507a565b60306134389190614e03565b60f81b818381518110613474577f4e487b7100000000000000000000000000000000000000000000000000000000600052603260045260246000fd5b60200101907effffffffffffffffffffffffffffffffffffffffffffffffffffffffffffff1916908160001a905350600a856134b09190614e59565b9450613408565b8093505050505b919050565b600081600001549050919050565b505050565b600080836001016000848152602001908152602001600020549050600081146136505760006001826135089190614ee4565b90506000600186600001805490506135209190614ee4565b90508181146135db576000866000018281548110613567577f4e487b7100000000000000000000000000000000000000000000000000000000600052603260045260246000fd5b90600052602060002001549050808760000184815481106135b1577f4e487b7100000000000000000000000000000000000000000000000000000000600052603260045260246000fd5b90600052602060002001819055508387600101600083815260200190815260200160002081905550505b85600001805480613615577f4e487b7100000000000000000000000000000000000000000000000000000000600052603160045260246000fd5b600190038181906000526020600020016000905590558560010160008681526020019081526020016000206000905560019350505050613656565b60009150505b92915050565b60006136688383613928565b6136c15782600001829080600181540180825580915050600190039060005260206000200160009091909190915055826000018054905083600101600084815260200190815260200160002081905550600190506136c6565b600090505b92915050565b60006136ed8473ffffffffffffffffffffffffffffffffffffffff1661394b565b15613856578373ffffffffffffffffffffffffffffffffffffffff1663150b7a02613716612817565b8786866040518563ffffffff1660e01b8152600401613738949392919061475f565b602060405180830381600087803b15801561375257600080fd5b505af192505050801561378357506040513d601f19601f82011682018060405250810190613780919061401c565b60015b613806573d80600081146137b3576040519150601f19603f3d011682016040523d82523d6000602084013e6137b8565b606091505b506000815114156137fe576040517f08c379a00000000000000000000000000000000000000000000000000000000081526004016137f590614853565b60405180910390fd5b805181602001fd5b63150b7a0260e01b7bffffffffffffffffffffffffffffffffffffffffffffffffffffffff1916817bffffffffffffffffffffffffffffffffffffffffffffffffffffffff19161491505061385b565b600190505b949350505050565b600061387982601261395e90919063ffffffff16565b9050919050565b6001816000016000828254019250508190555050565b6138b082826040518060200160405280600081525061398e565b5050565b6138bd8261281f565b6138fc576040517f08c379a00000000000000000000000000000000000000000000000000000000081526004016138f390614a53565b60405180910390fd5b80601060008481526020019081526020016000209080519060200190613923929190613bb7565b505050565b600080836001016000848152602001908152602001600020541415905092915050565b600080823b905060008111915050919050565b6000613986836000018373ffffffffffffffffffffffffffffffffffffffff1660001b613928565b905092915050565b61399883836139e9565b6139a560008484846136cc565b6139e4576040517f08c379a00000000000000000000000000000000000000000000000000000000081526004016139db90614853565b60405180910390fd5b505050565b600073ffffffffffffffffffffffffffffffffffffffff168273ffffffffffffffffffffffffffffffffffffffff161415613a59576040517f08c379a0000000000000000000000000000000000000000000000000000000008152600401613a50906149d3565b60405180910390fd5b613a628161281f565b15613aa2576040517f08c379a0000000000000000000000000000000000000000000000000000000008152600401613a9990614893565b60405180910390fd5b613aae600083836134d1565b6001600360008473ffffffffffffffffffffffffffffffffffffffff1673ffffffffffffffffffffffffffffffffffffffff1681526020019081526020016000206000828254613afe9190614e03565b92505081905550816002600083815260200190815260200160002060006101000a81548173ffffffffffffffffffffffffffffffffffffffff021916908373ffffffffffffffffffffffffffffffffffffffff160217905550808273ffffffffffffffffffffffffffffffffffffffff16600073ffffffffffffffffffffffffffffffffffffffff167fddf252ad1be2c89b69c2b068fc378daa952ba7f163c4a11628f55a4df523b3ef60405160405180910390a45050565b828054613bc390614fce565b90600052602060002090601f016020900481019282613be55760008555613c2c565b82601f10613bfe57805160ff1916838001178555613c2c565b82800160010185558215613c2c579182015b82811115613c2b578251825591602001919060010190613c10565b5b509050613c399190613c3d565b5090565b5b80821115613c56576000816000905550600101613c3e565b5090565b6000613c6d613c6884614d2a565b614d05565b90508083825260208201905082856020860282011115613c8c57600080fd5b60005b85811015613cbc5781613ca28882613d04565b845260208401935060208301925050600181019050613c8f565b5050509392505050565b6000613cd9613cd484614d56565b614d05565b905082815260208101848484011115613cf157600080fd5b613cfc848285614f8c565b509392505050565b600081359050613d1381615a0b565b92915050565b600082601f830112613d2a57600080fd5b8135613d3a848260208601613c5a565b91505092915050565b60008083601f840112613d5557600080fd5b8235905067ffffffffffffffff811115613d6e57600080fd5b602083019150836020820283011115613d8657600080fd5b9250929050565b600081359050613d9c81615a22565b92915050565b600081359050613db181615a39565b92915050565b600081519050613dc681615a39565b92915050565b600082601f830112613ddd57600080fd5b8135613ded848260208601613cc6565b91505092915050565b600081359050613e0581615a50565b92915050565b600060208284031215613e1d57600080fd5b6000613e2b84828501613d04565b91505092915050565b60008060408385031215613e4757600080fd5b6000613e5585828601613d04565b9250506020613e6685828601613d04565b9150509250929050565b600080600060608486031215613e8557600080fd5b6000613e9386828701613d04565b9350506020613ea486828701613d04565b9250506040613eb586828701613df6565b9150509250925092565b60008060008060808587031215613ed557600080fd5b6000613ee387828801613d04565b9450506020613ef487828801613d04565b9350506040613f0587828801613df6565b925050606085013567ffffffffffffffff811115613f2257600080fd5b613f2e87828801613dcc565b91505092959194509250565b60008060408385031215613f4d57600080fd5b6000613f5b85828601613d04565b9250506020613f6c85828601613d8d565b9150509250929050565b60008060408385031215613f8957600080fd5b6000613f9785828601613d04565b9250506020613fa885828601613df6565b9150509250929050565b600060208284031215613fc457600080fd5b600082013567ffffffffffffffff811115613fde57600080fd5b613fea84828501613d19565b91505092915050565b60006020828403121561400557600080fd5b600061401384828501613da2565b91505092915050565b60006020828403121561402e57600080fd5b600061403c84828501613db7565b91505092915050565b60006020828403121561405757600080fd5b600061406584828501613df6565b91505092915050565b60008060006040848603121561408357600080fd5b600061409186828701613df6565b935050602084013567ffffffffffffffff8111156140ae57600080fd5b6140ba86828701613d43565b92509250509250925092565b600080604083850312156140d957600080fd5b60006140e785828601613df6565b92505060206140f885828601613df6565b9150509250929050565b600061410e8383614702565b60208301905092915050565b61412381614f18565b82525050565b600061413482614d97565b61413e8185614dc5565b935061414983614d87565b8060005b8381101561417a5781516141618882614102565b975061416c83614db8565b92505060018101905061414d565b5085935050505092915050565b61419081614f2a565b82525050565b60006141a182614da2565b6141ab8185614dd6565b93506141bb818560208601614f9b565b6141c481615167565b840191505092915050565b60006141da82614dad565b6141e48185614de7565b93506141f4818560208601614f9b565b6141fd81615167565b840191505092915050565b600061421382614dad565b61421d8185614df8565b935061422d818560208601614f9b565b80840191505092915050565b6000614246602b83614de7565b915061425182615178565b604082019050919050565b6000614269603283614de7565b9150614274826151c7565b604082019050919050565b600061428c602683614de7565b915061429782615216565b604082019050919050565b60006142af601c83614de7565b91506142ba82615265565b602082019050919050565b60006142d2602483614de7565b91506142dd8261528e565b604082019050919050565b60006142f5601983614de7565b9150614300826152dd565b602082019050919050565b6000614318601283614de7565b915061432382615306565b602082019050919050565b600061433b601283614de7565b91506143468261532f565b602082019050919050565b600061435e602c83614de7565b915061436982615358565b604082019050919050565b6000614381603883614de7565b915061438c826153a7565b604082019050919050565b60006143a4601c83614de7565b91506143af826153f6565b602082019050919050565b60006143c7602a83614de7565b91506143d28261541f565b604082019050919050565b60006143ea602983614de7565b91506143f58261546e565b604082019050919050565b600061440d602083614de7565b9150614418826154bd565b602082019050919050565b6000614430601583614de7565b915061443b826154e6565b602082019050919050565b6000614453602c83614de7565b915061445e8261550f565b604082019050919050565b6000614476602583614de7565b91506144818261555e565b604082019050919050565b6000614499602c83614de7565b91506144a4826155ad565b604082019050919050565b60006144bc602083614de7565b91506144c7826155fc565b602082019050919050565b60006144df602983614de7565b91506144ea82615625565b604082019050919050565b6000614502602f83614de7565b915061450d82615674565b604082019050919050565b6000614525601f83614de7565b9150614530826156c3565b602082019050919050565b6000614548601c83614de7565b9150614553826156ec565b602082019050919050565b600061456b602183614de7565b915061457682615715565b604082019050919050565b600061458e601b83614de7565b915061459982615764565b602082019050919050565b60006145b1602583614de7565b91506145bc8261578d565b604082019050919050565b60006145d4602183614de7565b91506145df826157dc565b604082019050919050565b60006145f7601383614de7565b91506146028261582b565b602082019050919050565b600061461a603183614de7565b915061462582615854565b604082019050919050565b600061463d601583614de7565b9150614648826158a3565b602082019050919050565b6000614660604183614de7565b915061466b826158cc565b606082019050919050565b6000614683603d83614de7565b915061468e82615941565b604082019050919050565b60006146a6601f83614de7565b91506146b182615990565b602082019050919050565b60006146c9601383614de7565b91506146d4826159b9565b602082019050919050565b60006146ec600f83614de7565b91506146f7826159e2565b602082019050919050565b61470b81614f82565b82525050565b61471a81614f82565b82525050565b600061472c8285614208565b91506147388284614208565b91508190509392505050565b6000602082019050614759600083018461411a565b92915050565b6000608082019050614774600083018761411a565b614781602083018661411a565b61478e6040830185614711565b81810360608301526147a08184614196565b905095945050505050565b60006040820190506147c0600083018561411a565b6147cd6020830184614711565b9392505050565b600060208201905081810360008301526147ee8184614129565b905092915050565b600060208201905061480b6000830184614187565b92915050565b6000602082019050818103600083015261482b81846141cf565b905092915050565b6000602082019050818103600083015261484c81614239565b9050919050565b6000602082019050818103600083015261486c8161425c565b9050919050565b6000602082019050818103600083015261488c8161427f565b9050919050565b600060208201905081810360008301526148ac816142a2565b9050919050565b600060208201905081810360008301526148cc816142c5565b9050919050565b600060208201905081810360008301526148ec816142e8565b9050919050565b6000602082019050818103600083015261490c8161430b565b9050919050565b6000602082019050818103600083015261492c8161432e565b9050919050565b6000602082019050818103600083015261494c81614351565b9050919050565b6000602082019050818103600083015261496c81614374565b9050919050565b6000602082019050818103600083015261498c81614397565b9050919050565b600060208201905081810360008301526149ac816143ba565b9050919050565b600060208201905081810360008301526149cc816143dd565b9050919050565b600060208201905081810360008301526149ec81614400565b9050919050565b60006020820190508181036000830152614a0c81614423565b9050919050565b60006020820190508181036000830152614a2c81614446565b9050919050565b60006020820190508181036000830152614a4c81614469565b9050919050565b60006020820190508181036000830152614a6c8161448c565b9050919050565b60006020820190508181036000830152614a8c816144af565b9050919050565b60006020820190508181036000830152614aac816144d2565b9050919050565b60006020820190508181036000830152614acc816144f5565b9050919050565b60006020820190508181036000830152614aec81614518565b9050919050565b60006020820190508181036000830152614b0c8161453b565b9050919050565b60006020820190508181036000830152614b2c8161455e565b9050919050565b60006020820190508181036000830152614b4c81614581565b9050919050565b60006020820190508181036000830152614b6c816145a4565b9050919050565b60006020820190508181036000830152614b8c816145c7565b9050919050565b60006020820190508181036000830152614bac816145ea565b9050919050565b60006020820190508181036000830152614bcc8161460d565b9050919050565b60006020820190508181036000830152614bec81614630565b9050919050565b60006020820190508181036000830152614c0c81614653565b9050919050565b60006020820190508181036000830152614c2c81614676565b9050919050565b60006020820190508181036000830152614c4c81614699565b9050919050565b60006020820190508181036000830152614c6c816146bc565b9050919050565b60006020820190508181036000830152614c8c816146df565b9050919050565b6000602082019050614ca86000830184614711565b92915050565b60008083356001602003843603038112614cc757600080fd5b80840192508235915067ffffffffffffffff821115614ce557600080fd5b602083019250600182023603831315614cfd57600080fd5b509250929050565b6000614d0f614d20565b9050614d1b8282615000565b919050565b6000604051905090565b600067ffffffffffffffff821115614d4557614d44615138565b5b602082029050602081019050919050565b600067ffffffffffffffff821115614d7157614d70615138565b5b614d7a82615167565b9050602081019050919050565b6000819050602082019050919050565b600081519050919050565b600081519050919050565b600081519050919050565b6000602082019050919050565b600082825260208201905092915050565b600082825260208201905092915050565b600082825260208201905092915050565b600081905092915050565b6000614e0e82614f82565b9150614e1983614f82565b9250827fffffffffffffffffffffffffffffffffffffffffffffffffffffffffffffffff03821115614e4e57614e4d6150ab565b5b828201905092915050565b6000614e6482614f82565b9150614e6f83614f82565b925082614e7f57614e7e6150da565b5b828204905092915050565b6000614e9582614f82565b9150614ea083614f82565b9250817fffffffffffffffffffffffffffffffffffffffffffffffffffffffffffffffff0483118215151615614ed957614ed86150ab565b5b828202905092915050565b6000614eef82614f82565b9150614efa83614f82565b925082821015614f0d57614f0c6150ab565b5b828203905092915050565b6000614f2382614f62565b9050919050565b60008115159050919050565b60007fffffffff0000000000000000000000000000000000000000000000000000000082169050919050565b600073ffffffffffffffffffffffffffffffffffffffff82169050919050565b6000819050919050565b82818337600083830152505050565b60005b83811015614fb9578082015181840152602081019050614f9e565b83811115614fc8576000848401525b50505050565b60006002820490506001821680614fe657607f821691505b60208210811415614ffa57614ff9615109565b5b50919050565b61500982615167565b810181811067ffffffffffffffff8211171561502857615027615138565b5b80604052505050565b600061503c82614f82565b91507fffffffffffffffffffffffffffffffffffffffffffffffffffffffffffffffff82141561506f5761506e6150ab565b5b600182019050919050565b600061508582614f82565b915061509083614f82565b9250826150a05761509f6150da565b5b828206905092915050565b7f4e487b7100000000000000000000000000000000000000000000000000000000600052601160045260246000fd5b7f4e487b7100000000000000000000000000000000000000000000000000000000600052601260045260246000fd5b7f4e487b7100000000000000000000000000000000000000000000000000000000600052602260045260246000fd5b7f4e487b7100000000000000000000000000000000000000000000000000000000600052604160045260246000fd5b6000601f19601f8301169050919050565b7f576527726520736f7272792c20796f757220616464726573732069736e27742060008201527f77686974656c6973746564000000000000000000000000000000000000000000602082015250565b7f4552433732313a207472616e7366657220746f206e6f6e20455243373231526560008201527f63656976657220696d706c656d656e7465720000000000000000000000000000602082015250565b7f4f776e61626c653a206e6577206f776e657220697320746865207a65726f206160008201527f6464726573730000000000000000000000000000000000000000000000000000602082015250565b7f4552433732313a20746f6b656e20616c7265616479206d696e74656400000000600082015250565b7f4552433732313a207472616e7366657220746f20746865207a65726f2061646460008201527f7265737300000000000000000000000000000000000000000000000000000000602082015250565b7f4552433732313a20617070726f766520746f2063616c6c657200000000000000600082015250565b7f53616c65206973206e6f74206163746976650000000000000000000000000000600082015250565b7f53616c65206973206e6f74207061757365640000000000000000000000000000600082015250565b7f4552433732313a206f70657261746f7220717565727920666f72206e6f6e657860008201527f697374656e7420746f6b656e0000000000000000000000000000000000000000602082015250565b7f4552433732313a20617070726f76652063616c6c6572206973206e6f74206f7760008201527f6e6572206e6f7220617070726f76656420666f7220616c6c0000000000000000602082015250565b7f57686974656c6973742063616e6e6f7420657863656564203230303000000000600082015250565b7f4552433732313a2062616c616e636520717565727920666f7220746865207a6560008201527f726f206164647265737300000000000000000000000000000000000000000000602082015250565b7f4552433732313a206f776e657220717565727920666f72206e6f6e657869737460008201527f656e7420746f6b656e0000000000000000000000000000000000000000000000602082015250565b7f4552433732313a206d696e7420746f20746865207a65726f2061646472657373600082015250565b7f50726573616c65206973206e6f74207061757365640000000000000000000000600082015250565b7f4552433732313a20617070726f76656420717565727920666f72206e6f6e657860008201527f697374656e7420746f6b656e0000000000000000000000000000000000000000602082015250565b7f546865726520617265206e6f2073616c65732061742074686973207465726d6960008201527f6e61746564000000000000000000000000000000000000000000000000000000602082015250565b7f4552433732314d657461646174613a2055524920736574206f66206e6f6e657860008201527f697374656e7420746f6b656e0000000000000000000000000000000000000000602082015250565b7f4f776e61626c653a2063616c6c6572206973206e6f7420746865206f776e6572600082015250565b7f4552433732313a207472616e73666572206f6620746f6b656e2074686174206960008201527f73206e6f74206f776e0000000000000000000000000000000000000000000000602082015250565b7f4552433732314d657461646174613a2055524920717565727920666f72206e6f60008201527f6e6578697374656e7420746f6b656e0000000000000000000000000000000000602082015250565b7f43616e6e6f74206d696e74206d6f7265207468616e20323520746f6b656e7300600082015250565b7f4d757374206d696e74206174206c65617374206f6e6520746f6b656e00000000600082015250565b7f4552433732313a20617070726f76616c20746f2063757272656e74206f776e6560008201527f7200000000000000000000000000000000000000000000000000000000000000602082015250565b7f42616c616e6365206973206c657373207468616e202e31206574680000000000600082015250565b7f4e6f6e6578697374656e7420746f6b656e20666f7220726f79616c747920706160008201527f796d656e74000000000000000000000000000000000000000000000000000000602082015250565b7f50726573616c652c206c696d6974656420616d6f756e74206f6620746f6b656e60008201527f7300000000000000000000000000000000000000000000000000000000000000602082015250565b7f4769766561776179206e6f742061637469766500000000000000000000000000600082015250565b7f4552433732313a207472616e736665722063616c6c6572206973206e6f74206f60008201527f776e6572206e6f7220617070726f766564000000000000000000000000000000602082015250565b7f50726573616c65206973206e6f74206163746976650000000000000000000000600082015250565b7f496e73756666696369656e742066756e64733a2045746865722076616c75652060008201527f646f6573206e6f74206d61746368207075626c69632073616c6520707269636560208201527f2e00000000000000000000000000000000000000000000000000000000000000604082015250565b7f496e73756666696369656e742066756e64733a2045746865722076616c75652060008201527f646f6573206e6f74206d617463682070726573616c652070726963652e000000602082015250565b7f5265656e7472616e637947756172643a207265656e7472616e742063616c6c00600082015250565b7f4769766561776179206e6f742070617573656400000000000000000000000000600082015250565b7f4e6f20746f6b656e73206c656674210000000000000000000000000000000000600082015250565b615a1481614f18565b8114615a1f57600080fd5b50565b615a2b81614f2a565b8114615a3657600080fd5b50565b615a4281614f36565b8114615a4d57600080fd5b50565b615a5981614f82565b8114615a6457600080fd5b5056fea26469706673582212209df2f992930f7b8801cdf84e964a6c93adcd4b523a44d35c321105dc4b6450e564736f6c63430008040033",
  "linkReferences": {},
  "deployedLinkReferences": {}
}