{
  "_format": "hh-sol-artifact-1",
  "contractName": "Turtleverse",
  "sourceName": "contracts/Turtleverse.sol",
  "abi": [
    {
      "inputs": [
        {
          "internalType": "string",
          "name": "name_",
          "type": "string"
        },
        {
          "internalType": "string",
          "name": "symbol_",
          "type": "string"
        },
        {
          "internalType": "string",
          "name": "baseURI_",
          "type": "string"
        }
      ],
      "stateMutability": "nonpayable",
      "type": "constructor"
    },
    {
      "anonymous": false,
      "inputs": [
        {
          "indexed": true,
          "internalType": "address",
          "name": "_address",
          "type": "address"
        }
      ],
      "name": "AddedToGiveawayList",
      "type": "event"
    },
    {
      "anonymous": false,
      "inputs": [
        {
          "indexed": true,
          "internalType": "address",
          "name": "_address",
          "type": "address"
        }
      ],
      "name": "AddedToWhitelist",
      "type": "event"
    },
    {
      "anonymous": false,
      "inputs": [
        {
          "indexed": true,
          "internalType": "address",
          "name": "owner",
          "type": "address"
        },
        {
          "indexed": true,
          "internalType": "address",
          "name": "approved",
          "type": "address"
        },
        {
          "indexed": true,
          "internalType": "uint256",
          "name": "tokenId",
          "type": "uint256"
        }
      ],
      "name": "Approval",
      "type": "event"
    },
    {
      "anonymous": false,
      "inputs": [
        {
          "indexed": true,
          "internalType": "address",
          "name": "owner",
          "type": "address"
        },
        {
          "indexed": true,
          "internalType": "address",
          "name": "operator",
          "type": "address"
        },
        {
          "indexed": false,
          "internalType": "bool",
          "name": "approved",
          "type": "bool"
        }
      ],
      "name": "ApprovalForAll",
      "type": "event"
    },
    {
      "anonymous": false,
      "inputs": [
        {
          "indexed": true,
          "internalType": "uint256",
          "name": "_giveawayStopTime",
          "type": "uint256"
        }
      ],
      "name": "GiveawayPaused",
      "type": "event"
    },
    {
      "anonymous": false,
      "inputs": [
        {
          "indexed": true,
          "internalType": "uint256",
          "name": "_giveawayStartTime",
          "type": "uint256"
        }
      ],
      "name": "GiveawayStart",
      "type": "event"
    },
    {
      "anonymous": false,
      "inputs": [
        {
          "indexed": true,
          "internalType": "uint256",
          "name": "_giveawayPurgedTime",
          "type": "uint256"
        }
      ],
      "name": "GiveawaysPurged",
      "type": "event"
    },
    {
      "anonymous": false,
      "inputs": [
        {
          "indexed": true,
          "internalType": "address",
          "name": "previousOwner",
          "type": "address"
        },
        {
          "indexed": true,
          "internalType": "address",
          "name": "newOwner",
          "type": "address"
        }
      ],
      "name": "OwnershipTransferred",
      "type": "event"
    },
    {
      "anonymous": false,
      "inputs": [
        {
          "indexed": true,
          "internalType": "uint256",
          "name": "_presaleStopTime",
          "type": "uint256"
        }
      ],
      "name": "PresalePaused",
      "type": "event"
    },
    {
      "anonymous": false,
      "inputs": [
        {
          "indexed": true,
          "internalType": "uint256",
          "name": "_presaleStartTime",
          "type": "uint256"
        }
      ],
      "name": "PresaleStart",
      "type": "event"
    },
    {
      "anonymous": false,
      "inputs": [
        {
          "indexed": true,
          "internalType": "address",
          "name": "_address",
          "type": "address"
        }
      ],
      "name": "RemovedFromWhitelist",
      "type": "event"
    },
    {
      "anonymous": false,
      "inputs": [
        {
          "indexed": true,
          "internalType": "uint256",
          "name": "_saleStopTime",
          "type": "uint256"
        }
      ],
      "name": "SalePaused",
      "type": "event"
    },
    {
      "anonymous": false,
      "inputs": [
        {
          "indexed": true,
          "internalType": "uint256",
          "name": "_saleStartTime",
          "type": "uint256"
        }
      ],
      "name": "SaleStart",
      "type": "event"
    },
    {
      "anonymous": false,
      "inputs": [
        {
          "indexed": true,
          "internalType": "address",
          "name": "from",
          "type": "address"
        },
        {
          "indexed": true,
          "internalType": "address",
          "name": "to",
          "type": "address"
        },
        {
          "indexed": true,
          "internalType": "uint256",
          "name": "tokenId",
          "type": "uint256"
        }
      ],
      "name": "Transfer",
      "type": "event"
    },
    {
      "inputs": [
        {
          "internalType": "address[]",
          "name": "addresses",
          "type": "address[]"
        }
      ],
      "name": "addToGiveawayList",
      "outputs": [],
      "stateMutability": "nonpayable",
      "type": "function"
    },
    {
      "inputs": [
        {
          "internalType": "address[]",
          "name": "addresses",
          "type": "address[]"
        }
      ],
      "name": "addToWhitelist",
      "outputs": [],
      "stateMutability": "nonpayable",
      "type": "function"
    },
    {
      "inputs": [
        {
          "internalType": "address",
          "name": "to",
          "type": "address"
        },
        {
          "internalType": "uint256",
          "name": "tokenId",
          "type": "uint256"
        }
      ],
      "name": "approve",
      "outputs": [],
      "stateMutability": "nonpayable",
      "type": "function"
    },
    {
      "inputs": [
        {
          "internalType": "address",
          "name": "owner",
          "type": "address"
        }
      ],
      "name": "balanceOf",
      "outputs": [
        {
          "internalType": "uint256",
          "name": "",
          "type": "uint256"
        }
      ],
      "stateMutability": "view",
      "type": "function"
    },
    {
      "inputs": [
        {
          "internalType": "uint256",
          "name": "tokenId",
          "type": "uint256"
        }
      ],
      "name": "getApproved",
      "outputs": [
        {
          "internalType": "address",
          "name": "",
          "type": "address"
        }
      ],
      "stateMutability": "view",
      "type": "function"
    },
    {
      "inputs": [],
      "name": "giveawayActive",
      "outputs": [
        {
          "internalType": "bool",
          "name": "",
          "type": "bool"
        }
      ],
      "stateMutability": "view",
      "type": "function"
    },
    {
      "inputs": [],
      "name": "giveawayPriceToMint",
      "outputs": [
        {
          "internalType": "uint256",
          "name": "",
          "type": "uint256"
        }
      ],
      "stateMutability": "view",
      "type": "function"
    },
    {
      "inputs": [
        {
          "internalType": "address",
          "name": "value",
          "type": "address"
        }
      ],
      "name": "inGiveawayList",
      "outputs": [
        {
          "internalType": "bool",
          "name": "",
          "type": "bool"
        }
      ],
      "stateMutability": "view",
      "type": "function"
    },
    {
      "inputs": [
        {
          "internalType": "address",
          "name": "value",
          "type": "address"
        }
      ],
      "name": "inWhitelist",
      "outputs": [
        {
          "internalType": "bool",
          "name": "",
          "type": "bool"
        }
      ],
      "stateMutability": "view",
      "type": "function"
    },
    {
      "inputs": [
        {
          "internalType": "address",
          "name": "owner",
          "type": "address"
        },
        {
          "internalType": "address",
          "name": "operator",
          "type": "address"
        }
      ],
      "name": "isApprovedForAll",
      "outputs": [
        {
          "internalType": "bool",
          "name": "",
          "type": "bool"
        }
      ],
      "stateMutability": "view",
      "type": "function"
    },
    {
      "inputs": [
        {
          "internalType": "uint256",
          "name": "tokensAmount",
          "type": "uint256"
        },
        {
          "internalType": "string[]",
          "name": "tokenHashes",
          "type": "string[]"
        }
      ],
      "name": "mintTokens",
      "outputs": [
        {
          "internalType": "uint256[]",
          "name": "",
          "type": "uint256[]"
        }
      ],
      "stateMutability": "payable",
      "type": "function"
    },
    {
      "inputs": [],
      "name": "name",
      "outputs": [
        {
          "internalType": "string",
          "name": "",
          "type": "string"
        }
      ],
      "stateMutability": "view",
      "type": "function"
    },
    {
      "inputs": [],
      "name": "owner",
      "outputs": [
        {
          "internalType": "address",
          "name": "",
          "type": "address"
        }
      ],
      "stateMutability": "view",
      "type": "function"
    },
    {
      "inputs": [
        {
          "internalType": "uint256",
          "name": "tokenId",
          "type": "uint256"
        }
      ],
      "name": "ownerOf",
      "outputs": [
        {
          "internalType": "address",
          "name": "",
          "type": "address"
        }
      ],
      "stateMutability": "view",
      "type": "function"
    },
    {
      "inputs": [],
      "name": "pauseGiveaway",
      "outputs": [],
      "stateMutability": "nonpayable",
      "type": "function"
    },
    {
      "inputs": [],
      "name": "pausePresale",
      "outputs": [],
      "stateMutability": "nonpayable",
      "type": "function"
    },
    {
      "inputs": [],
      "name": "pausePublicSale",
      "outputs": [],
      "stateMutability": "nonpayable",
      "type": "function"
    },
    {
      "inputs": [],
      "name": "presaleActive",
      "outputs": [
        {
          "internalType": "bool",
          "name": "",
          "type": "bool"
        }
      ],
      "stateMutability": "view",
      "type": "function"
    },
    {
      "inputs": [],
      "name": "presaleLimit",
      "outputs": [
        {
          "internalType": "uint8",
          "name": "",
          "type": "uint8"
        }
      ],
      "stateMutability": "view",
      "type": "function"
    },
    {
      "inputs": [],
      "name": "presalePriceToMint",
      "outputs": [
        {
          "internalType": "uint256",
          "name": "",
          "type": "uint256"
        }
      ],
      "stateMutability": "view",
      "type": "function"
    },
    {
      "inputs": [
        {
          "internalType": "address",
          "name": "",
          "type": "address"
        }
      ],
      "name": "presalePurchasedAmount",
      "outputs": [
        {
          "internalType": "uint256",
          "name": "",
          "type": "uint256"
        }
      ],
      "stateMutability": "view",
      "type": "function"
    },
    {
      "inputs": [],
      "name": "price",
      "outputs": [
        {
          "internalType": "uint256",
          "name": "",
          "type": "uint256"
        }
      ],
      "stateMutability": "view",
      "type": "function"
    },
    {
      "inputs": [],
      "name": "priceToMint",
      "outputs": [
        {
          "internalType": "uint256",
          "name": "",
          "type": "uint256"
        }
      ],
      "stateMutability": "view",
      "type": "function"
    },
    {
      "inputs": [],
      "name": "purgeGiveawayList",
      "outputs": [],
      "stateMutability": "nonpayable",
      "type": "function"
    },
    {
      "inputs": [
        {
          "internalType": "address[]",
          "name": "addresses",
          "type": "address[]"
        }
      ],
      "name": "removeFromWhitelist",
      "outputs": [],
      "stateMutability": "nonpayable",
      "type": "function"
    },
    {
      "inputs": [],
      "name": "renounceOwnership",
      "outputs": [],
      "stateMutability": "nonpayable",
      "type": "function"
    },
    {
      "inputs": [
        {
          "internalType": "address",
          "name": "from",
          "type": "address"
        },
        {
          "internalType": "address",
          "name": "to",
          "type": "address"
        },
        {
          "internalType": "uint256",
          "name": "tokenId",
          "type": "uint256"
        }
      ],
      "name": "safeTransferFrom",
      "outputs": [],
      "stateMutability": "nonpayable",
      "type": "function"
    },
    {
      "inputs": [
        {
          "internalType": "address",
          "name": "from",
          "type": "address"
        },
        {
          "internalType": "address",
          "name": "to",
          "type": "address"
        },
        {
          "internalType": "uint256",
          "name": "tokenId",
          "type": "uint256"
        },
        {
          "internalType": "bytes",
          "name": "_data",
          "type": "bytes"
        }
      ],
      "name": "safeTransferFrom",
      "outputs": [],
      "stateMutability": "nonpayable",
      "type": "function"
    },
    {
      "inputs": [],
      "name": "saleActive",
      "outputs": [
        {
          "internalType": "bool",
          "name": "",
          "type": "bool"
        }
      ],
      "stateMutability": "view",
      "type": "function"
    },
    {
      "inputs": [
        {
          "internalType": "address",
          "name": "operator",
          "type": "address"
        },
        {
          "internalType": "bool",
          "name": "approved",
          "type": "bool"
        }
      ],
      "name": "setApprovalForAll",
      "outputs": [],
      "stateMutability": "nonpayable",
      "type": "function"
    },
    {
      "inputs": [],
      "name": "startGiveaway",
      "outputs": [],
      "stateMutability": "nonpayable",
      "type": "function"
    },
    {
      "inputs": [
        {
          "internalType": "uint8",
          "name": "presaleLimit_",
          "type": "uint8"
        }
      ],
      "name": "startPresale",
      "outputs": [],
      "stateMutability": "nonpayable",
      "type": "function"
    },
    {
      "inputs": [],
      "name": "startPublicSale",
      "outputs": [],
      "stateMutability": "nonpayable",
      "type": "function"
    },
    {
      "inputs": [
        {
          "internalType": "bytes4",
          "name": "interfaceId",
          "type": "bytes4"
        }
      ],
      "name": "supportsInterface",
      "outputs": [
        {
          "internalType": "bool",
          "name": "",
          "type": "bool"
        }
      ],
      "stateMutability": "view",
      "type": "function"
    },
    {
      "inputs": [],
      "name": "symbol",
      "outputs": [
        {
          "internalType": "string",
          "name": "",
          "type": "string"
        }
      ],
      "stateMutability": "view",
      "type": "function"
    },
    {
      "inputs": [
        {
          "internalType": "uint256",
          "name": "tokenId",
          "type": "uint256"
        }
      ],
      "name": "tokenURI",
      "outputs": [
        {
          "internalType": "string",
          "name": "",
          "type": "string"
        }
      ],
      "stateMutability": "view",
      "type": "function"
    },
    {
      "inputs": [
        {
          "internalType": "address",
          "name": "from",
          "type": "address"
        },
        {
          "internalType": "address",
          "name": "to",
          "type": "address"
        },
        {
          "internalType": "uint256",
          "name": "tokenId",
          "type": "uint256"
        }
      ],
      "name": "transferFrom",
      "outputs": [],
      "stateMutability": "nonpayable",
      "type": "function"
    },
    {
      "inputs": [
        {
          "internalType": "address",
          "name": "newOwner",
          "type": "address"
        }
      ],
      "name": "transferOwnership",
      "outputs": [],
      "stateMutability": "nonpayable",
      "type": "function"
    },
    {
      "inputs": [
        {
          "internalType": "address payable",
          "name": "wallet",
          "type": "address"
        },
        {
          "internalType": "uint256",
          "name": "amount",
          "type": "uint256"
        }
      ],
      "name": "withdraw",
      "outputs": [],
      "stateMutability": "nonpayable",
      "type": "function"
    }
  ],
  "bytecode": "0x60806040526000600f556658d15e1762800060105566b1a2bc2ec500006011553480156200002c57600080fd5b5060405162005c7c38038062005c7c8339818101604052810190620000529190620002c2565b828281600090805190602001906200006c929190620001a0565b50806001908051906020019062000085929190620001a0565b505050620000a86200009c620000d260201b60201c565b620000da60201b60201c565b60016007819055508060089080519060200190620000c8929190620001a0565b50505050620004d3565b600033905090565b6000600660009054906101000a900473ffffffffffffffffffffffffffffffffffffffff16905081600660006101000a81548173ffffffffffffffffffffffffffffffffffffffff021916908373ffffffffffffffffffffffffffffffffffffffff1602179055508173ffffffffffffffffffffffffffffffffffffffff168173ffffffffffffffffffffffffffffffffffffffff167f8be0079c531659141344cd1fd0a4f28419497f9722a3daafe3b4186f6b6457e060405160405180910390a35050565b828054620001ae90620003f8565b90600052602060002090601f016020900481019282620001d257600085556200021e565b82601f10620001ed57805160ff19168380011785556200021e565b828001600101855582156200021e579182015b828111156200021d57825182559160200191906001019062000200565b5b5090506200022d919062000231565b5090565b5b808211156200024c57600081600090555060010162000232565b5090565b60006200026762000261846200038c565b62000363565b9050828152602081018484840111156200028057600080fd5b6200028d848285620003c2565b509392505050565b600082601f830112620002a757600080fd5b8151620002b984826020860162000250565b91505092915050565b600080600060608486031215620002d857600080fd5b600084015167ffffffffffffffff811115620002f357600080fd5b620003018682870162000295565b935050602084015167ffffffffffffffff8111156200031f57600080fd5b6200032d8682870162000295565b925050604084015167ffffffffffffffff8111156200034b57600080fd5b620003598682870162000295565b9150509250925092565b60006200036f62000382565b90506200037d82826200042e565b919050565b6000604051905090565b600067ffffffffffffffff821115620003aa57620003a962000493565b5b620003b582620004c2565b9050602081019050919050565b60005b83811015620003e2578082015181840152602081019050620003c5565b83811115620003f2576000848401525b50505050565b600060028204905060018216806200041157607f821691505b6020821081141562000428576200042762000464565b5b50919050565b6200043982620004c2565b810181811067ffffffffffffffff821117156200045b576200045a62000493565b5b80604052505050565b7f4e487b7100000000000000000000000000000000000000000000000000000000600052602260045260246000fd5b7f4e487b7100000000000000000000000000000000000000000000000000000000600052604160045260246000fd5b6000601f19601f8301169050919050565b61579980620004e36000396000f3fe6080604052600436106102305760003560e01c806368428a1b1161012e578063b88d4fde116100ab578063df9ffc2d1161006f578063df9ffc2d146107be578063e2aafa21146107fb578063e985e9c514610838578063f2fde38b14610875578063f3fef3a31461089e57610230565b8063b88d4fde146106e6578063c0f98e331461070f578063c165507c1461073f578063c87b56dd14610756578063dc9403a61461079357610230565b80638da5cb5b116100f25780638da5cb5b1461061357806394c606f51461063e57806395d89b4114610667578063a035b1fe14610692578063a22cb465146106bd57610230565b806368428a1b1461055457806370a082311461057f578063715018a6146105bc5780637c0f8aa0146105d35780637f649783146105ea57610230565b80632b3f4d92116101bc578063525b3fe311610180578063525b3fe31461046f57806353135ca01461049a578063548db174146104c55780636352211e146104ee5780636739f1431461052b57610230565b80632b3f4d92146103885780633e571a09146103b357806342842e0e146103f05780634616d4b2146104195780634dc1dbec1461044457610230565b8063081812fc11610203578063081812fc146102cb578063095ea7b3146103085780630c1c972a146103315780630c41f4971461034857806323b872dd1461035f57610230565b806301ffc9a71461023557806305e4e88a1461027257806306fdde0314610289578063070f5c09146102b4575b600080fd5b34801561024157600080fd5b5061025c60048036038101906102579190613e43565b6108c7565b6040516102699190614657565b60405180910390f35b34801561027e57600080fd5b506102876109a9565b005b34801561029557600080fd5b5061029e610b5f565b6040516102ab9190614672565b60405180910390f35b3480156102c057600080fd5b506102c9610bf1565b005b3480156102d757600080fd5b506102f260048036038101906102ed9190613e95565b610da6565b6040516102ff91906145ce565b60405180910390f35b34801561031457600080fd5b5061032f600480360381019061032a9190613dc6565b610e2b565b005b34801561033d57600080fd5b50610346610f43565b005b34801561035457600080fd5b5061035d6110f9565b005b34801561036b57600080fd5b5061038660048036038101906103819190613cc0565b6112ae565b005b34801561039457600080fd5b5061039d61130e565b6040516103aa9190614a74565b60405180910390f35b3480156103bf57600080fd5b506103da60048036038101906103d59190613c1f565b611314565b6040516103e79190614657565b60405180910390f35b3480156103fc57600080fd5b5061041760048036038101906104129190613cc0565b611331565b005b34801561042557600080fd5b5061042e611351565b60405161043b9190614657565b60405180910390f35b34801561045057600080fd5b50610459611364565b6040516104669190614a74565b60405180910390f35b34801561047b57600080fd5b5061048461136a565b6040516104919190614a8f565b60405180910390f35b3480156104a657600080fd5b506104af61137d565b6040516104bc9190614657565b60405180910390f35b3480156104d157600080fd5b506104ec60048036038101906104e79190613e02565b611390565b005b3480156104fa57600080fd5b5061051560048036038101906105109190613e95565b611553565b60405161052291906145ce565b60405180910390f35b34801561053757600080fd5b50610552600480360381019061054d9190613e02565b611605565b005b34801561056057600080fd5b50610569611782565b6040516105769190614657565b60405180910390f35b34801561058b57600080fd5b506105a660048036038101906105a19190613c1f565b611795565b6040516105b39190614a74565b60405180910390f35b3480156105c857600080fd5b506105d161184d565b005b3480156105df57600080fd5b506105e86118d5565b005b3480156105f657600080fd5b50610611600480360381019061060c9190613e02565b611a8a565b005b34801561061f57600080fd5b50610628611c4d565b60405161063591906145ce565b60405180910390f35b34801561064a57600080fd5b5061066560048036038101906106609190613f16565b611c77565b005b34801561067357600080fd5b5061067c611e49565b6040516106899190614672565b60405180910390f35b34801561069e57600080fd5b506106a7611edb565b6040516106b49190614a74565b60405180910390f35b3480156106c957600080fd5b506106e460048036038101906106df9190613d8a565b611f24565b005b3480156106f257600080fd5b5061070d60048036038101906107089190613d0f565b611f3a565b005b61072960048036038101906107249190613ebe565b611f9c565b6040516107369190614635565b60405180910390f35b34801561074b57600080fd5b5061075461221d565b005b34801561076257600080fd5b5061077d60048036038101906107789190613e95565b6122e4565b60405161078a9190614672565b60405180910390f35b34801561079f57600080fd5b506107a861238b565b6040516107b59190614a74565b60405180910390f35b3480156107ca57600080fd5b506107e560048036038101906107e09190613c1f565b612391565b6040516107f29190614a74565b60405180910390f35b34801561080757600080fd5b50610822600480360381019061081d9190613c1f565b6123a9565b60405161082f9190614657565b60405180910390f35b34801561084457600080fd5b5061085f600480360381019061085a9190613c84565b6123c6565b60405161086c9190614657565b60405180910390f35b34801561088157600080fd5b5061089c60048036038101906108979190613c1f565b61245a565b005b3480156108aa57600080fd5b506108c560048036038101906108c09190613c48565b612552565b005b60007f80ac58cd000000000000000000000000000000000000000000000000000000007bffffffffffffffffffffffffffffffffffffffffffffffffffffffff1916827bffffffffffffffffffffffffffffffffffffffffffffffffffffffff1916148061099257507f5b5e139f000000000000000000000000000000000000000000000000000000007bffffffffffffffffffffffffffffffffffffffffffffffffffffffff1916827bffffffffffffffffffffffffffffffffffffffffffffffffffffffff1916145b806109a257506109a182612626565b5b9050919050565b6109b1612690565b73ffffffffffffffffffffffffffffffffffffffff166109cf611c4d565b73ffffffffffffffffffffffffffffffffffffffff1614610a25576040517f08c379a0000000000000000000000000000000000000000000000000000000008152600401610a1c906148d4565b60405180910390fd5b601260009054906101000a900460ff1615610a75576040517f08c379a0000000000000000000000000000000000000000000000000000000008152600401610a6c90614a54565b60405180910390fd5b601260019054906101000a900460ff1615610ac5576040517f08c379a0000000000000000000000000000000000000000000000000000000008152600401610abc90614854565b60405180910390fd5b601260029054906101000a900460ff1615610b15576040517f08c379a0000000000000000000000000000000000000000000000000000000008152600401610b0c90614754565b60405180910390fd5b6001601260006101000a81548160ff021916908315150217905550427fea160f4a1725183ff307b55e355bb04139d56298efc5853e17f99ade82e2f38960405160405180910390a2565b606060008054610b6e90614dfe565b80601f0160208091040260200160405190810160405280929190818152602001828054610b9a90614dfe565b8015610be75780601f10610bbc57610100808354040283529160200191610be7565b820191906000526020600020905b815481529060010190602001808311610bca57829003601f168201915b5050505050905090565b610bf9612690565b73ffffffffffffffffffffffffffffffffffffffff16610c17611c4d565b73ffffffffffffffffffffffffffffffffffffffff1614610c6d576040517f08c379a0000000000000000000000000000000000000000000000000000000008152600401610c64906148d4565b60405180910390fd5b601260009054906101000a900460ff1615610cbd576040517f08c379a0000000000000000000000000000000000000000000000000000000008152600401610cb490614a54565b60405180910390fd5b601260029054906101000a900460ff1615610d0d576040517f08c379a0000000000000000000000000000000000000000000000000000000008152600401610d0490614754565b60405180910390fd5b601260019054906101000a900460ff16610d5c576040517f08c379a0000000000000000000000000000000000000000000000000000000008152600401610d53906149f4565b60405180910390fd5b6000601260016101000a81548160ff021916908315150217905550427fbbda50ff3083b4adfffcd3c2e8042a8b354ca16013534ab9367661c5a4cb7b2360405160405180910390a2565b6000610db182612698565b610df0576040517f08c379a0000000000000000000000000000000000000000000000000000000008152600401610de790614874565b60405180910390fd5b6004600083815260200190815260200160002060009054906101000a900473ffffffffffffffffffffffffffffffffffffffff169050919050565b6000610e3682611553565b90508073ffffffffffffffffffffffffffffffffffffffff168373ffffffffffffffffffffffffffffffffffffffff161415610ea7576040517f08c379a0000000000000000000000000000000000000000000000000000000008152600401610e9e90614954565b60405180910390fd5b8073ffffffffffffffffffffffffffffffffffffffff16610ec6612690565b73ffffffffffffffffffffffffffffffffffffffff161480610ef55750610ef481610eef612690565b6123c6565b5b610f34576040517f08c379a0000000000000000000000000000000000000000000000000000000008152600401610f2b906147b4565b60405180910390fd5b610f3e8383612704565b505050565b610f4b612690565b73ffffffffffffffffffffffffffffffffffffffff16610f69611c4d565b73ffffffffffffffffffffffffffffffffffffffff1614610fbf576040517f08c379a0000000000000000000000000000000000000000000000000000000008152600401610fb6906148d4565b60405180910390fd5b601260009054906101000a900460ff161561100f576040517f08c379a000000000000000000000000000000000000000000000000000000000815260040161100690614a54565b60405180910390fd5b601260019054906101000a900460ff161561105f576040517f08c379a000000000000000000000000000000000000000000000000000000000815260040161105690614854565b60405180910390fd5b601260029054906101000a900460ff16156110af576040517f08c379a00000000000000000000000000000000000000000000000000000000081526004016110a690614754565b60405180910390fd5b6001601260026101000a81548160ff021916908315150217905550427feeae71454a2a58ac8d7c3a2ac3db1f29f81cbd0024aae4292a55139dd9d3560a60405160405180910390a2565b611101612690565b73ffffffffffffffffffffffffffffffffffffffff1661111f611c4d565b73ffffffffffffffffffffffffffffffffffffffff1614611175576040517f08c379a000000000000000000000000000000000000000000000000000000000815260040161116c906148d4565b60405180910390fd5b601260009054906101000a900460ff16156111c5576040517f08c379a00000000000000000000000000000000000000000000000000000000081526004016111bc90614a54565b60405180910390fd5b601260019054906101000a900460ff1615611215576040517f08c379a000000000000000000000000000000000000000000000000000000000815260040161120c90614854565b60405180910390fd5b601260029054906101000a900460ff16611264576040517f08c379a000000000000000000000000000000000000000000000000000000000815260040161125b90614734565b60405180910390fd5b6000601260026101000a81548160ff021916908315150217905550427f4616a0782e5635981b28be1cd36934a60655b462c370d8bd8092c969abc990d060405160405180910390a2565b6112bf6112b9612690565b826127bd565b6112fe576040517f08c379a00000000000000000000000000000000000000000000000000000000081526004016112f5906149d4565b60405180910390fd5b61130983838361289b565b505050565b600f5481565b600061132a82600b612af790919063ffffffff16565b9050919050565b61134c83838360405180602001604052806000815250611f3a565b505050565b601260009054906101000a900460ff1681565b60115481565b601260039054906101000a900460ff1681565b601260019054906101000a900460ff1681565b611398612690565b73ffffffffffffffffffffffffffffffffffffffff166113b6611c4d565b73ffffffffffffffffffffffffffffffffffffffff161461140c576040517f08c379a0000000000000000000000000000000000000000000000000000000008152600401611403906148d4565b60405180910390fd5b6107d081511115611452576040517f08c379a0000000000000000000000000000000000000000000000000000000008152600401611449906147d4565b60405180910390fd5b60005b815181101561154f576114b282828151811061149a577f4e487b7100000000000000000000000000000000000000000000000000000000600052603260045260246000fd5b6020026020010151600d612b2790919063ffffffff16565b1561153b578181815181106114f0577f4e487b7100000000000000000000000000000000000000000000000000000000600052603260045260246000fd5b602002602001015173ffffffffffffffffffffffffffffffffffffffff167fcdd2e9b91a56913d370075169cefa1602ba36be5301664f752192bb1709df75760405160405180910390a25b6001816115489190614c14565b9050611455565b5050565b6000806002600084815260200190815260200160002060009054906101000a900473ffffffffffffffffffffffffffffffffffffffff169050600073ffffffffffffffffffffffffffffffffffffffff168173ffffffffffffffffffffffffffffffffffffffff1614156115fc576040517f08c379a00000000000000000000000000000000000000000000000000000000081526004016115f390614814565b60405180910390fd5b80915050919050565b61160d612690565b73ffffffffffffffffffffffffffffffffffffffff1661162b611c4d565b73ffffffffffffffffffffffffffffffffffffffff1614611681576040517f08c379a0000000000000000000000000000000000000000000000000000000008152600401611678906148d4565b60405180910390fd5b60005b815181101561177e576116e18282815181106116c9577f4e487b7100000000000000000000000000000000000000000000000000000000600052603260045260246000fd5b6020026020010151600b612b5790919063ffffffff16565b1561176a5781818151811061171f577f4e487b7100000000000000000000000000000000000000000000000000000000600052603260045260246000fd5b602002602001015173ffffffffffffffffffffffffffffffffffffffff167fffbd2575fe2e4e63d9838a8ecda40fcd0b19fce153bc5d6fe10157c938086af960405160405180910390a25b6001816117779190614c14565b9050611684565b5050565b601260029054906101000a900460ff1681565b60008073ffffffffffffffffffffffffffffffffffffffff168273ffffffffffffffffffffffffffffffffffffffff161415611806576040517f08c379a00000000000000000000000000000000000000000000000000000000081526004016117fd906147f4565b60405180910390fd5b600360008373ffffffffffffffffffffffffffffffffffffffff1673ffffffffffffffffffffffffffffffffffffffff168152602001908152602001600020549050919050565b611855612690565b73ffffffffffffffffffffffffffffffffffffffff16611873611c4d565b73ffffffffffffffffffffffffffffffffffffffff16146118c9576040517f08c379a00000000000000000000000000000000000000000000000000000000081526004016118c0906148d4565b60405180910390fd5b6118d36000612b87565b565b6118dd612690565b73ffffffffffffffffffffffffffffffffffffffff166118fb611c4d565b73ffffffffffffffffffffffffffffffffffffffff1614611951576040517f08c379a0000000000000000000000000000000000000000000000000000000008152600401611948906148d4565b60405180910390fd5b601260019054906101000a900460ff16156119a1576040517f08c379a000000000000000000000000000000000000000000000000000000000815260040161199890614854565b60405180910390fd5b601260029054906101000a900460ff16156119f1576040517f08c379a00000000000000000000000000000000000000000000000000000000081526004016119e890614754565b60405180910390fd5b601260009054906101000a900460ff16611a40576040517f08c379a0000000000000000000000000000000000000000000000000000000008152600401611a3790614994565b60405180910390fd5b6000601260006101000a81548160ff021916908315150217905550427f71fbf9de7004f7d16da327d0c26b8f8b29e6efeaa59d67d1b76d6cc71fe47aae60405160405180910390a2565b611a92612690565b73ffffffffffffffffffffffffffffffffffffffff16611ab0611c4d565b73ffffffffffffffffffffffffffffffffffffffff1614611b06576040517f08c379a0000000000000000000000000000000000000000000000000000000008152600401611afd906148d4565b60405180910390fd5b6107d081511115611b4c576040517f08c379a0000000000000000000000000000000000000000000000000000000008152600401611b43906147d4565b60405180910390fd5b60005b8151811015611c4957611bac828281518110611b94577f4e487b7100000000000000000000000000000000000000000000000000000000600052603260045260246000fd5b6020026020010151600d612b5790919063ffffffff16565b15611c3557818181518110611bea577f4e487b7100000000000000000000000000000000000000000000000000000000600052603260045260246000fd5b602002602001015173ffffffffffffffffffffffffffffffffffffffff167fa850ae9193f515cbae8d35e8925bd2be26627fc91bce650b8652ed254e9cab0360405160405180910390a25b600181611c429190614c14565b9050611b4f565b5050565b6000600660009054906101000a900473ffffffffffffffffffffffffffffffffffffffff16905090565b611c7f612690565b73ffffffffffffffffffffffffffffffffffffffff16611c9d611c4d565b73ffffffffffffffffffffffffffffffffffffffff1614611cf3576040517f08c379a0000000000000000000000000000000000000000000000000000000008152600401611cea906148d4565b60405180910390fd5b601260009054906101000a900460ff1615611d43576040517f08c379a0000000000000000000000000000000000000000000000000000000008152600401611d3a90614a54565b60405180910390fd5b601260019054906101000a900460ff1615611d93576040517f08c379a0000000000000000000000000000000000000000000000000000000008152600401611d8a90614854565b60405180910390fd5b601260029054906101000a900460ff1615611de3576040517f08c379a0000000000000000000000000000000000000000000000000000000008152600401611dda90614754565b60405180910390fd5b80601260036101000a81548160ff021916908360ff1602179055506001601260016101000a81548160ff021916908315150217905550427f0ab3861e918916d082a16babf84acd725febc223f0833c5c03d8b14ec900174360405160405180910390a250565b606060018054611e5890614dfe565b80601f0160208091040260200160405190810160405280929190818152602001828054611e8490614dfe565b8015611ed15780601f10611ea657610100808354040283529160200191611ed1565b820191906000526020600020905b815481529060010190602001808311611eb457829003601f168201915b5050505050905090565b6000601260009054906101000a900460ff1615611efc57600f549050611f21565b601260019054906101000a900460ff1615611f1b576010549050611f21565b60115490505b90565b611f36611f2f612690565b8383612c4d565b5050565b611f4b611f45612690565b836127bd565b611f8a576040517f08c379a0000000000000000000000000000000000000000000000000000000008152600401611f81906149d4565b60405180910390fd5b611f9684848484612dba565b50505050565b6060601260009054906101000a900460ff1680611fc55750601260019054906101000a900460ff165b80611fdc5750601260029054906101000a900460ff165b61201b576040517f08c379a000000000000000000000000000000000000000000000000000000000815260040161201290614894565b60405180910390fd5b60026007541415612061576040517f08c379a000000000000000000000000000000000000000000000000000000000815260040161205890614a14565b60405180910390fd5b600260078190555061207284612e16565b60008467ffffffffffffffff8111156120b4577f4e487b7100000000000000000000000000000000000000000000000000000000600052604160045260246000fd5b6040519080825280602002602001820160405280156120e25781602001602082028036833780820191505090505b50905060005b8581101561219d576121443386868481811061212d577f4e487b7100000000000000000000000000000000000000000000000000000000600052603260045260246000fd5b905060200281019061213f9190614aaa565b61309b565b82828151811061217d577f4e487b7100000000000000000000000000000000000000000000000000000000600052603260045260246000fd5b6020026020010181815250506001816121969190614c14565b90506120e8565b50601260019054906101000a900460ff161561220a5784601360003373ffffffffffffffffffffffffffffffffffffffff1673ffffffffffffffffffffffffffffffffffffffff16815260200190815260200160002060008282546122029190614c14565b925050819055505b8091505060016007819055509392505050565b612225612690565b73ffffffffffffffffffffffffffffffffffffffff16612243611c4d565b73ffffffffffffffffffffffffffffffffffffffff1614612299576040517f08c379a0000000000000000000000000000000000000000000000000000000008152600401612290906148d4565b60405180910390fd5b600b6000808201600080820160006122b19190613963565b50505050427fe6c1af3c9d98f7bd5c64e272869df1cf551c48d88c0338f013f5f9e741aa144c60405160405180910390a2565b60606122ef82612698565b61232e576040517f08c379a000000000000000000000000000000000000000000000000000000000815260040161232590614914565b60405180910390fd5b60006123386130f8565b905060008151116123585760405180602001604052806000815250612383565b806123628461310f565b604051602001612373929190614584565b6040516020818303038152906040525b915050919050565b60105481565b60136020528060005260406000206000915090505481565b60006123bf82600d612af790919063ffffffff16565b9050919050565b6000600560008473ffffffffffffffffffffffffffffffffffffffff1673ffffffffffffffffffffffffffffffffffffffff16815260200190815260200160002060008373ffffffffffffffffffffffffffffffffffffffff1673ffffffffffffffffffffffffffffffffffffffff16815260200190815260200160002060009054906101000a900460ff16905092915050565b612462612690565b73ffffffffffffffffffffffffffffffffffffffff16612480611c4d565b73ffffffffffffffffffffffffffffffffffffffff16146124d6576040517f08c379a00000000000000000000000000000000000000000000000000000000081526004016124cd906148d4565b60405180910390fd5b600073ffffffffffffffffffffffffffffffffffffffff168173ffffffffffffffffffffffffffffffffffffffff161415612546576040517f08c379a000000000000000000000000000000000000000000000000000000000815260040161253d906146b4565b60405180910390fd5b61254f81612b87565b50565b61255a612690565b73ffffffffffffffffffffffffffffffffffffffff16612578611c4d565b73ffffffffffffffffffffffffffffffffffffffff16146125ce576040517f08c379a00000000000000000000000000000000000000000000000000000000081526004016125c5906148d4565b60405180910390fd5b478111156125db57600080fd5b8173ffffffffffffffffffffffffffffffffffffffff166108fc479081150290604051600060405180830381858888f19350505050158015612621573d6000803e3d6000fd5b505050565b60007f01ffc9a7000000000000000000000000000000000000000000000000000000007bffffffffffffffffffffffffffffffffffffffffffffffffffffffff1916827bffffffffffffffffffffffffffffffffffffffffffffffffffffffff1916149050919050565b600033905090565b60008073ffffffffffffffffffffffffffffffffffffffff166002600084815260200190815260200160002060009054906101000a900473ffffffffffffffffffffffffffffffffffffffff1673ffffffffffffffffffffffffffffffffffffffff1614159050919050565b816004600083815260200190815260200160002060006101000a81548173ffffffffffffffffffffffffffffffffffffffff021916908373ffffffffffffffffffffffffffffffffffffffff160217905550808273ffffffffffffffffffffffffffffffffffffffff1661277783611553565b73ffffffffffffffffffffffffffffffffffffffff167f8c5be1e5ebec7d5bd14f71427d1e84f3dd0314c0f7b2291e5b200ac8c7c3b92560405160405180910390a45050565b60006127c882612698565b612807576040517f08c379a00000000000000000000000000000000000000000000000000000000081526004016127fe90614774565b60405180910390fd5b600061281283611553565b90508073ffffffffffffffffffffffffffffffffffffffff168473ffffffffffffffffffffffffffffffffffffffff16148061288157508373ffffffffffffffffffffffffffffffffffffffff1661286984610da6565b73ffffffffffffffffffffffffffffffffffffffff16145b80612892575061289181856123c6565b5b91505092915050565b8273ffffffffffffffffffffffffffffffffffffffff166128bb82611553565b73ffffffffffffffffffffffffffffffffffffffff1614612911576040517f08c379a0000000000000000000000000000000000000000000000000000000008152600401612908906148f4565b60405180910390fd5b600073ffffffffffffffffffffffffffffffffffffffff168273ffffffffffffffffffffffffffffffffffffffff161415612981576040517f08c379a0000000000000000000000000000000000000000000000000000000008152600401612978906146f4565b60405180910390fd5b61298c8383836132bc565b612997600082612704565b6001600360008573ffffffffffffffffffffffffffffffffffffffff1673ffffffffffffffffffffffffffffffffffffffff16815260200190815260200160002060008282546129e79190614cf5565b925050819055506001600360008473ffffffffffffffffffffffffffffffffffffffff1673ffffffffffffffffffffffffffffffffffffffff1681526020019081526020016000206000828254612a3e9190614c14565b92505081905550816002600083815260200190815260200160002060006101000a81548173ffffffffffffffffffffffffffffffffffffffff021916908373ffffffffffffffffffffffffffffffffffffffff160217905550808273ffffffffffffffffffffffffffffffffffffffff168473ffffffffffffffffffffffffffffffffffffffff167fddf252ad1be2c89b69c2b068fc378daa952ba7f163c4a11628f55a4df523b3ef60405160405180910390a4505050565b6000612b1f836000018373ffffffffffffffffffffffffffffffffffffffff1660001b6132c1565b905092915050565b6000612b4f836000018373ffffffffffffffffffffffffffffffffffffffff1660001b6132e4565b905092915050565b6000612b7f836000018373ffffffffffffffffffffffffffffffffffffffff1660001b61346a565b905092915050565b6000600660009054906101000a900473ffffffffffffffffffffffffffffffffffffffff16905081600660006101000a81548173ffffffffffffffffffffffffffffffffffffffff021916908373ffffffffffffffffffffffffffffffffffffffff1602179055508173ffffffffffffffffffffffffffffffffffffffff168173ffffffffffffffffffffffffffffffffffffffff167f8be0079c531659141344cd1fd0a4f28419497f9722a3daafe3b4186f6b6457e060405160405180910390a35050565b8173ffffffffffffffffffffffffffffffffffffffff168373ffffffffffffffffffffffffffffffffffffffff161415612cbc576040517f08c379a0000000000000000000000000000000000000000000000000000000008152600401612cb390614714565b60405180910390fd5b80600560008573ffffffffffffffffffffffffffffffffffffffff1673ffffffffffffffffffffffffffffffffffffffff16815260200190815260200160002060008473ffffffffffffffffffffffffffffffffffffffff1673ffffffffffffffffffffffffffffffffffffffff16815260200190815260200160002060006101000a81548160ff0219169083151502179055508173ffffffffffffffffffffffffffffffffffffffff168373ffffffffffffffffffffffffffffffffffffffff167f17307eab39ab6107e8899845ad3d59bd9653f200f220920489ca2b5937696c3183604051612dad9190614657565b60405180910390a3505050565b612dc584848461289b565b612dd1848484846134da565b612e10576040517f08c379a0000000000000000000000000000000000000000000000000000000008152600401612e0790614694565b60405180910390fd5b50505050565b600073ffffffffffffffffffffffffffffffffffffffff163373ffffffffffffffffffffffffffffffffffffffff161415612e5057600080fd5b60008111612e93576040517f08c379a0000000000000000000000000000000000000000000000000000000008152600401612e8a90614934565b60405180910390fd5b601260009054906101000a900460ff1615612ef557612eb133611314565b612ef0576040517f08c379a0000000000000000000000000000000000000000000000000000000008152600401612ee7906149b4565b60405180910390fd5b613098565b601260019054906101000a900460ff161561304657612f13336123a9565b612f52576040517f08c379a0000000000000000000000000000000000000000000000000000000008152600401612f49906149b4565b60405180910390fd5b601260039054906101000a900460ff1660ff16601360003373ffffffffffffffffffffffffffffffffffffffff1673ffffffffffffffffffffffffffffffffffffffff1681526020019081526020016000205482612fb09190614c14565b1115612ff1576040517f08c379a0000000000000000000000000000000000000000000000000000000008152600401612fe890614974565b60405180910390fd5b34816010546130009190614c9b565b1115613041576040517f08c379a000000000000000000000000000000000000000000000000000000000815260040161303890614a34565b60405180910390fd5b613097565b34816011546130559190614c9b565b1115613096576040517f08c379a000000000000000000000000000000000000000000000000000000000815260040161308d90614794565b60405180910390fd5b5b5b50565b60006130a7600a613671565b60006130b3600a613687565b90506130bf8582613695565b6130ed81600886866040516020016130d9939291906145a8565b6040516020818303038152906040526136b3565b809150509392505050565b606060405180602001604052806000815250905090565b60606000821415613157576040518060400160405280600181526020017f300000000000000000000000000000000000000000000000000000000000000081525090506132b7565b600082905060005b6000821461318957808061317290614e61565b915050600a826131829190614c6a565b915061315f565b60008167ffffffffffffffff8111156131cb577f4e487b7100000000000000000000000000000000000000000000000000000000600052604160045260246000fd5b6040519080825280601f01601f1916602001820160405280156131fd5781602001600182028036833780820191505090505b5090505b600085146132b0576001826132169190614cf5565b9150600a856132259190614eaa565b60306132319190614c14565b60f81b81838151811061326d577f4e487b7100000000000000000000000000000000000000000000000000000000600052603260045260246000fd5b60200101907effffffffffffffffffffffffffffffffffffffffffffffffffffffffffffff1916908160001a905350600a856132a99190614c6a565b9450613201565b8093505050505b919050565b505050565b600080836001016000848152602001908152602001600020541415905092915050565b6000808360010160008481526020019081526020016000205490506000811461345e5760006001826133169190614cf5565b905060006001866000018054905061332e9190614cf5565b90508181146133e9576000866000018281548110613375577f4e487b7100000000000000000000000000000000000000000000000000000000600052603260045260246000fd5b90600052602060002001549050808760000184815481106133bf577f4e487b7100000000000000000000000000000000000000000000000000000000600052603260045260246000fd5b90600052602060002001819055508387600101600083815260200190815260200160002081905550505b85600001805480613423577f4e487b7100000000000000000000000000000000000000000000000000000000600052603160045260246000fd5b600190038181906000526020600020016000905590558560010160008681526020019081526020016000206000905560019350505050613464565b60009150505b92915050565b600061347683836132c1565b6134cf5782600001829080600181540180825580915050600190039060005260206000200160009091909190915055826000018054905083600101600084815260200190815260200160002081905550600190506134d4565b600090505b92915050565b60006134fb8473ffffffffffffffffffffffffffffffffffffffff16613727565b15613664578373ffffffffffffffffffffffffffffffffffffffff1663150b7a02613524612690565b8786866040518563ffffffff1660e01b815260040161354694939291906145e9565b602060405180830381600087803b15801561356057600080fd5b505af192505050801561359157506040513d601f19601f8201168201806040525081019061358e9190613e6c565b60015b613614573d80600081146135c1576040519150601f19603f3d011682016040523d82523d6000602084013e6135c6565b606091505b5060008151141561360c576040517f08c379a000000000000000000000000000000000000000000000000000000000815260040161360390614694565b60405180910390fd5b805181602001fd5b63150b7a0260e01b7bffffffffffffffffffffffffffffffffffffffffffffffffffffffff1916817bffffffffffffffffffffffffffffffffffffffffffffffffffffffff191614915050613669565b600190505b949350505050565b6001816000016000828254019250508190555050565b600081600001549050919050565b6136af82826040518060200160405280600081525061373a565b5050565b6136bc82612698565b6136fb576040517f08c379a00000000000000000000000000000000000000000000000000000000081526004016136f2906148b4565b60405180910390fd5b80600960008481526020019081526020016000209080519060200190613722929190613984565b505050565b600080823b905060008111915050919050565b6137448383613795565b61375160008484846134da565b613790576040517f08c379a000000000000000000000000000000000000000000000000000000000815260040161378790614694565b60405180910390fd5b505050565b600073ffffffffffffffffffffffffffffffffffffffff168273ffffffffffffffffffffffffffffffffffffffff161415613805576040517f08c379a00000000000000000000000000000000000000000000000000000000081526004016137fc90614834565b60405180910390fd5b61380e81612698565b1561384e576040517f08c379a0000000000000000000000000000000000000000000000000000000008152600401613845906146d4565b60405180910390fd5b61385a600083836132bc565b6001600360008473ffffffffffffffffffffffffffffffffffffffff1673ffffffffffffffffffffffffffffffffffffffff16815260200190815260200160002060008282546138aa9190614c14565b92505081905550816002600083815260200190815260200160002060006101000a81548173ffffffffffffffffffffffffffffffffffffffff021916908373ffffffffffffffffffffffffffffffffffffffff160217905550808273ffffffffffffffffffffffffffffffffffffffff16600073ffffffffffffffffffffffffffffffffffffffff167fddf252ad1be2c89b69c2b068fc378daa952ba7f163c4a11628f55a4df523b3ef60405160405180910390a45050565b50805460008255906000526020600020908101906139819190613a0a565b50565b82805461399090614dfe565b90600052602060002090601f0160209004810192826139b257600085556139f9565b82601f106139cb57805160ff19168380011785556139f9565b828001600101855582156139f9579182015b828111156139f85782518255916020019190600101906139dd565b5b509050613a069190613a27565b5090565b5b80821115613a23576000816000905550600101613a0b565b5090565b5b80821115613a40576000816000905550600101613a28565b5090565b6000613a57613a5284614b26565b614b01565b90508083825260208201905082856020860282011115613a7657600080fd5b60005b85811015613aa65781613a8c8882613aee565b845260208401935060208301925050600181019050613a79565b5050509392505050565b6000613ac3613abe84614b52565b614b01565b905082815260208101848484011115613adb57600080fd5b613ae6848285614dbc565b509392505050565b600081359050613afd816156d9565b92915050565b600081359050613b12816156f0565b92915050565b600082601f830112613b2957600080fd5b8135613b39848260208601613a44565b91505092915050565b60008083601f840112613b5457600080fd5b8235905067ffffffffffffffff811115613b6d57600080fd5b602083019150836020820283011115613b8557600080fd5b9250929050565b600081359050613b9b81615707565b92915050565b600081359050613bb08161571e565b92915050565b600081519050613bc58161571e565b92915050565b600082601f830112613bdc57600080fd5b8135613bec848260208601613ab0565b91505092915050565b600081359050613c0481615735565b92915050565b600081359050613c198161574c565b92915050565b600060208284031215613c3157600080fd5b6000613c3f84828501613aee565b91505092915050565b60008060408385031215613c5b57600080fd5b6000613c6985828601613b03565b9250506020613c7a85828601613bf5565b9150509250929050565b60008060408385031215613c9757600080fd5b6000613ca585828601613aee565b9250506020613cb685828601613aee565b9150509250929050565b600080600060608486031215613cd557600080fd5b6000613ce386828701613aee565b9350506020613cf486828701613aee565b9250506040613d0586828701613bf5565b9150509250925092565b60008060008060808587031215613d2557600080fd5b6000613d3387828801613aee565b9450506020613d4487828801613aee565b9350506040613d5587828801613bf5565b925050606085013567ffffffffffffffff811115613d7257600080fd5b613d7e87828801613bcb565b91505092959194509250565b60008060408385031215613d9d57600080fd5b6000613dab85828601613aee565b9250506020613dbc85828601613b8c565b9150509250929050565b60008060408385031215613dd957600080fd5b6000613de785828601613aee565b9250506020613df885828601613bf5565b9150509250929050565b600060208284031215613e1457600080fd5b600082013567ffffffffffffffff811115613e2e57600080fd5b613e3a84828501613b18565b91505092915050565b600060208284031215613e5557600080fd5b6000613e6384828501613ba1565b91505092915050565b600060208284031215613e7e57600080fd5b6000613e8c84828501613bb6565b91505092915050565b600060208284031215613ea757600080fd5b6000613eb584828501613bf5565b91505092915050565b600080600060408486031215613ed357600080fd5b6000613ee186828701613bf5565b935050602084013567ffffffffffffffff811115613efe57600080fd5b613f0a86828701613b42565b92509250509250925092565b600060208284031215613f2857600080fd5b6000613f3684828501613c0a565b91505092915050565b6000613f4b8383614557565b60208301905092915050565b613f6081614d29565b82525050565b6000613f7182614ba8565b613f7b8185614bd6565b9350613f8683614b83565b8060005b83811015613fb7578151613f9e8882613f3f565b9750613fa983614bc9565b925050600181019050613f8a565b5085935050505092915050565b613fcd81614d4d565b82525050565b6000613fde82614bb3565b613fe88185614be7565b9350613ff8818560208601614dcb565b61400181614f97565b840191505092915050565b60006140188385614c09565b9350614025838584614dbc565b82840190509392505050565b600061403c82614bbe565b6140468185614bf8565b9350614056818560208601614dcb565b61405f81614f97565b840191505092915050565b600061407582614bbe565b61407f8185614c09565b935061408f818560208601614dcb565b80840191505092915050565b600081546140a881614dfe565b6140b28186614c09565b945060018216600081146140cd57600181146140de57614111565b60ff19831686528186019350614111565b6140e785614b93565b60005b83811015614109578154818901526001820191506020810190506140ea565b838801955050505b50505092915050565b6000614127603283614bf8565b915061413282614fa8565b604082019050919050565b600061414a602683614bf8565b915061415582614ff7565b604082019050919050565b600061416d601c83614bf8565b915061417882615046565b602082019050919050565b6000614190602483614bf8565b915061419b8261506f565b604082019050919050565b60006141b3601983614bf8565b91506141be826150be565b602082019050919050565b60006141d6601283614bf8565b91506141e1826150e7565b602082019050919050565b60006141f9601283614bf8565b915061420482615110565b602082019050919050565b600061421c602c83614bf8565b915061422782615139565b604082019050919050565b600061423f601283614bf8565b915061424a82615188565b602082019050919050565b6000614262603883614bf8565b915061426d826151b1565b604082019050919050565b6000614285601c83614bf8565b915061429082615200565b602082019050919050565b60006142a8602a83614bf8565b91506142b382615229565b604082019050919050565b60006142cb602983614bf8565b91506142d682615278565b604082019050919050565b60006142ee602083614bf8565b91506142f9826152c7565b602082019050919050565b6000614311601583614bf8565b915061431c826152f0565b602082019050919050565b6000614334602c83614bf8565b915061433f82615319565b604082019050919050565b6000614357602583614bf8565b915061436282615368565b604082019050919050565b600061437a602c83614bf8565b9150614385826153b7565b604082019050919050565b600061439d602083614bf8565b91506143a882615406565b602082019050919050565b60006143c0602983614bf8565b91506143cb8261542f565b604082019050919050565b60006143e3602f83614bf8565b91506143ee8261547e565b604082019050919050565b6000614406601c83614bf8565b9150614411826154cd565b602082019050919050565b6000614429602183614bf8565b9150614434826154f6565b604082019050919050565b600061444c602183614bf8565b915061445782615545565b604082019050919050565b600061446f601383614bf8565b915061447a82615594565b602082019050919050565b6000614492601983614bf8565b915061449d826155bd565b602082019050919050565b60006144b5603183614bf8565b91506144c0826155e6565b604082019050919050565b60006144d8601583614bf8565b91506144e382615635565b602082019050919050565b60006144fb601f83614bf8565b91506145068261565e565b602082019050919050565b600061451e601b83614bf8565b915061452982615687565b602082019050919050565b6000614541601383614bf8565b915061454c826156b0565b602082019050919050565b61456081614da5565b82525050565b61456f81614da5565b82525050565b61457e81614daf565b82525050565b6000614590828561406a565b915061459c828461406a565b91508190509392505050565b60006145b4828661409b565b91506145c182848661400c565b9150819050949350505050565b60006020820190506145e36000830184613f57565b92915050565b60006080820190506145fe6000830187613f57565b61460b6020830186613f57565b6146186040830185614566565b818103606083015261462a8184613fd3565b905095945050505050565b6000602082019050818103600083015261464f8184613f66565b905092915050565b600060208201905061466c6000830184613fc4565b92915050565b6000602082019050818103600083015261468c8184614031565b905092915050565b600060208201905081810360008301526146ad8161411a565b9050919050565b600060208201905081810360008301526146cd8161413d565b9050919050565b600060208201905081810360008301526146ed81614160565b9050919050565b6000602082019050818103600083015261470d81614183565b9050919050565b6000602082019050818103600083015261472d816141a6565b9050919050565b6000602082019050818103600083015261474d816141c9565b9050919050565b6000602082019050818103600083015261476d816141ec565b9050919050565b6000602082019050818103600083015261478d8161420f565b9050919050565b600060208201905081810360008301526147ad81614232565b9050919050565b600060208201905081810360008301526147cd81614255565b9050919050565b600060208201905081810360008301526147ed81614278565b9050919050565b6000602082019050818103600083015261480d8161429b565b9050919050565b6000602082019050818103600083015261482d816142be565b9050919050565b6000602082019050818103600083015261484d816142e1565b9050919050565b6000602082019050818103600083015261486d81614304565b9050919050565b6000602082019050818103600083015261488d81614327565b9050919050565b600060208201905081810360008301526148ad8161434a565b9050919050565b600060208201905081810360008301526148cd8161436d565b9050919050565b600060208201905081810360008301526148ed81614390565b9050919050565b6000602082019050818103600083015261490d816143b3565b9050919050565b6000602082019050818103600083015261492d816143d6565b9050919050565b6000602082019050818103600083015261494d816143f9565b9050919050565b6000602082019050818103600083015261496d8161441c565b9050919050565b6000602082019050818103600083015261498d8161443f565b9050919050565b600060208201905081810360008301526149ad81614462565b9050919050565b600060208201905081810360008301526149cd81614485565b9050919050565b600060208201905081810360008301526149ed816144a8565b9050919050565b60006020820190508181036000830152614a0d816144cb565b9050919050565b60006020820190508181036000830152614a2d816144ee565b9050919050565b60006020820190508181036000830152614a4d81614511565b9050919050565b60006020820190508181036000830152614a6d81614534565b9050919050565b6000602082019050614a896000830184614566565b92915050565b6000602082019050614aa46000830184614575565b92915050565b60008083356001602003843603038112614ac357600080fd5b80840192508235915067ffffffffffffffff821115614ae157600080fd5b602083019250600182023603831315614af957600080fd5b509250929050565b6000614b0b614b1c565b9050614b178282614e30565b919050565b6000604051905090565b600067ffffffffffffffff821115614b4157614b40614f68565b5b602082029050602081019050919050565b600067ffffffffffffffff821115614b6d57614b6c614f68565b5b614b7682614f97565b9050602081019050919050565b6000819050602082019050919050565b60008190508160005260206000209050919050565b600081519050919050565b600081519050919050565b600081519050919050565b6000602082019050919050565b600082825260208201905092915050565b600082825260208201905092915050565b600082825260208201905092915050565b600081905092915050565b6000614c1f82614da5565b9150614c2a83614da5565b9250827fffffffffffffffffffffffffffffffffffffffffffffffffffffffffffffffff03821115614c5f57614c5e614edb565b5b828201905092915050565b6000614c7582614da5565b9150614c8083614da5565b925082614c9057614c8f614f0a565b5b828204905092915050565b6000614ca682614da5565b9150614cb183614da5565b9250817fffffffffffffffffffffffffffffffffffffffffffffffffffffffffffffffff0483118215151615614cea57614ce9614edb565b5b828202905092915050565b6000614d0082614da5565b9150614d0b83614da5565b925082821015614d1e57614d1d614edb565b5b828203905092915050565b6000614d3482614d85565b9050919050565b6000614d4682614d85565b9050919050565b60008115159050919050565b60007fffffffff0000000000000000000000000000000000000000000000000000000082169050919050565b600073ffffffffffffffffffffffffffffffffffffffff82169050919050565b6000819050919050565b600060ff82169050919050565b82818337600083830152505050565b60005b83811015614de9578082015181840152602081019050614dce565b83811115614df8576000848401525b50505050565b60006002820490506001821680614e1657607f821691505b60208210811415614e2a57614e29614f39565b5b50919050565b614e3982614f97565b810181811067ffffffffffffffff82111715614e5857614e57614f68565b5b80604052505050565b6000614e6c82614da5565b91507fffffffffffffffffffffffffffffffffffffffffffffffffffffffffffffffff821415614e9f57614e9e614edb565b5b600182019050919050565b6000614eb582614da5565b9150614ec083614da5565b925082614ed057614ecf614f0a565b5b828206905092915050565b7f4e487b7100000000000000000000000000000000000000000000000000000000600052601160045260246000fd5b7f4e487b7100000000000000000000000000000000000000000000000000000000600052601260045260246000fd5b7f4e487b7100000000000000000000000000000000000000000000000000000000600052602260045260246000fd5b7f4e487b7100000000000000000000000000000000000000000000000000000000600052604160045260246000fd5b6000601f19601f8301169050919050565b7f4552433732313a207472616e7366657220746f206e6f6e20455243373231526560008201527f63656976657220696d706c656d656e7465720000000000000000000000000000602082015250565b7f4f776e61626c653a206e6577206f776e657220697320746865207a65726f206160008201527f6464726573730000000000000000000000000000000000000000000000000000602082015250565b7f4552433732313a20746f6b656e20616c7265616479206d696e74656400000000600082015250565b7f4552433732313a207472616e7366657220746f20746865207a65726f2061646460008201527f7265737300000000000000000000000000000000000000000000000000000000602082015250565b7f4552433732313a20617070726f766520746f2063616c6c657200000000000000600082015250565b7f53616c65206973206e6f74206163746976650000000000000000000000000000600082015250565b7f53616c65206973206e6f74207061757365640000000000000000000000000000600082015250565b7f4552433732313a206f70657261746f7220717565727920666f72206e6f6e657860008201527f697374656e7420746f6b656e0000000000000000000000000000000000000000602082015250565b7f496e73756666696369656e742066756e64730000000000000000000000000000600082015250565b7f4552433732313a20617070726f76652063616c6c6572206973206e6f74206f7760008201527f6e6572206e6f7220617070726f76656420666f7220616c6c0000000000000000602082015250565b7f57686974656c6973742063616e6e6f7420657863656564203230303000000000600082015250565b7f4552433732313a2062616c616e636520717565727920666f7220746865207a6560008201527f726f206164647265737300000000000000000000000000000000000000000000602082015250565b7f4552433732313a206f776e657220717565727920666f72206e6f6e657869737460008201527f656e7420746f6b656e0000000000000000000000000000000000000000000000602082015250565b7f4552433732313a206d696e7420746f20746865207a65726f2061646472657373600082015250565b7f50726573616c65206973206e6f74207061757365640000000000000000000000600082015250565b7f4552433732313a20617070726f76656420717565727920666f72206e6f6e657860008201527f697374656e7420746f6b656e0000000000000000000000000000000000000000602082015250565b7f546865726520617265206e6f2073616c65732061742074686973207465726d6960008201527f6e61746564000000000000000000000000000000000000000000000000000000602082015250565b7f4552433732314d657461646174613a2055524920736574206f66206e6f6e657860008201527f697374656e7420746f6b656e0000000000000000000000000000000000000000602082015250565b7f4f776e61626c653a2063616c6c6572206973206e6f7420746865206f776e6572600082015250565b7f4552433732313a207472616e73666572206f6620746f6b656e2074686174206960008201527f73206e6f74206f776e0000000000000000000000000000000000000000000000602082015250565b7f4552433732314d657461646174613a2055524920717565727920666f72206e6f60008201527f6e6578697374656e7420746f6b656e0000000000000000000000000000000000602082015250565b7f4d757374206d696e74206174206c65617374206f6e6520746f6b656e00000000600082015250565b7f4552433732313a20617070726f76616c20746f2063757272656e74206f776e6560008201527f7200000000000000000000000000000000000000000000000000000000000000602082015250565b7f50726573616c652c206c696d6974656420616d6f756e74206f6620746f6b656e60008201527f7300000000000000000000000000000000000000000000000000000000000000602082015250565b7f4769766561776179206e6f742061637469766500000000000000000000000000600082015250565b7f416464726573732069736e27742077686974656c697374656400000000000000600082015250565b7f4552433732313a207472616e736665722063616c6c6572206973206e6f74206f60008201527f776e6572206e6f7220617070726f766564000000000000000000000000000000602082015250565b7f50726573616c65206973206e6f74206163746976650000000000000000000000600082015250565b7f5265656e7472616e637947756172643a207265656e7472616e742063616c6c00600082015250565b7f50726573616c652c20696e73756666696369656e742066756e64730000000000600082015250565b7f4769766561776179206e6f742070617573656400000000000000000000000000600082015250565b6156e281614d29565b81146156ed57600080fd5b50565b6156f981614d3b565b811461570457600080fd5b50565b61571081614d4d565b811461571b57600080fd5b50565b61572781614d59565b811461573257600080fd5b50565b61573e81614da5565b811461574957600080fd5b50565b61575581614daf565b811461576057600080fd5b5056fea2646970667358221220adf6c3bf0b08366e1eadc4fe17542faa967fbc673c8147f0eaf07479c78ce41264736f6c63430008040033",
  "linkReferences": {},
  "deployedLinkReferences": {}
}